:0400000077EF00F0A6
:100008005F82FACFE8F0FBCFE9F0E1CFEAF0E2CF88
:10001800EBF0D9CFECF0DACFEDF0F3CFEEF0F4CF90
:10002800EFF0F6CFF0F0F7CFF1F0F8CFF2F0F5CF30
:10003800F3F00E01C2B9CAA903D051EC67F039D068
:10004800F2AC37D0C6B3CEA303D09AEC65F031D06A
:10005800C6B5CEA503D002EC64F02BD0C5B3CDA3B2
:1000680009D001D826D00500FA6E0001F851FD6EBE
:10007800F9511BD0C5A102D0CDB1F3D7C5BBCDABCB
:1000880009D001D816D00500FA6E0101FC51FD6EA9
:10009800FD510BD0C5B9CDA90CD001D80AD00500A7
:1000A800FA6E0301E951FD6EEA51FE6EFF6AFA50DD
:1000B8001200F3C0F5FFF2C0F8FFF1C0F7FFF0C07F
:1000C800F6FFEFC0F4FFEEC0F3FFEDC0DAFFECC0BF
:1000D800D9FFEBC0E2FFEAC0E1FFE9C0FBFFE8C0DF
:0A00E800FAFF5F921100DAEF5EF0FC
:100F000000C6CE6ACE5ACE54B610BBBACEDEBE9460
:100F1000CF8CCF84CF7CCF74CF6CCF64CFAECEFAE2
:100F2000C100000000DCCFD1350000000000C0157A
:100F30003F6042A20D70A5EC363BAAB83F4F387611
:100F40003F3CAA38338CBEBF350072313F18723136
:100F50003F4CBB31330EEADDB555B38A38610B36F1
:100F6000BBABAA2A3E42F1533E55326C3E05A38BE1
:100F70003EABAAAA3EB76DDB3E9A99193F6042A2EA
:100F80000DCAF249710000804B0000803F0000C094
:100F90003F00AAB83FC623F6B80040763F537461BD
:100FA00072696E672E2E2E0A0D0025753B25302E98
:100FB00033663B0025753B25352E35663B00257590
:100FC0003B25753B0025753B25750025662563008F
:090FD000696E66006E616E00009E
:100FDA007FC2B8F380C2B9F381C2BAF382C2BBF34B
:100FEA00B8C360F3B9C361F3BAC362F3BBC363F3B3
:100FFA0083C2B8F384C2B9F385C2BAF386C2BBF31B
:10100A00B8C384F3B9C385F3BAC386F3BBC387F302
:10101A00FF0E03016015A86FFF0E6115A96FFF0E81
:10102A006215AA6F7F0E6315AB6FFF0E8415986F5A
:10103A00FF0E8515996FFF0E86159A6F7F0E87151D
:10104A009B6F985199119A119B11D8A40AD0000E3E
:10105A0002017F6F000E806F800E816F3F0E826FDC
:10106A001200800E621910E13F0E631960116111BE
:10107A00D8A40AD0000E02017F6F000E806F800E86
:10108A00816F3F0E826F1200ABBF09D0A805000E18
:10109A00A959800EAA597F0EAB59D8B00BD09BBF65
:1010AA0024D09805000E9959800E9A597F0E9B59A3
:1010BA00D8A01BD07FC215F280C216F281C217F2E5
:1010CA0082C218F283C219F284C21AF285C21BF2D2
:1010DA0086C21CF240EC45F015C27FF216C280F2BD
:1010EA0017C281F218C282F21200000E506F000E6F
:1010FA00516F000E526F000E536F63AFB1D09BBF9A
:10110A000ED0800E9A5D4B0E9B59D8A008D0020EC5
:10111A00506F000E516F000E526F000EA0D09BBF91
:10112A009FD0800E9A5D3F0E9B59D8A099D0170E7A
:10113A000201876F98C388F299C389F29AC38AF227
:10114A009BC38BF2876701D007D08B358B338A33E9
:10115A0089338833872FF6D7810E02018825030148
:10116A00A06FFF0E020189210301A16FFF0E020188
:10117A008A210301A26FFF0E02018B210301A36FD3
:10118A00A05117080201876F98C388F299C389F2A0
:10119A009AC38AF29BC38BF2876701D007D08B353B
:1011AA008B338A3389338833872FF6D788C2ACF3D7
:1011BA0089C2ADF38AC2AEF38BC2AFF30301A05169
:1011CA0017080201876FACC388F2ADC389F2AEC3B8
:1011DA008AF2AFC38BF2872B05D0D890883789372C
:1011EA008A378B37872FF9D703019851020188195B
:1011FA0037E1030199510201891932E103019A5138
:10120A0002018A192DE103019B5102018B19D8A40D
:10121A0027D0010E0301AC150201876F000E0301EE
:10122A00AD150201886F000E0301AE150201896F28
:10123A00000E0301AF1502018A6F875102080301EC
:10124A00506F000E020188550301516F000E020112
:10125A0089550301526F000E02018A550301536F2B
:10126A00800E03019A1958E17F0E9B199811991162
:10127A00D8A452D0800EAA1910E13F0EAB19A811BA
:10128A00A911D8A40AD0000E02017F6F000E806F48
:10129A00800E816F3F0E826F1200ABBF1ED0A80571
:1012AA00000EA959800EAA593F0EAB59D8A015D0E5
:1012BA0087AF0AD0000E02017F6F000E806F000E0A
:1012CA00816F000E826F120083C27FF284C280F2A5
:1012DA0085C281F286C282F2120087AF13D083C21E
:1012EA0000F284C201F285C202F286C203F2D2EC93
:1012FA0063F000C27FF201C280F202C281F203C22D
:10130A0082F21200000E02017F6F000E806F000E43
:10131A00816F000E826F1200800E9A192DE13F0E26
:10132A009B1998119911D8A427D087AF1CD0000E09
:10133A000201466F000E476F800E486F3F0E496FDD
:10134A007FC24AF280C24BF281C24CF282C24DF293
:10135A004DEC48F046C27FF247C280F248C281F2A1
:10136A0049C282F212007FC27FF280C280F281C239
:10137A0081F282C282F21200400E8719841185110D
:10138A008611D8A41BD07FC225F280C226F281C260
:10139A0027F282C228F27FC229F280C22AF281C2CF
:1013AA002BF282C22CF2EDEC41F025C27FF226C26A
:1013BA0080F227C281F228C282F212003F0E8719F8
:1013CA00841185118611D8B463BF13D07FC252F23B
:1013DA0080C253F281C254F282C255F2D5EC3FF078
:1013EA0052C27FF253C280F254C281F255C282F2D3
:1013FA0012007FC200F280C201F281C202F282C2EE
:10140A0003F251EC63F000C270F301C271F302C23D
:10141A0072F303C273F3800E0301AA1906E17F0E69
:10142A00AB19A811A911D8B40FD0A851A911AA11A2
:10143A00AB11D8B409D0800EAA1905E13F0EAB1939
:10144A00A811A911D8A4BBD070C3B4F371C3B5F362
:10145A0072C3B6F373C3B7F387AF1BD0000E020192
:10146A00466F000E476F800E486F3F0E496FB4C338
:10147A004AF2B5C34BF2B6C34CF2B7C34DF24DECC8
:10148A0048F046C2B4F347C2B5F348C2B6F349C2FC
:10149A00B7F3030163AF8AD0000EA8250201876F54
:1014AA00000E0301A9210201886F800E0301AA21FF
:1014BA000201896FC00E0301AB2102018A6F030189
:1014CA005051020187118B6F03015151020188119A
:1014DA008C6F03015251020189118D6F030153511F
:1014EA0002018A118E6F8B518C118D118E11D8A425
:1014FA0044D0000E0101F56F210EF46FB4C342F21D
:10150A00B5C343F2B6C344F2B7C345F2B4C33EF21D
:10151A00B5C33FF2B6C340F2B7C341F270EC61F013
:10152A003EC246F23FC247F240C248F241C249F2C5
:10153A00B4C342F2B5C343F2B6C344F2B7C345F2E9
:10154A00B4C33EF2B5C33FF2B6C340F2B7C341F2E9
:10155A0070EC61F03EC24AF23FC24BF240C24CF21A
:10156A0041C24DF24DEC48F046C2B4F347C2B5F35E
:10157A0048C2B6F349C2B7F319D003015005511155
:10158A0052115311D8A412D0B4C300F2B5C301F258
:10159A00B6C302F2B7C303F2D2EC63F000C2B4F3EB
:1015AA0001C2B5F302C2B6F303C2B7F3B4C37FF202
:1015BA00B5C380F2B6C381F2B7C382F21200000E3D
:1015CA00886F000E896F800E8A6F3F0E8B6F63AF34
:1015DA0058D05051511152115311D8A444D0000E71
:1015EA000101F56F210EF46F7FC242F280C243F20D
:1015FA0081C244F282C245F27FC23EF280C23FF209
:10160A0081C240F282C241F270EC61F03EC246F2FF
:10161A003FC247F240C248F241C249F27FC242F297
:10162A0080C243F281C244F282C245F27FC23EF2D4
:10163A0080C23FF281C240F282C241F270EC61F094
:10164A003EC24AF23FC24BF240C24CF241C24DF294
:10165A004DEC48F046C27FF247C280F248C281F29E
:10166A0049C282F212005005511152115311D8A4E5
:10167A0008D0000E886F000E896F800E8A6FBF0E29
:10168A008B6F9BBF7AD29805000E9959000E9A5912
:10169A004D0E9B59D8A071D2ABBF0AD0F80EA85DE7
:1016AA00FF0EA9597F0EAA593F0EAB59D8B070D078
:1016BA0087BF37D0600E0201296F420E2A6FA20E31
:1016CA002B6F0D0E2C6F88C325F289C326F28AC3AD
:1016DA0027F28BC328F2EDEC41F025C2A4F326C20F
:1016EA00A5F327C2A6F328C2A7F3A4C325F2A5C36C
:1016FA0026F2A6C327F2A7C328F2600E0201296FB9
:10170A00420E2A6FA20E2B6F0D0E2C6FEDEC41F0DC
:10171A0025C27FF226C280F227C281F228C282F253
:10172A001200CA0E0201296FF20E2A6F490E2B6FA0
:10173A00710E2C6F88C325F289C326F28AC327F259
:10174A008BC328F2EDEC41F025C2A4F326C2A5F31F
:10175A0027C2A6F328C2A7F3A4C325F2A5C326F27B
:10176A00A6C327F2A7C328F2CA0E0201296FF20EF6
:10177A002A6F490E2B6F710E2C6FEDEC41F025C2CA
:10178A007FF226C280F227C281F228C282F21200B8
:10179A00ABBF81D0080EA85D000EA959800EAA59C8
:1017AA003F0EAB59D8A077D087BF07D08751861193
:1017BA0085113AE18405D8B037D0600E0201296F4D
:1017CA00420E2A6FA20E2B6F0D0E2C6F88C325F2C4
:1017DA0089C326F28AC327F28BC328F2EDEC41F0C3
:1017EA0025C2A4F326C2A5F327C2A6F328C2A7F3EB
:1017FA00A4C325F2A5C326F2A6C327F2A7C328F2DB
:10180A00600E0201296F420E2A6FA20E2B6F0D0E77
:10181A002C6FEDEC41F025C27FF226C280F227C27E
:10182A0081F228C282F21200CA0E0201296FF20E58
:10183A002A6F490E2B6F710E2C6F88C325F289C34C
:10184A0026F28AC327F28BC328F2EDEC41F025C2B7
:10185A00A4F326C2A5F327C2A6F328C2A7F3A4C3FA
:10186A0025F2A5C326F2A6C327F2A7C328F2CA0EF9
:10187A000201296FF20E2A6F490E2B6F710E2C6F1F
:10188A00EDEC41F025C27FF226C280F227C281F236
:10189A0028C282F2120070C315F271C316F272C323
:1018AA0017F273C318F2000E0201196F000E1A6FB5
:1018BA00800E1B6FBF0E1C6F40EC45F015C2B0F3D3
:1018CA0016C2B1F317C2B2F318C2B3F3000E020183
:1018DA00296F000E2A6F800E2B6F3E0E2C6FB0C33D
:1018EA0025F2B1C326F2B2C327F2B3C328F2EDEC54
:1018FA0041F025C242F226C243F227C244F228C26C
:10190A0045F2AB0E02013E6FAA0E3F6FAA0E406F60
:10191A003E0E416F70EC61F03EC2A4F33FC2A5F3E4
:10192A0040C2A6F341C2A7F3B0C329F2B1C32AF257
:10193A00B2C32BF2B3C32CF2B0C325F2B1C326F261
:10194A00B2C327F2B3C328F2EDEC41F025C254F337
:10195A0026C255F327C256F328C257F3B0C329F259
:10196A00B1C32AF2B2C32BF2B3C32CF2A4C325F239
:10197A00A5C326F2A6C327F2A7C328F2EDEC41F0CD
:10198A0025C242F226C243F227C244F228C245F2D5
:10199A00000E02013E6F000E3F6F000E406F3F0EB9
:1019AA00416F70EC61F03EC248F33FC249F340C256
:1019BA004AF341C24BF354C325F255C326F256C328
:1019CA0027F257C328F248C329F249C32AF24AC365
:1019DA002BF24BC32CF2EDEC41F025C244F326C2A4
:1019EA0045F327C246F328C247F3B0C325F2B1C371
:1019FA0026F2B2C327F2B3C328F2000E0201296FFE
:101A0A00AA0E2A6FB80E2B6F3F0E2C6FEDEC41F029
:101A1A0025C274F326C275F327C276F328C277F378
:101A2A00700E0201296FA50E2A6FEC0E2B6F360E6F
:101A3A002C6FB0C325F2B1C326F2B2C327F2B3C3E7
:101A4A0028F2EDEC41F025C23EF226C23FF227C24F
:101A5A0040F228C241F23B0E0201296FAA0E2A6FF8
:101A6A00B80E2B6F3F0E2C6F44C325F245C326F2E6
:101A7A0046C327F247C328F2EDEC41F025C242F2F1
:101A8A0026C243F227C244F228C245F270EC61F042
:101A9A003EC278F33FC279F340C27AF341C27BF384
:101AAA0074C315F275C316F276C317F277C318F228
:101ABA0078C319F279C31AF27AC31BF27BC31CF2F8
:101ACA0040EC45F015C280F316C281F317C282F3C7
:101ADA0018C283F380C3B8F381C3B9F382C3BAF3DC
:101AEA0083C3BBF3B8C390F3B9C391F3BAC392F3F8
:101AFA00BBC393F3000E03019015B86FF00E911556
:101B0A00B96FFF0E9215BA6FFF0E9315BB6FB8C36C
:101B1A0080F3B9C381F3BAC382F3BBC383F374C33B
:101B2A0042F275C343F276C344F277C345F280C3E7
:101B3A003EF281C33FF282C340F283C341F270ECAA
:101B4A0061F03EC294F33FC295F340C296F341C29C
:101B5A0097F378C33EF279C33FF27AC340F27BC36C
:101B6A0041F294C342F295C343F296C344F297C337
:101B7A0045F270EC61F026EF15F0000E7C6F000E56
:101B8A007D6F000E7E6F000E7F6FABBF06D0AB512C
:101B9A0038E1800EAA5DD8B034D070C325F271C383
:101BAA0026F272C327F273C328F2000E0201296FCC
:101BBA00000E2A6F800E2B6F4B0E2C6FEDEC41F04E
:101BCA0025C270F326C271F327C272F328C273F3D7
:101BDA00E80E03017C27FF0E7D23FF0E7E23FF0EF6
:101BEA007F2370C3B8F371C3B9F372C3BAF373C373
:101BFA00BBF3B8C3A8F3B9C3A9F3BAC3AAF3BBC367
:101C0A00ABF3170E0201876FA8C388F2A9C389F242
:101C1A00AAC38AF2ABC38BF2876701D007D08B3590
:101C2A008B338A3389338833872FF6D7810E0201A3
:101C3A0088258C6FFF0E89218D6FFF0E8A218E6F8A
:101C4A00FF0E8B218F6F8C5103017C2702018D516E
:101C5A0003017D2302018E5103017E2302018F516C
:101C6A0003017F23FF0EA815AC6FFF0EA915AD6FF8
:101C7A007F0EAA15AE6F000EAB15AF6F000EAC113A
:101C8A00A86F000EAD11A96F800EAE11AA6F3F0E9C
:101C9A00AF11AB6FAFBF0AD0AF510AE1720EAC5DA4
:101CAA00C40EAD591C0EAE59D8B002D0000E0DD0DC
:101CBA00AFBF0AD0AF5111E1D70EAC5DB30EAD592B
:101CCA005D0EAE59D8B009D0010EA06F000EA16FFB
:101CDA00000EA26F000EA36F16D0000EA06F000EAA
:101CEA00A16F000EA26F000EA36F010E7C27000EDB
:101CFA007D237E237F23000EA827000EA923800EB2
:101D0A00AA23FF0EAB23A8C3B8F3A9C3B9F3AAC386
:101D1A00BAF3ABC3BBF3B8C370F3B9C371F3BAC3B5
:101D2A0072F3BBC373F370C33EF271C33FF272C363
:101D3A0040F273C341F2A0C387F2A1C388F2020141
:101D4A00D89087378837D89087378837890E87257C
:101D5A00F66E0F0E8821F76EF86A000EF822090057
:101D6A00F5CF42F20900F5CF43F20900F5CF44F26C
:101D7A000A00F5CF45F270EC61F03EC274F33FC23F
:101D8A0075F340C276F341C277F3000E0201466F43
:101D9A00000E476F800E486F3F0E496F70C319F2ED
:101DAA0071C31AF272C31BF273C31CF2A0C387F287
:101DBA00A1C388F2D89087378837D8908737883771
:101DCA00890E8725F66E0F0E8821F76EF86A000EC7
:101DDA00F8220900F5CF15F20900F5CF16F209002D
:101DEA00F5CF17F20A00F5CF18F240EC45F015C20C
:101DFA004AF216C24BF217C24CF218C24DF24DEC1F
:101E0A0048F046C278F347C279F348C27AF349C226
:101E1A007BF374C325F275C326F276C327F277C320
:101E2A0028F278C329F279C32AF27AC32BF27BC348
:101E3A002CF2EDEC41F025C25CF326C25DF327C219
:101E4A005EF328C25FF35CC36CF35DC36DF35EC3DC
:101E5A006EF35FC36FF36CC3B8F36DC3B9F36EC3AC
:101E6A00BAF36FC3BBF3B8C390F3B9C391F3BAC360
:101E7A0092F3BBC393F3000E03019015B86FF00EF3
:101E8A009115B96FFF0E9215BA6FFF0E9315BB6FBE
:101E9A00B8C36CF3B9C36DF3BAC36EF3BBC36FF3C4
:101EAA00A8C387F2A9C388F2AAC389F2ABC38AF28C
:101EBA0002018A358A33893388338733000E8715BE
:101ECA008B6FF00E88158C6FFF0E89158D6FFF0EC4
:101EDA008A158E6F000E8B110301906F000E02019E
:101EEA008C110301916F000E02018D110301926F93
:101EFA00200E02018E110301936FA0C387F2A1C3C2
:101F0A0088F2A2C389F2A3C38AF2150ED8900201FD
:101F1A008737883789378A37E82EF8D703019051EF
:101F2A00020187258B6F03019151020188218C6F71
:101F3A0003019251020189218D6F0301935102011C
:101F4A008A218E6F000E8B250301B86F000E0201E5
:101F5A008C210301B96F400E02018D210301BA6F72
:101F6A00000E02018E210301BB6FB8C368F3B9C327
:101F7A0069F3BAC36AF3BBC36BF3A0C387F2A1C305
:101F8A0088F20201D89087378837D8908737883700
:101F9A00890E8725F66E0F0E8821F76EF86A000EF5
:101FAA00F8220900F5CF42F20900F5CF43F2090001
:101FBA00F5CF44F20A00F5CF45F268C33EF269C391
:101FCA003FF26AC340F26BC341F270EC61F03EC269
:101FDA0094F33FC295F340C296F341C297F370C39C
:101FEA003EF271C33FF272C340F273C341F294C32B
:101FFA0042F295C343F296C344F297C345F270EC9A
:10200A0061F03EC234F33FC235F340C236F341C2F7
:10201A0037F368C329F269C32AF26AC32BF26BC386
:10202A002CF26CC325F26DC326F26EC327F26FC37E
:10203A0028F2EDEC41F025C242F226C243F227C251
:10204A0044F228C245F274C33EF275C33FF276C326
:10205A0040F277C341F270EC61F03EC294F33FC2A2
:10206A0095F340C296F341C297F334C329F235C3BC
:10207A002AF236C32BF237C32CF26CC325F26DC396
:10208A0026F26EC327F26FC328F2EDEC41F025C2A7
:10209A0042F226C243F227C244F228C245F294C34E
:1020AA003EF295C33FF296C340F297C341F270ECF9
:1020BA0061F03EC254F33FC255F340C256F341C2E7
:1020CA0057F354C325F255C326F256C327F257C312
:1020DA0028F278C329F279C32AF27AC32BF27BC396
:1020EA002CF2EDEC41F025C230F326C231F327C2BF
:1020FA0032F328C233F35CC325F25DC326F25EC312
:10210A0027F25FC328F25CC329F25DC32AF25EC3D9
:10211A002BF25FC32CF2EDEC41F025C28CF326C200
:10212A008DF327C28EF328C28FF3550E0201196F61
:10213A00320E1A6F6C0E1B6F3E0E1C6F420E296F09
:10214A00F10E2A6F530E2B6F3E0E2C6F8CC325F2A5
:10215A008DC326F28EC327F28FC328F2EDEC41F02D
:10216A0025C215F226C216F227C217F228C218F2A1
:10217A0040EC45F015C2A4F316C2A5F317C2A6F3A4
:10218A0018C2A7F3050E0201196FA30E1A6F8B0E60
:10219A001B6F3E0E1C6F8CC329F28DC32AF28EC3AD
:1021AA002BF28FC32CF2A4C325F2A5C326F2A6C331
:1021BA0027F2A7C328F2EDEC41F025C215F226C298
:1021CA0016F227C217F228C218F240EC45F015C2DF
:1021DA0054F316C255F317C256F318C257F3AB0E8F
:1021EA000201196FAA0E1A6FAA0E1B6F3E0E1C6F00
:1021FA008CC329F28DC32AF28EC32BF28FC32CF221
:10220A0054C325F255C326F256C327F257C328F200
:10221A00EDEC41F025C215F226C216F227C217F2DA
:10222A0028C218F240EC45F015C248F316C249F329
:10223A0017C24AF318C24BF3B70E0201196F6D0E9B
:10224A001A6FDB0E1B6F3E0E1C6F8CC329F28DC3F7
:10225A002AF28EC32BF28FC32CF248C325F249C34C
:10226A0026F24AC327F24BC328F2EDEC41F025C20D
:10227A0015F226C216F227C217F228C218F240EC4B
:10228A0045F015C238F316C239F317C23AF318C229
:10229A003BF39A0E0201196F990E1A6F190E1B6FF2
:1022AA003F0E1C6F8CC329F28DC32AF28EC32BF208
:1022BA008FC32CF238C325F239C326F23AC327F268
:1022CA003BC328F2EDEC41F025C215F226C216F204
:1022DA0027C217F228C218F240EC45F015C200F3E3
:1022EA0016C201F317C202F318C203F38CC329F210
:1022FA008DC32AF28EC32BF28FC32CF28CC325F224
:10230A008DC326F28EC327F28FC328F2EDEC41F07B
:10231A0025C204F326C205F327C206F328C207F32F
:10232A0000C325F201C326F202C327F203C328F22F
:10233A0004C329F205C32AF206C32BF207C32CF2FF
:10234A00EDEC41F025C24CF326C24DF327C24EF301
:10235A0028C24FF330C329F231C32AF232C32BF217
:10236A0033C32CF25CC319F25DC31AF25EC31BF2CB
:10237A005FC31CF26CC315F26DC316F26EC317F27B
:10238A006FC318F240EC45F015C225F216C226F2C8
:10239A0017C227F218C228F2EDEC41F025C258F311
:1023AA0026C259F327C25AF328C25BF34CC315F26B
:1023BA004DC316F24EC317F24FC318F258C319F29F
:1023CA0059C31AF25AC31BF25BC31CF240EC45F024
:1023DA0015C24CF316C24DF317C24EF318C24FF38F
:1023EA006CC325F26DC326F26EC327F26FC328F2BF
:1023FA006CC329F26DC32AF26EC32BF26FC32CF29F
:10240A00EDEC41F025C28CF326C28DF327C28EF380
:10241A0028C28FF3000E0201196F000E1A6F400EC8
:10242A001B6F400E1C6F8CC315F28DC316F28EC340
:10243A0017F28FC318F240EC45F015C258F316C2D2
:10244A0059F317C25AF318C25BF358C315F259C3AA
:10245A0016F25AC317F25BC318F24CC319F24DC3F2
:10246A001AF24EC31BF24FC31CF240EC45F015C2E0
:10247A0068F316C269F317C26AF318C26BF368C32A
:10248A00B8F369C3B9F36AC3BAF36BC3BBF3B8C38E
:10249A0090F3B9C391F3BAC392F3BBC393F3000E9B
:1024AA0003019015B86FF00E9115B96FFF0E9215D2
:1024BA00BA6FFF0E9315BB6FB8C368F3B9C369F35C
:1024CA00BAC36AF3BBC36BF3000E0201196F000EA5
:1024DA001A6F400E1B6FC00E1C6F68C315F269C3DA
:1024EA0016F26AC317F26BC318F240EC45F015C234
:1024FA003CF316C23DF317C23EF318C23FF38CC336
:10250A0042F28DC343F28EC344F28FC345F23CC3F9
:10251A003EF23DC33FF23EC340F23FC341F270EC8C
:10252A0061F03EC240F33FC241F340C242F341C2AE
:10253A0043F34CC33EF24DC33FF24EC340F24FC386
:10254A0041F240C342F241C343F242C344F243C39D
:10255A0045F270EC61F03EC234F33FC235F340C23B
:10256A0036F341C237F36CC325F26DC326F26EC34C
:10257A0027F26FC328F268C329F269C32AF26AC331
:10258A002BF26BC32CF2EDEC41F025C274F326C298
:10259A0075F327C276F328C277F368C329F269C3B1
:1025AA002AF26AC32BF26BC32CF230C325F231C371
:1025BA0026F232C327F233C328F2EDEC41F025C2EA
:1025CA0015F226C216F227C217F228C218F25CC305
:1025DA0029F25DC32AF25EC32BF25FC32CF234C325
:1025EA0025F235C326F236C327F237C328F2EDECBB
:1025FA0041F025C219F226C21AF227C21BF228C2DA
:10260A001CF240EC45F015C278F316C279F317C2F2
:10261A007AF318C27BF374C315F275C316F276C344
:10262A0017F277C318F278C319F279C31AF27AC388
:10263A001BF27BC31CF240EC45F015C29CF316C298
:10264A009DF317C29EF318C29FF39CC3B8F39DC3B0
:10265A00B9F39EC3BAF39FC3BBF3B8C390F3B9C32C
:10266A0091F3BAC392F3BBC393F3000E030190151F
:10267A00B86FF00E9115B96FFF0E9215BA6FFF0E73
:10268A009315BB6FB8C39CF3B9C39DF3BAC39EF34A
:10269A00BBC39FF374C342F275C343F276C344F2D9
:1026AA0077C345F29CC33EF29DC33FF29EC340F2FC
:1026BA009FC341F270EC61F03EC294F33FC295F3BE
:1026CA0040C296F341C297F378C33EF279C33FF210
:1026DA007AC340F27BC341F294C342F295C343F2F8
:1026EA0096C344F297C345F270EC61F03EC264F3BC
:1026FA003FC265F340C266F341C267F39CC325F249
:10270A009DC326F29EC327F29FC328F2000E020140
:10271A00296F400E2A6F760E2B6F3F0E2C6FEDEC51
:10272A0041F025C220F326C221F327C222F328C290
:10273A0023F34F0E0201296F380E2A6F760E2B6F84
:10274A003F0E2C6F64C325F265C326F266C327F2D7
:10275A0067C328F2EDEC41F025C219F226C21AF23B
:10276A0027C21BF228C21CF2C60E0201296F230ED1
:10277A002A6FF60E2B6FB80E2C6F9CC325F29DC3E1
:10278A0026F29EC327F29FC328F2EDEC41F025C240
:10279A0015F226C216F227C217F228C218F240EC26
:1027AA0045F015C258F316C259F317C25AF318C2A4
:1027BA005BF358C315F259C316F25AC317F25BC337
:1027CA0018F2A0C387F2A1C388F20201D890873712
:1027DA008837D89087378837210E8725F66E0F0EEF
:1027EA008821F76EF86A000EF8220900F5CF19F26F
:1027FA000900F5CF1AF20900F5CF1BF20A00F5CF4E
:10280A001CF240EC45F015C224F316C225F317C298
:10281A0026F318C227F37CC307F27DC308F27EC3EE
:10282A0009F27FC30AF2010EA8EC52F007C2B0F314
:10283A0008C2B1F309C2B2F30AC2B3F324C319F24C
:10284A0025C31AF226C31BF227C31CF220C315F2B2
:10285A0021C316F222C317F223C318F240EC45F043
:10286A0015C258F316C259F317C25AF318C25BF3CA
:10287A00A0C387F2A1C388F20201D89087378837AC
:10288A00D89087378837290E8725F66E0F0E88214C
:10289A00F76EF86A000EF8220900F5CF19F209005E
:1028AA00F5CF1AF20900F5CF1BF20A00F5CF1CF298
:1028BA0058C315F259C316F25AC317F25BC318F27A
:1028CA0040EC45F015C208F316C209F317C20AF321
:1028DA0018C20BF308C315F209C316F20AC317F29A
:1028EA000BC318F2B0C319F2B1C31AF2B2C31BF286
:1028FA00B3C31CF240EC45F015C280F316C281F353
:10290A0017C282F318C283F380C3B8F381C3B9F341
:10291A0082C3BAF383C3BBF3B8C390F3B9C391F3C9
:10292A00BAC392F3BBC393F3000E03019015B86FB9
:10293A00F00E9115B96FFF0E9215BA6FFF0E93152F
:10294A00BB6FB8C380F3B9C381F3BAC382F3BBC305
:10295A0083F3B0C342F2B1C343F2B2C344F2B3C386
:10296A0045F280C33EF281C33FF282C340F283C381
:10297A0041F270EC61F03EC294F33FC295F340C25B
:10298A0096F341C297F3A0C387F2A1C388F202016A
:10299A00D89087378837D89087378837290E872580
:1029AA00F66E0F0E8821F76EF86A000EF8220900FB
:1029BA00F5CF42F20900F5CF43F20900F5CF44F210
:1029CA000A00F5CF45F294C33EF295C33FF296C38F
:1029DA0040F297C341F270EC61F03EC240F33FC24D
:1029EA0041F340C242F341C243F320C342F221C33E
:1029FA0043F222C344F223C345F240C33EF241C329
:102A0A003FF242C340F243C341F270EC61F03EC26E
:102A1A000CF33FC20DF340C20EF341C20FF324C3BD
:102A2A003EF225C33FF226C340F227C341F20CC34C
:102A3A0042F20DC343F20EC344F20FC345F270ECE7
:102A4A0061F03EC21CF33FC21DF340C21EF341C2F5
:102A5A001FF383C2B8F384C2B9F385C2BAF386C23C
:102A6A00BBF3B8C390F3B9C391F3BAC392F3BBC330
:102A7A0093F3000E03019015B86FF00E9115B96F1C
:102A8A00FF0E9215BA6FFF0E9315BB6FB8C328F3EA
:102A9A00B9C329F3BAC32AF3BBC32BF380C329F200
:102AAA0081C32AF282C32BF283C32CF228C342F2D7
:102ABA0029C343F22AC344F22BC345F283C23EF22E
:102ACA0084C23FF285C240F286C241F270EC61F0E4
:102ADA003EC225F23FC226F240C227F241C228F284
:102AEA00EDEC41F025C210F326C211F327C212F30E
:102AFA0028C213F310C315F211C316F212C317F248
:102B0A0013C318F21CC329F21DC32AF21EC32BF2E7
:102B1A001FC32CF283C225F284C226F285C227F291
:102B2A0086C228F2EDEC41F025C219F226C21AF249
:102B3A0027C21BF228C21CF240EC45F015C264F30E
:102B4A0016C265F317C266F318C267F328C325F2E3
:102B5A0029C326F22AC327F22BC328F280C329F2FB
:102B6A0081C32AF282C32BF283C32CF2EDEC41F02B
:102B7A0025C29CF326C29DF327C29EF328C29FF367
:102B8A0064C315F265C316F266C317F267C318F277
:102B9A009CC319F29DC31AF29EC31BF29FC31CF277
:102BAA0040EC45F015C2B4F316C2B5F317C2B6F33A
:102BBA0018C2B7F3B4C3B8F3B5C3B9F3B6C3BAF31B
:102BCA00B7C3BBF3B8C3ACF3B9C3ADF3BAC3AEF37F
:102BDA00BBC3AFF30301AFBF40D0AC05000EAD5984
:102BEA00000EAE59430EAF59D8A037D0CA0E020113
:102BFA00296FF20E2A6F490E2B6F710E2C6F88C344
:102C0A0025F289C326F28AC327F28BC328F2EDEC98
:102C1A0041F025C2A4F326C2A5F327C2A6F328C20F
:102C2A00A7F3A4C325F2A5C326F2A6C327F2A7C316
:102C3A0028F2CA0E0201296FF20E2A6F490E2B6F73
:102C4A00710E2C6FEDEC41F025C27FF226C280F2A4
:102C5A0027C281F228C282F21200430EAF19AC11C8
:102C6A00AD11AE11D8A470D09CC342F29DC343F2F9
:102C7A009EC344F29FC345F2B4C33EF2B5C33FF2CA
:102C8A00B6C340F2B7C341F270EC61F03EC246F2FD
:102C9A003FC247F240C248F241C249F23C0E020129
:102CAA00196FAA0E1A6F380E1B6F330E1C6F64C38E
:102CBA0015F265C316F266C317F267C318F240EC41
:102CCA0045F015C24AF216C24BF217C24CF218C2AC
:102CDA004DF2DAEC55F00201D8B0F1D0CA0E296FE4
:102CEA00F20E2A6F490E2B6F710E2C6F88C325F2D4
:102CFA0089C326F28AC327F28BC328F2EDEC41F08E
:102D0A0025C2A4F326C2A5F327C2A6F328C2A7F3B5
:102D1A00A4C325F2A5C326F2A6C327F2A7C328F2A5
:102D2A00CA0E0201296FF20E2A6F490E2B6F710E1D
:102D3A002C6FEDEC41F025C27FF226C280F227C249
:102D4A0081F228C282F21200FF0EAC150201876FCF
:102D5A00FF0E0301AD150201886FFF0E0301AE15C8
:102D6A000201896F7F0E0301AF1502018A6F8ABFC4
:102D7A003FD08705000E8859160E8959430E8A5985
:102D8A00D8A036D0600E296F420E2A6FA20E2B6F82
:102D9A000D0E2C6F88C325F289C326F28AC327F247
:102DAA008BC328F2EDEC41F025C2A4F326C2A5F3A9
:102DBA0027C2A6F328C2A7F3A4C325F2A5C326F205
:102DCA00A6C327F2A7C328F2600E0201296F420E9A
:102DDA002A6FA20E2B6F0D0E2C6FEDEC41F025C25F
:102DEA007FF226C280F227C281F228C282F2120042
:102DFA00160E0301AE1963E1C30EAF19AC11AD1182
:102E0A00D8A45DD09CC342F29DC343F29EC344F250
:102E1A009FC345F2B4C33EF2B5C33FF2B6C340F214
:102E2A00B7C341F270EC61F03EC246F23FC247F2CC
:102E3A0040C248F241C249F264C34AF265C34BF246
:102E4A0066C34CF267C34DF2DAEC55F00201D8A022
:102E5A0036D0600E296F420E2A6FA20E2B6F0D0E0E
:102E6A002C6F88C325F289C326F28AC327F28BC343
:102E7A0028F2EDEC41F025C2A4F326C2A5F327C23D
:102E8A00A6F328C2A7F3A4C325F2A5C326F2A6C3B4
:102E9A0027F2A7C328F2600E0201296F420E2A6F99
:102EAA00A20E2B6F0D0E2C6FEDEC41F025C27FF2B6
:102EBA0026C280F227C281F228C282F21200FF0ED5
:102ECA000301AC152C6FFF0EAD152D6FFF0EAE155D
:102EDA002E6F7F0EAF152F6F170E0201876F2CC34F
:102EEA0088F22DC389F22EC38AF22FC38BF2876729
:102EFA0001D007D08B358B338A3389338833872FB8
:102F0A00F6D7810E020188250301A06FFF0E020188
:102F1A0089210301A16FFF0E02018A210301A26F19
:102F2A00FF0E02018B210301A36F000E7C6F000EBE
:102F3A007D6F000E7E6F000E7F6F2FBFFCD02C05B9
:102F4A00000E2D59000E2E593F0E2F59D8A0F3D03E
:102F5A00A0C387F2010E02018727000E886F000EB8
:102F6A00896F800E8A6F000E8B6F876701D007D03A
:102F7A008B358B338A3389338833872FF6D703010E
:102F8A00AC510201882503017C6FAD5102018921F0
:102F9A0003017D6FAE5102018A2103017E6FAF5199
:102FAA0002018B2103017F6F810E0201876FFF0EE1
:102FBA00886FFF0E896FFF0E8A6F170E8B6F7CC3A7
:102FCA008CF27DC38DF27EC38EF27FC38FF28B6744
:102FDA0001D007D08F358F338E338D338C338B2FBF
:102FEA00F6D702018C5187250301A06F000E02015A
:102FFA0088210301A16F000E020189210301A26F3A
:10300A00000E02018A210301A36FA0C387F2FF0EFB
:10301A000201886FFF0E896F7F0E8A6F000E8B6F19
:10302A00876701D007D08B358B338A33893388334E
:10303A00872FF6D70201881D8C6F891D8D6F8A1D17
:10304A008E6F8B1D8F6F03017C5102018C1503015A
:10305A00B86F7D5102018D150301B96F7E510201CE
:10306A008E150301BA6F7F5102018F150301BB6FE1
:10307A00B8C3B0F3B9C3B1F3BAC3B2F3BBC3B3F3C2
:10308A00A05117080201876FFF0E03017C15020188
:10309A00886FFF0E03017D150201896F7F0E030100
:1030AA007E1502018A6F000E03017F1502018B6FE4
:1030BA00000E88118C6F000E89118D6F800E8A1197
:1030CA008E6F000E8B118F6F876701D007D08F35F7
:1030DA008F338E338D338C33872FF6D78CC27CF3A4
:1030EA008DC27DF38EC27EF38FC27FF30301AFAF31
:1030FA0008D07F1F7E1F7D1F7C6D000E7D237E23DF
:10310A007F239CC33EF29DC33FF29EC340F29FC3FE
:10311A0041F2B0C342F2B1C343F2B2C344F2B3C301
:10312A0045F270EC61F03EC29CF33FC29DF340C28F
:10313A009EF341C29FF364C315F265C316F266C3D8
:10314A0017F267C318F29CC319F29DC31AF29EC301
:10315A001BF29FC31CF240EC45F015C2B0F316C235
:10316A00B1F317C2B2F318C2B3F3B0C3B8F3B1C321
:10317A00B9F3B2C3BAF3B3C3BBF3B8C390F3B9C3D9
:10318A0091F3BAC392F3BBC393F3000E03019015F4
:10319A00B86F800E9115B96FFF0E9215BA6FFF0EB8
:1031AA009315BB6FB8C3B0F3B9C3B1F3BAC3B2F3E3
:1031BA00BBC3B3F3B0C325F2B1C326F2B2C327F23D
:1031CA00B3C328F2000E0201296F720E2A6F310E64
:1031DA002B6F3F0E2C6FEDEC41F025C274F326C223
:1031EA0075F327C276F328C277F39CC342F29DC3D4
:1031FA0043F29EC344F29FC345F2B0C33EF2B1C349
:10320A003FF2B2C340F2B3C341F270EC61F03EC286
:10321A0094F33FC295F340C296F341C297F3180E56
:10322A000201296F720E2A6F310E2B6F3F0E2C6F1F
:10323A0094C342F295C343F296C344F297C345F24C
:10324A0064C33EF265C33FF266C340F267C341F20C
:10325A0070EC61F03EC225F23FC226F240C227F26C
:10326A0041C228F2EDEC41F025C214F326C215F34F
:10327A0027C216F328C217F314C315F215C316F2A0
:10328A0016C317F217C318F28C0E0201296FBE0E6D
:10329A002A6FBF0E2B6F350E2C6FB0C325F2B1C348
:1032AA0026F2B2C327F2B3C328F2EDEC41F025C2ED
:1032BA0019F226C21AF227C21BF228C21CF240ECEB
:1032CA0045F015C278F316C279F317C27AF318C219
:1032DA007BF374C315F275C316F276C317F277C37C
:1032EA0018F278C319F279C31AF27AC31BF27BC3B4
:1032FA001CF240EC45F015C2B4F316C2B5F317C27E
:10330A00B6F318C2B7F374C342F275C343F276C375
:10331A0044F277C345F2B4C33EF2B5C33FF2B6C333
:10332A0040F2B7C341F270EC61F03EC294F33FC27F
:10333A0095F340C296F341C297F378C33EF279C33C
:10334A003FF27AC340F27BC341F294C342F295C37F
:10335A0043F296C344F297C345F270EC61F03EC261
:10336A0044F33FC245F340C246F341C247F3B4C3F4
:10337A0025F2B5C326F2B6C327F2B7C328F2B4C3FF
:10338A0029F2B5C32AF2B6C32BF2B7C32CF2EDEC7D
:10339A0041F025C2B0F326C2B1F327C2B2F328C264
:1033AA00B3F30E0E0201196FEA0E1A6FDD0E1B6FD0
:1033BA00B50E1C6F4C0E296FBB0E2A6F310E2B6F88
:1033CA00330E2C6FB0C325F2B1C326F2B2C327F273
:1033DA00B3C328F2EDEC41F025C215F226C216F26B
:1033EA0027C217F228C218F240EC45F015C2A4F31E
:1033FA0016C2A5F317C2A6F318C2A7F3550E020107
:10340A00196FB30E1A6F8A0E1B6F380E1C6FB0C37A
:10341A0029F2B1C32AF2B2C32BF2B3C32CF2A4C36A
:10342A0025F2A5C326F2A6C327F2A7C328F2EDEC1C
:10343A0041F025C215F226C216F227C217F228C297
:10344A0018F240EC45F015C254F316C255F317C2F0
:10345A0056F318C257F3610E0201196F0B0E1A6F59
:10346A00360E1B6FBB0E1C6FB0C329F2B1C32AF212
:10347A00B2C32BF2B3C32CF254C325F255C326F2BE
:10348A0056C327F257C328F2EDEC41F025C215F2D4
:10349A0026C216F227C217F228C218F240EC45F0EB
:1034AA0015C248F316C249F317C24AF318C24BF3BE
:1034BA00AB0E0201196FAA0E1A6F2A0E1B6F3E0E6F
:1034CA001C6FB0C329F2B1C32AF2B2C32BF2B3C341
:1034DA002CF248C325F249C326F24AC327F24BC34A
:1034EA0028F2EDEC41F025C215F226C216F227C2E7
:1034FA0017F228C218F240EC45F015C238F316C28A
:10350A0039F317C23AF318C23BF3B4C33EF2B5C358
:10351A003FF2B6C340F2B7C341F2B0C329F2B1C316
:10352A002AF2B2C32BF2B3C32CF238C325F239C341
:10353A0026F23AC327F23BC328F2EDEC41F025C24A
:10354A0042F226C243F227C244F228C245F270EC84
:10355A0061F03EC280F33FC281F340C282F341C2AE
:10356A0083F3000E0201196F000E1A6F000E1B6F13
:10357A00C00E1C6F80C315F281C316F282C317F204
:10358A0083C318F240EC45F015C24AF216C24BF258
:10359A0017C24CF218C24DF280C329F281C32AF233
:1035AA0082C32BF283C32CF2B4C325F2B5C326F22D
:1035BA00B6C327F2B7C328F2EDEC41F025C246F2B2
:1035CA0026C247F227C248F228C249F24DEC48F017
:1035DA0046C23CF347C23DF348C23EF349C23FF3F9
:1035EA0044C319F245C31AF246C31BF247C31CF27D
:1035FA0044C329F245C32AF246C32BF247C32CF22D
:10360A00B4C325F2B5C326F2B6C327F2B7C328F26C
:10361A00EDEC41F025C215F226C216F227C217F2C6
:10362A0028C218F240EC45F015C218F316C219F375
:10363A0017C21AF318C21BF33CC33EF23DC33FF252
:10364A003EC340F23FC341F218C342F219C343F2E8
:10365A001AC344F21BC345F270EC61F03EC24CF34C
:10366A003FC24DF340C24EF341C24FF3B4C342F2DC
:10367A00B5C343F2B6C344F2B7C345F24CC33EF2F4
:10368A004DC33FF24EC340F24FC341F270EC61F0BA
:10369A003EC294F33FC295F340C296F341C297F3F8
:1036AA00000E02013E6F000E3F6F800E406F3F0E0C
:1036BA00416F94C342F295C343F296C344F297C34F
:1036CA0045F270EC61F03EC2B4F33FC2B5F340C2BA
:1036DA00B6F341C2B7F3B4C3B8F3B5C3B9F3B6C3CB
:1036EA00BAF3B7C3BBF3B8C3ACF3B9C3ADF3BAC348
:1036FA00AEF3BBC3AFF37CC387F27DC388F27EC34C
:10370A0089F27FC38AF2170ED89002018737883769
:10371A0089378A37E82EF8D787510301AC27020187
:10372A0088510301AD23020189510301AE2302012D
:10373A008A510301AF23170E0201876FACC388F2C7
:10374A00ADC389F2AEC38AF2AFC38BF2876701D0E9
:10375A0007D08B358B338A3389338833872FF6D753
:10376A0002018BBF07D08B518A1189111AE1880592
:10377A00D8B017D0B4C33EF2B5C33FF2B6C340F2D5
:10378A00B7C341F27CC342F27DC343F2D3EC4BF0A0
:10379A003EC2B4F33FC2B5F340C2B6F341C2B7F377
:1037AA0010D0ACC3B8F3ADC3B9F3AEC3BAF3AFC369
:1037BA00BBF3B8C3B4F3B9C3B5F3BAC3B6F3BBC367
:1037CA00B7F388C325F289C326F28AC327F28BC3CB
:1037DA0028F2B4C329F2B5C32AF2B6C32BF2B7C38F
:1037EA002CF2EDEC41F025C27FF226C280F227C20C
:1037FA0081F228C282F2120084C0B8F185C0B9F100
:10380A0086C0BAF187C0BBF1B8C160F1B9C161F134
:10381A00BAC162F1BBC163F188C0B8F189C0B9F11C
:10382A008AC0BAF18BC0BBF1B8C184F1B9C185F1C4
:10383A00BAC186F1BBC187F1FF0E01016015A86FFD
:10384A00FF0E6115A96FFF0E6215AA6F7F0E631531
:10385A00AB6FFF0E8415986FFF0E8515996FFF0EDB
:10386A0086159A6F7F0E87159B6F985199119A1139
:10387A009B11D8A40AD0000E0001846F000E856F38
:10388A00800E866F3F0E876F1200800E621910E15C
:10389A003F0E631960116111D8A40AD0000E00010D
:1038AA00846F000E856F800E866F3F0E876F120041
:1038BA00ABBF09D0A805000EA959800EAA597F0EE0
:1038CA00AB59D8B00BD09BBF24D09805000E99599C
:1038DA00800E9A597F0E9B59D8A01BD084C016F02F
:1038EA0085C017F086C018F087C019F088C01AF092
:1038FA0089C01BF08AC01CF08BC01DF0C7EC46F0D3
:10390A0016C084F017C085F018C086F019C087F079
:10391A001200000E506F000E516F000E526F000E13
:10392A00536F63AFB1D09BBF0ED0800E9A5D4B0E22
:10393A009B59D8A008D0020E506F000E516F000E8E
:10394A00526F000EA0D09BBF9FD0800E9A5D3F0E93
:10395A009B59D8A099D0170E00018C6F98C18DF091
:10396A0099C18EF09AC18FF09BC190F08C6701D0FB
:10397A0007D0903590338F338E338D338C2FF6D713
:10398A00810E00018D250101A06FFF0E00018E211D
:10399A000101A16FFF0E00018F210101A26FFF0E2D
:1039AA00000190210101A36FA051170800018C6F3B
:1039BA0098C18DF099C18EF09AC18FF09BC190F099
:1039CA008C6701D007D0903590338F338E338D3387
:1039DA008C2FF6D78DC0ACF18EC0ADF18FC0AEF191
:1039EA0090C0AFF10101A051170800018C6FACC162
:1039FA008DF0ADC18EF0AEC18FF0AFC190F08C2BBF
:103A0A0005D0D8908D378E378F3790378C2FF9D7CE
:103A1A000101985100018D1937E101019951000105
:103A2A008E1932E101019A5100018F192DE101012C
:103A3A009B5100019019D8A427D0010E0101AC15A1
:103A4A0000018C6F000E0101AD1500018D6F000E93
:103A5A000101AE1500018E6F000E0101AF150001C4
:103A6A008F6F8C5102080101506F000E00018D55B5
:103A7A000101516F000E00018E550101526F000EB7
:103A8A0000018F550101536F800E01019A1958E107
:103A9A007F0E9B1998119911D8A452D0800EAA1999
:103AAA0010E13F0EAB19A811A911D8A40AD0000E33
:103ABA000001846F000E856F800E866F3F0E876F40
:103ACA001200ABBF1ED0A805000EA959800EAA5934
:103ADA003F0EAB59D8A015D087AF0AD0000E00010F
:103AEA00846F000E856F000E866F000E876F1200BE
:103AFA0088C084F089C085F08AC086F08BC087F0C0
:103B0A00120087AF13D088C001F089C002F08AC0C2
:103B1A0003F08BC004F031EC64F001C084F002C001
:103B2A0085F003C086F004C087F01200000E000181
:103B3A00846F000E856F000E866F000E876F12006D
:103B4A00800E9A192CE13F0E9B1998119911D8A44D
:103B5A0026D087AF1BD0000E476E000E486E800E2F
:103B6A00496E3F0E4A6E84C04BF085C04CF086C049
:103B7A004DF087C04EF092EC49F047C084F048C03F
:103B8A0085F049C086F04AC087F0120084C084F0EC
:103B9A0085C085F086C086F087C087F01200400E87
:103BAA008719841185118611D8A41BD084C026F0E8
:103BBA0085C027F086C028F087C029F084C02AF083
:103BCA0085C02BF086C02CF087C02DF097EC43F00F
:103BDA0026C084F027C085F028C086F029C087F067
:103BEA0012003F0E8719841185118611D8B463BF5C
:103BFA0013D084C053F085C054F086C055F087C0F6
:103C0A0056F0BCEC3DF053C084F054C085F055C06A
:103C1A0086F056C087F0120084C001F085C002F019
:103C2A0086C003F087C004F086EC63F001C070F12F
:103C3A0002C071F103C072F104C073F1800E010178
:103C4A00AA1906E17F0EAB19A811A911D8B40FD091
:103C5A00A851A911AA11AB11D8B409D0800EAA197A
:103C6A0005E13F0EAB19A811A911D8A4BAD070C1A9
:103C7A00B4F171C1B5F172C1B6F173C1B7F187AFD1
:103C8A001AD0000E476E000E486E800E496E3F0E27
:103C9A004A6EB4C14BF0B5C14CF0B6C14DF0B7C1D4
:103CAA004EF092EC49F047C0B4F148C0B5F149C0B2
:103CBA00B6F14AC0B7F1010163AF8AD0000EA82558
:103CCA0000018C6F000E0101A92100018D6F800E89
:103CDA000101AA2100018E6FC00E0101AB21000172
:103CEA008F6F0101505100018C11906F01015151E8
:103CFA0000018D11916F0101525100018E11926FD5
:103D0A000101535100018F11936F9051911192113A
:103D1A009311D8A444D0000E0101F56F210EF46F5F
:103D2A00B4C143F0B5C144F0B6C145F0B7C146F0DD
:103D3A00B4C13FF0B5C140F0B6C141F0B7C142F0DD
:103D4A00FFEC61F03FC047F040C048F041C049F085
:103D5A0042C04AF0B4C143F0B5C144F0B6C145F01F
:103D6A00B7C146F0B4C13FF0B5C140F0B6C141F0A9
:103D7A00B7C142F0FFEC61F03FC04BF040C04CF0DD
:103D8A0041C04DF042C04EF092EC49F047C0B4F148
:103D9A0048C0B5F149C0B6F14AC0B7F119D001011E
:103DAA005005511152115311D8A412D0B4C101F0C7
:103DBA00B5C102F0B6C103F0B7C104F031EC64F04A
:103DCA0001C0B4F102C0B5F103C0B6F104C0B7F145
:103DDA00B4C184F0B5C185F0B6C186F0B7C187F029
:103DEA001200000E886F000E896F800E8A6F3F0ED8
:103DFA008B6F63AF57D05051511152115311D8A440
:103E0A0043D0000EF56F210EF46F84C043F085C0D5
:103E1A0044F086C045F087C046F084C03FF085C0B4
:103E2A0040F086C041F087C042F0FFEC61F03FC02D
:103E3A0047F040C048F041C049F042C04AF084C04F
:103E4A0043F085C044F086C045F087C046F084C080
:103E5A003FF085C040F086C041F087C042F0FFECD9
:103E6A0061F03FC04BF040C04CF041C04DF042C041
:103E7A004EF092EC49F047C084F048C085F049C042
:103E8A0086F04AC087F012005005511152115311A1
:103E9A00D8A408D0000E886F000E896F800E8A6F32
:103EAA00BF0E8B6F9BBF6BD29805000E9959000EFF
:103EBA009A594D0E9B59D8A062D2ABBF0AD0F80EC0
:103ECA00A85DFF0EA9597F0EAA593F0EAB59D8B06B
:103EDA006CD087BF35D0600E2A6E420E2B6EA20EB2
:103EEA002C6E0D0E2D6E88C126F089C127F08AC16D
:103EFA0028F08BC129F097EC43F026C0A4F127C023
:103F0A00A5F128C0A6F129C0A7F1A4C126F0A5C130
:103F1A0027F0A6C128F0A7C129F0600E2A6E420E2A
:103F2A002B6EA20E2C6E0D0E2D6E97EC43F026C052
:103F3A0084F027C085F028C086F029C087F01200D7
:103F4A00CA0E2A6EF20E2B6E490E2C6E710E2D6E53
:103F5A0088C126F089C127F08AC128F08BC129F0CF
:103F6A0097EC43F026C0A4F127C0A5F128C0A6F11A
:103F7A0029C0A7F1A4C126F0A5C127F0A6C128F03F
:103F8A00A7C129F0CA0E2A6EF20E2B6E490E2C6EAC
:103F9A00710E2D6E97EC43F026C084F027C085F091
:103FAA0028C086F029C087F01200ABBF7DD0080E6A
:103FBA00A85D000EA959800EAA593F0EAB59D8A088
:103FCA0073D087BF07D087518611851138E18405E0
:103FDA00D8B035D0600E2A6E420E2B6EA20E2C6E11
:103FEA000D0E2D6E88C126F089C127F08AC128F0EE
:103FFA008BC129F097EC43F026C0A4F127C0A5F1A4
:10400A0028C0A6F129C0A7F1A4C126F0A5C127F0AE
:10401A00A6C128F0A7C129F0600E2A6E420E2B6EA7
:10402A00A20E2C6E0D0E2D6E97EC43F026C084F076
:10403A0027C085F028C086F029C087F01200CA0E72
:10404A002A6EF20E2B6E490E2C6E710E2D6E88C1E1
:10405A0026F089C127F08AC128F08BC129F097EC94
:10406A0043F026C0A4F127C0A5F128C0A6F129C0B3
:10407A00A7F1A4C126F0A5C127F0A6C128F0A7C1BF
:10408A0029F0CA0E2A6EF20E2B6E490E2C6E710E94
:10409A002D6E97EC43F026C084F027C085F028C027
:1040AA0086F029C087F0120070C116F071C117F0AE
:1040BA0072C118F073C119F0000E1A6E000E1B6E51
:1040CA00800E1C6EBF0E1D6EC7EC46F016C0B0F116
:1040DA0017C0B1F118C0B2F119C0B3F1000E2A6EBF
:1040EA00000E2B6E800E2C6E3E0E2D6EB0C126F089
:1040FA00B1C127F0B2C128F0B3C129F097EC43F05F
:10410A0026C043F027C044F028C045F029C046F035
:10411A00AB0E3F6EAA0E406EAA0E416E3E0E426E66
:10412A00FFEC61F03FC0A4F140C0A5F141C0A6F187
:10413A0042C0A7F1B0C12AF0B1C12BF0B2C12CF034
:10414A00B3C12DF0B0C126F0B1C127F0B2C128F039
:10415A00B3C129F097EC43F026C054F127C055F1BA
:10416A0028C056F129C057F1B0C12AF0B1C12BF0CD
:10417A00B2C12CF0B3C12DF0A4C126F0A5C127F01D
:10418A00A6C128F0A7C129F097EC43F026C043F056
:10419A0027C044F028C045F029C046F0000E3F6E03
:1041AA00000E406E000E416E3F0E426EFFEC61F053
:1041BA003FC048F140C049F141C04AF142C04BF109
:1041CA0054C126F055C127F056C128F057C129F02D
:1041DA0048C12AF049C12BF04AC12CF04BC12DF03D
:1041EA0097EC43F026C044F127C045F128C046F1B8
:1041FA0029C047F1B0C126F0B1C127F0B2C128F0F9
:10420A00B3C129F0000E2A6EAA0E2B6EB80E2C6EC0
:10421A003F0E2D6E97EC43F026C074F127C075F15E
:10422A0028C076F129C077F1700E2A6EA50E2B6E82
:10423A00EC0E2C6E360E2D6EB0C126F0B1C127F0F1
:10424A00B2C128F0B3C129F097EC43F026C03FF081
:10425A0027C040F028C041F029C042F03B0E2A6E28
:10426A00AA0E2B6EB80E2C6E3F0E2D6E44C126F090
:10427A0045C127F046C128F047C129F097EC43F021
:10428A0026C043F027C044F028C045F029C046F0B4
:10429A00FFEC61F03FC078F140C079F141C07AF19A
:1042AA0042C07BF174C116F075C117F076C118F0DF
:1042BA0077C119F078C11AF079C11BF07AC11CF0E4
:1042CA007BC11DF0C7EC46F016C080F117C081F122
:1042DA0018C082F119C083F180C1B8F181C1B9F166
:1042EA0082C1BAF183C1BBF1B8C190F1B9C191F1F0
:1042FA00BAC192F1BBC193F1000E01019015B86FDA
:10430A00F00E9115B96FFF0E9215BA6FFF0E931545
:10431A00BB6FB8C180F1B9C181F1BAC182F1BBC129
:10432A0083F174C143F075C144F076C145F077C199
:10433A0046F080C13FF081C140F082C141F083C1A3
:10434A0042F0FFEC61F03FC094F140C095F141C0EA
:10435A0096F142C097F178C13FF079C140F07AC135
:10436A0041F07BC142F094C143F095C144F096C13B
:10437A0045F097C146F0FFEC61F01DEF29F0000E01
:10438A007C6F000E7D6F000E7E6F000E7F6FABBFDD
:10439A0006D0AB5137E1800EAA5DD8B033D070C1D8
:1043AA0026F071C127F072C128F073C129F0000EFE
:1043BA002A6E000E2B6E800E2C6E4B0E2D6E97EC15
:1043CA0043F026C070F127C071F128C072F129C0EC
:1043DA0073F1E80E01017C27FF0E7D23FF0E7E2379
:1043EA00FF0E7F2370C1B8F171C1B9F172C1BAF180
:1043FA0073C1BBF1B8C1A8F1B9C1A9F1BAC1AAF197
:10440A00BBC1ABF1170E00018C6FA8C18DF0A9C119
:10441A008EF0AAC18FF0ABC190F08C6701D007D0A3
:10442A00903590338F338E338D338C2FF6D7810EA0
:10443A0000018D25916FFF0E8E21926FFF0E8F2145
:10444A00936FFF0E9021946F915101017C27000117
:10445A00925101017D230001935101017E23000144
:10446A00945101017F23FF0EA815AC6FFF0EA91509
:10447A00AD6F7F0EAA15AE6F000EAB15AF6F000EB3
:10448A00AC11A86F000EAD11A96F800EAE11AA6F04
:10449A003F0EAF11AB6FAFBF0AD0AF510AE1720E38
:1044AA00AC5DC40EAD591C0EAE59D8B002D0000E88
:1044BA000DD0AFBF0AD0AF5111E1D70EAC5DB30E2C
:1044CA00AD595D0EAE59D8B009D0010EA06F000EDD
:1044DA00A16F000EA26F000EA36F16D0000EA06F80
:1044EA00000EA16F000EA26F000EA36F010E7C27B3
:1044FA00000E7D237E237F23000EA827000EA9230A
:10450A00800EAA23FF0EAB23A8C1B8F1A9C1B9F145
:10451A00AAC1BAF1ABC1BBF1B8C170F1B9C171F1AD
:10452A00BAC172F1BBC173F170C13FF071C140F001
:10453A0072C141F073C142F0A0C18CF0A1C18DF0EB
:10454A000001D8908C378D37D8908C378D37890EEB
:10455A008C25F66E0F0E8D21F76EF86A000EF82282
:10456A000900F5CF43F00900F5CF44F00900F5CF73
:10457A0045F00A00F5CF46F0FFEC61F03FC074F158
:10458A0040C075F141C076F142C077F1000E476E26
:10459A00000E486E800E496E3F0E4A6E70C11AF0C8
:1045AA0071C11BF072C11CF073C11DF0A0C18CF067
:1045BA00A1C18DF00001D8908C378D37D8908C37F7
:1045CA008D37890E8C25F66E0F0E8D21F76EF86ADF
:1045DA00000EF8220900F5CF16F00900F5CF17F002
:1045EA000900F5CF18F00A00F5CF19F0C7EC46F02C
:1045FA0016C04BF017C04CF018C04DF019C04EF061
:10460A0092EC49F047C078F148C079F149C07AF193
:10461A004AC07BF174C126F075C127F076C128F033
:10462A0077C129F078C12AF079C12BF07AC12CF030
:10463A007BC12DF097EC43F026C05CF127C05DF1F9
:10464A0028C05EF129C05FF15CC16CF15DC16DF1FA
:10465A005EC16EF15FC16FF16CC1B8F16DC1B9F1A4
:10466A006EC1BAF16FC1BBF1B8C190F1B9C191F194
:10467A00BAC192F1BBC193F1000E01019015B86F56
:10468A00F00E9115B96FFF0E9215BA6FFF0E9315C2
:10469A00BB6FB8C16CF1B9C16DF1BAC16EF1BBC1E2
:1046AA006FF1A8C18CF0A9C18DF0AAC18EF0ABC17F
:1046BA008FF000018F358F338E338D338C33000E9C
:1046CA008C15906FF00E8D15916FFF0E8E15926FEF
:1046DA00FF0E8F15936F000E90110101906F000E5F
:1046EA00000191110101916F000E00019211010167
:1046FA00926F200E000193110101936FA0C18CF0FB
:10470A00A1C18DF0A2C18EF0A3C18FF0150ED89071
:10471A0000018C378D378E378F37E82EF8D7010195
:10472A00905100018C25906F0101915100018D215A
:10473A00916F0101925100018E21926F01019351F3
:10474A0000018F21936F000E90250101B86F000EB2
:10475A00000191210101B96F400E0001922101016E
:10476A00BA6F000E000193210101BB6FB8C168F155
:10477A00B9C169F1BAC16AF1BBC16BF1A0C18CF0D0
:10478A00A1C18DF00001D8908C378D37D8908C3725
:10479A008D37890E8C25F66E0F0E8D21F76EF86A0D
:1047AA00000EF8220900F5CF43F00900F5CF44F0D6
:1047BA000900F5CF45F00A00F5CF46F068C13FF091
:1047CA0069C140F06AC141F06BC142F0FFEC61F08F
:1047DA003FC094F140C095F141C096F142C097F1B3
:1047EA0070C13FF071C140F072C141F073C142F033
:1047FA0094C143F095C144F096C145F097C146F083
:10480A00FFEC61F03FC034F140C035F141C036F1F0
:10481A0042C037F168C12AF069C12BF06AC12CF095
:10482A006BC12DF06CC126F06DC127F06EC128F066
:10483A006FC129F097EC43F026C043F027C044F03B
:10484A0028C045F029C046F074C13FF075C140F058
:10485A0076C141F077C142F0FFEC61F03FC094F1BC
:10486A0040C095F141C096F142C097F134C12AF097
:10487A0035C12BF036C12CF037C12DF06CC126F0B2
:10488A006DC127F06EC128F06FC129F097EC43F093
:10489A0026C043F027C044F028C045F029C046F09E
:1048AA0094C13FF095C140F096C141F097C142F0E2
:1048BA00FFEC61F03FC054F140C055F141C056F1E0
:1048CA0042C057F154C126F055C127F056C128F00D
:1048DA0057C129F078C12AF079C12BF07AC12CF09E
:1048EA007BC12DF097EC43F026C030F127C031F19F
:1048FA0028C032F129C033F15CC126F05DC127F02E
:10490A005EC128F05FC129F05CC12AF05DC12BF0BD
:10491A005EC12CF05FC12DF097EC43F026C08CF1FC
:10492A0027C08DF128C08EF129C08FF1550E1A6E5D
:10493A00320E1B6E6C0E1C6E3E0E1D6E420E2A6EE1
:10494A00F10E2B6E530E2C6E3E0E2D6E8CC126F080
:10495A008DC127F08EC128F08FC129F097EC43F062
:10496A0026C016F027C017F028C018F029C019F081
:10497A00C7EC46F016C0A4F117C0A5F118C0A6F1FD
:10498A0019C0A7F1050E1A6EA30E1B6E8B0E1C6EB4
:10499A003E0E1D6E8CC12AF08DC12BF08EC12CF0FB
:1049AA008FC12DF0A4C126F0A5C127F0A6C128F019
:1049BA00A7C129F097EC43F026C016F027C017F0DC
:1049CA0028C018F029C019F0C7EC46F016C054F1F7
:1049DA0017C055F118C056F119C057F1AB0E1A6E2F
:1049EA00AA0E1B6EAA0E1C6E3E0E1D6E8CC12AF0FC
:1049FA008DC12BF08EC12CF08FC12DF054C126F041
:104A0A0055C127F056C128F057C129F097EC43F059
:104A1A0026C016F027C017F028C018F029C019F0D0
:104A2A00C7EC46F016C048F117C049F118C04AF160
:104A3A0019C04BF1B70E1A6E6D0E1B6EDB0E1C6E93
:104A4A003E0E1D6E8CC12AF08DC12BF08EC12CF04A
:104A5A008FC12DF048C126F049C127F04AC128F07C
:104A6A004BC129F097EC43F026C016F027C017F087
:104A7A0028C018F029C019F0C7EC46F016C038F162
:104A8A0017C039F118C03AF119C03BF19A0E1A6EE3
:104A9A00990E1B6E190E1C6E3F0E1D6E8CC12AF0EC
:104AAA008DC12BF08EC12CF08FC12DF038C126F0AC
:104ABA0039C127F03AC128F03BC129F097EC43F0FD
:104ACA0026C016F027C017F028C018F029C019F020
:104ADA00C7EC46F016C000F117C001F118C002F188
:104AEA0019C003F18CC12AF08DC12BF08EC12CF0B4
:104AFA008FC12DF08CC126F08DC127F08EC128F010
:104B0A008FC129F097EC43F026C004F127C005F1C4
:104B1A0028C006F129C007F100C126F001C127F01B
:104B2A0002C128F003C129F004C12AF005C12BF003
:104B3A0006C12CF007C12DF097EC43F026C04CF1CA
:104B4A0027C04DF128C04EF129C04FF130C12AF0DB
:104B5A0031C12BF032C12CF033C12DF05CC11AF0F7
:104B6A005DC11BF05EC11CF05FC11DF06CC116F087
:104B7A006DC117F06EC118F06FC119F0C7EC46F09D
:104B8A0016C026F017C027F018C028F019C029F05F
:104B9A0097EC43F026C058F127C059F128C05AF1C2
:104BAA0029C05BF14CC116F04DC117F04EC118F087
:104BBA004FC119F058C11AF059C11BF05AC11CF063
:104BCA005BC11DF0C7EC46F016C04CF117C04DF1A1
:104BDA0018C04EF119C04FF16CC126F06DC127F013
:104BEA006EC128F06FC129F06CC12AF06DC12BF09B
:104BFA006EC12CF06FC12DF097EC43F026C08CF1FA
:104C0A0027C08DF128C08EF129C08FF1000E1A6ECF
:104C1A00000E1B6E400E1C6E400E1D6E8CC116F0EF
:104C2A008DC117F08EC118F08FC119F0C7EC46F08C
:104C3A0016C058F117C059F118C05AF119C05BF1E2
:104C4A0058C116F059C117F05AC118F05BC119F0D2
:104C5A004CC11AF04DC11BF04EC11CF04FC11DF0E2
:104C6A00C7EC46F016C068F117C069F118C06AF1BE
:104C7A0019C06BF168C1B8F169C1B9F16AC1BAF179
:104C8A006BC1BBF1B8C190F1B9C191F1BAC192F14E
:104C9A00BBC193F1000E01019015B86FF00E91158A
:104CAA00B96FFF0E9215BA6FFF0E9315BB6FB8C19D
:104CBA0068F1B9C169F1BAC16AF1BBC16BF1000E01
:104CCA001A6E000E1B6E400E1C6EC00E1D6E68C161
:104CDA0016F069C117F06AC118F06BC119F0C7EC78
:104CEA0046F016C03CF117C03DF118C03EF119C09C
:104CFA003FF18CC143F08DC144F08EC145F08FC1A4
:104D0A0046F03CC13FF03DC140F03EC141F03FC1D9
:104D1A0042F0FFEC61F03FC040F140C041F141C0B8
:104D2A0042F142C043F14CC13FF04DC140F04EC187
:104D3A0041F04FC142F040C143F041C144F042C189
:104D4A0045F043C146F0FFEC61F03FC034F140C08A
:104D5A0035F141C036F142C037F16CC126F06DC160
:104D6A0027F06EC128F06FC129F068C12AF069C125
:104D7A002BF06AC12CF06BC12DF097EC43F026C0E2
:104D8A0074F127C075F128C076F129C077F168C19E
:104D9A002AF069C12BF06AC12CF06BC12DF030C129
:104DAA0026F031C127F032C128F033C129F097EC3F
:104DBA0043F026C016F027C017F028C018F029C003
:104DCA0019F05CC12AF05DC12BF05EC12CF05FC105
:104DDA002DF034C126F035C127F036C128F037C18D
:104DEA0029F097EC43F026C01AF027C01BF028C020
:104DFA001CF029C01DF0C7EC46F016C078F117C0A8
:104E0A0079F118C07AF119C07BF174C116F075C135
:104E1A0017F076C118F077C119F078C11AF079C184
:104E2A001BF07AC11CF07BC11DF0C7EC46F016C01E
:104E3A009CF117C09DF118C09EF119C09FF19CC149
:104E4A00B8F19DC1B9F19EC1BAF19FC1BBF1B8C118
:104E5A0090F1B9C191F1BAC192F1BBC193F1000EBF
:104E6A0001019015B86FF00E9115B96FFF0E9215EA
:104E7A00BA6FFF0E9315BB6FB8C19CF1B9C19DF112
:104E8A00BAC19EF1BBC19FF174C143F075C144F030
:104E9A0076C145F077C146F09CC13FF09DC140F014
:104EAA009EC141F09FC142F0FFEC61F03FC094F116
:104EBA0040C095F141C096F142C097F178C13FF0E8
:104ECA0079C140F07AC141F07BC142F094C143F00C
:104EDA0095C144F096C145F097C146F0FFEC61F0E8
:104EEA003FC064F140C065F141C066F142C067F15C
:104EFA009CC126F09DC127F09EC128F09FC129F0D0
:104F0A00000E2A6E400E2B6E760E2C6E3F0E2D6E04
:104F1A0097EC43F026C020F127C021F128C022F1E6
:104F2A0029C023F14F0E2A6E380E2B6E760E2C6E88
:104F3A003F0E2D6E64C126F065C127F066C128F0C8
:104F4A0067C129F097EC43F026C01AF027C01BF07E
:104F5A0028C01CF029C01DF0C60E2A6E230E2B6E27
:104F6A00F60E2C6EB80E2D6E9CC126F09DC127F050
:104F7A009EC128F09FC129F097EC43F026C016F095
:104F8A0027C017F028C018F029C019F0C7EC46F05E
:104F9A0016C058F117C059F118C05AF119C05BF17F
:104FAA0058C116F059C117F05AC118F05BC119F06F
:104FBA00A0C18CF0A1C18DF00001D8908C378D373B
:104FCA00D8908C378D37210E8C25F66E0F0E8D21D9
:104FDA00F76EF86A000EF8220900F5CF1AF00900F8
:104FEA00F5CF1BF00900F5CF1CF00A00F5CF1DF034
:104FFA00C7EC46F016C024F117C025F118C026F1F7
:10500A0019C027F17CC108F07DC109F07EC10AF000
:10501A007FC10BF0010E4AEC53F008C0B0F109C091
:10502A00B1F10AC0B2F10BC0B3F124C11AF025C123
:10503A001BF026C11CF027C11DF020C116F021C1AA
:10504A0017F022C118F023C119F0C7EC46F016C0B8
:10505A0058F117C059F118C05AF119C05BF1A0C133
:10506A008CF0A1C18DF00001D8908C378D37D89083
:10507A008C378D37290E8C25F66E0F0E8D21F76E23
:10508A00F86A000EF8220900F5CF1AF00900F5CFE8
:10509A001BF00900F5CF1CF00A00F5CF1DF058C12E
:1050AA0016F059C117F05AC118F05BC119F0C7ECD4
:1050BA0046F016C008F117C009F118C00AF119C064
:1050CA000BF108C116F009C117F00AC118F00BC19B
:1050DA0019F0B0C11AF0B1C11BF0B2C11CF0B3C1D2
:1050EA001DF0C7EC46F016C080F117C081F118C058
:1050FA0082F119C083F180C1B8F181C1B9F182C1CD
:10510A00BAF183C1BBF1B8C190F1B9C191F1BAC189
:10511A0092F1BBC193F1000E01019015B86FF00E28
:10512A009115B96FFF0E9215BA6FFF0E9315BB6FEB
:10513A00B8C180F1B9C181F1BAC182F1BBC183F1B1
:10514A00B0C143F0B1C144F0B2C145F0B3C146F0B9
:10515A0080C13FF081C140F082C141F083C142F079
:10516A00FFEC61F03FC094F140C095F141C096F167
:10517A0042C097F1A0C18CF0A1C18DF00001D89076
:10518A008C378D37D8908C378D37290E8C25F66E53
:10519A000F0E8D21F76EF86A000EF8220900F5CF7E
:1051AA0043F00900F5CF44F00900F5CF45F00A00B5
:1051BA00F5CF46F094C13FF095C140F096C141F059
:1051CA0097C142F0FFEC61F03FC040F140C041F1AD
:1051DA0041C042F142C043F120C143F021C144F031
:1051EA0022C145F023C146F040C13FF041C140F021
:1051FA0042C141F043C142F0FFEC61F03FC00CF103
:10520A0040C00DF141C00EF142C00FF124C13FF080
:10521A0025C140F026C141F027C142F00CC143F03C
:10522A000DC144F00EC145F00FC146F0FFEC61F02C
:10523A003FC01CF140C01DF141C01EF142C01FF128
:10524A0088C0B8F189C0B9F18AC0BAF18BC0BBF184
:10525A00B8C190F1B9C191F1BAC192F1BBC193F150
:10526A00000E01019015B86FF00E9115B96FFF0E7F
:10527A009215BA6FFF0E9315BB6FB8C128F1B9C169
:10528A0029F1BAC12AF1BBC12BF180C12AF081C12F
:10529A002BF082C12CF083C12DF028C143F029C123
:1052AA0044F02AC145F02BC146F088C03FF089C0BE
:1052BA0040F08AC041F08BC042F0FFEC61F03FC081
:1052CA0026F040C027F041C028F042C029F097ECF0
:1052DA0043F026C010F127C011F128C012F129C0ED
:1052EA0013F110C116F011C117F012C118F013C151
:1052FA0019F01CC12AF01DC12BF01EC12CF01FC1D0
:10530A002DF088C026F089C027F08AC028F08BC00B
:10531A0029F097EC43F026C01AF027C01BF028C0EA
:10532A001CF029C01DF0C7EC46F016C064F117C086
:10533A0065F118C066F119C067F128C126F029C1C4
:10534A0027F02AC128F02BC129F080C12AF081C197
:10535A002BF082C12CF083C12DF097EC43F026C0CC
:10536A009CF127C09DF128C09EF129C09FF164C11C
:10537A0016F065C117F066C118F067C119F09CC133
:10538A001AF09DC11BF09EC11CF09FC11DF0C7EC15
:10539A0046F016C0B4F117C0B5F118C0B6F119C07D
:1053AA00B7F1B4C1B8F1B5C1B9F1B6C1BAF1B7C173
:1053BA00BBF1B8C1ACF1B9C1ADF1BAC1AEF1BBC173
:1053CA00AFF10101AFBF3ED0AC05000EAD59000EE2
:1053DA00AE59430EAF59D8A035D0CA0E2A6EF20E76
:1053EA002B6E490E2C6E710E2D6E88C126F089C166
:1053FA0027F08AC128F08BC129F097EC43F026C028
:10540A00A4F127C0A5F128C0A6F129C0A7F1A4C11B
:10541A0026F0A5C127F0A6C128F0A7C129F0CA0E17
:10542A002A6EF20E2B6E490E2C6E710E2D6E97ECB3
:10543A0043F026C084F027C085F028C086F029C032
:10544A0087F01200430EAF19AC11AD11AE11D8A4FA
:10545A006DD09CC143F09DC144F09EC145F09FC1EF
:10546A0046F0B4C13FF0B5C140F0B6C141F0B7C192
:10547A0042F0FFEC61F03FC047F040C048F041C045
:10548A0049F042C04AF03C0E1A6EAA0E1B6E380E44
:10549A001C6E330E1D6E64C116F065C117F066C12D
:1054AA0018F067C119F0C7EC46F016C04BF017C0E8
:1054BA004CF018C04DF019C04EF0ABEC56F0D8B015
:1054CA00EDD0CA0E2A6EF20E2B6E490E2C6E710E9C
:1054DA002D6E88C126F089C127F08AC128F08BC1B8
:1054EA0029F097EC43F026C0A4F127C0A5F128C003
:1054FA00A6F129C0A7F1A4C126F0A5C127F0A6C12B
:10550A0028F0A7C129F0CA0E2A6EF20E2B6E490E98
:10551A002C6E710E2D6E97EC43F026C084F027C0D6
:10552A0085F028C086F029C087F01200FF0EAC155E
:10553A0000018C6FFF0E0101AD1500018D6FFF0E8A
:10554A000101AE1500018E6F7F0E0101AF1500013A
:10555A008F6F8FBF3ED08C05000E8D59160E8E5957
:10556A00430E8F59D8A035D0600E2A6E420E2B6E8C
:10557A00A20E2C6E0D0E2D6E88C126F089C127F061
:10558A008AC128F08BC129F097EC43F026C0A4F118
:10559A0027C0A5F128C0A6F129C0A7F1A4C126F009
:1055AA00A5C127F0A6C128F0A7C129F0600E2A6E6E
:1055BA00420E2B6EA20E2C6E0D0E2D6E97EC43F042
:1055CA0026C084F027C085F028C086F029C087F05D
:1055DA001200160E0101AE1961E1C30EAF19AC112A
:1055EA00AD11D8A45BD09CC143F09DC144F09EC1CB
:1055FA0045F09FC146F0B4C13FF0B5C140F0B6C115
:10560A0041F0B7C142F0FFEC61F03FC047F040C043
:10561A0048F041C049F042C04AF064C14BF065C14C
:10562A004CF066C14DF067C14EF0ABEC56F0D8A015
:10563A0035D0600E2A6E420E2B6EA20E2C6E0D0E07
:10564A002D6E88C126F089C127F08AC128F08BC146
:10565A0029F097EC43F026C0A4F127C0A5F128C091
:10566A00A6F129C0A7F1A4C126F0A5C127F0A6C1B9
:10567A0028F0A7C129F0600E2A6E420E2B6EA20EE8
:10568A002C6E0D0E2D6E97EC43F026C084F027C0C9
:10569A0085F028C086F029C087F01200FF0E0101AC
:1056AA00AC152C6FFF0EAD152D6FFF0EAE152E6FBC
:1056BA007F0EAF152F6F170E00018C6F2CC18DF066
:1056CA002DC18EF02EC18FF02FC190F08C6701D0C2
:1056DA0007D0903590338F338E338D338C2FF6D796
:1056EA00810E00018D250101A06FFF0E00018E21A0
:1056FA000101A16FFF0E00018F210101A26FFF0EB0
:10570A00000190210101A36F000E7C6F000E7D6FD6
:10571A00000E7E6F000E7F6F2FBFFCD02C05000E8F
:10572A002D59000E2E593F0E2F59D8A0F3D0A0C1E3
:10573A008CF0010E00018C27000E8D6F000E8E6F0B
:10574A00800E8F6F000E906F8C6701D007D0903556
:10575A0090338F338E338D338C2FF6D70101AC51B2
:10576A0000018D2501017C6FAD5100018E210101DF
:10577A007D6FAE5100018F2101017E6FAF51000193
:10578A00902101017F6F810E00018C6FFF0E8D6FDA
:10579A00FF0E8E6FFF0E8F6F170E906F7CC191F008
:1057AA007DC192F07EC193F07FC194F0906701D0E1
:1057BA0007D094359433933392339133902FF6D79D
:1057CA00000191518C250101A06F000E00018D216D
:1057DA000101A16F000E00018E210101A26F000ECE
:1057EA0000018F210101A36FA0C18CF0FF0E0001FF
:1057FA008D6FFF0E8E6F7F0E8F6F000E906F8C670E
:10580A0001D007D0903590338F338E338D338C2F60
:10581A00F6D700018D1D916F8E1D926F8F1D936FAC
:10582A00901D946F01017C51000191150101B86F1F
:10583A007D51000192150101B96F7E510001931546
:10584A000101BA6F7F51000194150101BB6FB8C104
:10585A00B0F1B9C1B1F1BAC1B2F1BBC1B3F1A05152
:10586A00170800018C6FFF0E01017C1500018D6F76
:10587A00FF0E01017D1500018E6F7F0E01017E155D
:10588A0000018F6F000E01017F150001906F000E5D
:10589A008D11916F000E8E11926F800E8F11936F82
:1058AA00000E9011946F8C6701D007D09435943311
:1058BA009333923391338C2FF6D791C07CF192C0F7
:1058CA007DF193C07EF194C07FF10101AFAF08D0A2
:1058DA007F1F7E1F7D1F7C6D000E7D237E237F230D
:1058EA009CC13FF09DC140F09EC141F09FC142F072
:1058FA00B0C143F0B1C144F0B2C145F0B3C146F002
:10590A00FFEC61F03FC09CF140C09DF141C09EF1A7
:10591A0042C09FF164C116F065C117F066C118F064
:10592A0067C119F09CC11AF09DC11BF09EC11CF001
:10593A009FC11DF0C7EC46F016C0B0F117C0B1F117
:10594A0018C0B2F119C0B3F1B0C1B8F1B1C1B9F11F
:10595A00B2C1BAF1B3C1BBF1B8C190F1B9C191F109
:10596A00BAC192F1BBC193F1000E01019015B86F53
:10597A00800E9115B96FFF0E9215BA6FFF0E93152F
:10598A00BB6FB8C1B0F1B9C1B1F1BAC1B2F1BBC113
:10599A00B3F1B0C126F0B1C127F0B2C128F0B3C14A
:1059AA0029F0000E2A6E720E2B6E310E2C6E3F0EEF
:1059BA002D6E97EC43F026C074F127C075F128C00C
:1059CA0076F129C077F19CC143F09DC144F09EC194
:1059DA0045F09FC146F0B0C13FF0B1C140F0B2C13D
:1059EA0041F0B3C142F0FFEC61F03FC094F140C016
:1059FA0095F141C096F142C097F1180E2A6E720EC7
:105A0A002B6E310E2C6E3F0E2D6E94C143F095C154
:105A1A0044F096C145F097C146F064C13FF065C1B4
:105A2A0040F066C141F067C142F0FFEC61F03FC04F
:105A3A0026F040C027F041C028F042C029F097EC78
:105A4A0043F026C014F127C015F128C016F129C069
:105A5A0017F114C116F015C117F016C118F017C1C5
:105A6A0019F08C0E2A6EBE0E2B6EBF0E2C6E350EE2
:105A7A002D6EB0C126F0B1C127F0B2C128F0B3C172
:105A8A0029F097EC43F026C01AF027C01BF028C073
:105A9A001CF029C01DF0C7EC46F016C078F117C0FB
:105AAA0079F118C07AF119C07BF174C116F075C189
:105ABA0017F076C118F077C119F078C11AF079C1D8
:105ACA001BF07AC11CF07BC11DF0C7EC46F016C072
:105ADA00B4F117C0B5F118C0B6F119C0B7F174C165
:105AEA0043F075C144F076C145F077C146F0B4C1C0
:105AFA003FF0B5C140F0B6C141F0B7C142F0FFEC8A
:105B0A0061F03FC094F140C095F141C096F142C0A6
:105B1A0097F178C13FF079C140F07AC141F07BC179
:105B2A0042F094C143F095C144F096C145F097C143
:105B3A0046F0FFEC61F03FC044F140C045F141C07E
:105B4A0046F142C047F1B4C126F0B5C127F0B6C14B
:105B5A0028F0B7C129F0B4C12AF0B5C12BF0B6C1FB
:105B6A002CF0B7C12DF097EC43F026C0B0F127C056
:105B7A00B1F128C0B2F129C0B3F10E0E1A6EEA0EC5
:105B8A001B6EDD0E1C6EB50E1D6E4C0E2A6EBB0E04
:105B9A002B6E310E2C6E330E2D6EB0C126F0B1C1B4
:105BAA0027F0B2C128F0B3C129F097EC43F026C020
:105BBA0016F027C017F028C018F029C019F0C7EC52
:105BCA0046F016C0A4F117C0A5F118C0A6F119C075
:105BDA00A7F1550E1A6EB30E1B6E8A0E1C6E380E86
:105BEA001D6EB0C12AF0B1C12BF0B2C12CF0B3C105
:105BFA002DF0A4C126F0A5C127F0A6C128F0A7C19F
:105C0A0029F097EC43F026C016F027C017F028C0F9
:105C1A0018F029C019F0C7EC46F016C054F117C0A5
:105C2A0055F118C056F119C057F1610E1A6E0B0ED4
:105C3A001B6E360E1C6EBB0E1D6EB0C12AF0B1C1B2
:105C4A002BF0B2C12CF0B3C12DF054C126F055C1CE
:105C5A0027F056C128F057C129F097EC43F026C027
:105C6A0016F027C017F028C018F029C019F0C7ECA1
:105C7A0046F016C048F117C049F118C04AF119C0D8
:105C8A004BF1AB0E1A6EAA0E1B6E2A0E1C6E3E0E3E
:105C9A001D6EB0C12AF0B1C12BF0B2C12CF0B3C154
:105CAA002DF048C126F049C127F04AC128F04BC15E
:105CBA0029F097EC43F026C016F027C017F028C049
:105CCA0018F029C019F0C7EC46F016C038F117C011
:105CDA0039F118C03AF119C03BF1B4C13FF0B5C16E
:105CEA0040F0B6C141F0B7C142F0B0C12AF0B1C12B
:105CFA002BF0B2C12CF0B3C12DF038C126F039C156
:105D0A0027F03AC128F03BC129F097EC43F026C0AE
:105D1A0043F027C044F028C045F029C046F0FFEC04
:105D2A0061F03FC080F140C081F141C082F142C0C0
:105D3A0083F1000E1A6E000E1B6E000E1C6EC00E52
:105D4A001D6E80C116F081C117F082C118F083C19F
:105D5A0019F0C7EC46F016C04BF017C04CF018C04B
:105D6A004DF019C04EF080C12AF081C12BF082C1DA
:105D7A002CF083C12DF0B4C126F0B5C127F0B6C10D
:105D8A0028F0B7C129F097EC43F026C047F027C0A6
:105D9A0048F028C049F029C04AF092EC49F047C0BF
:105DAA003CF148C03DF149C03EF14AC03FF144C10F
:105DBA001AF045C11BF046C11CF047C11DF044C191
:105DCA002AF045C12BF046C12CF047C12DF0B4C1D1
:105DDA0026F0B5C127F0B6C128F0B7C129F097EC73
:105DEA0043F026C016F027C017F028C018F029C0C3
:105DFA0019F0C7EC46F016C018F117C019F118C00F
:105E0A001AF119C01BF13CC13FF03DC140F03EC13F
:105E1A0041F03FC142F018C143F019C144F01AC120
:105E2A0045F01BC146F0FFEC61F03FC04CF140C0A9
:105E3A004DF141C04EF142C04FF1B4C143F0B5C17A
:105E4A0044F0B6C145F0B7C146F04CC13FF04DC170
:105E5A0040F04EC141F04FC142F0FFEC61F03FC04B
:105E6A0094F140C095F141C096F142C097F1000EFD
:105E7A003F6E000E406E800E416E3F0E426E94C120
:105E8A0043F095C144F096C145F097C146F0FFEC46
:105E9A0061F03FC0B4F140C0B5F141C0B6F142C0B3
:105EAA00B7F1B4C1B8F1B5C1B9F1B6C1BAF1B7C168
:105EBA00BBF1B8C1ACF1B9C1ADF1BAC1AEF1BBC168
:105ECA00AFF17CC18CF07DC18DF07EC18EF07FC1B7
:105EDA008FF0170ED89000018C378D378E378F3799
:105EEA00E82EF8D78C510101AC2700018D51010130
:105EFA00AD2300018E510101AE2300018F51010132
:105F0A00AF23170E00018C6FACC18DF0ADC18EF0BE
:105F1A00AEC18FF0AFC190F08C6701D007D0903539
:105F2A0090338F338E338D338C2FF6D7000190BF89
:105F3A0007D090518F118E111AE18D05D8B017D064
:105F4A00B4C13FF0B5C140F0B6C141F0B7C142F0AB
:105F5A007CC143F07DC144F0CBEC4CF03FC0B4F1BE
:105F6A0040C0B5F141C0B6F142C0B7F110D0ACC1E2
:105F7A00B8F1ADC1B9F1AEC1BAF1AFC1BBF1B8C1A7
:105F8A00B4F1B9C1B5F1BAC1B6F1BBC1B7F188C1B3
:105F9A0026F089C127F08AC128F08BC129F0B4C143
:105FAA002AF0B5C12BF0B6C12CF0B7C12DF097EC91
:105FBA0043F026C084F027C085F028C086F029C0A7
:105FCA0087F01200000E00019F6F79C0A0F07AC01E
:105FDA00A1F07BC0A2F07CC0A3F0A3AF14D0010E45
:105FEA009F6FA0C001F0A1C002F0A2C003F0A3C03D
:105FFA0004F031EC64F001C0A0F002C0A1F003C0CB
:10600A00A2F004C0A3F0000E0001A56F000EA46F59
:10601A00F4C28FF0F5C290F09F51D8B40DD09F51C1
:10602A00D8A404D0000E856F2B0E03D0000E856F06
:10603A002D0E846F84C09FF0A0C001F0A1C002F0B1
:10604A00A2C003F0A3C004F0E1EC57F0010402106F
:10605A00D8A42DD000019F51D8B409D09FC010F404
:10606A008F07D8A09007000EA56F010EA46F100E1F
:10607A00A425016E040EA521026ED00E036E0F0E2A
:10608A00046EFDEC62F00001FD0E8F27FF0E9023D7
:10609A0077C011F078C012F0100E136E040E146E51
:1060AA008FC015F090C016F008EC5DF01200A0C089
:1060BA0001F0A1C002F0A2C003F0A3C004F0E1EC19
:1060CA0057F001500210D8A42DD000019F51D8B426
:1060DA0009D09FC010F48F07D8A09007000EA56FB3
:1060EA00010EA46F100EA425016E040EA521026EE6
:1060FA00D40E036E0F0E046EFDEC62F00001FD0E6D
:10610A008F27FF0E902377C011F078C012F0100E7F
:10611A00136E040E146E8FC015F090C016F008ECC2
:10612A005DF01200000E0001A66F000EA76F800E30
:10613A00A86F3F0EA96F000E8E6F000E8D6FA0C064
:10614A0001F0A1C002F0A2C003F0A3C004F0000E47
:10615A00056E000E066E000E076E000E086EFEEC4F
:10616A005BF0D8A00CD0BED091C0A6F092C0A7F028
:10617A0093C0A8F094C0A9F000018D4B8E2BA6C045
:10618A0026F0A7C027F0A8C028F0A9C029F0000E61
:10619A002A6E000E2B6E200E2C6E410E2D6E97EC81
:1061AA0043F026C091F027C092F028C093F029C08E
:1061BA0094F000019151A05D016E9251A159026EB5
:1061CA009351A259036E9451A359046E28EC60F0BE
:1061DA0004BECAD704500310021004E1020E015C87
:1061EA00D8A0C2D791C047F092C048F093C049F0F6
:1061FA0094C04AF0A0C04BF0A1C04CF0A2C04DF030
:10620A00A3C04EF0ABEC56F0D8A0AED70001A65111
:10621A00A05D016EA751A159026EA851A259036E41
:10622A00A951A359046E28EC60F004BE08D00450AA
:10623A000310021043E1020E015CD8B03FD0A6C0A1
:10624A00A0F0A7C0A1F0A8C0A2F0A9C0A3F04AD0AC
:10625A00A6C047F0A7C048F0A8C049F0A9C04AF0B4
:10626A00000E4B6E000E4C6E200E4D6E410E4E6EA1
:10627A0092EC49F047C0A6F048C0A7F049C0A8F080
:10628A004AC0A9F000018D07D8A08E07A651A05DCB
:10629A00016EA751A159026EA851A259036EA951C4
:1062AA00A359046E28EC60F004BEC9D70450031049
:1062BA00021004E1020E015CD8A0C1D7A0C047F0C9
:1062CA00A1C048F0A2C049F0A3C04AF0A6C04BF052
:1062DA00A7C04CF0A8C04DF0A9C04EF0ABEC56F0E8
:1062EA00D8A0B6D77DC087F087C088F00201F7BF73
:1062FA0005D0F6C280F0F7C281F005D0000E000189
:10630A00816F060E806F80C08BF081C08CF0000117
:10631A008B4B8C2B660E8819D8A416D08EAF0CD056
:10632A00000EA66F000EA76F800EA86F3F0EA96F12
:10633A00000E8E6F000E8D6F670E8719D8B404D0C9
:10634A008D518B278E518C23000E9E6F000E9D6FF0
:10635A00A0C095F0A1C096F0A2C097F0A3C098F093
:10636A00A6C091F0A7C092F0A8C093F0A9C094F07B
:10637A007BD095C047F096C048F097C049F098C0C6
:10638A004AF0A6C04BF0A7C04CF0A8C04DF0A9C077
:10639A004EF092EC49F047C053F048C054F049C05F
:1063AA0055F04AC056F09BEC4EF053C099F054C0D9
:1063BA009AF055C09BF056C09CF099C001F09AC063
:1063CA0002F09BC003F09CC004F0A5EC58F001C099
:1063DA0089F002C08AF095C03FF096C040F097C09D
:1063EA0041F098C042F099C02AF09AC02BF09BC0A5
:1063FA002CF09CC02DF0A6C026F0A7C027F0A8C09C
:10640A0028F0A9C029F097EC43F026C043F027C032
:10641A0044F028C045F029C046F0FFEC61F03FC0C7
:10642A0095F040C096F041C097F042C098F0A6C0DF
:10643A0047F0A7C048F0A8C049F0A9C04AF0000E2A
:10644A004B6E000E4C6E200E4D6E410E4E6E92EC4F
:10645A0049F047C0A6F048C0A7F049C0A8F04AC012
:10646A00A9F000019D4B9E2B8B519D5D9E51800A88
:10647A005D6E8C51800A5D58D8A07BD7A6C026F0E5
:10648A00A7C027F0A8C028F0A9C029F0000E2A6EDC
:10649A00000E2B6EA00E2C6E400E2D6E97EC43F064
:1064AA0026C099F027C09AF028C09BF029C09CF01A
:1064BA0095C047F096C048F097C049F098C04AF096
:1064CA0099C04BF09AC04CF09BC04DF09CC04EF066
:1064DA00ABEC56F0D8B003D0000E000118D095C02E
:1064EA0001F096C002F097C003F098C004F099C07A
:1064FA0005F09AC006F09BC007F09CC008F0FEECBD
:10650A005BF0D8A00BD0000189B108D0000E996FBA
:10651A00000E9A6F000E9B6F000E9C6FA0C016F0C3
:10652A00A1C017F0A2C018F0A3C019F099C01AF0C0
:10653A009AC01BF09BC01CF09CC01DF0C7EC46F033
:10654A0016C095F017C096F018C097F019C098F0C9
:10655A0095C047F096C048F097C049F098C04AF0F5
:10656A00000E2A6E000E2B6E200E2C6E410E2D6E22
:10657A0091C026F092C027F093C028F094C029F069
:10658A0097EC43F026C04BF027C04CF028C04DF0E2
:10659A0029C04EF0ABEC56F0D8A024D000018D4BA8
:1065AA008E2B91C026F092C027F093C028F094C099
:1065BA0029F0000E2A6E000E2B6E200E2C6E410E54
:1065CA002D6E97EC43F026C091F027C092F028C0B8
:1065DA0093F029C094F0660E00018819D8A402D05D
:1065EA008B4B8C2B91C0A6F092C0A7F093C0A8F059
:1065FA0094C0A9F08DC07EF08EC07FF0000E00011D
:10660A00866F000E836F000E826F000E9E6F000E63
:10661A009D6FCDD095C047F096C048F097C049F01D
:10662A0098C04AF0A6C04BF0A7C04CF0A8C04DF0E5
:10663A00A9C04EF092EC49F047C053F048C054F05C
:10664A0049C055F04AC056F09BEC4EF053C099F041
:10665A0054C09AF055C09BF056C09CF099C001F006
:10666A009AC002F09BC003F09CC004F0A5EC58F05D
:10667A0002BE06D0025013E10A0E015CD8B00FD058
:10668A0099C001F09AC002F09BC003F09CC004F0CC
:10669A00A5EC58F001C089F002C08AF005D0000EBE
:1066AA0000018A6F090E896F00018651D8B47FAF45
:1066BA0020D0100EA425D96E040EA521DA6E2E0E56
:1066CA00DF6EA44BA52B8F07D8A09007010E866F0B
:1066DA0010D0100EA425D96E040EA521DA6E300E44
:1066EA00DF6EA44BA52B8F07D8A090078207D8A0EE
:1066FA00830782518311D8A4ECD7100EA425D96E32
:10670A00040EA521DA6E8951300FDF6EA44BA52B3A
:10671A008F07D8A0900795C03FF096C040F097C069
:10672A0041F098C042F099C02AF09AC02BF09BC061
:10673A002CF09CC02DF0A6C026F0A7C027F0A8C058
:10674A0028F0A9C029F097EC43F026C043F027C0EF
:10675A0044F028C045F029C046F0FFEC61F03FC084
:10676A0095F040C096F041C097F042C098F0A6C09C
:10677A0047F0A7C048F0A8C049F0A9C04AF0000EE7
:10678A004B6E000E4C6E200E4D6E410E4E6E92EC0C
:10679A0049F047C0A6F048C0A7F049C0A8F04AC0CF
:1067AA00A9F000017E07D8A07F079D4B9E2B8B5135
:1067BA009D5D9E51800A5D6E8C51800A5D58D8B0ED
:1067CA0008D0A5BF27D7A55104E14B0EA45DD8A0D8
:1067DA0021D7000E9E6F4F0E9D6F100E9D25D96E0C
:1067EA00040E9E21DA6E000EDF6E100E5D6E040E30
:1067FA005E6EA4515D5EA5515E5A9D515D24016E87
:10680A009E515E20026E100E036E040E046EA4C02A
:10681A0005F0A5C006F022EC62F00001A4519D5DCE
:10682A00A46FA5519E59A56F9F51D8B402D0010EED
:10683A0001D0000E9D6F9E6B0201F8B30FD023D0DA
:10684A00A407D8A0A507100EA425D96E040EA52169
:10685A00DA6E300EDF6E8F07D8A0900700018F51D5
:10686A009D5D9E51800A5D6E9051800A5D58D8B038
:10687A000AD0A4519D5D9E51800A5D6EA551800A81
:10688A005D58D8A0DDD700019F51D8B40BD0A4071A
:10689A00D8A0A507100EA425D96E040EA521DA6E7C
:1068AA009FC0DFFF9D518F5F9E51905B77C011F0B3
:1068BA0078C012F0100EA425136E040EA521146ED2
:1068CA008FC015F090C016F008EC5DF01200000EB3
:1068DA0002019D6F75C29EF276C29FF277C2A0F244
