:0400000064EF00F0B9
:100008004682FACF10F0FBCF11F0D9CF12F0DACF39
:1000180013F0F3CF14F0F4CF15F0F6CF16F0F7CFB6
:1000280017F0F8CF18F0F5CF19F0F2AC1EEF00F08A
:1000380020EF00F04EEF00F00E01C0A326EF00F015
:1000480028EF00F03EEF00F0C8A32DEF00F02FEFEF
:1000580000F03EEF00F002D83CEF00F00500FA6E29
:100068003E50FD6E3F50FE6E4050FF6EFA5012003B
:100078004EEF00F0C0A143EF00F045EF00F04EEF67
:1000880000F0C8A14AEF00F04CEF00F04EEF00F08E
:100098002FEF00F019C0F5FF18C0F8FF17C0F7FFE1
:1000A80016C0F6FF15C0F4FF14C0F3FF13C0DAFF43
:1000B80012C0D9FF11C0FBFF10C0FAFF4692110011
:0400C800C0EF0FF086
:1010000000382100D82000C820004A15008C1700A5
:101010002C2100E81A008621007E21007621006E36
:1010200021006621005E21005621002021004E1C77
:10103000004D6167203D202575200A200D200A0003
:10104000416E676C65203D202575200A200D00004B
:1010500044BE35EF08F0445006E14304D8B033EF06
:1010600008F035EF08F03CEF08F0000E0001C46F07
:10107000010EC36F40EF08F043C0C3F044C0C4F09A
:1010800041C0C1F042C0C2F0B1C0C5F0B2C0C6F0AC
:10109000B3C0C7F0B4C0C8F0B5C0C9F0B6C0CAF09C
:1010A000B7C0CBF0B8C0CCF0000E0001CE6F1F0E61
:1010B000CD6F000EAA6FD4EF08F0CD07D8A0CE07F1
:1010C0008B0ECD25D96E000ECE21DA6EC5C01AF07A
:1010D000C6C01BF0C7C01CF0C8C01DF0C9C01EF0C0
:1010E000CAC01FF0CBC020F0CCC021F00A0E226E87
:1010F000000E236E000E246E000E256E000E266E6E
:10110000000E276E000E286E000E296E3DEC0AF0D0
:101110001AC0B9F01BC0BAF01CC0BBF01DC0BCF0B7
:101120001EC0BDF01FC0BEF020C0BFF021C0C0F087
:101130000001B951300FDF6EC307D8A0C407C10743
:10114000D8A0C207C5C01AF0C6C01BF0C7C01CF0AB
:10115000C8C01DF0C9C01EF0CAC01FF0CBC020F02F
:10116000CCC021F00A0E226E000E236E000E246EFB
:10117000000E256E000E266E000E276E000E286EE5
:10118000000E296EC5EC09F01AC0C5F01BC0C6F0F0
:101190001CC0C7F01DC0C8F01EC0C9F01FC0CAF0F7
:1011A00020C0CBF021C0CCF00001CD51CE11D8B47D
:1011B000DCEF08F0DEEF08F0FAEF08F0C551C611D9
:1011C000C711C811C911CA11CB11CC11D8A4EBEFAA
:1011D00008F0EDEF08F05DEF08F0C4BFFAEF08F09B
:1011E000C45106E1C305D8B0F8EF08F0FAEF08F0F3
:1011F0005DEF08F0AFC02CF0B0C02DF08B0ECD2508
:101200002E6E000ECE212F6EC1C030F0C2C031F064
:1012100034EC0DF01200D1C0D9FFD2C0DAFFDECF1E
:10122000F6FFDDCFF7FF000EF86E0800F550250A37
:10123000D8A41DEF09F01FEF09F0AEEF09F0D1C0FF
:10124000D9FFD2C0DAFFDE2A000EDD22000E426E88
:10125000000E416E41C08AF043684468D1C0D9FF96
:10126000D2C0DAFFDECFE1F0DDCFE2F0E1C0F6FF81
:10127000E2C0F7FF000EF86E0800F550750AD8A41A
:1012800044EF09F046EF09F0A5EF09F0D3C0D9FF0C
:10129000D4C0DAFFDFCFD5F0020EDE26DFCFD6F0E6
:1012A000000EDD22D5C0D9FFD6C0DAFFDECFD7F0E1
:1012B000DDCFD8F0D7C0D9F0D8C0DAF00001DB6BB1
:1012C000DC6BDD6BDE6BDF6BE06B010EE125D56F58
:1012D000000EE221D66FD1C0D9FFD2C0DAFFD5C04F
:1012E000DEFFD6C0DDFF8DEF09F0CFC0AFF0D0C07C
:1012F000B0F0D9C0B1F0DAC0B2F0DBC0B3F0DCC0FE
:10130000B4F0DDC0B5F0DEC0B6F0DFC0B7F0E0C0CD
:10131000B8F028EC08F0C4EF09F0E1C0F6FFE2C035
:10132000F7FF000EF86E0800F550D56FD66BD6515A
:10133000000AD8B49EEF09F0A5EF09F0D551750A5F
:10134000D8B475EF09F0A5EF09F0D1C0D9FFD2C02C
:10135000DAFFDE2A000EDD22C4EF09F0D1C0D9FF8A
:10136000D2C0DAFFDECFF6FFDDCFF7FF000EF86E5A
:101370000800F5501C6E1D6ACFC01EF0D0C01FF0D3
:101380001AEC0CF0A5EF09F0120020EE2AF0070E7F
:10139000DE6AE806FDE222502310241025102610F4
:1013A000271028102910D8B4D8EF09F0DAEF09F087
:1013B0002CEF0AF0010E326EE8EF09F0D8902236D9
:1013C0002336243625362636273628362936322A3D
:1013D00029AEEDEF09F0EFEF09F0DEEF09F0D8905C
:1013E0002A362B362C362D362E362F3630363136E1
:1013F00022501A5C23501B5824501C5825501D584D
:1014000026501E5827501F58285020582950215820
:10141000D8A00DEF0AF00FEF0AF020EF0AF02250EB
:101420001A5E23501B5A24501C5A25501D5A265010
:101430001E5A27501F5A2850205A2950215A2A80B4
:10144000D8902932283227322632253224322332CC
:101450002232322EEFEF09F02AC01AF02BC01BF017
:101460002CC01CF02DC01DF02EC01EF02FC01FF090
:1014700030C020F031C021F012002250231024107F
:1014800025102610271028102910D8B44AEF0AF08A
:101490004CEF0AF094EF0AF0010E2A6E5AEF0AF0B0
:1014A000D890223623362436253626362736283657
:1014B00029362A2A29AE5FEF0AF061EF0AF050EFD1
:1014C0000AF022501A5C23501B5824501C582550F7
:1014D0001D5826501E5827501F5828502058295054
:1014E0002158D8A076EF0AF078EF0AF088EF0AF0DA
:1014F00022501A5E23501B5A24501C5A25501D5A44
:1015000026501E5A27501F5A2850205A2950215A17
:10151000D8902932283227322632253224322332FB
:1015200022322A2E61EF0AF01AC01AF01BC01BF0FB
:101530001CC01CF01DC01DF01EC01EF01FC01FF0FF
:1015400020C020F021C021F012005AEC10F0000958
:10155000D8B4ADEF0AF0AFEF0AF0ECEF0AF0BDEF50
:101560000AF0C3EC10F008EF0BF0BFEC10F008EF3E
:101570000BF0B7EC10F008EF0BF078C00CF079C06E
:101580000DF020EE69F002D8D0EF0AF00500FA6EF7
:10159000DE50FD6EDE50FE6EDE50FF6EFA50120021
:1015A0000E6E0F6A0F50000AD8B4D9EF0AF0B9EFE7
:1015B0000AF00E50010AD8B4B9EF0AF0030AD8B401
:1015C000B1EF0AF0010AD8B4B5EF0AF0070AD8B4AF
:1015D000B9EF0AF0B9EF0AF00001899183C0D9FF91
:1015E00084C0DAFF834B842BDF50C7EC10F000017E
:1015F0008507D8A0860785518611D8A402EF0BF085
:1016000004EF0BF007EF0BF0060E08EF0BF0030EE4
:101610001200E2EC0FF0F28EF28C50EC10F00E0E95
:10162000256E360EB3EC0DF00001F36F0F0E256E34
:10163000360EB3EC0DF00001F46FF451F3C0EFF08F
:10164000F06BEFC0F0F0EF6BEF11F16FF051F26F54
:10165000400EE96F100EEA6FF1C0EBF0F2C0ECF053
:1016600088EC0FF0110E0001EF6F3A0EE82EFED756
:10167000EF2FFCD700F01B0E256E360EB3EC0DF0ED
:101680000001F36F1C0E256E360EB3EC0DF0000159
:10169000F46FF451F3C0EFF0F06BEFC0F0F0EF6BCC
:1016A000EF11F16FF051F26F310EE96F100EEA6F2A
:1016B000F1C0EBF0F2C0ECF088EC0FF0110E00017D
:1016C000EF6F3A0EE82EFED7EF2FFCD700F00FEFAA
:1016D0000BF064EF00F01D6E010E1E6E000189B567
:1016E00074EF0BF076EF0BF0C4EF0BF01DC082F03F
:1016F0008993898589910E0E876F010E816FF40E93
:10170000806F8987DE0E606F210E616F000E626F41
:10171000000E726F000E736FDE0E636F210E646F2A
:10172000000E656F000E746F000E756FDE0E666F33
:10173000210E676F000E686F000E766F000E776FD8
:10174000DE0E696F210E6A6F000E6B6F000E786FF0
:10175000000E796FDA0E6C6F210E6D6F000E6E6FDA
:10176000000E7A6F000E7B6FA80E1A6E210E1B6E94
:10177000000E1C6E89EC10F0D1EC10F0D1EC0FF0E3
:10178000CBEC10F0000E1E6E1E501200E9EC10F0B3
:1017900083C0D9FF84C0DAFFDF6E0001834B842B46
:1017A0008507D8A0860785518611D8B4DAEF0BF0EB
:1017B000DCEF0BF0E1EF0BF0DDEC10F0050E19EFB4
:1017C0000CF08987ECEF0BF0ABEC10F019EF0CF09C
:1017D000AFEC10F019EF0CF072C00CF073C00DF00C
:1017E00002D8FDEF0BF00500FA6E6051FD6E6151FD
:1017F000FE6E6251FF6EFA5012000E6E0F6A0F50AD
:10180000000AD8B406EF0CF0E8EF0BF00E50010A16
:10181000D8B4E8EF0BF0030AD8B4E4EF0BF0010AF8
:10182000D8B4E4EF0BF0070AD8B4E8EF0BF0E8EF18
:101830000BF012001E501F10D8B421EF0CF023EF54
:101840000CF02CEF0CF01E501F10D8A42AEF0CF057
:101850002CEF0CF031EF0CF01C50A2EC10F064EF08
:101860000CF020EE09F01E50D9261F50DA22DE506F
:10187000DE10D8B43EEF0CF040EF0CF05BEF0CF054
:1018800020EE09F01E50D9261F50DA2210EE03F088
:101890001E50E1261F50E222DE50E65CE650800A30
:1018A000246EDE50800A2458D8B059EF0CF05BEF5C
:1018B0000CF064EF0CF020EE03F01E50D9261F5000
:1018C000DA22DE2A000EDD221200000E866E000EE5
:1018D000856E000E826E000E836E000E846E070E03
:1018E0008B6E8768BF0E886E8968FE0E8A6EFD0E4D
:1018F0000F01216F1C69F90E146F070E296F0C6917
:10190000000E206F000E286F000E136F000E0B6F7D
:10191000000E1B6F000E276F000E0A6F000E126F75
:10192000000E1A6F000E1F6F0969116919691E698F
:10193000070E266F0869106918691D690F0E256F5B
:10194000090E0E01B26F0F0EEB6F0B0EF06F100E43
:10195000EC6F0B0EFA6F190E886F0A0EB36F120040
:101960001F6E1A501B101C10D8B4B9EF0CF0BBEF4F
:101970000CF0D7EF0CF01F50030D600EF324D96E5E
:10198000000EF420DA6E1AC0DEFF1BC0DEFF1CC0A2
:10199000DEFF1F50020D720EF324D96E000EF420EC
:1019A000DA6E1DC0DEFF1EC0DDFFF1EF0CF01F5030
:1019B000030D600EF324D96E000EF420DA6EDE0EF5
:1019C000DE6E210EDE6E000EDE6E1F50020D720EF8
:1019D000F324D96E000EF420DA6E000EDE6E000ED7
:1019E000DD6E1200066E015002100310D8B4FBEF3A
:1019F0000CF0FDEF0CF019EF0DF00650030D600E2A
:101A0000F324D96E000EF420DA6E01C0DEFF02C0AE
:101A1000DEFF03C0DEFF0650020D720EF324D96E06
:101A2000000EF420DA6E04C0DEFF05C0DDFF33EFE8
:101A30000DF00650030D600EF324D96E000EF42055
:101A4000DA6EDE0EDE6E210EDE6E000EDE6E0650EB
:101A5000020D720EF324D96E000EF420DA6E000E21
:101A6000DE6E000EDD6E120031BE39EF0DF03BEF81
:101A70000DF041EF0DF030C0ADF031C0AEF046EFEB
:101A80000DF0000E0001AE6F000EAD6F000E0001F4
:101A9000AC6F000EAB6F5AEF0DF0000E1D6E200EF6
:101AA0001C6E2CC01EF02DC01FF01AEC0CF00001B3
:101AB000AB4BAC2BAD51AB5DAC51800A326EAE512D
:101AC000800A3258D8A067EF0DF069EF0DF04DEFA6
:101AD0000DF02EC025F02FC026F02CC027F02DC011
:101AE00028F0AEEC0EF012000001898785EF0DF0B2
:101AF000BBEC10F0B2EF0DF0DAEC10F0030EB2EF29
:101B00000DF0B7EC10F0B2EF0DF072C00CF073C036
:101B10000DF002D896EF0DF00500FA6E6051FD6EE3
:101B20006151FE6E6251FF6EFA5012000E6E0F6A26
:101B30000F50000AD8B49FEF0DF081EF0DF00E505A
:101B4000010AD8B481EF0DF0030AD8B478EF0DF094
:101B5000010AD8B478EF0DF0070AD8B47CEF0DF085
:101B600081EF0DF01200266E000E276E26506BECF2
:101B70000BF00009D8B4BFEF0DF0C1EF0DF0B6EFD8
:101B80000DF0840E206E1E0E216E000E226E270EAA
:101B9000236E000E246E0EEC10F0250E1A6E000E51
:101BA0001B6E000E1D6E010E1C6E9CEC0FF0000EE5
:101BB000206E000E216E000E226E000E236E000EAF
:101BC000246E1CEC10F0A7EC10F072EC0FF0E8069D
:101BD000D8B4EDEF0DF0EFEF0DF0E5EF0DF027507D
:101BE0001200D7EC10F0000189A1F9EF0DF0FBEF26
:101BF0000DF008EF0EF05AEC10F00009D8B403EF26
:101C00000EF005EF0EF008EF0EF00F0E0001876FDB
:101C100000018751030D010EF324F66E100EF4201F
:101C2000F76EF86A000EF82202D824EF0EF00500D5
:101C3000FA6E0900F550FD6E0900F550FE6E0900C0
:101C4000F550FF6EFA5012000001876F120000017C
:101C50008991020E886F35EF0EF0BBEC10F05CEF4F
:101C60000EF0B7EC10F05CEF0EF076C00CF077C021
:101C70000DF020EE66F002D848EF0EF00500FA6E87
:101C8000DE50FD6EDE50FE6EDE50FF6EFA5012002A
:101C90000E6E0F6A0F50000AD8B451EF0EF031EFFC
:101CA0000EF00E50020AD8B42DEF0EF0010AD8B48F
:101CB0002DEF0EF031EF0EF01200E5C033F0E6C06C
:101CC00034F072EF0EF0E3C0CFF0E4C0D0F0330E8A
:101CD0000001D16F000ED26FE7C0D3F0E8C0D4F09E
:101CE0000BEC09F033C0F6FF34C0F7FF000EF86EBE
:101CF0000800F5500009D8A480EF0EF082EF0EF036
:101D000063EF0EF0000E0001E46F000EE36F1200AF
:101D1000080E0E019A6F900E986F240E996F190E8F
:101D2000966F000E976F000E1A6E000E1B6E000E5F
:101D30001C6E7BEC10F0000E1A6E000E1B6E000E77
:101D40001C6E74EC10F0000E1A6E000E1B6E000E6E
:101D50001C6E82EC10F0000E456E1200000E2B6E11
:101D6000000E2A6EBFEF0EF029C01CF01D6A27C0BE
:101D70001EF028C01FF01AEC0CF02A4A2B2A2A5019
:101D80002524D96E2B502620DA6EDF50296E29507B
:101D9000D8A4CDEF0EF0CFEF0EF0B4EF0EF012009E
:101DA00020EE02F00C50D9260D50DA22DECF01F0E1
:101DB000DDCF02F00CC0D9FF0DC0DAFFDECF03F09B
:101DC000DDCF04F0AEEC0FF0000E076E000E086ED3
:101DD000000E096E000E0A6E000E0B6E2AEC10F05B
:101DE000020E12001A6E010E1B6E000189B3FBEF8A
:101DF0000EF0FDEF0EF010EF0FF08983000E1B6E5A
:101E00001A50D8B406EF0FF008EF0FF00CEF0FF0F8
:101E1000010E876F0EEF0FF0020E876FE5EC10F0EA
:101E20001B5012000CC001F00DC002F0000E046E39
:101E3000010E036EAEEC0FF0000E076E000E086E82
:101E4000000E096E000E0A6E000E0B6E2AEC10F0EA
:101E5000040E12000CC001F00DC002F0000E046E62
:101E6000020E036EAEEC0FF0000E076E000E086E51
:101E7000000E096E000E0A6E000E0B6E2AEC10F0BA
:101E8000020E12000CC001F00DC002F0000E046E34
:101E9000010E036EAEEC0FF0000E076E000E086E22
:101EA000000E096E000E0A6E000E0B6E2AEC10F08A
:101EB000020E12000CC001F00DC002F0000E046E04
:101EC000020E036EAEEC0FF0000E076E000E086EF1
:101ED000000E096E000E0A6E000E0B6E2AEC10F05A
:101EE000040E1200010E1A6E000189B37AEF0FF092
:101EF0007CEF0FF086EF0FF089958269D1EC10F03E
:101F0000CEEC10F0E7EC10F088C01AF01A50120076
:101F1000EB0E0001ED6F000EEE6F000EE36F000E92
:101F2000E46FE9C0E5F0EAC0E6F0ED0EE76F000E01
:101F3000E86F5DEC0EF01200000189A7A2EF0FF030
:101F4000A4EF0FF0ADEF0FF01AC083F01BC084F0C8
:101F50001CC085F01DC086F089971200000189A77A
:101F6000B4EF0FF0B6EF0FF0BFEF0FF001C083F04A
:101F700002C084F003C085F004C086F08997120087
:101F800000EE60F04B0EEE6AE806FDE100EE3EF07A
:101F9000080EEE6AE806FDE146904692000109EF60
:101FA0000BF095BAD6EF0FF0D8EF0FF0E1EF0FF08E
:101FB000000E946E080E956E000E966E030E926ED5
:101FC000958A1200E3EC10F000EC10F050EC10F0E9
:101FD00065EC0CF044EC10F0F1EC0FF088EC0EF036
:101FE0001200010EBE6E000EBD6E000EBF6E0F0E13
:101FF000BB6E000EBA6E0E01C993A30EBC6E12002A
:10200000000E0E01DC6F000EDD6F000EDE6F000EA5
:10201000DF6F000EE06F000EE16F120020C01AF0BB
:1020200021C01BF022C01CF023C01DF024C01EF0F4
:10203000000EB0EC0CF0120020C01AF021C01BF012
:1020400022C01CF023C01DF024C01EF0020EB0EC14
:102050000CF0120007C001F008C002F009C003F044
:102060000AC004F00BC005F0000EF2EC0CF01200F8
:102070001A6E0E01C8AD3FEF10F041EF10F039EFCE
:1020800010F01AC095FE1200620E0E01D36F000E02
:10209000D56F000ED76F020ED96F000ED86F1200E9
:1020A000000E946E080E956E000E966E030E926EE4
:1020B000959A120096BC5FEF10F062EF10F0010EDF
:1020C00063EF10F0000E1200000189818251822519
:1020D000C7EC10F0030E120000018981D880823510
:1020E000C7EC10F0050E12001AC038F01BC039F012
:1020F0001CC03AF012001AC03BF01BC03CF01CC0E0
:102100003DF012001AC035F01BC036F01CC037F08D
:1021100012001AC03EF01BC03FF01CC040F012007D
:1021200000018993000E886F0E0E12000001899144
:10213000EBEC10F0040E120000018993000E886F82
:102140000E0E12001B6E1B5038EC10F01200000E29
:10215000F2EC0EF01200E0EC10F0090E1200E0ECD0
:1021600010F00A0E1200DDEC10F0050E1200F1EC7A
:1021700010F0000E1200F3EC10F0010E1200F3EC60
:1021800010F0020E1200F3EC10F0010E1200016EBE
:1021900001C091FF12000E01C08112000E01C0911A
:1021A00012000E01C8911200F1EC0DF012000E01A8
:1021B000C89112000E01C8811200969A96881200EA
:1021C000968A96881200F29A120096801200959ACA
:1021D00012009150120096861200050E1200010E98
:0A21E000120096841200968212008D
:020000040020DA
:10000000FFFFFFFFFFFFFFFFFFFFFFFFFFFFFFFF00
:10001000FFFFFFFFFFFFFFFFFFFFFFFFFFFFFFFFF0
:10002000FFFFFFFFFFFFFFFFFFFFFFFFFFFFFFFFE0
:10003000FFFFFFFFFFFFFFFFFFFFFFFFFFFFFFFFD0
:10004000FFFFFFFFFFFFFFFFFFFFFFFFFFFFFFFFC0
:10005000FFFFFFFFFFFFFFFFFFFFFFFFFFFFFFFFB0
:10006000FFFFFFFFFFFFFFFFFFFFFFFFFFFFFFFFA0
:10007000FFFFFFFFFFFFFFFFFFFFFFFFFFFFFFFF90
:10008000FFFFFFFFFFFFFFFFFFFFFFFFFFFFFFFF80
:10009000FFFFFFFFFFFFFFFFFFFFFFFFFFFFFFFF70
:1000A000FFFFFFFFFFFFFFFFFFFFFFFFFFFFFFFF60
:1000B000FFFFFFFFFFFFFFFFFFFFFFFFFFFFFFFF50
:1000C000FFFFFFFFFFFFFFFFFFFFFFFFFFFFFFFF40
:1000D000FFFFFFFFFFFFFFFFFFFFFFFFFFFFFFFF30
:1000E000FFFFFFFFFFFFFFFFFFFFFFFFFFFFFFFF20
:1000F000FFFFFFFFFFFFFFFFFFFFFFFFFFFFFFFF10
:020000040030CA
:0C000000ECFFFFFF9FFFFFFFFFFFFFFF73
:00000001FF
