:04000000D4EF00F049
:100008005E82FACFB6F0FBCFB7F0D9CFB8F0DACF2F
:10001800B9F0F3CFBAF0F4CFBBF0F6CFBCF0F7CF1E
:10002800BDF0F8CFBEF0F5CFBFF00E01C2A91FEFAB
:1000380000F021EF00F02CEF00F0CAA926EF00F045
:1000480028EF00F02CEF00F069EC47F0BEEF00F06D
:10005800F2AC31EF00F033EF00F0BEEF00F0C6A3D2
:1000680038EF00F03AEF00F045EF00F0CEA33FEF95
:1000780000F041EF00F045EF00F094EC44F0BEEFE3
:1000880000F0C5A94AEF00F04CEF00F062EF00F075
:10009800CDA951EF00F053EF00F062EF00F002D865
:1000A80060EF00F00500FA6E0001EC51FD6EED51B5
:1000B800FE6EFF6AFA501200BEEF00F0C6A767EFA7
:1000C80000F069EF00F074EF00F0CEA76EEF00F0DB
:1000D80070EF00F074EF00F07BEC44F0BEEF00F03E
:1000E800C5AB79EF00F07BEF00F091EF00F0CDABFE
:1000F80080EF00F082EF00F091EF00F002D88FEF70
:1001080000F00500FA6E0001EA51FD6EEB51FE6E3B
:10011800FF6AFA501200BEEF00F0C5A196EF00F09A
:1001280098EF00F0AEEF00F0CDA19DEF00F09FEF4B
:1001380000F0AEEF00F002D8ACEF00F00500FA6E68
:100148000001E651FD6EE751FE6EFF6AFA5012009B
:10015800BEEF00F0C5A3B3EF00F0B5EF00F0BEEFBF
:1001680000F0CDA3BAEF00F0BCEF00F0BEEF00F056
:100178009FEF00F0BFC0F5FFBEC0F8FFBDC0F7FF9E
:10018800BCC0F6FFBBC0F4FFBAC0F3FFB9C0DAFFCA
:10019800B8C0D9FFB7C0FBFFB6C0FAFF5E92110026
:1001A80047EF44F089C0B8F18AC0B9F18BC0BAF101
:1001B8008CC0BBF1B8C160F1B9C161F1BAC162F1DB
:1001C800BBC163F18DC0B8F18EC0B9F18FC0BAF16F
:1001D80090C0BBF1B8C184F1B9C185F1BAC186F14B
:1001E800BBC187F1FF0E01016015A86FFF0E6115F5
:1001F800A96FFF0E6215AA6F7F0E6315AB6FFF0E16
:100208008415986FFF0E8515996FFF0E86159A6FE6
:100218007F0E87159B6F985199119A119B11D8A43D
:1002280018EF01F01AEF01F025EF01F0000E0001C0
:10023800896F000E8A6F800E8B6F3F0E8C6FF7EF01
:1002480015F0800E621909E13F0E63196011611102
:10025800D8A431EF01F033EF01F03EEF01F0000ECA
:100268000001896F000E8A6F800E8B6F3F0E8C6FB6
:10027800F7EF15F0ABBF4FEF01F0A805000EA95935
:10028800800EAA597F0EAB59D8B04DEF01F04FEF51
:1002980001F060EF01F09BBF5EEF01F09805000EE2
:1002A8009959800E9A597F0E9B59D8A05EEF01F09C
:1002B80060EF01F07CEF01F089C033F08AC034F0C0
:1002C8008BC035F08CC036F08DC037F08EC038F05A
:1002D8008FC039F090C03AF0A9EC22F033C089F011
:1002E80034C08AF035C08BF036C08CF0F7EF15F0CB
:1002F800000E506F000E516F000E526F000E536FBC
:1003080063BF8BEF01F089EF01F057EF02F09BBF5D
:1003180097EF01F0800E9A5D4B0E9B59D8A097EF8E
:1003280001F099EF01F0A3EF01F0020E506F000EFB
:10033800516F000E526F000E536F57EF02F09BBFC4
:10034800AFEF01F0800E9A5D3F0E9B59D8A0AFEF3A
:1003580001F0B1EF01F057EF02F0170E0001916FB5
:1003680098C192F099C193F09AC194F09BC195F00D
:100378009167C1EF01F0C9EF01F0953595339433DA
:1003880093339233912FBCEF01F0810E0001922537
:100398000101A06FFF0E000193210101A16FFF0E63
:1003A800000194210101A26FFF0E000195210101B6
:1003B800A36FA05117080001916F98C192F099C1DD
:1003C80093F09AC194F09BC195F09167EEEF01F01C
:1003D800F6EF01F095359533943393339233912F9B
:1003E800E9EF01F092C0ACF193C0ADF194C0AEF169
:1003F80095C0AFF10101A05117080001916FACC180
:1004080092F0ADC193F0AEC194F0AFC195F0912BCD
:1004180013EF02F0D8909237933794379537912F8E
:100428000EEF02F0010198510001921913E1010148
:100438009951000193190EE101019A510001941993
:1004480009E101019B5100019519D8A42EEF02F092
:1004580030EF02F057EF02F0010E0101AC15000178
:10046800916F000E0101AD150001926F000E0101A0
:10047800AE150001936F000E0101AF150001946FD6
:10048800915102080101506F000E000192550101BF
:10049800516F000E000193550101526F000E0001CB
:1004A80094550101536F800E01019A1909E17F0EDD
:1004B8009B1998119911D8A464EF02F066EF02F025
:1004C800D2EF02F0800EAA1909E13F0EAB19A8116C
:1004D800A911D8A472EF02F074EF02F07FEF02F0D6
:1004E800000E0001896F000E8A6F800E8B6F3F0E21
:1004F8008C6FF7EF15F0ABBF8EEF02F0A805000E7A
:10050800A959800EAA593F0EAB59D8A08EEF02F018
:1005180090EF02F0ACEF02F087BF97EF02F095EF93
:1005280002F0A2EF02F0000E0001896F000E8A6F40
:10053800000E8B6F000E8C6FF7EF15F08DC089F0F1
:100548008EC08AF08FC08BF090C08CF0F7EF15F05A
:1005580087BFB3EF02F0B1EF02F0C7EF02F08DC032
:1005680001F08EC002F08FC003F090C004F02BECB5
:1005780044F001C089F002C08AF003C08BF004C0C7
:100588008CF0F7EF15F0000E0001896F000E8A6FEE
:10059800000E8B6F000E8C6FF7EF15F0800E9A1916
:1005A80009E13F0E9B1998119911D8A4DEEF02F0CA
:1005B800E0EF02F00DEF03F087BFE7EF02F0E5EFA1
:1005C80002F003EF03F0000E1A6E000E1B6E800E91
:1005D8001C6E3F0E1D6E89C01EF08AC01FF08BC0B6
:1005E80020F08CC021F002EC2BF01AC089F01BC05F
:1005F8008AF01CC08BF01DC08CF0F7EF15F089C095
:1006080089F08AC08AF08BC08BF08CC08CF0F7EF31
:1006180015F0400E8719841185118611D8A417EF9B
:1006280003F019EF03F035EF03F089C001F08AC039
:1006380002F08BC003F08CC004F089C005F08AC0BA
:1006480006F08BC007F08CC008F01FEC27F001C043
:1006580089F002C08AF003C08BF004C08CF0F7EF79
:1006680015F03F0E8719841185118611D8A43FEF24
:1006780003F041EF03F05CEF03F063BF46EF03F0D4
:1006880048EF03F05CEF03F089C057F08AC058F0D8
:100698008BC059F08CC05AF049EC20F057C089F053
:1006A80058C08AF059C08BF05AC08CF0F7EF15F09B
:1006B80089C001F08AC002F08BC003F08CC004F03E
:1006C80061EC44F001C070F102C071F103C072F135
:1006D80004C073F1800E0101AA190BE17F0EAB195A
:1006E800A811A911D8B47BEF03F07DEF03F096EFC2
:1006F80003F0A851A911AA11AB11D8B486EF03F0E1
:1007080088EF03F096EF03F0800EAA1909E13F0E77
:10071800AB19A811A911D8A494EF03F096EF03F030
:1007280065EF04F070C1B4F171C1B5F172C1B6F1F1
:1007380073C1B7F187BFA5EF03F0A3EF03F0BFEFD5
:1007480003F0000E1A6E000E1B6E800E1C6E3F0E1C
:100758001D6EB4C11EF0B5C11FF0B6C120F0B7C1FF
:1007680021F002EC2BF01AC0B4F11BC0B5F11CC08B
:10077800B6F11DC0B7F1010163BFC7EF03F0C5EFC4
:1007880003F05BEF04F0000EA8250001916F000E46
:100798000101A9210001926F800E0101AA21000127
:1007A800936FC00E0101AB210001946F01015051FC
:1007B80000019111956F0101515100019211966F3D
:1007C8000101525100019311976F0101535100012A
:1007D8009411986F9551961197119811D8A4F7EF25
:1007E80003F0F9EF03F03DEF04F0000EE56F210E82
:1007F800E46FB4C147F0B5C148F0B6C149F0B7C11C
:100808004AF0B4C143F0B5C144F0B6C145F0B7C130
:1008180046F07FEC42F043C01AF044C01BF045C0DC
:100828001CF046C01DF0B4C147F0B5C148F0B6C1D0
:1008380049F0B7C14AF0B4C143F0B5C144F0B6C1FC
:1008480045F0B7C146F07FEC42F043C01EF044C00B
:100858001FF045C020F046C021F002EC2BF01AC072
:10086800B4F11BC0B5F11CC0B6F11DC0B7F15BEF08
:1008780004F001015005511152115311D8A447EF4A
:1008880004F049EF04F05BEF04F0B4C101F0B5C126
:1008980002F0B6C103F0B7C104F02BEC44F001C07C
:1008A800B4F102C0B5F103C0B6F104C0B7F1B4C1E8
:1008B80089F0B5C18AF0B6C18BF0B7C18CF0F7EFFB
:1008C80015F0000E886F000E896F800E8A6F3F0E3C
:1008D8008B6F63BF74EF04F072EF04F0D7EF04F08E
:1008E8005051511152115311D8A47DEF04F07FEFEC
:1008F80004F0C4EF04F0000E0001E56F210EE46F70
:1009080089C047F08AC048F08BC049F08CC04AF0D3
:1009180089C043F08AC044F08BC045F08CC046F0D3
:100928007FEC42F043C01AF044C01BF045C01CF0F5
:1009380046C01DF089C047F08AC048F08BC049F016
:100948008CC04AF089C043F08AC044F08BC045F09F
:100958008CC046F07FEC42F043C01EF044C01FF04C
:1009680045C020F046C021F002EC2BF01AC089F0F7
:100978001BC08AF01CC08BF01DC08CF0F7EF15F07F
:100988005005511152115311D8A4CDEF04F0CFEFF7
:1009980004F0D7EF04F0000E886F000E896F800E08
:1009A8008A6FBF0E8B6F9BBFE6EF04F09805000EB1
:1009B8009959000E9A594D0E9B59D8A0E6EF04F0AC
:1009C800E8EF04F06DEF07F0ABBFFAEF04F0F80EB4
:1009D800A85DFF0EA9597F0EAA593F0EAB59D8B092
:1009E800F8EF04F0FAEF04F06DEF05F087BFFFEFC2
:1009F80004F001EF05F037EF05F0600E056E420ECA
:100A0800066EA20E076E0D0E086E88C101F089C130
:100A180002F08AC103F08BC104F01FEC27F001C07B
:100A2800A4F102C0A5F103C0A6F104C0A7F1A4C1B6
:100A380001F0A5C102F0A6C103F0A7C104F0600E41
:100A4800056E420E066EA20E076E0D0E086E1FECA6
:100A580027F001C089F002C08AF003C08BF004C0FF
:100A68008CF0F7EF15F0CA0E056EF20E066E490E01
:100A7800076E710E086E88C101F089C102F08AC143
:100A880003F08BC104F01FEC27F001C0A4F102C0F1
:100A9800A5F103C0A6F104C0A7F1A4C101F0A5C146
:100AA80002F0A6C103F0A7C104F0CA0E056EF20E4B
:100AB800066E490E076E710E086E1FEC27F001C016
:100AC80089F002C08AF003C08BF004C08CF0F7EF05
:100AD80015F0ABBF7DEF05F0080EA85D000EA95913
:100AE800800EAA593F0EAB59D8A07DEF05F07FEFD5
:100AF80005F0FAEF05F087BF8EEF05F087518611F4
:100B0800851106E18405D8B08CEF05F08EEF05F06D
:100B1800C4EF05F0600E056E420E066EA20E076E5B
:100B28000D0E086E88C101F089C102F08AC103F078
:100B38008BC104F01FEC27F001C0A4F102C0A5F19D
:100B480003C0A6F104C0A7F1A4C101F0A5C102F039
:100B5800A6C103F0A7C104F0600E056E420E066E32
:100B6800A20E076E0D0E086E1FEC27F001C089F06B
:100B780002C08AF003C08BF004C08CF0F7EF15F0C8
:100B8800CA0E056EF20E066E490E076E710E086EDD
:100B980088C101F089C102F08AC103F08BC104F059
:100BA8001FEC27F001C0A4F102C0A5F103C0A6F113
:100BB80004C0A7F1A4C101F0A5C102F0A6C103F0C9
:100BC800A7C104F0CA0E056EF20E066E490E076E36
:100BD800710E086E1FEC27F001C089F002C08AF080
:100BE80003C08BF004C08CF0F7EF15F070C133F040
:100BF80071C134F072C135F073C136F0000E376E32
:100C0800000E386E800E396EBF0E3A6EA9EC22F0D7
:100C180033C0B0F134C0B1F135C0B2F136C0B3F170
:100C2800000E056E000E066E800E076E3E0E086EF4
:100C3800B0C101F0B1C102F0B2C103F0B3C104F018
:100C48001FEC27F001C047F002C048F003C049F08C
:100C580004C04AF0AB0E436EAA0E446EAA0E456E4F
:100C68003E0E466E7FEC42F043C0A4F144C0A5F1AD
:100C780045C0A6F146C0A7F1B0C105F0B1C106F064
:100C8800B2C107F0B3C108F0B0C101F0B1C102F0C0
:100C9800B2C103F0B3C104F01FEC27F001C054F156
:100CA80002C055F103C056F104C057F1B0C105F0B8
:100CB800B1C106F0B2C107F0B3C108F0A4C101F098
:100CC800A5C102F0A6C103F0A7C104F01FEC27F0EC
:100CD80001C047F002C048F003C049F004C04AF020
:100CE800000E436E000E446E000E456E3F0E466EBB
:100CF8007FEC42F043C048F144C049F145C04AF195
:100D080046C04BF154C101F055C102F056C103F081
:100D180057C104F048C105F049C106F04AC107F0BF
:100D28004BC108F01FEC27F001C044F102C045F1A7
:100D380003C046F104C047F1B0C101F0B1C102F0EF
:100D4800B2C103F0B3C104F0000E056EAA0E066E20
:100D5800B80E076E3F0E086E1FEC27F001C074F145
:100D680002C075F103C076F104C077F1700E056E0C
:100D7800A50E066EEC0E076E360E086EB0C101F0B9
:100D8800B1C102F0B2C103F0B3C104F01FEC27F007
:100D980001C043F002C044F003C045F004C046F06F
:100DA8003B0E056EAA0E066EB80E076E3F0E086E55
:100DB80044C101F045C102F046C103F047C104F047
:100DC8001FEC27F001C047F002C048F003C049F00B
:100DD80004C04AF07FEC42F043C078F144C079F196
:100DE80045C07AF146C07BF174C133F075C134F067
:100DF80076C135F077C136F078C137F079C138F06F
:100E08007AC139F07BC13AF0A9EC22F033C080F105
:100E180034C081F135C082F136C083F180C1B8F1A8
:100E280081C1B9F182C1BAF183C1BBF1B8C190F1F6
:100E3800B9C191F1BAC192F1BBC193F1000E0101A0
:100E48009015B86FF00E9115B96FFF0E9215BA6F25
:100E5800FF0E9315BB6FB8C180F1B9C181F1BAC15A
:100E680082F1BBC183F174C147F075C148F076C106
:100E780049F077C14AF080C143F081C144F082C192
:100E880045F083C146F07FEC42F043C094F144C082
:100E980095F145C096F146C097F178C143F079C104
:100EA80044F07AC145F07BC146F094C147F095C142
:100EB80048F096C149F097C14AF07FEC42F043C030
:100EC8001CF144C01DF145C01EF146C01FF1EDEFF5
:100ED8000EF0000E7C6F000E7D6F000E7E6F000E10
:100EE8007F6FABBF83EF07F0AB5107E1800EAA5DC0
:100EF800D8B081EF07F083EF07F0B6EF07F070C1C5
:100F080001F071C102F072C103F073C104F0000E68
:100F1800056E000E066E800E076E4B0E086E1FECF7
:100F280027F001C070F102C071F103C072F104C072
:100F380073F1E80E01017C27FF0E7D23FF0E7E234F
:100F4800FF0E7F2370C1B8F171C1B9F172C1BAF156
:100F580073C1BBF1B8C1A8F1B9C1A9F1BAC1AAF16D
:100F6800BBC1ABF1170E0001916FA8C192F0A9C1E6
:100F780093F0AAC194F0ABC195F09167C6EF07F062
:100F8800CEEF07F095359533943393339233912F01
:100F9800C1EF07F0810E00019225966FFF0E932195
:100FA800976FFF0E9421986FFF0E9521996F9651B8
:100FB80001017C270001975101017D23000198510F
:100FC80001017E230001995101017F23FF0EA8151D
:100FD800AC6FFF0EA915AD6F7F0EAA15AE6F000E90
:100FE800AB15AF6F000EAC11A86F000EAD11A96F55
:100FF800800EAE11AA6F3F0EAF11AB6FAFBF14EFEB
:1010080008F0AF510BE1720EAC5DC40EAD591C0E69
:10101800AE59D8B012EF08F014EF08F01EEF08F040
:10102800000EA06F000EA16F000EA26F000EA36F3E
:1010380050EF08F0AFBF30EF08F0AF510BE1D70E1B
:10104800AC5DB30EAD595D0EAE59D8B02EEF08F0B9
:1010580030EF08F03AEF08F0010EA06F000EA16F14
:10106800000EA26F000EA36F50EF08F0000EA06FE5
:10107800000EA16F000EA26F000EA36F010E7C2759
:10108800000E7D237E237F23000EA827000EA923B0
:10109800800EAA23FF0EAB23A8C1B8F1A9C1B9F1EC
:1010A800AAC1BAF1ABC1BBF1B8C170F1B9C171F154
:1010B800BAC172F1BBC173F170C143F071C144F0A0
:1010C80072C145F073C146F0A0C191F0A1C192F080
:1010D8000001D89091379237D89091379237150EF2
:1010E8009125F66EFF0E9221F76EF86A000EF8222F
:1010F8000900F5CF47F00900F5CF48F00900F5CF12
:1011080049F00A00F5CF4AF07FEC42F043C074F191
:1011180044C075F145C076F146C077F1000E1A6EED
:10112800000E1B6E800E1C6E3F0E1D6E70C137F0D8
:1011380071C138F072C139F073C13AF0A0C191F0B1
:10114800A1C192F00001D89091379237D890913789
:101158009237150E9125F66EFF0E9221F76EF86AFA
:10116800000EF8220900F5CF33F00900F5CF34F06E
:101178000900F5CF35F00A00F5CF36F0A9EC22F0DA
:1011880033C01EF034C01FF035C020F036C021F047
:1011980002EC2BF01AC078F11BC079F11CC07AF16F
:1011A8001DC07BF174C101F075C102F076C103F076
:1011B80077C104F078C105F079C106F07AC107F06B
:1011C8007BC108F01FEC27F001C05CF102C05DF1A3
:1011D80003C05EF104C05FF15CC16CF15DC16DF1EB
:1011E8005EC16EF15FC16FF16CC1B8F16DC1B9F14B
:1011F8006EC1BAF16FC1BBF1B8C190F1B9C191F13B
:10120800BAC192F1BBC193F1000E01019015B86FFC
:10121800F00E9115B96FFF0E9215BA6FFF0E931568
:10122800BB6FB8C16CF1B9C16DF1BAC16EF1BBC188
:101238006FF1A8C191F0A9C192F0AAC193F0ABC116
:1012480094F0000194359433933392339133000E24
:101258009115956FF00E9215966FFF0E9315976F77
:10126800FF0E9415986F000E95110101906F000EF6
:10127800000196110101916F000E00019711010103
:10128800926F200E000198110101936FA0C191F097
:10129800A1C192F0A2C193F0A3C194F0150ED89009
:1012A80000019137923793379437E82E53EF09F0BE
:1012B8000101905100019125956F010191510001A3
:1012C8009221966F0101925100019321976F0101BC
:1012D800935100019421986F000E95250101B86F74
:1012E800000E000196210101B96F400E00019721FF
:1012F8000101BA6F000E000198210101BB6FB8C14E
:1013080068F1B9C169F1BAC16AF1BBC16BF1A0C199
:1013180091F0A1C192F00001D89091379237D890FE
:1013280091379237150E9125F66EFF0E9221F76EC2
:10133800F86A000EF8220900F5CF47F00900F5CF4A
:1013480048F00900F5CF49F00A00F5CF4AF068C126
:1013580043F069C144F06AC145F06BC146F07FECC7
:1013680042F043C094F144C095F145C096F146C09F
:1013780097F170C143F071C144F072C145F073C177
:1013880046F094C147F095C148F096C149F097C11D
:101398004AF07FEC42F043C034F144C035F145C017
:1013A80036F146C037F168C105F069C106F06AC177
:1013B80007F06BC108F06CC101F06DC102F06EC19D
:1013C80003F06FC104F01FEC27F001C047F002C022
:1013D80048F003C049F004C04AF074C143F075C135
:1013E80044F076C145F077C146F07FEC42F043C047
:1013F80094F144C095F145C096F146C097F134C1C7
:1014080005F035C106F036C107F037C108F06CC1E8
:1014180001F06DC102F06EC103F06FC104F01FEC62
:1014280027F001C047F002C048F003C049F004C0EB
:101438004AF094C143F095C144F096C145F097C174
:1014480046F07FEC42F043C054F144C055F145C02A
:1014580056F146C057F154C101F055C102F056C1CA
:1014680003F057C104F078C105F079C106F07AC1DC
:1014780007F07BC108F01FEC27F001C030F102C073
:1014880031F103C032F104C033F15CC101F05DC138
:1014980002F05EC103F05FC104F05CC105F05DC1FC
:1014A80006F05EC107F05FC108F01FEC27F001C02D
:1014B8008CF102C08DF103C08EF104C08FF1550E7E
:1014C800376E320E386E6C0E396E3E0E3A6E420E24
:1014D800056EF10E066E530E076E3E0E086E8CC139
:1014E80001F08DC102F08EC103F08FC104F01FEC32
:1014F80027F001C033F002C034F003C035F004C057
:1015080036F0A9EC22F033C0A4F134C0A5F135C0FF
:10151800A6F136C0A7F1050E376EA30E386E8B0EF6
:10152800396E3E0E3A6E8CC105F08DC106F08EC143
:1015380007F08FC108F0A4C101F0A5C102F0A6C14F
:1015480003F0A7C104F01FEC27F001C033F002C07C
:1015580034F003C035F004C036F0A9EC22F033C0F3
:1015680054F134C055F135C056F136C057F1AB0EC1
:10157800376EAA0E386EAA0E396E3E0E3A6E8CC1C0
:1015880005F08DC106F08EC107F08FC108F054C177
:1015980001F055C102F056C103F057C104F01FEC29
:1015A80027F001C033F002C034F003C035F004C0A6
:1015B80036F0A9EC22F033C048F134C049F135C007
:1015C8004AF136C04BF1B70E376E6D0E386EDB0E32
:1015D800396E3E0E3A6E8CC105F08DC106F08EC193
:1015E80007F08FC108F048C101F049C102F04AC1B3
:1015F80003F04BC104F01FEC27F001C033F002C028
:1016080034F003C035F004C036F0A9EC22F033C042
:1016180038F134C039F135C03AF136C03BF19A0E91
:10162800376E990E386E190E396E3F0E3A6E8CC1B0
:1016380005F08DC106F08EC107F08FC108F038C1E2
:1016480001F039C102F03AC103F03BC104F01FECCC
:1016580027F001C033F002C034F003C035F004C0F5
:1016680036F0A9EC22F033C000F134C001F135C0E6
:1016780002F136C003F18CC105F08DC106F08EC1B0
:1016880007F08FC108F08CC101F08DC102F08EC146
:1016980003F08FC104F01FEC27F001C004F102C071
:1016A80005F103C006F104C007F100C101F001C152
:1016B80002F002C103F003C104F004C105F005C142
:1016C80006F006C107F007C108F01FEC27F001C0BB
:1016D8004CF102C04DF103C04EF104C04FF130C1CE
:1016E80005F031C106F032C107F033C108F05CC122
:1016F80037F05DC138F05EC139F05FC13AF06CC1B6
:1017080033F06DC134F06EC135F06FC136F0A9EC1D
:1017180022F033C001F034C002F035C003F036C007
:1017280004F01FEC27F001C058F102C059F103C0C2
:101738005AF104C05BF14CC133F04DC134F04EC1D5
:1017480035F04FC136F058C137F059C138F05AC199
:1017580039F05BC13AF0A9EC22F033C04CF134C047
:101768004DF135C04EF136C04FF16CC101F06DC17D
:1017780002F06EC103F06FC104F06CC105F06DC1D9
:1017880006F06EC107F06FC108F01FEC27F001C02A
:101798008CF102C08DF103C08EF104C08FF1000EF0
:1017A800376E000E386E400E396E400E3A6E8CC1A0
:1017B80033F08DC134F08EC135F08FC136F0A9EC0D
:1017C80022F033C058F134C059F135C05AF136C04F
:1017D8005BF158C133F059C134F05AC135F05BC1DF
:1017E80036F04CC137F04DC138F04EC139F04FC119
:1017F8003AF0A9EC22F033C068F134C069F135C081
:101808006AF136C06BF168C1B8F169C1B9F16AC152
:10181800BAF16BC1BBF1B8C190F1B9C191F1BAC1CC
:1018280092F1BBC193F1000E01019015B86FF00E53
:101838009115B96FFF0E9215BA6FFF0E9315BB6F16
:10184800B8C168F1B9C169F1BAC16AF1BBC16BF13C
:10185800000E376E000E386E400E396EC00E3A6EAE
:1018680068C133F069C134F06AC135F06BC136F034
:10187800A9EC22F033C03CF134C03DF135C03EF153
:1018880036C03FF18CC147F08DC148F08EC149F098
:101898008FC14AF03CC143F03DC144F03EC145F020
:1018A8003FC146F07FEC42F043C040F144C041F1F3
:1018B80045C042F146C043F14CC143F04DC144F02C
:1018C8004EC145F04FC146F040C147F041C148F014
:1018D80042C149F043C14AF07FEC42F043C034F1C1
:1018E80044C035F145C036F146C037F16CC101F04E
:1018F8006DC102F06EC103F06FC104F068C105F05C
:1019080069C106F06AC107F06BC108F01FEC27F047
:1019180001C074F102C075F103C076F104C077F11B
:1019280068C105F069C106F06AC107F06BC108F02B
:1019380030C101F031C102F032C103F033C104F00B
:101948001FEC27F001C033F002C034F003C035F0BB
:1019580004C036F05CC105F05DC106F05EC107F059
:101968005FC108F034C101F035C102F036C103F09F
:1019780037C104F01FEC27F001C037F002C038F07F
:1019880003C039F004C03AF0A9EC22F033C078F172
:1019980034C079F135C07AF136C07BF174C133F0C7
:1019A80075C134F076C135F077C136F078C137F0BB
:1019B80079C138F07AC139F07BC13AF0A9EC22F04C
:1019C80033C09CF134C09DF135C09EF136C09FF103
:1019D8009CC1B8F19DC1B9F19EC1BAF19FC1BBF1DB
:1019E800B8C190F1B9C191F1BAC192F1BBC193F1FB
:1019F800000E01019015B86FF00E9115B96FFF0E2A
:101A08009215BA6FFF0E9315BB6FB8C19CF1B9C19F
:101A18009DF1BAC19EF1BBC19FF174C147F075C178
:101A280048F076C149F077C14AF09CC143F09DC1A6
:101A380044F09EC145F09FC146F07FEC42F043C0A0
:101A480094F144C095F145C096F146C097F178C12C
:101A580043F079C144F07AC145F07BC146F094C1A6
:101A680047F095C148F096C149F097C14AF07FEC1C
:101A780042F043C064F144C065F145C066F146C018
:101A880067F19CC101F09DC102F09EC103F09FC1A6
:101A980004F0000E056E400E066E760E076E3F0EC1
:101AA800086E1FEC27F001C020F102C021F103C02D
:101AB80022F104C023F14F0E056E380E066E760E25
:101AC800076E3F0E086E64C101F065C102F066C181
:101AD80003F067C104F01FEC27F001C037F002C023
:101AE80038F003C039F004C03AF0C60E056E230E74
:101AF800066EF60E076EB80E086E9CC101F09DC109
:101B080002F09EC103F09FC104F01FEC27F001C052
:101B180033F002C034F003C035F004C036F0A9EC4D
:101B280022F033C058F134C059F135C05AF136C0EB
:101B38005BF158C133F059C134F05AC135F05BC17B
:101B480036F0A0C191F0A1C192F00001D890913770
:101B58009237D89091379237AD0E9125F66EFE0EDA
:101B68009221F76EF86A000EF8220900F5CF37F0D7
:101B78000900F5CF38F00900F5CF39F00A00F5CFA4
:101B88003AF0A9EC22F033C024F134C025F135C075
:101B980026F136C027F17CC108F07DC109F07EC16D
:101BA8000AF07FC10BF0010E63EC33F008C0B0F10E
:101BB80009C0B1F10AC0B2F10BC0B3F124C137F0CA
:101BC80025C138F026C139F027C13AF020C133F0D9
:101BD80021C134F022C135F023C136F0A9EC22F03E
:101BE80033C058F134C059F135C05AF136C05BF1F1
:101BF800A0C191F0A1C192F00001D890913792371D
:101C0800D89091379237B50E9125F66EFE0E922137
:101C1800F76EF86A000EF8220900F5CF37F00900D0
:101C2800F5CF38F00900F5CF39F00A00F5CF3AF0D2
:101C380058C133F059C134F05AC135F05BC136F0A0
:101C4800A9EC22F033C008F134C009F135C00AF11B
:101C580036C00BF108C133F009C134F00AC135F0C0
:101C68000BC136F0B0C137F0B1C138F0B2C139F0AC
:101C7800B3C13AF0A9EC22F033C080F134C081F14D
:101C880035C082F136C083F180C1B8F181C1B9F1A4
:101C980082C1BAF183C1BBF1B8C190F1B9C191F168
:101CA800BAC192F1BBC193F1000E01019015B86F52
:101CB800F00E9115B96FFF0E9215BA6FFF0E9315BE
:101CC800BB6FB8C180F1B9C181F1BAC182F1BBC1A2
:101CD80083F1B0C147F0B1C148F0B2C149F0B3C116
:101CE8004AF080C143F081C144F082C145F083C10C
:101CF80046F07FEC42F043C094F144C095F145C0F2
:101D080096F146C097F1A0C191F0A1C192F00001EF
:101D1800D89091379237D89091379237B50E912550
:101D2800F66EFE0E9221F76EF86A000EF822090090
:101D3800F5CF47F00900F5CF48F00900F5CF49F095
:101D48000A00F5CF4AF094C143F095C144F096C11A
:101D580045F097C146F07FEC42F043C040F144C0E3
:101D680041F145C042F146C043F120C147F021C1CD
:101D780048F022C149F023C14AF040C143F041C1B3
:101D880044F042C145F043C146F07FEC42F043C005
:101D98000CF144C00DF145C00EF146C00FF124C14D
:101DA80043F025C144F026C145F027C146F00CC1D7
:101DB80047F00DC148F00EC149F00FC14AF07FEC61
:101DC80042F043C01CF144C01DF145C01EF146C09D
:101DD8001FF18DC0B8F18EC0B9F18FC0BAF190C0B3
:101DE800BBF1B8C190F1B9C191F1BAC192F1BBC1CF
:101DF80093F1000E01019015B86FF00E9115B96FAF
:101E0800FF0E9215BA6FFF0E9315BB6FB8C128F17C
:101E1800B9C129F1BAC12AF1BBC12BF180C105F0C2
:101E280081C106F082C107F083C108F028C147F0DC
:101E380029C148F02AC149F02BC14AF08DC043F0AE
:101E48008EC044F08FC045F090C046F07FEC42F061
:101E580043C001F044C002F045C003F046C004F09E
:101E68001FEC27F001C010F102C011F103C012F1FC
:101E780004C013F110C133F011C134F012C135F0B0
:101E880013C136F01CC105F01DC106F01EC107F0D4
:101E98001FC108F08DC001F08EC002F08FC003F0A2
:101EA80090C004F01FEC27F001C037F002C038F0F2
:101EB80003C039F004C03AF0A9EC22F033C064F151
:101EC80034C065F135C066F136C067F128C101F04C
:101ED80029C102F02AC103F02BC104F080C105F02A
:101EE80081C106F082C107F083C108F01FEC27F01A
:101EF80001C09CF102C09DF103C09EF104C09FF196
:101F080064C133F065C134F066C135F067C136F09D
:101F18009CC137F09DC138F09EC139F09FC13AF09D
:101F2800A9EC22F033C0B4F134C0B5F135C0B6F134
:101F380036C0B7F1B4C1B8F1B5C1B9F1B6C1BAF19B
:101F4800B7C1BBF1B8C1ACF1B9C1ADF1BAC1AEF11D
:101F5800BBC1AFF10101AFBFBEEF0FF0AC05000E82
:101F6800AD59000EAE59430EAF59D8A0BEEF0FF0D1
:101F7800C0EF0FF0F6EF0FF0CA0E056EF20E066E08
:101F8800490E076E710E086E88C101F089C102F012
:101F98008AC103F08BC104F01FEC27F001C0A4F143
:101FA80002C0A5F103C0A6F104C0A7F1A4C101F0C5
:101FB800A5C102F0A6C103F0A7C104F0CA0E056EC0
:101FC800F20E066E490E076E710E086E1FEC27F0B2
:101FD80001C089F002C08AF003C08BF004C08CF005
:101FE800F7EF15F0430EAF19AC11AD11AE11D8A42F
:101FF80000EF10F002EF10F075EF10F09CC147F001
:102008009DC148F09EC149F09FC14AF0B4C143F058
:10201800B5C144F0B6C145F0B7C146F07FEC42F017
:1020280043C04BF044C04CF045C04DF046C04EF0A4
:102038003C0E376EAA0E386E380E396E330E3A6E75
:1020480064C133F065C134F066C135F067C136F05C
:10205800A9EC22F033C04FF034C050F035C051F035
:1020680036C052F0A7EC38F0D8B03DEF10F03FEF93
:1020780010F03FEF11F0CA0E056EF20E066E490E13
:10208800076E710E086E88C101F089C102F08AC11D
:1020980003F08BC104F01FEC27F001C0A4F102C0CB
:1020A800A5F103C0A6F104C0A7F1A4C101F0A5C120
:1020B80002F0A6C103F0A7C104F0CA0E056EF20E25
:1020C800066E490E076E710E086E1FEC27F001C0F0
:1020D80089F002C08AF003C08BF004C08CF0F7EFDF
:1020E80015F0FF0EAC150001916FFF0E0101AD1543
:1020F8000001926FFF0E0101AE150001936F7F0E74
:102108000101AF150001946F94BF97EF10F091058E
:10211800000E9259160E9359430E9459D8A097EF72
:1021280010F099EF10F0CFEF10F0600E056E420E30
:10213800066EA20E076E0D0E086E88C101F089C1E9
:1021480002F08AC103F08BC104F01FEC27F001C034
:10215800A4F102C0A5F103C0A6F104C0A7F1A4C16F
:1021680001F0A5C102F0A6C103F0A7C104F0600EFA
:10217800056E420E066EA20E076E0D0E086E1FEC5F
:1021880027F001C089F002C08AF003C08BF004C0B8
:102198008CF0F7EF15F0160E0101AE1909E1C30E28
:1021A800AF19AC11AD11D8A4DCEF10F0DEEF10F0D0
:1021B8003FEF11F09CC147F09DC148F09EC149F026
:1021C8009FC14AF0B4C143F0B5C144F0B6C145F06F
:1021D800B7C146F07FEC42F043C04BF044C04CF02E
:1021E80045C04DF046C04EF064C14FF065C150F097
:1021F80066C151F067C152F0A7EC38F0D8A007EFDC
:1022080011F009EF11F03FEF11F0600E056E420E6C
:10221800066EA20E076E0D0E086E88C101F089C108
:1022280002F08AC103F08BC104F01FEC27F001C053
:10223800A4F102C0A5F103C0A6F104C0A7F1A4C18E
:1022480001F0A5C102F0A6C103F0A7C104F0600E19
:10225800056E420E066EA20E076E0D0E086E1FEC7E
:1022680027F001C089F002C08AF003C08BF004C0D7
:102278008CF0F7EF15F0FF0E0101AC152C6FFF0E77
:10228800AD152D6FFF0EAE152E6F7F0EAF152F6F8C
:10229800170E0001916F2CC192F02DC193F02EC141
:1022A80094F02FC195F091675CEF11F064EF11F095
:1022B80095359533943393339233912F57EF11F02B
:1022C800810E000192250101A06FFF0E00019321EC
:1022D8000101A16FFF0E000194210101A26FFF0E01
:1022E800000195210101A36F000E7C6F000E7D6F28
:1022F800000E7E6F000E7F6F2FBF8FEF11F02C0541
:10230800000E2D59000E2E593F0E2F59D8A08FEFD1
:1023180011F091EF11F095EF12F0A0C191F0010EBC
:1023280000019127000E926F000E936F800E946F3C
:10233800000E956F9167A3EF11F0ABEF11F0953593
:102348009533943393339233912F9EEF11F001011B
:10235800AC510001922501017C6FAD510001932120
:1023680001017D6FAE510001942101017E6FAF51D3
:102378000001952101017F6F810E0001916FFF0E11
:10238800926FFF0E936FFF0E946F170E956F7CC1BF
:1023980096F07DC197F07EC198F07FC199F095675E
:1023A800D8EF11F0E0EF11F099359933983397335E
:1023B8009633952FD3EF11F0000196519125010125
:1023C800A06F000E000192210101A16F000E000113
:1023D80093210101A26F000E000194210101A36F56
:1023E800A0C191F0FF0E0001926FFF0E936F7F0E58
:1023F800946F000E956F916704EF12F00CEF12F0D6
:1024080095359533943393339233912FFFEF11F031
:102418000001921D966F931D976F941D986F951DDF
:10242800996F01017C51000196150101B86F7D512A
:10243800000197150101B96F7E510001981501013E
:10244800BA6F7F51000199150101BB6FB8C1B0F196
:10245800B9C1B1F1BAC1B2F1BBC1B3F1A05117080A
:102468000001916FFF0E01017C150001926FFF0EB4
:1024780001017D150001936F7F0E01017E1500019A
:10248800946F000E01017F150001956F000E9211E7
:10249800966F000E9311976F800E9411986F000E2F
:1024A8009511996F91675BEF12F063EF12F0993510
:1024B8009933983397339633912F56EF12F096C08D
:1024C8007CF197C07DF198C07EF199C07FF1010140
:1024D800AFBF73EF12F071EF12F07BEF12F07F1FB6
:1024E8007E1F7D1F7C6D000E7D237E237F239CC174
:1024F80043F09DC144F09EC145F09FC146F0B0C174
:1025080047F0B1C148F0B2C149F0B3C14AF07FEC1D
:1025180042F043C09CF144C09DF145C09EF146C0C5
:102528009FF164C133F065C134F066C135F067C10D
:1025380036F09CC137F09DC138F09EC139F09FC17B
:102548003AF0A9EC22F033C0B0F134C0B1F135C093
:10255800B2F136C0B3F1B0C1B8F1B1C1B9F1B2C18D
:10256800BAF1B3C1BBF1B8C190F1B9C191F1BAC127
:1025780092F1BBC193F1000E01019015B86F800E66
:102588009115B96FFF0E9215BA6FFF0E9315BB6FB9
:10259800B8C1B0F1B9C1B1F1BAC1B2F1BBC1B3F1BF
:1025A800B0C101F0B1C102F0B2C103F0B3C104F08F
:1025B800000E056E720E066E310E076E3F0E086E27
:1025C8001FEC27F001C074F102C075F103C076F169
:1025D80004C077F19CC147F09DC148F09EC149F005
:1025E8009FC14AF0B0C143F0B1C144F0B2C145F057
:1025F800B3C146F07FEC42F043C094F144C095F17A
:1026080045C096F146C097F1180E056E720E066E1B
:10261800310E076E3F0E086E94C147F095C148F021
:1026280096C149F097C14AF064C143F065C144F0CE
:1026380066C145F067C146F07FEC42F043C001F047
:1026480044C002F045C003F046C004F01FEC27F078
:1026580001C014F102C015F103C016F104C017F14E
:1026680014C133F015C134F016C135F017C136F076
:102678008C0E056EBE0E066EBF0E076E350E086E0A
:10268800B0C101F0B1C102F0B2C103F0B3C104F0AE
:102698001FEC27F001C037F002C038F003C039F052
:1026A80004C03AF0A9EC22F033C078F134C079F1D3
:1026B80035C07AF136C07BF174C133F075C134F09E
:1026C80076C135F077C136F078C137F079C138F086
:1026D8007AC139F07BC13AF0A9EC22F033C0B4F1E9
:1026E80034C0B5F135C0B6F136C0B7F174C147F0A2
:1026F80075C148F076C149F077C14AF0B4C143F0DA
:10270800B5C144F0B6C145F0B7C146F07FEC42F020
:1027180043C094F144C095F145C096F146C097F185
:1027280078C143F079C144F07AC145F07BC146F0E5
:1027380094C147F095C148F096C149F097C14AF055
:102748007FEC42F043C044F144C045F145C046F136
:1027580046C047F1B4C101F0B5C102F0B6C103F0FB
:10276800B7C104F0B4C105F0B5C106F0B6C107F0B1
:10277800B7C108F01FEC27F001C0B0F102C0B1F1F9
:1027880003C0B2F104C0B3F10E0E376EEA0E386E14
:10279800DD0E396EB50E3A6E4C0E056EBB0E066E2A
:1027A800310E076E330E086EB0C101F0B1C102F0F0
:1027B800B2C103F0B3C104F01FEC27F001C033F03D
:1027C80002C034F003C035F004C036F0A9EC22F0A2
:1027D80033C0A4F134C0A5F135C0A6F136C0A7F1C5
:1027E800550E376EB30E386E8A0E396E380E3A6E45
:1027F800B0C105F0B1C106F0B2C107F0B3C108F02D
:10280800A4C101F0A5C102F0A6C103F0A7C104F05C
:102818001FEC27F001C033F002C034F003C035F0DC
:1028280004C036F0A9EC22F033C054F134C055F19D
:1028380035C056F136C057F1610E376E0B0E386E43
:10284800360E396EBB0E3A6EB0C105F0B1C106F056
:10285800B2C107F0B3C108F054C101F055C102F08C
:1028680056C103F057C104F01FEC27F001C033F044
:1028780002C034F003C035F004C036F0A9EC22F0F1
:1028880033C048F134C049F135C04AF136C04BF184
:10289800AB0E376EAA0E386E2A0E396E3E0E3A6EA1
:1028A800B0C105F0B1C106F0B2C107F0B3C108F07C
:1028B80048C101F049C102F04AC103F04BC104F01C
:1028C8001FEC27F001C033F002C034F003C035F02C
:1028D80004C036F0A9EC22F033C038F134C039F125
:1028E80035C03AF136C03BF1B4C143F0B5C144F04C
:1028F800B6C145F0B7C146F0B0C105F0B1C106F0A8
:10290800B2C107F0B3C108F038C101F039C102F013
:102918003AC103F03BC104F01FEC27F001C047F0B7
:1029280002C048F003C049F004C04AF07FEC42F00E
:1029380043C080F144C081F145C082F146C083F1B3
:10294800000E376E000E386E000E396EC00E3A6EED
:1029580080C133F081C134F082C135F083C136F0D3
:10296800A9EC22F033C01EF034C01FF035C020F0AF
:1029780036C021F080C105F081C106F082C107F0A0
:1029880083C108F0B4C101F0B5C102F0B6C103F0CB
:10299800B7C104F01FEC27F001C01AF002C01BF009
:1029A80003C01CF004C01DF002EC2BF01AC03CF16F
:1029B8001BC03DF11CC03EF11DC03FF144C137F0C2
:1029C80045C138F046C139F047C13AF044C105F075
:1029D80045C106F046C107F047C108F0B4C101F08F
:1029E800B5C102F0B6C103F0B7C104F01FEC27F07F
:1029F80001C033F002C034F003C035F004C036F033
:102A0800A9EC22F033C018F134C019F135C01AF11D
:102A180036C01BF13CC143F03DC144F03EC145F016
:102A28003FC146F018C147F019C148F01AC149F032
:102A38001BC14AF07FEC42F043C04CF144C04DF159
:102A480045C04EF146C04FF1B4C147F0B5C148F09A
:102A5800B6C149F0B7C14AF04CC143F04DC144F08A
:102A68004EC145F04FC146F07FEC42F043C094F1AF
:102A780044C095F145C096F146C097F1000E436EEB
:102A8800000E446E800E456E3F0E466E94C147F0B0
:102A980095C148F096C149F097C14AF07FEC42F0E1
:102AA80043C0B4F144C0B5F145C0B6F146C0B7F172
:102AB800B4C1B8F1B5C1B9F1B6C1BAF1B7C1BBF18A
:102AC800B8C1ACF1B9C1ADF1BAC1AEF1BBC1AFF19A
:102AD8007CC191F07DC192F07EC193F07FC194F0EA
:102AE800170ED89000019137923793379437E82E14
:102AF80075EF15F091510101AC27000192510101C8
:102B0800AD23000193510101AE230001945101014D
:102B1800AF23170E0001916FACC192F0ADC193F0D5
:102B2800AEC194F0AFC195F091679DEF15F0A5EF98
:102B380015F095359533943393339233912F98EF5D
:102B480015F0000195BFB5EF15F09551941193114B
:102B580006E19205D8B0B3EF15F0B5EF15F0CDEF5B
:102B680015F0B4C11AF0B5C11BF0B6C11CF0B7C15D
:102B78001DF07CC11EF07DC11FF07FEC2FF01AC044
:102B8800B4F11BC0B5F11CC0B6F11DC0B7F1DDEF43
:102B980015F0ACC1B8F1ADC1B9F1AEC1BAF1AFC170
:102BA800BBF1B8C1B4F1B9C1B5F1BAC1B6F1BBC195
:102BB800B7F188C101F089C102F08AC103F08BC165
:102BC80004F0B4C105F0B5C106F0B6C107F0B7C14D
:102BD80008F01FEC27F001C089F002C08AF003C09A
:102BE8008BF004C08CF01200000E0201696F41C224
:102BF8006CF242C26DF243C26EF244C26FF26FBF12
:102C08000AEF16F008EF16F01EEF16F0010E696FC6
:102C18006CC200F26DC201F26EC202F26FC203F220
:102C28000EEC44F000C26CF201C26DF202C26EF208
:102C380003C26FF2000E02016B6F000E6A6FD5C2FD
:102C480059F2D6C25AF26951D8B42DEF16F02FEFC7
:102C580016F043EF16F06951D8A435EF16F037EFA8
:102C680016F03DEF16F0000E4F6F2B0E4E6F41EF32
:102C780016F0000E4F6F2D0E4E6F4EC269F26CC2E9
:102C880000F26DC201F26EC202F26FC203F229ECC9
:102C980039F0020100050111D8A455EF16F057EFDD
:102CA80016F089EF16F06951D8B45DEF16F05FEFB2
:102CB80016F068EF16F069C200F35907D8A05A0752
:102CC800000E6B6F010E6A6F000E6A25006F030E0F
:102CD8006B21016FF60E026FFF0E036FA2EC42F03C
:102CE8000201FD0E5927FF0E5A233FC212F240C2BD
:102CF80013F2000E146F030E156F59C216F25AC262
:102D080017F24FEC3BF00BEF1BF06CC200F26DC2F8
:102D180001F26EC202F26FC203F229EC39F002012D
:102D280000510111D8A49BEF16F09DEF16F0CFEFDC
:102D380016F06951D8B4A3EF16F0A5EF16F0AEEF70
:102D480016F069C200F35907D8A05A07000E6B6F36
:102D5800010E6A6F000E6A25006F030E6B21016F6A
:102D6800FA0E026FFF0E036FA2EC42F00201FD0E95
:102D78005927FF0E5A233FC212F240C213F2000E27
:102D8800146F030E156F59C216F25AC217F24FECA0
:102D98003BF00BEF1BF0000E706F000E716F800E92
:102DA800726F3F0E736F000E586F000E576F6CC234
:102DB80000F26DC201F26EC202F26FC203F2000E9F
:102DC800046F000E056F000E066F000E076FA7EC6C
:102DD8003BF00201D8B0F3EF16F0F5EF16F0D7EF9D
:102DE80017F001EF17F05BC270F25CC271F25DC2BE
:102DF80072F25EC273F2574B582B70C200F271C266
:102E080001F272C202F273C203F2000E046F000EE6
:102E1800056F200E066F410E076F09EC25F000C202
:102E28005BF201C25CF202C25DF203C25EF2020111
:102E38005B516C5D006F5C516D59016F5D516E594E
:102E4800026F5E516F59036F5BEC40F0020103BFE4
:102E580039EF17F003510211011109E1020E005D6B
:102E6800D8A039EF17F03BEF17F0F7EF16F05BC279
:102E780019F25CC21AF25DC21BF25EC21CF26CC28D
:102E88001DF26DC21EF26EC21FF26FC220F2A1ECDB
:102E980037F00201D8A053EF17F055EF17F0F7EF0E
:102EA80016F070516C5D006F71516D59016F725160
:102EB8006E59026F73516F59036F5BEC40F002015A
:102EC80003BF74EF17F003510211011107E1020E5D
:102ED800005DD8B072EF17F074EF17F0BDEF17F080
:102EE80070C26CF271C26DF272C26EF273C26FF28E
:102EF800D7EF17F070C20EF271C20FF272C210F261
:102F080073C211F2000E126F000E136F200E146FB1
:102F1800410E156F34EC29F00EC270F20FC271F237
:102F280010C272F211C273F202015707D8A05807F3
:102F380070516C5D006F71516D59016F72516E590E
:102F4800026F73516F59036F5BEC40F0020103BFCE
:102F5800BBEF17F003510211011107E1020E005DEA
:102F6800D8B0B9EF17F0BBEF17F0BDEF17F074EF5B
:102F780017F06CC219F26DC21AF26EC21BF26FC260
:102F88001CF270C21DF271C21EF272C21FF273C22D
:102F980020F2A1EC37F00201D8A0D5EF17F0D7EF57
:102FA80017F07EEF17F045C251F251C252F2D8BF66
:102FB800E0EF17F0E2EF17F0E8EF17F0D7C24AF2A8
:102FC800D8C24BF2ECEF17F0000E4B6F060E4A6FAB
:102FD8004AC255F24BC256F2554B562B660E521941
:102FE800D8A4F9EF17F0FBEF17F01BEF18F058BF54
:102FF80002EF18F000EF18F00EEF18F0000E706FE7
:10300800000E716F800E726F3F0E736F000E586F57
:10301800000E576F670E5119D8B415EF18F017EF57
:1030280018F01BEF18F05751552758515623000E2A
:10303800606F000E5F6F6CC261F26DC262F26EC2A9
:1030480063F26FC264F270C25BF271C25CF272C268
:103058005DF273C25EF2ADEF18F061C20EF262C2A9
:103068000FF263C210F264C211F270C212F271C29E
:1030780013F272C214F273C215F234EC29F00EC2C4
:1030880027F20FC228F210C229F211C22AF299ECD3
:1030980030F027C265F228C266F229C267F22AC256
:1030A80068F265C200F266C201F267C202F268C243
:1030B80003F21DEC37F000C253F201C254F261C2B0
:1030C80037F262C238F263C239F264C23AF265C2B8
:1030D80004F266C205F267C206F268C207F270C25D
:1030E80000F271C201F272C202F273C203F209EC79
:1030F80025F000C23BF201C23CF202C23DF203C21B
:103108003EF2EFEC41F037C261F238C262F239C2E6
:1031180063F23AC264F270C20EF271C20FF272C266
:1031280010F273C211F2000E0201126F000E136F3B
:10313800200E146F410E156F34EC29F00EC270F298
:103148000FC271F210C272F211C273F202015F4B28
:10315800602B55515F5D6051800A466F5651800A59
:103168004659D8A0BAEF18F0BCEF18F031EF18F0B4
:1031780070C200F271C201F272C202F273C203F2AB
:10318800000E046F000E056FA00E066F400E076F4D
:1031980009EC25F000C265F201C266F202C267F2CC
:1031A80003C268F261C219F262C21AF263C21BF268
:1031B80064C21CF265C21DF266C21EF267C21FF22B
:1031C80068C220F2A1EC37F00201D8B0EEEF18F097
:1031D800F0EF18F0FAEF18F0000E656F000E666F4A
:1031E800000E676F000E686F23EF19F061C200F2DE
:1031F80062C201F263C202F264C203F265C204F25F
:1032080066C205F267C206F268C207F2A7EC3BF095
:103218000201D8A012EF19F014EF19F023EF19F0FA
:1032280053B119EF19F01BEF19F023EF19F0000E45
:10323800656F000E666F000E676F000E686F6CC2D8
:1032480027F26DC228F26EC229F26FC22AF265C255
:103258002BF266C22CF267C22DF268C22EF2E8EC9D
:103268001DF027C261F228C262F229C263F22AC2A3
:1032780064F261C219F262C21AF263C21BF264C23A
:103288001CF2000E0201046F000E056F200E066F7F
:10329800410E076F5BC200F25CC201F25DC202F22E
:1032A8005EC203F209EC25F000C21DF201C21EF253
:1032B80002C21FF203C220F2A1EC37F00201D8A02B
:1032C80068EF19F06AEF19F092EF19F0574B582B85
:1032D8005BC200F25CC201F25DC202F25EC203F29E
:1032E800000E046F000E056F200E066F410E076F6B
:1032F80009EC25F000C25BF201C25CF202C25DF289
:1033080003C25EF2660E02015219D8A48EEF19F0BC
:1033180090EF19F092EF19F0554B562B5BC270F2F3
:103328005CC271F25DC272F25EC273F257C248F2B9
:1033380058C249F2000E506F000E4D6F000E4C6FD0
:10334800000E606F000E5F6F90EF1AF061C20EF210
:1033580062C20FF263C210F264C211F270C212F2BA
:1033680071C213F272C214F273C215F234EC29F06E
:103378000EC227F20FC228F210C229F211C22AF295
:1033880099EC30F027C265F228C266F229C267F2CA
:103398002AC268F265C200F266C201F267C202F28E
:1033A80068C203F21DEC37F0020101BFE7EF19F024
:1033B800015107E10A0E005DD8B0E5EF19F0E7EF1B
:1033C80019F0F7EF19F065C200F266C201F267C2A0
:1033D80002F268C203F21DEC37F000C253F201C2D8
:1033E80054F2FBEF19F0000E546F090E536F0201EF
:1033F8005051D8A402EF1AF004EF1AF02CEF1AF08B
:1034080049BF0BEF1AF009EF1AF02CEF1AF0000E73
:103418006A25D96E030E6B21DA6E2E0EDF6E6A4BAB
:103428006B2B5907D8A05A07010E506F2CEF1AF0D2
:10343800000E6A25D96E030E6B21DA6E300EDF6E30
:103448006A4B6B2B5907D8A05A074C07D8A04D07D1
:103458004C514D11D8A433EF1AF035EF1AF01CEF88
:103468001AF0000E6A25D96E030E6B21DA6E5351DD
:10347800300FDF6E6A4B6B2B5907D8A05A0761C211
:1034880037F262C238F263C239F264C23AF265C2F4
:1034980004F266C205F267C206F268C207F270C299
:1034A80000F271C201F272C202F273C203F209ECB5
:1034B80025F000C23BF201C23CF202C23DF203C257
:1034C8003EF2EFEC41F037C261F238C262F239C223
:1034D80063F23AC264F270C20EF271C20FF272C2A3
:1034E80010F273C211F2000E0201126F000E136F78
:1034F800200E146F410E156F34EC29F00EC270F2D5
:103508000FC271F210C272F211C273F202014807BF
:10351800D8A049075F4B602B55515F5D6051800A09
:10352800466F5651800A4659D8B09DEF1AF09FEF62
:103538001AF0ADEF1AF06BBFABEF1AF06B5109E15F
:103548004B0E6A5DD8A0ABEF1AF0ADEF1AF0AAEFF8
:1035580019F0000E606F4F0E5F6F000E5F25D96E79
:10356800030E6021DA6E000EDF6E000E466F030E4A
:10357800476F6A51465F6B51475B5F514625006F45
:1035880060514721016F000E026F030E036F6AC27C
:1035980004F26BC205F29EEC41F002016A515F5DD4
:1035A8006A6F6B5160596B6F6951D8A4DEEF1AF0DE
:1035B800E1EF1AF0010EE2EF1AF0000E5F6F606B98
:1035C8006951D8B4EAEF1AF0ECEF1AF0F7EF1AF0F5
:1035D8006A07D8A06B07000E6A25D96E030E6B2107
:1035E800DA6E69C2DFFF5F51595F60515A5B3FC2B3
:1035F80012F240C213F2000E6A25146F030E6B21FB
:10360800156F59C216F25AC217F24FEC3BF012006E
:1036180076C2D9FF77C2DAFFDECFF6FFDDCFF7FF3C
:10362800F86A0800F550250AD8A41DEF1BF01FEF13
:103638001BF0D1EF1DF076C2D9FF77C2DAFFDE2A80
:10364800000EDD22000E0201D66F000ED56FD5C226
:10365800E1F2D769D86976C2D9FF77C2DAFFDECF3F
:10366800F6FFDDCFF7FFF86A0800F5502A0AD8A45C
:1036780040EF1BF042EF1BF06BEF1BF076C2D9FF57
:1036880077C2DAFFDE2A000EDD2278C2D9FF79C2BE
:10369800DAFFDFCF7AF2020EDE26DFCF7BF2000EF2
:1036A800DD227AC2D9FF7BC2DAFFDECFD5F2DDCFC9
:1036B800D6F2D6BF64EF1BF062EF1BF0A0EF1BF051
:1036C800E181D56DD61FD8B0D62BA0EF1BF076C2FE
:1036D800D9FF77C2DAFFDECF06F2DDCF07F271EC51
:1036E80036F006C2D5F207C2D6F282EF1BF076C2D8
:1036F800D9FF77C2DAFFDE2A000EDD2276C2D9FFB3
:1037080077C2DAFFDECFF6FFDDCFF7FFF86A0800F1
:10371800F5CF7AF2D00E02017A257B6F7C6BFF0E13
:103728007C237C5109E10A0E7B5DD8A09EEF1BF03B
:10373800A0EF1BF07BEF1BF076C2D9FF77C2DAFF50
:10374800DECFF6FFDDCFF7FFF86A0800F5502E0A46
:10375800D8A4B1EF1BF0B3EF1BF023EF1CF0000E61
:10376800D86F000ED76F76C2D9FF77C2DAFFDE2A8C
:10377800000EDD2276C2D9FF77C2DAFFDECFF6FF70
:10378800DDCFF7FFF86A0800F5502A0AD8A4CFEF72
:103798001BF0D1EF1BF0EEEF1BF076C2D9FF77C21A
:1037A800DAFFDE2A000EDD2278C2D9FF79C2DAFFFD
:1037B800DFCF7AF2020EDE26DFCF7BF2000EDD22AB
:1037C8007AC2D9FF7BC2DAFFDECFD7F2DDCFD8F2DB
:1037D80023EF1CF076C2D9FF77C2DAFFDECF06F2FC
:1037E800DDCF07F271EC36F006C2D7F207C2D8F285
:1037F80005EF1CF076C2D9FF77C2DAFFDE2A000E89
:10380800DD2276C2D9FF77C2DAFFDECFF6FFDDCF41
:10381800F7FFF86A0800F5CF7AF2D00E02017A2590
:103828007B6F7C6BFF0E7C237C5109E10A0E7B5D6C
:10383800D8A021EF1CF023EF1CF0FEEF1BF076C29E
:10384800D9FF77C2DAFFDECF87F2DDCF88F287C2F1
:10385800F6FF88C2F7FFF86A0800F550640AD8B482
:1038680038EF1CF03AEF1CF049EF1CF087C2F6FF66
:1038780088C2F7FFF86A0800F550690AD8A447EF2C
:103888001CF049EF1CF08CEF1CF078C2D9FF79C20C
:10389800DAFFDFCF7AF2020EDE26DFCF7BF2000EF0
:1038A800DD227AC2D9FF7BC2DAFFDECF7FF2DDCF1D
:1038B80080F2000E80BFFF0E816F826F836F846F6E
:1038C800856F866F010E87257A6F000E88217B6FC2
:1038D80076C2D9FF77C2DAFF7AC2DEFF7BC2DDFF8C
:1038E80074C21DF275C21EF27FC21FF280C220F29E
:1038F80081C221F282C222F283C223F284C224F25C
:1039080085C225F286C226F23EEC2EF0E7EF1DF0C6
:1039180087C2F6FF88C2F7FFF86A0800F550750AF3
:10392800D8A499EF1CF09BEF1CF0F8EF1CF078C2BC
:10393800D9FF79C2DAFFDFCF7AF2020EDE26DFCFB7
:103948007BF2000EDD227AC2D9FF7BC2DAFFDECF1E
:103958007CF2DDCF7DF27CC27FF27DC280F2816B8A
:10396800826B836B846B856B866B010E87257A6F00
:10397800000E88217B6F76C2D9FF77C2DAFF7AC240
:10398800DEFF7BC2DDFFE1EF1CF074C21DF275C2E1
:103998001EF27FC21FF280C220F281C221F282C2CF
:1039A80022F283C223F284C224F285C225F286C29F
:1039B80026F2A4EC31F0E7EF1DF087C2F6FF88C2CB
:1039C800F7FFF86A0800F5507A6F7B6B7B51000AA5
:1039D800D8B4F1EF1CF0F8EF1CF07A51750AD8B49E
:1039E800C9EF1CF0F8EF1CF076C2D9FF77C2DAFFF6
:1039F800DECF87F2DDCF88F287C2F6FF88C2F7FFF5
:103A0800F86A0800F5CF7EF216EF1DF0874B882B79
:103A18002FEF1DF06C0E7E6F2FEF1DF0000E7E6FE6
:103A28002FEF1DF07E517A6F7B6B7B51000AD8B463
:103A380020EF1DF012EF1DF07A514C0AD8B40AEFAE
:103A48001DF02A0AD8B40EEF1DF00A0AD8B40AEFFE
:103A58001DF012EF1DF087C2F6FF88C2F7FFF86A63
:103A68000800F550660AD8A43CEF1DF03EEF1DF0A3
:103A7800C8EF1DF074EF1DF078C2D9FF79C2DAFFE4
:103A8800DFCF7AF2040EDE26DFCF7BF2000EDD22D6
:103A98007AC2D9FF7BC2DAFFDECF7FF2DECF80F2B7
:103AA800DECF81F2DECF82F289EF1DF078C2D9FF36
:103AB80079C2DAFFDFCF7AF2040EDE26DFCF7BF29F
:103AC800000EDD227AC2D9FF7BC2DAFFDECF7FF299
:103AD800DECF80F2DECF81F2DECF82F289EF1DF0F9
:103AE8007E517A6F7B6B7B51000AD8B47EEF1DF054
:103AF80089EF1DF07A514C0AD8B45AEF1DF0200A0C
:103B0800D8B440EF1DF089EF1DF0010E87257A6FBC
:103B1800000E88217B6F76C2D9FF77C2DAFF7AC29E
:103B2800DEFF7BC2DDFFB1EF1DF074C23FF275C24C
:103B380040F27FC241F280C242F281C243F282C2A5
:103B480044F287C2F6FF88C2F7FFF86A0800F5CF8B
:103B580045F2F8EC15F0E7EF1DF087C2F6FF88C2D2
:103B6800F7FFF86A0800F5507A6F7B6B7B51000A03
:103B7800D8B4C1EF1DF0C8EF1DF07A51660AD8B469
:103B880099EF1DF0C8EF1DF076C2D9FF77C2DAFFB2
:103B9800DE2A000EDD22E7EF1DF076C2D9FF77C2DC
:103BA800DAFFDECFF6FFDDCFF7FFF86A0800F55041
:103BB8000201026F036B74C204F275C205F2F0ECE5
:103BC8003CF0C8EF1DF0120002012A51800B336F40
:103BD8002A512A25356F29AFF4EF1DF0F6EF1DF0B5
:103BE800F7EF1DF035813551D8B4FDEF1DF0FFEF2B
:103BF8001DF014EF1EF03529D8A405EF1EF007EFCD
:103C08001EF00FEF1EF0000E276F000E286F000E3B
:103C1800296F000E2A6F298F000E2A6F1CEF1EF0E5
:103C2800000E276F000E286F000E296F000E2A6FF6
:103C38002E51800B346F33513419D8B426EF1EF04F
:103C480028EF1EF029EF1EF0338D2E512E25346FEC
:103C58002DAF31EF1EF033EF1EF034EF1EF034813C
:103C68003451D8B43AEF1EF03CEF1EF051EF1EF07D
:103C78003429D8A442EF1EF044EF1EF04CEF1EF09A
:103C8800000E2B6F000E2C6F000E2D6F000E2E6F86
:103C98002D8F000E2E6F59EF1EF0000E2B6F000EA9
:103CA8002C6F000E2D6F000E2E6F3551345DD8B07D
:103CB80060EF1EF062EF1EF089EF1EF033AD67EF84
:103CC8001EF069EF1EF06BEF1EF0800E331B35C23D
:103CD80036F234C235F236C234F227C236F22BC27B
:103CE80027F236C22BF228C236F22CC228F236C28C
:103CF8002CF229C236F22DC229F236C22DF22AC27E
:103D080036F22EC22AF236C22EF2000E366F355126
:103D180034C22FF2306B2F5F000E305B30BF9EEF46
:103D28001EF0305109E11A0E2F5DD8A09EEF1EF04B
:103D3800A0EF1EF0D7EF1EF02751281129112A11E4
:103D4800D8A4A9EF1EF0ACEF1EF0010EADEF1EF0E7
:103D5800000E366F000E276F000E286F000E296FB9
:103D6800000E2A6F34C235F2E0EF1EF036A1BFEF25
:103D78001EF0C1EF1EF0C7EF1EF0D89036310109D2
:103D8800366FC9EF1EF0D890363327A1CEEF1EF05C
:103D9800D0EF1EF0D1EF1EF0368F2A352A332933A3
:103DA80028332733352B3451355DD8A0DEEF1EF08C
:103DB800E0EF1EF0BAEF1EF033BDE5EF1EF0E7EFBF
:103DC8001EF027EF1FF03551D8A4EDEF1EF0EFEFEE
:103DD8001EF0F9EF1EF0000E276F000E286F000E80
:103DE800296F000E2A6F48EF20F02B5127272C51FE
:103DF80028232D5129232E512A232AA106EF1FF00B
:103E080008EF1FF0B4EF1FF036A10DEF1FF00FEF12
:103E18001FF015EF1FF0D89036310109366F17EFF4
:103E28001FF0D890363327A11CEF1FF01EEF1FF0AC
:103E38001FEF1FF0368F2A352A33293328332733CB
:103E4800352BB4EF1FF02B51275D2C5128592D51DC
:103E580029592A51800A2F6F2E51800A2F59D8B01C
:103E680038EF1FF03AEF1FF065EF1FF027512B5D79
:103E78002F6F28512C59306F29512D59316F2A51E4
:103E88002E59326FFF0E2F25276FFF0E3021286F16
:103E9800FF0E3121296FFF0E32212A6F800E331B4E
:103EA800366D3651D8A45BEF1FF05DEF1FF06DEF54
:103EB8001FF0010E2727000E282329232A236DEF40
:103EC8001FF02B51275F2C51285B2D51295B2E5158
:103ED8002A5B2751281129112A11D8A476EF1FF03F
:103EE80078EF1FF0ADEF1FF03651D8A47EEF1FF02A
:103EF80080EF1FF0ADEF1FF0000E276F000E286F48
:103F0800000E296F000E2A6F48EF20F0D89027374F
:103F1800283729372A3736AF94EF1FF096EF1FF06E
:103F280097EF1FF0278136A19CEF1FF09EEF1FF03F
:103F3800A2EF1FF0D8803637A4EF1FF0D89036379D
:103F48003551D8B4AAEF1FF0ACEF1FF0ADEF1FF05A
:103F5800350729AFB2EF1FF0B4EF1FF08AEF1FF05B
:103F6800000E346F36AFBBEF1FF0BDEF1FF0D5EF7B
:103F78001FF036C22FF27F0E2F17D8B4C6EF1FF0EE
:103F8800C8EF1FF0CCEF1FF0010E346FD5EF1FF014
:103F980027A1D1EF1FF0D3EF1FF0D5EF1FF0C8EF27
:103FA8001FF03451D8B4DBEF1FF0DDEF1FF008EF3E
:103FB80020F0010E2727000E282329232A232AA1CF
:103FC800E8EF1FF0EAEF1FF008EF20F027C22FF20A
:103FD80028C230F229C231F22AC232F232353233E3
:103FE800313330332F332FC227F230C228F231C297
:103FF80029F232C22AF23529D8B405EF20F007EFAA
:1040080020F008EF20F0352B3529D8B40EEF20F03A
:1040180010EF20F018EF20F03551D8A416EF20F05B
:1040280018EF20F02AEF20F0000E276F000E286FFF
:10403800000E296F000E2A6F3551D8A426EF20F004
:1040480028EF20F02AEF20F0000E336F35A12FEF74
:1040580020F031EF20F034EF20F0298F35EF20F0F9
:10406800299FD89035312A6F33AF3DEF20F03FEFCD
:1040780020F040EF20F02A8F27C227F228C228F22A
:1040880029C229F22AC22AF2120057C06DF058C07C
:104098006EF059C06FF05AC070F06DC085F06EC0F8
:1040A80086F06FC087F070C088F0000E000185159B
:1040B800606F000E8615616F800E8715626F7F0E28
:1040C8008815636F800E621909E17F0E631960110C
:1040D8006111D8A472EF20F074EF20F0A2EF20F065
:1040E80057C005F058C006F059C007F05AC008F08C
:1040F80057C001F058C002F059C003F05AC004F08C
:104108001FEC27F001C033F002C034F003C035F0D3
:1041180004C036F057C037F058C038F059C039F0ED
:104128005AC03AF0A9EC22F033C057F034C058F026
:1041380035C059F036C05AF0A8EF22F088BFB1EF69
:1041480020F088518711861106E18505D8B0AFEFB8
:1041580020F0B1EF20F0EDEF20F0FF0E8515606F35
:10416800FF0E8615616FFF0E8715626F7F0E88152B
:10417800636F6051611162116311D8A4C6EF20F01A
:10418800C8EF20F0D2EF20F057C057F058C058F0D1
:1041980059C059F05AC05AF0A8EF22F088BFD9EF99
:1041A80020F0D7EF20F0EDEF20F0000EE56F210EA4
:1041B800E46F720E016EFF0E026E93EC46F001C0C2
:1041C80057F002C058F003C059F004C05AF0A8EFE5
:1041D80022F0170E606F85C061F086C062F087C05C
:1041E80063F088C064F06067FCEF20F004EF21F012
:1041F80064356433633362336133602FF7EF20F043
:1042080061C07DF062C07EF063C07FF064C080F062
:1042180000017D517E117F118011D8A416EF21F085
:1042280018EF21F048EF21F0000E696F000E6A6F59
:10423800000E6B6F000E6C6F2DEF21F0D890853754
:10424800863787378837010E6927000E6A236B2364
:104258006C2387AF32EF21F034EF21F022EF21F009
:10426800FF0E6925606FFF0E6A21616FFF0E6B21DB
:10427800626FFF0E6C21636F60517D5F61517E5BE1
:1042880062517F5B6351805B810E7D27FF0E7E2329
:10429800FF0E7F23FF0E8023FF0E8515606FFF0E34
:1042A8008615616F7F0E8715626F000E8815636F24
:1042B800000E6011856F000E6111866F800E62110D
:1042C800876F000E6311886F7DA16DEF21F06FEF8E
:1042D80021F077EF21F08551852786518623875174
:1042E800872388518823803580337F337E337D331D
:1042F80085518527865186238751872388518823AE
:10430800000E656F000E666F000E676F000E686F17
:1043180065C071F066C072F067C073F068C074F071
:10432800000E816F000E826F000E836F010E846F86
:10433800E6EF21F065518125756F66518221766F10
:1043480067518321776F68518421786F7551855D36
:1043580076518659775187598851800A606F78510C
:10436800800A6059D8A0BBEF21F0BDEF21F0D9EF4A
:1043780021F075518125656F76518221666F7751DD
:104388008321676F78518421686F7551855F7651F5
:10439800865B7751875B7851885B815171278251A1
:1043A8007223835173238451742385518527865141
:1043B80086238751872388518823D8908433833371
:1043C800823381338151821183118411D8A4EFEF94
:1043D80021F0F1EF21F09EEF21F085518611871130
:1043E8008811D8B4FAEF21F0FCEF21F05DEF22F04C
:1043F800000E796F000E7A6F800E7B6F3F0E7C6F18
:1044080079C04BF07AC04CF07BC04DF07CC04EF0C8
:10441800000E4F6E000E506E800E516E3F0E526EA3
:10442800A7EC38F0D8A01BEF22F01DEF22F05DEFCB
:1044380022F0000E0001796F000E7A6F800E7B6FFC
:104448003F0E7C6F000E4B6E000E4C6E800E4D6E54
:104458003F0E4E6E79C04FF07AC050F07BC051F0DD
:104468007CC052F0A7EC38F0D8B03DEF22F03FEF17
:1044780022F048EF22F0020E00017127000E72238D
:10448800732374235DEF22F0010E00017115606F34
:10449800000E7215616F000E7315626F000E7415B1
:1044A800636F6051712761517223625173236351A5
:1044B800742371C060F072C061F073C062F074C0A0
:1044C80063F0000163356333623361336033000E98
:1044D8006025856F000E6121866F000E6221876F4F
:1044E8003F0E6321886F7DC060F07EC061F07FC0A1
:1044F80062F080C063F0170ED8906037613762377A
:104508006337E82E80EF22F06051852761518623BA
:10451800625187236351882385C06DF086C06EF091
:1045280087C06FF088C070F06DC079F06EC07AF007
:104538006FC07BF070C07CF079C057F07AC058F03B
:104548007BC059F07CC05AF012003650800B3F6E89
:1045580036503624416E35AEB4EF22F0B6EF22F075
:10456800B7EF22F041804150D8B4BDEF22F0BFEF41
:1045780022F0D4EF22F04128D8A4C5EF22F0C7EFEB
:1045880022F0CFEF22F0000E336E000E346E000ED4
:10459800356E000E366E358E000E366EDCEF22F06C
:1045A800000E336E000E346E000E356E000E366E41
:1045B8003A50800B406E3F504018D8B4E6EF22F0D6
:1045C800E8EF22F0E9EF22F03F8C3A503A24406EAF
:1045D80039AEF1EF22F0F3EF22F0F4EF22F0408051
:1045E8004050D8B4FAEF22F0FCEF22F011EF23F09C
:1045F8004028D8A402EF23F004EF23F00CEF23F0B7
:10460800000E376E000E386E000E396E000E3A6ED0
:10461800398E000E3A6E19EF23F0000E376E000E39
:10462800386E000E396E000E3A6E4150405CD8B0BC
:1046380020EF23F022EF23F049EF23F03FAC27EFE0
:1046480023F029EF23F02BEF23F0800E3F1A41C00F
:1046580042F040C041F042C040F033C042F037C0A1
:1046680033F042C037F034C042F038C034F042C0B2
:1046780038F035C042F039C035F042C039F036C0A4
:1046880042F03AC036F042C03AF0000E426E415055
:1046980040C03BF03C6A3B5E000E3C5A3CBE5EEFBD
:1046A80023F03C5009E11A0E3B5CD8A05EEF23F0E2
:1046B80060EF23F097EF23F03350341035103610A5
:1046C800D8A469EF23F06CEF23F0010E6DEF23F00F
:1046D800000E426E000E336E000E346E000E356E04
:1046E800000E366E40C041F0A0EF23F042A07FEFED
:1046F80023F081EF23F087EF23F0D89042300109AF
:10470800426E89EF23F0D890423233A08EEF23F027
:1047180090EF23F091EF23F0428E36343632353263
:1047280034323332412A4050415CD8A09EEF23F006
:10473800A0EF23F07AEF23F03FBCA5EF23F0A7EF1B
:1047480023F0E7EF23F04150D8A4ADEF23F0AFEF0B
:1047580023F0B9EF23F0000E336E000E346E000E16
:10476800356E000E366E08EF25F037503326385078
:104778003422395035223A50362236A0C6EF23F07B
:10478800C8EF23F074EF24F042A0CDEF23F0CFEF71
:1047980023F0D5EF23F0D89042300109426ED7EFCD
:1047A80023F0D890423233A0DCEF23F0DEEF23F081
:1047B800DFEF23F0428E363436323532343233323C
:1047C800412A74EF24F03750335C3850345839504C
:1047D80035583650800A3B6E3A50800A3B58D8B05C
:1047E800F8EF23F0FAEF23F025EF24F03350375C8D
:1047F8003B6E345038583C6E355039583D6E365003
:104808003A583E6EFF0E3B24336EFF0E3C20346E4A
:10481800FF0E3D20356EFF0E3E20366E800E3F1A8D
:10482800426C4250D8A41BEF24F01DEF24F02DEF6A
:1048380024F0010E3326000E3422352236222DEFC5
:1048480024F03750335E3850345A3950355A3A507C
:10485800365A3350341035103610D8A436EF24F0B9
:1048680038EF24F06DEF24F04250D8A43EEF24F046
:1048780040EF24F06DEF24F0000E336E000E346E1E
:10488800000E356E000E366E08EF25F0D8903336E0
:1048980034363536363642AE54EF24F056EF24F02F
:1048A80057EF24F0338042A05CEF24F05EEF24F051
:1048B80062EF24F0D880423664EF24F0D890423674
:1048C8004150D8B46AEF24F06CEF24F06DEF24F077
:1048D800410635AE72EF24F074EF24F04AEF24F06D
:1048E800000E406E42AE7BEF24F07DEF24F095EF92
:1048F80024F042C03BF07F0E3B16D8B486EF24F07C
:1049080088EF24F08CEF24F0010E406E95EF24F030
:1049180033A091EF24F093EF24F095EF24F088EF83
:1049280024F04050D8B49BEF24F09DEF24F0C8EF5A
:1049380024F0010E3326000E34223522362236A00A
:10494800A8EF24F0AAEF24F0C8EF24F033C03BF01E
:1049580034C03CF035C03DF036C03EF03E343E3207
:104968003D323C323B323BC033F03CC034F03DC0BA
:1049780035F03EC036F04128D8B4C5EF24F0C7EF73
:1049880024F0C8EF24F0412A4128D8B4CEEF24F00F
:10499800D0EF24F0D8EF24F04150D8A4D6EF24F07B
:1049A800D8EF24F0EAEF24F0000E336E000E346ED8
:1049B800000E356E000E366E4150D8A4E6EF24F096
:1049C800E8EF24F0EAEF24F0000E3F6E41A0EFEF8D
:1049D80024F0F1EF24F0F4EF24F0358EF5EF24F015
:1049E800359ED8904130366E3FAEFDEF24F0FFEF94
:1049F80024F000EF25F0368E33C033F034C034F0A5
:104A080035C035F036C036F0120002010351800B74
:104A18000C6F03510325126F02AF15EF25F017EF46
:104A280025F018EF25F012811251D8B41EEF25F0A9
:104A380020EF25F033EF25F01229D8A426EF25F032
:104A480028EF25F030EF25F0000E006F000E016F03
:104A5800000E026F000E036F028F3BEF25F0000E71
:104A6800006F000E016F000E026F000E036F0751FA
:104A7800800B0C1B07510725116F06AF46EF25F079
:104A880048EF25F049EF25F011811151D8B44FEFC7
:104A980025F051EF25F064EF25F01129D8A457EF40
:104AA80025F059EF25F061EF25F0000E046F000E98
:104AB800056F000E066F000E076F068F6CEF25F06E
:104AC800000E046F000E056F000E066F000E076FD4
:104AD8001151D8B472EF25F074EF25F07CEF25F072
:104AE8001251D8A47AEF25F07CEF25F086EF25F057
:104AF800000E006F000E016F000E026F000E036FB4
:104B08001EEF27F006510003F3CF17F2F4CF18F287
:104B180017510D6F0E6B0F6B106B1851136F146BD1
:104B2800156B166B05510103F3CF17F2F4CF18F28A
:104B380017510D27000E0E230F231023185113278A
:104B4800000E14231523162304510203F3CF17F282
:104B5800F4CF18F217510D27000E0E230F23102340
:104B680018511327000E1423152316230FC210F211
:104B78000EC20FF20DC20EF20D6B04510103F3CFFA
:104B880017F2F4CF18F217510D2718510E23000E03
:104B98000F23000E102305510003F3CF17F2F4CFB3
:104BA80018F217510D2718510E23000E0F23000E6F
:104BB80010230FC210F20EC20FF20DC20EF20D6BCF
:104BC80004510003F3CF17F2F4CF18F217510D2751
:104BD80018510E23000E0F23000E10230651010357
:104BE800F3CF17F2F4CF18F21751132718511423E3
:104BF800000E1523000E162305510203F3CF17F2FA
:104C0800F4CF18F21751132718511423000E152347
:104C1800000E162306510203F3CF17F2F4CF18F251
:104C28001751086F1851096F0A6B0B6B0AC20BF208
:104C380009C20AF208C209F2086B08511327095180
:104C480014230A5115230B5116230DC208F20EC264
:104C580009F20FC20AF210C20BF2190E39EF26F050
:104C6800D8900B330A3309330833E82E34EF26F093
:104C780008511327095114230A5115230B511623E0
:104C88000FC210F20EC20FF20DC20EF20D6B1151CF
:104C980012C208F2096B0827000E0923820E0825A4
:104CA800176FFF0E0921186F6FEF26F0D890133792
:104CB80014371537163710AF64EF26F066EF26F075
:104CC80067EF26F01381D8900D370E370F3710375E
:104CD8001707D8A0180715AF74EF26F076EF26F05F
:104CE8005AEF26F0000E116F10AF7DEF26F07FEF20
:104CF80026F0A3EF26F0FF0E0D15086FFF0E0E1518
:104D0800096FFF0E0F150A6F7F0E10150B6F0851F4
:104D180009110A110B11D8B494EF26F096EF26F07A
:104D28009AEF26F0010E116FA3EF26F013A19FEF63
:104D380026F0A1EF26F0A3EF26F096EF26F011510A
:104D4800D8B4A9EF26F0ABEF26F0CFEF26F0010E8E
:104D58001327000E14231523162316A1B6EF26F0E9
:104D6800B8EF26F0CFEF26F013C208F214C209F20A
:104D780015C20AF216C20BF20B350B330A3309338C
:104D8800083308C213F209C214F20AC215F20BC2A0
:104D980016F2174B182B18BFDAEF26F0185108E156
:104DA8001729D8A0DAEF26F0DCEF26F0E6EF26F098
:104DB800000E136F000E146F800E156F7F0E166FA6
:104DC80014EF27F018BFF3EF26F0185106E1170586
:104DD800D8B0F1EF26F0F3EF26F0FFEF26F0000E43
:104DE800136F000E146F000E156F000E166F000E75
:104DF8000C6F14EF27F017C212F2FF0E1317FF0EF5
:104E080014177F0E1517000E161712A10EEF27F0B4
:104E180010EF27F011EF27F0158FD8901231166F89
:104E28000C51161313C200F214C201F215C202F299
:104E380016C203F212000450800B0D6E04500424B5
:104E4800136E03AE2AEF27F02CEF27F02DEF27F093
:104E580013801350D8B433EF27F035EF27F048EF1D
:104E680027F01328D8A43BEF27F03DEF27F045EFB4
:104E780027F0000E016E000E026E000E036E000E8B
:104E8800046E038E50EF27F0000E016E000E026EC6
:104E9800000E036E000E046E0850800B0D1A0850A9
:104EA8000824126E07AE5BEF27F05DEF27F05EEF88
:104EB80027F012801250D8B464EF27F066EF27F07D
:104EC80079EF27F01228D8A46CEF27F06EEF27F0BF
:104ED80076EF27F0000E056E000E066E000E076EC8
:104EE800000E086E078E81EF27F0000E056E000E8B
:104EF800066E000E076E000E086E1250D8B487EFCB
:104F080027F089EF27F091EF27F01350D8A48FEFFF
:104F180027F091EF27F09BEF27F0000E016E000EAF
:104F2800026E000E036E000E046E33EF29F0075078
:104F38000102F3CF18F0F4CF19F018500E6E0F6A73
:104F4800106A116A1950146E156A166A176A0650A3
:104F58000202F3CF18F0F4CF19F018500E26000E05
:104F68000F221022112219501426000E1522162283
:104F7800172205500302F3CF18F0F4CF19F0185098
:104F88000E26000E0F221022112219501426000E90
:104F980015221622172210C011F00FC010F00EC0F3
:104FA8000FF00E6A05500202F3CF18F0F4CF19F093
:104FB80018500E2619500F22000E1022000E112232
:104FC80006500102F3CF18F0F4CF19F018500E264E
:104FD80019500F22000E1022000E112210C011F0DD
:104FE8000FC010F00EC00FF00E6A05500102F3CF8B
:104FF80018F0F4CF19F018500E2619500F22000E91
:105008001022000E112207500202F3CF18F0F4CF3D
:1050180019F01850142619501522000E1622000EE9
:10502800172206500302F3CF18F0F4CF19F01850E6
:10503800142619501522000E1622000E17220750AA
:105048000302F3CF18F0F4CF19F01850096E195075
:105058000A6E0B6A0C6A0BC00CF00AC00BF009C090
:105068000AF0096A095014260A5015220B50162214
:105078000C5017220EC009F00FC00AF010C00BF038
:1050880011C00CF0190E4EEF28F0D8900C320B32EC
:105098000A320932E82E49EF28F0095014260A503E
:1050A80015220B5016220C50172210C011F00FC0F9
:1050B80010F00EC00FF00E6A125013C009F00A6A01
:1050C8000926000E0A22820E0924186EFF0E0A20F5
:1050D800196E84EF28F0D890143615361636173620
:1050E80011AE79EF28F07BEF28F07CEF28F01480E0
:1050F800D8900E360F36103611361806D8A0190675
:1051080016AE89EF28F08BEF28F06FEF28F0000E2D
:10511800126E11AE92EF28F094EF28F0B8EF28F055
:10512800FF0E0E14096EFF0E0F140A6EFF0E1014F8
:105138000B6E7F0E11140C6E09500A100B100C1018
:10514800D8B4A9EF28F0ABEF28F0AFEF28F0010EA4
:10515800126EB8EF28F014A0B4EF28F0B6EF28F0DC
:10516800B8EF28F0ABEF28F01250D8B4BEEF28F013
:10517800C0EF28F0E4EF28F0010E1426000E1522E7
:105188001622172217A0CBEF28F0CDEF28F0E4EF76
:1051980028F014C009F015C00AF016C00BF017C0AB
:1051A8000CF00C340C320B320A32093209C014F0FC
:1051B8000AC015F00BC016F00CC017F0184A192ACF
:1051C80019BEEFEF28F0195008E11828D8A0EFEF22
:1051D80028F0F1EF28F0FBEF28F0000E146E000E17
:1051E800156E800E166E7F0E176E29EF29F019BE08
:1051F80008EF29F0195006E11804D8B006EF29F095
:1052080008EF29F014EF29F0000E146E000E156E49
:10521800000E166E000E176E000E0D6E29EF29F0A7
:1052280018C013F0FF0E1416FF0E15167F0E161673
:10523800000E171613A023EF29F025EF29F026EF0B
:1052480029F0168ED8901330176E0D50171214C00F
:1052580001F015C002F016C003F017C004F01200E8
:1052680002011151800B1E6F11511125256F10AFCE
:1052780040EF29F042EF29F043EF29F0258125512D
:10528800D8B449EF29F04BEF29F060EF29F0252930
:10529800D8A451EF29F053EF29F05BEF29F0000E65
:1052A8000E6F000E0F6F000E106F000E116F108F33
:1052B800000E116F68EF29F0000E0E6F000E0F6FD1
:1052C800000E106F000E116F1551800B1E1B15512B
:1052D8001525266F14AF73EF29F075EF29F076EFD7
:1052E80029F026812651D8B47CEF29F07EEF29F0E9
:1052F80093EF29F02629D8A484EF29F086EF29F026
:105308008EEF29F0000E126F000E136F000E146F4F
:10531800000E156F148F000E156F9BEF29F0000E0D
:10532800126F000E136F000E146F000E156F1251DE
:10533800131114111511D8A4A4EF29F0A6EF29F020
:10534800BEEF29F0000E0E6F000E0F6F000E106FEB
:10535800000E116F800E10137F0E11131E511113C2
:105368000EC20EF20FC20FF210C210F211C211F2E9
:1053780001EF2BF02551D8A4C4EF29F0C6EF29F08E
:10538800D0EF29F0000E0E6F000E0F6F000E106F99
:10539800000E116F01EF2BF0265125C216F2176B84
:1053A800165F000E175B7F0E16251F6F000E172164
:1053B800206F0EC21AF20FC21BF210C21CF211C2E9
:1053C8001DF2000E0E6F000E0F6F000E106F000E14
:1053D800116F000E216F000E226F000E236F000E5A
:1053E800246F000E266F31EF2AF02651D8B4FFEF54
:1053F80029F001EF2AF018EF2AF0D8901A371B3756
:105408001C371D37D8900E370F371037113724AF98
:1054180010EF2AF012EF2AF013EF2AF00E81D8903D
:10542800213722372337243712511A5D13511B595C
:1054380014511C5915511D59D8A025EF2AF027EFF2
:105448002AF030EF2AF0248D12511A5F13511B5B9A
:1054580014511C5B15511D5B262B190E266537EF61
:105468002AF039EF2AF0F9EF29F01A511B111C1113
:105478001D11D8B442EF2AF044EF2AF05CEF2AF06D
:1054880021815CEF2AF0D8900E370F37103711378B
:1054980024AF51EF2AF053EF2AF054EF2AF00E818F
:1054A800D89021372237233724371F07D8A0200761
:1054B80010AF61EF2AF063EF2AF047EF2AF0000EF1
:1054C800266F24AF6AEF2AF06CEF2AF090EF2AF0EB
:1054D800FF0E2115166FFF0E2215176FFF0E2315ED
:1054E800186F7F0E2415196F1651171118111911FD
:1054F800D8B481EF2AF083EF2AF087EF2AF0010E63
:10550800266F90EF2AF00EA18CEF2AF08EEF2AF08A
:1055180090EF2AF083EF2AF02651D8B496EF2AF0BC
:1055280098EF2AF0BCEF2AF0010E0E27000E0F2389
:105538001023112311A1A3EF2AF0A5EF2AF0BCEF45
:105548002AF00EC216F20FC217F210C218F211C2D8
:1055580019F21935193318331733163316C20EF2E8
:1055680017C20FF218C210F219C211F21F4B202BEA
:1055780020BFC7EF2AF0205108E11F29D8A0C7EFA4
:105588002AF0C9EF2AF0D4EF2AF0000E206F1F6925
:10559800000E0E6F000E0F6F000E106F000E116FD1
:1055A80020BFE1EF2AF0205106E11F05D8B0DFEF58
:1055B8002AF0E1EF2AF0EFEF2AF0000E206F000E3C
:1055C8001F6F000E0E6F000E0F6F000E106F000E93
:1055D800116F000E1E6F1FC225F225A1F6EF2AF0EB
:1055E800F8EF2AF0FBEF2AF0108FFCEF2AF0109F5B
:1055F800D8902531116FB2EF29F012001D50800BA1
:105608002A6E1D501D24316E1CAE0DEF2BF00FEFCE
:105618002BF010EF2BF031803150D8B416EF2BF06F
:1056280018EF2BF02DEF2BF03128D8A41EEF2BF01C
:1056380020EF2BF028EF2BF0000E1A6E000E1B6ED9
:10564800000E1C6E000E1D6E1C8E000E1D6E35EFBA
:105658002BF0000E1A6E000E1B6E000E1C6E000E54
:105668001D6E2150800B2A1A21502124326E20AE43
:1056780040EF2BF042EF2BF043EF2BF0328032500B
:10568800D8B449EF2BF04BEF2BF060EF2BF032281A
:10569800D8A451EF2BF053EF2BF05BEF2BF0000E5B
:1056A8001E6E000E1F6E000E206E000E216E208EE4
:1056B800000E216E68EF2BF0000E1E6E000E1F6E9E
:1056C800000E206E000E216E1E501F10201021109B
:1056D800D8A471EF2BF073EF2BF08BEF2BF0000EAB
:1056E8001A6E000E1B6E000E1C6E000E1D6E800ED4
:1056F8001C127F0E1D122A501D121AC01AF01BC050
:105708001BF01CC01CF01DC01DF0CEEF2CF031505A
:10571800D8A491EF2BF093EF2BF09DEF2BF0000E18
:105728001A6E000E1B6E000E1C6E000E1D6ECEEF64
:105738002CF0325031C022F0236A225E000E235A28
:105748007F0E22242B6E000E23202C6E1AC026F00A
:105758001BC027F01CC028F01DC029F0000E1A6ECF
:10576800000E1B6E000E1C6E000E1D6E000E2D6EC0
:10577800000E2E6E000E2F6E000E306E000E326E72
:10578800FEEF2BF03250D8B4CCEF2BF0CEEF2BF04D
:10579800E5EF2BF0D8902636273628362936D890CC
:1057A8001A361B361C361D3630AEDDEF2BF0DFEF18
:1057B8002BF0E0EF2BF01A80D8902D362E362F36AE
:1057C80030361E50265C1F5027582050285821502C
:1057D8002958D8A0F2EF2BF0F4EF2BF0FDEF2BF0C7
:1057E800308C1E50265E1F50275A2050285A2150B0
:1057F800295A322A190E326404EF2CF006EF2CF0E5
:10580800C6EF2BF02650271028102910D8B40FEF18
:105818002CF011EF2CF029EF2CF02D8029EF2CF033
:10582800D8901A361B361C361D3630AE1EEF2CF0BB
:1058380020EF2CF021EF2CF01A80D8902D362E3640
:105848002F3630362B06D8A02C061CAE2EEF2CF0A7
:1058580030EF2CF014EF2CF0000E326E30AE37EF34
:105868002CF039EF2CF05DEF2CF0FF0E2D14226E8A
:10587800FF0E2E14236EFF0E2F14246E7F0E30148D
:10588800256E2250231024102510D8B44EEF2CF08A
:1058980050EF2CF054EF2CF0010E326E5DEF2CF02F
:1058A8001AA059EF2CF05BEF2CF05DEF2CF050EFC5
:1058B8002CF03250D8B463EF2CF065EF2CF089EF60
:1058C8002CF0010E1A26000E1B221C221D221DA0E0
:1058D80070EF2CF072EF2CF089EF2CF01AC022F048
:1058E8001BC023F01CC024F01DC025F02534253230
:1058F80024322332223222C01AF023C01BF024C0E3
:105908001CF025C01DF02B4A2C2A2CBE94EF2CF03D
:105918002C5008E12B28D8A094EF2CF096EF2CF00F
:10592800A1EF2CF0000E2C6E2B68000E1A6E000EE4
:105938001B6E000E1C6E000E1D6E2CBEAEEF2CF002
:105948002C5006E12B04D8B0ACEF2CF0AEEF2CF0C5
:10595800BCEF2CF0000E2C6E000E2B6E000E1A6E93
:10596800000E1B6E000E1C6E000E1D6E000E2A6EC1
:105978002BC031F031A0C3EF2CF0C5EF2CF0C8EFED
:105988002CF01C8EC9EF2CF01C9ED89031301D6E67
:105998007FEF2BF0120071EC46F0FEEC47F0F2ECD2
:1059A80040F0000E0201A46F000EA36FE90E916F84
:1059B800FF0E926F14EC46F08DA2E5EF2CF0E7EFA6
:1059C8002CF0EEEF2CF0000E02019E6F000E9D6F82
:1059D800FAEF2CF0000E02010D6F010E0C6F1FEC98
:1059E80041F002019B6F9B519D6F9E6B9DC2A1F27E
:1059F8008DA401EF2DF003EF2DF009EF2DF0000E2F
:105A0800A06F000E9F6F14EF2DF0000E0D6F020EA9
:105A18000C6F1FEC41F002019B6F9B519F6FA06BB5
:105A28009FC2A2F2E251D8B41CEF2DF01EEF2DF068
:105A38004AEF2DF0000E196F000E1A6F000E1B6F43
:105A4800400E1C6FD1C21DF2D2C21EF2D3C21FF289
:105A5800D4C220F2A1EC37F00201D8B036EF2DF015
:105A680038EF2DF04AEF2DF0A4BF46EF2DF0A451EA
:105A780007E1050EA35DD8B044EF2DF046EF2DF0F9
:105A88004AEF2DF0A34BA42B81EF2DF0E251D8B4AF
:105A980050EF2DF052EF2DF07CEF2DF0000E196F26
:105AA800000E1A6F000E1B6F400E1C6FD1C21DF244
:105AB800D2C21EF2D3C21FF2D4C220F2A1EC37F038
:105AC8000201D8B06AEF2DF06CEF2DF07CEF2DF0CD
:105AD800A4BF78EF2DF0A45109E1050EA35DD8A06D
