:04000000C1EF00F05C
:100008004E82FACF1BF0FBCF1CF0D9CF1DF0DACF10
:100018001EF0F3CF1FF0F4CF20F0F6CF21F0F7CF8A
:1000280022F0F8CF23F0F5CF24F0F2AC1EEF00F069
:1000380020EF00F0ABEF00F00E01C6A326EF00F0B2
:1000480028EF00F033EF00F0CEA32DEF00F02FEFF4
:1000580000F033EF00F0C4EC41F0ABEF00F0C6A7BE
:1000680038EF00F03AEF00F045EF00F0CEA73FEF91
:1000780000F041EF00F045EF00F0ABEC41F0ABEFE2
:1000880000F0C5A34AEF00F04CEF00F061EF00F07C
:10009800CDA351EF00F053EF00F061EF00F002D86C
:1000A8005FEF00F00500FA6E4250FD6E4350FE6EA1
:1000B800FF6AFA501200ABEF00F0C5A166EF00F03E
:1000C80068EF00F071EF00F0CDA16DEF00F06FEF79
:1000D80000F071EF00F053EF00F0C5A976EF00F0E3
:1000E80078EF00F08EEF00F0CDA97DEF00F07FEF04
:1000F80000F08EEF00F002D88CEF00F00500FA6EE9
:100108000101FA51FD6EFB51FE6EFF6AFA501200B2
:10011800ABEF00F0C5AB93EF00F095EF00F0ABEF5D
:1001280000F0CDAB9AEF00F09CEF00F0ABEF00F0E1
:1001380002D8A9EF00F00500FA6E0201A051FD6E89
:10014800A151FE6EFF6AFA501200ABEF00F024C016
:10015800F5FF23C0F8FF22C0F7FF21C0F6FF20C03B
:10016800F4FF1FC0F3FF1EC0DAFF1DC0D9FF1CC07B
:0E017800FBFF1BC0FAFF4E9211000DEF42F08C
:100F0000000A88D487C4879C732477FE87087CA84E
:100F100088A08898889088888880887888F287C692
:100F20007E00000000DCCFD1350000000000C015BD
:100F30003F6042A20D70A5EC363BAAB83F4F387611
:100F40003F3CAA38338CBEBF350072313F18723136
:100F50003F4CBB31330EEADDB555B38A38610B36F1
:100F6000BBABAA2A3E42F1533E55326C3E05A38BE1
:100F70003EABAAAA3EB76DDB3E9A99193F6042A2EA
:100F80000DCAF249710000804B0000803F0000C094
:100F90003F00AAB83FC623F6B80040763F252E335F
:100FA0006600696E66006E616E000A0D00256300C2
:010FB0000040
:100FB200DFC0B8F1E0C0B9F1E1C0BAF1E2C0BBF103
:100FC200B8C160F1B9C161F1BAC162F1BBC163F1EB
:100FD200E3C0B8F1E4C0B9F1E5C0BAF1E6C0BBF1D3
:100FE200B8C17CF1B9C17DF1BAC17EF1BBC17FF15B
:100FF200FF0E01016015A86FFF0E6115A96FFF0EAC
:101002006215AA6F7F0E6315AB6FFF0E7C15906F92
:10101200FF0E7D15916FFF0E7E15926F7F0E7F156D
:10102200936F9051911192119311D8A41BEF08F074
:101032001DEF08F028EF08F0000E0001DF6F000E30
:10104200E06F800EE16F3F0EE26F26EF1DF0800E23
:10105200621909E13F0E631960116111D8A434EFDE
:1010620008F036EF08F041EF08F0000E0001DF6FE4
:10107200000EE06F800EE16F3F0EE26F26EF1DF073
:10108200ABBF52EF08F0A805000EA959800EAA596D
:101092007F0EAB59D8B050EF08F052EF08F063EF73
:1010A20008F093BF61EF08F09005000E9159800E91
:1010B20092597F0E9359D8A061EF08F063EF08F0C0
:1010C2007FEF08F0DFC075F0E0C076F0E1C077F0A6
:1010D200E2C078F0E3C079F0E4C07AF0E5C07BF0DA
:1010E200E6C07CF07BEC22F075C0DFF076C0E0F069
:1010F20077C0E1F078C0E2F026EF1DF0000E506FED
:10110200000E516F000E526F000E536F63BF8EEFD1
:1011120008F08CEF08F05AEF09F093BF9AEF08F04D
:10112200800E925D4B0E9359D8A09AEF08F09CEF77
:1011320008F0A6EF08F0020E506F000E516F000E7D
:10114200526F000E536F5AEF09F093BFB2EF08F0DF
:10115200800E925D3F0E9359D8A0B2EF08F0B4EF23
:1011620008F05AEF09F0170E0001E76F90C1E8F09E
:1011720091C1E9F092C1EAF093C1EBF0E767C4EFE5
:1011820008F0CCEF08F0EB35EB33EA33E933E83320
:10119200E72FBFEF08F0810E0001E8250101A06FE3
:1011A200FF0E0001E9210101A16FFF0E0001EA21FA
:1011B2000101A26FFF0E0001EB210101A36FA051FB
:1011C20017080001E76F90C1E8F091C1E9F092C100
:1011D200EAF093C1EBF0E767F1EF08F0F9EF08F0FE
:1011E200EB35EB33EA33E933E833E72FECEF08F082
:1011F200E8C0ACF1E9C0ADF1EAC0AEF1EBC0AFF1CD
:101202000101A05117080001E76FACC1E8F0ADC1C0
:10121200E9F0AEC1EAF0AFC1EBF0E72B16EF09F04F
:10122200D890E837E937EA37EB37E72F11EF09F0C3
:10123200010190510001E81913E1010191510001EE
:10124200E9190EE1010192510001EA1909E10101D6
:1012520093510001EB19D8A431EF09F033EF09F0F3
:101262005AEF09F0010E0101AC150001E76F000E03
:101272000101AD150001E86F000E0101AE1500017C
:10128200E96F000E0101AF150001EA6FE751020894
:101292000101506F000E0001E8550101516F000E6F
:1012A2000001E9550101526F000E0001EA550101EA
:1012B200536F800E0101921909E17F0E931990116B
:1012C2009111D8A467EF09F069EF09F0D5EF09F0A1
:1012D200800EAA1909E13F0EAB19A811A911D8A4D1
:1012E20075EF09F077EF09F082EF09F0000E0001C7
:1012F200DF6F000EE06F800EE16F3F0EE26F26EFB0
:101302001DF0ABBF91EF09F0A805000EA959800EA0
:10131200AA593F0EAB59D8A091EF09F093EF09F00B
:10132200AFEF09F07FBF9AEF09F098EF09F0A5EF50
:1013320009F0000E0001DF6F000EE06F000EE16F9A
:10134200000EE26F26EF1DF0E3C0DFF0E4C0E0F034
:10135200E5C0E1F0E6C0E2F026EF1DF07FBFB6EF98
:1013620009F0B4EF09F0CAEF09F0E3C060F0E4C09D
:1013720061F0E5C062F0E6C063F073EC41F060C07A
:10138200DFF061C0E0F062C0E1F063C0E2F026EF9E
:101392001DF0000E0001DF6F000EE06F000EE16F26
:1013A200000EE26F26EF1DF0800E921909E13F0E4A
:1013B200931990119111D8A4E1EF09F0E3EF09F02C
:1013C20011EF0AF07FBFEAEF09F0E8EF09F007EF4B
:1013D2000AF0000E0001A66F000EA76F800EA86F24
:1013E2003F0EA96FDFC0AAF0E0C0ABF0E1C0ACF0E5
:1013F200E2C0ADF0C5EC2DF0A6C0DFF0A7C0E0F072
:10140200A8C0E1F0A9C0E2F026EF1DF0DFC0DFF0D6
:10141200E0C0E0F0E1C0E1F0E2C0E2F026EF1DF052
:10142200400E7F197C117D117E11D8A41BEF0AF0AA
:101432001DEF0AF039EF0AF0DFC085F0E0C086F058
:10144200E1C087F0E2C088F0DFC089F0E0C08AF036
:10145200E1C08BF0E2C08CF09AEC29F085C0DFF09D
:1014620086C0E0F087C0E1F088C0E2F026EF1DF010
:101472003F0E7F197C117D117E11D8A443EF0AF033
:1014820045EF0AF060EF0AF063BF4AEF0AF04CEF53
:101492000AF060EF0AF0DFC0B2F0E0C0B3F0E1C0E2
:1014A200B4F0E2C0B5F03CEC27F0B2C0DFF0B3C05C
:1014B200E0F0B4C0E1F0B5C0E2F026EF1DF0DFC00D
:1014C20060F0E0C061F0E1C062F0E2C063F090EC75
:1014D20041F060C070F161C071F162C072F163C02D
:1014E20073F1800E0101AA190BE17F0EAB19A8114D
:1014F200A911D8B47FEF0AF081EF0AF09AEF0AF04F
:10150200A851A911AA11AB11D8B48AEF0AF08CEF35
:101512000AF09AEF0AF0800EAA1909E13F0EAB1900
:10152200A811A911D8A498EF0AF09AEF0AF06AEF6D
:101532000BF070C1B4F171C1B5F172C1B6F173C1F2
:10154200B7F17FBFA9EF0AF0A7EF0AF0C4EF0AF0E4
:10155200000E0001A66F000EA76F800EA86F3F0E4F
:10156200A96FB4C1AAF0B5C1ABF0B6C1ACF0B7C1B6
:10157200ADF0C5EC2DF0A6C0B4F1A7C0B5F1A8C07E
:10158200B6F1A9C0B7F1010163BFCCEF0AF0CAEF0F
:101592000AF060EF0BF0000EA8250001E76F000EC5
:1015A2000101A9210001E86F800E0101AA210001B9
:1015B200E96FC00E0101AB210001EA6F0101505138
:1015C2000001E711EB6F010151510001E811EC6FCD
:1015D200010152510001E911ED6F01015351000166
:1015E200EA11EE6FEB51EC11ED11EE11D8A4FCEF04
:1015F2000AF0FEEF0AF042EF0BF0000E3B6E210EF6
:101602003A6EB4C1A2F0B5C1A3F0B6C1A4F0B7C19D
:10161200A5F0B4C19EF0B5C19FF0B6C1A0F0B7C1AC
:10162200A1F089EC40F09EC0A6F09FC0A7F0A0C038
:10163200A8F0A1C0A9F0B4C1A2F0B5C1A3F0B6C18F
:10164200A4F0B7C1A5F0B4C19EF0B5C19FF0B6C178
:10165200A0F0B7C1A1F089EC40F09EC0AAF09FC0F3
:10166200ABF0A0C0ACF0A1C0ADF0C5EC2DF0A6C0AF
:10167200B4F1A7C0B5F1A8C0B6F1A9C0B7F160EF47
:101682000BF001015005511152115311D8A44CEF26
:101692000BF04EEF0BF060EF0BF0B4C160F0B5C190
:1016A20061F0B6C162F0B7C163F073EC41F060C0A3
:1016B200B4F161C0B5F162C0B6F163C0B7F1B4C1B3
:1016C200DFF0B5C1E0F0B6C1E1F0B7C1E2F026EF5C
:1016D2001DF0000E886F000E896F800E8A6F3F0E1C
:1016E2008B6F63BF79EF0BF077EF0BF0DBEF0BF053
:1016F2005051511152115311D8A482EF0BF084EFC3
:101702000BF0C8EF0BF0000E3B6E210E3A6EDFC0FD
:10171200A2F0E0C0A3F0E1C0A4F0E2C0A5F0DFC0F7
:101722009EF0E0C09FF0E1C0A0F0E2C0A1F089EC21
:1017320040F09EC0A6F09FC0A7F0A0C0A8F0A1C034
:10174200A9F0DFC0A2F0E0C0A3F0E1C0A4F0E2C0C3
:10175200A5F0DFC09EF0E0C09FF0E1C0A0F0E2C0C3
:10176200A1F089EC40F09EC0AAF09FC0ABF0A0C0EF
:10177200ACF0A1C0ADF0C5EC2DF0A6C0DFF0A7C063
:10178200E0F0A8C0E1F0A9C0E2F026EF1DF050059C
:10179200511152115311D8A4D1EF0BF0D3EF0BF02A
:1017A200DBEF0BF0000E886F000E896F800E8A6FE0
:1017B200BF0E8B6F93BFEAEF0BF09005000E9159AD
:1017C200000E92594D0E9359D8A0EAEF0BF0ECEFB0
:1017D2000BF080EF0EF0ABBFFEEF0BF0F80EA85D42
:1017E200FF0EA9597F0EAA593F0EAB59D8B0FCEF94
:1017F2000BF0FEEF0BF075EF0CF07FBF03EF0CF078
:1018020005EF0CF03DEF0CF0600E0001896F420E07
:101812008A6FA20E8B6F0D0E8C6F88C185F089C105
:1018220086F08AC187F08BC188F09AEC29F085C0D6
:10183200A4F186C0A5F187C0A6F188C0A7F1A4C112
:1018420085F0A5C186F0A6C187F0A7C188F0600E19
:101852000001896F420E8A6FA20E8B6F0D0E8C6F84
:101862009AEC29F085C0DFF086C0E0F087C0E1F095
:1018720088C0E2F026EF1DF0CA0E0001896FF20E59
:101882008A6F490E8B6F710E8C6F88C185F089C18A
:1018920086F08AC187F08BC188F09AEC29F085C066
:1018A200A4F186C0A5F187C0A6F188C0A7F1A4C1A2
:1018B20085F0A5C186F0A6C187F0A7C188F0CA0E3F
:1018C2000001896FF20E8A6F490E8B6F710E8C6F59
:1018D2009AEC29F085C0DFF086C0E0F087C0E1F025
:1018E20088C0E2F026EF1DF0ABBF85EF0CF0080ECA
:1018F200A85D000EA959800EAA593F0EAB59D8A077
:1019020085EF0CF087EF0CF006EF0DF07FBF96EF3E
:101912000CF07F517E117D1106E17C05D8B094EF69
:101922000CF096EF0CF0CEEF0CF0600E0001896F18
:10193200420E8A6FA20E8B6F0D0E8C6F88C185F0DE
:1019420089C186F08AC187F08BC188F09AEC29F0B0
:1019520085C0A4F186C0A5F187C0A6F188C0A7F111
:10196200A4C185F0A5C186F0A6C187F0A7C188F001
:10197200600E0001896F420E8A6FA20E8B6F0D0EF0
:101982008C6F9AEC29F085C0DFF086C0E0F087C04A
:10199200E1F088C0E2F026EF1DF0CA0E0001896F67
:1019A200F20E8A6F490E8B6F710E8C6F88C185F0B3
:1019B20089C186F08AC187F08BC188F09AEC29F040
:1019C20085C0A4F186C0A5F187C0A6F188C0A7F1A1
:1019D200A4C185F0A5C186F0A6C187F0A7C188F091
:1019E200CA0E0001896FF20E8A6F490E8B6F710E5B
:1019F2008C6F9AEC29F085C0DFF086C0E0F087C0DA
:101A0200E1F088C0E2F026EF1DF070C175F071C1FF
:101A120076F072C177F073C178F0000E0001796F31
:101A2200000E7A6F800E7B6FBF0E7C6F7BEC22F014
:101A320075C0B0F176C0B1F177C0B2F178C0B3F140
:101A4200000E0001896F000E8A6F800E8B6F3E0EB2
:101A52008C6FB0C185F0B1C186F0B2C187F0B3C15D
:101A620088F09AEC29F085C0A2F086C0A3F087C066
:101A7200A4F088C0A5F0AB0E00019E6FAA0E9F6F66
:101A8200AA0EA06F3E0EA16F89EC40F09EC0A4F199
:101A92009FC0A5F1A0C0A6F1A1C0A7F1B0C189F075
:101AA200B1C18AF0B2C18BF0B3C18CF0B0C185F084
:101AB200B1C186F0B2C187F0B3C188F09AEC29F0C7
:101AC20085C054F186C055F187C056F188C057F1E0
:101AD200B0C189F0B1C18AF0B2C18BF0B3C18CF050
:101AE200A4C185F0A5C186F0A6C187F0A7C188F080
:101AF2009AEC29F085C0A2F086C0A3F087C0A4F0BA
:101B020088C0A5F0000E00019E6F000E9F6F000EB0
:101B1200A06F3F0EA16F89EC40F09EC048F19FC0BC
:101B220049F1A0C04AF1A1C04BF154C185F055C1A1
:101B320086F056C187F057C188F048C189F049C183
:101B42008AF04AC18BF04BC18CF09AEC29F085C027
:101B520044F186C045F187C046F188C047F1B0C163
:101B620085F0B1C186F0B2C187F0B3C188F0000E32
:101B72000001896FAA0E8A6FB80E8B6F3F0E8C6FB1
:101B82009AEC29F085C074F186C075F187C076F1B0
:101B920088C077F1700E0001896FA50E8A6FEC0E76
:101BA2008B6F360E8C6FB0C185F0B1C186F0B2C1B9
:101BB20087F0B3C188F09AEC29F085C09EF086C008
:101BC2009FF087C0A0F088C0A1F03B0E0001896F92
:101BD200AA0E8A6FB80E8B6F3F0E8C6F44C185F0D0
:101BE20045C186F046C187F047C188F09AEC29F0DA
:101BF20085C0A2F086C0A3F087C0A4F088C0A5F07B
:101C020089EC40F09EC078F19FC079F1A0C07AF1D2
:101C1200A1C07BF174C175F075C176F076C177F021
:101C220077C178F078C179F079C17AF07AC17BF026
:101C32007BC17CF07BEC22F075C084F176C085F12B
:101C420077C086F178C087F184C1B8F185C1B9F156
:101C520086C1BAF187C1BBF1B8C194F1B9C195F19E
:101C6200BAC196F1BBC197F1000E01019415B86F8C
:101C7200F00E9515B96FFF0E9615BA6FFF0E9715F8
:101C8200BB6FB8C184F1B9C185F1BAC186F1BBC1DC
:101C920087F174C1A2F075C1A3F076C1A4F077C137
:101CA200A5F084C19EF085C19FF086C1A0F087C1D6
:101CB200A1F089EC40F09EC098F19FC099F1A0C0BC
:101CC2009AF1A1C09BF178C19EF079C19FF07AC1CF
:101CD200A0F07BC1A1F098C1A2F099C1A3F09AC172
:101CE200A4F09BC1A5F089EC40F09EC01CF19FC0FE
:101CF2001DF1A0C01EF1A1C01FF10BEF16F0000EE6
:101D0200806F000E816F000E826F000E836FABBF7B
:101D120096EF0EF0AB5107E1800EAA5DD8B094EFBA
:101D22000EF096EF0EF0CAEF0EF070C185F071C1A1
:101D320086F072C187F073C188F0000E0001896FCE
:101D4200000E8A6F800E8B6F4B0E8C6F9AEC29F00F
:101D520085C070F186C071F187C072F188C073F1DD
:101D6200E80E01018027FF0E8123FF0E8223FF0E62
:101D7200832370C1B8F171C1B9F172C1BAF173C1F3
:101D8200BBF1B8C1A8F1B9C1A9F1BAC1AAF1BBC1ED
:101D9200ABF1170E0001E76FA8C1E8F0A9C1E9F0A5
:101DA200AAC1EAF0ABC1EBF0E767DAEF0EF0E2EFBF
:101DB2000EF0EB35EB33EA33E933E833E72FD5EFB7
:101DC2000EF0810E0001E825EC6FFF0EE921ED6FA8
:101DD200FF0EEA21EE6FFF0EEB21EF6FEC510101D6
:101DE20080270001ED51010181230001EE51010123
:101DF20082230001EF5101018323FF0EA815AC6F6E
:101E0200FF0EA915AD6F7F0EAA15AE6F000EAB15B2
:101E1200AF6F000EAC11A86F000EAD11A96F800E4E
:101E2200AE11AA6F3F0EAF11AB6FAFBF28EF0FF02D
:101E3200AF510BE1720EAC5DC40EAD591C0EAE5922
:101E4200D8B026EF0FF028EF0FF032EF0FF0000EB0
:101E5200A06F000EA16F000EA26F000EA36F64EFC1
:101E62000FF0AFBF44EF0FF0AF510BE1D70EAC5DF7
:101E7200B30EAD595D0EAE59D8B042EF0FF044EF3C
:101E82000FF04EEF0FF0010EA06F000EA16F000ECB
:101E9200A26F000EA36F64EF0FF0000EA06F000E92
:101EA200A16F000EA26F000EA36F010E8027000E1D
:101EB200812382238323000EA827000EA923800EEC
:101EC200AA23FF0EAB23A8C1B8F1A9C1B9F1AAC1D7
:101ED200BAF1ABC1BBF1B8C170F1B9C171F1BAC10C
:101EE20072F1BBC173F170C19EF071C19FF072C1FA
:101EF200A0F073C1A1F0A0C1E7F0A1C1E8F0000118
:101F0200D890E737E837D890E737E837890EE725E2
:101F1200F66E0F0EE821F76EF86A000EF82209003D
:101F2200F5CFA2F00900F5CFA3F00900F5CFA4F098
:101F32000A00F5CFA5F089EC40F09EC074F19FC075
:101F420075F1A0C076F1A1C077F1000E0001A66F75
:101F5200000EA76F800EA86F3F0EA96F70C179F0B7
:101F620071C17AF072C17BF073C17CF0A0C1E7F05D
:101F7200A1C1E8F0D890E737E837D890E737E837DB
:101F8200890EE725F66E0F0EE821F76EF86A000E4D
:101F9200F8220900F5CF75F00900F5CF76F00900B7
:101FA200F5CF77F00A00F5CF78F07BEC22F075C020
:101FB200AAF076C0ABF077C0ACF078C0ADF0C5EC5B
:101FC2002DF0A6C078F1A7C079F1A8C07AF1A9C016
:101FD2007BF174C185F075C186F076C187F077C157
:101FE20088F078C189F079C18AF07AC18BF07BC11F
:101FF2008CF09AEC29F085C05CF186C05DF187C057
:102002005EF188C05FF15CC16CF15DC16DF15EC1D2
:102012006EF15FC16FF16CC1B8F16DC1B9F16EC102
:10202200BAF16FC1BBF1B8C194F1B9C195F1BAC1AE
:1020320096F1BBC197F1000E01019415B86FF00E35
:102042009515B96FFF0E9615BA6FFF0E9715BB6FF8
:10205200B8C16CF1B9C16DF1BAC16EF1BBC16FF11A
:10206200A8C1E7F0A9C1E8F0AAC1E9F0ABC1EAF062
:102072000001EA35EA33E933E833E733000EE715C6
:10208200EB6FF00EE815EC6FFF0EE915ED6FFF0E2A
:10209200EA15EE6F000EEB110101946F000E0001C4
:1020A200EC110101956F000E0001ED110101966F17
:1020B200200E0001EE110101976FA0C1E7F0A1C14E
:1020C200E8F0A2C1E9F0A3C1EAF0150ED890000130
:1020D200E737E837E937EA37E82E67EF10F0010112
:1020E20094510001E725EB6F010195510001E821B0
:1020F200EC6F010196510001E921ED6F0101975149
:102102000001EA21EE6F000EEB250101B86F000E0F
:102112000001EC210101B96F400E0001ED21010126
:10212200BA6F000E0001EE210101BB6FB8C168F168
:10213200B9C169F1BAC16AF1BBC16BF1A0C1E7F0E3
:10214200A1C1E8F00001D890E737E837D890E73727
:10215200E837890EE725F66E0F0EE821F76EF86A6A
:10216200000EF8220900F5CFA2F00900F5CFA3F086
:102172000900F5CFA4F00A00F5CFA5F068C19EF0E2
:1021820069C19FF06AC1A0F06BC1A1F089EC40F077
:102192009EC098F19FC099F1A0C09AF1A1C09BF195
:1021A20070C19EF071C19FF072C1A0F073C1A1F025
:1021B20098C1A2F099C1A3F09AC1A4F09BC1A5F065
:1021C20089EC40F09EC034F19FC035F1A0C036F1D9
:1021D200A1C037F168C189F069C18AF06AC18BF088
:1021E2006BC18CF06CC185F06DC186F06EC187F059
:1021F2006FC188F09AEC29F085C0A2F086C0A3F0E6
:1022020087C0A4F088C0A5F074C19EF075C19FF08C
:1022120076C1A0F077C1A1F089EC40F09EC098F1A0
:102222009FC099F1A0C09AF1A1C09BF134C189F07D
:1022320035C18AF036C18BF037C18CF06CC185F0A4
:102242006DC186F06EC187F06FC188F09AEC29F0FB
:1022520085C0A2F086C0A3F087C0A4F088C0A5F014
:1022620098C19EF099C19FF09AC1A0F09BC1A1F0C4
:1022720089EC40F09EC054F19FC055F1A0C056F1C8
:10228200A1C057F154C185F055C186F056C187F0FF
:1022920057C188F078C189F079C18AF07AC18BF090
:1022A2007BC18CF09AEC29F085C030F186C031F107
:1022B20087C032F188C033F15CC185F05DC186F020
:1022C2005EC187F05FC188F05CC189F05DC18AF0B0
:1022D2005EC18BF05FC18CF09AEC29F085C08CF165
:1022E20086C08DF187C08EF188C08FF1550E000136
:1022F200796F320E7A6F6C0E7B6F3E0E7C6F420EE0
:10230200896FF10E8A6F530E8B6F3E0E8C6F8CC1EC
:1023120085F08DC186F08EC187F08FC188F09AEC6E
:1023220029F085C075F086C076F087C077F088C046
:1023320078F07BEC22F075C0A4F176C0A5F177C0ED
:10234200A6F178C0A7F1050E0001796FA30E7A6F8E
:102352008B0E7B6F3E0E7C6F8CC189F08DC18AF033
:102362008EC18BF08FC18CF0A4C185F0A5C186F01F
:10237200A6C187F0A7C188F09AEC29F085C075F054
:1023820086C076F087C077F088C078F07BEC22F0C8
:1023920075C054F176C055F177C056F178C057F147
:1023A200AB0E0001796FAA0E7A6FAA0E7B6F3E0EFA
:1023B2007C6F8CC189F08DC18AF08EC18BF08FC188
:1023C2008CF054C185F055C186F056C187F057C1D3
:1023D20088F09AEC29F085C075F086C076F087C047
:1023E20077F088C078F07BEC22F075C048F176C0B7
:1023F20049F177C04AF178C04BF1B70E0001796F0D
:102402006D0E7A6FDB0E7B6F3E0E7C6F8CC189F096
:102412008DC18AF08EC18BF08FC18CF048C185F0DE
:1024220049C186F04AC187F04BC188F09AEC29F085
:1024320085C075F086C076F087C077F088C078F0E6
:102442007BEC22F075C038F176C039F177C03AF1F1
:1024520078C03BF19A0E0001796F990E7A6F190ECE
:102462007B6F3F0E7C6F8CC189F08DC18AF08EC16B
:102472008BF08FC18CF038C185F039C186F03AC13A
:1024820087F03BC188F09AEC29F085C075F086C0D0
:1024920076F087C077F088C078F07BEC22F075C0C8
:1024A20000F176C001F177C002F178C003F18CC16E
:1024B20089F08DC18AF08EC18BF08FC18CF08CC1F6
:1024C20085F08DC186F08EC187F08FC188F09AECBD
:1024D20029F085C004F186C005F187C006F188C0E5
:1024E20007F100C185F001C186F002C187F003C186
:1024F20088F004C189F005C18AF006C18BF007C1DA
:102502008CF09AEC29F085C04CF186C04DF187C061
:102512004EF188C04FF130C189F031C18AF032C129
:102522008BF033C18CF05CC179F05DC17AF05EC191
:102532007BF05FC17CF06CC175F06DC176F06EC14D
:1025420077F06FC178F07BEC22F075C085F076C031
:1025520086F077C087F078C088F09AEC29F085C0C1
:1025620058F186C059F187C05AF188C05BF14CC15D
:1025720075F04DC176F04EC177F04FC178F058C179
:1025820079F059C17AF05AC17BF05BC17CF07BECE7
:1025920022F075C04CF176C04DF177C04EF178C093
:1025A2004FF16CC185F06DC186F06EC187F06FC1CD
:1025B20088F06CC189F06DC18AF06EC18BF06FC179
:1025C2008CF09AEC29F085C08CF186C08DF187C021
:1025D2008EF188C08FF1000E0001796F000E7A6FC4
:1025E200400E7B6F400E7C6F8CC175F08DC176F012
:1025F2008EC177F08FC178F07BEC22F075C058F174
:1026020076C059F177C05AF178C05BF158C175F0C4
:1026120059C176F05AC177F05BC178F04CC179F0BC
:102622004DC17AF04EC17BF04FC17CF07BEC22F0C1
:1026320075C068F176C069F177C06AF178C06BF154
:1026420068C1B8F169C1B9F16AC1BAF16BC1BBF134
:10265200B8C194F1B9C195F1BAC196F1BBC197F174
:10266200000E01019415B86FF00E9515B96FFF0EAB
:102672009615BA6FFF0E9715BB6FB8C168F1B9C155
:1026820069F1BAC16AF1BBC16BF1000E0001796F49
:10269200000E7A6F400E7B6FC00E7C6F68C175F0C2
:1026A20069C176F06AC177F06BC178F07BEC22F0F9
:1026B20075C03CF176C03DF177C03EF178C03FF184
:1026C2008CC1A2F08DC1A3F08EC1A4F08FC1A5F080
:1026D2003CC19EF03DC19FF03EC1A0F03FC1A1F0C0
:1026E20089EC40F09EC040F19FC041F1A0C042F190
:1026F200A1C043F14CC19EF04DC19FF04EC1A0F06C
:102702004FC1A1F040C1A2F041C1A3F042C1A4F067
:1027120043C1A5F089EC40F09EC034F19FC035F171
:10272200A0C036F1A1C037F16CC185F06DC186F051
:102732006EC187F06FC188F068C189F069C18AF003
:102742006AC18BF06BC18CF09AEC29F085C074F1F0
:1027520086C075F187C076F188C077F168C189F0CB
:1027620069C18AF06AC18BF06BC18CF030C185F00F
:1027720031C186F032C187F033C188F09AEC29F07A
:1027820085C075F086C076F087C077F088C078F093
:102792005CC189F05DC18AF05EC18BF05FC18CF0D3
:1027A20034C185F035C186F036C187F037C188F073
:1027B2009AEC29F085C079F086C07AF087C07BF068
:1027C20088C07CF07BEC22F075C078F176C079F19C
:1027D20077C07AF178C07BF174C175F075C176F07B
:1027E20076C177F077C178F078C179F079C17AF063
:1027F2007AC17BF07BC17CF07BEC22F075C09CF14E
:1028020076C09DF177C09EF178C09FF19CC1B8F16E
:102812009DC1B9F19EC1BAF19FC1BBF1B8C194F19A
:10282200B9C195F1BAC196F1BBC197F1000E010190
:102832009415B86FF00E9515B96FFF0E9615BA6F15
:10284200FF0E9715BB6FB8C19CF1B9C19DF1BAC11A
:102852009EF1BBC19FF174C1A2F075C1A3F076C114
:10286200A4F077C1A5F09CC19EF09DC19FF09EC1CE
:10287200A0F09FC1A1F089EC40F09EC098F19FC0EA
:1028820099F1A0C09AF1A1C09BF178C19EF079C1E3
:102892009FF07AC1A0F07BC1A1F098C1A2F099C1CA
:1028A200A3F09AC1A4F09BC1A5F089EC40F09EC0B0
:1028B20064F19FC065F1A0C066F1A1C067F19CC13F
:1028C20085F09DC186F09EC187F09FC188F0000E01
:1028D2000001896F400E8A6F760E8B6F3F0E8C6FF0
:1028E2009AEC29F085C020F186C021F187C022F13F
:1028F20088C023F14F0E0001896F380E8A6F760E61
:102902008B6F3F0E8C6F64C185F065C186F066C126
:1029120087F067C188F09AEC29F085C079F086C00B
:102922007AF087C07BF088C07CF0C60E0001896F08
:10293200230E8A6FF60E8B6FB80E8C6F9CC185F0DA
:102942009DC186F09EC187F09FC188F09AEC29F064
:1029520085C075F086C076F087C077F088C078F0C1
:102962007BEC22F075C058F176C059F177C05AF16C
:1029720078C05BF158C175F059C176F05AC177F051
:102982005BC178F0A0C1E7F0A1C1E8F00001D890E6
:10299200E737E837D890E737E837210EE725F66EB4
:1029A2000F0EE821F76EF86A000EF8220900F5CF43
:1029B20079F00900F5CF7AF00900F5CF7BF00A0033
:1029C200F5CF7CF07BEC22F075C024F176C025F1C6
:1029D20077C026F178C027F180C167F081C168F025
:1029E20082C169F083C16AF0010E8AEC33F067C0DC
:1029F200B0F168C0B1F169C0B2F16AC0B3F124C1EB
:102A020079F025C17AF026C17BF027C17CF020C184
:102A120075F021C176F022C177F023C178F07BEC0A
:102A220022F075C058F176C059F177C05AF178C0DA
:102A32005BF1A0C1E7F0A1C1E8F00001D890E7374F
:102A4200E837D890E737E837290EE725F66E0F0EFC
:102A5200E821F76EF86A000EF8220900F5CF79F046
:102A62000900F5CF7AF00900F5CF7BF00A00F5CF27
:102A72007CF058C175F059C176F05AC177F05BC14C
:102A820078F07BEC22F075C008F176C009F177C0CE
:102A92000AF178C00BF108C175F009C176F00AC1DC
:102AA20077F00BC178F0B0C179F0B1C17AF0B2C160
:102AB2007BF0B3C17CF07BEC22F075C084F176C070
:102AC20085F177C086F178C087F184C1B8F185C1FC
:102AD200B9F186C1BAF187C1BBF1B8C194F1B9C1EC
:102AE20095F1BAC196F1BBC197F1000E010194159F
:102AF200B86FF00E9515B96FFF0E9615BA6FFF0EEF
:102B02009715BB6FB8C184F1B9C185F1BAC186F11D
:102B1200BBC187F1B0C1A2F0B1C1A3F0B2C1A4F0B0
:102B2200B3C1A5F084C19EF085C19FF086C1A0F01B
:102B320087C1A1F089EC40F09EC098F19FC099F145
:102B4200A0C09AF1A1C09BF1A0C1E7F0A1C1E8F039
:102B52000001D890E737E837D890E737E837290EF1
:102B6200E725F66E0F0EE821F76EF86A000EF822DE
:102B72000900F5CFA2F00900F5CFA3F00900F5CFC7
:102B8200A4F00A00F5CFA5F098C19EF099C19FF07C
:102B92009AC1A0F09BC1A1F089EC40F09EC040F127
:102BA2009FC041F1A0C042F1A1C043F120C1A2F0F7
:102BB20021C1A3F022C1A4F023C1A5F040C19EF01F
:102BC20041C19FF042C1A0F043C1A1F089EC40F0A5
:102BD2009EC00CF19FC00DF1A0C00EF1A1C00FF17B
:102BE20024C19EF025C19FF026C1A0F027C1A1F00B
:102BF2000CC1A2F00DC1A3F00EC1A4F00FC1A5F04B
:102C020089EC40F09EC01CF19FC01DF1A0C01EF1D6
:102C1200A1C01FF1E3C0B8F1E4C0B9F1E5C0BAF157
:102C2200E6C0BBF1B8C194F1B9C195F1BAC196F150
:102C3200BBC197F1000E01019415B86FF00E951506
:102C4200B96FFF0E9615BA6FFF0E9715BB6FB8C11D
:102C520028F1B9C129F1BAC12AF1BBC12BF184C152
:102C620089F085C18AF086C18BF087C18CF028C1BA
:102C7200A2F029C1A3F02AC1A4F02BC1A5F0E3C0A0
:102C82009EF0E4C09FF0E5C0A0F0E6C0A1F089ECA0
:102C920040F09EC085F09FC086F0A0C087F0A1C022
:102CA20088F09AEC29F085C010F186C011F187C036
:102CB20012F188C013F110C175F011C176F012C182
:102CC20077F013C178F01CC189F01DC18AF01EC1D2
:102CD2008BF01FC18CF0E3C085F0E4C086F0E5C044
:102CE20087F0E6C088F09AEC29F085C079F086C0BA
:102CF2007AF087C07BF088C07CF07BEC22F075C054
:102D020064F176C065F177C066F178C067F128C1D9
:102D120085F029C186F02AC187F02BC188F084C1D1
:102D220089F085C18AF086C18BF087C18CF09AEC5C
:102D320029F085C09CF186C09DF187C09EF188C0B4
:102D42009FF164C175F065C176F066C177F067C125
:102D520078F09CC179F09DC17AF09EC17BF09FC151
:102D62007CF07BEC22F075C0B4F176C0B5F177C08F
:102D7200B6F178C0B7F1B4C1B8F1B5C1B9F1B6C115
:102D8200BAF1B7C1BBF1B8C1ACF1B9C1ADF1BAC1C9
:102D9200AEF1BBC1AFF10101AFBFDCEF16F0AC0584
:102DA200000EAD59000EAE59430EAF59D8A0DCEF5C
:102DB20016F0DEEF16F016EF17F0CA0E0001896F5B
:102DC200F20E8A6F490E8B6F710E8C6F88C185F07F
:102DD20089C186F08AC187F08BC188F09AEC29F00C
:102DE20085C0A4F186C0A5F187C0A6F188C0A7F16D
:102DF200A4C185F0A5C186F0A6C187F0A7C188F05D
:102E0200CA0E0001896FF20E8A6F490E8B6F710E26
:102E12008C6F9AEC29F085C0DFF086C0E0F087C0A5
:102E2200E1F088C0E2F026EF1DF0430EAF19AC11BD
:102E3200AD11AE11D8A420EF17F022EF17F098EFE2
:102E420017F09CC1A2F09DC1A3F09EC1A4F09FC146
:102E5200A5F0B4C19EF0B5C19FF0B6C1A0F0B7C154
:102E6200A1F089EC40F09EC0A6F09FC0A7F0A0C0E0
:102E7200A8F0A1C0A9F03C0E0001796FAA0E7A6FEA
:102E8200380E7B6F330E7C6F64C175F065C176F0CE
:102E920066C177F067C178F07BEC22F075C0AAF0CA
:102EA20076C0ABF077C0ACF078C0ADF0CBEC38F0C8
:102EB2000001D8B05FEF17F061EF17F065EF18F07F
:102EC200CA0E896FF20E8A6F490E8B6F710E8C6F6C
:102ED20088C185F089C186F08AC187F08BC188F0EC
:102EE2009AEC29F085C0A4F186C0A5F187C0A6F1AD
:102EF20088C0A7F1A4C185F0A5C186F0A6C187F05C
:102F0200A7C188F0CA0E0001896FF20E8A6F490EBE
:102F12008B6F710E8C6F9AEC29F085C0DFF086C042
:102F2200E0F087C0E1F088C0E2F026EF1DF0FF0E6E
:102F3200AC150001E76FFF0E0101AD150001E86F4E
:102F4200FF0E0101AE150001E96F7F0E0101AF1501
:102F52000001EA6FEABFBAEF17F0E705000EE85981
:102F6200160EE959430EEA59D8A0BAEF17F0BCEF92
:102F720017F0F3EF17F0600E896F420E8A6FA20E00
:102F82008B6F0D0E8C6F88C185F089C186F08AC166
:102F920087F08BC188F09AEC29F085C0A4F186C035
:102FA200A5F187C0A6F188C0A7F1A4C185F0A5C18B
:102FB20086F0A6C187F0A7C188F0600E0001896F74
:102FC200420E8A6FA20E8B6F0D0E8C6F9AEC29F057
:102FD20085C0DFF086C0E0F087C0E1F088C0E2F093
:102FE20026EF1DF0160E0101AE1909E1C30EAF194D
:102FF200AC11AD11D8A400EF18F002EF18F065EF94
:1030020018F09CC1A2F09DC1A3F09EC1A4F09FC183
:10301200A5F0B4C19EF0B5C19FF0B6C1A0F0B7C192
:10302200A1F089EC40F09EC0A6F09FC0A7F0A0C01E
:10303200A8F0A1C0A9F064C1AAF065C1ABF066C155
:10304200ACF067C1ADF0CBEC38F00001D8A02CEFAA
:1030520018F02EEF18F065EF18F0600E896F420E2F
:103062008A6FA20E8B6F0D0E8C6F88C185F089C19D
:1030720086F08AC187F08BC188F09AEC29F085C06E
:10308200A4F186C0A5F187C0A6F188C0A7F1A4C1AA
:1030920085F0A5C186F0A6C187F0A7C188F0600EB1
:1030A2000001896F420E8A6FA20E8B6F0D0E8C6F1C
:1030B2009AEC29F085C0DFF086C0E0F087C0E1F02D
:1030C20088C0E2F026EF1DF0FF0E0101AC152C6F57
:1030D200FF0EAD152D6FFF0EAE152E6F7F0EAF15C5
:1030E2002F6F170E0001E76F2CC1E8F02DC1E9F038
:1030F2002EC1EAF02FC1EBF0E76782EF18F08AEFFA
:1031020018F0EB35EB33EA33E933E833E72F7DEFA1
:1031120018F0810E0001E8250101A06FFF0E0001E9
:10312200E9210101A16FFF0E0001EA210101A26F55
:10313200FF0E0001EB210101A36F000E806F000E54
:10314200816F000E826F000E836F2FBFB5EF18F0F4
:103152002C05000E2D59000E2E593F0E2F59D8A0C6
:10316200B5EF18F0B7EF18F0BBEF19F0A0C1E7F018
:10317200010E0001E727000EE86F000EE96F800ED6
:10318200EA6F000EEB6FE767C9EF18F0D1EF18F0A6
:10319200EB35EB33EA33E933E833E72FC4EF18F0CA
:1031A2000101AC510001E8250101806FAD51000120
:1031B200E9210101816FAE510001EA210101826F13
:1031C200AF510001EB210101836F810E0001E76F16
:1031D200FF0EE86FFF0EE96FFF0EEA6F170EEB6F3F
:1031E20080C1ECF081C1EDF082C1EEF083C1EFF05D
:1031F200EB67FEEF18F006EF19F0EF35EF33EE3321
:10320200ED33EC33EB2FF9EF18F00001EC51E72529
:103212000101A06F000E0001E8210101A16F000E63
:103222000001E9210101A26F000E0001EA21010162
:10323200A36FA0C1E7F0FF0E0001E86FFF0EE96F78
:103242007F0EEA6F000EEB6FE7672AEF19F032EF9D
:1032520019F0EB35EB33EA33E933E833E72F25EFA7
:1032620019F00001E81DEC6FE91DED6FEA1DEE6F2C
:10327200EB1DEF6F010180510001EC150101B86FE8
:1032820081510001ED150101B96F82510001EE1566
:103292000101BA6F83510001EF150101BB6FB8C183
:1032A200B0F1B9C1B1F1BAC1B2F1BBC1B3F1A05130
:1032B20017080001E76FFF0E010180150001E86F9A
:1032C200FF0E010181150001E96F7F0E01018215D8
:1032D2000001EA6F000E010183150001EB6F000E81
:1032E200E811EC6F000EE911ED6F800EEA11EE6F3E
:1032F200000EEB11EF6FE76781EF19F089EF19F01C
:10330200EF35EF33EE33ED33EC33E72F7CEF19F08B
:10331200ECC080F1EDC081F1EEC082F1EFC083F12B
:103322000101AFBF99EF19F097EF19F0A1EF19F072
:10333200831F821F811F806D000E812382238323BE
:103342009CC19EF09DC19FF09EC1A0F09FC1A1F0C3
:10335200B0C1A2F0B1C1A3F0B2C1A4F0B3C1A5F053
:1033620089EC40F09EC09CF19FC09DF1A0C09EF1EF
:10337200A1C09FF164C175F065C176F066C177F0B6
:1033820067C178F09CC179F09DC17AF09EC17BF053
:103392009FC17CF07BEC22F075C0B0F176C0B1F138
:1033A20077C0B2F178C0B3F1B0C1B8F1B1C1B9F12F
:1033B200B2C1BAF1B3C1BBF1B8C194F1B9C195F1CF
:1033C200BAC196F1BBC197F1000E01019415B86F15
:1033D200800E9515B96FFF0E9615BA6FFF0E9715F1
:1033E200BB6FB8C1B0F1B9C1B1F1BAC1B2F1BBC1E1
:1033F200B3F1B0C185F0B1C186F0B2C187F0B3C1FB
:1034020088F0000E0001896F720E8A6F310E8B6F89
:103412003F0E8C6F9AEC29F085C074F186C075F16D
:1034220087C076F188C077F19CC1A2F09DC1A3F05C
:103432009EC1A4F09FC1A5F0B0C19EF0B1C19FF0A2
:10344200B2C1A0F0B3C1A1F089EC40F09EC098F1E6
:103452009FC099F1A0C09AF1A1C09BF1180E000182
:10346200896F720E8A6F310E8B6F3F0E8C6F98C10F
:10347200A2F099C1A3F09AC1A4F09BC1A5F064C1C6
:103482009EF065C19FF066C1A0F067C1A1F089EC12
:1034920040F09EC085F09FC086F0A0C087F0A1C01A
:1034A20088F09AEC29F085C014F186C015F187C026
:1034B20016F188C017F114C175F015C176F016C166
:1034C20077F017C178F08C0E0001896FBE0E8A6FFB
:1034D200BF0E8B6F350E8C6FB0C185F0B1C186F017
:1034E200B2C187F0B3C188F09AEC29F085C079F0B7
:1034F20086C07AF087C07BF088C07CF07BEC22F03B
:1035020075C078F176C079F177C07AF178C07BF135
:1035120074C175F075C176F076C177F077C178F035
:1035220078C179F079C17AF07AC17BF07BC17CF005
:103532007BEC22F075C0B4F176C0B5F177C0B6F17C
:1035420078C0B7F174C1A2F075C1A3F076C1A4F03E
:1035520077C1A5F0B4C19EF0B5C19FF0B6C1A0F08D
:10356200B7C1A1F089EC40F09EC098F19FC099F1DB
:10357200A0C09AF1A1C09BF178C19EF079C19FF0E1
:103582007AC1A0F07BC1A1F098C1A2F099C1A3F0C9
:103592009AC1A4F09BC1A5F089EC40F09EC044F111
:1035A2009FC045F1A0C046F1A1C047F1B4C185F06A
:1035B200B5C186F0B6C187F0B7C188F0B4C189F051
:1035C200B5C18AF0B6C18BF0B7C18CF09AEC29F084
:1035D20085C0B0F186C0B1F187C0B2F188C0B3F145
:1035E2000E0E0001796FEA0E7A6FDD0E7B6FB50E5B
:1035F2007C6F4C0E896FBB0E8A6F310E8B6F330E50
:103602008C6FB0C185F0B1C186F0B2C187F0B3C191
:1036120088F09AEC29F085C075F086C076F087C0F4
:1036220077F088C078F07BEC22F075C0A4F176C008
:10363200A5F177C0A6F178C0A7F1550E0001796F08
:10364200B30E7A6F8A0E7B6F380E7C6FB0C189F031
:10365200B1C18AF0B2C18BF0B3C18CF0A4C185F0C4
:10366200A5C186F0A6C187F0A7C188F09AEC29F01F
:1036720085C075F086C076F087C077F088C078F094
:103682007BEC22F075C054F176C055F177C056F14B
:1036920078C057F1610E0001796F0B0E7A6F360E0A
:1036A2007B6FBB0E7C6FB0C189F0B1C18AF0B2C131
:1036B2008BF0B3C18CF054C185F055C186F056C170
:1036C20087F057C188F09AEC29F085C075F086C062
:1036D20076F087C077F088C078F07BEC22F075C076
:1036E20048F176C049F177C04AF178C04BF1AB0E90
:1036F2000001796FAA0E7A6F2A0E7B6F3E0E7C6FE5
:10370200B0C189F0B1C18AF0B2C18BF0B3C18CF003
:1037120048C185F049C186F04AC187F04BC188F0A3
:103722009AEC29F085C075F086C076F087C077F0F4
:1037320088C078F07BEC22F075C038F176C039F1A0
:1037420077C03AF178C03BF1B4C19EF0B5C19FF0A9
:10375200B6C1A0F0B7C1A1F0B0C189F0B1C18AF081
:10376200B2C18BF0B3C18CF038C185F039C186F09B
:103772003AC187F03BC188F09AEC29F085C0A2F0EB
:1037820086C0A3F087C0A4F088C0A5F089EC40F001
:103792009EC084F19FC085F1A0C086F1A1C087F1CF
:1037A200000E0001796F000E7A6F000E7B6FC00E63
:1037B2007C6F84C175F085C176F086C177F087C1D0
:1037C20078F07BEC22F075C0AAF076C0ABF077C03F
:1037D200ACF078C0ADF084C189F085C18AF086C1B1
:1037E2008BF087C18CF0B4C185F0B5C186F0B6C14B
:1037F20087F0B7C188F09AEC29F085C0A6F086C0A0
:10380200A7F087C0A8F088C0A9F0C5EC2DF0A6C02B
:103812003CF1A7C03DF1A8C03EF1A9C03FF144C1AF
:1038220079F045C17AF046C17BF047C17CF044C1D2
:1038320089F045C18AF046C18BF047C18CF0B4C112
:1038420085F0B5C186F0B6C187F0B7C188F09AECB1
:1038520029F085C075F086C076F087C077F088C001
:1038620078F07BEC22F075C018F176C019F177C0C0
:103872001AF178C01BF13CC19EF03DC19FF03EC1E0
:10388200A0F03FC1A1F018C1A2F019C1A3F01AC162
:10389200A4F01BC1A5F089EC40F09EC04CF19FC082
:1038A2004DF1A0C04EF1A1C04FF1B4C1A2F0B5C11B
:1038B200A3F0B6C1A4F0B7C1A5F04CC19EF04DC1B2
:1038C2009FF04EC1A0F04FC1A1F089EC40F09EC024
:1038D20098F19FC099F1A0C09AF1A1C09BF1000E8E
:1038E20000019E6F000E9F6F800EA06F3F0EA16FB2
:1038F20098C1A2F099C1A3F09AC1A4F09BC1A5F00E
:1039020089EC40F09EC0B4F19FC0B5F1A0C0B6F101
:10391200A1C0B7F1B4C1B8F1B5C1B9F1B6C1BAF13C
:10392200B7C1BBF1B8C1ACF1B9C1ADF1BAC1AEF129
:10393200BBC1AFF180C1E7F081C1E8F082C1E9F01B
:1039420083C1EAF0170ED8900001E737E837E9376C
:10395200EA37E82EA4EF1CF0E7510101AC27000181
:10396200E8510101AD230001E9510101AE2300013B
:10397200EA510101AF23170E0001E76FACC1E8F075
:10398200ADC1E9F0AEC1EAF0AFC1EBF0E767CCEF51
:103992001CF0D4EF1CF0EB35EB33EA33E933E833B8
:1039A200E72FC7EF1CF00001EBBFE4EF1CF0EB5177
:1039B200EA11E91106E1E805D8B0E2EF1CF0E4EF04
:1039C2001CF0FCEF1CF0B4C19EF0B5C19FF0B6C173
:1039D200A0F0B7C1A1F080C1A2F081C1A3F060EC58
:1039E20031F09EC0B4F19FC0B5F1A0C0B6F1A1C044
:1039F200B7F10CEF1DF0ACC1B8F1ADC1B9F1AEC178
:103A0200BAF1AFC1BBF1B8C1B4F1B9C1B5F1BAC134
:103A1200B6F1BBC1B7F188C185F089C186F08AC110
:103A220087F08BC188F0B4C189F0B5C18AF0B6C104
:103A32008BF0B7C18CF09AEC29F085C0DFF086C01C
:103A4200E0F087C0E1F088C0E2F01200000E010150
:103A5200216FD5C022F1D6C023F1D7C024F1D8C03E
:103A620025F125BF39EF1DF037EF1DF04DEF1DF0A9
:103A7200010E216F22C160F023C161F024C162F006
:103A820025C163F073EC41F060C022F161C023F103
:103A920062C024F163C025F1000E0101276F000E00
:103AA200266F36C011F137C012F12151D8B45CEF44
:103AB2001DF05EEF1DF072EF1DF02151D8A464EFEE
:103AC2001DF066EF1DF06CEF1DF0000E076F2B0E60
:103AD200066F70EF1DF0000E076F2D0E066F06C108
:103AE20021F122C160F023C161F024C162F025C13D
:103AF20063F04EEC39F0000160056111D8A484EF47
:103B02001DF086EF1DF0BDEF1DF001012151D8B46B
:103B12008DEF1DF08FEF1DF098EF1DF021C134F2F3
:103B22001107D8A01207000E276F010E266F340E60
:103B320026250001606F020E010127210001616F3D
:103B4200A20E626F0F0E636FD1EC40F00101FD0E09
:103B52001127FF0E1223D3C072F0D4C073F0340EBB
:103B62000001746F020E756F11C176F012C177F009
:103B720086EC3DF07AEF22F022C160F023C161F0C1
:103B820024C162F025C163F04EEC39F000016051AE
:103B92006111D8A4CFEF1DF0D1EF1DF008EF1EF098
:103BA20001012151D8B4D8EF1DF0DAEF1DF0E3EF97
:103BB2001DF021C134F21107D8A01207000E276FA1
:103BC200010E266F340E26250001606F020E0101E0
:103BD20027210001616FA60E626F0F0E636FD1EC99
:103BE20040F00101FD0E1127FF0E1223D3C072F027
:103BF200D4C073F0340E0001746F020E756F11C1E0
:103C020076F012C177F086EC3DF07AEF22F0000EEA
:103C12000101286F000E296F800E2A6F3F0E2B6F55
:103C2200000E106F000E0F6F22C160F023C161F011
:103C320024C162F025C163F0000E0001646F000E22
:103C4200656F000E666F000E676FE8EC3AF00001D8
:103C5200D8B02EEF1EF030EF1EF02AEF1FF03DEF2E
:103C62001EF013C128F114C129F115C12AF116C1A0
:103C72002BF101010F4B102B28C185F029C186F0D1
:103C82002AC187F02BC188F0000E0001896F000E57
:103C92008A6F200E8B6F410E8C6F9AEC29F085C0D3
:103CA20013F186C014F187C015F188C016F1010125
:103CB2001351225D0001606F01011451235900016B
:103CC200616F0101155124590001626F0101165102
:103CD20025590001636F2FEC3FF0000163BF7DEFB8
:103CE2001EF063516211611109E1020E605DD8A0FC
:103CF2007DEF1EF07FEF1EF032EF1EF013C1A6F033
:103D020014C1A7F015C1A8F016C1A9F022C1AAF0EA
:103D120023C1ABF024C1ACF025C1ADF0CBEC38F03F
:103D22000001D8A097EF1EF099EF1EF032EF1EF0BF
:103D320001012851225D0001606F010129512359BF
:103D42000001616F01012A5124590001626F0101D2
:103D52002B5125590001636F2FEC3FF0000163BF27
:103D6200C0EF1EF063516211611107E1020E605D46
:103D7200D8B0BEEF1EF0C0EF1EF010EF1FF028C14A
:103D820022F129C123F12AC124F12BC125F12AEF05
:103D92001FF028C1A6F029C1A7F02AC1A8F02BC1A3
:103DA200A9F0000EAA6F000EAB6F200EAC6F410E91
:103DB200AD6FC5EC2DF0A6C028F1A7C029F1A8C0AF
:103DC2002AF1A9C02BF101010F07D8A01007285131
:103DD200225D0001606F0101295123590001616FC9
:103DE20001012A5124590001626F01012B51255909
:103DF2000001636F2FEC3FF0000163BF0EEF1FF075
:103E020063516211611107E1020E605DD8B00CEFDF
:103E12001FF00EEF1FF010EF1FF0C0EF1EF022C1D7
:103E2200A6F023C1A7F024C1A8F025C1A9F028C19A
:103E3200AAF029C1ABF02AC1ACF02BC1ADF0CBEC9A
:103E420038F00001D8A028EF1FF02AEF1FF0CAEFC8
:103E52001EF0D9C009F109C10AF139BE33EF1FF0D2
:103E620035EF1FF03BEF1FF038C002F139C003F10C
:103E720040EF1FF0000E0101036F060E026F02C138
:103E82000DF103C10EF101010D4B0E2B660E0A1945
:103E9200D8A44EEF1FF050EF1FF070EF1FF010BFCD
:103EA20057EF1FF055EF1FF063EF1FF0000E286F62
:103EB200000E296F800E2A6F3F0E2B6F000E106FBF
:103EC200000E0F6F670E0919D8B46AEF1FF06CEF7E
:103ED2001FF070EF1FF00F510D2710510E23000E2F
:103EE200186F000E176F22C119F123C11AF124C1F4
:103EF2001BF125C11CF128C113F129C114F12AC1FA
:103F020015F12BC116F102EF20F019C1A6F01AC16A
:103F1200A7F01BC1A8F01CC1A9F028C1AAF029C1B1
:103F2200ABF02AC1ACF02BC1ADF0C5EC2DF0A6C0B0
:103F3200BFF0A7C0C0F0A8C0C1F0A9C0C2F07FEC1A
:103F420032F0BFC01DF1C0C01EF1C1C01FF1C2C01E
:103F520020F11DC1A4F01EC1A5F01FC1A6F020C111
:103F6200A7F0C4EC37F0A4C00BF1A5C00CF119C145
:103F72009EF01AC19FF01BC1A0F01CC1A1F01DC18F
:103F820089F01EC18AF01FC18BF020C18CF028C1BC
:103F920085F029C186F02AC187F02BC188F09AECFE
:103FA20029F085C0A2F086C0A3F087C0A4F088C023
:103FB200A5F089EC40F09EC019F19FC01AF1A0C093
:103FC2001BF1A1C01CF128C1A6F029C1A7F02AC18A
:103FD200A8F02BC1A9F0000E0001AA6F000EAB6F72
:103FE200200EAC6F410EAD6FC5EC2DF0A6C028F1CE
:103FF200A7C029F1A8C02AF1A9C02BF10101174BD2
:10400200182B0D51175D1851800A0001DA6F01015A
:104012000E51800A0001DA59D8A012EF20F014EFF5
:1040220020F086EF1FF028C185F029C186F02AC151
:1040320087F02BC188F0000E896F000E8A6FA00EE8
:104042008B6F400E8C6F9AEC29F085C01DF186C0F3
:104052001EF187C01FF188C020F119C1A6F01AC154
:10406200A7F01BC1A8F01CC1A9F01DC1AAF01EC176
:10407200ABF01FC1ACF020C1ADF0CBEC38F00001C9
:10408200D8B046EF20F048EF20F053EF20F0000EBA
:1040920001011D6F000E1E6F000E1F6F000E206FBC
:1040A2007DEF20F019C160F01AC161F01BC162F00E
:1040B2001CC163F01DC164F01EC165F01FC166F032
:1040C20020C167F0E8EC3AF00001D8A06BEF20F0D5
:1040D2006DEF20F07DEF20F001010BB173EF20F0C6
:1040E20075EF20F07DEF20F0000E1D6F000E1E6FA9
:1040F200000E1F6F000E206F22C175F023C176F0F3
:1041020024C177F025C178F01DC179F01EC17AF083
:104112001FC17BF020C17CF07BEC22F075C019F14D
:1041220076C01AF177C01BF178C01CF119C1A6F054
:104132001AC1A7F01BC1A8F01CC1A9F0000E000112
:10414200896F000E8A6F200E8B6F410E8C6F13C128
:1041520085F014C186F015C187F016C188F09AEC7B
:1041620029F085C0AAF086C0ABF087C0ACF088C049
:10417200ADF0CBEC38F00001D8A0C2EF20F0C4EFD4
:1041820020F0EEEF20F001010F4B102B13C185F050
:1041920014C186F015C187F016C188F0000E000127
:1041A200896F000E8A6F200E8B6F410E8C6F9AEC16
:1041B20029F085C013F186C014F187C015F188C0BB
:1041C20016F1660E01010A19D8A4EAEF20F0ECEF0D
:1041D20020F0EEEF20F00D4B0E2B13C128F114C18D
:1041E20029F115C12AF116C12BF10FC100F110C13D
:1041F20001F1000E0101086F000E056F000E046F41
:10420200000E186F000E176FEEEF21F019C1A6F025
:104212001AC1A7F01BC1A8F01CC1A9F028C1AAF0BD
:1042220029C1ABF02AC1ACF02BC1ADF0C5EC2DF029
:10423200A6C0BFF0A7C0C0F0A8C0C1F0A9C0C2F01C
:104242007FEC32F0BFC01DF1C0C01EF1C1C01FF132
:10425200C2C020F11DC1A4F01EC1A5F01FC1A6F06D
:1042620020C1A7F0C4EC37F00001A5BF44EF21F054
:10427200A55107E10A0EA45DD8B042EF21F044EF48
:1042820021F054EF21F01DC1A4F01EC1A5F01FC101
:10429200A6F020C1A7F0C4EC37F0A4C00BF1A5C072
:1042A2000CF159EF21F0000E01010C6F090E0B6F9A
:1042B20001010851D8A460EF21F062EF21F08AEFEA
:1042C20021F001BF69EF21F067EF21F08AEF21F0C1
:1042D200340E2625D96E020E2721DA6E2E0EDF6EDF
:1042E200264B272B1107D8A01207010E086F8AEF61
:1042F20021F0340E2625D96E020E2721DA6E300EF9
:10430200DF6E264B272B1107D8A012070407D8A06F
:10431200050704510511D8A491EF21F093EF21F084
:104322007AEF21F0340E2625D96E020E2721DA6E9D
:104332000B51300FDF6E264B272B1107D8A0120727
:1043420019C19EF01AC19FF01BC1A0F01CC1A1F0BF
:104352001DC189F01EC18AF01FC18BF020C18CF0F3
:1043620028C185F029C186F02AC187F02BC188F0C7
:104372009AEC29F085C0A2F086C0A3F087C0A4F011
:1043820088C0A5F089EC40F09EC019F19FC01AF1D7
:10439200A0C01BF1A1C01CF128C1A6F029C1A7F041
:1043A2002AC1A8F02BC1A9F0000E0001AA6F000ECD
:1043B200AB6F200EAC6F410EAD6FC5EC2DF0A6C0F9
:1043C20028F1A7C029F1A8C02AF1A9C02BF1010147
:1043D2000007D8A00107174B182B0D51175D185174
:1043E200800A0001DA6F01010E51800A0001DA59D8
:1043F200D8B0FEEF21F000EF22F00FEF22F0010122
:1044020027BF0DEF22F0275109E14B0E265DD8A000
:104412000DEF22F00FEF22F007EF21F0000E010165
:10442200186F4F0E176F340E1725D96E020E182112
:10443200DA6E000EDF6E340E0001DA6F020EDB6FF1
:10444200010126510001DA5F010127510001DB5B06
:10445200010117510001DA25606F010118510001B5
:10446200DB21616F340E626F020E636F26C164F04E
:1044720027C165F0EDEC3FF001012651175D266F73
:1044820027511859276F2151D8A44AEF22F04DEF36
:1044920022F0010E4EEF22F0000E176F186B215121
:1044A200D8B456EF22F058EF22F063EF22F026073D
:1044B200D8A02707340E2625D96E020E2721DA6EE0
:1044C20021C1DFFF1751115F1851125BD3C072F087
:1044D200D4C073F0340E26250001746F020E010160
:1044E20027210001756F11C176F012C177F086ECB9
:1044F2003DF0120000017851800B816F78517825D0
:10450200836F77AF87EF22F089EF22F08AEF22F0F4
:1045120083818351D8B490EF22F092EF22F0A7EF7B
:1045220022F08329D8A498EF22F09AEF22F0A2EF8A
:1045320022F0000E756F000E766F000E776F000E80
:10454200786F778F000E786FAFEF22F0000E756FE5
:10455200000E766F000E776F000E786F7C51800B25
:10456200826F81518219D8B4B9EF22F0BBEF22F0E9
:10457200BCEF22F0818D7C517C25826F7BAFC4EF32
:1045820022F0C6EF22F0C7EF22F082818251D8B426
:10459200CDEF22F0CFEF22F0E4EF22F08229D8A46F
:1045A200D5EF22F0D7EF22F0DFEF22F0000E796F85
:1045B200000E7A6F000E7B6F000E7C6F7B8F000EF9
:1045C2007C6FECEF22F0000E796F000E7A6F000E16
:1045D2007B6F000E7C6F8351825DD8B0F3EF22F0C7
:1045E200F5EF22F01CEF23F081ADFAEF22F0FCEFA1
:1045F20022F0FEEF22F0800E811B83C084F082C085
:1046020083F084C082F075C084F079C075F084C0F4
:1046120079F076C084F07AC076F084C07AF077C000
:1046220084F07BC077F084C07BF078C084F07CC0DB
:1046320078F084C07CF0000E846F835182C07DF0DC
:104642007E6B7D5F000E7E5B7EBF31EF23F07E517D
:1046520009E11A0E7D5DD8A031EF23F033EF23F08C
:104662006AEF23F07551761177117811D8A43CEFD7
:1046720023F03FEF23F0010E40EF23F0000E846F92
:10468200000E756F000E766F000E776F000E786F5A
:1046920082C083F073EF23F084A152EF23F054EF32
:1046A20023F05AEF23F0D89084310109846F5CEF34
:1046B20023F0D890843375A161EF23F063EF23F0E8
:1046C20064EF23F0848F783578337733763375331C
:1046D200832B8251835DD8A071EF23F073EF23F017
:1046E2004DEF23F081BD78EF23F07AEF23F0BAEF9C
:1046F20023F08351D8A480EF23F082EF23F08CEFD4
:1047020023F0000E756F000E766F000E776F000EAD
:10471200786FDBEF24F0795175277A5176237B513C
:1047220077237C51782378A199EF23F09BEF23F034
:1047320047EF24F084A1A0EF23F0A2EF23F0A8EF2B
:1047420023F0D89084310109846FAAEF23F0D89026
:10475200843375A1AFEF23F0B1EF23F0B2EF23F072
:10476200848F78357833773376337533832B47EFFD
:1047720024F07951755D7A5176597B517759785188
:10478200800A7D6F7C51800A7D59D8B0CBEF23F02F
:10479200CDEF23F0F8EF23F07551795D7D6F7651FF
:1047A2007A597E6F77517B597F6F78517C59806F30
:1047B200FF0E7D25756FFF0E7E21766FFF0E7F2126
:1047C200776FFF0E8021786F800E811B846D84517C
:1047D200D8A4EEEF23F0F0EF23F000EF24F0010E67
:1047E2007527000E76237723782300EF24F0795182
:1047F200755F7A51765B7B51775B7C51785B755143
:10480200761177117811D8A409EF24F00BEF24F078
:1048120040EF24F08451D8A411EF24F013EF24F0D8
:1048220040EF24F0000E756F000E766F000E776F6A
:10483200000E786FDBEF24F0D89075377637773734
:10484200783784AF27EF24F029EF24F02AEF24F001
:10485200758184A12FEF24F031EF24F035EF24F09D
:10486200D880843737EF24F0D89084378351D8B476
:104872003DEF24F03FEF24F040EF24F0830777AFC1
:1048820045EF24F047EF24F01DEF24F0000E826F75
:1048920084AF4EEF24F050EF24F068EF24F084C090
:1048A2007DF07F0E7D17D8B459EF24F05BEF24F032
:1048B2005FEF24F0010E826F68EF24F075A164EFC0
:1048C20024F066EF24F068EF24F05BEF24F08251CD
:1048D200D8B46EEF24F070EF24F09BEF24F0010EB9
:1048E2007527000E76237723782378A17BEF24F0B7
:1048F2007DEF24F09BEF24F075C07DF076C07EF052
:1049020077C07FF078C080F0803580337F337E338C
:104912007D337DC075F07EC076F07FC077F080C0B9
:1049220078F08329D8B498EF24F09AEF24F09BEF23
:1049320024F0832B8329D8B4A1EF24F0A3EF24F031
:10494200ABEF24F08351D8A4A9EF24F0ABEF24F00D
:10495200BDEF24F0000E756F000E766F000E776FBC
:10496200000E786F8351D8A4B9EF24F0BBEF24F086
:10497200BDEF24F0000E816F83A1C2EF24F0C4EFDB
:1049820024F0C7EF24F0778FC8EF24F0779FD890F8
:104992008331786F81AFD0EF24F0D2EF24F0D3EFE0
:1049A20024F0788F75C075F076C076F077C077F016
:1049B20078C078F012001D50800B266E1D501D2409
:1049C200286E1CAEE7EF24F0E9EF24F0EAEF24F0C2
:1049D20028802850D8B4F0EF24F0F2EF24F007EF4B
:1049E20025F02828D8A4F8EF24F0FAEF24F002EFFB
:1049F20025F0000E1A6E000E1B6E000E1C6E000ECD
:104A02001D6E1C8E000E1D6E0FEF25F0000E1A6E2D
:104A1200000E1B6E000E1C6E000E1D6E2150800BD0
:104A2200276E26502718D8B419EF25F01BEF25F072
:104A32001CEF25F0268C21502124276E20AE24EF76
:104A420025F026EF25F027EF25F027802750D8B450
:104A52002DEF25F02FEF25F044EF25F02728D8A4DD
:104A620035EF25F037EF25F03FEF25F0000E1E6EF3
:104A7200000E1F6E000E206E000E216E208E000EA4
:104A8200216E4CEF25F0000E1E6E000E1F6E000E02
:104A9200206E000E216E2850275CD8B053EF25F00F
:104AA20055EF25F07CEF25F026AC5AEF25F05CEFB0
:104AB20025F05EEF25F0800E261A28C029F027C0C7
:104AC20028F029C027F01AC029F01EC01AF029C008
:104AD2001EF01BC029F01FC01BF029C01FF01CC014
:104AE20029F020C01CF029C020F01DC029F021C0EF
:104AF2001DF029C021F0000E296E285027C022F097
:104B0200236A225E000E235A23BE91EF25F0235022
:104B120009E11A0E225CD8A091EF25F093EF25F05F
:104B2200CAEF25F01A501B101C101D10D8A49CEFC0
:104B320025F09FEF25F0010EA0EF25F0000E296E63
:104B4200000E1A6E000E1B6E000E1C6E000E1D6E05
:104B520027C028F0D3EF25F029A0B2EF25F0B4EF5B
:104B620025F0BAEF25F0D89029300109296EBCEF63
:104B720025F0D89029321AA0C1EF25F0C3EF25F015
:104B8200C4EF25F0298E1D341D321C321B321A321D
:104B9200282A2750285CD8A0D1EF25F0D3EF25F0A2
:104BA200ADEF25F026BCD8EF25F0DAEF25F01AEFAD
:104BB20026F02850D8A4E0EF25F0E2EF25F0ECEF44
:104BC20025F0000E1A6E000E1B6E000E1C6E000EFB
:104BD2001D6E3BEF27F01E501A261F501B2220503D
:104BE2001C2221501D221DA0F9EF25F0FBEF25F01C
:104BF200A7EF26F029A000EF26F002EF26F008EF3B
:104C020026F0D89029300109296E0AEF26F0D890B3
:104C120029321AA00FEF26F011EF26F012EF26F03C
:104C2200298E1D341D321C321B321A32282AA7EF5C
:104C320026F01E501A5C1F501B5820501C581D5045
:104C4200800A226E2150800A2258D8B02BEF26F01B
:104C52002DEF26F058EF26F01A501E5C226E1B50E4
:104C62001F58236E1C502058246E1D502158256E4B
:104C7200FF0E22241A6EFF0E23201B6EFF0E24202D
:104C82001C6EFF0E25201D6E800E261A296C2950DF
:104C9200D8A44EEF26F050EF26F060EF26F0010E7A
:104CA2001A26000E1B221C221D2260EF26F01E5027
:104CB2001A5E1F501B5A20501C5A21501D5A1A505E
:104CC2001B101C101D10D8A469EF26F06BEF26F004
:104CD200A0EF26F02950D8A471EF26F073EF26F04A
:104CE200A0EF26F0000E1A6E000E1B6E000E1C6E58
:104CF200000E1D6E3BEF27F0D8901A361B361C367D
:104D02001D3629AE87EF26F089EF26F08AEF26F0CE
:104D12001A8029A08FEF26F091EF26F095EF26F06A
:104D2200D880293697EF26F0D89029362850D8B463
:104D32009DEF26F09FEF26F0A0EF26F028061CAE8E
:104D4200A5EF26F0A7EF26F07DEF26F0000E276EE6
:104D520029AEAEEF26F0B0EF26F0C8EF26F029C05C
:104D620022F07F0E2216D8B4B9EF26F0BBEF26F060
:104D7200BFEF26F0010E276EC8EF26F01AA0C4EF8F
:104D820026F0C6EF26F0C8EF26F0BBEF26F027503C
:104D9200D8B4CEEF26F0D0EF26F0FBEF26F0010ECE
:104DA2001A26000E1B221C221D221DA0DBEF26F05C
:104DB200DDEF26F0FBEF26F01AC022F01BC023F035
:104DC2001CC024F01DC025F02534253224322332A4
:104DD200223222C01AF023C01BF024C01CF025C0CE
:104DE2001DF02828D8B4F8EF26F0FAEF26F0FBEFF2
:104DF20026F0282A2828D8B401EF27F003EF27F05D
:104E02000BEF27F02850D8A409EF27F00BEF27F07B
:104E12001DEF27F0000E1A6E000E1B6E000E1C6EA8
:104E2200000E1D6E2850D8A419EF27F01BEF27F0B3
:104E32001DEF27F0000E266E28A022EF27F024EFA8
:104E420027F027EF27F01C8E28EF27F01C9ED89022
:104E520028301D6E26AE30EF27F032EF27F033EF09
:104E620027F01D8E1AC01AF01BC01BF01CC01CF0CC
:104E72001DC01DF01200B2C0C3F0B3C0C4F0B4C074
:104E8200C5F0B5C0C6F0C3C0DBF0C4C0DCF0C5C01D
:104E9200DDF0C6C0DEF0000E0001DB15B66F000EBD
:104EA200DC15B76F800EDD15B86F7F0EDE15B96F9A
:104EB200800EB81909E17F0EB919B611B711D8A43D
:104EC20065EF27F067EF27F095EF27F0B2C089F082
:104ED200B3C08AF0B4C08BF0B5C08CF0B2C085F01C
:104EE200B3C086F0B4C087F0B5C088F09AEC29F060
:104EF20085C075F086C076F087C077F088C078F0FC
:104F0200B2C079F0B3C07AF0B4C07BF0B5C07CF027
:104F12007BEC22F075C0B2F076C0B3F077C0B4F08B
:104F220078C0B5F099EF29F0DEBFA4EF27F0DE518B
:104F3200DD11DC1106E1DB05D8B0A2EF27F0A4EF0A
:104F420027F0E0EF27F0FF0EDB15B66FFF0EDC1542
:104F5200B76FFF0EDD15B86F7F0EDE15B96FB65154
:104F6200B711B811B911D8A4B9EF27F0BBEF27F0E8
:104F7200C5EF27F0B2C0B2F0B3C0B3F0B4C0B4F022
:104F8200B5C0B5F099EF29F0DEBFCCEF27F0CAEF3C
:104F920027F0E0EF27F0000E3B6E210E3A6EAC0ECA
:104FA200606F0F0E616F13EC43F060C0B2F061C02E
:104FB200B3F062C0B4F063C0B5F099EF29F0170EF8
:104FC200B66FDBC0B7F0DCC0B8F0DDC0B9F0DEC050
:104FD200BAF0B667EFEF27F0F7EF27F0BA35BA333A
:104FE200B933B833B733B62FEAEF27F0B7C0D3F0EF
:104FF200B8C0D4F0B9C0D5F0BAC0D6F00001D351D0
:10500200D411D511D611D8A409EF28F00BEF28F04E
:105012003BEF28F0000EBF6F000EC06F000EC16F95
:10502200000EC26F20EF28F0D890DB37DC37DD3777
:10503200DE37010EBF27000EC023C123C223DDAF1E
:1050420025EF28F027EF28F015EF28F0FF0EBF25F7
:10505200B66FFF0EC021B76FFF0EC121B86FFF0EF2
:10506200C221B96FB651D35FB751D45BB851D55B8A
:10507200B951D65B810ED327FF0ED423FF0ED52361
:10508200FF0ED623FF0EDB15B66FFF0EDC15B76FD2
:105092007F0EDD15B86F000EDE15B96F000EB6116A
:1050A200DB6F000EB711DC6F800EB811DD6F000EE2
:1050B200B911DE6FD3A160EF28F062EF28F06AEF3A
:1050C20028F0DB51DB27DC51DC23DD51DD23DE510F
:1050D200DE23D635D633D533D433D333DB51DB2776
:1050E200DC51DC23DD51DD23DE51DE23000EBB6FFC
:1050F200000EBC6F000EBD6F000EBE6FBBC0C7F0CE
:10510200BCC0C8F0BDC0C9F0BEC0CAF0000ED76FA7
:10511200000ED86F000ED96F010EDA6FD9EF28F0AA
:10512200BB51D725CB6FBC51D821CC6FBD51D921F2
:10513200CD6FBE51DA21CE6FCB51DB5DCC51DC5944
:10514200CD51DD59DE51800AB66FCE51800AB65973
:10515200D8A0AEEF28F0B0EF28F0CCEF28F0CB517A
:10516200D725BB6FCC51D821BC6FCD51D921BD6F92
:10517200CE51DA21BE6FCB51DB5FCC51DC5BCD511E
:10518200DD5BCE51DE5BD751C727D851C823D95139
:10519200C923DA51CA23DB51DB27DC51DC23DD5181
:1051A200DD23DE51DE23D890DA33D933D833D73337
:1051B200D751D811D911DA11D8A4E2EF28F0E4EFCF
:1051C20028F091EF28F0DB51DC11DD11DE11D8B4AB
:1051D200EDEF28F0EFEF28F04FEF29F0000ECF6F40
:1051E200000ED06F800ED16F3F0ED26FCFC0A6F0EF
:1051F200D0C0A7F0D1C0A8F0D2C0A9F0000EAA6F0B
:10520200000EAB6F800EAC6F3F0EAD6FCBEC38F083
:105212000001D8A00FEF29F011EF29F04FEF29F08C
:10522200000ECF6F000ED06F800ED16F3F0ED26F87
:10523200000EA66F000EA76F800EA86F3F0EA96F1B
:10524200CFC0AAF0D0C0ABF0D1C0ACF0D2C0ADF0AC
:10525200CBEC38F00001D8B031EF29F033EF29F070
:105262003BEF29F0020EC727000EC823C923CA2329
:105272004FEF29F0010EC715B66F000EC815B76FB4
:10528200000EC915B86F000ECA15B96FB651C727FF
:10529200B751C823B851C923B951CA23C7C0B6F000
:1052A200C8C0B7F0C9C0B8F0CAC0B9F0B935B9338F
:1052B200B833B733B633000EB625DB6F000EB72115
:1052C200DC6F000EB821DD6F3F0EB921DE6FD3C057
:1052D200B6F0D4C0B7F0D5C0B8F0D6C0B9F0170E4A
:1052E200D890B637B737B837B937E82E71EF29F00B
:1052F200B651DB27B751DC23B851DD23B951DE2388
:10530200DBC0C3F0DCC0C4F0DDC0C5F0DEC0C6F057
:10531200C3C0CFF0C4C0D0F0C5C0D1F0C6C0D2F077
:10532200CFC0B2F0D0C0B3F0D1C0B4F0D2C0B5F0AB
:10533200120000018851800B916F88518825976F68
:1053420087AFA6EF29F0A8EF29F0A9EF29F09781FE
:105352009751D8B4AFEF29F0B1EF29F0C4EF29F09B
:105362009729D8A4B7EF29F0B9EF29F0C1EF29F0B6
:10537200000E856F000E866F000E876F000E886F1D
:10538200878FCCEF29F0000E856F000E866F000E1E
:10539200876F000E886F8C51800B911B8C518C256E
:1053A200926F8BAFD7EF29F0D9EF29F0DAEF29F01E
:1053B20092819251D8B4E0EF29F0E2EF29F0F5EFB3
:1053C20029F09229D8A4E8EF29F0EAEF29F0F2EFC8
:1053D20029F0000E896F000E8A6F000E8B6F000E8F
:1053E2008C6F8B8FFDEF29F0000E896F000E8A6F94
:1053F200000E8B6F000E8C6F9251D8B403EF2AF01F
:1054020005EF2AF00DEF2AF09751D8A40BEF2AF0FE
:105412000DEF2AF017EF2AF0000E856F000E866F4F
:10542200000E876F000E886FAFEF2BF08B51850354
:10543200F3CF9CF0F4CF9DF09C51936F946B956BDE
:10544200966B9D51986F996B9A6B9B6B8A518603F1
:10545200F3CF9CF0F4CF9DF09C519327000E942340
:10546200952396239D519827000E99239A239B23D7
:1054720089518703F3CF9CF0F4CF9DF09C51932781
:10548200000E9423952396239D519827000E99236D
:105492009A239B2395C096F094C095F093C094F004
:1054A200936B89518603F3CF9CF0F4CF9DF09C510E
:1054B20093279D519423000E9523000E96238A5123
:1054C2008503F3CF9CF0F4CF9DF09C5193279D511F
:1054D2009423000E9523000E962395C096F094C057
:1054E20095F093C094F0936B89518503F3CF9CF0B0
:1054F200F4CF9DF09C5193279D519423000E952348
:10550200000E96238B518603F3CF9CF0F4CF9DF0CF
:105512009C5198279D519923000E9A23000E9B239C
:105522008A518703F3CF9CF0F4CF9DF09C519827CA
:105532009D519923000E9A23000E9B238B518703C2
:10554200F3CF9CF0F4CF9DF09C518D6F9D518E6FE7
:105552008F6B906B8FC090F08EC08FF08DC08EF0ED
:105562008D6B8D5198278E5199238F519A2390518B
:105572009B2393C08DF094C08EF095C08FF096C09F
:1055820090F0190ECAEF2AF0D89090338F338E33F1
:105592008D33E82EC5EF2AF08D5198278E5199232D
:1055A2008F519A2390519B2395C096F094C095F009
:1055B20093C094F0936B925197C08DF08E6B8D27B0
:1055C200000E8E23820E8D259C6FFF0E8E219D6F05
:1055D20000EF2BF0D890983799379A379B3796AFD0
:1055E200F5EF2AF0F7EF2AF0F8EF2AF09881D89039
:1055F20093379437953796379C07D8A09D079AAF73
:1056020005EF2BF007EF2BF0EBEF2AF0000E926F75
:1056120096AF0EEF2BF010EF2BF034EF2BF0FF0EC6
:1056220093158D6FFF0E94158E6FFF0E95158F6F6C
:105632007F0E9615906F8D518E118F119011D8B4E7
:1056420025EF2BF027EF2BF02BEF2BF0010E926FB3
:1056520034EF2BF098A130EF2BF032EF2BF034EF38
:105662002BF027EF2BF09251D8B43AEF2BF03CEF0E
:105672002BF060EF2BF0010E9827000E99239A234E
:105682009B239BA147EF2BF049EF2BF060EF2BF010
:1056920098C08DF099C08EF09AC08FF09BC090F0A8
:1056A200903590338F338E338D338DC098F08EC00A
:1056B20099F08FC09AF090C09BF09C4B9D2B9DBFA0
:1056C2006BEF2BF09D5108E19C29D8A06BEF2BF0DA
:1056D2006DEF2BF077EF2BF0000E986F000E996FA5
:1056E200800E9A6F7F0E9B6FA5EF2BF09DBF84EF0C
:1056F2002BF09D5106E19C05D8B082EF2BF084EF90
:105702002BF090EF2BF0000E986F000E996F000EA9
:105712009A6F000E9B6F000E916FA5EF2BF09CC04D
:1057220097F0FF0E9817FF0E99177F0E9A17000E2B
:105732009B1797A19FEF2BF0A1EF2BF0A2EF2BF07D
:105742009A8FD89097319B6F91519B1398C085F097
:1057520099C086F09AC087F09BC088F0120004506E
:10576200800B0D6E04500424136E03AEBBEF2BF0BE
:10577200BDEF2BF0BEEF2BF013801350D8B4C4EF63
:105782002BF0C6EF2BF0D9EF2BF01328D8A4CCEFD7
:105792002BF0CEEF2BF0D6EF2BF0000E016E000EA9
:1057A200026E000E036E000E046E038EE1EF2BF00C
:1057B200000E016E000E026E000E036E000E046EED
:1057C2000850800B0D1A08500824126E07AEECEF39
:1057D2002BF0EEEF2BF0EFEF2BF012801250D8B43B
:1057E200F5EF2BF0F7EF2BF00AEF2CF01228D8A4EC
:1057F200FDEF2BF0FFEF2BF007EF2CF0000E056E04
:10580200000E066E000E076E000E086E078E12EF77
:105812002CF0000E056E000E066E000E076E000ED6
:10582200086E1250D8B418EF2CF01AEF2CF022EFB9
:105832002CF01350D8A420EF2CF022EF2CF02CEFF8
:105842002CF0000E016E000E026E000E036E000EB2
:10585200046EC4EF2DF007500102F3CF18F0F4CF1D
:1058620019F018500E6E0F6A106A116A1950146EF0
:10587200156A166A176A06500202F3CF18F0F4CFBF
:1058820019F018500E26000E0F2210221122195064
:105892001426000E15221622172205500302F3CFFA
:1058A20018F0F4CF19F018500E26000E0F22102215
:1058B200112219501426000E15221622172210C08A
:1058C20011F00FC010F00EC00FF00E6A0550020268
:1058D200F3CF18F0F4CF19F018500E2619500F22FA
:1058E200000E1022000E112206500102F3CF18F012
:1058F200F4CF19F018500E2619500F22000E102264
:10590200000E112210C011F00FC010F00EC00FF0E7
:105912000E6A05500102F3CF18F0F4CF19F01850B7
:105922000E2619500F22000E1022000E11220750CF
:105932000202F3CF18F0F4CF19F0185014261950C0
:105942001522000E1622000E172206500302F3CF74
:1059520018F0F4CF19F01850142619501522000E21
:105962001622000E172207500302F3CF18F0F4CFCD
:1059720019F01850096E19500A6E0B6A0C6A0BC0A6
:105982000CF00AC00BF009C00AF0096A095014268B
:105992000A5015220B5016220C5017220EC009F085
:1059A2000FC00AF010C00BF011C00CF0190EDFEF9F
:1059B2002CF0D8900C320B320A320932E82EDAEF90
:1059C2002CF0095014260A5015220B5016220C50A6
:1059D200172210C011F00FC010F00EC00FF00E6AA7
:1059E200125013C009F00A6A0926000E0A22820E1A
:1059F2000924186EFF0E0A20196E15EF2DF0D890AB
:105A0200143615361636173611AE0AEF2DF00CEF96
:105A12002DF00DEF2DF01480D8900E360F36103683
:105A220011361806D8A0190616AE1AEF2DF01CEF83
:105A32002DF000EF2DF0000E126E11AE23EF2DF0BF
:105A420025EF2DF049EF2DF0FF0E0E14096EFF0E1B
:105A52000F140A6EFF0E10140B6E7F0E11140C6ED3
:105A620009500A100B100C10D8B43AEF2DF03CEF8D
:105A72002DF040EF2DF0010E126E49EF2DF014A023
:105A820045EF2DF047EF2DF049EF2DF03CEF2DF0D3
:105A92001250D8B44FEF2DF051EF2DF075EF2DF0DD
:105AA200010E1426000E15221622172217A05CEFF3
:105AB2002DF05EEF2DF075EF2DF014C009F015C03A
:105AC2000AF016C00BF017C00CF00C340C320B327B
:105AD2000A32093209C014F00AC015F00BC016F0E0
:105AE2000CC017F0184A192A19BE80EF2DF0195070
:105AF20008E11828D8A080EF2DF082EF2DF08CEF6E
:105B02002DF0000E146E000E156E800E166E7F0EB6
:105B1200176EBAEF2DF019BE99EF2DF0195006E16C
:105B22001804D8B097EF2DF099EF2DF0A5EF2DF0D6
:105B3200000E146E000E156E000E166E000E176E1D
:105B4200000E0D6EBAEF2DF018C013F0FF0E1416F2
:105B5200FF0E15167F0E1616000E171613A0B4EFC1
:105B62002DF0B6EF2DF0B7EF2DF0168ED890133042
:105B7200176E0D50171214C001F015C002F016C0B6
:105B820003F017C004F012000001A951800BB66F98
:105B9200A951A925BD6FA8AFD1EF2DF0D3EF2DF0FC
:105BA200D4EF2DF0BD81BD51D8B4DAEF2DF0DCEF8A
:105BB2002DF0F1EF2DF0BD29D8A4E2EF2DF0E4EFA6
:105BC2002DF0ECEF2DF0000EA66F000EA76F000E69
:105BD200A86F000EA96FA88F000EA96FF9EF2DF024
:105BE200000EA66F000EA76F000EA86F000EA96F21
:105BF200AD51800BB61BAD51AD25BE6FACAF04EFFE
:105C02002EF006EF2EF007EF2EF0BE81BE51D8B473
:105C12000DEF2EF00FEF2EF024EF2EF0BE29D8A4B8
:105C220015EF2EF017EF2EF01FEF2EF0000EAA6FD9
:105C3200000EAB6F000EAC6F000EAD6FAC8F000E9E
:105C4200AD6F2CEF2EF0000EAA6F000EAB6F000EA0
:105C5200AC6F000EAD6FAA51AB11AC11AD11D8A44F
:105C620035EF2EF037EF2EF04FEF2EF0000EA66F2D
:105C7200000EA76F000EA86F000EA96F800EA8136A
:105C82007F0EA913B651A913A6C0A6F0A7C0A7F00C
:105C9200A8C0A8F0A9C0A9F092EF2FF0BD51D8A4D6
:105CA20055EF2EF057EF2EF061EF2EF0000EA66F9B
:105CB200000EA76F000EA86F000EA96F92EF2FF0D3
:105CC200BE51BDC0AEF0AF6BAE5F000EAF5B7F0EDC
:105CD200AE25B76F000EAF21B86FA6C0B2F0A7C055
:105CE200B3F0A8C0B4F0A9C0B5F0000EA66F000EC4
:105CF200A76F000EA86F000EA96F000EB96F000EFD
:105D0200BA6F000EBB6F000EBC6F000EBE6FC2EF0B
:105D12002EF0BE51D8B490EF2EF092EF2EF0A9EFF4
:105D22002EF0D890B237B337B437B537D890A637FC
:105D3200A737A837A937BCAFA1EF2EF0A3EF2EF0FB
:105D4200A4EF2EF0A681D890B937BA37BB37BC374B
:105D5200AA51B25DAB51B359AC51B459AD51B55919
:105D6200D8A0B6EF2EF0B8EF2EF0C1EF2EF0BC8D1A
:105D7200AA51B25FAB51B35BAC51B45BAD51B55BF1
:105D8200BE2B190EBE65C8EF2EF0CAEF2EF08AEFB9
:105D92002EF0B251B311B411B511D8B4D3EF2EF025
:105DA200D5EF2EF0EDEF2EF0B981EDEF2EF0D89079
:105DB200A637A737A837A937BCAFE2EF2EF0E4EF3A
:105DC2002EF0E5EF2EF0A681D890B937BA37BB375F
:105DD200BC37B707D8A0B807A8AFF2EF2EF0F4EFA0
:105DE2002EF0D8EF2EF0000EBE6FBCAFFBEF2EF000
:105DF200FDEF2EF021EF2FF0FF0EB915AE6FFF0E63
:105E0200BA15AF6FFF0EBB15B06F7F0EBC15B16F29
:105E1200AE51AF11B011B111D8B412EF2FF014EF8F
:105E22002FF018EF2FF0010EBE6F21EF2FF0A6A179
:105E32001DEF2FF01FEF2FF021EF2FF014EF2FF0B7
:105E4200BE51D8B427EF2FF029EF2FF04DEF2FF0EE
:105E5200010EA627000EA723A823A923A9A134EF88
:105E62002FF036EF2FF04DEF2FF0A6C0AEF0A7C007
:105E7200AFF0A8C0B0F0A9C0B1F0B135B133B033C2
:105E8200AF33AE33AEC0A6F0AFC0A7F0B0C0A8F03B
:105E9200B1C0A9F0B74BB82BB8BF58EF2FF0B8512B
:105EA20008E1B729D8A058EF2FF05AEF2FF065EF8D
:105EB2002FF0000EB86FB769000EA66F000EA76F25
:105EC200000EA86F000EA96FB8BF72EF2FF0B85185
:105ED20006E1B705D8B070EF2FF072EF2FF080EF28
:105EE2002FF0000EB86F000EB76F000EA66F000EF7
:105EF200A76F000EA86F000EA96F000EB66FB7C095
:105F0200BDF0BDA187EF2FF089EF2FF08CEF2FF0BE
:105F1200A88F8DEF2FF0A89FD890BD31A96F43EFC6
:105F22002EF01200DEC0D9FFDFC0DAFFDECFF6FFAF
:105F3200DDCFF7FFF86A0800F550250AD8A4A4EFD0
:105F42002FF0A6EF2FF049EF31F0DEC0D9FFDFC00E
:105F5200DAFFDE2A000EDD22000E376E000E366EEC
:105F620036C0F0F138683968DEC0D9FFDFC0DAFF29
:105F7200DECFF6FFDDCFF7FFF86A0800F5502E0AF4
:105F8200D8A4C6EF2FF0C8EF2FF038EF30F0000E94
:105F9200396E000E386EDEC0D9FFDFC0DAFFDE2AAE
:105FA200000EDD22DEC0D9FFDFC0DAFFDECFF6FF52
:105FB200DDCFF7FFF86A0800F5502A0AD8A4E4EF0B
:105FC2002FF0E6EF2FF003EF30F0DEC0D9FFDFC095
:105FD200DAFFDE2A000EDD22E0C0D9FFE1C0DAFFDF
:105FE200DFCFE2F0020EDE26DFCFE3F0000EDD228D
:105FF200E2C0D9FFE3C0DAFFDECF38F0DDCF39F0FF
:1060020038EF30F0DEC0D9FFDFC0DAFFDECF66F056
:10601200DDCF67F0D4EC35F066C038F067C039F0F8
:106022001AEF30F0DEC0D9FFDFC0DAFFDE2A000E41
:10603200DD22DEC0D9FFDFC0DAFFDECFF6FFDDCF23
:10604200F7FFF86A0800F5CFE2F0D00E0001E22572
:10605200E36FE46BFF0EE423E45109E10A0EE35D12
:10606200D8A036EF30F038EF30F013EF30F0DEC06A
:10607200D9FFDFC0DAFFDECFF6FFDDCFF7FFF86A28
:106082000800F550630AD8A449EF30F04BEF30F026
:106092006FEF30F0DEC0D9FFDFC0DAFFDE2A000E7C
:1060A200DD22E0C0D9FFE1C0DAFFDFCFE2F0020E6D
:1060B200DE26DFCFE3F0000EDD22E2C0D9FFE3C02F
:1060C200DAFFDF500001ED6FDCC06BF0DDC06CF079
:1060D200EDC06DF0E5EC3BF05FEF31F0DEC0D9FFD3
:1060E200DFC0DAFFDECFEEF0DDCFEFF0EEC0F6FF7D
:1060F200EFC0F7FFF86A0800F5CFEDF08DEF30F052
:10610200EE4BEF2BA7EF30F06C0EED6FA7EF30F0F8
:10611200000EED6FA7EF30F00001ED51E26FE36B7F
:10612200E351000AD8B498EF30F089EF30F0E25131
:106132004C0AD8B481EF30F02A0AD8B485EF30F097
:106142000A0AD8B481EF30F089EF30F0EEC0F6FFE2
:10615200EFC0F7FFF86A0800F550660AD8A4B4EF5A
:1061620030F0B6EF30F040EF31F0ECEF30F0E0C05D
:10617200D9FFE1C0DAFFDFCFE2F0040EDE26DFCF87
:10618200E3F0000EDD22E2C0D9FFE3C0DAFFDECF8A
:10619200E5F0DECFE6F0DECFE7F0DECFE8F001EFAC
:1061A20031F0E0C0D9FFE1C0DAFFDFCFE2F0040E48
:1061B200DE26DFCFE3F0000EDD22E2C0D9FFE3C02E
:1061C200DAFFDECFE5F0DECFE6F0DECFE7F0DECFBE
:1061D200E8F001EF31F0ED51E26FE36BE351000AB9
:1061E200D8B4F6EF30F001EF31F0E2514C0AD8B4F6
:1061F200D2EF30F0200AD8B4B8EF30F001EF31F02E
:10620200010EEE25E26F000EEF21E36FDEC0D9FF33
:10621200DFC0DAFFE2C0DEFFE3C0DDFF29EF31F0CD
:10622200DCC0D3F0DDC0D4F0E5C0D5F0E6C0D6F0D6
:10623200E7C0D7F0E8C0D8F0EEC0F6FFEFC0F7FF36
:10624200F86A0800F5CFD9F027EC1DF05FEF31F0C6
:10625200EEC0F6FFEFC0F7FFF86A0800F550E26FF4
:10626200E36BE351000AD8B439EF31F040EF31F07B
:10627200E251660AD8B411EF31F040EF31F0DEC0DE
:10628200D9FFDFC0DAFFDE2A000EDD225FEF31F038
:10629200DEC0D9FFDFC0DAFFDECFF6FFDDCFF7FFCA
:1062A200F86A0800F5500001626F636BDCC064F0AD
:1062B200DDC065F035EC3CF040EF31F012009EC0DD
:1062C200ACF09FC0ADF0A0C0AEF0A1C0AFF0000135
:1062D200A3BF75EF31F0A35109E1800EA25DD8A0F2
:1062E20075EF31F077EF31F0D7EF31F0ACC085F0D8
:1062F200ADC086F0AEC087F0AFC088F0000E896FE7
:10630200000E8A6F000E8B6F7F0E8C6F9AEC29F055
:1063120085C0ACF086C0ADF087C0AEF088C0AFF0EB
:106322000001810EA227FF0EA323A3BFA2EF31F02B
:10633200A35109E1800EA25DD8A0A2EF31F0A4EF33
:1063420031F043EF32F0ACC085F0ADC086F0AEC0A4
:1063520087F0AFC088F0000E896F000E8A6F000EC2
:106362008B6F7F0E8C6F9AEC29F085C0ACF086C0E3
:10637200ADF087C0AEF088C0AFF00001810EA22759
:10638200FF0EA323A3BFCFEF31F0A35109E1800E8B
:10639200A25DD8A0CFEF31F0D1EF31F043EF32F070
:1063A200000EA36F7F0EA26F43EF32F0A3AFE3EFB5
:1063B20031F0820EA25DFF0EA359D8B0E3EF31F0A7
:1063C200E5EF31F043EF32F0ACC085F0ADC086F0BE
:1063D200AEC087F0AFC088F0000E896F000E8A6FE2
:1063E200800E8B6F0C0E8C6F9AEC29F085C0ACF08E
:1063F20086C0ADF087C0AEF088C0AFF0660E000177
:10640200A227000EA323A3AF10EF32F0820EA25DEB
:10641200FF0EA359D8B010EF32F012EF32F043EF73
:1064220032F0ACC085F0ADC086F0AEC087F0AFC030
:1064320088F0000E896F000E8A6F800E8B6F0C0E33
:106442008C6F9AEC29F085C0ACF086C0ADF087C0A5
:10645200AEF088C0AFF0660E0001A227000EA323A3
:10646200A3AF3DEF32F0820EA25DFF0EA359D8B06A
:106472003DEF32F03FEF32F043EF32F0FF0EA36F09
:10648200820EA26F7F0EA225A46F000EA321A56F1C
:10649200A66BA76B170ED890A437A537A637A737D8
:1064A200E82E4CEF32F0A4C0A8F0A5C0A9F0A6C017
:1064B200AAF0A7C0ABF0A8C085F0A9C086F0AAC018
:1064C20087F0ABC088F0ACC089F0ADC08AF0AEC036
:1064D2008BF0AFC08CF09AEC29F085C09EF086C09C
:1064E2009FF087C0A0F088C0A1F09EC09EF09FC020
:1064F2009FF0A0C0A0F0A1C0A1F01200E8C1CFF0AF
:10650200E9C1D0F0EAC1D1F0EBC1D2F0BFC0CFF007
:10651200C0C0D0F0C1C0D1F0C2C0D2F0810E000123
:10652200C36FFF0EC46FCFC0C5F0D0C0C6F0D1C0DC
:10653200C7F0D2C0C8F0180EA4EF32F0D890C8331A
:10654200C733C633C533E82E9FEF32F0C551C3259A
:10655200CD6F000EC421CE6FCEBFB9EF32F0CE5157
:1065620009E1170ECD5DD8A0B9EF32F0BBEF32F0E2
:10657200C5EF32F0BFC0BFF0C0C0C0F0C1C0C1F0B3
:10658200C2C0C2F089EF33F0CEBFCAEF32F0CCEF17
:1065920032F03DEF33F0CDC0C3F0FF0EC46FFF0EFB
:1065A200C56F7F0EC66F000EC76FC367DBEF32F099
:1065B200E3EF32F0C735C733C633C533C433C32F15
:1065C200D6EF32F0C4C0C9F0C5C0CAF0C6C0CBF025
:1065D200C7C0CCF00001C951CF15C36FCA51D01545
:1065E200C46FCB51D115C56FCC51D215C66FC351F3
:1065F200C411C511C611D8A401EF33F003EF33F073
:1066020005EF33F0BBEF32F0CFC0C3F0D0C0C4F01F
:10661200D1C0C5F0D2C0C6F0200E15EF33F0D8902D
:10662200C633C533C433C333E82E10EF33F0C3513E
:10663200C411C511C611D8B421EF33F023EF33F0E2
:106642002BEF33F0C951CF27CA51D023CB51D123DD
:10665200CC51D223C91DC36FCA1DC46FCB1DC56FD8
:10666200CC1DC66FC351CF17C451D017C551D11716
:10667200C651D21781EF33F0CFC0C3F0D0C0C4F0FF
:10668200D1C0C5F0D2C0C6F0200E4DEF33F0D89085
:10669200C633C533C433C333E82E48EF33F0C35196
:1066A200C411C511C611D8A459EF33F05BEF33F012
:1066B20065EF33F0000ECF6F000ED06F000ED16F7A
:1066C200000ED26F81EF33F0D890CF35C36FD03543
:1066D200C46FD135C56FD235C66FC351C411C51150
:1066E200C611D8B477EF33F079EF33F081EF33F09E
:1066F200000ECF6F000ED06F800ED16FBF0ED26F23
:10670200CFC0BFF0D0C0C0F0D1C0C1F0D2C0C2F083
:10671200120000016F6F00016F51D8B493EF33F094
:1067220095EF33F0B7EF33F06ABF9CEF33F09AEF97
:1067320033F0B7EF33F067C06BF068C06CF069C03C
:106742006DF06AC06EF06B1F6C1F6D1F6E1F6B2B9E
:10675200000E6C236D236E236BC071F06CC072F05F
:106762006DC073F06EC074F0BFEF33F067C071F0AC
:1067720068C072F069C073F06AC074F06751681142
:1067820069116A11D8A4C8EF33F0CAEF33F0D4EF1D
:1067920033F0000E676F000E686F000E696F000E17
:1067A2006A6F65EF34F0960E706FDEEF33F0702B88
:1067B200D8907433733372337133000E71156B6F6B
:1067C200000E72156C6F000E73156D6FFE0E741550
:1067D2006E6F6B516C116D116E11D8A4F3EF33F023
:1067E200F5EF33F0D8EF33F003EF34F0702B010EF6
:1067F2007127000E722373237423D890743373337A
:1068020072337133000E71156B6F000E72156C6F5F
:10681200000E73156D6FFF0E74156E6F6B516C1158
:106822006D116E11D8A418EF34F01AEF34F0F7EFAF
:1068320033F022EF34F07007D89071377237733724
:10684200743773BF27EF34F029EF34F031EF34F0AF
