:0400000063EF00F0BA
:100008004682FACF10F0FBCF11F0D9CF12F0DACF39
:1000180013F0F3CF14F0F4CF15F0F6CF16F0F7CFB6
:1000280017F0F8CF18F0F5CF19F0F2AC1EEF00F08A
:1000380020EF00F04DEF00F00E01C5A126EF00F013
:1000480028EF00F03DEF00F0CDA12DEF00F02FEFED
:1000580000F03DEF00F002D83BEF00F00500FA6E2B
:100068003C50FD6E3D50FE6EFF6AFA5012004DEF97
:1000780000F0C5A342EF00F044EF00F04DEF00F0B0
:10008800CDA349EF00F04BEF00F04DEF00F02FEF5C
:1000980000F019C0F5FF18C0F8FF17C0F7FF16C029
:1000A800F6FF15C0F4FF14C0F3FF13C0DAFF12C047
:1000B800D9FF11C0FBFF10C0FAFF46921100DFEF15
:0200C8001BF02B
:100F0000006839263916396C2BDE2C5C39B82EE690
:100F100039DE39D639CE39C639BE39B639503930CD
:100F20003352656164696E6725693A0A0D09546533
:100F30006D703D2575430A0D0948616C6C3D257542
:100F40000A0D0957696E642053706565643D253547
:100F50002E35640A0D094D6F746F72203120466181
:100F6000756C7420436F64653D25750A0D094D6FDE
:100F7000746F722032204661756C7420436F646513
:050F80003D2575000095
:100F86001D50800B0001606F1D501D24666F1CAE46
:100F9600CFEF07F0D1EF07F0D2EF07F06681665189
:100FA600D8B4D8EF07F0DAEF07F0EDEF07F06629CF
:100FB600D8A4E0EF07F0E2EF07F0EAEF07F0000E43
:100FC6001A6E000E1B6E000E1C6E000E1D6E1C8E21
:100FD600F5EF07F0000E1A6E000E1B6E000E1C6E6B
:100FE600000E1D6E2150800B601B21502124616F65
:100FF60020AE00EF08F002EF08F003EF08F0618181
:101006006151D8B409EF08F00BEF08F01EEF08F0B5
:101016006129D8A411EF08F013EF08F01BEF08F0D0
:10102600000E1E6E000E1F6E000E206E000E216E4C
:10103600208E26EF08F0000E1E6E000E1F6E000EAC
:10104600206E000E216E6151D8B42CEF08F02EEF01
:1010560008F036EF08F06651D8A434EF08F036EF02
:1010660008F040EF08F0000E1A6E000E1B6E000E20
:101076001C6E000E1D6ED8EF09F020501A02F3CF39
:101086006BF0F4CF6CF06B51626F636B646B656BE6
:101096006C51676F686B696B6A6B1F501B02F3CFED
:1010A6006BF0F4CF6CF06B516227000E6323642360
:1010B60065236C516727000E682369236A231E5037
:1010C6001C02F3CF6BF0F4CF6CF06B516227000E6D
:1010D6006323642365236C516727000E6823692305
:1010E6006A2364C065F063C064F062C063F0626B3B
:1010F6001E501B02F3CF6BF0F4CF6CF06B516227DE
:101106006C516323000E6423000E65231F501A02E0
:10111600F3CF6BF0F4CF6CF06B5162276C51632305
:10112600000E6423000E652364C065F063C064F09E
:1011360062C063F0626B1E501A02F3CF6BF0F4CFFD
:101146006CF06B5162276C516323000E6423000E12
:10115600652320501B02F3CF6BF0F4CF6CF06B517C
:1011660067276C516823000E6923000E6A231F50FF
:101176001C02F3CF6BF0F4CF6CF06B5167276C5108
:101186006823000E6923000E6A2320501C02F3CF49
:101196006BF0F4CF6CF06B51226E6C51236E246AA7
:1011A600256A24C025F023C024F022C023F0226A39
:1011B60022506727235068232450692325506A2329
:1011C60062C022F063C023F064C024F065C025F03D
:1011D600190EF3EF08F0D89025322432233222324A
:1011E600E82EEEEF08F0225067272350682324509C
:1011F600692325506A2364C065F063C064F062C049
:1012060063F0626B615166C022F0236A2226000EEB
:101216002322820E22246B6FFF0E23206C6F29EF90
:1012260009F0D8906737683769376A3765AF1EEFB8
:1012360009F020EF09F021EF09F06781D8906237B5
:101246006337643765376B07D8A06C0769AF2EEF35
:1012560009F030EF09F014EF09F0000E616F65AF89
:1012660037EF09F039EF09F05DEF09F0FF0E62156F
:10127600226EFF0E6315236EFF0E6415246E7F0E1D
:101286006515256E2250231024102510D8B44EEF74
:1012960009F050EF09F054EF09F0010E616F5DEFB0
:1012A60009F067A159EF09F05BEF09F05DEF09F06E
:1012B60050EF09F06151D8B463EF09F065EF09F01A
:1012C60089EF09F0010E6727000E682369236A2358
:1012D6006AA170EF09F072EF09F089EF09F067C0B3
:1012E60022F068C023F069C024F06AC025F02534D6
:1012F600253224322332223222C067F023C068F01E
:1013060024C069F025C06AF06B4B6C2B6CBF94EF60
:1013160009F06C5108E16B29D8A094EF09F096EF1B
:1013260009F0A0EF09F0000E676F000E686F800EDF
:10133600696F7F0E6A6FCEEF09F06CBFADEF09F0F3
:101346006C5106E16B05D8B0ABEF09F0ADEF09F0D3
:10135600B9EF09F0000E676F000E686F000E696F37
:10136600000E6A6F000E606FCEEF09F06BC066F07C
:10137600FF0E6717FF0E68177F0E6917000E6A17B4
:1013860066A1C8EF09F0CAEF09F0CBEF09F0698F43
:10139600D89066316A6F60516A1367C01AF068C0E8
:1013A6001BF069C01CF06AC01DF012008FC0D9FF87
:1013B60090C0DAFFDECFF6FFDDCFF7FFF86A080050
:1013C600F550250AD8A4EAEF09F0ECEF09F0CFEFC3
:1013D6000BF08FC0D9FF90C0DAFFDE2A000EDD22A7
:1013E600000E396E000E386E38C03EF03A683B6823
:1013F6008FC0D9FF90C0DAFFDECFF6FFDDCFF7FF53
:10140600F86A0800F5502A0AD8A40CEF0AF00EEF85
:101416000AF037EF0AF08FC0D9FF90C0DAFFDE2A54
:10142600000EDD2291C0D9FF92C0DAFFDFCF93F024
:10143600020EDE26DFCF94F0000EDD2293C0D9FF28
:1014460094C0DAFFDECF38F0DDCF39F039BE30EFA9
:101456000AF02EEF0AF06CEF0AF03E80386C391E67
:10146600D8B0392A6CEF0AF08FC0D9FF90C0DAFFE6
:10147600DECF20F0DDCF21F01FEC13F020C038F0D6
:1014860021C039F04EEF0AF08FC0D9FF90C0DAFFC5
:10149600DE2A000EDD228FC0D9FF90C0DAFFDECF34
:1014A600F6FFDDCFF7FFF86A0800F5CF93F0D00E10
:1014B60000019325946F956BFF0E9523955109E1D5
:1014C6000A0E945DD8A06AEF0AF06CEF0AF047EFB7
:1014D6000AF08FC0D9FF90C0DAFFDECFF6FFDDCF6E
:1014E600F7FFF86A0800F5502E0AD8A47DEF0AF037
:1014F6007FEF0AF0EFEF0AF0000E3B6E000E3A6E39
:101506008FC0D9FF90C0DAFFDE2A000EDD228FC021
:10151600D9FF90C0DAFFDECFF6FFDDCFF7FFF86A1E
:101526000800F5502A0AD8A49BEF0AF09DEF0AF0AE
:10153600BAEF0AF08FC0D9FF90C0DAFFDE2A000E9C
:10154600DD2291C0D9FF92C0DAFFDFCF93F0020E01
:10155600DE26DFCF94F0000EDD2293C0D9FF94C0C3
:10156600DAFFDECF3AF0DDCF3BF0EFEF0AF08FC0C7
:10157600D9FF90C0DAFFDECF20F0DDCF21F01FECDF
:1015860013F020C03AF021C03BF0D1EF0AF08FC033
:10159600D9FF90C0DAFFDE2A000EDD228FC0D9FF08
:1015A60090C0DAFFDECFF6FFDDCFF7FFF86A08005E
:1015B600F5CF93F0D00E00019325946F956BFF0E37
:1015C6009523955109E10A0E945DD8A0EDEF0AF036
:1015D600EFEF0AF0CAEF0AF08FC0D9FF90C0DAFF2A
:1015E600DECF9FF0DDCFA0F09FC0F6FFA0C0F7FFD3
:1015F600F86A0800F550640AD8B404EF0BF006EF59
:101606000BF015EF0BF09FC0F6FFA0C0F7FFF86ACE
:101616000800F550690AD8A413EF0BF015EF0BF08C
:1016260059EF0BF091C0D9FF92C0DAFFDFCF93F0EC
:10163600020EDE26DFCF94F0000EDD2293C0D9FF26
:1016460094C0DAFFDECF97F0DDCF98F00001000EF0
:1016560098BFFF0E996F9A6F9B6F9C6F9D6F9E6FE1
:10166600010E9F25936F000EA021946F8FC0D9FFA6
:1016760090C0DAFF93C0DEFF94C0DDFF8DC06AF034
:101686008EC06BF097C06CF098C06DF099C06EF08C
:101696009AC06FF09BC070F09CC071F09DC072F054
:1016A6009EC073F0B3EC0DF0E4EF0BF09FC0F6FFB5
:1016B600A0C0F7FFF86A0800F550750AD8A466EFCF
:1016C6000BF068EF0BF0C6EF0BF091C0D9FF92C09C
:1016D600DAFFDFCF93F0020EDE26DFCF94F0000EA6
:1016E600DD2293C0D9FF94C0DAFFDECF95F0DDCFBF
:1016F60096F095C097F096C098F00001996B9A6B9A
:101706009B6B9C6B9D6B9E6B010E9F25936F000ED2
:10171600A021946F8FC0D9FF90C0DAFF93C0DEFF7F
:1017260094C0DDFFAFEF0BF08DC06AF08EC06BF09A
:1017360097C06CF098C06DF099C06EF09AC06FF0CB
:101746009BC070F09CC071F09DC072F09EC073F09B
:10175600EBEC0FF0E4EF0BF09FC0F6FFA0C0F7FF35
:10176600F86A0800F550936F946B9451000AD8B448
:10177600BFEF0BF0C6EF0BF09351750AD8B497EF95
:101786000BF0C6EF0BF08FC0D9FF90C0DAFFDE2A50
:10179600000EDD22E4EF0BF08FC0D9FF90C0DAFF18
:1017A600DECFF6FFDDCFF7FFF86A0800F5501C6EB6
:1017B6001D6A8DC01EF08EC01FF011EC17F0C6EF2B
:1017C6000BF012002950800B0001756F2950292457
:1017D6007C6F28AEF1EF0BF0F3EF0BF0F4EF0BF0AC
:1017E6007C817C51D8B4FAEF0BF0FCEF0BF011EFD3
:1017F6000CF07C29D8A402EF0CF004EF0CF00CEFEF
:101806000CF0000E266E000E276E000E286E000EDF
:10181600296E288E000E296E19EF0CF0000E266E2A
:10182600000E276E000E286E000E296E2D50800BBE
:10183600751B2D502D247D6F2CAE24EF0CF026EF5A
:101846000CF027EF0CF07D817D51D8B42DEF0CF014
:101856002FEF0CF044EF0CF07D29D8A435EF0CF0F7
:1018660037EF0CF03FEF0CF0000E2A6E000E2B6ED9
:10187600000E2C6E000E2D6E2C8E000E2D6E4CEF73
:101886000CF0000E2A6E000E2B6E000E2C6E000E53
:101896002D6E2A502B102C102D10D8A455EF0CF0BD
:1018A60057EF0CF06FEF0CF0000E266E000E276E51
:1018B600000E286E000E296E800E28127F0E291249
:1018C6007551291226C026F027C027F028C028F017
:1018D60029C029F0B2EF0DF07C51D8A475EF0CF0B9
:1018E60077EF0CF081EF0CF0000E266E000E276EDF
:1018F600000E286E000E296EB2EF0DF07D517CC0F1
:101906006DF06E6B6D5F000E6E5B7F0E6D25766FF4
:10191600000E6E21776F26C071F027C072F028C0C6
:1019260073F029C074F0000E266E000E276E000EAE
:10193600286E000E296E000E786F000E796F000E6D
:101946007A6F000E7B6F000E7D6FE2EF0CF07D511B
:10195600D8B4B0EF0CF0B2EF0CF0C9EF0CF0D890A1
:101966007137723773377437D8902636273628364C
:1019760029367BAFC1EF0CF0C3EF0CF0C4EF0CF0CF
:101986002680D890783779377A377B372A50715D39
:101996002B5072592C5073592D507459D8A0D6EF2C
:1019A6000CF0D8EF0CF0E1EF0CF07B8D2A50715F54
:1019B6002B50725B2C50735B2D50745B7D2B190E74
:1019C6007D65E8EF0CF0EAEF0CF0AAEF0CF0715130
:1019D600721173117411D8B4F3EF0CF0F5EF0CF02B
:1019E6000DEF0DF078810DEF0DF0D89026362736E5
:1019F600283629367BAF02EF0DF004EF0DF005EF28
:101A06000DF02680D890783779377A377B37760786
:101A1600D8A0770728AE12EF0DF014EF0DF0F8EF0F
:101A26000CF0000E7D6F7BAF1BEF0DF01DEF0DF080
:101A360041EF0DF0FF0E78156D6FFF0E79156E6F85
:101A4600FF0E7A156F6F7F0E7B15706F6D516E11DD
:101A56006F117011D8B432EF0DF034EF0DF038EF8E
:101A66000DF0010E7D6F41EF0DF026A03DEF0DF05C
:101A76003FEF0DF041EF0DF034EF0DF07D51D8B48E
:101A860047EF0DF049EF0DF06DEF0DF0010E262634
:101A9600000E27222822292229A054EF0DF056EF06
:101AA6000DF06DEF0DF026C06DF027C06EF028C06A
:101AB6006FF029C070F0703570336F336E336D334D
:101AC6006DC026F06EC027F06FC028F070C029F0F8
:101AD600764B772B77BF78EF0DF0775108E17629B3
:101AE600D8A078EF0DF07AEF0DF085EF0DF0000E2F
:101AF600776F7669000E266E000E276E000E286E32
:101B0600000E296E77BF92EF0DF0775106E176054C
:101B1600D8B090EF0DF092EF0DF0A0EF0DF0000EA3
:101B2600776F000E766F000E266E000E276E000E83
:101B3600286E000E296E000E756F76C07CF07CA1B3
:101B4600A7EF0DF0A9EF0DF0ACEF0DF0288EADEF7D
:101B56000DF0289ED8907C31296E63EF0CF01200B0
:101B66006CC082F06DC083F06EC084F06FC085F0EB
:101B760070C086F071C087F072C088F073C089F0BB
:101B8600000189BFC9EF0DF0CCEF0DF0010ECDEFCE
:101B96000DF0000E8A6F8A51D8B4D4EF0DF0D6EF4F
:101BA6000DF0E6EF0DF0891F881F871F861F851F22
:101BB600841F831F826D000E83238423852386233F
:101BC6008723882389233BBEF3EF0DF03B5006E1C4
:101BD6003A04D8B0F1EF0DF0F3EF0DF0F9EF0DF098
:101BE600000E7F6F010E7E6FFDEF0DF03AC07EF0A6
:101BF6003BC07FF038C080F039C081F08A51D8B43C
:101C060007EF0EF009EF0EF020EF0EF08007D8A0D8
:101C160081078A51D8A412EF0EF014EF0EF01AEFD6
:101C26000EF0000E7D6F2B0E7C6F1EEF0EF0000E79
:101C36007D6F2D0E7C6F7CC08AF0000E8C6F1F0EA0
:101C46008B6F000EFF6FA5EF0EF08B07D8A08C07E9
:101C5600E00E8B25D96E000E8C21DA6E82C01AF04A
:101C660083C01BF084C01CF085C01DF086C01EF02A
:101C760087C01FF088C020F089C021F00A0E226EAE
:101C8600000E236E000E246E000E256E000E266ECC
:101C9600000E276E000E286E000E296E6DEC12F0F7
:101CA6001AC074F01BC075F01CC076F01DC077F02A
:101CB6001EC078F01FC079F020C07AF021C07BF0FA
:101CC60074C02CF075C02DF03AEC1AF02C50300F81
:101CD600DF6E00017E07D8A07F078007D8A08107A6
:101CE60082C01AF083C01BF084C01CF085C01DF0B2
:101CF60086C01EF087C01FF088C020F089C021F082
:101D06000A0E226E000E236E000E246E000E256E45
:101D1600000E266E000E276E000E286E000E296E2F
:101D2600A8EC11F01AC082F01BC083F01CC084F02E
:101D36001DC085F01EC086F01FC087F020C088F049
:101D460021C089F000018CBFB1EF0EF08C5108E183
:101D56008B05D8A0B1EF0EF0B3EF0EF0CFEF0EF07B
:101D66008251831184118511861187118811891179
:101D7600D8A4C0EF0EF0C2EF0EF028EF0EF07FBF32
:101D8600CFEF0EF07F5106E17E05D8B0CDEF0EF015
:101D9600CFEF0EF028EF0EF08A51D8B4D5EF0EF043
:101DA600D7EF0EF0E2EF0EF08B07D8A08C07E00E0F
:101DB6008B25D96E000E8C21DA6E8AC0DFFF6AC0D1
:101DC60060F06BC061F0E00E8B25626F000E8C2117
:101DD600636F80C064F081C065F018EC16F01200E5
:101DE60001EC1CF0B9EC1AF0F28EF28C000E010137
:101DF600036F000E026F000E0D6F000E0C6F000ECB
:101E0600076FA2EC1CF00101046F6AEC1BF026C000
:101E160000F127C001F1C9EC13F07EC008F17FC0C4
:101E260009F180C00AF181C00BF18DB21DEF0FF0F0
:101E36001FEF0FF024EF0FF0D10E9BEC1CF0010109
:101E4600056F8DB429EF0FF02BEF0FF030EF0FF089
:101E5600C10E9BEC1CF00101066F000E1A6E000EFF
:101E66001B6E200E1C6E410E1D6E08C11EF009C1B0
:101E76001FF00AC120F00BC121F053EC14F0D8B0CA
:101E860047EF0FF049EF0FF05CEF0FF001010DBFC8
:101E960058EF0FF00D5107E1050E0C5DD8B056EF67
:101EA6000FF058EF0FF05CEF0FF00C4B0D2B9DEF82
:101EB6000FF0000E1A6E000E1B6E200E1C6E410EE9
:101EC6001D6E08C11EF009C11FF00AC120F00BC12A
:101ED60021F053EC14F0D8B073EF0FF075EF0FF05C
:101EE60098EF0FF001010DBF82EF0FF00D5109E1E0
:101EF600050E0C5DD8A082EF0FF084EF0FF098EF7F
:101F06000FF00751D8B48AEF0FF08CEF0FF093EF74
:101F16000FF063EC19F0010E0101076F98EF0FF057
:101F26002EEC19F0000E0101076F000E01010D6F76
:101F3600000E0C6F7FEC1BF00009D8B4A5EF0FF074
:101F4600A7EF0FF004EF0FF0210E0001A96F0F0E9F
:101F5600AA6F0101024B032B02C1ABF003C1ACF027
:101F660004C1ADF00001AE6B00C1AFF001C1B0F02D
:101F760008C1B1F009C1B2F00AC1B3F00BC1B4F0A7
:101F860005C1B5F0B66B06C1B7F0B86B94EC1BF0A3
:101F960084BAD0EF0FF0D3EF0FF0010ED4EF0FF0AD
:101FA600000EFF0A0001BB6FBB3BBB478450BB1949
:101FB600DF0BBB19846E340E0001BB6FF10EE82EE9
:101FC600FED7BB2FFCD700D004EF0FF063EF00F075
:101FD6003BBEF8EF0FF03B5006E13A04D8B0F6EFFF
:101FE6000FF0F8EF0FF0FFEF0FF0000E00017F6F1C
:101FF600010E7E6F03EF10F03AC07EF03BC07FF01B
:1020060038C07CF039C07DF06CC080F06DC081F0C6
:102016006EC082F06FC083F070C084F071C085F02E
:1020260072C086F073C087F0000E0001896F1F0E24
:10203600886F000EFF6F97EF10F08807D8A089070A
:10204600E00E8825D96E000E8921DA6E80C01AF05E
:1020560081C01BF082C01CF083C01DF084C01EF03E
:1020660085C01FF086C020F087C021F00A0E226EC0
:10207600000E236E000E246E000E256E000E266ED8
:10208600000E276E000E286E000E296E4EEC15F01F
:102096001AC074F01BC075F01CC076F01DC077F036
:1020A6001EC078F01FC079F020C07AF021C07BF006
:1020B60000017451300FDF6E7E07D8A07F077C07C2
:1020C600D8A07D0780C01AF081C01BF082C01CF02A
:1020D60083C01DF084C01EF085C01FF086C020F0AE
:1020E60087C021F00A0E226E000E236E000E246EAB
:1020F600000E256E000E266E000E276E000E286E50
:10210600000E296ED5EC14F01AC080F01BC081F0C9
:102116001CC082F01DC083F01EC084F01FC085F075
:1021260020C086F021C087F0000188518911D8B4FB
:102136009FEF10F0A1EF10F0BDEF10F0805181116C
:10214600821183118411851186118711D8A4AEEFEF
:1021560010F0B0EF10F020EF10F07FBFBDEF10F0E1
:102166007F5106E17E05D8B0BBEF10F0BDEF10F051
:1021760020EF10F06AC060F06BC061F0E00E8825B9
:10218600626F000E8921636F7CC064F07DC065F0CC
:1021960018EC16F01200296E2950D8B4D5EF10F0BD
:1021A600D7EF10F0F9EF10F024BEDEEF10F0DCEF01
:1021B60010F0F9EF10F021C025F022C026F023C060
:1021C60027F024C028F0251E261E271E281E252A95
:1021D600000E26222722282225C02BF026C02CF00E
:1021E60027C02DF028C02EF001EF11F021C02BF0F2
:1021F60022C02CF023C02DF024C02EF02150221036
:1022060023102410D8A40AEF11F00CEF11F016EFEA
:1022160011F0000E216E000E226E000E236E000ECF
:10222600246EA7EF11F0960E2A6E20EF11F02A2ADF
:10223600D8902E322D322C322B32000E2B14256ED6
:10224600000E2C14266E000E2D14276EFE0E2E1474
:10225600286E2550261027102810D8A435EF11F027
:1022660037EF11F01AEF11F045EF11F02A2A010E9F
:102276002B26000E2C222D222E22D8902E322D32E5
:102286002C322B32000E2B14256E000E2C14266ECB
:10229600000E2D14276EFF0E2E14286E25502610C4
:1022A60027102810D8A45AEF11F05CEF11F039EF7F
:1022B60011F064EF11F02A06D8902B362C362D3605
:1022C6002E362DBE69EF11F06BEF11F073EF11F0A2
:1022D600020E2A6071EF11F073EF11F05EEF11F04C
:1022E6002AB078EF11F07AEF11F07BEF11F02D9E06
:1022F600D8902A322AC025F0266A276A286A25C07D
:1023060028F0276A266A256A25502B1226502C1299
:1023160027502D1228502E122950D8B495EF11F0BF
:1023260097EF11F09FEF11F024BE9EEF11F09CEF96
:1023360011F09FEF11F02E8E2BC021F02CC022F051
:102346002DC023F02EC024F01200000E0001616F94
:1023560029BEB2EF11F0B0EF11F0C4EF11F0291E53
:10236600281E271E261E251E241E231E226C000E36
:102376002322242225222622272228222922010E50
:10238600616F21BECBEF11F0C9EF11F0DDEF11F057
:10239600211E201E1F1E1E1E1D1E1C1E1B1E1A6C0D
:1023A600000E1B221C221D221E221F222022212259
:1023B600010E611B20EE62F0070EDE6AE806FDE202
:1023C600225023102410251026102710281029101B
:1023D600D8B4F0EF11F0F2EF11F044EF12F0010E65
:1023E600606F00EF12F0D890223623362436253659
:1023F6002636273628362936602B29AE05EF12F009
:1024060007EF12F0F6EF11F0D890623763376437B2
:102416006537663767376837693722501A5C235045
:102426001B5824501C5825501D5826501E582750FE
:102436001F582850205829502158D8A025EF12F0AF
:1024460027EF12F038EF12F022501A5E23501B5A73
:1024560024501C5A25501D5A26501E5A27501F5AC2
:102466002850205A2950215A6281D8902932283280
:10247600273226322532243223322232602F07EFCA
:1024860012F06151D8B44AEF12F04CEF12F05CEF43
:1024960012F0691F681F671F661F651F641F631F91
:1024A600626D000E63236423652366236723682316
:1024B600692362C01AF063C01BF064C01CF065C0DB
:1024C6001DF066C01EF067C01FF068C020F069C02E
:1024D60021F01200000E2B6E21BE76EF12F074EF83
:1024E60012F088EF12F0211E201E1F1E1E1E1D1E3A
:1024F6001C1E1B1E1A6C000E1B221C221D221E22D5
:102506001F2220222122010E2B6E29BE8FEF12F0F0
:102516008DEF12F09FEF12F0291E281E271E261E91
:10252600251E241E231E226C000E23222422252271
:102536002622272228222922225023102410251061
:102546002610271028102910D8B4ACEF12F0AEEFE1
:1025560012F0F6EF12F0010E2A6EBCEF12F0D890D0
:102566002236233624362536263627362836293689
:102576002A2A29AEC1EF12F0C3EF12F0B2EF12F021
:1025860022501A5C23501B5824501C5825501D58A5
:1025960026501E5827501F58285020582950215879
:1025A600D8A0D8EF12F0DAEF12F0EAEF12F02250CC
:1025B6001A5E23501B5A24501C5A25501D5A265069
:1025C6001E5A27501F5A2850205A2950215AD8904F
:1025D6002932283227322632253224322332223239
:1025E6002A2EC3EF12F02B50D8B4FCEF12F0FEEFF8
:1025F60012F00EEF13F0211E201E1F1E1E1E1D1EA2
:102606001C1E1B1E1A6C000E1B221C221D221E22C3
:102616001F22202221221AC01AF01BC01BF01CC048
:102626001CF01DC01DF01EC01EF01FC01FF020C0F4
:1026360020F021C021F01200000E286E000E276E39
:10264600000E266E000E256E2BEF13F0204A212A6F
:1026560020C0F6FF21C0F7FFF86A0800F550200AEF
:10266600D8B438EF13F03AEF13F029EF13F020C087
:10267600F6FF21C0F7FFF86A0800F5CF22F0F70E43
:102686002224236E246AFF0E2422245009E1050E1B
:10269600235CD8A051EF13F053EF13F029EF13F09A
:1026A6005DEF13F0000E266E010E256E204A212ADC
:1026B60094EF13F020C0F6FF21C0F7FFF86A080078
:1026C600F550226E236A2350000AD8B46DEF13F03A
:1026D60094EF13F022502B0AD8B459EF13F0060AE0
:1026E600D8B455EF13F094EF13F027C01AF028C0B2
:1026F6001BF0000E1D6E0A0E1C6EA8EC1BF020C00F
:10270600F6FF21C0F7FFF86A0800F5501A5E000EC2
:102716001B5A300E1A24276E000E1B20286E59EF06
:1027260013F020C0F6FF21C0F7FFF86A0800F5CFC6
:1027360022F0D00E2224236E246AFF0E2422245077
:1027460009E10A0E235CD8A0ABEF13F0ADEF13F04E
:1027560078EF13F025502610D8A4B4EF13F0B6EF97
:1027660013F0C4EF13F027C022F028C023F0221E76
:10277600231E224A232A22C020F023C021F0C8EFBC
:1027860013F027C020F028C021F0120055EC1BF0F2
:102796003050325C1C6E315033581D6E3450365CEE
:1027A6001A6E355037581B6E14EC18F01AC021F00B
:1027B6001BC022F0236A246A000ECEEC10F021C062
:1027C60082F022C083F023C084F024C085F0000E7E
:1027D6001E6E000E1F6E000E206E400E216E82C011
:1027E6001AF083C01BF084C01CF085C01DF0C3EC3A
:1027F60007F01AC08AF01BC08BF01CC08CF01DC0FD
:102806008DF0DB0E1E6E0F0E1F6E490E206E400EF3
:10281600216E8AC01AF08BC01BF08CC01CF08DC0D4
:102826001DF0C3EC07F01AC08EF01BC08FF01CC061
:1028360090F01DC091F08F0E1E6EC20E1F6E750EAB
:10284600206E3C0E216E8EC01AF08FC01BF090C019
:102856001CF091C01DF0C3EC07F01AC026F01BC097
:1028660027F01CC028F01DC029F0000E2A6E000EAD
:102876002B6E800E2C6E450E2D6EE5EC0BF026C0F1
:1028860086F027C087F028C088F029C089F086C066
:102896007EF087C07FF088C080F089C081F012008A
:1028A600000E1A14226E000E1B14236E800E1C14CA
:1028B600246E7F0E1D14256E225023102410251021
:1028C600D8A468EF14F06AEF14F072EF14F0000E5B
:1028D6001A6E000E1B6E000E1C6E000E1D6E000E94
:1028E6001E14226E000E1F14236E800E2014246EFA
:1028F6007F0E2114256E2250231024102510D8A4F3
:1029060087EF14F089EF14F091EF14F0000E1E6EAD
:10291600000E1F6E000E206E000E216E1DAE96EF8D
:1029260014F098EF14F0A1EF14F01A6C1B1ED8B037
:102936001B2A1C1ED8B01C2A800E1D5621AEA6EFDF
:1029460014F0A8EF14F0B1EF14F01E6C1F1ED8B0EF
:102956001F2A201ED8B0202A800E2156000E1A1AD1
:10296600000E1B1A000E1C1A800E1D1A000E1E1ACF
:10297600000E1F1A000E201A800E211A1E501A5C15
:102986001F501B5820501C5821501D58D8B0CEEF50
:1029960014F0D0EF14F0D3EF14F0D890D4EF14F075
:1029A600D880120020EE60F0070EDE6AE806FDE22F
:1029B6002250231024102510261027102810291025
:1029C600D8B4E8EF14F0EAEF14F03DEF15F0010E7D
:1029D6000001686FF9EF14F0D890223623362436BA
:1029E60025362636273628362936682B29AEFEEFB9
:1029F60014F000EF15F0EFEF14F0D8906037613760
:102A060062376337643765376637673722501A5C33
:102A160023501B5824501C5825501D5826501E580C
:102A260027501F582850205829502158D8A01EEF4B
:102A360015F020EF15F031EF15F022501A5E2350F5
:102A46001B5A24501C5A25501D5A26501E5A2750D0
:102A56001F5A2850205A2950215A6081D89029326D
:102A66002832273226322532243223322232682F68
:102A760000EF15F060C01AF061C01BF062C01CF0D8
:102A860063C01DF064C01EF065C01FF066C020F074
:102A960067C021F0120022502310241025102610A2
:102AA600271028102910D8B45BEF15F05DEF15F04C
:102AB600A5EF15F0010E2A6E6BEF15F0D8902236B1
:102AC60023362436253626362736283629362A2A28
:102AD60029AE70EF15F072EF15F061EF15F0225088
:102AE6001A5C23501B5824501C5825501D5826503C
:102AF6001E5827501F582850205829502158D8A012
:102B060087EF15F089EF15F099EF15F022501A5E50
:102B160023501B5A24501C5A25501D5A26501E5A03
:102B260027501F5A2850205A2950215AD890293206
:102B360028322732263225322432233222322A2ED6
:102B460072EF15F01AC01AF01BC01BF01CC01CF067
:102B56001DC01DF01EC01EF01FC01FF020C020F0BB
:102B660021C021F0120081EC1CF00009D8B4BEEFA0
:102B760015F0C0EF15F0FBEF15F0CEEF15F0F3EC06
:102B86001CF017EF16F0EFEC1CF017EF16F0E7EC61
:102B96001CF017EF16F0CEC00AF0CFC00BF002D82B
:102BA600DFEF15F00500FA6E0001C251FD6EC3514C
:102BB600FE6EFF6AFA5012000C6E0D6A0D50000A86
:102BC600D8B4E8EF15F0CAEF15F00C50010AD8B4E6
:102BD600CAEF15F0030AD8B4C2EF15F0010AD8B44B
:102BE600C6EF15F0070AD8B4CAEF15F0CAEF15F00C
:102BF6000001DF91D9C0D9FFDAC0DAFFD94BDA2B51
:102C0600DF50F7EC1CF00001DB07D8A0DC07DB5136
:102C1600DC11D8A411EF16F013EF16F016EF16F02C
:102C2600060E17EF16F0030E12003EA01DEF16F06B
:102C36001FEF16F029EF16F062C025F063C026F0EC
:102C460060C027F061C028F018EC1AF0000165BFDB
:102C56002FEF16F031EF16F037EF16F064C068F07C
:102C660065C069F03BEF16F0000E696F000E686FE5
:102C7600000E676F000E666F4EEF16F0000E1D6EAB
:102C8600200E1C6E60C01EF061C01FF011EC17F024
:102C96000001664B672B6851665D6751800A2C6E92
:102CA6006951800A2C58D8A05BEF16F05DEF16F03C
:102CB60041EF16F03EB062EF16F064EF16F06EEFDD
:102CC60016F062C025F063C026F060C027F061C030
:102CD60028F018EC1AF0120021EC1DF0D9C0D9FF2B
:102CE600DAC0DAFFDF6E0001D94BDA2BDB07D8A09A
:102CF600DC07DB51DC11D8B483EF16F085EF16F054
:102D06008AEF16F013EC1DF0050EC1EF16F0DF8703
:102D160095EF16F0DBEC1CF0C1EF16F0DFEC1CF0C3
:102D2600C1EF16F0C8C00AF0C9C00BF002D8A5EF73
:102D360016F00500FA6EBC51FD6EBD51FE6EFF6ABF
:102D4600FA5012000C6E0D6A0D50000AD8B4AEEFA0
:102D560016F091EF16F00C50010AD8B491EF16F068
:102D6600030AD8B48DEF16F0010AD8B48DEF16F029
:102D7600070AD8B491EF16F091EF16F012001C6E08
:102D8600010E1D6E0001DFB5CBEF16F0CDEF16F08C
:102D96000FEF17F01CC0D8F0DF93DF85DF910E0E22
:102DA600DD6F010ED76FF40ED66FDF874E0EBC6F48
:102DB6003A0EBD6F000EC86F000EC96F4E0EBE6F85
:102DC6003A0EBF6F000ECA6F000ECB6F4E0EC06F6D
:102DD6003A0EC16F000ECC6F000ECD6F4E0EC26F55
:102DE6003A0EC36F000ECE6F000ECF6F4A0EC46F41
:102DF6003A0EC56F000ED06F000ED16F140E1A6E0C
:102E06003A0E1B6EBFEC1CF007EC1DF0F0EC1BF04D
:102E160001EC1DF0000E1D6E1D5012001E501F10FD
:102E2600D8B418EF17F01AEF17F023EF17F01E506B
:102E36001F10D8A421EF17F023EF17F028EF17F093
:102E46001C50BAEC1CF05BEF17F020EE09F01E5098
:102E5600D9261F50DA22DE50DE10D8B435EF17F02F
:102E660037EF17F052EF17F020EE09F01E50D92673
:102E76001F50DA2210EE03F01E50E1261F50E22208
:102E8600DE50E65CE650800A246EDE50800A245846
:102E9600D8B050EF17F052EF17F05BEF17F020EEB7
:102EA60003F01E50D9261F50DA22DE2A000EDD223C
:102EB60012000001DF876DEF17F0EBEC1CF099EFC5
:102EC60017F010EC1DF0030E99EF17F0E7EC1CF06D
:102ED60099EF17F0C8C00AF0C9C00BF002D87DEF11
:102EE60017F00500FA6EBC51FD6EBD51FE6EFF6A0D
:102EF600FA5012000C6E0D6A0D50000AD8B486EF17
:102F060017F069EF17F00C50010AD8B469EF17F003
:102F1600030AD8B460EF17F0010AD8B460EF17F0CF
:102F2600070AD8B464EF17F069EF17F012001E6EA7
:102F36001A501B10D8B4A2EF17F0A4EF17F0BEEF8B
:102F460017F01E50020DBC0EF324D96E000EF420AD
:102F5600DA6E1AC0DEFF1BC0DDFF1E50020DC80E62
:102F6600F324D96E000EF420DA6E1CC0DEFF1DC0FD
:102F7600DDFFD6EF17F01E50020DBC0EF324D96EFE
:102F8600000EF420DA6E4E0EDE6E3A0EDD6E1E5028
:102F9600020DC80EF324D96E000EF420DA6E000E70
:102FA600DE6E000EDD6E1200056E01500210D8B402
:102FB600DFEF17F0E1EF17F0FBEF17F00550020D0A
:102FC600BC0EF324D96E000EF420DA6E01C0DEFFCB
:102FD60002C0DDFF0550020DC80EF324D96E000EA7
:102FE600F420DA6E03C0DEFF04C0DDFF13EF18F035
:102FF6000550020DBC0EF324D96E000EF420DA6ED5
:103006004E0EDE6E3A0EDD6E0550020DC80EF3242E
:10301600D96E000EF420DA6E000EDE6E000EDD6E46
:103026001200000E206E000E1F6E1C501D10D8B42C
:103036001FEF18F021EF18F049EF18F0010E1E6E81
:1030460029EF18F0D8901C361D361E2A1DAE2EEF1D
:1030560018F030EF18F025EF18F0D8901F3620360C
:103066001C501A5C1D501B58D8A03CEF18F03EEFC0
:1030760018F043EF18F01C501A5E1D501B5A1F80A3
:10308600D8901D321C321E2E30EF18F01FC01AF0D9
:1030960020C01BF01200246E000E256E2450C2ECD8
:1030A60016F00009D8B45AEF18F05CEF18F051EF9B
:1030B60018F0520E1F6E360E206E250E216E000E73
:1030C600226E47EC1CF0230E1A6E000E1B6E000ECD
:1030D6001D6E010E1C6EBBEC1BF0000E1F6E000E6B
:1030E600206E000E216E000E226E53EC1CF0D7EC03
:1030F6001CF0E7EC1AF0E806D8B484EF18F086EF77
:1031060018F07CEF18F0255012000DEC1DF00001B0
:10311600DFA190EF18F092EF18F09FEF18F081EC16
:103126001CF00009D8B49AEF18F09CEF18F09FEF46
:1031360018F00F0E0001DD6F0001DD51020D010ECA
:10314600F324F66E0F0EF420F76EF86A000EF822DE
:103156000900F5CF0EF00900F5CF0FF002D8BDEF4C
:1031660018F00500FA6E0E50FD6E0F50FE6EFF6AE7
:10317600FA5012000001DD6F1200256E2550C2ECD8
:1031860016F00009D8B4CAEF18F0CCEF18F0C1EF6A
:1031960018F0FA0E1F6E350E206E240E216E000EEC
:1031A600226E47EC1CF0230E1A6E000E1B6E000EEC
:1031B6001D6E010E1C6EBBEC1BF0000E1F6E000E8A
:1031C600206E000E216E000E226E53EC1CF0D7EC22
:1031D6001CF0E7EC1AF0E806D8B4F4EF18F0F6EFB6
:1031E60018F0ECEF18F01200000E836E000E846EDD
:1031F600000E856EE70E886EC00E896EBF0E8A6E53
:10320600270E0F01216FC00E196FF80E116F000EF9
:103216002D6F000E186F000E106F000E206F000E3F
:103226000F6F000E176F000E1F6F0E6916691E696D
:103236000D6915691D69080E2A6F130E0E01B76F09
:10324600170EB56F0F0EFA6F100EFB6F090EFD6F9E
:10325600140EB86F12003F0E266E020E276EC00EB9
:103266001FEC1CF0290E2B6E960E2A6E7F0EE82E92
:10327600FED72A2EFCD72B2EFAD700F03F0E266E4D
:10328600020E276ED00E1FEC1CF03F0E266E000EAF
:10329600276ED00E1FEC1CF03F0E266E010E276E19
:1032A600C00E1FEC1CF0290E2B6E960E2A6E7F0E9A
:1032B600E82EFED72A2EFCD72B2EFAD700F01200C6
:1032C6003F0E266E010E276EC00E1FEC1CF0290E57
:1032D6002B6E960E2A6E7F0EE82EFED72A2EFCD770
:1032E6002B2EFAD700F03F0E266E020E276ED00E5A
:1032F6001FEC1CF03F0E266E000E276ED00E1FEC44
:103306001CF03F0E266E020E276EC00E1FEC1CF040
:10331600290E2B6E960E2A6E7F0EE82EFED72A2ECB
:10332600FCD72B2EFAD700F012000001DF91020E17
:10333600DE6FA6EF19F0EBEC1CF0CAEF19F0E7EC24
:103346001CF0CAEF19F0CCC00AF0CDC00BF002D8C1
:10335600B6EF19F00500FA6EC051FD6EC151FE6E52
:10336600FF6AFA5012000C6E0D6A0D50000AD8B4AE
:10337600BFEF19F0A2EF19F00C50020AD8B49EEF75
:1033860019F0010AD8B49EEF19F0A2EF19F0120055
:10339600A3C0A7F0A4C0A8F0E0EF19F0A1C08DF07B
:1033A600A2C08EF0A70E00018F6F000E906FA5C011
:1033B60091F0A6C092F0D9EC09F0A7C0F6FFA8C01C
:1033C600F7FFF86A0800F5500009D8A4EDEF19F0E8
:1033D600EFEF19F0D1EF19F0000E0001A26F000E09
:1033E600A16F1200010E1E6E200E1A181B10D8B403
:1033F600FFEF19F001EF1AF014EF1AF0F70E1A2486
:103406001C6EFF0E1B201D6E1D5009E1050E1C5C77
:10341600D8A010EF1AF012EF1AF014EF1AF0000EFF
:103426001E6E1EC01AF01B6A1200000E2B6E000ED6
:103436002A6E29EF1AF029C01CF01D6A27C01EF05B
:1034460028C01FF011EC17F02A4A2B2A2A502524EF
:10345600D96E2B502620DA6EDF50296E2950D8A45B
:1034660037EF1AF039EF1AF01EEF1AF012002DBEE0
:1034760047EF1AF02D5006E12C04D8B045EF1AF0AC
:1034860047EF1AF055EF1AF02CC02EF02DC02FF092
:103496002E1E2F1E2E4A2F2A2EC02CF02FC02DF0A6
:1034A60059EF1AF02CC02CF02DC02DF012001A6E18
:1034B600010E1B6E0001DFB363EF1AF065EF1AF021
:1034C60078EF1AF0DF83000E1B6E1A50D8B46EEF39
:1034D6001AF070EF1AF074EF1AF0010EDD6F76EF46
:1034E6001AF0020EDD6F1BEC1DF01B50120020EED1
:1034F60002F00A50D9260B50DA22DECF01F0DDCFDA
:1035060002F00AC0D9FF0BC0DAFFDECF03F0DDCF31
:1035160004F0CDEC1BF0000E066E000E076E000EDA
:10352600086E000E096E6BEC1CF0020E1200080EFF
:103536009F6E900E9D6E240E9E6EA00E9B6E010ECB
:103546009C6E000E1A6E000E1B6EC9EC1CF0000E6F
:103556001A6E000E1B6EC4EC1CF0000E1A6E000EE6
:103566001B6ECEEC1CF0000E3F6E1200FBEC1CF046
:103576000F0117896AEC1BF026C036F027C037F01A
:10358600FEEC1CF02C6E2C50326E336A3F0E266E0B
:10359600030E276ED00E1FEC1CF01200D00E1A245C
:1035A6001C6EFF0E1B201D6E1D500AE10A0E1C5CD0
:1035B600D8A0E0EF1AF0E3EF1AF0010EE4EF1AF0EC
:1035C600000E1A6E1B6A1200010E1A6E0001DFB39E
:1035D600EFEF1AF0F1EF1AF0FBEF1AF0DF95D8696A
:1035E60007EC1DF004EC1DF01DEC1DF0DEC01AF01A
:1035F6001A5012000AC001F00BC002F0000E046E51
:10360600010E036ECDEC1BF0000E066E000E076E6B
:10361600000E086E000E096E6BEC1CF0040E120014
:103626000AC001F00BC002F0000E046E020E036E1B
:10363600CDEC1BF0000E066E000E076E000E086E37
:10364600000E096E6BEC1CF0020E12000AC001F0AF
:103656000BC002F0000E046E010E036ECDEC1BF0E3
:10366600000E066E000E076E000E086E000E096E46
:103676006BEC1CF0020E12000AC001F00BC002F047
:10368600000E046E020E036ECDEC1BF0000E066EED
:10369600000E076E000E086E000E096E6BEC1CF035
:1036A600040E120036C034F037C035F032C030F0A8
:1036B60033C031F06AEC1BF026C036F027C037F075
:1036C600FEEC1CF02C6E2C50326E336A12000E0E7D
:1036D600236E360E4EEC18F0286E28502A6E296A94
:1036E6000F0E236E360E4EEC18F02B6E2B50291053
:1036F600266E2A50276E1200000E1A6E0E01CDA9F4
:1037060087EF1BF089EF1BF092EF1BF09EAA8EEF5E
:103716001BF090EF1BF092EF1BF0010E1A6E1A5081
:103726001200AB0E0001B96F000EBA6F000EA16F4A
:10373600000EA26FA9C0A3F0AAC0A4F0B90EA56F8F
:10374600000EA66FCBEC19F012001A501C02F3CF34
:103756001EF0F4CF1FF01A501D02F3501F261B5007
:103766001C02F3501F261EC01AF01FC01BF01200C9
:103776000001DFA7C1EF1BF0C3EF1BF0CCEF1BF07E
:103786001AC0D9F01BC0DAF01CC0DBF01DC0DCF09B
:10379600DF9712000001DFA7D3EF1BF0D5EF1BF078
:1037A600DEEF1BF001C0D9F002C0DAF003C0DBF097
:1037B60004C0DCF0DF97120000EEBCF0440EEE6AA7
:1037C600E806FDE100EE30F0100EEE6AE806FDE1D7
:1037D600469046920001F3EF0EF096BAF5EF1BF015
:1037E600F7EF1BF000EF1CF0000E956E080E966EBC
:1037F600000E976E270E936E968A12001FEC1DF030
:103806002DEC1CF077EC1CF0F7EC18F05FEC1CF0DC
:1038160010EC1CF09AEC1AF01200030EBF6E000EAC
:10382600BE6E000EC06EF90EBC6E000EBB6E0E01B3
:10383600CE93C30EBD6E1200286E2644E846FC0BDE
:103846002710296E000E236E29C024F02850C0ECE4
:1038560018F01200000E0E01E16F000EE26F000E6E
:10386600E36F000EE46F000EE56F000EE66F1200C8
:103876001A6E0E01CDA942EF1CF044EF1CF03CEF8E
:103886001CF01AC09AFF12001FC01AF020C01BF0CD
:1038960021C01CF022C01DF0000E9AEC17F0120099
:1038A6001FC01AF020C01BF021C01CF022C01DF062
:1038B600020E9AEC17F01200600E0E01D86F000E81
:1038C600DA6F000EDC6F050EDE6F000EDD6F120084
:1038D60006C001F007C002F008C003F009C004F0FA
:1038E600000ED7EC17F01200000E956E080E966EBD
:1038F600000E976E270E936E969A120097BC86EF6F
:103906001CF089EF1CF0010E8AEF1CF0000E12006D
:103916000001DF81D851D825F7EC1CF0030E120008
:103926000001DF81D880D835F7EC1CF0050E1200B7
:10393600266E010E236E26504EEC18F01200000E75
:10394600236E480E4EEC18F012000001DF93000EB5
:10395600DE6F0E0E12000001DF9123EC1DF0040E47
:1039660012000001DF93000EDE6F0E0E12001B6EBA
:103976001B503BEC1CF012001AC03CF01BC03DF083
:1039860012001AC042F01BC043F012001AC044F0E5
:103996001BC045F012001AC040F01BC041F01200D7
:1039A600BBCF1AF01A501200000E5AEC1AF0120091
:1039B60016EC1DF0090E120016EC1DF00A0E120090
:1039C60013EC1DF0050E120029EC1DF0000E12007E
:1039D6002BEC1DF0010E12002BEC1DF0020E120056
:1039E6002BEC1DF0010E1200016E01C092FF1200B9
:1039F60019EC1DF01200D3EC1CF012000E01C5816B
:103A060012000E01C59112000E01CD91120088EC34
:103A160018F012000E01CD9112000E01CD81120098
:103A2600979A97881200978A97881200BD8E12007F
:103A360097801200969A1200F29A12009250120083
:103A460097861200050E1200010E120097841200CE
:043A56009782120041
:020000040020DA
:10000000FFFFFFFFFFFFFFFFFFFFFFFFFFFFFFFF00
:020000040030CA
:0C000000ECFFFFFF9FFFFFFFFFFFFFFF73
:00000001FF
