:04000000CAEF00F053
:100008005F82FACFE8F0FBCFE9F0E1CFEAF0E2CF88
:10001800EBF0D9CFECF0DACFEDF0F3CFEEF0F4CF90
:10002800EFF0F6CFF0F0F7CFF1F0F8CFF2F0F5CF30
:10003800F3F0F2AC22EF00F024EF00F0B0EF00F0A4
:100048000E01C6A52AEF00F02CEF00F037EF00F004
:10005800CEA531EF00F033EF00F037EF00F027ECDA
:1000680072F0B0EF00F0C6A33CEF00F03EEF00F0F6
:1000780049EF00F0CEA343EF00F045EF00F049EF61
:1000880000F0ECEC72F0B0EF00F0C5A94EEF00F014
:1000980050EF00F066EF00F0CDA955EF00F057EFF4
:1000A80000F066EF00F002D864EF00F00500FA6E89
:1000B8000301F251FD6EF351FE6EFF6AFA50120011
:1000C800B0EF00F0C5AB6BEF00F06DEF00F083EF21
:1000D80000F0CDAB72EF00F074EF00F083EF00F0AA
:1000E80002D881EF00F00500FA6E0301F051FD6EB1
:1000F800F151FE6EFF6AFA501200B0EF00F0C5A190
:1001080088EF00F08AEF00F0A0EF00F0CDA18FEFAC
:1001180000F091EF00F0A0EF00F002D89EEF00F0A1
:100128000500FA6E0001F651FD6EF751FE6EFF6A8A
:10013800FA501200B0EF00F0C5A3A5EF00F0A7EF4A
:1001480000F0B0EF00F0CDA3ACEF00F0AEEF00F0A0
:10015800B0EF00F091EF00F0F3C0F5FFF2C0F8FF48
:10016800F1C0F7FFF0C0F6FFEFC0F4FFEEC0F3FFF9
:10017800EDC0DAFFECC0D9FFEBC0E2FFEAC0E1FF57
:10018800E9C0FBFFE8C0FAFF5F92110080EF6DF055
:100198007FC2B8F380C2B9F381C2BAF382C2BBF39B
:1001A800B8C360F3B9C361F3BAC362F3BBC363F303
:1001B80083C2B8F384C2B9F385C2BAF386C2BBF36B
:1001C800B8C384F3B9C385F3BAC386F3BBC387F353
:1001D800FF0E03016015A86FFF0E6115A96FFF0ED2
:1001E8006215AA6F7F0E6315AB6FFF0E8415986FAB
:1001F800FF0E8515996FFF0E86159A6F7F0E87156E
:100208009B6F985199119A119B11D8A40EEF01F088
:1002180010EF01F01BEF01F0000E02017F6F000EDE
:10022800806F800E816F3F0E826F1BEF16F0800E7D
:10023800621909E13F0E631960116111D8A427EF13
:1002480001F029EF01F034EF01F0000E02017F6F99
:10025800000E806F800E816F3F0E826F1BEF16F0CD
:10026800ABBF45EF01F0A805000EA959800EAA59A9
:100278007F0EAB59D8B043EF01F045EF01F056EFD0
:1002880001F09BBF54EF01F09805000E9959800EBC
:100298009A597F0E9B59D8A054EF01F056EF01F000
:1002A80072EF01F07FC215F280C216F281C217F216
:1002B80082C218F283C219F284C21AF285C21BF2F2
:1002C80086C21CF271EC3CF015C27FF216C280F2B5
:1002D80017C281F218C282F21BEF16F0000E506F9F
:1002E800000E516F000E526F000E536F63BF81EF07
:1002F80001F07FEF01F04DEF02F09BBF8DEF01F0B1
:10030800800E9A5D4B0E9B59D8A08DEF01F08FEFB0
:1003180001F099EF01F0020E506F000E516F000EC0
:10032800526F000E536F4DEF02F09BBFA5EF01F027
:10033800800E9A5D3F0E9B59D8A0A5EF01F0A7EF5C
:1003480001F04DEF02F0170E0201876F98C388F293
:1003580099C389F29AC38AF29BC38BF28767B7EF76
:1003680001F0BFEF01F08B358B338A338933883343
:10037800872FB2EF01F0810E020188250301A06FDB
:10038800FF0E020189210301A16FFF0E02018A21DC
:100398000301A26FFF0E02018B210301A36FA0517D
:1003A80017080201876F98C388F299C389F29AC324
:1003B8008AF29BC38BF28767E4EF01F0ECEF01F060
:1003C8008B358B338A3389338833872FDFEF01F0FE
:1003D80088C2ACF389C2ADF38AC2AEF38BC2AFF365
:1003E8000301A05117080201876FACC388F2ADC39F
:1003F80089F2AEC38AF2AFC38BF2872B09EF02F002
:10040800D890883789378A378B37872F04EF02F0DF
:10041800030198510201881913E10301995102015E
:1004280089190EE103019A5102018A1909E10301B0
:100438009B5102018B19D8A424EF02F026EF02F099
:100448004DEF02F0010E0301AC150201876F000E9B
:100458000301AD150201886F000E0301AE150201FC
:10046800896F000E0301AF1502018A6F87510208D8
:100478000301506F000E020188550301516F000EF1
:10048800020189550301526F000E02018A550301CA
:10049800536F800E03019A1909E17F0E9B19981179
:1004A8009911D8A45AEF02F05CEF02F0C8EF02F0FD
:1004B800800EAA1909E13F0EAB19A811A911D8A4F9
:1004C80068EF02F06AEF02F075EF02F0000E020129
:1004D8007F6F000E806F800E816F3F0E826F1BEF63
:1004E80016F0ABBF84EF02F0A805000EA959800EE4
:1004F800AA593F0EAB59D8A084EF02F086EF02F05C
:10050800A2EF02F087BF8DEF02F08BEF02F098EFB9
:1005180002F0000E02017F6F000E806F000E816FE7
:10052800000E826F1BEF16F083C27FF284C280F246
:1005380085C281F286C282F21BEF16F087BFA9EF4F
:1005480002F0A7EF02F0BDEF02F083C200F284C20E
:1005580001F285C202F286C203F246EC72F000C2D2
:100568007FF201C280F202C281F203C282F21BEF63
:1005780016F0000E02017F6F000E806F000E816F73
:10058800000E826F1BEF16F0800E9A1909E13F0EDC
:100598009B1998119911D8A4D4EF02F0D6EF02F064
:1005A80004EF03F087BFDDEF02F0DBEF02F0FAEFB4
:1005B80002F0000E0201466F000E476F800E486F72
:1005C8003F0E496F7FC24AF280C24BF281C24CF2A1
:1005D80082C24DF21EEC4AF046C27FF247C280F258
:1005E80048C281F249C282F21BEF16F07FC27FF245
:1005F80080C280F281C281F282C282F21BEF16F0C1
:10060800400E8719841185118611D8A40EEF03F0C6
:1006180010EF03F02CEF03F07FC225F280C226F220
:1006280081C227F282C228F27FC229F280C22AF24E
:1006380081C22BF282C22CF2F3EC45F025C27FF284
:1006480026C280F227C281F228C282F21BEF16F07E
:100658003F0E8719841185118611D8A436EF03F04F
:1006680038EF03F053EF03F063BF3DEF03F03FEFC4
:1006780003F053EF03F07FC252F280C253F281C2FB
:1006880054F282C255F233EC41F052C27FF253C2A7
:1006980080F254C281F255C282F21BEF16F07FC27B
:1006A80000F280C201F281C202F282C203F2B7EC08
:1006B80072F000C270F301C271F302C272F303C296
:1006C80073F3800E0301AA190BE17F0EAB19A81171
:1006D800A911D8B472EF03F074EF03F08DEF03F0B3
:1006E800A851A911AA11AB11D8B47DEF03F07FEF7F
:1006F80003F08DEF03F0800EAA1909E13F0EAB1944
:10070800A811A911D8A48BEF03F08DEF03F05EEFC9
:1007180004F070C3B4F371C3B5F372C3B6F373C313
:10072800B7F387BF9CEF03F09AEF03F0B7EF03F03E
:10073800000E0201466F000E476F800E486F3F0E95
:10074800496FB4C34AF2B5C34BF2B6C34CF2B7C350
:100758004DF21EEC4AF046C2B4F347C2B5F348C2A4
:10076800B6F349C2B7F3030163BFBFEF03F0BDEFB0
:1007780003F054EF04F0000EA8250201876F000E65
:100788000301A9210201886F800E0301AA21020139
:10079800896FC00E0301AB2102018A6F030150511A
:1007A800020187118B6F03015151020188118C6F6F
:1007B80003015251020189118D6F03015351020146
:1007C8008A118E6F8B518C118D118E11D8A4EFEF79
:1007D80003F0F1EF03F036EF04F0000E0101F56FBE
:1007E800210EF46FB4C342F2B5C343F2B6C344F268
:1007F800B7C345F2B4C33EF2B5C33FF2B6C340F245
:10080800B7C341F2E6EC6FF03EC246F23FC247F290
:1008180040C248F241C249F2B4C342F2B5C343F2FE
:10082800B6C344F2B7C345F2B4C33EF2B5C33FF210
:10083800B6C340F2B7C341F2E6EC6FF03EC24AF2EB
:100848003FC24BF240C24CF241C24DF21EEC4AF09C
:1008580046C2B4F347C2B5F348C2B6F349C2B7F3C8
:1008680054EF04F003015005511152115311D8A44B
:1008780040EF04F042EF04F054EF04F0B4C300F288
:10088800B5C301F2B6C302F2B7C303F246EC72F085
:1008980000C2B4F301C2B5F302C2B6F303C2B7F3A0
:1008A800B4C37FF2B5C380F2B6C381F2B7C382F294
:1008B8001BEF16F0000E886F000E896F800E8A6F8E
:1008C8003F0E8B6F63BF6DEF04F06BEF04F0D0EF5A
:1008D80004F05051511152115311D8A476EF04F07D
:1008E80078EF04F0BDEF04F0000E0101F56F210E62
:1008F800F46F7FC242F280C243F281C244F282C2E4
:1009080045F27FC23EF280C23FF281C240F282C20B
:1009180041F2E6EC6FF03EC246F23FC247F240C2F7
:1009280048F241C249F27FC242F280C243F281C218
:1009380044F282C245F27FC23EF280C23FF281C2D7
:1009480040F282C241F2E6EC6FF03EC24AF23FC288
:100958004BF240C24CF241C24DF21EEC4AF046C284
:100968007FF247C280F248C281F249C282F21BEF8D
:1009780016F05005511152115311D8A4C6EF04F0C6
:10098800C8EF04F0D0EF04F0000E886F000E896FF6
:10099800800E8A6FBF0E8B6F9BBFDFEF04F0980548
:1009A800000E9959000E9A594D0E9B59D8A0DFEFA9
:1009B80004F0E1EF04F075EF07F0ABBFF3EF04F0DC
:1009C800F80EA85DFF0EA9597F0EAA593F0EAB5924
:1009D800D8B0F1EF04F0F3EF04F06AEF05F087BF49
:1009E800F8EF04F0FAEF04F032EF05F0600E0201C0
:1009F800296F420E2A6FA20E2B6F0D0E2C6F88C323
:100A080025F289C326F28AC327F28BC328F2F3ECB6
:100A180045F025C2A4F326C2A5F327C2A6F328C22F
:100A2800A7F3A4C325F2A5C326F2A6C327F2A7C33A
:100A380028F2600E0201296F420E2A6FA20E2B6F58
:100A48000D0E2C6FF3EC45F025C27FF226C280F222
:100A580027C281F228C282F21BEF16F0CA0E0201E9
:100A6800296FF20E2A6F490E2B6F710E2C6F88C3F7
:100A780025F289C326F28AC327F28BC328F2F3EC46
:100A880045F025C2A4F326C2A5F327C2A6F328C2BF
:100A9800A7F3A4C325F2A5C326F2A6C327F2A7C3CA
:100AA80028F2CA0E0201296FF20E2A6F490E2B6F27
:100AB800710E2C6FF3EC45F025C27FF226C280F24E
:100AC80027C281F228C282F21BEF16F0ABBF7AEF81
:100AD80005F0080EA85D000EA959800EAA593F0E10
:100AE800AB59D8A07AEF05F07CEF05F0FBEF05F0E5
:100AF80087BF8BEF05F087518611851106E18405C4
:100B0800D8B089EF05F08BEF05F0C3EF05F0600E64
:100B18000201296F420E2A6FA20E2B6F0D0E2C6F49
:100B280088C325F289C326F28AC327F28BC328F229
:100B3800F3EC45F025C2A4F326C2A5F327C2A6F319
:100B480028C2A7F3A4C325F2A5C326F2A6C327F299
:100B5800A7C328F2600E0201296F420E2A6FA20E67
:100B68002B6F0D0E2C6FF3EC45F025C27FF226C2D9
:100B780080F227C281F228C282F21BEF16F0CA0E59
:100B88000201296FF20E2A6F490E2B6F710E2C6F1E
:100B980088C325F289C326F28AC327F28BC328F2B9
:100BA800F3EC45F025C2A4F326C2A5F327C2A6F3A9
:100BB80028C2A7F3A4C325F2A5C326F2A6C327F229
:100BC800A7C328F2CA0E0201296FF20E2A6F490E36
:100BD8002B6F710E2C6FF3EC45F025C27FF226C205
:100BE80080F227C281F228C282F21BEF16F070C38E
:100BF80015F271C316F272C317F273C318F2000E1E
:100C08000201196F000E1A6F800E1B6FBF0E1C6F4A
:100C180071EC3CF015C2B0F316C2B1F317C2B2F3CF
:100C280018C2B3F3000E0201296F000E2A6F800E5E
:100C38002B6F3E0E2C6FB0C325F2B1C326F2B2C3A0
:100C480027F2B3C328F2F3EC45F025C242F226C2DC
:100C580043F227C244F228C245F2AB0E02013E6FAE
:100C6800AA0E3F6FAA0E406F3E0E416FE6EC6FF082
:100C78003EC2A4F33FC2A5F340C2A6F341C2A7F304
:100C8800B0C329F2B1C32AF2B2C32BF2B3C32CF218
:100C9800B0C325F2B1C326F2B2C327F2B3C328F218
:100CA800F3EC45F025C254F326C255F327C256F398
:100CB80028C257F3B0C329F2B1C32AF2B2C32BF248
:100CC800B3C32CF2A4C325F2A5C326F2A6C327F208
:100CD800A7C328F2F3EC45F025C242F226C243F23C
:100CE80027C244F228C245F2000E02013E6F000EF0
:100CF8003F6F000E406F3F0E416FE6EC6FF03EC253
:100D080048F33FC249F340C24AF341C24BF354C3CC
:100D180025F255C326F256C327F257C328F248C313
:100D280029F249C32AF24AC32BF24BC32CF2F3EC43
:100D380045F025C244F326C245F327C246F328C22C
:100D480047F3B0C325F2B1C326F2B2C327F2B3C347
:100D580028F2000E0201296FAA0E2A6FB80E2B6F17
:100D68003F0E2C6FF3EC45F025C274F326C275F3E1
:100D780027C276F328C277F3700E0201296FA50EF9
:100D88002A6FEC0E2B6F360E2C6FB0C325F2B1C351
:100D980026F2B2C327F2B3C328F2F3EC45F025C21A
:100DA8003EF226C23FF227C240F228C241F23B0E71
:100DB8000201296FAA0E2A6FB80E2B6F3F0E2C6FF7
:100DC80044C325F245C326F246C327F247C328F297
:100DD800F3EC45F025C242F226C243F227C244F2A0
:100DE80028C245F2E6EC6FF03EC278F33FC279F3D1
:100DF80040C27AF341C27BF374C315F275C316F28D
:100E080076C317F277C318F278C319F279C31AF2C6
:100E18007AC31BF27BC31CF271EC3CF015C280F361
:100E280016C281F317C282F318C283F380C3B8F3E2
:100E380081C3B9F382C3BAF383C3BBF3B8C390F3D6
:100E4800B9C391F3BAC392F3BBC393F3000E030182
:100E58009015B86FF00E9115B96FFF0E9215BA6F15
:100E6800FF0E9315BB6FB8C380F3B9C381F3BAC340
:100E780082F3BBC383F374C342F275C343F276C3F0
:100E880044F277C345F280C33EF281C33FF282C386
:100E980040F283C341F2E6EC6FF03EC294F33FC2E6
:100EA80095F340C296F341C297F378C33EF279C3F3
:100EB8003FF27AC340F27BC341F294C342F295C336
:100EC80043F296C344F297C345F2E6EC6FF03EC294
:100ED8001CF33FC21DF340C21EF341C21FF300EFD3
:100EE8000FF0000E7C6F000E7D6F000E7E6F000EFF
:100EF8007F6FABBF8BEF07F0AB5107E1800EAA5DA8
:100F0800D8B089EF07F08BEF07F0BFEF07F070C399
:100F180025F271C326F272C327F273C328F2000EBA
:100F28000201296F000E2A6F800E2B6F4B0E2C6F5B
:100F3800F3EC45F025C270F326C271F327C272F3B1
:100F480028C273F3E80E03017C27FF0E7D23FF0EF2
:100F58007E23FF0E7F2370C3B8F371C3B9F372C346
:100F6800BAF373C3BBF3B8C3A8F3B9C3A9F3BAC33D
:100F7800AAF3BBC3ABF3170E0201876FA8C388F2AD
:100F8800A9C389F2AAC38AF2ABC38BF28767CFEFF2
:100F980007F0D7EF07F08B358B338A3389338833E3
:100FA800872FCAEF07F0810E020188258C6FFF0E8C
:100FB80089218D6FFF0E8A218E6FFF0E8B218F6F17
:100FC8008C5103017C2702018D5103017D2302010D
:100FD8008E5103017E2302018F5103017F23FF0EEF
:100FE800A815AC6FFF0EA915AD6F7F0EAA15AE6FD1
:100FF800000EAB15AF6F000EAC11A86F000EAD114F
:10100800A96F800EAE11AA6F3F0EAF11AB6FAFBFC5
:101018001DEF08F0AF510BE1720EAC5DC40EAD5977
:101028001C0EAE59D8B01BEF08F01DEF08F027EFE3
:1010380008F0000EA06F000EA16F000EA26F000E48
:10104800A36F59EF08F0AFBF39EF08F0AF510BE1CC
:10105800D70EAC5DB30EAD595D0EAE59D8B037EFB3
:1010680008F039EF08F043EF08F0010EA06F000E0A
:10107800A16F000EA26F000EA36F59EF08F0000ECB
:10108800A06F000EA16F000EA26F000EA36F010EDD
:101098007C27000E7D237E237F23000EA827000EC9
:1010A800A923800EAA23FF0EAB23A8C3B8F3A9C3B4
:1010B800B9F3AAC3BAF3ABC3BBF3B8C370F3B9C3EC
:1010C80071F3BAC372F3BBC373F370C33EF271C357
:1010D8003FF272C340F273C341F2A0C387F2A1C3C7
:1010E80088F20201D89087378837D89087378837B1
:1010F800F30E8725F66EFE0E8821F76EF86A000E4D
:10110800F8220900F5CF42F20900F5CF43F20900B1
:10111800F5CF44F20A00F5CF45F2E6EC6FF03EC297
:1011280074F33FC275F340C276F341C277F3000E01
:101138000201466F000E476F800E486F3F0E496FE1
:1011480070C319F271C31AF272C31BF273C31CF293
:10115800A0C387F2A1C388F2D89087378837D89080
:1011680087378837F30E8725F66EFE0E8821F76ECF
:10117800F86A000EF8220900F5CF15F20900F5CF3C
:1011880016F20900F5CF17F20A00F5CF18F271EC44
:101198003CF015C24AF216C24BF217C24CF218C202
:1011A8004DF21EEC4AF046C278F347C279F348C2C2
:1011B8007AF349C27BF374C325F275C326F276C36A
:1011C80027F277C328F278C329F279C32AF27AC3BF
:1011D8002BF27BC32CF2F3EC45F025C25CF326C25C
:1011E8005DF327C25EF328C25FF35CC36CF35DC393
:1011F8006DF35EC36EF35FC36FF36CC3B8F36DC377
:10120800B9F36EC3BAF36FC3BBF3B8C390F3B9C3F2
:1012180091F3BAC392F3BBC393F3000E0301901585
:10122800B86FF00E9115B96FFF0E9215BA6FFF0ED9
:101238009315BB6FB8C36CF3B9C36DF3BAC36EF340
:10124800BBC36FF3A8C387F2A9C388F2AAC389F204
:10125800ABC38AF202018A358A33893388338733EC
:10126800000E87158B6FF00E88158C6FFF0E891591
:101278008D6FFF0E8A158E6F000E8B110301906F14
:10128800000E02018C110301916F000E02018D11F5
:101298000301926F200E02018E110301936FA0C308
:1012A80087F2A1C388F2A2C389F2A3C38AF2150EFA
:1012B800D89002018737883789378A37E82E5CEF5C
:1012C80009F003019051020187258B6F03019151A9
:1012D800020188218C6F03019251020189218D6FCF
:1012E8000301935102018A218E6F000E8B250301A1
:1012F800B86F000E02018C210301B96F400E020184
:101308008D210301BA6F000E02018E210301BB6F0C
:10131800B8C368F3B9C369F3BAC36AF3BBC36BF361
:10132800A0C387F2A1C388F20201D8908737883713
:10133800D89087378837F30E8725F66EFE0E8821FA
:10134800F76EF86A000EF8220900F5CF42F209009C
:10135800F5CF43F20900F5CF44F20A00F5CF45F284
:1013680068C33EF269C33FF26AC340F26BC341F2FD
:10137800E6EC6FF03EC294F33FC295F340C296F399
:1013880041C297F370C33EF271C33FF272C340F299
:1013980073C341F294C342F295C343F296C344F235
:1013A80097C345F2E6EC6FF03EC234F33FC235F323
:1013B80040C236F341C237F368C329F269C32AF23F
:1013C8006AC32BF26BC32CF26CC325F26DC326F2F1
:1013D8006EC327F26FC328F2F3EC45F025C242F240
:1013E80026C243F227C244F228C245F274C33EF231
:1013F80075C33FF276C340F277C341F2E6EC6FF073
:101408003EC294F33FC295F340C296F341C297F3AC
:1014180034C329F235C32AF236C32BF237C32CF270
:101428006CC325F26DC326F26EC327F26FC328F290
:10143800F3EC45F025C242F226C243F227C244F239
:1014480028C245F294C33EF295C33FF296C340F2D8
:1014580097C341F2E6EC6FF03EC254F33FC255F336
:1014680040C256F341C257F354C325F255C326F27E
:1014780056C327F257C328F278C329F279C32AF250
:101488007AC32BF27BC32CF2F3EC45F025C230F380
:1014980026C231F327C232F328C233F35CC325F2E4
:1014A8005DC326F25EC327F25FC328F25CC329F24C
:1014B8005DC32AF25EC32BF25FC32CF2F3EC45F056
:1014C80025C28CF326C28DF327C28EF328C28FF370
:1014D800550E0201196F320E1A6F6C0E1B6F3E0EFD
:1014E8001C6F420E296FF10E2A6F530E2B6F3E0EA2
:1014F8002C6F8CC325F28DC326F28EC327F28FC3BF
:1015080028F2F3EC45F025C215F226C216F227C2DE
:1015180017F228C218F271EC3CF015C2A4F316C2F7
:10152800A5F317C2A6F318C2A7F3050E0201196F97
:10153800A30E1A6F8B0E1B6F3E0E1C6F8CC329F205
:101548008DC32AF28EC32BF28FC32CF2A4C325F2CB
:10155800A5C326F2A6C327F2A7C328F2F3EC45F0E9
:1015680025C215F226C216F227C217F228C218F2AF
:1015780071EC3CF015C254F316C255F317C256F37A
:1015880018C257F3AB0E0201196FAA0E1A6FAA0EF2
:101598001B6F3E0E1C6F8CC329F28DC32AF28EC3BB
:1015A8002BF28FC32CF254C325F255C326F256C32F
:1015B80027F257C328F2F3EC45F025C215F226C2EC
:1015C80016F227C217F228C218F271EC3CF015C2C5
:1015D80048F316C249F317C24AF318C24BF3B70EC1
:1015E8000201196F6D0E1A6FDB0E1B6F3E0E1C6F1A
:1015F8008CC329F28DC32AF28EC32BF28FC32CF22F
:1016080048C325F249C326F24AC327F24BC328F23E
:10161800F3EC45F025C215F226C216F227C217F2DE
:1016280028C218F271EC3CF015C238F316C239F32F
:1016380017C23AF318C23BF39A0E0201196F990EBA
:101648001A6F190E1B6F3F0E1C6F8CC329F28DC3C6
:101658002AF28EC32BF28FC32CF238C325F239C37A
:1016680026F23AC327F23BC328F2F3EC45F025C231
:1016780015F226C216F227C217F228C218F271EC28
:101688003CF015C200F316C201F317C202F318C2E8
:1016980003F38CC329F28DC32AF28EC32BF28FC3B6
:1016A8002CF28CC325F28DC326F28EC327F28FC38A
:1016B80028F2F3EC45F025C204F326C205F327C24D
:1016C80006F328C207F300C325F201C326F202C3BA
:1016D80027F203C328F204C329F205C32AF206C37A
:1016E8002BF207C32CF2F3EC45F025C24CF326C2CB
:1016F8004DF327C24EF328C24FF330C329F231C34A
:101708002AF232C32BF233C32CF25CC319F25DC345
:101718001AF25EC31BF25FC31CF26CC315F26DC3F1
:1017280016F26EC317F26FC318F271EC3CF015C2D3
:1017380025F216C226F217C227F218C228F2F3ECD5
:1017480045F025C258F326C259F327C25AF328C2D6
:101758005BF34CC315F24DC316F24EC317F24FC3D9
:1017680018F258C319F259C31AF25AC31BF25BC3D1
:101778001CF271EC3CF015C24CF316C24DF317C2C3
:101788004EF318C24FF36CC325F26DC326F26EC335
:1017980027F26FC328F26CC329F26DC32AF26EC315
:1017A8002BF26FC32CF2F3EC45F025C28CF326C262
:1017B8008DF327C28EF328C28FF3000E0201196F32
:1017C800000E1A6F400E1B6F400E1C6F8CC315F273
:1017D8008DC316F28EC317F28FC318F271EC3CF06A
:1017E80015C258F316C259F317C25AF318C25BF35D
:1017F80058C315F259C316F25AC317F25BC318F24D
:101808004CC319F24DC31AF24EC31BF24FC31CF25C
:1018180071EC3CF015C268F316C269F317C26AF39B
:1018280018C26BF368C3B8F369C3B9F36AC3BAF3F0
:101838006BC3BBF3B8C390F3B9C391F3BAC392F3C4
:10184800BBC393F3000E03019015B86FF00E91150A
:10185800B96FFF0E9215BA6FFF0E9315BB6FB8C321
:1018680068F3B9C369F3BAC36AF3BBC36BF3000E79
:101878000201196F000E1A6F400E1B6FC00E1C6F0D
:1018880068C315F269C316F26AC317F26BC318F27C
:1018980071EC3CF015C23CF316C23DF317C23EF39F
:1018A80018C23FF38CC342F28DC343F28EC344F295
:1018B8008FC345F23CC33EF23DC33FF23EC340F204
:1018C8003FC341F2E6EC6FF03EC240F33FC241F342
:1018D80040C242F341C243F34CC33EF24DC33FF210
:1018E8004EC340F24FC341F240C342F241C343F2F8
:1018F80042C344F243C345F2E6EC6FF03EC234F310
:101908003FC235F340C236F341C237F36CC325F208
:101918006DC326F26EC327F26FC328F268C329F29B
:1019280069C32AF26AC32BF26BC32CF2F3EC45F0BD
:1019380025C274F326C275F327C276F328C277F35B
:1019480068C329F269C32AF26AC32BF26BC32CF26B
:1019580030C325F231C326F232C327F233C328F24B
:10196800F3EC45F025C215F226C216F227C217F28B
:1019780028C218F25CC329F25DC32AF25EC32BF2B7
:101988005FC32CF234C325F235C326F236C327F2DF
:1019980037C328F2F3EC45F025C219F226C21AF231
:1019A80027C21BF228C21CF271EC3CF015C278F376
:1019B80016C279F317C27AF318C27BF374C315F20F
:1019C80075C316F276C317F277C318F278C319F203
:1019D80079C31AF27AC31BF27BC31CF271EC3CF098
:1019E80015C29CF316C29DF317C29EF318C29FF34B
:1019F8009CC3B8F39DC3B9F39EC3BAF39FC3BBF3AB
:101A0800B8C390F3B9C391F3BAC392F3BBC393F3CA
:101A1800000E03019015B86FF00E9115B96FFF0E07
:101A28009215BA6FFF0E9315BB6FB8C39CF3B9C379
:101A38009DF3BAC39EF3BBC39FF374C342F275C34D
:101A480043F276C344F277C345F29CC33EF29DC38A
:101A58003FF29EC340F29FC341F2E6EC6FF03EC2F4
:101A680094F33FC295F340C296F341C297F378C30B
:101A78003EF279C33FF27AC340F27BC341F294C38A
:101A880042F295C343F296C344F297C345F2E6EC9B
:101A98006FF03EC264F33FC265F340C266F341C2D1
:101AA80067F39CC325F29DC326F29EC327F29FC30A
:101AB80028F2000E0201296F400E2A6F760E2B6F56
:101AC8003F0E2C6FF3EC45F025C220F326C221F31C
:101AD80027C222F328C223F34F0E0201296F380EC2
:101AE8002A6F760E2B6F3F0E2C6F64C325F265C3E9
:101AF80026F266C327F267C328F2F3EC45F025C245
:101B080019F226C21AF227C21BF228C21CF2C60E0C
:101B18000201296F230E2A6FF60E2B6FB80E2C6F59
:101B28009CC325F29DC326F29EC327F29FC328F2C9
:101B3800F3EC45F025C215F226C216F227C217F2B9
:101B480028C218F271EC3CF015C258F316C259F3CA
:101B580017C25AF318C25BF358C315F259C316F2E9
:101B68005AC317F25BC318F2A0C387F2A1C388F265
:101B78000201D89087378837D890873788378B0EF7
:101B88008725F66EFE0E8821F76EF86A000EF82299
:101B98000900F5CF19F20900F5CF1AF20900F5CFBF
:101BA8001BF20A00F5CF1CF271EC3CF015C224F3CD
:101BB80016C225F317C226F318C227F37CC307F20F
:101BC8007DC308F27EC309F27FC30AF2010E7AECE4
:101BD80058F007C2B0F308C2B1F309C2B2F30AC29F
:101BE800B3F324C319F225C31AF226C31BF227C381
:101BF8001CF220C315F221C316F222C317F223C325
:101C080018F271EC3CF015C258F316C259F317C21A
:101C18005AF318C25BF3A0C387F2A1C388F202018A
:101C2800D89087378837D89087378837930E872595
:101C3800F66EFE0E8821F76EF86A000EF82209008B
:101C4800F5CF19F20900F5CF1AF20900F5CF1BF20A
:101C58000A00F5CF1CF258C315F259C316F25AC33D
:101C680017F25BC318F271EC3CF015C208F316C208
:101C780009F317C20AF318C20BF308C315F209C314
:101C880016F20AC317F20BC318F2B0C319F2B1C3A4
:101C98001AF2B2C31BF2B3C31CF271EC3CF015C2CA
:101CA80080F316C281F317C282F318C283F380C38C
:101CB800B8F381C3B9F382C3BAF383C3BBF3B8C320
:101CC80090F3B9C391F3BAC392F3BBC393F3000E75
:101CD80003019015B86FF00E9115B96FFF0E9215AC
:101CE800BA6FFF0E9315BB6FB8C380F3B9C381F306
:101CF800BAC382F3BBC383F3B0C342F2B1C343F2A6
:101D0800B2C344F2B3C345F280C33EF281C33FF28B
:101D180082C340F283C341F2E6EC6FF03EC294F313
:101D28003FC295F340C296F341C297F3A0C387F22E
:101D3800A1C388F20201D89087378837D8908737AF
:101D48008837930E8725F66EFE0E8821F76EF86A9F
:101D5800000EF8220900F5CF42F20900F5CF43F250
:101D68000900F5CF44F20A00F5CF45F294C33EF2DC
:101D780095C33FF296C340F297C341F2E6EC6FF089
:101D88003EC240F33FC241F340C242F341C243F373
:101D980020C342F221C343F222C344F223C345F2D3
:101DA80040C33EF241C33FF242C340F243C341F253
:101DB800E6EC6FF03EC20CF33FC20DF340C20EF3E7
:101DC80041C20FF324C33EF225C33FF226C340F2BB
:101DD80027C341F20CC342F20DC343F20EC344F2CF
:101DE8000FC345F2E6EC6FF03EC21CF33FC21DF391
:101DF80040C21EF341C21FF383C2B8F384C2B9F3D1
:101E080085C2BAF386C2BBF3B8C390F3B9C391F3E2
:101E1800BAC392F3BBC393F3000E03019015B86FD6
:101E2800F00E9115B96FFF0E9215BA6FFF0E93154C
:101E3800BB6FB8C328F3B9C329F3BAC32AF3BBC32A
:101E48002BF380C329F281C32AF282C32BF283C306
:101E58002CF228C342F229C343F22AC344F22BC30B
:101E680045F283C23EF284C23FF285C240F286C286
:101E780041F2E6EC6FF03EC225F23FC226F240C2C4
:101E880027F241C228F2F3EC45F025C210F326C22E
:101E980011F327C212F328C213F310C315F211C3AA
:101EA80016F212C317F213C318F21CC329F21DC38A
:101EB8002AF21EC32BF21FC32CF283C225F284C25E
:101EC80026F285C227F286C228F2F3EC45F025C235
:101ED80019F226C21AF227C21BF228C21CF271ECB0
:101EE8003CF015C264F316C265F317C266F318C254
:101EF80067F328C325F229C326F22AC327F22BC386
:101F080028F280C329F281C32AF282C32BF283C349
:101F18002CF2F3EC45F025C29CF326C29DF327C2B0
:101F28009EF328C29FF364C315F265C316F266C315
:101F380017F267C318F29CC319F29DC31AF29EC325
:101F48001BF29FC31CF271EC3CF015C2B4F316C22D
:101F5800B5F317C2B6F318C2B7F3B4C3B8F3B5C331
:101F6800B9F3B6C3BAF3B7C3BBF3B8C3ACF3B9C3D9
:101F7800ADF3BAC3AEF3BBC3AFF30301AFBFD1EF49
:101F88000FF0AC05000EAD59000EAE59430EAF5917
:101F9800D8A0D1EF0FF0D3EF0FF00BEF10F0CA0E6F
:101FA8000201296FF20E2A6F490E2B6F710E2C6FEA
:101FB80088C325F289C326F28AC327F28BC328F285
:101FC800F3EC45F025C2A4F326C2A5F327C2A6F375
:101FD80028C2A7F3A4C325F2A5C326F2A6C327F2F5
:101FE800A7C328F2CA0E0201296FF20E2A6F490E02
:101FF8002B6F710E2C6FF3EC45F025C27FF226C2D1
:1020080080F227C281F228C282F21BEF16F0430E3B
:10201800AF19AC11AD11AE11D8A415EF10F017EF30
:1020280010F08DEF10F09CC342F29DC343F29EC3A3
:1020380044F29FC345F2B4C33EF2B5C33FF2B6C300
:1020480040F2B7C341F2E6EC6FF03EC246F23FC23F
:1020580047F240C248F241C249F23C0E0201196FF0
:10206800AA0E1A6F380E1B6F330E1C6F64C315F25D
:1020780065C316F266C317F267C318F271EC3CF039
:1020880015C24AF216C24BF217C24CF218C24DF2F0
:102098007DEC60F00201D8B054EF10F056EF10F06C
:1020A8005AEF11F0CA0E296FF20E2A6F490E2B6FE4
:1020B800710E2C6F88C325F289C326F28AC327F2D2
:1020C8008BC328F2F3EC45F025C2A4F326C2A5F38E
:1020D80027C2A6F328C2A7F3A4C325F2A5C326F2F4
:1020E800A6C327F2A7C328F2CA0E0201296FF20E6F
:1020F8002A6F490E2B6F710E2C6FF3EC45F025C239
:102108007FF226C280F227C281F228C282F21BEF38
:1021180016F0FF0EAC150201876FFF0E0301AD1517
:102128000201886FFF0E0301AE150201896F7F0E51
:102138000301AF1502018A6F8ABFAFEF10F0870560
:10214800000E8859160E8959430E8A59D8A0AFEF48
:1021580010F0B1EF10F0E8EF10F0600E296F420EAA
:102168002A6FA20E2B6F0D0E2C6F88C325F289C320
:1021780026F28AC327F28BC328F2F3EC45F025C276
:10218800A4F326C2A5F327C2A6F328C2A7F3A4C3C3
:1021980025F2A5C326F2A6C327F2A7C328F2600E2C
:1021A8000201296F420E2A6FA20E2B6F0D0E2C6FA3
:1021B800F3EC45F025C27FF226C280F227C281F2F5
:1021C80028C282F21BEF16F0160E0301AE1909E1C0
:1021D800C30EAF19AC11AD11D8A4F5EF10F0F7EF9D
:1021E80010F05AEF11F09CC342F29DC343F29EC314
:1021F80044F29FC345F2B4C33EF2B5C33FF2B6C33F
:1022080040F2B7C341F2E6EC6FF03EC246F23FC27D
:1022180047F240C248F241C249F264C34AF265C378
:102228004BF266C34CF267C34DF27DEC60F00201DD
:10223800D8A021EF11F023EF11F05AEF11F0600E42
:10224800296F420E2A6FA20E2B6F0D0E2C6F88C3BA
:1022580025F289C326F28AC327F28BC328F2F3EC4E
:1022680045F025C2A4F326C2A5F327C2A6F328C2C7
:10227800A7F3A4C325F2A5C326F2A6C327F2A7C3D2
:1022880028F2600E0201296F420E2A6FA20E2B6FF0
:102298000D0E2C6FF3EC45F025C27FF226C280F2BA
:1022A80027C281F228C282F21BEF16F0FF0E03014B
:1022B800AC152C6FFF0EAD152D6FFF0EAE152E6FE2
:1022C8007F0EAF152F6F170E0201876F2CC388F290
:1022D8002DC389F22EC38AF22FC38BF2876777EF5B
:1022E80011F07FEF11F08B358B338A3389338833C4
:1022F800872F72EF11F0810E020188250301A06F6C
:10230800FF0E020189210301A16FFF0E02018A213C
:102318000301A26FFF0E02018B210301A36F000EC0
:102328007C6F000E7D6F000E7E6F000E7F6F2FBFDB
:10233800AAEF11F02C05000E2D59000E2E593F0E54
:102348002F59D8A0AAEF11F0ACEF11F0B0EF12F0AE
:10235800A0C387F2010E02018727000E886F000EC6
:10236800896F800E8A6F000E8B6F8767BEEF11F042
:10237800C6EF11F08B358B338A3389338833872F37
:10238800B9EF11F00301AC510201882503017C6FFC
:10239800AD510201892103017D6FAE5102018A21ED
:1023A80003017E6FAF5102018B2103017F6F810E04
:1023B8000201876FFF0E886FFF0E896FFF0E8A6F0D
:1023C800170E8B6F7CC38CF27DC38DF27EC38EF2A9
:1023D8007FC38FF28B67F3EF11F0FBEF11F08F35AE
:1023E8008F338E338D338C338B2FEEEF11F0020148
:1023F8008C5187250301A06F000E0201882103017B
:10240800A16F000E020189210301A26F000E0201D3
:102418008A210301A36FA0C387F2FF0E0201886F10
:10242800FF0E896F7F0E8A6F000E8B6F87671FEF15
:1024380012F027EF12F08B358B338A3389338833C8
:10244800872F1AEF12F00201881D8C6F891D8D6F7E
:102458008A1D8E6F8B1D8F6F03017C5102018C15B5
:102468000301B86F7D5102018D150301B96F7E51CB
:1024780002018E150301BA6F7F5102018F15030106
:10248800BB6FB8C3B0F3B9C3B1F3BAC3B2F3BBC33C
:10249800B3F3A05117080201876FFF0E03017C15E3
:1024A8000201886FFF0E03017D150201896F7F0EFF
:1024B80003017E1502018A6F000E03017F150201D8
:1024C8008B6F000E88118C6F000E89118D6F800E36
:1024D8008A118E6F000E8B118F6F876776EF12F05F
:1024E8007EEF12F08F358F338E338D338C33872FF9
:1024F80071EF12F08CC27CF38DC27DF38EC27EF335
:102508008FC27FF30301AFBF8EEF12F08CEF12F092
:1025180096EF12F07F1F7E1F7D1F7C6D000E7D23BE
:102528007E237F239CC33EF29DC33FF29EC340F2AD
:102538009FC341F2B0C342F2B1C343F2B2C344F203
:10254800B3C345F2E6EC6FF03EC29CF33FC29DF385
:1025580040C29EF341C29FF364C315F265C316F2ED
:1025680066C317F267C318F29CC319F29DC31AF227
:102578009EC31BF29FC31CF271EC3CF015C2B0F372
:1025880016C2B1F317C2B2F318C2B3F3B0C3B8F3AB
:10259800B1C3B9F3B2C3BAF3B3C3BBF3B8C390F3CF
:1025A800B9C391F3BAC392F3BBC393F3000E03010B
:1025B8009015B86F800E9115B96FFF0E9215BA6F0E
:1025C800FF0E9315BB6FB8C3B0F3B9C3B1F3BAC369
:1025D800B2F3BBC3B3F3B0C325F2B1C326F2B2C39F
:1025E80027F2B3C328F2000E0201296F720E2A6F78
:1025F800310E2B6F3F0E2C6FF3EC45F025C274F3B0
:1026080026C275F327C276F328C277F39CC342F239
:102618009DC343F29EC344F29FC345F2B0C33EF24A
:10262800B1C33FF2B2C340F2B3C341F2E6EC6FF07C
:102638003EC294F33FC295F340C296F341C297F36A
:10264800180E0201296F720E2A6F310E2B6F3F0E82
:102658002C6F94C342F295C343F296C344F297C3D6
:1026680045F264C33EF265C33FF266C340F267C3F6
:1026780041F2E6EC6FF03EC225F23FC226F240C2BC
:1026880027F241C228F2F3EC45F025C214F326C222
:1026980015F327C216F328C217F314C315F215C38E
:1026A80016F216C317F217C318F28C0E0201296F1F
:1026B800BE0E2A6FBF0E2B6F350E2C6FB0C325F2DE
:1026C800B1C326F2B2C327F2B3C328F2F3EC45F044
:1026D80025C219F226C21AF227C21BF228C21CF21E
:1026E80071EC3CF015C278F316C279F317C27AF38D
:1026F80018C27BF374C315F275C316F276C317F2CA
:1027080077C318F278C319F279C31AF27AC31BF2A5
:102718007BC31CF271EC3CF015C2B4F316C2B5F3DE
:1027280017C2B6F318C2B7F374C342F275C343F2C3
:1027380076C344F277C345F2B4C33EF2B5C33FF261
:10274800B6C340F2B7C341F2E6EC6FF03EC294F371
:102758003FC295F340C296F341C297F378C33EF265
:1027680079C33FF27AC340F27BC341F294C342F289
:1027780095C343F296C344F297C345F2E6EC6FF073
:102788003EC244F33FC245F340C246F341C247F359
:10279800B4C325F2B5C326F2B6C327F2B7C328F2ED
:1027A800B4C329F2B5C32AF2B6C32BF2B7C32CF2CD
:1027B800F3EC45F025C2B0F326C2B1F327C2B2F359
:1027C80028C2B3F30E0E0201196FEA0E1A6FDD0E5E
:1027D8001B6FB50E1C6F4C0E296FBB0E2A6F310E86
:1027E8002B6F330E2C6FB0C325F2B1C326F2B2C3E0
:1027F80027F2B3C328F2F3EC45F025C215F226C23E
:1028080016F227C217F228C218F271EC3CF015C272
:10281800A4F316C2A5F317C2A6F318C2A7F3550E60
:102828000201196FB30E1A6F8A0E1B6F380E1C6FD8
:10283800B0C329F2B1C32AF2B2C32BF2B3C32CF24C
:10284800A4C325F2A5C326F2A6C327F2A7C328F27C
:10285800F3EC45F025C215F226C216F227C217F28C
:1028680028C218F271EC3CF015C254F316C255F3A5
:1028780017C256F318C257F3610E0201196F0B0EF7
:102888001A6F360E1B6FBB0E1C6FB0C329F2B1C393
:102898002AF2B2C32BF2B3C32CF254C325F255C3A8
:1028A80026F256C327F257C328F2F3EC45F025C2A7
:1028B80015F226C216F227C217F228C218F271ECD6
:1028C8003CF015C248F316C249F317C24AF318C2BE
:1028D8004BF3AB0E0201196FAA0E1A6F2A0E1B6F6B
:1028E8003E0E1C6FB0C329F2B1C32AF2B2C32BF259
:1028F800B3C32CF248C325F249C326F24AC327F2D0
:102908004BC328F2F3EC45F025C215F226C216F2A5
:1029180027C217F228C218F271EC3CF015C238F33E
:1029280016C239F317C23AF318C23BF3B4C33EF2E6
:10293800B5C33FF2B6C340F2B7C341F2B0C329F200
:10294800B1C32AF2B2C32BF2B3C32CF238C325F2B7
:1029580039C326F23AC327F23BC328F2F3EC45F019
:1029680025C242F226C243F227C244F228C245F2E7
:10297800E6EC6FF03EC280F33FC281F340C282F3BF
:1029880041C283F3000E0201196F000E1A6F000E88
:102998001B6FC00E1C6F80C315F281C316F282C371
:1029A80017F283C318F271EC3CF015C24AF216C252
:1029B8004BF217C24CF218C24DF280C329F281C300
:1029C8002AF282C32BF283C32CF2B4C325F2B5C317
:1029D80026F2B6C327F2B7C328F2F3EC45F025C2B6
:1029E80046F226C247F227C248F228C249F21EEC34
:1029F8004AF046C23CF347C23DF348C23EF349C2DF
:102A08003FF344C319F245C31AF246C31BF247C346
:102A18001CF244C329F245C32AF246C32BF247C32A
:102A28002CF2B4C325F2B5C326F2B6C327F2B7C356
:102A380028F2F3EC45F025C215F226C216F227C299
:102A480017F228C218F271EC3CF015C218F316C23E
:102A580019F317C21AF318C21BF33CC33EF23DC365
:102A68003FF23EC340F23FC341F218C342F219C3DA
:102A780043F21AC344F21BC345F2E6EC6FF03EC2C0
:102A88004CF33FC24DF340C24EF341C24FF3B4C3BF
:102A980042F2B5C343F2B6C344F2B7C345F24CC3DE
:102AA8003EF24DC33FF24EC340F24FC341F2E6EC53
:102AB8006FF03EC294F33FC295F340C296F341C211
:102AC80097F3000E02013E6F000E3F6F800E406FBD
:102AD8003F0E416F94C342F295C343F296C344F24A
:102AE80097C345F2E6EC6FF03EC2B4F33FC2B5F3CC
:102AF80040C2B6F341C2B7F3B4C3B8F3B5C3B9F330
:102B0800B6C3BAF3B7C3BBF3B8C3ACF3B9C3ADF339
:102B1800BAC3AEF3BBC3AFF37CC387F27DC388F2FD
:102B28007EC389F27FC38AF2170ED89002018737D5
:102B3800883789378A37E82E99EF15F087510301CE
:102B4800AC27020188510301AD2302018951030119
:102B5800AE2302018A510301AF23170E0201876FCA
:102B6800ACC388F2ADC389F2AEC38AF2AFC38BF2AD
:102B78008767C1EF15F0C9EF15F08B358B338A33B2
:102B880089338833872FBCEF15F002018BBFD9EF4B
:102B980015F08B518A11891106E18805D8B0D7EF55
:102BA80015F0D9EF15F0F1EF15F0B4C33EF2B5C347
:102BB8003FF2B6C340F2B7C341F27CC342F27DC3D1
:102BC80043F22EEC52F03EC2B4F33FC2B5F340C21A
:102BD800B6F341C2B7F301EF16F0ACC3B8F3ADC317
:102BE800B9F3AEC3BAF3AFC3BBF3B8C3B4F3B9C355
:102BF800B5F3BAC3B6F3BBC3B7F388C325F289C329
:102C080026F28AC327F28BC328F2B4C329F2B5C3CC
:102C18002AF2B6C32BF2B7C32CF2F3EC45F025C267
:102C28007FF226C280F227C281F228C282F2120005
:102C380084C0B8F185C0B9F186C0BAF187C0BBF1CC
:102C4800B8C160F1B9C161F1BAC162F1BBC163F148
:102C580088C0B8F189C0B9F18AC0BAF18BC0BBF19C
:102C6800B8C184F1B9C185F1BAC186F1BBC187F198
:102C7800FF0E01016015A86FFF0E6115A96FFF0E09
:102C88006215AA6F7F0E6315AB6FFF0E8415986FE0
:102C9800FF0E8515996FFF0E86159A6F7F0E8715A3
:102CA8009B6F985199119A119B11D8A45EEF16F059
:102CB80060EF16F06BEF16F0000E0001846F000E47
:102CC800856F800E866F3F0E876F3DEF2BF0800E6D
:102CD800621909E13F0E631960116111D8A477EFF9
:102CE80016F079EF16F084EF16F0000E0001846FED
:102CF800000E856F800E866F3F0E876F3DEF2BF0BD
:102D0800ABBF95EF16F0A805000EA959800EAA5979
:102D18007F0EAB59D8B093EF16F095EF16F0A6EFEB
:102D280016F09BBFA4EF16F09805000E9959800E77
:102D38009A597F0E9B59D8A0A4EF16F0A6EF16F06B
:102D4800C2EF16F084C016F085C017F086C018F0E0
:102D580087C019F088C01AF089C01BF08AC01CF01F
:102D68008BC01DF093EC43F016C084F017C085F0BB
:102D780018C086F019C087F03DEF2BF0000E506F99
:102D8800000E516F000E526F000E536F63BFD1EFEC
:102D980016F0CFEF16F09DEF17F09BBFDDEF16F0A2
:102DA800800E9A5D4B0E9B59D8A0DDEF16F0DFEF31
:102DB80016F0E9EF16F0020E506F000E516F000E7C
:102DC800526F000E536F9DEF17F09BBFF5EF16F093
:102DD800800E9A5D3F0E9B59D8A0F5EF16F0F7EFDD
:102DE80016F09DEF17F0170E00018C6F98C18DF04B
:102DF80099C18EF09AC18FF09BC190F08C6707EF54
:102E080017F00FEF17F0903590338F338E338D33E3
:102E18008C2F02EF17F0810E00018D250101A06FA4
:102E2800FF0E00018E210101A16FFF0E00018F210D
:102E38000101A26FFF0E000190210101A36FA051B3
:102E4800170800018C6F98C18DF099C18EF09AC156
:102E58008FF09BC190F08C6734EF17F03CEF17F0C0
:102E6800903590338F338E338D338C2F2FEF17F0AF
:102E78008DC0ACF18EC0ADF18FC0AEF190C0AFF196
:102E88000101A051170800018C6FACC18DF0ADC1D4
:102E98008EF0AEC18FF0AFC190F08C2B59EF17F0C8
:102EA800D8908D378E378F3790378C2F54EF17F097
:102EB8000101985100018D1913E101019951000197
:102EC8008E190EE101019A5100018F1909E10101E2
:102ED8009B5100019019D8A474EF17F076EF17F002
:102EE8009DEF17F0010E0101AC1500018C6F000E6B
:102EF8000101AD1500018D6F000E0101AE15000135
:102F08008E6F000E0101AF1500018F6F8C51020802
:102F18000101506F000E00018D550101516F000E27
:102F280000018E550101526F000E00018F550101FD
:102F3800536F800E01019A1909E17F0E9B199811B0
:102F48009911D8A4AAEF17F0ACEF17F018EF18F002
:102F5800800EAA1909E13F0EAB19A811A911D8A42E
:102F6800B8EF17F0BAEF17F0C5EF17F0000E000131
:102F7800846F000E856F800E866F3F0E876F3DEF62
:102F88002BF0ABBFD4EF17F0A805000EA959800E9F
:102F9800AA593F0EAB59D8A0D4EF17F0D6EF17F0C7
:102FA800F2EF17F087BFDDEF17F0DBEF17F0E8EF70
:102FB80017F0000E0001846F000E856F000E866FFB
:102FC800000E876F3DEF2BF088C084F089C085F034
:102FD8008AC086F08BC087F03DEF2BF087BFF9EFF2
:102FE80017F0F7EF17F00DEF18F088C001F089C05F
:102FF80002F08AC003F08BC004F07FEC72F001C0CD
:1030080084F002C085F003C086F004C087F03DEF6D
:103018002BF0000E0001846F000E856F000E866F86
:10302800000E876F3DEF2BF0800E9A1909E13F0ED5
:103038009B1998119911D8A424EF18F026EF18F0CD
:1030480053EF18F087BF2DEF18F02BEF18F049EF6A
:1030580018F0000E476E000E486E800E496E3F0E47
:103068004A6E84C04BF085C04CF086C04DF087C0D6
:103078004EF0ECEC4BF047C084F048C085F049C0F6
:1030880086F04AC087F03DEF2BF084C084F085C0FD
:1030980085F086C086F087C087F03DEF2BF0400EA4
:1030A8008719841185118611D8A45DEF18F05FEF98
:1030B80018F07BEF18F084C026F085C027F086C092
:1030C80028F087C029F084C02AF085C02BF086C07C
:1030D8002CF087C02DF009EC48F026C084F027C0FA
:1030E80085F028C086F029C087F03DEF2BF03F0E11
:1030F8008719841185118611D8A485EF18F087EFF8
:1031080018F0A2EF18F063BF8CEF18F08EEF18F0EC
:10311800A2EF18F084C053F085C054F086C055F073
:1031280087C056F0D2EC3EF053C084F054C085F00E
:1031380055C086F056C087F03DEF2BF084C001F0F3
:1031480085C002F086C003F087C004F0D2EC72F0AC
:1031580001C070F102C071F103C072F104C073F1D3
:10316800800E0101AA190BE17F0EAB19A811A91154
:10317800D8B4C1EF18F0C3EF18F0DCEF18F0A8517D
:10318800A911AA11AB11D8B4CCEF18F0CEEF18F0F2
:10319800DCEF18F0800EAA1909E13F0EAB19A8114F
:1031A800A911D8A4DAEF18F0DCEF18F0ACEF19F099
:1031B80070C1B4F171C1B5F172C1B6F173C1B7F1A3
:1031C80087BFEBEF18F0E9EF18F005EF19F0000EE4
:1031D800476E000E486E800E496E3F0E4A6EB4C1AF
:1031E8004BF0B5C14CF0B6C14DF0B7C14EF0ECECA8
:1031F8004BF047C0B4F148C0B5F149C0B6F14AC078
:10320800B7F1010163BF0DEF19F00BEF19F0A2EF51
:1032180019F0000EA82500018C6F000E0101A921EC
:1032280000018D6F800E0101AA2100018E6FC00E72
:103238000101AB2100018F6F0101505100018C1178
:10324800906F0101515100018D11916F010152518F
:1032580000018E11926F0101535100018F11936F7C
:103268009051911192119311D8A43DEF19F03FEFAD
:1032780019F084EF19F0000E0101F56F210EF46FBB
:10328800B4C143F0B5C144F0B6C145F0B7C146F08A
:10329800B4C13FF0B5C140F0B6C141F0B7C142F08A
:1032A8009AEC70F03FC047F040C048F041C049F088
:1032B80042C04AF0B4C143F0B5C144F0B6C145F0CC
:1032C800B7C146F0B4C13FF0B5C140F0B6C141F056
:1032D800B7C142F09AEC70F03FC04BF040C04CF0E0
:1032E80041C04DF042C04EF0ECEC4BF047C0B4F199
:1032F80048C0B5F149C0B6F14AC0B7F1A2EF19F01C
:1033080001015005511152115311D8A48EEF19F033
:1033180090EF19F0A2EF19F0B4C101F0B5C102F0B5
:10332800B6C103F0B7C104F07FEC72F001C0B4F18C
:1033380002C0B5F103C0B6F104C0B7F1B4C184F05E
:10334800B5C185F0B6C186F0B7C187F03DEF2BF067
:10335800000E886F000E896F800E8A6F3F0E8B6F8C
:1033680063BFBBEF19F0B9EF19F01DEF1AF0505118
:10337800511152115311D8A4C4EF19F0C6EF19F026
:103388000AEF1AF0000EF56F210EF46F84C043F0B7
:1033980085C044F086C045F087C046F084C03FF041
:1033A80085C040F086C041F087C042F09AEC70F0CA
:1033B8003FC047F040C048F041C049F042C04AF021
:1033C80084C043F085C044F086C045F087C046F00D
:1033D80084C03FF085C040F086C041F087C042F00D
:1033E8009AEC70F03FC04BF040C04CF041C04DF03B
:1033F80042C04EF0ECEC4BF047C084F048C085F07A
:1034080049C086F04AC087F03DEF2BF050055111B6
:1034180052115311D8A413EF1AF015EF1AF01DEF3B
:103428001AF0000E886F000E896F800E8A6FBF0E2B
:103438008B6F9BBF2CEF1AF09805000E9959000E60
:103448009A594D0E9B59D8A02CEF1AF02EEF1AF06E
:10345800B3EF1CF0ABBF40EF1AF0F80EA85DFF0EFB
:10346800A9597F0EAA593F0EAB59D8B03EEF1AF0B2
:1034780040EF1AF0B3EF1AF087BF45EF1AF047EFA5
:103488001AF07DEF1AF0600E2A6E420E2B6EA20E15
:103498002C6E0D0E2D6E88C126F089C127F08AC1C9
:1034A80028F08BC129F009EC48F026C0A4F127C008
:1034B800A5F128C0A6F129C0A7F1A4C126F0A5C18D
:1034C80027F0A6C128F0A7C129F0600E2A6E420E87
:1034D8002B6EA20E2C6E0D0E2D6E09EC48F026C038
:1034E80084F027C085F028C086F029C087F03DEF1A
:1034F8002BF0CA0E2A6EF20E2B6E490E2C6E710E30
:103508002D6E88C126F089C127F08AC128F08BC1A9
:1035180029F009EC48F026C0A4F127C0A5F128C07D
:10352800A6F129C0A7F1A4C126F0A5C127F0A6C11C
:1035380028F0A7C129F0CA0E2A6EF20E2B6E490E8A
:103548002C6E710E2D6E09EC48F026C084F027C051
:1035580085F028C086F029C087F03DEF2BF0ABBF7F
:10356800C3EF1AF0080EA85D000EA959800EAA59DB
:103578003F0EAB59D8A0C3EF1AF0C5EF1AF040EFD1
:103588001BF087BFD4EF1AF087518611851106E129
:103598008405D8B0D2EF1AF0D4EF1AF00AEF1BF076
:1035A800600E2A6E420E2B6EA20E2C6E0D0E2D6E24
:1035B80088C126F089C127F08AC128F08BC129F07B
:1035C80009EC48F026C0A4F127C0A5F128C0A6F14F
:1035D80029C0A7F1A4C126F0A5C127F0A6C128F0EB
:1035E800A7C129F0600E2A6E420E2B6EA20E2C6E19
:1035F8000D0E2D6E09EC48F026C084F027C085F02A
:1036080028C086F029C087F03DEF2BF0CA0E2A6E3D
:10361800F20E2B6E490E2C6E710E2D6E88C126F09F
:1036280089C127F08AC128F08BC129F009EC48F03C
:1036380026C0A4F127C0A5F128C0A6F129C0A7F18A
:10364800A4C126F0A5C127F0A6C128F0A7C129F07A
:10365800CA0E2A6EF20E2B6E490E2C6E710E2D6E4E
:1036680009EC48F026C084F027C085F028C086F011
:1036780029C087F03DEF2BF070C116F071C117F02B
:1036880072C118F073C119F0000E1A6E000E1B6E8D
:10369800800E1C6EBF0E1D6E93EC43F016C0B0F189
:1036A80017C0B1F118C0B2F119C0B3F1000E2A6EFB
:1036B800000E2B6E800E2C6E3E0E2D6EB0C126F0C5
:1036C800B1C127F0B2C128F0B3C129F009EC48F024
:1036D80026C043F027C044F028C045F029C046F072
:1036E800AB0E3F6EAA0E406EAA0E416E3E0E426EA3
:1036F8009AEC70F03FC0A4F140C0A5F141C0A6F11A
:1037080042C0A7F1B0C12AF0B1C12BF0B2C12CF070
:10371800B3C12DF0B0C126F0B1C127F0B2C128F075
:10372800B3C129F009EC48F026C054F127C055F17F
:1037380028C056F129C057F1B0C12AF0B1C12BF009
:10374800B2C12CF0B3C12DF0A4C126F0A5C127F059
:10375800A6C128F0A7C129F009EC48F026C043F01B
:1037680027C044F028C045F029C046F0000E3F6E3F
:10377800000E406E000E416E3F0E426E9AEC70F0E5
:103788003FC048F140C049F141C04AF142C04BF145
:1037980054C126F055C127F056C128F057C129F069
:1037A80048C12AF049C12BF04AC12CF04BC12DF079
:1037B80009EC48F026C044F127C045F128C046F17D
:1037C80029C047F1B0C126F0B1C127F0B2C128F035
:1037D800B3C129F0000E2A6EAA0E2B6EB80E2C6EFD
:1037E8003F0E2D6E09EC48F026C074F127C075F124
:1037F80028C076F129C077F1700E2A6EA50E2B6EBF
:10380800EC0E2C6E360E2D6EB0C126F0B1C127F02D
:10381800B2C128F0B3C129F009EC48F026C03FF046
:1038280027C040F028C041F029C042F03B0E2A6E64
:10383800AA0E2B6EB80E2C6E3F0E2D6E44C126F0CC
:1038480045C127F046C128F047C129F009EC48F0E6
:1038580026C043F027C044F028C045F029C046F0F0
:103868009AEC70F03FC078F140C079F141C07AF12C
:1038780042C07BF174C116F075C117F076C118F01B
:1038880077C119F078C11AF079C11BF07AC11CF020
:103898007BC11DF093EC43F016C080F117C081F195
:1038A80018C082F119C083F180C1B8F181C1B9F1A2
:1038B80082C1BAF183C1BBF1B8C190F1B9C191F12C
:1038C800BAC192F1BBC193F1000E01019015B86F16
:1038D800F00E9115B96FFF0E9215BA6FFF0E931582
:1038E800BB6FB8C180F1B9C181F1BAC182F1BBC166
:1038F80083F174C143F075C144F076C145F077C1D6
:1039080046F080C13FF081C140F082C141F083C1DF
:1039180042F09AEC70F03FC094F140C095F141C07C
:1039280096F142C097F178C13FF079C140F07AC171
:1039380041F07BC142F094C143F095C144F096C177
:1039480045F097C146F09AEC70F03FC01CF140C0BA
:103958001DF141C01EF142C01FF133EF24F0000EEB
:103968007C6F000E7D6F000E7E6F000E7F6FABBF09
:10397800C9EF1CF0AB5107E1800EAA5DD8B0C7EFC4
:103988001CF0C9EF1CF0FCEF1CF070C126F071C1EF
:1039980027F072C128F073C129F0000E2A6E000EBC
:1039A8002B6E800E2C6E4B0E2D6E09EC48F026C047
:1039B80070F127C071F128C072F129C073F1E80EC7
:1039C80001017C27FF0E7D23FF0E7E23FF0E7F2340
:1039D80070C1B8F171C1B9F172C1BAF173C1BBF16B
:1039E800B8C1A8F1B9C1A9F1BAC1AAF1BBC1ABF17B
:1039F800170E00018C6FA8C18DF0A9C18EF0AAC165
:103A08008FF0ABC190F08C670CEF1DF014EF1DF038
:103A1800903590338F338E338D338C2F07EF1DF015
:103A2800810E00018D25916FFF0E8E21926FFF0E82
:103A38008F21936FFF0E9021946F915101017C2784
:103A48000001925101017D230001935101017E2360
:103A58000001945101017F23FF0EA815AC6FFF0EE2
:103A6800A915AD6F7F0EAA15AE6F000EAB15AF6F1F
:103A7800000EAC11A86F000EAD11A96F800EAE112B
:103A8800AA6F3F0EAF11AB6FAFBF5AEF1DF0AF512A
:103A98000BE1720EAC5DC40EAD591C0EAE59D8B018
:103AA80058EF1DF05AEF1DF064EF1DF0000EA06FE7
:103AB800000EA16F000EA26F000EA36F96EF1DF00F
:103AC800AFBF76EF1DF0AF510BE1D70EAC5DB30E73
:103AD800AD595D0EAE59D8B074EF1DF076EF1DF0FC
:103AE80080EF1DF0010EA06F000EA16F000EA26FF7
:103AF800000EA36F96EF1DF0000EA06F000EA16FD1
:103B0800000EA26F000EA36F010E7C27000E7D230E
:103B18007E237F23000EA827000EA923800EAA2348
:103B2800FF0EAB23A8C1B8F1A9C1B9F1AAC1BAF176
:103B3800ABC1BBF1B8C170F1B9C171F1BAC172F1D1
:103B4800BBC173F170C13FF071C140F072C141F067
:103B580073C142F0A0C18CF0A1C18DF00001D890D2
:103B68008C378D37D8908C378D37F30E8C25F66EC1
:103B7800FE0E8D21F76EF86A000EF8220900F5CFC7
:103B880043F00900F5CF44F00900F5CF45F00A00ED
:103B9800F5CF46F09AEC70F03FC074F140C075F173
:103BA80041C076F142C077F1000E476E000E486EB4
:103BB800800E496E3F0E4A6E70C11AF071C11BF03B
:103BC80072C11CF073C11DF0A0C18CF0A1C18DF0B1
:103BD8000001D8908C378D37D8908C378D37F30EFD
:103BE8008C25F66EFE0E8D21F76EF86A000EF8220F
:103BF8000900F5CF16F00900F5CF17F00900F5CF49
:103C080018F00A00F5CF19F093EC43F016C04BF00A
:103C180017C04CF018C04DF019C04EF0ECEC4BF04A
:103C280047C078F148C079F149C07AF14AC07BF1C0
:103C380074C126F075C127F076C128F077C129F044
:103C480078C12AF079C12BF07AC12CF07BC12DF014
:103C580009EC48F026C05CF127C05DF128C05EF190
:103C680029C05FF15CC16CF15DC16DF15EC16EF19F
:103C78005FC16FF16CC1B8F16DC1B9F16EC1BAF134
:103C88006FC1BBF1B8C190F1B9C191F1BAC192F15C
:103C9800BBC193F1000E01019015B86FF00E91159C
:103CA800B96FFF0E9215BA6FFF0E9315BB6FB8C1AF
:103CB8006CF1B9C16DF1BAC16EF1BBC16FF1A8C1A8
:103CC8008CF0A9C18DF0AAC18EF0ABC18FF00001B4
:103CD8008F358F338E338D338C33000E8C15906F68
:103CE800F00E8D15916FFF0E8E15926FFF0E8F15CA
:103CF800936F000E90110101906F000E0001911159
:103D08000101916F000E000192110101926F200EC6
:103D1800000193110101936FA0C18CF0A1C18DF036
:103D2800A2C18EF0A3C18FF0150ED89000018C3778
:103D38008D378E378F37E82E99EF1EF0010190519D
:103D480000018C25906F0101915100018D21916F27
:103D58000101925100018E21926F010193510001DE
:103D68008F21936F000E90250101B86F000E00019E
:103D780091210101B96F400E000192210101BA6F32
:103D8800000E000193210101BB6FB8C168F1B9C1F0
:103D980069F1BAC16AF1BBC16BF1A0C18CF0A1C1D4
:103DA8008DF00001D8908C378D37D8908C378D37AF
:103DB800F30E8C25F66EFE0E8D21F76EF86A000E56
:103DC800F8220900F5CF43F00900F5CF44F00900C7
:103DD800F5CF45F00A00F5CF46F068C13FF069C15C
:103DE80040F06AC141F06BC142F09AEC70F03FC0FC
:103DF80094F140C095F141C096F142C097F170C16D
:103E08003FF071C140F072C141F073C142F094C1FA
:103E180043F095C144F096C145F097C146F09AEC3D
:103E280070F03FC034F140C035F141C036F142C0B6
:103E380037F168C12AF069C12BF06AC12CF06BC157
:103E48002DF06CC126F06DC127F06EC128F06FC14E
:103E580029F009EC48F026C043F027C044F028C0F8
:103E680045F029C046F074C13FF075C140F076C1F5
:103E780041F077C142F09AEC70F03FC094F140C035
:103E880095F141C096F142C097F134C12AF035C18D
:103E98002BF036C12CF037C12DF06CC126F06DC166
:103EA80027F06EC128F06FC129F009EC48F026C050
:103EB80043F027C044F028C045F029C046F094C11B
:103EC8003FF095C140F096C141F097C142F09AEC9D
:103ED80070F03FC054F140C055F141C056F142C0A6
:103EE80057F154C126F055C127F056C128F057C1E3
:103EF80029F078C12AF079C12BF07AC12CF07BC166
:103F08002DF009EC48F026C030F127C031F128C067
:103F180032F129C033F15CC126F05DC127F05EC1E2
:103F280028F05FC129F05CC12AF05DC12BF05EC1A9
:103F38002CF05FC12DF009EC48F026C08CF127C0A9
:103F48008DF128C08EF129C08FF1550E1A6E320EF0
:103F58001B6E6C0E1C6E3E0E1D6E420E2A6EF10E0E
:103F68002B6E530E2C6E3E0E2D6E8CC126F08DC11D
:103F780027F08EC128F08FC129F009EC48F026C03F
:103F880016F027C017F028C018F029C019F093ECD4
:103F980043F016C0A4F117C0A5F118C0A6F119C0C6
:103FA800A7F1050E1A6EA30E1B6E8B0E1C6E3E0E2D
:103FB8001D6E8CC12AF08DC12BF08EC12CF08FC1E3
:103FC8002DF0A4C126F0A5C127F0A6C128F0A7C1ED
:103FD80029F009EC48F026C016F027C017F028C0D1
:103FE80018F029C019F093EC43F016C054F117C02B
:103FF80055F118C056F119C057F1AB0E1A6EAA0E3A
:104008001B6EAA0E1C6E3E0E1D6E8CC12AF08DC151
:104018002BF08EC12CF08FC12DF054C126F055C164
:1040280027F056C128F057C129F009EC48F026C0FE
:1040380016F027C017F028C018F029C019F093EC23
:1040480043F016C048F117C049F118C04AF119C029
:104058004BF1B70E1A6E6D0E1B6EDB0E1C6E3E0E0C
:104068001D6E8CC12AF08DC12BF08EC12CF08FC132
:104078002DF048C126F049C127F04AC128F04BC1AC
:1040880029F009EC48F026C016F027C017F028C020
:1040980018F029C019F093EC43F016C038F117C096
:1040A80039F118C03AF119C03BF19A0E1A6E990EFF
:1040B8001B6E190E1C6E3F0E1D6E8CC12AF08DC131
:1040C8002BF08EC12CF08FC12DF038C126F039C1EC
:1040D80027F03AC128F03BC129F009EC48F026C086
:1040E80016F027C017F028C018F029C019F093EC73
:1040F80043F016C000F117C001F118C002F119C051
:1041080003F18CC12AF08DC12BF08EC12CF08FC128
:104118002DF08CC126F08DC127F08EC128F08FC1FB
:1041280029F009EC48F026C004F127C005F128C0A1
:1041380006F129C007F100C126F001C127F002C12C
:1041480028F003C129F004C12AF005C12BF006C1EB
:104158002CF007C12DF009EC48F026C04CF127C01F
:104168004DF128C04EF129C04FF130C12AF031C1BC
:104178002BF032C12CF033C12DF05CC11AF05DC1B7
:104188001BF05EC11CF05FC11DF06CC116F06DC163
:1041980017F06EC118F06FC119F093EC43F016C018
:1041A80026F017C027F018C028F019C029F009EC2C
:1041B80048F026C058F127C059F128C05AF129C043
:1041C8005BF14CC116F04DC117F04EC118F04FC14C
:1041D80019F058C11AF059C11BF05AC11CF05BC143
:1041E8001DF093EC43F016C04CF117C04DF118C008
:1041F8004EF119C04FF16CC126F06DC127F06EC1A8
:1042080028F06FC129F06CC12AF06DC12BF06EC186
:104218002CF06FC12DF009EC48F026C08CF127C0B6
:104228008DF128C08EF129C08FF1000E1A6E000E94
:104238001B6E400E1C6E400E1D6E8CC116F08DC19B
:1042480017F08EC118F08FC119F093EC43F016C027
:1042580058F117C059F118C05AF119C05BF158C18B
:1042680016F059C117F05AC118F05BC119F04CC1CA
:104278001AF04DC11BF04EC11CF04FC11DF093EC5C
:1042880043F016C068F117C069F118C06AF119C087
:104298006BF168C1B8F169C1B9F16AC1BAF16BC112
:1042A800BBF1B8C190F1B9C191F1BAC192F1BBC1EA
:1042B80093F1000E01019015B86FF00E9115B96FCA
:1042C800FF0E9215BA6FFF0E9315BB6FB8C168F158
:1042D800B9C169F1BAC16AF1BBC16BF1000E1A6EBE
:1042E800000E1B6E400E1C6EC00E1D6E68C116F0CF
:1042F80069C117F06AC118F06BC119F093EC43F06B
:1043080016C03CF117C03DF118C03EF119C03FF18D
:104318008CC143F08DC144F08EC145F08FC146F089
:104328003CC13FF03DC140F03EC141F03FC142F0C9
:104338009AEC70F03FC040F140C041F141C042F1F9
:1043480042C043F14CC13FF04DC140F04EC141F075
:104358004FC142F040C143F041C144F042C145F071
:1043680043C146F09AEC70F03FC034F140C035F1DB
:1043780041C036F142C037F16CC126F06DC127F05B
:104388006EC128F06FC129F068C12AF069C12BF00D
:104398006AC12CF06BC12DF009EC48F026C074F10D
:1043A80027C075F128C076F129C077F168C12AF0D5
:1043B80069C12BF06AC12CF06BC12DF030C126F019
:1043C80031C127F032C128F033C129F009EC48F097
:1043D80026C016F027C017F028C018F029C019F019
:1043E8005CC12AF05DC12BF05EC12CF05FC12DF0DD
:1043F80034C126F035C127F036C128F037C129F07D
:1044080009EC48F026C01AF027C01BF028C01CF0A1
:1044180029C01DF093EC43F016C078F117C079F16C
:1044280018C07AF119C07BF174C116F075C117F084
:1044380076C118F077C119F078C11AF079C11BF06C
:104448007AC11CF07BC11DF093EC43F016C09CF1BF
:1044580017C09DF118C09EF119C09FF19CC1B8F119
:104468009DC1B9F19EC1BAF19FC1BBF1B8C190F12C
:10447800B9C191F1BAC192F1BBC193F1000E01012A
:104488009015B86FF00E9115B96FFF0E9215BA6FAF
:10449800FF0E9315BB6FB8C19CF1B9C19DF1BAC1AC
:1044A8009EF1BBC19FF174C143F075C144F076C160
:1044B80045F077C146F09CC13FF09DC140F09EC1D8
:1044C80041F09FC142F09AEC70F03FC094F140C0B7
:1044D80095F141C096F142C097F178C13FF079C19A
:1044E80040F07AC141F07BC142F094C143F095C1DC
:1044F80044F096C145F097C146F09AEC70F03FC081
:1045080064F140C065F141C066F142C067F19CC1E9
:1045180026F09DC127F09EC128F09FC129F0000E0A
:104528002A6E400E2B6E760E2C6E3F0E2D6E09EC09
:1045380048F026C020F127C021F128C022F129C067
:1045480023F14F0E2A6E380E2B6E760E2C6E3F0E10
:104558002D6E64C126F065C127F066C128F067C1D9
:1045680029F009EC48F026C01AF027C01BF028C033
:104578001CF029C01DF0C60E2A6E230E2B6EF60EF7
:104588002C6EB80E2D6E9CC126F09DC127F09EC1E1
:1045980028F09FC129F009EC48F026C016F027C082
:1045A80017F028C018F029C019F093EC43F016C092
:1045B80058F117C059F118C05AF119C05BF158C128
:1045C80016F059C117F05AC118F05BC119F0A0C113
:1045D8008CF0A1C18DF00001D8908C378D37D89020
:1045E8008C378D378B0E8C25F66EFE0E8D21F76E6F
:1045F800F86A000EF8220900F5CF1AF00900F5CF85
:104608001BF00900F5CF1CF00A00F5CF1DF093EC64
:1046180043F016C024F117C025F118C026F119C0BF
:1046280027F17CC108F07DC109F07EC10AF07FC185
:104638000BF0010E56EC59F008C0B0F109C0B1F109
:104648000AC0B2F10BC0B3F124C11AF025C11BF0A6
:1046580026C11CF027C11DF020C116F021C117F09A
:1046680022C118F023C119F093EC43F016C058F199
:1046780017C059F118C05AF119C05BF1A0C18CF0EC
:10468800A1C18DF00001D8908C378D37D8908C3728
:104698008D37930E8C25F66EFE0E8D21F76EF86A17
:1046A800000EF8220900F5CF1AF00900F5CF1BF02B
:1046B8000900F5CF1CF00A00F5CF1DF058C116F01F
:1046C80059C117F05AC118F05BC119F093EC43F0C7
:1046D80016C008F117C009F118C00AF119C00BF18A
:1046E80008C116F009C117F00AC118F00BC119F07A
:1046F800B0C11AF0B1C11BF0B2C11CF0B3C11DF0BA
:1047080093EC43F016C080F117C081F118C082F114
:1047180019C083F180C1B8F181C1B9F182C1BAF180
:1047280083C1BBF1B8C190F1B9C191F1BAC192F19D
:10473800BBC193F1000E01019015B86FF00E9115F1
:10474800B96FFF0E9215BA6FFF0E9315BB6FB8C104
:1047580080F1B9C181F1BAC182F1BBC183F1B0C1A5
:1047680043F0B1C144F0B2C145F0B3C146F080C1D5
:104778003FF081C140F082C141F083C142F09AEC20
:1047880070F03FC094F140C095F141C096F142C02D
:1047980097F1A0C18CF0A1C18DF00001D8908C37A1
:1047A8008D37D8908C378D37930E8C25F66EFE0E8C
:1047B8008D21F76EF86A000EF8220900F5CF43F054
:1047C8000900F5CF44F00900F5CF45F00A00F5CF10
:1047D80046F094C13FF095C140F096C141F097C1B1
:1047E80042F09AEC70F03FC040F140C041F141C046
:1047F80042F142C043F120C143F021C144F022C13B
:1048080045F023C146F040C13FF041C140F042C1EC
:1048180041F043C142F09AEC70F03FC00CF140C047
:104828000DF141C00EF142C00FF124C13FF025C186
:1048380040F026C141F027C142F00CC143F00DC140
:1048480044F00EC145F00FC146F09AEC70F03FC03D
:104858001CF140C01DF141C01EF142C01FF188C0CB
:10486800B8F189C0B9F18AC0BAF18BC0BBF1B8C13F
:1048780090F1B9C191F1BAC192F1BBC193F1000EA7
:1048880001019015B86FF00E9115B96FFF0E9215D2
:10489800BA6FFF0E9315BB6FB8C128F1B9C129F1E2
:1048A800BAC12AF1BBC12BF180C12AF081C12BF01A
:1048B80082C12CF083C12DF028C143F029C144F0F6
:1048C8002AC145F02BC146F088C03FF089C040F0AE
:1048D8008AC041F08BC042F09AEC70F03FC026F0DD
:1048E80040C027F041C028F042C029F009EC48F048
:1048F80026C010F127C011F128C012F129C013F108
:1049080010C116F011C117F012C118F013C119F037
:104918001CC12AF01DC12BF01EC12CF01FC12DF0A7
:1049280088C026F089C027F08AC028F08BC029F0FB
:1049380009EC48F026C01AF027C01BF028C01CF06C
:1049480029C01DF093EC43F016C064F117C065F15F
:1049580018C066F119C067F128C126F029C127F0EF
:104968002AC128F02BC129F080C12AF081C12BF07F
:1049780082C12CF083C12DF009EC48F026C09CF1CF
:1049880027C09DF128C09EF129C09FF164C116F08F
:1049980065C117F066C118F067C119F09CC11AF01B
:1049A8009DC11BF09EC11CF09FC11DF093EC43F00C
:1049B80016C0B4F117C0B5F118C0B6F119C0B7F1F7
:1049C800B4C1B8F1B5C1B9F1B6C1BAF1B7C1BBF15B
:1049D800B8C1ACF1B9C1ADF1BAC1AEF1BBC1AFF16B
:1049E8000101AFBF04EF25F0AC05000EAD59000E74
:1049F800AE59430EAF59D8A004EF25F006EF25F0C5
:104A08003CEF25F0CA0E2A6EF20E2B6E490E2C6E64
:104A1800710E2D6E88C126F089C127F08AC128F051
:104A28008BC129F009EC48F026C0A4F127C0A5F1F4
:104A380028C0A6F129C0A7F1A4C126F0A5C127F076
:104A4800A6C128F0A7C129F0CA0E2A6EF20E2B6E55
:104A5800490E2C6E710E2D6E09EC48F026C084F0BC
:104A680027C085F028C086F029C087F03DEF2BF0DD
:104A7800430EAF19AC11AD11AE11D8A446EF25F015
:104A880048EF25F0BBEF25F09CC143F09DC144F0F1
:104A98009EC145F09FC146F0B4C13FF0B5C140F09A
:104AA800B6C141F0B7C142F09AEC70F03FC047F090
:104AB80040C048F041C049F042C04AF03C0E1A6E6E
:104AC800AA0E1B6E380E1C6E330E1D6E64C116F0D6
:104AD80065C117F066C118F067C119F093EC43F08F
:104AE80016C04BF017C04CF018C04DF019C04EF06E
:104AF80083EC61F0D8B083EF25F085EF25F085EFE2
:104B080026F0CA0E2A6EF20E2B6E490E2C6E710E0E
:104B18002D6E88C126F089C127F08AC128F08BC183
:104B280029F009EC48F026C0A4F127C0A5F128C057
:104B3800A6F129C0A7F1A4C126F0A5C127F0A6C1F6
:104B480028F0A7C129F0CA0E2A6EF20E2B6E490E64
:104B58002C6E710E2D6E09EC48F026C084F027C02B
:104B680085F028C086F029C087F03DEF2BF0FF0EB6
:104B7800AC1500018C6FFF0E0101AD1500018D6FA2
:104B8800FF0E0101AE1500018E6F7F0E0101AF15FA
:104B980000018F6F8FBFDDEF25F08C05000E8D595A
:104BA800160E8E59430E8F59D8A0DDEF25F0DFEF92
:104BB80025F015EF26F0600E2A6E420E2B6EA20E1F
:104BC8002C6E0D0E2D6E88C126F089C127F08AC182
:104BD80028F08BC129F009EC48F026C0A4F127C0C1
:104BE800A5F128C0A6F129C0A7F1A4C126F0A5C146
:104BF80027F0A6C128F0A7C129F0600E2A6E420E40
:104C08002B6EA20E2C6E0D0E2D6E09EC48F026C0F0
:104C180084F027C085F028C086F029C087F03DEFD2
:104C28002BF0160E0101AE1909E1C30EAF19AC1134
:104C3800AD11D8A422EF26F024EF26F085EF26F058
:104C48009CC143F09DC144F09EC145F09FC146F010
:104C5800B4C13FF0B5C140F0B6C141F0B7C142F0B0
:104C68009AEC70F03FC047F040C048F041C049F0AE
:104C780042C04AF064C14BF065C14CF066C14DF0CA
:104C880067C14EF083EC61F0D8A04DEF26F04FEFEE
:104C980026F085EF26F0600E2A6E420E2B6EA20ECD
:104CA8002C6E0D0E2D6E88C126F089C127F08AC1A1
:104CB80028F08BC129F009EC48F026C0A4F127C0E0
:104CC800A5F128C0A6F129C0A7F1A4C126F0A5C165
:104CD80027F0A6C128F0A7C129F0600E2A6E420E5F
:104CE8002B6EA20E2C6E0D0E2D6E09EC48F026C010
:104CF80084F027C085F028C086F029C087F03DEFF2
:104D08002BF0FF0E0101AC152C6FFF0EAD152D6FAA
:104D1800FF0EAE152E6F7F0EAF152F6F170E000109
:104D28008C6F2CC18DF02DC18EF02EC18FF02FC14C
:104D380090F08C67A2EF26F0AAEF26F0903590331A
:104D48008F338E338D338C2F9DEF26F0810E00012B
:104D58008D250101A06FFF0E00018E210101A16FB9
:104D6800FF0E00018F210101A26FFF0E00019021AB
:104D78000101A36F000E7C6F000E7D6F000E7E6F29
:104D8800000E7F6F2FBFD5EF26F02C05000E2D5992
:104D9800000E2E593F0E2F59D8A0D5EF26F0D7EF89
:104DA80026F0DBEF27F0A0C18CF0010E00018C2764
:104DB800000E8D6F000E8E6F800E8F6F000E906F3D
:104DC8008C67E9EF26F0F1EF26F0903590338F33BA
:104DD8008E338D338C2FE4EF26F00101AC510001A6
:104DE8008D2501017C6FAD5100018E2101017D6F80
:104DF800AE5100018F2101017E6FAF51000190215A
:104E080001017F6F810E00018C6FFF0E8D6FFF0E09
:104E18008E6FFF0E8F6F170E906F7CC191F07DC162
:104E280092F07EC193F07FC194F090671EEF27F057
:104E380026EF27F094359433933392339133902FA0
:104E480019EF27F0000191518C250101A06F000E88
:104E580000018D210101A16F000E00018E210101C9
:104E6800A26F000E00018F210101A36FA0C18CF079
:104E7800FF0E00018D6FFF0E8E6F7F0E8F6F000E7D
:104E8800906F8C674AEF27F052EF27F090359033F8
:104E98008F338E338D338C2F45EF27F000018D1D16
:104EA800916F8E1D926F8F1D936F901D946F0101EE
:104EB8007C51000191150101B86F7D5100019215D7
:104EC8000101B96F7E51000193150101BA6F7F513D
:104ED800000194150101BB6FB8C1B0F1B9C1B1F1BE
:104EE800BAC1B2F1BBC1B3F1A051170800018C6F70
:104EF800FF0E01017C1500018D6FFF0E01017D156C
:104F080000018E6F7F0E01017E1500018F6F000E6C
:104F180001017F150001906F000E8D11916F000E39
:104F28008E11926F800E8F11936F000E9011946FF7
:104F38008C67A1EF27F0A9EF27F0943594339333CA
:104F4800923391338C2F9CEF27F091C07CF192C063
:104F58007DF193C07EF194C07FF10101AFBFB9EF3D
:104F680027F0B7EF27F0C1EF27F07F1F7E1F7D1FC7
:104F78007C6D000E7D237E237F239CC13FF09DC165
:104F880040F09EC141F09FC142F0B0C143F0B1C1B1
:104F980044F0B2C145F0B3C146F09AEC70F03FC09E
:104FA8009CF140C09DF141C09EF142C09FF164C197
:104FB80016F065C117F066C118F067C119F09CC1F9
:104FC8001AF09DC11BF09EC11CF09FC11DF093EC0F
:104FD80043F016C0B0F117C0B1F118C0B2F119C052
:104FE800B3F1B0C1B8F1B1C1B9F1B2C1BAF1B3C14D
:104FF800BBF1B8C190F1B9C191F1BAC192F1BBC18D
:1050080093F1000E01019015B86F800E9115B96FDC
:10501800FF0E9215BA6FFF0E9315BB6FB8C1B0F1B2
:10502800B9C1B1F1BAC1B2F1BBC1B3F1B0C126F097
:10503800B1C127F0B2C128F0B3C129F0000E2A6E21
:10504800720E2B6E310E2C6E3F0E2D6E09EC48F051
:1050580026C074F127C075F128C076F129C077F110
:105068009CC143F09DC144F09EC145F09FC146F0EC
:10507800B0C13FF0B1C140F0B2C141F0B3C142F09C
:105088009AEC70F03FC094F140C095F141C096F1A0
:1050980042C097F1180E2A6E720E2B6E310E2C6ECE
:1050A8003F0E2D6E94C143F095C144F096C145F072
:1050B80097C146F064C13FF065C140F066C141F058
:1050C80067C142F09AEC70F03FC026F040C027F06C
:1050D80041C028F042C029F009EC48F026C014F17C
:1050E80027C015F128C016F129C017F114C116F010
:1050F80015C117F016C118F017C119F08C0E2A6ED9
:10510800BE0E2B6EBF0E2C6E350E2D6EB0C126F066
:10511800B1C127F0B2C128F0B3C129F009EC48F0B9
:1051280026C01AF027C01BF028C01CF029C01DF0AB
:1051380093EC43F016C078F117C079F118C07AF1F2
:1051480019C07BF174C116F075C117F076C118F05B
:1051580077C119F078C11AF079C11BF07AC11CF037
:105168007BC11DF093EC43F016C0B4F117C0B5F144
:1051780018C0B6F119C0B7F174C143F075C144F055
:1051880076C145F077C146F0B4C13FF0B5C140F0F3
:10519800B6C141F0B7C142F09AEC70F03FC094F14B
:1051A80040C095F141C096F142C097F178C13FF0F7
:1051B80079C140F07AC141F07BC142F094C143F01B
:1051C80095C144F096C145F097C146F09AEC70F04D
:1051D8003FC044F140C045F141C046F142C047F1EB
:1051E800B4C126F0B5C127F0B6C128F0B7C129F07F
:1051F800B4C12AF0B5C12BF0B6C12CF0B7C12DF05F
:1052080009EC48F026C0B0F127C0B1F128C0B2F1CE
:1052180029C0B3F10E0E1A6EEA0E1B6EDD0E1C6E5F
:10522800B50E1D6E4C0E2A6EBB0E2B6E310E2C6EFB
:10523800330E2D6EB0C126F0B1C127F0B2C128F0EF
:10524800B3C129F009EC48F026C016F027C017F0C2
:1052580028C018F029C019F093EC43F016C0A4F147
:1052680017C0A5F118C0A6F119C0A7F1550E1A6EFE
:10527800B30E1B6E8A0E1C6E380E1D6EB0C12AF05E
:10528800B1C12BF0B2C12CF0B3C12DF0A4C126F0EE
:10529800A5C127F0A6C128F0A7C129F009EC48F05C
:1052A80026C016F027C017F028C018F029C019F03A
:1052B80093EC43F016C054F117C055F118C056F1DD
:1052C80019C057F1610E1A6E0B0E1B6E360E1C6E4E
:1052D800BB0E1D6EB0C12AF0B1C12BF0B2C12CF0CB
:1052E800B3C12DF054C126F055C127F056C128F09E
:1052F80057C129F009EC48F026C016F027C017F06E
:1053080028C018F029C019F093EC43F016C048F1F2
:1053180017C049F118C04AF119C04BF1AB0E1A6E0B
:10532800AA0E1B6E2A0E1C6E3E0E1D6EB0C12AF010
:10533800B1C12BF0B2C12CF0B3C12DF048C126F099
:1053480049C127F04AC128F04BC129F009EC48F0BF
:1053580026C016F027C017F028C018F029C019F089
:1053680093EC43F016C038F117C039F118C03AF180
:1053780019C03BF1B4C13FF0B5C140F0B6C141F02E
:10538800B7C142F0B0C12AF0B1C12BF0B2C12CF0C4
:10539800B3C12DF038C126F039C127F03AC128F041
:1053A8003BC129F009EC48F026C043F027C044F07F
:1053B80028C045F029C046F09AEC70F03FC080F153
:1053C80040C081F141C082F142C083F1000E1A6EE3
:1053D800000E1B6E000E1C6EC00E1D6E80C116F0F6
:1053E80081C117F082C118F083C119F093EC43F022
:1053F80016C04BF017C04CF018C04DF019C04EF055
:1054080080C12AF081C12BF082C12CF083C12DF01C
:10541800B4C126F0B5C127F0B6C128F0B7C129F04C
:1054280009EC48F026C047F027C048F028C049F0EA
:1054380029C04AF0ECEC4BF047C03CF148C03DF1C4
:1054480049C03EF14AC03FF144C11AF045C11BF0C2
:1054580046C11CF047C11DF044C12AF045C12BF0DC
:1054680046C12CF047C12DF0B4C126F0B5C127F0D4
:10547800B6C128F0B7C129F009EC48F026C016F0EB
:1054880027C017F028C018F029C019F093EC43F092
:1054980016C018F117C019F118C01AF119C01BF17C
:1054A8003CC13FF03DC140F03EC141F03FC142F038
:1054B80018C143F019C144F01AC145F01BC146F0A8
:1054C8009AEC70F03FC04CF140C04DF141C04EF134
:1054D80042C04FF1B4C143F0B5C144F0B6C145F084
:1054E800B7C146F04CC13FF04DC140F04EC141F04C
:1054F8004FC142F09AEC70F03FC094F140C095F172
:1055080041C096F142C097F1000E3F6E000E406E0A
:10551800800E416E3F0E426E94C143F095C144F037
:1055280096C145F097C146F09AEC70F03FC0B4F1CF
:1055380040C0B5F141C0B6F142C0B7F1B4C1B8F14D
:10554800B5C1B9F1B6C1BAF1B7C1BBF1B8C1ACF1D7
:10555800B9C1ADF1BAC1AEF1BBC1AFF17CC18CF03C
:105568007DC18DF07EC18EF07FC18FF0170ED8906F
:1055780000018C378D378E378F37E82EBBEF2AF036
:105588008C510101AC2700018D510101AD230001AF
:105598008E510101AE2300018F510101AF23170E77
:1055A80000018C6FACC18DF0ADC18EF0AEC18FF033
:1055B800AFC190F08C67E3EF2AF0EBEF2AF090355B
:1055C80090338F338E338D338C2FDEEF2AF000012A
:1055D80090BFFBEF2AF090518F118E1106E18D05D7
:1055E800D8B0F9EF2AF0FBEF2AF013EF2BF0B4C193
:1055F8003FF0B5C140F0B6C141F0B7C142F07CC13F
:1056080043F07DC144F04DEC53F03FC0B4F140C0CD
:10561800B5F141C0B6F142C0B7F123EF2BF0ACC1F0
:10562800B8F1ADC1B9F1AEC1BAF1AFC1BBF1B8C102
:10563800B4F1B9C1B5F1BAC1B6F1BBC1B7F188C10E
:1056480026F089C127F08AC128F08BC129F0B4C19E
:105658002AF0B5C12BF0B6C12CF0B7C12DF009EC7A
:1056680048F026C084F027C085F028C086F029C0FD
:1056780087F01200000E00019F6F79C0A0F07AC079
:10568800A1F07BC0A2F07CC0A3F0A3BF50EF2BF029
:105698004EEF2BF064EF2BF0010E9F6FA0C001F0CE
:1056A800A1C002F0A2C003F0A3C004F07FEC72F026
:1056B80001C0A0F002C0A1F003C0A2F004C0A3F092
:1056C800000E0001A56F000EA46FF7C28FF0F8C29C
:1056D80090F09F51D8B473EF2BF075EF2BF089EF52
:1056E8002BF09F51D8A47BEF2BF07DEF2BF083EFAD
:1056F8002BF0000E856F2B0E846F87EF2BF0000EBA
:10570800856F2D0E846F84C09FF0A0C001F0A1C0EA
:1057180002F0A2C003F0A3C004F085EC62F001041B
:105728000210D8A49AEF2BF09CEF2BF0CFEF2BF0C0
:1057380000019F51D8B4A3EF2BF0A5EF2BF0AEEFEB
:105748002BF09FC010F48F07D8A09007000EA56F0C
:10575800010EA46F100EA425016E040EA521026E81
:10576800F70E036EFF0E046EA6EC71F00001FD0E3D
:105778008F27FF0E902377C013F078C014F0100E17
:10578800156E040E166E8FC017F090C018F093ECCB
:1057980067F087EF30F0A0C001F0A1C002F0A2C00E
:1057A80003F0A3C004F085EC62F001500210D8A405
:1057B800E0EF2BF0E2EF2BF015EF2CF000019F51FA
:1057C800D8B4E9EF2BF0EBEF2BF0F4EF2BF09FC000
:1057D80010F48F07D8A09007000EA56F010EA46FD4
:1057E800100EA425016E040EA521026EFB0E036E99
:1057F800FF0E046EA6EC71F00001FD0E8F27FF0E60
:10580800902377C013F078C014F0100E156E040EB4
:10581800166E8FC017F090C018F093EC67F087EF02
:1058280030F0000E0001A66F000EA76F800EA86F63
:105838003F0EA96F000E8E6F000E8D6FA0C001F095
:10584800A1C002F0A2C003F0A3C004F0000E056ED0
:10585800000E066E000E076E000E086E40EC68F033
:10586800D8B039EF2CF03BEF2CF01AEF2DF048EFC1
:105878002CF091C0A6F092C0A7F093C0A8F094C0F5
:10588800A9F000018D4B8E2BA6C026F0A7C027F0EB
:10589800A8C028F0A9C029F0000E2A6E000E2B6EB1
:1058A800200E2C6E410E2D6E09EC48F026C091F0AA
:1058B80027C092F028C093F029C094F000019151BC
:1058C800A05D016E9251A159026E9351A259036EC7
:1058D8009451A359046EB3EC6DF004BE7FEF2CF025
:1058E80004500310021009E1020E015CD8A07FEFFA
:1058F8002CF081EF2CF03DEF2CF091C047F092C0D6
:1059080048F093C049F094C04AF0A0C04BF0A1C041
:105918004CF0A2C04DF0A3C04EF083EC61F0D8A0CB
:1059280098EF2CF09AEF2CF03DEF2CF00001A651E7
:10593800A05D016EA751A159026EA851A259036E2C
:10594800A951A359046EB3EC6DF004BEB9EF2CF065
:1059580004500310021007E1020E015CD8B0B7EF43
:105968002CF0B9EF2CF001EF2DF0A6C0A0F0A7C0E5
:10597800A1F0A8C0A2F0A9C0A3F01AEF2DF0A6C00C
:1059880047F0A7C048F0A8C049F0A9C04AF0000EE7
:105998004B6E000E4C6E200E4D6E410E4E6EECECB2
:1059A8004BF047C0A6F048C0A7F049C0A8F04AC0CD
:1059B800A9F000018D07D8A08E07A651A05D016E41
:1059C800A751A159026EA851A259036EA951A35912
:1059D800046EB3EC6DF004BEFFEF2CF0045003101E
:1059E800021007E1020E015CD8B0FDEF2CF0FFEFCA
:1059F8002CF001EF2DF0B9EF2CF0A0C047F0A1C0BA
:105A080048F0A2C049F0A3C04AF0A6C04BF0A7C016
:105A18004CF0A8C04DF0A9C04EF083EC61F0D8A0BE
:105A280018EF2DF01AEF2DF0C3EF2CF07DC087F0A2
:105A380087C088F00201FABF24EF2DF026EF2DF081
:105A48002CEF2DF0F9C280F0FAC281F031EF2DF081
:105A5800000E0001816F060E806F80C08BF081C040
:105A68008CF000018B4B8C2B660E8819D8A43FEF65
:105A78002DF041EF2DF061EF2DF08EBF48EF2DF0A6
:105A880046EF2DF054EF2DF0000EA66F000EA76F15
:105A9800800EA86F3F0EA96F000E8E6F000E8D6FDF
:105AA800670E8719D8B45BEF2DF05DEF2DF061EF2D
:105AB8002DF08D518B278E518C23000E9E6F000E7A
:105AC8009D6FA0C095F0A1C096F0A2C097F0A3C0AA
:105AD80098F0A6C091F0A7C092F0A8C093F0A9C012
