:04000000C1EF00F05C
:100008004382FACF13F0FBCF14F0D9CF15F0DACF33
:1000180016F0F3CF17F0F4CF18F0F6CF19F0F7CFAA
:100028001AF0F8CF1BF0F5CF1CF00E01C2A91FEF94
:1000380000F021EF00F02CEF00F0CAA926EF00F045
:1000480028EF00F02CEF00F022EC3EF0ABEF00F0D0
:10005800F2AC31EF00F033EF00F0ABEF00F0C5A9E0
:1000680038EF00F03AEF00F050EF00F0CDA93FEF85
:1000780000F041EF00F050EF00F002D84EEF00F032
:100088000500FA6E02018651FD6E8751FE6EFF6A09
:10009800FA501200ABEF00F0C5AB55EF00F057EF88
:1000A80000F06DEF00F0CDAB5CEF00F05EEF00F01C
:1000B8006DEF00F002D86BEF00F00500FA6E020158
:1000C8008451FD6E8551FE6EFF6AFA501200ABEF47
:1000D80000F0C6A372EF00F074EF00F07FEF00F0BD
:1000E800CEA379EF00F07BEF00F07FEF00F082EC19
:1000F8003BF0ABEF00F0C5A184EF00F086EF00F015
:100108009BEF00F0CDA18BEF00F08DEF00F09BEF9F
:1001180000F002D899EF00F00500FA6E3850FD6E35
:100128003950FE6EFF6AFA501200ABEF00F0C5A31B
:10013800A0EF00F0A2EF00F0ABEF00F0CDA3A7EF27
:1001480000F0A9EF00F0ABEF00F08DEF00F01CC05D
:10015800F5FF1BC0F8FF1AC0F7FF19C0F6FF18C05B
:10016800F4FF17C0F3FF16C0DAFF15C0D9FF14C09B
:10017800FBFF13C0FAFF43921100CCEF3BF0D8C04D
:10018800B8F1D9C0B9F1DAC0BAF1DBC0BBF1B8C176
:1001980060F1B9C161F1BAC162F1BBC163F1DCC000
:1001A800B8F1DDC0B9F1DEC0BAF1DFC0BBF1B8C14A
:1001B8007CF1B9C17DF1BAC17EF1BBC17FF1FF0EFF
:1001C80001016015A86FFF0E6115A96FFF0E62157A
:1001D800AA6F7F0E6315AB6FFF0E7C15906FFF0E35
:1001E8007D15916FFF0E7E15926F7F0E7F15936FB1
:1001F8009051911192119311D8A405EF01F007EFD6
:1002080001F012EF01F0000E0001D86F000ED96F57
:10021800800EDA6F3F0EDB6F10EF16F0800E62195A
:1002280009E13F0E631960116111D8A41EEF01F0B6
:1002380020EF01F02BEF01F0000E0001D86F000E47
:10024800D96F800EDA6F3F0EDB6F10EF16F0ABBF81
:100258003CEF01F0A805000EA959800EAA597F0E9F
:10026800AB59D8B03AEF01F03CEF01F04DEF01F097
:1002780093BF4BEF01F09005000E9159800E9259F3
:100288007F0E9359D8A04BEF01F04DEF01F069EFC5
:1002980001F0D8C06EF0D9C06FF0DAC070F0DBC0E2
:1002A80071F0DCC072F0DDC073F0DEC074F0DFC046
:1002B80075F01EEC1EF06EC0D8F06FC0D9F070C09B
:1002C800DAF071C0DBF010EF16F0000E506F000E80
:1002D800516F000E526F000E536F63BF78EF01F03D
:1002E80076EF01F044EF02F093BF84EF01F0800E47
:1002F800925D4B0E9359D8A084EF01F086EF01F080
:1003080090EF01F0020E506F000E516F000E526F09
:10031800000E536F44EF02F093BF9CEF01F0800E84
:10032800925D3F0E9359D8A09CEF01F09EEF01F02B
:1003380044EF02F0170E0001E06F90C1E1F091C1A7
:10034800E2F092C1E3F093C1E4F0E067AEEF01F0B0
:10035800B6EF01F0E435E433E333E233E133E02F81
:10036800A9EF01F0810E0001E1250101A06FFF0E48
:100378000001E2210101A16FFF0E0001E32101014B
:10038800A26FFF0E0001E4210101A36FA05117081D
:100398000001E06F90C1E1F091C1E2F092C1E3F099
:1003A80093C1E4F0E067DBEF01F0E3EF01F0E4353F
:1003B800E433E333E233E133E02FD6EF01F0E1C079
:1003C800ACF1E2C0ADF1E3C0AEF1E4C0AFF10101C0
:1003D800A05117080001E06FACC1E1F0ADC1E2F037
:1003E800AEC1E3F0AFC1E4F0E02B00EF02F0D8902B
:1003F800E137E237E337E437E02FFBEF01F00101A3
:1004080090510001E11913E1010191510001E21934
:100418000EE1010192510001E31909E10101935133
:100428000001E419D8A41BEF02F01DEF02F044EF1D
:1004380002F0010E0101AC150001E06F000E010190
:10044800AD150001E16F000E0101AE150001E26F6C
:10045800000E0101AF150001E36FE0510208010130
:10046800506F000E0001E1550101516F000E0001AF
:10047800E2550101526F000E0001E3550101536F6F
:10048800800E0101921909E17F0E931990119111C3
:10049800D8A451EF02F053EF02F0BFEF02F0800E44
:1004A800AA1909E13F0EAB19A811A911D8A45FEF49
:1004B80002F061EF02F06CEF02F0000E0001D86F5D
:1004C800000ED96F800EDA6F3F0EDB6F10EF16F05B
:1004D800ABBF7BEF02F0A805000EA959800EAA5900
:1004E8003F0EAB59D8A07BEF02F07DEF02F099EFF9
:1004F80002F07FBF84EF02F082EF02F08FEF02F08C
:10050800000E0001D86F000ED96F000EDA6F000ED2
:10051800DB6F10EF16F0DCC0D8F0DDC0D9F0DEC01C
:10052800DAF0DFC0DBF010EF16F07FBFA0EF02F0CB
:100538009EEF02F0B4EF02F0DCC01DF0DDC01EF04B
:10054800DEC01FF0DFC020F031EC3BF01DC0D8F05A
:100558001EC0D9F01FC0DAF020C0DBF010EF16F093
:10056800000E0001D86F000ED96F000EDA6F000E72
:10057800DB6F10EF16F0800E921909E13F0E931908
:1005880090119111D8A4CBEF02F0CDEF02F0FBEF60
:1005980002F07FBFD4EF02F0D2EF02F0F1EF02F0E9
:1005A800000E00019F6F000EA06F800EA16F3F0E1E
:1005B800A26FD8C0A3F0D9C0A4F0DAC0A5F0DBC000
:1005C800A6F0F3EC24F09FC0D8F0A0C0D9F0A1C0E9
:1005D800DAF0A2C0DBF010EF16F0D8C0D8F0D9C01E
:1005E800D9F0DAC0DAF0DBC0DBF010EF16F0400E1D
:1005F8007F197C117D117E11D8A405EF03F007EF58
:1006080003F023EF03F0D8C07EF0D9C07FF0DAC042
:1006180080F0DBC081F0D8C082F0D9C083F0DAC0A6
:1006280084F0DBC085F0DDEC22F07EC0D8F07FC01E
:10063800D9F080C0DAF081C0DBF010EF16F03F0E81
:100648007F197C117D117E11D8A42DEF03F02FEFB7
:1006580003F04AEF03F063BF34EF03F036EF03F023
:100668004AEF03F0D8C0ABF0D9C0ACF0DAC0ADF0B7
:10067800DBC0AEF07FEC20F0ABC0D8F0ACC0D9F056
:10068800ADC0DAF0AEC0DBF010EF16F0D8C01DF048
:10069800D9C01EF0DAC01FF0DBC020F068EC3BF0D8
:1006A8001DC070F11EC071F11FC072F120C073F13E
:1006B800800E0101AA190BE17F0EAB19A811A9112F
:1006C800D8B469EF03F06BEF03F084EF03F0A8519F
:1006D800A911AA11AB11D8B474EF03F076EF03F0A7
:1006E80084EF03F0800EAA1909E13F0EAB19A81197
:1006F800A911D8A482EF03F084EF03F054EF04F0BB
:1007080070C1B4F171C1B5F172C1B6F173C1B7F17D
:100718007FBF93EF03F091EF03F0AEEF03F0000E0D
:1007280000019F6F000EA06F800EA16F3F0EA26F99
:10073800B4C1A3F0B5C1A4F0B6C1A5F0B7C1A6F085
:10074800F3EC24F09FC0B4F1A0C0B5F1A1C0B6F19C
:10075800A2C0B7F1010163BFB6EF03F0B4EF03F035
:100768004AEF04F0000EA8250001E06F000E010119
:10077800A9210001E16F800E0101AA210001E26FA9
:10078800C00E0101AB210001E36F010150510001CE
:10079800E011E46F010151510001E111E56F010120
:1007A80052510001E211E66F010153510001E311BA
:1007B800E76FE451E511E611E711D8A4E6EF03F07D
:1007C800E8EF03F02CEF04F0000E336E210E326ECA
:1007D800B4C19BF0B5C19CF0B6C19DF0B7C19EF005
:1007E800B4C197F0B5C198F0B6C199F0B7C19AF005
:1007F8003CEC39F097C09FF098C0A0F099C0A1F0E8
:100808009AC0A2F0B4C19BF0B5C19CF0B6C19DF0EE
:10081800B7C19EF0B4C197F0B5C198F0B6C199F0D0
:10082800B7C19AF03CEC39F097C0A3F098C0A4F097
:1008380099C0A5F09AC0A6F0F3EC24F09FC0B4F1DB
:10084800A0C0B5F1A1C0B6F1A2C0B7F14AEF04F05B
:1008580001015005511152115311D8A436EF04F07B
:1008680038EF04F04AEF04F0B4C11DF0B5C11EF032
:10087800B6C11FF0B7C120F031EC3BF01DC0B4F198
:100888001EC0B5F11FC0B6F120C0B7F1B4C1D8F091
:10089800B5C1D9F0B6C1DAF0B7C1DBF010EF16F088
:1008A800000E886F000E896F800E8A6F3F0E8B6F67
:1008B80063BF63EF04F061EF04F0C5EF04F050513B
:1008C800511152115311D8A46CEF04F06EEF04F0DB
:1008D800B2EF04F0000E336E210E326ED8C09BF0DA
:1008E800D9C09CF0DAC09DF0DBC09EF0D8C097F06C
:1008F800D9C098F0DAC099F0DBC09AF03CEC39F036
:1009080097C09FF098C0A0F099C0A1F09AC0A2F03B
:10091800D8C09BF0D9C09CF0DAC09DF0DBC09EF037
:10092800D8C097F0D9C098F0DAC099F0DBC09AF037
:100938003CEC39F097C0A3F098C0A4F099C0A5F09A
:100948009AC0A6F0F3EC24F09FC0D8F0A0C0D9F06C
:10095800A1C0DAF0A2C0DBF010EF16F0500551117B
:1009680052115311D8A4BBEF04F0BDEF04F0C5EF4A
:1009780004F0000E886F000E896F800E8A6FBF0E1C
:100988008B6F93BFD4EF04F09005000E9159000EC1
:1009980092594D0E9359D8A0D4EF04F0D6EF04F035
:1009A8006AEF07F0ABBFE8EF04F0F80EA85DFF0EA2
:1009B800A9597F0EAA593F0EAB59D8B0E6EF04F0FB
:1009C800E8EF04F05FEF05F07FBFEDEF04F0EFEF25
:1009D80004F027EF05F0600E0001826F420E836F6E
:1009E800A20E846F0D0E856F88C17EF089C17FF0DD
:1009F8008AC180F08BC181F0DDEC22F07EC0A4F1C9
:100A08007FC0A5F180C0A6F181C0A7F1A4C17EF086
:100A1800A5C17FF0A6C180F0A7C181F0600E0001DA
:100A2800826F420E836FA20E846F0D0E856FDDEC10
:100A380022F07EC0D8F07FC0D9F080C0DAF081C043
:100A4800DBF010EF16F0CA0E0001826FF20E836F12
:100A5800490E846F710E856F88C17EF089C17FF061
:100A68008AC180F08BC181F0DDEC22F07EC0A4F158
:100A78007FC0A5F180C0A6F181C0A7F1A4C17EF016
:100A8800A5C17FF0A6C180F0A7C181F0CA0E000100
:100A9800826FF20E836F490E846F710E856FDDECE5
:100AA80022F07EC0D8F07FC0D9F080C0DAF081C0D3
:100AB800DBF010EF16F0ABBF6FEF05F0080EA85D86
:100AC800000EA959800EAA593F0EAB59D8A06FEF56
:100AD80005F071EF05F0F0EF05F07FBF80EF05F04E
:100AE8007F517E117D1106E17C05D8B07EEF05F0BF
:100AF80080EF05F0B8EF05F0600E0001826F420E3E
:100B0800836FA20E846F0D0E856F88C17EF089C138
:100B18007FF08AC180F08BC181F0DDEC22F07EC0CD
:100B2800A4F17FC0A5F180C0A6F181C0A7F1A4C13E
:100B38007EF0A5C17FF0A6C180F0A7C181F0600E4C
:100B48000001826F420E836FA20E846F0D0E856FB7
:100B5800DDEC22F07EC0D8F07FC0D9F080C0DAF09A
:100B680081C0DBF010EF16F0CA0E0001826FF20EA2
:100B7800836F490E846F710E856F88C17EF089C1BD
:100B88007FF08AC180F08BC181F0DDEC22F07EC05D
:100B9800A4F17FC0A5F180C0A6F181C0A7F1A4C1CE
:100BA8007EF0A5C17FF0A6C180F0A7C181F0CA0E72
:100BB8000001826FF20E836F490E846F710E856F8C
:100BC800DDEC22F07EC0D8F07FC0D9F080C0DAF02A
:100BD80081C0DBF010EF16F070C16EF071C16FF0DC
:100BE80072C170F073C171F0000E0001726F000ED7
:100BF800736F800E746FBF0E756F1EEC1EF06EC0A3
:100C0800B0F16FC0B1F170C0B2F171C0B3F1000EB4
:100C18000001826F000E836F800E846F3E0E856F19
:100C2800B0C17EF0B1C17FF0B2C180F0B3C181F034
:100C3800DDEC22F07EC09BF07FC09CF080C09DF070
:100C480081C09EF0AB0E0001976FAA0E986FAA0E96
:100C5800996F3E0E9A6F3CEC39F097C0A4F198C09A
:100C6800A5F199C0A6F19AC0A7F1B0C182F0B1C1AF
:100C780083F0B2C184F0B3C185F0B0C17EF0B1C1D8
:100C88007FF0B2C180F0B3C181F0DDEC22F07EC00C
:100C980054F17FC055F180C056F181C057F1B0C101
:100CA80082F0B1C183F0B2C184F0B3C185F0A4C1B0
:100CB8007EF0A5C17FF0A6C180F0A7C181F0DDEC70
:100CC80022F07EC09BF07FC09CF080C09DF081C068
:100CD8009EF0000E0001976F000E986F000E996F3E
:100CE8003F0E9A6F3CEC39F097C048F198C049F133
:100CF80099C04AF19AC04BF154C17EF055C17FF0BA
:100D080056C180F057C181F048C182F049C183F0D3
:100D18004AC184F04BC185F0DDEC22F07EC044F17D
:100D28007FC045F180C046F181C047F1B0C17EF077
:100D3800B1C17FF0B2C180F0B3C181F0000E0001F3
:100D4800826FAA0E836FB80E846F3F0E856FDDEC3D
:100D580022F07EC074F17FC075F180C076F181C049
:100D680077F1700E0001826FA50E836FEC0E846F11
:100D7800360E856FB0C17EF0B1C17FF0B2C180F090
:100D8800B3C181F0DDEC22F07EC097F07FC098F00F
:100D980080C099F081C09AF03B0E0001826FAA0EC4
:100DA800836FB80E846F3F0E856F44C17EF045C1D6
:100DB8007FF046C180F047C181F0DDEC22F07EC0B3
:100DC8009BF07FC09CF080C09DF081C09EF03CEC01
:100DD80039F097C078F198C079F199C07AF19AC042
:100DE8007BF174C16EF075C16FF076C170F077C198
:100DF80071F078C172F079C173F07AC174F07BC177
:100E080075F01EEC1EF06EC084F16FC085F170C0E5
:100E180086F171C087F184C1B8F185C1B9F186C185
:100E2800BAF187C1BBF1B8C194F1B9C195F1BAC1A2
:100E380096F1BBC197F1000E01019415B86FF00E41
:100E48009515B96FFF0E9615BA6FFF0E9715BB6F04
:100E5800B8C184F1B9C185F1BAC186F1BBC187F1C6
:100E680074C19BF075C19CF076C19DF077C19EF06E
:100E780084C197F085C198F086C199F087C19AF02E
:100E88003CEC39F097C098F198C099F199C09AF163
:100E98009AC09BF178C197F079C198F07AC199F01E
:100EA8007BC19AF098C19BF099C19CF09AC19DF0C2
:100EB8009BC19EF03CEC39F097C01CF198C01DF125
:100EC80099C01EF19AC01FF1F5EF0EF0000E806F69
:100ED800000E816F000E826F000E836FABBF80EF34
:100EE80007F0AB5107E1800EAA5DD8B07EEF07F09E
:100EF80080EF07F0B4EF07F070C17EF071C17FF0AA
:100F080072C180F073C181F0000E0001826F000E83
:100F1800836F800E846F4B0E856FDDEC22F07EC0F0
:100F280070F17FC071F180C072F181C073F1E80E79
:100F380001018027FF0E8123FF0E8223FF0E8323EA
:100F480070C1B8F171C1B9F172C1BAF173C1BBF125
:100F5800B8C1A8F1B9C1A9F1BAC1AAF1BBC1ABF135
:100F6800170E0001E06FA8C1E1F0A9C1E2F0AAC123
:100F7800E3F0ABC1E4F0E067C4EF07F0CCEF07F0B3
:100F8800E435E433E333E233E133E02FBFEF07F036
:100F9800810E0001E125E56FFF0EE221E66FFF0EED
:100FA800E321E76FFF0EE421E86FE5510101802797
:100FB8000001E651010181230001E751010182236B
:100FC8000001E85101018323FF0EA815AC6FFF0E45
:100FD800A915AD6F7F0EAA15AE6F000EAB15AF6FDA
:100FE800000EAC11A86F000EAD11A96F800EAE11E6
:100FF800AA6F3F0EAF11AB6FAFBF12EF08F0AF5142
:101008000BE1720EAC5DC40EAD591C0EAE59D8B0D2
:1010180010EF08F012EF08F01CEF08F0000EA06FB8
:10102800000EA16F000EA26F000EA36F4EEF08F026
:10103800AFBF2EEF08F0AF510BE1D70EAC5DB30E8A
:10104800AD595D0EAE59D8B02CEF08F02EEF08F070
:1010580038EF08F0010EA06F000EA16F000EA26F0E
:10106800000EA36F4EEF08F0000EA06F000EA16FE8
:10107800000EA26F000EA36F010E8027000E8123C1
:1010880082238323000EA827000EA923800EAA23FB
:10109800FF0EAB23A8C1B8F1A9C1B9F1AAC1BAF131
:1010A800ABC1BBF1B8C170F1B9C171F1BAC172F18C
:1010B800BBC173F170C197F071C198F072C199F01A
:1010C80073C19AF0A0C1E0F0A1C1E1F00001D8908D
:1010D800E037E137D890E037E137150EE025F66EB6
:1010E800FF0EE121F76EF86A000EF8220900F5CF2D
:1010F8009BF00900F5CF9CF00900F5CF9DF00A00A0
:10110800F5CF9EF03CEC39F097C074F198C075F1BA
:1011180099C076F19AC077F1000E00019F6F000E1A
:10112800A06F800EA16F3F0EA26F70C172F071C1E7
:1011380073F072C174F073C175F0A0C1E0F0A1C181
:10114800E1F0D890E037E137D890E037E137150E75
:10115800E025F66EFF0EE121F76EF86A000EF82220
:101168000900F5CF6EF00900F5CF6FF00900F5CF53
:1011780070F00A00F5CF71F01EEC1EF06EC0A3F0FF
:101188006FC0A4F070C0A5F071C0A6F0F3EC24F015
:101198009FC078F1A0C079F1A1C07AF1A2C07BF11B
:1011A80074C17EF075C17FF076C180F077C181F09F
:1011B80078C182F079C183F07AC184F07BC185F06F
:1011C800DDEC22F07EC05CF17FC05DF180C05EF195
:1011D80081C05FF15CC16CF15DC16DF15EC16EF102
:1011E8005FC16FF16CC1B8F16DC1B9F16EC1BAF1EF
:1011F8006FC1BBF1B8C194F1B9C195F1BAC196F10B
:10120800BBC197F1000E01019415B86FF00E95154A
:10121800B96FFF0E9615BA6FFF0E9715BB6FB8C161
:101228006CF1B9C16DF1BAC16EF1BBC16FF1A8C162
:10123800E0F0A9C1E1F0AAC1E2F0ABC1E3F000011E
:10124800E335E333E233E133E033000EE015E46FD6
:10125800F00EE115E56FFF0EE215E66FFF0EE315E0
:10126800E76F000EE4110101946F000E0001E51113
:101278000101956F000E0001E6110101966F200E25
:101288000001E7110101976FA0C1E0F0A1C1E1F0F1
:10129800A2C1E2F0A3C1E3F0150ED8900001E03737
:1012A800E137E237E337E82E51EF09F001019451B5
:1012B8000001E025E46F010195510001E121E56F8E
:1012C800010196510001E221E66F010197510001E9
:1012D800E321E76F000EE4250101B86F000E00015D
:1012E800E5210101B96F400E0001E6210101BA6F45
:1012F800000E0001E7210101BB6FB8C168F1B9C157
:1013080069F1BAC16AF1BBC16BF1A0C1E0F0A1C13A
:10131800E1F00001D890E037E137D890E037E137C5
:10132800150EE025F66EFF0EE121F76EF86A000E45
:10133800F8220900F5CF9BF00900F5CF9CF00900D1
:10134800F5CF9DF00A00F5CF9EF068C197F069C10E
:1013580098F06AC199F06BC19AF03CEC39F097C0EB
:1013680098F198C099F199C09AF19AC09BF170C10F
:1013780097F071C198F072C199F073C19AF098C151
:101388009BF099C19CF09AC19DF09BC19EF03CECEA
:1013980039F097C034F198C035F199C036F19AC048
:1013A80037F168C182F069C183F06AC184F06BC10A
:1013B80085F06CC17EF06DC17FF06EC180F06FC1A9
:1013C80081F0DDEC22F07EC09BF07FC09CF080C0F5
:1013D8009DF081C09EF074C197F075C198F076C1F8
:1013E80099F077C19AF03CEC39F097C098F198C021
:1013F80099F199C09AF19AC09BF134C182F035C134
:1014080083F036C184F037C185F06CC17EF06DC1C0
:101418007FF06EC180F06FC181F0DDEC22F07EC0FC
:101428009BF07FC09CF080C09DF081C09EF098C169
:1014380097F099C198F09AC199F09BC19AF03CEC49
:1014480039F097C054F198C055F199C056F19AC037
:1014580057F154C17EF055C17FF056C180F057C195
:1014680081F078C182F079C183F07AC184F07BC1C0
:1014780085F0DDEC22F07EC030F17FC031F180C014
:1014880032F181C033F15CC17EF05DC17FF05EC195
:1014980080F05FC181F05CC182F05DC183F05EC104
:1014A80084F05FC185F0DDEC22F07EC08CF17FC056
:1014B8008DF180C08EF181C08FF1550E0001726FE1
:1014C800320E736F6C0E746F3E0E756F420E826F24
:1014D800F10E836F530E846F3E0E856F8CC17EF0C4
:1014E8008DC17FF08EC180F08FC181F0DDEC22F0DC
:1014F8007EC06EF07FC06FF080C070F081C071F068
:101508001EEC1EF06EC0A4F16FC0A5F170C0A6F16C
:1015180071C0A7F1050E0001726FA30E736F8B0ED9
:10152800746F3E0E756F8CC182F08DC183F08EC1D1
:1015380084F08FC185F0A4C17EF0A5C17FF0A6C15B
:1015480080F0A7C181F0DDEC22F07EC06EF07FC094
:101558006FF080C070F081C071F01EEC1EF06EC09C
:1015680054F16FC055F170C056F171C057F1AB0E10
:101578000001726FAA0E736FAA0E746F3E0E756F1C
:101588008CC182F08DC183F08EC184F08FC185F04B
:1015980054C17EF055C17FF056C180F057C181F02B
:1015A800DDEC22F07EC06EF07FC06FF080C070F07E
:1015B80081C071F01EEC1EF06EC048F16FC049F199
:1015C80070C04AF171C04BF1B70E0001726F6D0E19
:1015D800736FDB0E746F3E0E756F8CC182F08DC118
:1015E80083F08EC184F08FC185F048C17EF049C177
:1015F8007FF04AC180F04BC181F0DDEC22F07EC063
:101608006EF07FC06FF080C070F081C071F01EEC8A
:101618001EF06EC038F16FC039F170C03AF171C078
:101628003BF19A0E0001726F990E736F190E746F69
:101638003F0E756F8CC182F08DC183F08EC184F02E
:101648008FC185F038C17EF039C17FF03AC180F092
:101658003BC181F0DDEC22F07EC06EF07FC06FF000
:1016680080C070F081C071F01EEC1EF06EC000F1F9
:101678006FC001F170C002F171C003F18CC182F03A
:101688008DC183F08EC184F08FC185F08CC17EF04E
:101698008DC17FF08EC180F08FC181F0DDEC22F02A
:1016A8007EC004F17FC005F180C006F181C007F15A
:1016B80000C17EF001C17FF002C180F003C181F05A
:1016C80004C182F005C183F006C184F007C185F02A
:1016D800DDEC22F07EC04CF17FC04DF180C04EF1B0
:1016E80081C04FF130C182F031C183F032C184F042
:1016F80033C185F05CC172F05DC173F05EC174F0F6
:101708005FC175F06CC16EF06DC16FF06EC170F0A5
:101718006FC171F01EEC1EF06EC07EF06FC07FF0DE
:1017280070C080F071C081F0DDEC22F07EC058F10D
:101738007FC059F180C05AF181C05BF14CC16EF095
:101748004DC16FF04EC170F04FC171F058C172F0C9
:1017580059C173F05AC174F05BC175F01EEC1EF0EC
:101768006EC04CF16FC04DF170C04EF171C04FF1B9
:101778006CC17EF06DC17FF06EC180F06FC181F0E9
:101788006CC182F06DC183F06EC184F06FC185F0C9
:10179800DDEC22F07EC08CF17FC08DF180C08EF12F
:1017A80081C08FF1000E0001726F000E736F400E42
:1017B800746F400E756F8CC16EF08DC16FF08EC165
:1017C80070F08FC171F01EEC1EF06EC058F16FC042
:1017D80059F170C05AF171C05BF158C16EF059C12E
:1017E8006FF05AC170F05BC171F04CC172F04DC11D
:1017F80073F04EC174F04FC175F01EEC1EF06EC050
:1018080068F16FC069F170C06AF171C06BF168C1AD
:10181800B8F169C1B9F16AC1BAF16BC1BBF1B8C11C
:1018280094F1B9C195F1BAC196F1BBC197F1000E17
:1018380001019415B86FF00E9515B96FFF0E961546
:10184800BA6FFF0E9715BB6FB8C168F1B9C169F1DE
:10185800BAC16AF1BBC16BF1000E0001726F000ED4
:10186800736F400E746FC00E756F68C16EF069C1FA
:101878006FF06AC170F06BC171F01EEC1EF06EC0A3
:101888003CF16FC03DF170C03EF171C03FF18CC1B9
:101898009BF08DC19CF08EC19DF08FC19EF03CC124
:1018A80097F03DC198F03EC199F03FC19AF03CECE9
:1018B80039F097C040F198C041F199C042F19AC0FF
:1018C80043F14CC197F04DC198F04EC199F04FC10A
:1018D8009AF040C19BF041C19CF042C19DF043C1C8
:1018E8009EF03CEC39F097C034F198C035F199C0BE
:1018F80036F19AC037F16CC17EF06DC17FF06EC1D0
:1019080080F06FC181F068C182F069C183F06AC15B
:1019180084F06BC185F0DDEC22F07EC074F17FC0ED
:1019280075F180C076F181C077F168C182F069C134
:1019380083F06AC184F06BC185F030C17EF031C19B
:101948007FF032C180F033C181F0DDEC22F07EC03F
:101958006EF07FC06FF080C070F081C071F05CC124
:1019680082F05DC183F05EC184F05FC185F034C14F
:101978007EF035C17FF036C180F037C181F0DDECF3
:1019880022F07EC072F07FC073F080C074F081C016
:1019980075F01EEC1EF06EC078F16FC079F170C062
:1019A8007AF171C07BF174C16EF075C16FF076C1C8
:1019B80070F077C171F078C172F079C173F07AC1B3
:1019C80074F07BC175F01EEC1EF06EC09CF16FC008
:1019D8009DF170C09EF171C09FF19CC1B8F19DC18D
:1019E800B9F19EC1BAF19FC1BBF1B8C194F1B9C1B7
:1019F80095F1BAC196F1BBC197F1000E010194159A
:101A0800B86FF00E9515B96FFF0E9615BA6FFF0EE9
:101A18009715BB6FB8C19CF1B9C19DF1BAC19EF1D0
:101A2800BBC19FF174C19BF075C19CF076C19DF05C
:101A380077C19EF09CC197F09DC198F09EC199F026
:101A48009FC19AF03CEC39F097C098F198C099F191
:101A580099C09AF19AC09BF178C197F079C198F032
:101A68007AC199F07BC19AF098C19BF099C19CF01A
:101A78009AC19DF09BC19EF03CEC39F097C064F18F
:101A880098C065F199C066F19AC067F19CC17EF073
:101A98009DC17FF09EC180F09FC181F0000E0001C2
:101AA800826F400E836F760E846F3F0E856FDDEC7C
:101AB80022F07EC020F17FC021F180C022F181C0D8
:101AC80023F14F0E0001826F380E836F760E846FFC
:101AD8003F0E856F64C17EF065C17FF066C180F0FE
:101AE80067C181F0DDEC22F07EC072F07FC073F038
:101AF80080C074F081C075F0C60E0001826F230E9D
:101B0800836FF60E846FB80E856F9CC17EF09DC101
:101B18007FF09EC180F09FC181F0DDEC22F07EC095
:101B28006EF07FC06FF080C070F081C071F01EEC65
:101B38001EF06EC058F16FC059F170C05AF171C0F3
:101B48005BF158C16EF059C16FF05AC170F05BC1BA
:101B580071F0A0C1E0F0A1C1E1F00001D890E03738
:101B6800E137D890E037E137AD0EE025F66EFE0E8E
:101B7800E121F76EF86A000EF8220900F5CF72F03D
:101B88000900F5CF73F00900F5CF74F00A00F5CF1E
:101B980075F01EEC1EF06EC024F16FC025F170C008
:101BA80026F171C027F180C160F081C161F082C166
:101BB80062F083C163F0010E97EC2CF060C0B0F1C5
:101BC80061C0B1F162C0B2F163C0B3F124C172F077
:101BD80025C173F026C174F027C175F020C16EF0DD
:101BE80021C16FF022C170F023C171F01EEC1EF00C
:101BF8006EC058F16FC059F170C05AF171C05BF1F5
:101C0800A0C1E0F0A1C1E1F00001D890E037E137D0
:101C1800D890E037E137B50EE025F66EFE0EE121EB
:101C2800F76EF86A000EF8220900F5CF72F0090085
:101C3800F5CF73F00900F5CF74F00A00F5CF75F011
:101C480058C16EF059C16FF05AC170F05BC171F0A4
:101C58001EEC1EF06EC008F16FC009F170C00AF1E9
:101C680071C00BF108C16EF009C16FF00AC170F0C4
:101C78000BC171F0B0C172F0B1C173F0B2C174F0B0
:101C8800B3C175F01EEC1EF06EC084F16FC085F113
:101C980070C086F171C087F184C1B8F185C1B9F10E
:101CA80086C1BAF187C1BBF1B8C194F1B9C195F148
:101CB800BAC196F1BBC197F1000E01019415B86F36
:101CC800F00E9515B96FFF0E9615BA6FFF0E9715A2
:101CD800BB6FB8C184F1B9C185F1BAC186F1BBC186
:101CE80087F1B0C19BF0B1C19CF0B2C19DF0B3C106
:101CF8009EF084C197F085C198F086C199F087C19C
:101D08009AF03CEC39F097C098F198C099F199C0D5
:101D18009AF19AC09BF1A0C1E0F0A1C1E1F00001E5
:101D2800D890E037E137D890E037E137B50EE025B5
:101D3800F66EFE0EE121F76EF86A000EF822090031
:101D4800F5CF9BF00900F5CF9CF00900F5CF9DF089
:101D58000A00F5CF9EF098C197F099C198F09AC102
:101D680099F09BC19AF03CEC39F097C040F198C0CB
:101D780041F199C042F19AC043F120C19BF021C1C1
:101D88009CF022C19DF023C19EF040C197F041C153
:101D980098F042C199F043C19AF03CEC39F097C0F1
:101DA8000CF198C00DF199C00EF19AC00FF124C141
:101DB80097F025C198F026C199F027C19AF00CC177
:101DC8009BF00DC19CF00EC19DF00FC19EF03CEC44
:101DD80039F097C01CF198C01DF199C01EF19AC046
:101DE8001FF1DCC0B8F1DDC0B9F1DEC0BAF1DFC067
:101DF800BBF1B8C194F1B9C195F1BAC196F1BBC1B3
:101E080097F1000E01019415B86FF00E9515B96F92
:101E1800FF0E9615BA6FFF0E9715BB6FB8C128F164
:101E2800B9C129F1BAC12AF1BBC12BF184C182F031
:101E380085C183F086C184F087C185F028C19BF0F5
:101E480029C19CF02AC19DF02BC19EF0DCC097F0FF
:101E5800DDC098F0DEC099F0DFC09AF03CEC39F0B4
:101E680097C07EF098C07FF099C080F09AC081F04A
:101E7800DDEC22F07EC010F17FC011F180C012F1BC
:101E880081C013F110C16EF011C16FF012C170F072
:101E980013C171F01CC182F01DC183F01EC184F012
:101EA8001FC185F0DCC07EF0DDC07FF0DEC080F0B1
:101EB800DFC081F0DDEC22F07EC072F07FC073F0ED
:101EC80080C074F081C075F01EEC1EF06EC064F125
:101ED8006FC065F170C066F171C067F128C17EF00E
:101EE80029C17FF02AC180F02BC181F084C182F022
:101EF80085C183F086C184F087C185F0DDEC22F0CE
:101F08007EC09CF17FC09DF180C09EF181C09FF191
:101F180064C16EF065C16FF066C170F067C171F0A1
:101F28009CC172F09DC173F09EC174F09FC175F0A1
:101F38001EEC1EF06EC0B4F16FC0B5F170C0B6F102
:101F480071C0B7F1B4C1B8F1B5C1B9F1B6C1BAF150
:101F5800B7C1BBF1B8C1ACF1B9C1ADF1BAC1AEF10D
:101F6800BBC1AFF10101AFBFC6EF0FF0AC05000E6A
:101F7800AD59000EAE59430EAF59D8A0C6EF0FF0B9
:101F8800C8EF0FF000EF10F0CA0E0001826FF20EDA
:101F9800836F490E846F710E856F88C17EF089C189
:101FA8007FF08AC180F08BC181F0DDEC22F07EC029
:101FB800A4F17FC0A5F180C0A6F181C0A7F1A4C19A
:101FC8007EF0A5C17FF0A6C180F0A7C181F0CA0E3E
:101FD8000001826FF20E836F490E846F710E856F58
:101FE800DDEC22F07EC0D8F07FC0D9F080C0DAF0F6
:101FF80081C0DBF010EF16F0430EAF19AC11AD1134
:10200800AE11D8A40AEF10F00CEF10F082EF10F028
:102018009CC19BF09DC19CF09EC19DF09FC19EF00C
:10202800B4C197F0B5C198F0B6C199F0B7C19AF0AC
:102038003CEC39F097C09FF098C0A0F099C0A1F08F
:102048009AC0A2F03C0E0001726FAA0E736F380E90
:10205800746F330E756F64C16EF065C16FF066C141
:1020680070F067C171F01EEC1EF06EC0A3F06FC077
:10207800A4F070C0A5F071C0A6F0DDEC30F000014E
:10208800D8B049EF10F04BEF10F04FEF11F0CA0E37
:10209800826FF20E836F490E846F710E856F88C14F
:1020A8007EF089C17FF08AC180F08BC181F0DDECC0
:1020B80022F07EC0A4F17FC0A5F180C0A6F181C046
:1020C800A7F1A4C17EF0A5C17FF0A6C180F0A7C189
:1020D80081F0CA0E0001826FF20E836F490E846F81
:1020E800710E856FDDEC22F07EC0D8F07FC0D9F08C
:1020F80080C0DAF081C0DBF010EF16F0FF0EAC15EF
:102108000001E06FFF0E0101AD150001E16FFF0E48
:102118000101AE150001E26F7F0E0101AF1500014C
:10212800E36FE3BFA4EF10F0E005000EE159160ECF
:10213800E259430EE359D8A0A4EF10F0A6EF10F02F
:10214800DDEF10F0600E826F420E836FA20E846F77
:102158000D0E856F88C17EF089C17FF08AC180F03D
:102168008BC181F0DDEC22F07EC0A4F17FC0A5F127
:1021780080C0A6F181C0A7F1A4C17EF0A5C17FF0FF
:10218800A6C180F0A7C181F0600E0001826F420EE7
:10219800836FA20E846F0D0E856FDDEC22F07EC07A
:1021A800D8F07FC0D9F080C0DAF081C0DBF010EF42
:1021B80016F0160E0101AE1909E1C30EAF19AC11E4
:1021C800AD11D8A4EAEF10F0ECEF10F04FEF11F0DA
:1021D8009CC19BF09DC19CF09EC19DF09FC19EF04B
:1021E800B4C197F0B5C198F0B6C199F0B7C19AF0EB
:1021F8003CEC39F097C09FF098C0A0F099C0A1F0CE
:102208009AC0A2F064C1A3F065C1A4F066C1A5F0AC
:1022180067C1A6F0DDEC30F00001D8A016EF11F090
:1022280018EF11F04FEF11F0600E826F420E836FBE
:10223800A20E846F0D0E856F88C17EF089C17FF074
:102248008AC180F08BC181F0DDEC22F07EC0A4F160
:102258007FC0A5F180C0A6F181C0A7F1A4C17EF01E
:10226800A5C17FF0A6C180F0A7C181F0600E000172
:10227800826F420E836FA20E846F0D0E856FDDECA8
:1022880022F07EC0D8F07FC0D9F080C0DAF081C0DB
:10229800DBF010EF16F0FF0E0101AC152C6FFF0EEE
:1022A800AD152D6FFF0EAE152E6F7F0EAF152F6F6C
:1022B800170E0001E06F2CC1E1F02DC1E2F02EC134
:1022C800E3F02FC1E4F0E0676CEF11F074EF11F068
:1022D800E435E433E333E233E133E02F67EF11F021
:1022E800810E0001E1250101A06FFF0E0001E2212E
:1022F8000101A16FFF0E0001E3210101A26FFF0E92
:102308000001E4210101A36F000E806F000E816FB0
:10231800000E826F000E836F2FBF9FEF11F02C0508
:10232800000E2D59000E2E593F0E2F59D8A09FEFA1
:1023380011F0A1EF11F0A5EF12F0A0C1E0F0010E2D
:102348000001E027000EE16F000EE26F800EE36FE0
:10235800000EE46FE067B3EF11F0BBEF11F0E43566
:10236800E433E333E233E133E02FAEEF11F0010160
:10237800AC510001E1250101806FAD510001E2215E
:102388000101816FAE510001E3210101826FAF515C
:102398000001E4210101836F810E0001E06FFF0E4F
:1023A800E16FFF0EE26FFF0EE36F170EE46F80C15F
:1023B800E5F081C1E6F082C1E7F083C1E8F0E467A7
:1023C800E8EF11F0F0EF11F0E835E833E733E633E2
:1023D800E533E42FE3EF11F00001E551E0250101B9
:1023E800A06F000E0001E1210101A16F000E0001A4
:1023F800E2210101A26F000E0001E3210101A36F98
:10240800A0C1E0F0FF0E0001E16FFF0EE26F7F0E4A
:10241800E36F000EE46FE06714EF12F01CEF12F0A8
:10242800E435E433E333E233E133E02F0FEF12F026
:102438000001E11DE56FE21DE66FE31DE76FE41D96
:10244800E86F010180510001E5150101B86F815164
:102458000001E6150101B96F82510001E71501017C
:10246800BA6F83510001E8150101BB6FB8C1B0F123
:10247800B9C1B1F1BAC1B2F1BBC1B3F1A0511708EA
:102488000001E06FFF0E010180150001E16FFF0EF2
:10249800010181150001E26F7F0E01018215000123
:1024A800E36F000E010183150001E46F000EE111D6
:1024B800E56F000EE211E66F800EE311E76F000E84
:1024C800E411E86FE0676BEF12F073EF12F0E83594
:1024D800E833E733E633E533E02F66EF12F0E5C083
:1024E80080F1E6C081F1E7C082F1E8C083F1010123
:1024F800AFBF83EF12F081EF12F08BEF12F0831F62
:10250800821F811F806D000E8123822383239CC13B
:1025180097F09DC198F09EC199F09FC19AF0B0C103
:102528009BF0B1C19CF0B2C19DF0B3C19EF03CECF0
:1025380039F097C09CF198C09DF199C09EF19AC05E
:102548009FF164C16EF065C16FF066C170F067C13C
:1025580071F09CC172F09DC173F09EC174F09FC16F
:1025680075F01EEC1EF06EC0B0F16FC0B1F170C016
:10257800B2F171C0B3F1B0C1B8F1B1C1B9F1B2C132
:10258800BAF1B3C1BBF1B8C194F1B9C195F1BAC1FF
:1025980096F1BBC197F1000E01019415B86F800E3A
:1025A8009515B96FFF0E9615BA6FFF0E9715BB6F8D
:1025B800B8C1B0F1B9C1B1F1BAC1B2F1BBC1B3F19F
:1025C800B0C17EF0B1C17FF0B2C180F0B3C181F07B
:1025D800000E0001826F720E836F310E846F3F0E02
:1025E800856FDDEC22F07EC074F17FC075F180C08C
:1025F80076F181C077F19CC19BF09DC19CF09EC192
:102608009DF09FC19EF0B0C197F0B1C198F0B2C1E2
:1026180099F0B3C19AF03CEC39F097C098F198C0A2
:1026280099F199C09AF19AC09BF1180E0001826F36
:10263800720E836F310E846F3F0E856F98C19BF0C9
:1026480099C19CF09AC19DF09BC19EF064C197F01E
:1026580065C198F066C199F067C19AF03CEC39F011
:1026680097C07EF098C07FF099C080F09AC081F042
:10267800DDEC22F07EC014F17FC015F180C016F1A8
:1026880081C017F114C16EF015C16FF016C170F05A
:1026980017C171F08C0E0001826FBE0E836FBF0EE2
:1026A800846F350E856FB0C17EF0B1C17FF0B2C1C5
:1026B80080F0B3C181F0DDEC22F07EC072F07FC003
:1026C80073F080C074F081C075F01EEC1EF06EC00F
:1026D80078F16FC079F170C07AF171C07BF174C183
:1026E8006EF075C16FF076C170F077C171F078C186
:1026F80072F079C173F07AC174F07BC175F01EEC89
:102708001EF06EC0B4F16FC0B5F170C0B6F171C003
:10271800B7F174C19BF075C19CF076C19DF077C18B
:102728009EF0B4C197F0B5C198F0B6C199F0B7C1A1
:102738009AF03CEC39F097C098F198C099F199C09B
:102748009AF19AC09BF178C197F079C198F07AC153
:1027580099F07BC19AF098C19BF099C19CF09AC1FD
:102768009DF09BC19EF03CEC39F097C044F198C0B5
:1027780045F199C046F19AC047F1B4C17EF0B5C1A0
:102788007FF0B6C180F0B7C181F0B4C182F0B5C1A5
:1027980083F0B6C184F0B7C185F0DDEC22F07EC0CD
:1027A800B0F17FC0B1F180C0B2F181C0B3F10E0EBB
:1027B8000001726FEA0E736FDD0E746FB50E756FE0
:1027C8004C0E826FBB0E836F310E846F330E856F94
:1027D800B0C17EF0B1C17FF0B2C180F0B3C181F069
:1027E800DDEC22F07EC06EF07FC06FF080C070F02C
:1027F80081C071F01EEC1EF06EC0A4F16FC0A5F18F
:1028080070C0A6F171C0A7F1550E0001726FB30E2A
:10281800736F8A0E746F380E756FB0C182F0B1C1D4
:1028280083F0B2C184F0B3C185F0A4C17EF0A5C124
:102838007FF0A6C180F0A7C181F0DDEC22F07EC058
:102848006EF07FC06FF080C070F081C071F01EEC38
:102858001EF06EC054F16FC055F170C056F171C0D2
:1028680057F1610E0001726F0B0E736F360E746FA5
:10287800BB0E756FB0C182F0B1C183F0B2C184F0F4
:10288800B3C185F054C17EF055C17FF056C180F0C8
:1028980057C181F0DDEC22F07EC06EF07FC06FF092
:1028A80080C070F081C071F01EEC1EF06EC048F15F
:1028B8006FC049F170C04AF171C04BF1AB0E000115
:1028C800726FAA0E736F2A0E746F3E0E756FB0C1C9
:1028D80082F0B1C183F0B2C184F0B3C185F048C1C0
:1028E8007EF049C17FF04AC180F04BC181F0DDEC38
:1028F80022F07EC06EF07FC06FF080C070F081C0A3
:1029080071F01EEC1EF06EC038F16FC039F170C066
:102918003AF171C03BF1B4C197F0B5C198F0B6C1B6
:1029280099F0B7C19AF0B0C182F0B1C183F0B2C1D9
:1029380084F0B3C185F038C17EF039C17FF03AC167
:1029480080F03BC181F0DDEC22F07EC09BF07FC0BF
:102958009CF080C09DF081C09EF03CEC39F097C09F
:1029680084F198C085F199C086F19AC087F1000E6C
:102978000001726F000E736F000E746FC00E756FDA
:1029880084C16EF085C16FF086C170F087C171F0A7
:102998001EEC1EF06EC0A3F06FC0A4F070C0A5F0CE
:1029A80071C0A6F084C182F085C183F086C184F02D
:1029B80087C185F0B4C17EF0B5C17FF0B6C180F0A3
:1029C800B7C181F0DDEC22F07EC09FF07FC0A0F09F
:1029D80080C0A1F081C0A2F0F3EC24F09FC03CF1CC
:1029E800A0C03DF1A1C03EF1A2C03FF144C172F0C8
:1029F80045C173F046C174F047C175F044C182F017
:102A080045C183F046C184F047C185F0B4C17EF06A
:102A1800B5C17FF0B6C180F0B7C181F0DDEC22F01E
:102A28007EC06EF07FC06FF080C070F081C071F022
:102A38001EEC1EF06EC018F16FC019F170C01AF1CB
:102A480071C01BF13CC197F03DC198F03EC199F0AF
:102A58003FC19AF018C19BF019C19CF01AC19DF0B2
:102A68001BC19EF03CEC39F097C04CF198C04DF179
:102A780099C04EF19AC04FF1B4C19BF0B5C19CF01A
:102A8800B6C19DF0B7C19EF04CC197F04DC198F00A
:102A98004EC199F04FC19AF03CEC39F097C098F1CB
:102AA80098C099F199C09AF19AC09BF1000E000163
:102AB800976F000E986F800E996F3F0E9A6F98C1AE
:102AC8009BF099C19CF09AC19DF09BC19EF03CEC93
:102AD80039F097C0B4F198C0B5F199C0B6F19AC071
:102AE800B7F1B4C1B8F1B5C1B9F1B6C1BAF1B7C15E
:102AF800BBF1B8C1ACF1B9C1ADF1BAC1AEF1BBC15E
:102B0800AFF180C1E0F081C1E1F082C1E2F083C1A0
:102B1800E3F0170ED8900001E037E137E237E337EA
:102B2800E82E8EEF15F0E0510101AC270001E151CC
:102B38000101AD230001E2510101AE230001E3517F
:102B48000101AF23170E0001E06FACC1E1F0ADC188
:102B5800E2F0AEC1E3F0AFC1E4F0E067B6EF15F024
:102B6800BEEF15F0E435E433E333E233E133E02F2D
:102B7800B1EF15F00001E4BFCEEF15F0E451E31119
:102B8800E21106E1E105D8B0CCEF15F0CEEF15F073
:102B9800E6EF15F0B4C197F0B5C198F0B6C199F059
:102BA800B7C19AF080C19BF081C19CF089EC29F0F3
:102BB80097C0B4F198C0B5F199C0B6F19AC0B7F111
:102BC800F6EF15F0ACC1B8F1ADC1B9F1AEC1BAF1CB
:102BD800AFC1BBF1B8C1B4F1B9C1B5F1BAC1B6F171
:102BE800BBC1B7F188C17EF089C17FF08AC180F08E
:102BF8008BC181F0B4C182F0B5C183F0B6C184F055
:102C0800B7C185F0DDEC22F07EC0D8F07FC0D9F0E6
:102C180080C0DAF081C0DBF01200000E0101216FE4
:102C2800CEC022F1CFC023F1D0C024F1D1C025F10C
:102C380025BF23EF16F021EF16F037EF16F0010E3F
:102C4800216F22C11DF023C11EF024C11FF025C130
:102C580020F031EC3BF01DC022F11EC023F11FC053
:102C680024F120C025F1000E0101276F000E266F08
:102C78002EC011F12FC012F12151D8B446EF16F031
:102C880048EF16F05CEF16F02151D8A44EEF16F07D
:102C980050EF16F056EF16F0000E076F2B0E066F6A
:102CA8005AEF16F0000E076F2D0E066F06C121F1C0
:102CB80022C11DF023C11EF024C11FF025C120F040
:102CC80060EC31F01D041E10D8A46DEF16F06FEF04
:102CD80016F0A3EF16F001012151D8B476EF16F0E3
:102CE80078EF16F081EF16F021C118F21107D8A07D
:102CF8001207000E276F010E266F180E26251D6E6F
:102D0800020E27211E6EF60E1F6EFF0E206EEBECD4
:102D180039F00101FD0E1127FF0E1223CCC069F016
:102D2800CDC06AF0180E00016B6F020E6C6F11C1F6
:102D38006DF012C16EF082EC33F040EF1BF022C14F
:102D48001DF023C11EF024C11FF025C120F060EC46
:102D580031F01D501E10D8A4B4EF16F0B6EF16F0DF
:102D6800EAEF16F001012151D8B4BDEF16F0BFEF1C
:102D780016F0C8EF16F021C118F21107D8A01207F3
:102D8800000E276F010E266F180E26251D6E020EE7
:102D980027211E6EFA0E1F6EFF0E206EEBEC39F027
:102DA8000101FD0E1127FF0E1223CCC069F0CDC022
:102DB8006AF0180E00016B6F020E6C6F11C16DF096
:102DC80012C16EF082EC33F040EF1BF0000E0101EF
:102DD800286F000E296F800E2A6F3F0E2B6F000E92
:102DE800106F000E0F6F22C11DF023C11EF024C109
:102DF8001FF025C120F0000E216E000E226E000E7D
:102E0800236E000E246ED9EC33F0D8B00EEF17F015
:102E180010EF17F0F2EF17F01DEF17F013C128F1BC
:102E280014C129F115C12AF116C12BF101010F4B6B
:102E3800102B28C17EF029C17FF02AC180F02BC158
:102E480081F0000E0001826F000E836F200E846FE8
:102E5800410E856FDDEC22F07EC013F17FC014F1C6
:102E680080C015F181C016F101011351225D1D6E5C
:102E7800145123591E6E155124591F6E1651255988
:102E8800206E03EC38F020BE55EF17F020501F10CD
:102E98001E1009E1020E1D5CD8A055EF17F057EF80
:102EA80017F012EF17F013C19FF014C1A0F015C16D
:102EB800A1F016C1A2F022C1A3F023C1A4F024C13D
:102EC800A5F025C1A6F0DDEC30F00001D8A06FEF29
:102ED80017F071EF17F012EF17F001012851225D7A
:102EE8001D6E295123591E6E2A5124591F6E2B51CC
:102EF8002559206E03EC38F020BE90EF17F02050D3
:102F08001F101E1007E1020E1D5CD8B08EEF17F0DF
:102F180090EF17F0D8EF17F028C122F129C123F15B
:102F28002AC124F12BC125F1F2EF17F028C19FF037
:102F380029C1A0F02AC1A1F02BC1A2F0000EA36FF5
:102F4800000EA46F200EA56F410EA66FF3EC24F0BF
:102F58009FC028F1A0C029F1A1C02AF1A2C02BF17D
:102F680001010F07D8A010072851225D1D6E2951B5
:102F780023591E6E2A5124591F6E2B512559206E34
:102F880003EC38F020BED6EF17F020501F101E10AB
:102F980007E1020E1D5CD8B0D4EF17F0D6EF17F09A
:102FA800D8EF17F090EF17F022C19FF023C1A0F0DF
:102FB80024C1A1F025C1A2F028C1A3F029C1A4F021
:102FC8002AC1A5F02BC1A6F0DDEC30F00001D8A095
:102FD800F0EF17F0F2EF17F09AEF17F0D2C009F1FF
:102FE80009C10AF131BEFBEF17F0FDEF17F003EF4F
:102FF80018F030C002F131C003F108EF18F0000EEC
:103008000101036F060E026F02C10DF103C10EF13B
:1030180001010D4B0E2B660E0A19D8A416EF18F0F5
:1030280018EF18F038EF18F010BF1FEF18F01DEF69
:1030380018F02BEF18F0000E286F000E296F800E85
:103048002A6F3F0E2B6F000E106F000E0F6F670E6A
:103058000919D8B432EF18F034EF18F038EF18F037
:103068000F510D2710510E23000E186F000E176F09
:1030780022C119F123C11AF124C11BF125C11CF188
:1030880028C113F129C114F12AC115F12BC116F178
:10309800CAEF18F019C19FF01AC1A0F01BC1A1F026
:1030A8001CC1A2F028C1A3F029C1A4F02AC1A5F02F
:1030B8002BC1A6F0F3EC24F09FC0B8F0A0C0B9F083
:1030C800A1C0BAF0A2C0BBF0A8EC2AF0B8C01DF1AC
:1030D800B9C01EF1BAC01FF1BBC020F11DC11DF05F
:1030E8001EC11EF01FC11FF020C120F059EC30F0A6
:1030F8001DC00BF11EC00CF119C197F01AC198F050
:103108001BC199F01CC19AF01DC182F01EC183F049
:103118001FC184F020C185F028C17EF029C17FF04D
:103128002AC180F02BC181F0DDEC22F07EC09BF03B
:103138007FC09CF080C09DF081C09EF03CEC39F0CF
:1031480097C019F198C01AF199C01BF19AC01CF1E7
:1031580028C19FF029C1A0F02AC1A1F02BC1A2F07B
:10316800000E0001A36F000EA46F200EA56F410E84
:10317800A66FF3EC24F09FC028F1A0C029F1A1C0EC
:103188002AF1A2C02BF10101174B182B0D51175D25
:103198001851800A0001D36F01010E51800A000105
:1031A800D359D8A0DAEF18F0DCEF18F04EEF18F08A
:1031B80028C17EF029C17FF02AC180F02BC181F09F
:1031C800000E826F000E836FA00E846F400E856F15
:1031D800DDEC22F07EC01DF17FC01EF180C01FF122
:1031E80081C020F119C19FF01AC1A0F01BC1A1F044
:1031F8001CC1A2F01DC1A3F01EC1A4F01FC1A5F0FF
:1032080020C1A6F0DDEC30F00001D8B00EEF19F0C7
:1032180010EF19F01BEF19F0000E01011D6F000EE1
:103228001E6F000E1F6F000E206F44EF19F019C1BA
:103238001DF01AC11EF01BC11FF01CC120F01DC1DA
:1032480021F01EC122F01FC123F020C124F0D9ECC7
:1032580033F0D8A032EF19F034EF19F044EF19F039
:1032680001010BB13AEF19F03CEF19F044EF19F0F6
:10327800000E1D6F000E1E6F000E1F6F000E206FD8
:1032880022C16EF023C16FF024C170F025C171F026
:103298001DC172F01EC173F01FC174F020C175F01A
:1032A8001EEC1EF06EC019F16FC01AF170C01BF150
:1032B80071C01CF119C19FF01AC1A0F01BC1A1F087
:1032C8001CC1A2F0000E0001826F000E836F200E59
:1032D800846F410E856F13C17EF014C17FF015C154
:1032E80080F016C181F0DDEC22F07EC0A3F07FC033
:1032F800A4F080C0A5F081C0A6F0DDEC30F000019C
:10330800D8A089EF19F08BEF19F0B5EF19F001018A
:103318000F4B102B13C17EF014C17FF015C180F044
:1033280016C181F0000E0001826F000E836F200E1F
:10333800846F410E856FDDEC22F07EC013F17FC0F3
:1033480014F180C015F181C016F1660E01010A1949
:10335800D8A4B1EF19F0B3EF19F0B5EF19F00D4B90
:103368000E2B13C128F114C129F115C12AF116C178
:103378002BF10FC100F110C101F1000E0101086F1E
:10338800000E056F000E046F000E186F000E176F09
:10339800B4EF1AF019C19FF01AC1A0F01BC1A1F037
:1033A8001CC1A2F028C1A3F029C1A4F02AC1A5F02C
:1033B8002BC1A6F0F3EC24F09FC0B8F0A0C0B9F080
:1033C800A1C0BAF0A2C0BBF0A8EC2AF0B8C01DF1A9
:1033D800B9C01EF1BAC01FF1BBC020F11DC11DF05C
:1033E8001EC11EF01FC11FF020C120F059EC30F0A3
:1033F8001EBE0AEF1AF01E5007E10A0E1D5CD8B077
:1034080008EF1AF00AEF1AF01AEF1AF01DC11DF0B2
:103418001EC11EF01FC11FF020C120F059EC30F072
:103428001DC00BF11EC00CF11FEF1AF0000E0101B8
:103438000C6F090E0B6F01010851D8A426EF1AF082
:1034480028EF1AF050EF1AF001BF2FEF1AF02DEF06
:103458001AF050EF1AF0180E2625D96E020E272101
:10346800DA6E2E0EDF6E264B272B1107D8A0120717
:10347800010E086F50EF1AF0180E2625D96E020EAD
:103488002721DA6E300EDF6E264B272B1107D8A0C6
:1034980012070407D8A0050704510511D8A457EF4F
:1034A8001AF059EF1AF040EF1AF0180E2625D96EC7
:1034B800020E2721DA6E0B51300FDF6E264B272BB9
:1034C8001107D8A0120719C197F01AC198F01BC1AB
:1034D80099F01CC19AF01DC182F01EC183F01FC172
:1034E80084F020C185F028C17EF029C17FF02AC16F
:1034F80080F02BC181F0DDEC22F07EC09BF07FC014
:103508009CF080C09DF081C09EF03CEC39F097C0E3
:1035180019F198C01AF199C01BF19AC01CF128C181
:103528009FF029C1A0F02AC1A1F02BC1A2F0000E82
:103538000001A36F000EA46F200EA56F410EA66FA9
:10354800F3EC24F09FC028F1A0C029F1A1C02AF112
:10355800A2C02BF101010007D8A00107174B182BB7
:103568000D51175D1851800A0001D36F01010E51EA
:10357800800A0001D359D8B0C4EF1AF0C6EF1AF088
:10358800D5EF1AF0010127BFD3EF1AF0275109E14F
:103598004B0E265DD8A0D3EF1AF0D5EF1AF0CEEF78
:1035A80019F0000E0101186F4F0E176F180E17252E
:1035B800D96E020E1821DA6E000EDF6E180E0001A9
:1035C800D36F020ED46F010126510001D35F0101B0
:1035D80027510001D45B010117510001D3251D6E4D
:1035E800010118510001D4211E6E180E1F6E020E23
:1035F800206E26C121F027C122F0EAEC38F0010143
:103608002651175D266F27511859276F2151D8A4C5
:1036180010EF1BF013EF1BF0010E14EF1BF0000E60
:10362800176F186B2151D8B41CEF1BF01EEF1BF05D
:1036380029EF1BF02607D8A02707180E2625D96ED4
:10364800020E2721DA6E21C1DFFF1751115F1851D1
:10365800125BCCC069F0CDC06AF0180E26250001B7
:103668006B6F020E0101272100016C6F11C16DF013
:1036780012C16EF082EC33F01200D7C0D9FFD8C067
:10368800DAFFDECFF6FFDDCFF7FFF86A0800F55066
:10369800250AD8A452EF1BF054EF1BF008EF1EF0D8
:1036A800D7C0D9FFD8C0DAFFDE2A000EDD22000E0F
:1036B8002F6E000E2E6E2EC03AF030683168D7C0DB
:1036C800D9FFD8C0DAFFDECFF6FFDDCFF7FFF86A03
:1036D8000800F5502A0AD8A474EF1BF076EF1BF007
:1036E8009FEF1BF0D7C0D9FFD8C0DAFFDE2A000E43
:1036F800DD22D9C0D9FFDAC0DAFFDFCFDBF0020E56
:10370800DE26DFCFDCF0000EDD22DBC0D9FFDCC017
:10371800DAFFDECF2EF0DDCF2FF02FBE98EF1BF0B3
:1037280096EF1BF0D4EF1BF03A802E6C2F1ED8B00A
:103738002F2AD4EF1BF0D7C0D9FFD8C0DAFFDECFCD
:1037480023F0DDCF24F0ACEC2FF023C02EF024C002
:103758002FF0B6EF1BF0D7C0D9FFD8C0DAFFDE2AAA
:10376800000EDD22D7C0D9FFD8C0DAFFDECFF6FFC2
:10377800DDCFF7FFF86A0800F5CFDBF0D00E0001C7
:10378800DB25DC6FDD6BFF0EDD23DD5109E10A0E61
:10379800DC5DD8A0D2EF1BF0D4EF1BF0AFEF1BF02D
:1037A800D7C0D9FFD8C0DAFFDECFF6FFDDCFF7FFED
:1037B800F86A0800F5502E0AD8A4E5EF1BF0E7EFE9
:1037C8001BF057EF1CF0000E316E000E306ED7C0A4
:1037D800D9FFD8C0DAFFDE2A000EDD22D7C0D9FF14
:1037E800D8C0DAFFDECFF6FFDDCFF7FFF86A0800B2
:1037F800F5502A0AD8A403EF1CF005EF1CF022EFBD
:103808001CF0D7C0D9FFD8C0DAFFDE2A000EDD22AF
:10381800D9C0D9FFDAC0DAFFDFCFDBF0020EDE262F
:10382800DFCFDCF0000EDD22DBC0D9FFDCC0DAFF21
:10383800DECF30F0DDCF31F057EF1CF0D7C0D9FF25
:10384800D8C0DAFFDECF23F0DDCF24F0ACEC2FF0C8
:1038580023C030F024C031F039EF1CF0D7C0D9FFB5
:10386800D8C0DAFFDE2A000EDD22D7C0D9FFD8C0C3
:10387800DAFFDECFF6FFDDCFF7FFF86A0800F5CFF5
:10388800DBF0D00E0001DB25DC6FDD6BFF0EDD23E6
:10389800DD5109E10A0EDC5DD8A055EF1CF057EFA9
:1038A8001CF032EF1CF0D7C0D9FFD8C0DAFFDECF4A
:1038B800E8F0DDCFE9F0E8C0F6FFE9C0F7FFF86A05
:1038C8000800F550640AD8B46CEF1CF06EEF1CF0D9
:1038D8007DEF1CF0E8C0F6FFE9C0F7FFF86A0800C2
:1038E800F550690AD8A47BEF1CF07DEF1CF0C1EFFE
:1038F8001CF0D9C0D9FFDAC0DAFFDFCFDBF0020E47
:10390800DE26DFCFDCF0000EDD22DBC0D9FFDCC015
:10391800DAFFDECFE0F0DDCFE1F00001000EE1BF1D
:10392800FF0EE26FE36FE46FE56FE66FE76F010E7E
:10393800E825DB6F000EE921DC6FD7C0D9FFD8C0BE
:10394800DAFFDBC0DEFFDCC0DDFFD5C07AF0D6C011
:103958007BF0E0C07CF0E1C07DF0E2C07EF0E3C027
:103968007FF0E4C080F0E5C081F0E6C082F0E7C0F7
:1039780083F048EC28F01DEF1EF0E8C0F6FFE9C020
:10398800F7FFF86A0800F550750AD8A4CEEF1CF0C6
:10399800D0EF1CF02EEF1DF0D9C0D9FFDAC0DAFF46
:1039A800DFCFDBF0020EDE26DFCFDCF0000EDD22FB
:1039B800DBC0D9FFDCC0DAFFDECFDDF0DDCFDEF023
:1039C800DDC0E0F0DEC0E1F00001E26BE36BE46B28
:1039D800E56BE66BE76B010EE825DB6F000EE9216E
:1039E800DC6FD7C0D9FFD8C0DAFFDBC0DEFFDCC090
:1039F800DDFF17EF1DF0D5C074F0D6C075F0E0C03C
:103A080076F0E1C077F0E2C078F0E3C079F0E4C086
:103A18007AF0E5C07BF0E6C07CF0E7C07DF0B3EC5F
:103A28002BF01DEF1EF0E8C0F6FFE9C0F7FFF86ABB
:103A38000800F550DB6FDC6BDC51000AD8B427EFC7
:103A48001DF02EEF1DF0DB51750AD8B4FFEF1CF006
:103A58002EEF1DF0D7C0D9FFD8C0DAFFDECFE8F0CF
:103A6800DDCFE9F0E8C0F6FFE9C0F7FFF86A080023
:103A7800F5CFDFF04CEF1DF0E84BE92B66EF1DF0BA
:103A88006C0EDF6F66EF1DF0000EDF6F66EF1DF046
:103A98000001DF51DB6FDC6BDC51000AD8B457EF53
:103AA8001DF048EF1DF0DB514C0AD8B440EF1DF073
:103AB8002A0AD8B444EF1DF00A0AD8B440EF1DF022
:103AC80048EF1DF0E8C0F6FFE9C0F7FFF86A080004
:103AD800F550660AD8A473EF1DF075EF1DF0FFEFDF
:103AE8001DF0ABEF1DF0D9C0D9FFDAC0DAFFDFCF88
:103AF800DBF0040EDE26DFCFDCF0000EDD22DBC0BB
:103B0800D9FFDCC0DAFFDECFE0F0DECFE1F0DECFB8
:103B1800E2F0DECFE3F0C0EF1DF0D9C0D9FFDAC084
:103B2800DAFFDFCFDBF0040EDE26DFCFDCF0000E9D
:103B3800DD22DBC0D9FFDCC0DAFFDECFE0F0DECF6C
:103B4800E1F0DECFE2F0DECFE3F0C0EF1DF0DF51B1
:103B5800DB6FDC6BDC51000AD8B4B5EF1DF0C0EFA9
:103B68001DF0DB514C0AD8B491EF1DF0200AD8B4EF
:103B780077EF1DF0C0EF1DF0010EE825DB6F000E9A
:103B8800E921DC6FD7C0D9FFD8C0DAFFDBC0DEFF80
:103B9800DCC0DDFFE8EF1DF0D5C0CCF0D6C0CDF01D
:103BA800E0C0CEF0E1C0CFF0E2C0D0F0E3C0D1F089
:103BB800E8C0F6FFE9C0F7FFF86A0800F5CFD2F0D1
:103BC80011EC16F01DEF1EF0E8C0F6FFE9C0F7FF94
:103BD800F86A0800F550DB6FDC6BDC51000AD8B4DA
:103BE800F8EF1DF0FFEF1DF0DB51660AD8B4D0EFF7
:103BF8001DF0FFEF1DF0D7C0D9FFD8C0DAFFDE2ACD
:103C0800000EDD221DEF1EF0D7C0D9FFD8C0DAFFA5
:103C1800DECFF6FFDDCFF7FFF86A0800F5501F6E1C
:103C2800206AD5C021F0D6C022F020EC35F0FFEF95
:103C38001DF0120000017151800B7A6F71517125CE
:103C48007C6F70AF2AEF1EF02CEF1EF02DEF1EF0E8
:103C58007C817C51D8B433EF1EF035EF1EF04AEF6B
:103C68001EF07C29D8A43BEF1EF03DEF1EF045EF77
:103C78001EF0000E6E6F000E6F6F000E706F000E5C
:103C8800716F708F000E716F52EF1EF0000E6E6F25
:103C9800000E6F6F000E706F000E716F7551800B04
:103CA8007B6F7A517B19D8B45CEF1EF05EEF1EF083
:103CB8005FEF1EF07A8D755175257B6F74AF67EFD6
:103CC8001EF069EF1EF06AEF1EF07B817B51D8B4BD
:103CD80070EF1EF072EF1EF087EF1EF07B29D8A45C
:103CE80078EF1EF07AEF1EF082EF1EF0000E726F72
:103CF800000E736F000E746F000E756F748F000ED8
:103D0800756F8FEF1EF0000E726F000E736F000E4E
:103D1800746F000E756F7C517B5DD8B096EF1EF006
:103D280098EF1EF0BFEF1EF07AAD9DEF1EF09FEFEB
:103D38001EF0A1EF1EF0800E7A1B7CC07DF07BC0C8
:103D48007CF07DC07BF06EC07DF072C06EF07DC0EF
:103D580072F06FC07DF073C06FF07DC073F070C0FB
:103D68007DF074C070F07DC074F071C07DF075C0D6
:103D780071F07DC075F0000E7D6F7C517BC076F0D0
:103D8800776B765F000E775B77BFD4EF1EF07751C5
:103D980009E11A0E765DD8A0D4EF1EF0D6EF1EF01A
:103DA8000DEF1FF06E516F1170117111D8A4DFEF74
:103DB8001EF0E2EF1EF0010EE3EF1EF0000E7D6F25
:103DC800000E6E6F000E6F6F000E706F000E716F39
:103DD8007BC07CF016EF1FF07DA1F5EF1EF0F7EF2A
:103DE8001EF0FDEF1EF0D8907D3101097D6FFFEFC9
:103DF8001EF0D8907D336EA104EF1FF006EF1FF080
:103E080007EF1FF07D8F7135713370336F336E3369
:103E18007C2B7B517C5DD8A014EF1FF016EF1FF0B0
:103E2800F0EF1EF07ABD1BEF1FF01DEF1FF05DEFE6
:103E38001FF07C51D8A423EF1FF025EF1FF02FEFC0
:103E48001FF0000E6E6F000E6F6F000E706F000E89
:103E5800716F7EEF20F072516E2773516F2374518A
:103E680070237551712371A13CEF1FF03EEF1FF0D5
:103E7800EAEF1FF07DA143EF1FF045EF1FF04BEF76
:103E88001FF0D8907D3101097D6F4DEF1FF0D8905C
:103E98007D336EA152EF1FF054EF1FF055EF1FF066
:103EA8007D8F7135713370336F336E337C2BEAEF4E
:103EB8001FF072516E5D73516F5974517059715181
:103EC800800A766F7551800A7659D8B06EEF1FF068
:103ED80070EF1FF09BEF1FF06E51725D766F6F51A0
:103EE8007359776F70517459786F71517559796F2B
:103EF800FF0E76256E6FFF0E77216F6FFF0E78210C
:103F0800706FFF0E7921716F800E7A1B7D6D7D5168
:103F1800D8A491EF1FF093EF1FF0A3EF1FF0010E4D
:103F28006E27000E6F2370237123A3EF1FF07251C9
:103F38006E5F73516F5B7451705B7551715B6E513D
:103F48006F1170117111D8A4ACEF1FF0AEEF1FF014
:103F5800E3EF1FF07D51D8A4B4EF1FF0B6EF1FF0C8
:103F6800E3EF1FF0000E6E6F000E6F6F000E706FA4
:103F7800000E716F7EEF20F0D8906E376F37703774
:103F880071377DAFCAEF1FF0CCEF1FF0CDEF1FF0F8
:103F98006E817DA1D2EF1FF0D4EF1FF0D8EF1FF094
:103FA800D8807D37DAEF1FF0D8907D377C51D8B4B0
:103FB800E0EF1FF0E2EF1FF0E3EF1FF07C0770AFB8
:103FC800E8EF1FF0EAEF1FF0C0EF1FF0000E7B6F65
:103FD8007DAFF1EF1FF0F3EF1FF00BEF20F07DC086
:103FE80076F07F0E7617D8B4FCEF1FF0FEEF1FF0C7
:103FF80002EF20F0010E7B6F0BEF20F06EA107EFB0
:1040080020F009EF20F00BEF20F0FEEF1FF07B51BE
:10401800D8B411EF20F013EF20F03EEF20F0010E9E
:104028006E27000E6F237023712371A11EEF20F0FD
:1040380020EF20F03EEF20F06EC076F06FC077F0F2
:1040480070C078F071C079F0793579337833773387
:10405800763376C06EF077C06FF078C070F079C0B4
:1040680071F07C29D8B43BEF20F03DEF20F03EEF13
:1040780020F07C2B7C29D8B444EF20F046EF20F0C8
:104088004EEF20F07C51D8A44CEF20F04EEF20F0FA
:1040980060EF20F0000E6E6F000E6F6F000E706FF5
:1040A800000E716F7C51D8A45CEF20F05EEF20F019
:1040B80060EF20F0000E7A6F7CA165EF20F067EFCB
:1040C80020F06AEF20F0708F6BEF20F0709FD8908F
:1040D8007C31716F7AAF73EF20F075EF20F076EFD7
:1040E80020F0718F6EC06EF06FC06FF070C070F00E
:1040F80071C071F01200ABC0BCF0ACC0BDF0ADC077
:10410800BEF0AEC0BFF0BCC0D4F0BDC0D5F0BEC0DC
:10411800D6F0BFC0D7F0000E0001D415AF6F000E67
:10412800D515B06F800ED615B16F7F0ED715B26F4B
:10413800800EB11909E17F0EB219AF11B011D8A4E0
:10414800A8EF20F0AAEF20F0D8EF20F0ABC082F063
:10415800ACC083F0ADC084F0AEC085F0ABC07EF0DB
:10416800ACC07FF0ADC080F0AEC081F0DDEC22F0D5
:104178007EC06EF07FC06FF080C070F081C071F0BB
:10418800ABC072F0ACC073F0ADC074F0AEC075F0E7
:104198001EEC1EF06EC0ABF06FC0ACF070C0ADF09E
:1041A80071C0AEF0DCEF22F0D7BFE7EF20F0D751B7
:1041B800D611D51106E1D405D8B0E5EF20F0E7EF28
:1041C80020F023EF21F0FF0ED415AF6FFF0ED515A9
:1041D800B06FFF0ED615B16F7F0ED715B26FAF5106
:1041E800B011B111B211D8A4FCEF20F0FEEF20F00D
:1041F80008EF21F0ABC0ABF0ACC0ACF0ADC0ADF097
:10420800AEC0AEF0DCEF22F0D7BF0FEF21F00DEF1C
:1042180021F023EF21F0000E336E210E326E720E64
:104228001D6EFF0E1E6E33EC3DF01DC0ABF01EC0C0
:10423800ACF01FC0ADF020C0AEF0DCEF22F0170EDE
:10424800AF6FD4C0B0F0D5C0B1F0D6C0B2F0D7C00F
:10425800B3F0AF6732EF21F03AEF21F0B335B33363
:10426800B233B133B033AF2F2DEF21F0B0C0CCF063
:10427800B1C0CDF0B2C0CEF0B3C0CFF00001CC5188
:10428800CD11CE11CF11D8A44CEF21F04EEF21F073
:104298007EEF21F0000EB86F000EB96F000EBA6FF6
:1042A800000EBB6F63EF21F0D890D437D537D637DF
:1042B800D737010EB827000EB923BA23BB23D6AFD0
:1042C80068EF21F06AEF21F058EF21F0FF0EB825D2
:1042D800AF6FFF0EB921B06FFF0EBA21B16FFF0E9D
:1042E800BB21B26FAF51CC5FB051CD5BB151CE5B4A
:1042F800B251CF5B810ECC27FF0ECD23FF0ECE230C
:10430800FF0ECF23FF0ED415AF6FFF0ED515B06F7C
:104318007F0ED615B16F000ED715B26F000EAF1114
:10432800D46F000EB011D56F800EB111D66F000E8C
:10433800B211D76FCCA1A3EF21F0A5EF21F0ADEF1B
:1043480021F0D451D427D551D523D651D623D751CE
:10435800D723CF35CF33CE33CD33CC33D451D42735
:10436800D551D523D651D623D751D723000EB46FB4
:10437800000EB56F000EB66F000EB76FB4C0C0F078
:10438800B5C0C1F0B6C0C2F0B7C0C3F0000ED06F60
:10439800000ED16F000ED26F010ED36F1CEF22F00A
:1043A800B451D025C46FB551D121C56FB651D221B2
:1043B800C66FB751D321C76FC451D45DC551D55904
:1043C800C651D659D751800AAF6FC751800AAF5925
:1043D800D8A0F1EF21F0F3EF21F00FEF22F0C45154
:1043E800D025B46FC551D121B56FC651D221B66F52
:1043F800C751D321B76FC451D45FC551D55BC651DE
:10440800D65BC751D75BD051C027D151C123D251F8
:10441800C223D351C323D451D427D551D523D65140
:10442800D623D751D723D890D333D233D133D033EF
:10443800D051D111D211D311D8A425EF22F027EFF2
:1044480022F0D4EF21F0D451D511D611D711D8B418
:1044580030EF22F032EF22F092EF22F0000EC86F18
:10446800000EC96F800ECA6F3F0ECB6FC8C09FF099
:10447800C9C0A0F0CAC0A1F0CBC0A2F0000EA36FC3
:10448800000EA46F800EA56F3F0EA66FDDEC30F016
:104498000001D8A052EF22F054EF22F092EF22F060
:1044A800000EC86F000EC96F800ECA6F3F0ECB6F2B
:1044B800000E9F6F000EA06F800EA16F3F0EA26FBF
:1044C800C8C0A3F0C9C0A4F0CAC0A5F0CBC0A6F06C
:1044D800DDEC30F00001D8B074EF22F076EF22F076
:1044E8007EEF22F0020EC027000EC123C223C32391
:1044F80092EF22F0010EC015AF6F000EC115B06F1C
:10450800000EC215B16F000EC315B26FAF51C027B0
:10451800B051C123B151C223B251C323C0C0AFF0BF
:10452800C1C0B0F0C2C0B1F0C3C0B2F0B235B2334E
:10453800B133B033AF33000EAF25D46F000EB021C6
:10454800D56F000EB121D66F3F0EB221D76FCCC008
:10455800AFF0CDC0B0F0CEC0B1F0CFC0B2F0170E02
:10456800D890AF37B037B137B237E82EB4EF22F072
:10457800AF51D427B051D523B151D623B251D72347
:10458800D4C0BCF0D5C0BDF0D6C0BEF0D7C0BFF017
:10459800BCC0C8F0BDC0C9F0BEC0CAF0BFC0CBF037
:1045A800C8C0ABF0C9C0ACF0CAC0ADF0CBC0AEF06B
:1045B800120000018151800B8A6F81518125906F13
:1045C80080AFE9EF22F0EBEF22F0ECEF22F09081E0
:1045D8009051D8B4F2EF22F0F4EF22F007EF23F075
:1045E8009029D8A4FAEF22F0FCEF22F004EF23F090
:1045F800000E7E6F000E7F6F000E806F000E816FC1
:10460800808F0FEF23F0000E7E6F000E7F6F000E7D
:10461800806F000E816F8551800B8A1B855185251F
:104628008B6F84AF1AEF23F01CEF23F01DEF23F0FC
:104638008B818B51D8B423EF23F025EF23F038EF8B
:1046480023F08B29D8A42BEF23F02DEF23F035EF9F
:1046580023F0000E826F000E836F000E846F000E31
:10466800856F848F40EF23F0000E826F000E836FFA
:10467800000E846F000E856F8B51D8B446EF23F07F
:1046880048EF23F050EF23F09051D8A44EEF23F0D9
:1046980050EF23F05AEF23F0000E7E6F000E7F6F6D
:1046A800000E806F000E816FF2EF24F084517E03BC
:1046B800F3CF95F0F4CF96F095518C6F8D6B8E6B90
:1046C8008F6B9651916F926B936B946B83517F03B1
:1046D800F3CF95F0F4CF96F095518C27000E8D23EB
:1046E8008E238F2396519127000E92239323942390
:1046F80082518003F3CF95F0F4CF96F095518C2733
:10470800000E8D238E238F2396519127000E92231E
:10471800932394238EC08FF08DC08EF08CC08DF0C3
:104728008C6B82517F03F3CF95F0F4CF96F09551BF
:104738008C2796518D23000E8E23000E8F238351D4
:104748007E03F3CF95F0F4CF96F095518C279651D0
:104758008D23000E8E23000E8F238EC08FF08DC008
:104768008EF08CC08DF08C6B82517E03F3CF95F068
:10477800F4CF96F095518C2796518D23000E8E23F9
:10478800000E8F2384517F03F3CF95F0F4CF96F07A
:104798009551912796519223000E9323000E94234E
:1047A80083518003F3CF95F0F4CF96F0955191277C
:1047B80096519223000E9323000E94238451800374
:1047C800F3CF95F0F4CF96F09551866F9651876F99
:1047D800886B896B88C089F087C088F086C087F0AD
:1047E800866B86519127875192238851932389514B
:1047F80094238CC086F08DC087F08EC088F08FC05F
:1048080089F0190E0DEF24F0D89089338833873357
:104818008633E82E08EF24F086519127875192239A
:1048280088519323895194238EC08FF08DC08EF0C8
:104838008CC08DF08C6B8B5190C086F0876B86276F
:10484800000E8723820E8625956FFF0E8721966FAF
:1048580043EF24F0D89091379237933794378FAF3E
:1048680038EF24F03AEF24F03BEF24F09181D89010
:104878008C378D378E378F379507D8A0960793AF2B
:1048880048EF24F04AEF24F02EEF24F0000E8B6F4F
:104898008FAF51EF24F053EF24F077EF24F0FF0EA1
:1048A8008C15866FFF0E8D15876FFF0E8E15886F1E
:1048B8007F0E8F15896F8651871188118911D8B499
:1048C80068EF24F06AEF24F06EEF24F0010E8B6F8E
:1048D80077EF24F091A173EF24F075EF24F077EFD0
:1048E80024F06AEF24F08B51D8B47DEF24F07FEFE9
:1048F80024F0A3EF24F0010E9127000E92239323B6
:10490800942394A18AEF24F08CEF24F0A3EF24F0F1
:1049180091C086F092C087F093C088F094C089F067
:104928008935893388338733863386C091F087C0C9
:1049380092F088C093F089C094F0954B962B96BF5F
:10494800AEEF24F0965108E19529D8A0AEEF24F0F7
:10495800B0EF24F0BAEF24F0000E916F000E926FC2
:10496800800E936F7F0E946FE8EF24F096BFC7EF29
:1049780024F0965106E19505D8B0C5EF24F0C7EFAD
:1049880024F0D3EF24F0000E916F000E926F000E0A
:10499800936F000E946F000E8A6FE8EF24F095C0B5
:1049A80090F0FF0E9117FF0E92177F0E9317000ECF
:1049B800941790A1E2EF24F0E4EF24F0E5EF24F05F
:1049C800938FD8909031946F8A51941391C07EF050
:1049D80092C07FF093C080F094C081F01200000173
:1049E800A251800BAF6FA251A225B66FA1AFFFEF06
:1049F80024F001EF25F002EF25F0B681B651D8B4C6
:104A080008EF25F00AEF25F01FEF25F0B629D8A406
:104A180010EF25F012EF25F01AEF25F0000E9F6F2A
:104A2800000EA06F000EA16F000EA26FA18F000EE6
:104A3800A26F27EF25F0000E9F6F000EA06F000EEB
:104A4800A16F000EA26FA651800BAF1BA651A62521
:104A5800B76FA5AF32EF25F034EF25F035EF25F02D
:104A6800B781B751D8B43BEF25F03DEF25F052EFB1
:104A780025F0B729D8A443EF25F045EF25F04DEFF1
:104A880025F0000EA36F000EA46F000EA56F000E98
:104A9800A66FA58F000EA66F5AEF25F0000EA36F24
:104AA800000EA46F000EA56F000EA66FA351A411EF
:104AB800A511A611D8A463EF25F065EF25F07DEFC9
:104AC80025F0000E9F6F000EA06F000EA16F000E64
:104AD800A26F800EA1137F0EA213AF51A2139FC025
:104AE8009FF0A0C0A0F0A1C0A1F0A2C0A2F0C0EFAA
:104AF80026F0B651D8A483EF25F085EF25F08FEF87
:104B080025F0000E9F6F000EA06F000EA16F000E23
:104B1800A26FC0EF26F0B751B6C0A7F0A86BA75F89
:104B2800000EA85B7F0EA725B06F000EA821B16FFD
:104B38009FC0ABF0A0C0ACF0A1C0ADF0A2C0AEF079
:104B4800000E9F6F000EA06F000EA16F000EA26FE7
:104B5800000EB26F000EB36F000EB46F000EB56F8B
:104B6800000EB76FF0EF25F0B751D8B4BEEF25F0BF
:104B7800C0EF25F0D7EF25F0D890AB37AC37AD377D
:104B8800AE37D8909F37A037A137A237B5AFCFEF50
:104B980025F0D1EF25F0D2EF25F09F81D890B237DC
:104BA800B337B437B537A351AB5DA451AC59A55150
:104BB800AD59A651AE59D8A0E4EF25F0E6EF25F09F
:104BC800EFEF25F0B58DA351AB5FA451AC5BA551B8
:104BD800AD5BA651AE5BB72B190EB765F6EF25F0A6
:104BE800F8EF25F0B8EF25F0AB51AC11AD11AE11CF
:104BF800D8B401EF26F003EF26F01BEF26F0B281C0
:104C08001BEF26F0D8909F37A037A137A237B5AF52
:104C180010EF26F012EF26F013EF26F09F81D890C0
:104C2800B237B337B437B537B007D8A0B107A1AF9B
:104C380020EF26F022EF26F006EF26F0000EB76FE1
:104C4800B5AF29EF26F02BEF26F04FEF26F0FF0E39
:104C5800B215A76FFF0EB315A86FFF0EB415A96F95
:104C68007F0EB515AA6FA751A811A911AA11D8B41A
:104C780040EF26F042EF26F046EF26F0010EB76F20
:104C88004FEF26F09FA14BEF26F04DEF26F04FEFA8
:104C980026F042EF26F0B751D8B455EF26F057EF7B
:104CA80026F07BEF26F0010E9F27000EA023A123FC
:104CB800A223A2A162EF26F064EF26F07BEF26F094
:104CC8009FC0A7F0A0C0A8F0A1C0A9F0A2C0AAF0F8
:104CD800AA35AA33A933A833A733A7C09FF0A8C021
:104CE800A0F0A9C0A1F0AAC0A2F0B04BB12BB1BFEF
:104CF80086EF26F0B15108E1B029D8A086EF26F05A
:104D080088EF26F093EF26F0000EB16FB069000E21
:104D18009F6F000EA06F000EA16F000EA26FB1BFB3
:104D2800A0EF26F0B15106E1B005D8B09EEF26F00D
:104D3800A0EF26F0AEEF26F0000EB16F000EB06FB8
:104D4800000E9F6F000EA06F000EA16F000EA26FE5
:104D5800000EAF6FB0C0B6F0B6A1B5EF26F0B7EF52
:104D680026F0BAEF26F0A18FBBEF26F0A19FD890CE
:104D7800B631A26F71EF25F0120087EC3DF04DECD3
:104D88003BF0000E0101BD6F000EBC6F000EC86F36
:104D9800000EC76FE90E2C6FFF0E2D6FD4EC3CF0A0
:104DA80084EC3EF00101C26FB4EC3BF063C0C0F18B
:104DB80064C0C1F16CEC35F0B8C0E9F0B9C0EAF0F4
:104DC800BAC0EBF0BBC0ECF0000E0001ED6F000EB6
:104DD800EE6F400EEF6F400EF06F38EC2EF0E9C02A
:104DE800C3F1EAC0C4F1EBC0C5F1ECC0C6F1000ED6
:104DF8000101BE6F000EBF6F8DB205EF27F007EF00
:104E080027F010EF27F0000E0001646F010E636FAA
:104E180095EC38F00101BE6F8DB415EF27F017EF50
:104E280027F020EF27F0000E0001646F020E636F79
:104E380095EC38F00101BF6FF905D8B426EF27F0DB
:104E480028EF27F082EF27F0000E00019F6F000E79
:104E5800A06F000EA16F400EA26FC3C1A3F0C4C122
:104E6800A4F0C5C1A5F0C6C1A6F0DDEC30F0000184
:104E7800D8B041EF27F043EF27F056EF27F00101B4
:104E8800C8BF52EF27F0C85107E1050EC75DD8B07B
:104E980050EF27F052EF27F056EF27F0C74BC82BFB
:104EA80087EF27F0000E00019F6F000EA06F000E25
:104EB800A16F400EA26FC3C1A3F0C4C1A4F0C5C1C5
:104EC800A5F0C6C1A6F0DDEC30F00001D8B06FEF58
:104ED80027F071EF27F082EF27F00101C8BF7EEFBE
:104EE80027F0C85109E1050EC75DD8A07EEF27F06D
:104EF80080EF27F082EF27F0F9EC3BF0000E01017C
:104F0800C86F000EC76F0CEC3EF00009D8B48FEFE5
:104F180027F091EF27F007EF28F0900E01012C6F92
:104F2800FF0E2D6FBC4BBD2BBCC12EF1BDC12FF1A7
:104F38006CEC35F0B8C030F1B9C031F1BAC032F11B
:104F4800BBC033F1D4EC3CF0DA0E01012C6FFF0E3C
:104F58002D6FC2C12EF12F6BD4EC3CF0730E010102
:104F68002C6FFF0E2D6FC0C12EF1C1C12FF1D4ECF3
:104F78003CF0AC0E01012C6FFF0E2D6FC3C12EF15A
:104F8800C4C12FF1C5C130F1C6C131F1D4EC3CF038
:104F9800540E01012C6FFF0E2D6FBEC12EF12F6B29
:104FA800BFC130F1316BD4EC3CF0290E01012C6FFC
:104FB800FF0E2D6FC7C12EF1C8C12FF1000E316F42
:104FC800050E306FFAC132F1336BD4EC3CF0C60EEB
:104FD80001012C6FFF0E2D6F21EC3FF00001F46FE3
:104FE800F45101012E6F2F6BD4EC3CF00B0E000135
:104FF800F56F260EF46F5D0EE82EFED7F42FFCD762
:10500800F52FFAD700D0190E0101C2610EEF28F072
:1050180013EF28F00001F46BF42B15EF28F00001D2
:10502800F46BF447F447F4478350F419F70BF41979
:10503800836E0101C005080EC159D8B026EF28F0CB
:105048002BEF28F00001F46BF42B2DEF28F0000172
:10505800F46BF43B8350F419EF0BF419836E8DA0B5
:1050680038EF28F03CEF28F0F46BF42B3EEF28F0F3
:105078000001F46BF43B8350F419EF0BF419836EC1
:10508800D4EF26F0C1EF00F07CC092F07DC093F021
:105098007EC094F07FC095F080C096F081C097F0F4
:1050A80082C098F083C099F0000199BF5EEF28F0A4
:1050B80061EF28F0010E62EF28F0000E9A6F9A5106
:1050C800D8B469EF28F06BEF28F07BEF28F0991F30
:1050D800981F971F961F951F941F931F926D000E80
:1050E800932394239523962397239823992331BEBA
:1050F80088EF28F0315006E13004D8B086EF28F068
:1051080088EF28F08EEF28F0000E8F6F010E8E6F5B
:1051180092EF28F030C08EF031C08FF02EC090F0A2
:105128002FC091F09A51D8B49CEF28F09EEF28F048
:10513800B5EF28F09007D8A091079A51D8A4A7EF07
:1051480028F0A9EF28F0AFEF28F0000E8D6F2B0E96
:105158008C6FB3EF28F0000E8D6F2D0E8C6F8CC006
:105168009AF0000E9C6F4F0E9B6F000E0201676F46
:105178003BEF29F09B07D8A09C07180E9B25D96EFA
:10518800020E9C21DA6E92C060F093C061F094C068
:1051980062F095C063F096C064F097C065F098C05F
:1051A80066F099C067F00A0E686F000E696F000E0E
:1051B8006A6F000E6B6F000E6C6F000E6D6F000E45
:1051C8006E6F000E6F6FF9EC2EF060C084F061C056
:1051D80085F062C086F063C087F064C088F065C05F
:1051E80089F066C08AF067C08BF084C01FF085C064
:1051F80020F0B1EC3AF01F50300FDF6E00018E073F
:10520800D8A08F079007D8A0910792C060F093C0EC
:1052180061F094C062F095C063F096C064F097C0E6
:1052280065F098C066F099C067F00A0E686F000EC6
:10523800696F000E6A6F000E6B6F000E6C6F000EC8
:105248006D6F000E6E6F000E6F6F73EC2DF060C007
:1052580092F061C093F062C094F063C095F064C0AE
:1052680096F065C097F066C098F067C099F00001A5
:105278009CBF47EF29F09C5108E19B05D8A047EF58
:1052880029F049EF29F065EF29F092519311941113
:1052980095119611971198119911D8A456EF29F0E4
:1052A80058EF29F0BEEF28F08FBF65EF29F08F5136
:1052B80006E18E05D8B063EF29F065EF29F0BEEF5F
:1052C80028F09A51D8B46BEF29F06DEF29F078EFF8
:1052D80029F09B07D8A09C07180E9B25D96E020EB3
:1052E8009C21DA6E9AC0DFFF7AC069F07BC06AF051
:1052F800180E9B256B6F020E9C216C6F90C06DF091
:1053080091C06EF082EC33F0120097C0A5F098C0FF
:10531800A6F099C0A7F09AC0A8F000019CBF9EEF24
:1053280029F09C5109E1800E9B5DD8A09EEF29F0E1
:10533800A0EF29F000EF2AF0A5C07EF0A6C07FF00C
:10534800A7C080F0A8C081F0000E826F000E836FA6
:10535800000E846F7F0E856FDDEC22F07EC0A5F015
:105368007FC0A6F080C0A7F081C0A8F00001810E20
:105378009B27FF0E9C239CBFCBEF29F09C5109E192
:10538800800E9B5DD8A0CBEF29F0CDEF29F06CEF14
:105398002AF0A5C07EF0A6C07FF0A7C080F0A8C004
:1053A80081F0000E826F000E836F000E846F7F0EF7
:1053B800856FDDEC22F07EC0A5F07FC0A6F080C02E
:1053C800A7F081C0A8F00001810E9B27FF0E9C2347
:1053D8009CBFF8EF29F09C5109E1800E9B5DD8A095
:1053E800F8EF29F0FAEF29F06CEF2AF0000E9C6F25
:1053F8007F0E9B6F6CEF2AF09CAF0CEF2AF0820EA9
:105408009B5DFF0E9C59D8B00CEF2AF00EEF2AF0E6
:105418006CEF2AF0A5C07EF0A6C07FF0A7C080F090
:10542800A8C081F0000E826F000E836F800E846F1B
:105438000C0E856FDDEC22F07EC0A5F07FC0A6F0D3
:1054480080C0A7F081C0A8F0660E00019B27000E5F
:105458009C239CAF39EF2AF0820E9B5DFF0E9C596E
:10546800D8B039EF2AF03BEF2AF06CEF2AF0A5C04C
:105478007EF0A6C07FF0A7C080F0A8C081F0000E23
:10548800826F000E836F800E846F0C0E856FDDECCB
:1054980022F07EC0A5F07FC0A6F080C0A7F081C032
:1054A800A8F0660E00019B27000E9C239CAF66EFB8
:1054B8002AF0820E9B5DFF0E9C59D8B066EF2AF049
:1054C80068EF2AF06CEF2AF0FF0E9C6F820E9B6F3C
:1054D8007F0E9B259D6F000E9C219E6F9F6BA06B7E
:1054E800170ED8909D379E379F37A037E82E75EF57
:1054F8002AF09DC0A1F09EC0A2F09FC0A3F0A0C05A
:10550800A4F0A1C07EF0A2C07FF0A3C080F0A4C028
:1055180081F0A5C082F0A6C083F0A7C084F0A8C01F
:1055280085F0DDEC22F07EC097F07FC098F080C057
:1055380099F081C09AF097C097F098C098F099C0F8
:1055480099F09AC09AF01200EDC1C8F0EEC1C9F006
:10555800EFC1CAF0F0C1CBF0B8C0C8F0B9C0C9F00B
:10556800BAC0CAF0BBC0CBF0810E0001BC6FFF0E01
:10557800BD6FC8C0BEF0C9C0BFF0CAC0C0F0CBC0C4
:10558800C1F0180ECDEF2AF0D890C133C033BF3325
:10559800BE33E82EC8EF2AF0BE51BC25C66F000EF8
:1055A800BD21C76FC7BFE2EF2AF0C75109E1170E47
:1055B800C65DD8A0E2EF2AF0E4EF2AF0EEEF2AF079
:1055C800B8C0B8F0B9C0B9F0BAC0BAF0BBC0BBF047
:1055D800B2EF2BF0C7BFF3EF2AF0F5EF2AF066EF32
:1055E8002BF0C6C0BCF0FF0EBD6FFF0EBE6F7F0E66
:1055F800BF6F000EC06FBC6704EF2BF00CEF2BF0F1
:10560800C035C033BF33BE33BD33BC2FFFEF2AF0E4
:10561800BDC0C2F0BEC0C3F0BFC0C4F0C0C0C5F0BA
:105628000001C251C815BC6FC351C915BD6FC45123
:10563800CA15BE6FC551CB15BF6FBC51BD11BE1188
:10564800BF11D8A42AEF2BF02CEF2BF02EEF2BF064
:10565800E4EF2AF0C8C0BCF0C9C0BDF0CAC0BEF0B3
:10566800CBC0BFF0200E3EEF2BF0D890BF33BE3337
:10567800BD33BC33E82E39EF2BF0BC51BD11BE1140
:10568800BF11D8B44AEF2BF04CEF2BF054EF2BF0AE
:10569800C251C827C351C923C451CA23C551CB23FA
:1056A800C21DBC6FC31DBD6FC41DBE6FC51DBF6FBE
:1056B800BC51C817BD51C917BE51CA17BF51CB1726
:1056C800AAEF2BF0C8C0BCF0C9C0BDF0CAC0BEF07C
:1056D800CBC0BFF0200E76EF2BF0D890BF33BE338F
:1056E800BD33BC33E82E71EF2BF0BC51BD11BE1198
:1056F800BF11D8A482EF2BF084EF2BF08EEF2BF0A4
:10570800000EC86F000EC96F000ECA6F000ECB6F77
:10571800AAEF2BF0D890C835BC6FC935BD6FCA3514
:10572800BE6FCB35BF6FBC51BD11BE11BF11D8B410
:10573800A0EF2BF0A2EF2BF0AAEF2BF0000EC86F12
:10574800000EC96F800ECA6FBF0ECB6FC8C0B8F00D
:10575800C9C0B9F0CAC0BAF0CBC0BBF0120031BEA4
:10576800C0EF2BF0315006E13004D8B0BEEF2BF07B
:10577800C0EF2BF0C7EF2BF0000E0001896F010E70
:10578800886FCBEF2BF030C088F031C089F02EC085
:1057980086F02FC087F076C08AF077C08BF078C08B
:1057A8008CF079C08DF07AC08EF07BC08FF07CC011
:1057B80090F07DC091F0000E0001936F4F0E926F34
:1057C800000E0201676F60EF2CF09207D8A09307D4
:1057D800180E9225D96E020E9321DA6E8AC060F0F7
:1057E8008BC061F08CC062F08DC063F08EC064F035
:1057F8008FC065F090C066F091C067F00A0E686FC0
:10580800000E696F000E6A6F000E6B6F000E6C6FF2
:10581800000E6D6F000E6E6F000E6F6F59EC32F058
:1058280060C07EF061C07FF062C080F063C081F02C
:1058380064C082F065C083F066C084F067C085F0FC
:1058480000017E51300FDF6E8807D8A089078607D0
:10585800D8A087078AC060F08BC061F08CC062F066
:105868008DC063F08EC064F08FC065F090C066F0A4
:1058780091C067F00A0E686F000E696F000E6A6FBC
:10588800000E6B6F000E6C6F000E6D6F000E6E6F6A
:10589800000E6F6FE0EC31F060C08AF061C08BF0F1
:1058A80062C08CF063C08DF064C08EF065C08FF06C
:1058B80066C090F067C091F0000192519311D8B47E
:1058C80068EF2CF06AEF2CF086EF2CF08A518B11E0
:1058D8008C118D118E118F1190119111D8A477EF21
:1058E8002CF079EF2CF0E9EF2BF089BF86EF2CF044
:1058F800895106E18805D8B084EF2CF086EF2CF0AA
:10590800E9EF2BF074C069F075C06AF0180E9225A3
:105918006B6F020E93216C6F86C06DF087C06EF0BE
:1059280082EC33F012000001686F00016851D8B4AE
:10593800A0EF2CF0A2EF2CF0C4EF2CF063BFA9EF7E
:105948002CF0A7EF2CF0C4EF2CF060C064F061C01D
:1059580065F062C066F063C067F0641F651F661F6C
:10596800671F642B000E65236623672364C06AF0F3
:1059780065C06BF066C06CF067C06DF0CCEF2CF0C2
:1059880060C06AF061C06BF062C06CF063C06DF01B
:105998006051611162116311D8A4D5EF2CF0D7EFD3
:1059A8002CF0E1EF2CF0000E606F000E616F000E1E
:1059B800626F000E636F72EF2DF0960E696FEBEF5A
:1059C8002CF0692BD8906D336C336B336A33000E2F
:1059D8006A15646F000E6B15656F000E6C15666FA7
:1059E800FE0E6D15676F6451651166116711D8A4B5
:1059F80000EF2DF002EF2DF0E5EF2CF010EF2DF079
:105A0800692B010E6A27000E6B236C236D23D89037
:105A18006D336C336B336A33000E6A15646F000E96
:105A28006B15656F000E6C15666FFF0E6D15676F51
:105A38006451651166116711D8A425EF2DF027EF81
:105A48002DF004EF2DF02FEF2DF06907D8906A376D
:105A58006B376C376D376CBF34EF2DF036EF2DF0A8
:105A68003EEF2DF0020E69613CEF2DF03EEF2DF078
:105A780029EF2DF069B143EF2DF045EF2DF046EFFA
:105A88002DF06C9FD890693369C064F0656B666BC4
:105A9800676B64C067F0666B656B646B64516A130F
:105AA80065516B1366516C1367516D136851D8B407
:105AB80060EF2DF062EF2DF06AEF2DF063BF69EF14
:105AC8002DF067EF2DF06AEF2DF06D8F6AC060F052
:105AD8006BC061F06CC062F06DC063F01200000E24
