:04000000D4EF00F049
:100008005F82FACFB1F0FBCFB2F0D9CFB3F0DACF3D
:10001800B4F0F3CFB5F0F4CFB6F0F6CFB7F0F7CF32
:10002800B8F0F8CFB9F0F5CFBAF00E01C2A91FEFBA
:1000380000F021EF00F02CEF00F0CAA926EF00F045
:1000480028EF00F02CEF00F0D5EC61F0BEEF00F0E7
:10005800F2AC31EF00F033EF00F0BEEF00F0C6A5D0
:1000680038EF00F03AEF00F045EF00F0CEA53FEF93
:1000780000F041EF00F045EF00F07AEC5EF0BEEFE3
:1000880000F0C6A34AEF00F04CEF00F057EF00F085
:10009800CEA351EF00F053EF00F057EF00F007EC5C
:1000A8005FF0BEEF00F0C5A95CEF00F05EEF00F076
:1000B80074EF00F0CDA963EF00F065EF00F074EF86
:1000C80000F002D872EF00F00500FA6E0001F75157
:1000D800FD6EF851FE6EFF6AFA501200BEEF00F096
:1000E800C5AB79EF00F07BEF00F091EF00F0CDABFE
:1000F80080EF00F082EF00F091EF00F002D88FEF70
:1001080000F00500FA6E0001F551FD6EF651FE6E25
:10011800FF6AFA501200BEEF00F0C5A196EF00F09A
:1001280098EF00F0AEEF00F0CDA19DEF00F09FEF4B
:1001380000F0AEEF00F002D8ACEF00F00500FA6E68
:100148000001ED51FD6EEE51FE6EFF6AFA5012008D
:10015800BEEF00F0C5A3B3EF00F0B5EF00F0BEEFBF
:1001680000F0CDA3BAEF00F0BCEF00F0BEEF00F056
:100178009FEF00F0BAC0F5FFB9C0F8FFB8C0F7FFAD
:10018800B7C0F6FFB6C0F4FFB5C0F3FFB4C0DAFFDE
:10019800B3C0D9FFB2C0FBFFB1C0FAFF5F92110034
:1001A8001AEF5EF07FC2B8F380C2B9F381C2BAF326
:1001B80082C2BBF3B8C360F3B9C361F3BAC362F3D5
:1001C800BBC363F383C2B8F384C2B9F385C2BAF37D
:1001D80086C2BBF3B8C384F3B9C385F3BAC386F345
:1001E800BBC387F3FF0E03016015A86FFF0E6115EF
:1001F800A96FFF0E6215AA6F7F0E6315AB6FFF0E16
:100208008415986FFF0E8515996FFF0E86159A6FE6
:100218007F0E87159B6F985199119A119B11D8A43D
:1002280018EF01F01AEF01F025EF01F0000E0201BE
:100238007F6F000E806F800E816F3F0E826F25EFFB
:1002480016F0800E621909E13F0E63196011611101
:10025800D8A431EF01F033EF01F03EEF01F0000ECA
:1002680002017F6F000E806F800E816F3F0E826FDC
:1002780025EF16F0ABBF4FEF01F0A805000EA95906
:10028800800EAA597F0EAB59D8B04DEF01F04FEF51
:1002980001F060EF01F09BBF5EEF01F09805000EE2
:1002A8009959800E9A597F0E9B59D8A05EEF01F09C
:1002B80060EF01F07CEF01F07FC215F280C216F208
:1002C80081C217F282C218F283C219F284C21AF2EA
:1002D80085C21BF286C21CF238EC33F015C27FF2DD
:1002E80016C280F217C281F218C282F225EF16F008
:1002F800000E506F000E516F000E526F000E536FBC
:1003080063BF8BEF01F089EF01F057EF02F09BBF5D
:1003180097EF01F0800E9A5D4B0E9B59D8A097EF8E
:1003280001F099EF01F0A3EF01F0020E506F000EFB
:10033800516F000E526F000E536F57EF02F09BBFC4
:10034800AFEF01F0800E9A5D3F0E9B59D8A0AFEF3A
:1003580001F0B1EF01F057EF02F0170E0201876FBD
:1003680098C388F299C389F29AC38AF29BC38BF225
:100378008767C1EF01F0C9EF01F08B358B338A3302
:1003880089338833872FBCEF01F0810E020188255D
:100398000301A06FFF0E020189210301A16FFF0E67
:1003A80002018A210301A26FFF0E02018B210301C2
:1003B800A36FA05117080201876F98C388F299C3E9
:1003C80089F29AC38AF29BC38BF28767EEEF01F03A
:1003D800F6EF01F08B358B338A3389338833872FD7
:1003E800E9EF01F088C2ACF389C2ADF38AC2AEF37B
:1003F8008BC2AFF30301A05117080201876FACC38A
:1004080088F2ADC389F2AEC38AF2AFC38BF2872BF1
:1004180013EF02F0D890883789378A378B37872FC0
:100428000EEF02F0030198510201881913E103014C
:100438009951020189190EE103019A5102018A19A1
:1004480009E103019B5102018B19D8A42EEF02F098
:1004580030EF02F057EF02F0010E0301AC15020174
:10046800876F000E0301AD150201886F000E0301AE
:10047800AE150201896F000E0301AF1502018A6FE4
:10048800875102080301506F000E020188550301CD
:10049800516F000E020189550301526F000E0201CF
:1004A8008A550301536F800E03019A1909E17F0EE3
:1004B8009B1998119911D8A464EF02F066EF02F025
:1004C800D2EF02F0800EAA1909E13F0EAB19A8116C
:1004D800A911D8A472EF02F074EF02F07FEF02F0D6
:1004E800000E02017F6F000E806F800E816F3F0E3D
:1004F800826F25EF16F0ABBF8EEF02F0A805000E55
:10050800A959800EAA593F0EAB59D8A08EEF02F018
:1005180090EF02F0ACEF02F087BF97EF02F095EF93
:1005280002F0A2EF02F0000E02017F6F000E806F52
:10053800000E816F000E826F25EF16F083C27FF2E6
:1005480084C280F285C281F286C282F225EF16F05B
:1005580087BFB3EF02F0B1EF02F0C7EF02F083C23A
:1005680000F284C201F285C202F286C203F299EC5B
:100578005EF000C27FF201C280F202C281F203C2C1
:1005880082F225EF16F0000E02017F6F000E806FD9
:10059800000E816F000E826F25EF16F0800E9A19FB
:1005A80009E13F0E9B1998119911D8A4DEEF02F0CA
:1005B800E0EF02F00EEF03F087BFE7EF02F0E5EFA0
:1005C80002F004EF03F0000E0201466F000E476FC1
:1005D800800E486F3F0E496F7FC24AF280C24BF2CD
:1005E80081C24CF282C24DF2E4EC40F046C27FF286
:1005F80047C280F248C281F249C282F225EF16F062
:100608007FC27FF280C280F281C281F282C282F20E
:1006180025EF16F0400E8719841185118611D8A48C
:1006280018EF03F01AEF03F036EF03F07FC225F25C
:1006380080C226F281C227F282C228F27FC229F242
:1006480080C22AF281C22BF282C22CF2B9EC3CF0B1
:1006580025C27FF226C280F227C281F228C282F226
:1006680025EF16F03F0E8719841185118611D8A43D
:1006780040EF03F042EF03F05DEF03F063BF47EF95
:1006880003F049EF03F05DEF03F07FC252F280C23E
:1006980053F281C254F282C255F299EC35F052C23B
:1006A8007FF253C280F254C281F255C282F225EF22
:1006B80016F07FC200F280C201F281C202F282C249
:1006C80003F2D2EC5EF000C270F301C271F302C211
:1006D80072F303C273F3800E0301AA190BE17F0EB4
:1006E800AB19A811A911D8B47CEF03F07EEF03F081
:1006F80097EF03F0A851A911AA11AB11D8B487EF4D
:1007080003F089EF03F097EF03F0800EAA1909E1CF
:100718003F0EAB19A811A911D8A495EF03F097EFD4
:1007280003F068EF04F070C3B4F371C3B5F372C398
:10073800B6F373C3B7F387BFA6EF03F0A4EF03F0D4
:10074800C1EF03F0000E0201466F000E476F800EE6
:10075800486F3F0E496FB4C34AF2B5C34BF2B6C3F4
:100768004CF2B7C34DF2E4EC40F046C2B4F347C2D2
:10077800B5F348C2B6F349C2B7F3030163BFC9EF83
:1007880003F0C7EF03F05EEF04F0000EA8250201A6
:10079800876F000E0301A9210201886F800E0301F3
:1007A800AA210201896FC00E0301AB2102018A6FE1
:1007B80003015051020187118B6F0301515102014E
:1007C80088118C6F03015251020189118D6F030149
:1007D800535102018A118E6F8B518C118D118E111C
:1007E800D8A4F9EF03F0FBEF03F040EF04F0000E9C
:1007F8000001EC6F210EEB6FB4C342F2B5C343F2B4
:10080800B6C344F2B7C345F2B4C33EF2B5C33FF230
:10081800B6C340F2B7C341F23CEC5CF03EC246F2CC
:100828003FC247F240C248F241C249F2B4C342F261
:10083800B5C343F2B6C344F2B7C345F2B4C33EF2FC
:10084800B5C33FF2B6C340F2B7C341F23CEC5CF02B
:100858003EC24AF23FC24BF240C24CF241C24DF294
:10086800E4EC40F046C2B4F347C2B5F348C2B6F36D
:1008780049C2B7F35EEF04F003015005511152115C
:100888005311D8A44AEF04F04CEF04F05EEF04F0E3
:10089800B4C300F2B5C301F2B6C302F2B7C303F2A0
:1008A80099EC5EF000C2B4F301C2B5F302C2B6F32C
:1008B80003C2B7F3B4C37FF2B5C380F2B6C381F203
:1008C800B7C382F225EF16F0000E886F000E896F0D
:1008D800800E8A6F3F0E8B6F63BF77EF04F075EF62
:1008E80004F0DAEF04F05051511152115311D8A409
:1008F80080EF04F082EF04F0C7EF04F0000E00016F
:10090800EC6F210EEB6F7FC242F280C243F281C2CC
:1009180044F282C245F27FC23EF280C23FF281C2F7
:1009280040F282C241F23CEC5CF03EC246F23FC269
:1009380047F240C248F241C249F27FC242F280C245
:1009480043F281C244F282C245F27FC23EF280C2C3
:100958003FF281C240F282C241F23CEC5CF03EC2FE
:100968004AF23FC24BF240C24CF241C24DF2E4ECB3
:1009780040F046C27FF247C280F248C281F249C2C3
:1009880082F225EF16F05005511152115311D8A4D7
:10099800D0EF04F0D2EF04F0DAEF04F0000E886F25
:1009A800000E896F800E8A6FBF0E8B6F9BBFE9EFB9
:1009B80004F09805000E9959000E9A594D0E9B594E
:1009C800D8A0E9EF04F0EBEF04F07FEF07F0ABBF3E
:1009D800FDEF04F0F80EA85DFF0EA9597F0EAA5985
:1009E8003F0EAB59D8B0FBEF04F0FDEF04F074EF05
:1009F80005F087BF02EF05F004EF05F03CEF05F0C6
:100A0800600E0201296F420E2A6FA20E2B6F0D0E87
:100A18002C6F88C325F289C326F28AC327F28BC3B9
:100A280028F2B9EC3CF025C2A4F326C2A5F327C2EC
:100A3800A6F328C2A7F3A4C325F2A5C326F2A6C32A
:100A480027F2A7C328F2600E0201296F420E2A6F0F
:100A5800A20E2B6F0D0E2C6FB9EC3CF025C27FF265
:100A680026C280F227C281F228C282F225EF16F050
:100A7800CA0E0201296FF20E2A6F490E2B6F710EF2
:100A88002C6F88C325F289C326F28AC327F28BC349
:100A980028F2B9EC3CF025C2A4F326C2A5F327C27C
:100AA800A6F328C2A7F3A4C325F2A5C326F2A6C3BA
:100AB80027F2A7C328F2CA0E0201296FF20E2A6F85
:100AC800490E2B6F710E2C6FB9EC3CF025C27FF2EA
:100AD80026C280F227C281F228C282F225EF16F0E0
:100AE800ABBF84EF05F0080EA85D000EA959800E73
:100AF800AA593F0EAB59D8A084EF05F086EF05F050
:100B080005EF06F087BF95EF05F08751861185112F
:100B180006E18405D8B093EF05F095EF05F0CDEF29
:100B280005F0600E0201296F420E2A6FA20E2B6F8C
:100B38000D0E2C6F88C325F289C326F28AC327F2CB
:100B48008BC328F2B9EC3CF025C2A4F326C2A5F366
:100B580027C2A6F328C2A7F3A4C325F2A5C326F289
:100B6800A6C327F2A7C328F2600E0201296F420E1E
:100B78002A6FA20E2B6F0D0E2C6FB9EC3CF025C21C
:100B88007FF226C280F227C281F228C282F225EFC4
:100B980016F0CA0E0201296FF20E2A6F490E2B6F4A
:100BA800710E2C6F88C325F289C326F28AC327F2F7
:100BB8008BC328F2B9EC3CF025C2A4F326C2A5F3F6
:100BC80027C2A6F328C2A7F3A4C325F2A5C326F219
:100BD800A6C327F2A7C328F2CA0E0201296FF20E94
:100BE8002A6F490E2B6F710E2C6FB9EC3CF025C2A1
:100BF8007FF226C280F227C281F228C282F225EF54
:100C080016F070C315F271C316F272C317F273C3EC
:100C180018F2000E0201196F000E1A6F800E1B6F7A
:100C2800BF0E1C6F38EC33F015C2B0F316C2B1F327
:100C380017C2B2F318C2B3F3000E0201296F000EF7
:100C48002A6F800E2B6F3E0E2C6FB0C325F2B1C3F6
:100C580026F2B2C327F2B3C328F2B9EC3CF025C29E
:100C680042F226C243F227C244F228C245F2AB0E32
:100C780002013E6FAA0E3F6FAA0E406F3E0E416FF3
:100C88003CEC5CF03EC2A4F33FC2A5F340C2A6F31D
:100C980041C2A7F3B0C329F2B1C32AF2B2C32BF2FF
:100CA800B3C32CF2B0C325F2B1C326F2B2C327F204
:100CB800B3C328F2B9EC3CF025C254F326C255F36D
:100CC80027C256F328C257F3B0C329F2B1C32AF298
:100CD800B2C32BF2B3C32CF2A4C325F2A5C326F2E8
:100CE800A6C327F2A7C328F2B9EC3CF025C242F20A
:100CF80026C243F227C244F228C245F2000E02017E
:100D08003E6F000E3F6F000E406F3F0E416F3CEC90
:100D18005CF03EC248F33FC249F340C24AF341C2C5
:100D28004BF354C325F255C326F256C327F257C3D3
:100D380028F248C329F249C32AF24AC32BF24BC30B
:100D48002CF2B9EC3CF025C244F326C245F327C285
:100D580046F328C247F3B0C325F2B1C326F2B2C3A3
:100D680027F2B3C328F2000E0201296FAA0E2A6FD8
:100D7800B80E2B6F3F0E2C6FB9EC3CF025C274F304
:100D880026C275F327C276F328C277F3700E0201E4
:100D9800296FA50E2A6FEC0E2B6F360E2C6FB0C381
:100DA80025F2B1C326F2B2C327F2B3C328F2B9ECD5
:100DB8003CF025C23EF226C23FF227C240F228C2CA
:100DC80041F23B0E0201296FAA0E2A6FB80E2B6F53
:100DD8003F0E2C6F44C325F245C326F246C327F2C3
:100DE80047C328F2B9EC3CF025C242F226C243F2CE
:100DF80027C244F228C245F23CEC5CF03EC278F3CC
:100E08003FC279F340C27AF341C27BF374C315F24F
:100E180075C316F276C317F277C318F278C319F2BE
:100E280079C31AF27AC31BF27BC31CF238EC33F095
:100E380015C280F316C281F317C282F318C283F376
:100E480080C3B8F381C3B9F382C3BAF383C3BBF3D6
:100E5800B8C390F3B9C391F3BAC392F3BBC393F386
:100E6800000E03019015B86FF00E9115B96FFF0EC3
:100E78009215BA6FFF0E9315BB6FB8C380F3B9C351
:100E880081F3BAC382F3BBC383F374C342F275C35D
:100E980043F276C344F277C345F280C33EF281C37E
:100EA8003FF282C340F283C341F23CEC5CF03EC2A5
:100EB80094F33FC295F340C296F341C297F378C3C7
:100EC8003EF279C33FF27AC340F27BC341F294C346
:100ED80042F295C343F296C344F297C345F23CEC01
:100EE8005CF03EC21CF33FC21DF340C21EF341C278
:100EF8001FF30AEF0FF0000E7C6F000E7D6F000EDF
:100F08007E6F000E7F6FABBF95EF07F0AB5107E127
:100F1800800EAA5DD8B093EF07F095EF07F0C9EF00
:100F280007F070C325F271C326F272C327F273C3A8
:100F380028F2000E0201296F000E2A6F800E2B6F17
:100F48004B0E2C6FB9EC3CF025C270F326C271F33E
:100F580027C272F328C273F3E80E03017C27FF0E41
:100F68007D23FF0E7E23FF0E7F2370C3B8F371C36A
:100F7800B9F372C3BAF373C3BBF3B8C3A8F3B9C365
:100F8800A9F3BAC3AAF3BBC3ABF3170E0201876F69
:100F9800A8C388F2A9C389F2AAC38AF2ABC38BF2A9
:100FA8008767D9EF07F0E1EF07F08B358B338A338A
:100FB80089338833872FD4EF07F0810E0201882503
:100FC8008C6FFF0E89218D6FFF0E8A218E6FFF0EA9
:100FD8008B218F6F8C5103017C2702018D510301F6
:100FE8007D2302018E5103017E2302018F510301EB
:100FF8007F23FF0EA815AC6FFF0EA915AD6F7F0EEE
:10100800AA15AE6F000EAB15AF6F000EAC11A86F2E
:10101800000EAD11A96F800EAE11AA6F3F0EAF1171
:10102800AB6FAFBF27EF08F0AF510BE1720EAC5DAD
:10103800C40EAD591C0EAE59D8B025EF08F027EFF5
:1010480008F031EF08F0000EA06F000EA16F000E3F
:10105800A26F000EA36F63EF08F0AFBF43EF08F075
:10106800AF510BE1D70EAC5DB30EAD595D0EAE5965
:10107800D8B041EF08F043EF08F04DEF08F0010E4B
:10108800A06F000EA16F000EA26F000EA36F63EF9A
:1010980008F0000EA06F000EA16F000EA26F000EE8
:1010A800A36F010E7C27000E7D237E237F23000E75
:1010B800A827000EA923800EAA23FF0EAB23A8C3DE
:1010C800B8F3A9C3B9F3AAC3BAF3ABC3BBF3B8C3A4
:1010D80070F3B9C371F3BAC372F3BBC373F370C3CC
:1010E8003EF271C33FF272C340F273C341F2A0C330
:1010F80087F2A1C388F20201D89087378837D89041
:1011080087378837150E8725F66EFF0E8821F76E0C
:10111800F86A000EF8220900F5CF42F20900F5CF6F
:1011280043F20900F5CF44F20A00F5CF45F23CEC52
:101138005CF03EC274F33FC275F340C276F341C21D
:1011480077F3000E0201466F000E476F800E486F5E
:101158003F0E496F70C319F271C31AF272C31BF2C2
:1011680073C31CF2A0C387F2A1C388F2D890873753
:101178008837D89087378837150E8725F66EFF0E83
:101188008821F76EF86A000EF8220900F5CF15F2EB
:101198000900F5CF16F20900F5CF17F20A00F5CFCE
:1011A80018F238EC33F015C24AF216C24BF217C2E5
:1011B8004CF218C24DF2E4EC40F046C278F347C254
:1011C80079F348C27AF349C27BF374C325F275C335
:1011D80026F276C327F277C328F278C329F279C3B7
:1011E8002AF27AC32BF27BC32CF2B9EC3CF025C26D
:1011F8005CF326C25DF327C25EF328C25FF35CC3CB
:101208006CF35DC36DF35EC36EF35FC36FF36CC3C2
:10121800B8F36DC3B9F36EC3BAF36FC3BBF3B8C306
:1012280090F3B9C391F3BAC392F3BBC393F3000E1F
:1012380003019015B86FF00E9115B96FFF0E921556
:10124800BA6FFF0E9315BB6FB8C36CF3B9C36DF3D8
:10125800BAC36EF3BBC36FF3A8C387F2A9C388F2FE
:10126800AAC389F2ABC38AF202018A358A33893369
:1012780088338733000E87158B6FF00E88158C6FB7
:10128800FF0E89158D6FFF0E8A158E6F000E8B115C
:101298000301906F000E02018C110301916F000E83
:1012A80002018D110301926F200E02018E110301BC
:1012B800936FA0C387F2A1C388F2A2C389F2A3C324
:1012C8008AF2150ED89002018737883789378A370E
:1012D800E82E66EF09F003019051020187258B6F14
:1012E80003019151020188218C6F0301925102017F
:1012F80089218D6F0301935102018A218E6F000E9F
:101308008B250301B86F000E02018C210301B96F10
:10131800400E02018D210301BA6F000E02018E21D9
:101328000301BB6FB8C368F3B9C369F3BAC36AF3FF
:10133800BBC36BF3A0C387F2A1C388F20201D890A4
:1013480087378837D89087378837150E8725F66E00
:10135800FF0E8821F76EF86A000EF8220900F5CF13
:1013680042F20900F5CF43F20900F5CF44F20A0032
:10137800F5CF45F268C33EF269C33FF26AC340F253
:101388006BC341F23CEC5CF03EC294F33FC295F370
:1013980040C296F341C297F370C33EF271C33FF265
:1013A80072C340F273C341F294C342F295C343F24D
:1013B80096C344F297C345F23CEC5CF03EC234F36A
:1013C8003FC235F340C236F341C237F368C329F24E
:1013D80069C32AF26AC32BF26BC32CF26CC325F2E1
:1013E8006DC326F26EC327F26FC328F2B9EC3CF046
:1013F80025C242F226C243F227C244F228C245F26D
:1014080074C33EF275C33FF276C340F277C341F22C
:101418003CEC5CF03EC294F33FC295F340C296F3B5
:1014280041C297F334C329F235C32AF236C32BF2EB
:1014380037C32CF26CC325F26DC326F26EC327F2B4
:101448006FC328F2B9EC3CF025C242F226C243F23F
:1014580027C244F228C245F294C33EF295C33FF234
:1014680096C340F297C341F23CEC5CF03EC254F3A1
:101478003FC255F340C256F341C257F354C325F255
:1014880055C326F256C327F257C328F278C329F268
:1014980079C32AF27AC32BF27BC32CF2B9EC3CF065
:1014A80025C230F326C231F327C232F328C233F300
:1014B8005CC325F25DC326F25EC327F25FC328F240
:1014C8005CC329F25DC32AF25EC32BF25FC32CF220
:1014D800B9EC3CF025C28CF326C28DF327C28EF3FB
:1014E80028C28FF3550E0201196F320E1A6F6C0E57
:1014F8001B6F3E0E1C6F420E296FF10E2A6F530EA2
:101508002B6F3E0E2C6F8CC325F28DC326F28EC333
:1015180027F28FC328F2B9EC3CF025C215F226C297
:1015280016F227C217F228C218F238EC33F015C2A7
:10153800A4F316C2A5F317C2A6F318C2A7F3050EA3
:101548000201196FA30E1A6F8B0E1B6F3E0E1C6FD4
:101558008CC329F28DC32AF28EC32BF28FC32CF2CF
:10156800A4C325F2A5C326F2A6C327F2A7C328F26F
:10157800B9EC3CF025C215F226C216F227C217F2C2
:1015880028C218F238EC33F015C254F316C255F3DA
:1015980017C256F318C257F3AB0E0201196FAA0E01
:1015A8001A6FAA0E1B6F3E0E1C6F8CC329F28DC3D7
:1015B8002AF28EC32BF28FC32CF254C325F255C3E3
:1015C80026F256C327F257C328F2B9EC3CF025C2DD
:1015D80015F226C216F227C217F228C218F238EC02
:1015E80033F015C248F316C249F317C24AF318C2BA
:1015F8004BF3B70E0201196F6D0E1A6FDB0E1B6FDE
:101608003E0E1C6F8CC329F28DC32AF28EC32BF2B7
:101618008FC32CF248C325F249C326F24AC327F2E6
:101628004BC328F2B9EC3CF025C215F226C216F2DB
:1016380027C217F228C218F238EC33F015C238F373
:1016480016C239F317C23AF318C23BF39A0E0201D5
:10165800196F990E1A6F190E1B6F3F0E1C6F8CC3F2
:1016680029F28DC32AF28EC32BF28FC32CF238C312
:1016780025F239C326F23AC327F23BC328F2B9EC64
:101688003CF025C215F226C216F227C217F228C26C
:1016980018F238EC33F015C200F316C201F317C282
:1016A80002F318C203F38CC329F28DC32AF28EC346
:1016B8002BF28FC32CF28CC325F28DC326F28EC376
:1016C80027F28FC328F2B9EC3CF025C204F326C2F6
:1016D80005F327C206F328C207F300C325F201C3A6
:1016E80026F202C327F203C328F204C329F205C372
:1016F8002AF206C32BF207C32CF2B9EC3CF025C240
:101708004CF326C24DF327C24EF328C24FF330C321
:1017180029F231C32AF232C32BF233C32CF25CC351
:1017280019F25DC31AF25EC31BF25FC31CF26CC3ED
:1017380015F26DC316F26EC317F26FC318F238ECC8
:1017480033F015C225F216C226F217C227F218C2C4
:1017580028F2B9EC3CF025C258F326C259F327C247
:101768005AF328C25BF34CC315F24DC316F24EC3AD
:1017780017F24FC318F258C319F259C31AF25AC3D1
:101788001BF25BC31CF238EC33F015C24CF316C2E3
:101798004DF317C24EF318C24FF36CC325F26DC355
:1017A80026F26EC327F26FC328F26CC329F26DC309
:1017B8002AF26EC32BF26FC32CF2B9EC3CF025C2AF
:1017C8008CF326C28DF327C28EF328C28FF3000E46
:1017D8000201196F000E1A6F400E1B6F400E1C6F2E
:1017E8008CC315F28DC316F28EC317F28FC318F28D
:1017F80038EC33F015C258F316C259F317C25AF32E
:1018080018C25BF358C315F259C316F25AC317F23C
:101818005BC318F24CC319F24DC31AF24EC31BF244
:101828004FC31CF238EC33F015C268F316C269F3E3
:1018380017C26AF318C26BF368C3B8F369C3B9F384
:101848006AC3BAF36BC3BBF3B8C390F3B9C391F3DC
:10185800BAC392F3BBC393F3000E03019015B86F9C
:10186800F00E9115B96FFF0E9215BA6FFF0E931512
:10187800BB6FB8C368F3B9C369F3BAC36AF3BBC330
:101888006BF3000E0201196F000E1A6F400E1B6FEA
:10189800C00E1C6F68C315F269C316F26AC317F24B
:1018A8006BC318F238EC33F015C23CF316C23DF3A3
:1018B80017C23EF318C23FF38CC342F28DC343F202
:1018C8008EC344F28FC345F23CC33EF23DC33FF2A0
:1018D8003EC340F23FC341F23CEC5CF03EC240F3F1
:1018E8003FC241F340C242F341C243F34CC33EF20C
:1018F8004DC33FF24EC340F24FC341F240C342F2E0
:1019080041C343F242C344F243C345F23CEC5CF0AA
:101918003EC234F33FC235F340C236F341C237F317
:101928006CC325F26DC326F26EC327F26FC328F28B
:1019380068C329F269C32AF26AC32BF26BC32CF27B
:10194800B9EC3CF025C274F326C275F327C276F3CE
:1019580028C277F368C329F269C32AF26AC32BF253
:101968006BC32CF230C325F231C326F232C327F2FF
:1019780033C328F2B9EC3CF025C215F226C216F2A0
:1019880027C217F228C218F25CC329F25DC32AF2F3
:101998005EC32BF25FC32CF234C325F235C326F2A3
:1019A80036C327F237C328F2B9EC3CF025C219F246
:1019B80026C21AF227C21BF228C21CF238EC33F0F6
:1019C80015C278F316C279F317C27AF318C27BF3FB
:1019D80074C315F275C316F276C317F277C318F2FB
:1019E80078C319F279C31AF27AC31BF27BC31CF2CB
:1019F80038EC33F015C29CF316C29DF317C29EF360
:101A080018C29FF39CC3B8F39DC3B9F39EC3BAF33E
:101A18009FC3BBF3B8C390F3B9C391F3BAC392F3AE
:101A2800BBC393F3000E03019015B86FF00E911528
:101A3800B96FFF0E9215BA6FFF0E9315BB6FB8C33F
:101A48009CF3B9C39DF3BAC39EF3BBC39FF374C39E
:101A580042F275C343F276C344F277C345F29CC39E
:101A68003EF29DC33FF29EC340F29FC341F23CEC5D
:101A78005CF03EC294F33FC295F340C296F341C274
:101A880097F378C33EF279C33FF27AC340F27BC33F
:101A980041F294C342F295C343F296C344F297C30A
:101AA80045F23CEC5CF03EC264F33FC265F340C2D1
:101AB80066F341C267F39CC325F29DC326F29EC319
:101AC80027F29FC328F2000E0201296F400E2A6FE9
:101AD800760E2B6F3F0E2C6FB9EC3CF025C220F32D
:101AE80026C221F327C222F328C223F34F0E020194
:101AF800296F380E2A6F760E2B6F3F0E2C6F64C33A
:101B080025F265C326F266C327F267C328F2B9EC4B
:101B18003CF025C219F226C21AF227C21BF228C2CB
:101B28001CF2C60E0201296F230E2A6FF60E2B6FC8
:101B3800B80E2C6F9CC325F29DC326F29EC327F2D4
:101B48009FC328F2B9EC3CF025C215F226C216F262
:101B580027C217F228C218F238EC33F015C258F32E
:101B680016C259F317C25AF318C25BF358C315F2D9
:101B780059C316F25AC317F25BC318F2A0C387F20F
:101B8800A1C388F20201D89087378837D890873761
:101B98008837AD0E8725F66EFE0E8821F76EF86A37
:101BA800000EF8220900F5CF19F20900F5CF1AF254
:101BB8000900F5CF1BF20A00F5CF1CF238EC33F020
:101BC80015C224F316C225F317C226F318C227F349
:101BD8007CC307F27DC308F27EC309F27FC30AF211
:101BE800010E59EC4BF007C2B0F308C2B1F309C2B9
:101BF800B2F30AC2B3F324C319F225C31AF226C3F7
:101C08001BF227C31CF220C315F221C316F222C30C
:101C180017F223C318F238EC33F015C258F316C282
:101C280059F317C25AF318C25BF3A0C387F2A1C3D2
:101C380088F20201D89087378837D8908737883755
:101C4800B50E8725F66EFE0E8821F76EF86A000E2F
:101C5800F8220900F5CF19F20900F5CF1AF20900A8
:101C6800F5CF1BF20A00F5CF1CF258C315F259C381
:101C780016F25AC317F25BC318F238EC33F015C2E8
:101C880008F316C209F317C20AF318C20BF308C304
:101C980015F209C316F20AC317F20BC318F2B0C340
:101CA80019F2B1C31AF2B2C31BF2B3C31CF238EC77
:101CB80033F015C280F316C281F317C282F318C23B
:101CC80083F380C3B8F381C3B9F382C3BAF383C380
:101CD800BBF3B8C390F3B9C391F3BAC392F3BBC3D0
:101CE80093F3000E03019015B86FF00E9115B96FBC
:101CF800FF0E9215BA6FFF0E9315BB6FB8C380F332
:101D0800B9C381F3BAC382F3BBC383F3B0C342F24E
:101D1800B1C343F2B2C344F2B3C345F280C33EF247
:101D280081C33FF282C340F283C341F23CEC5CF0D2
:101D38003EC294F33FC295F340C296F341C297F373
:101D4800A0C387F2A1C388F20201D89087378837E9
:101D5800D89087378837B50E8725F66EFE0E88210E
:101D6800F76EF86A000EF8220900F5CF42F2090072
:101D7800F5CF43F20900F5CF44F20A00F5CF45F25A
:101D880094C33EF295C33FF296C340F297C341F223
:101D98003CEC5CF03EC240F33FC241F340C242F328
:101DA80041C243F320C342F221C343F222C344F2A7
:101DB80023C345F240C33EF241C33FF242C340F25F
:101DC80043C341F23CEC5CF03EC20CF33FC20DF35E
:101DD80040C20EF341C20FF324C33EF225C33FF2C3
:101DE80026C340F227C341F20CC342F20DC343F2AB
:101DF8000EC344F20FC345F23CEC5CF03EC21CF348
:101E08003FC21DF340C21EF341C21FF383C2B8F3A1
:101E180084C2B9F385C2BAF386C2BBF3B8C390F3E0
:101E2800B9C391F3BAC392F3BBC393F3000E030192
:101E38009015B86FF00E9115B96FFF0E9215BA6F25
:101E4800FF0E9315BB6FB8C328F3B9C329F3BAC300
:101E58002AF3BBC32BF380C329F281C32AF282C3BE
:101E68002BF283C32CF228C342F229C343F22AC3BC
:101E780044F22BC345F283C23EF284C23FF285C2CC
:101E880040F286C241F23CEC5CF03EC225F23FC211
:101E980026F240C227F241C228F2B9EC3CF025C232
:101EA80010F326C211F327C212F328C213F310C38A
:101EB80015F211C316F212C317F213C318F21CC39A
:101EC80029F21DC32AF21EC32BF21FC32CF283C2B0
:101ED80025F284C226F285C227F286C228F2B9EC1E
:101EE8003CF025C219F226C21AF227C21BF228C2F8
:101EF8001CF238EC33F015C264F316C265F317C24E
:101F080066F318C267F328C325F229C326F22AC349
:101F180027F22BC328F280C329F281C32AF282C395
:101F28002BF283C32CF2B9EC3CF025C29CF326C2F9
:101F38009DF327C29EF328C29FF364C315F265C3BD
:101F480016F266C317F267C318F29CC319F29DC351
:101F58001AF29EC31BF29FC31CF238EC33F015C271
:101F6800B4F316C2B5F317C2B6F318C2B7F3B4C3C5
:101F7800B8F3B5C3B9F3B6C3BAF3B7C3BBF3B8C3C1
:101F8800ACF3B9C3ADF3BAC3AEF3BBC3AFF303014C
:101F9800AFBFDBEF0FF0AC05000EAD59000EAE5928
:101FA800430EAF59D8A0DBEF0FF0DDEF0FF015EFC0
:101FB80010F0CA0E0201296FF20E2A6F490E2B6F1C
:101FC800710E2C6F88C325F289C326F28AC327F2C3
:101FD8008BC328F2B9EC3CF025C2A4F326C2A5F3C2
:101FE80027C2A6F328C2A7F3A4C325F2A5C326F2E5
:101FF800A6C327F2A7C328F2CA0E0201296FF20E60
:102008002A6F490E2B6F710E2C6FB9EC3CF025C26C
:102018007FF226C280F227C281F228C282F225EF1F
:1020280016F0430EAF19AC11AD11AE11D8A41FEFC5
:1020380010F021EF10F097EF10F09CC342F29DC30F
:1020480043F29EC344F29FC345F2B4C33EF2B5C304
:102058003FF2B6C340F2B7C341F23CEC5CF03EC27B
:1020680046F23FC247F240C248F241C249F23C0E32
:102078000201196FAA0E1A6F380E1B6F330E1C6FF0
:1020880064C315F265C316F266C317F267C318F284
:1020980038EC33F015C24AF216C24BF217C24CF2B2
:1020A80018C24DF235EC51F00201D8B05EEF10F0D5
:1020B80060EF10F064EF11F0CA0E296FF20E2A6F6C
:1020C800490E2B6F710E2C6F88C325F289C326F237
:1020D8008AC327F28BC328F2B9EC3CF025C2A4F3DB
:1020E80026C2A5F327C2A6F328C2A7F3A4C325F2E4
:1020F800A5C326F2A6C327F2A7C328F2CA0E020177
:10210800296FF20E2A6F490E2B6F710E2C6FB9ECE6
:102118003CF025C27FF226C280F227C281F228C293
:1021280082F225EF16F0FF0EAC150201876FFF0E45
:102138000301AD150201886FFF0E0301AE15020100
:10214800896F7F0E0301AF1502018A6F8ABFB9EF4D
:1021580010F08705000E8859160E8959430E8A59C2
:10216800D8A0B9EF10F0BBEF10F0F2EF10F0600E4E
:10217800296F420E2A6FA20E2B6F0D0E2C6F88C38B
:1021880025F289C326F28AC327F28BC328F2B9EC59
:102198003CF025C2A4F326C2A5F327C2A6F328C2A1
:1021A800A7F3A4C325F2A5C326F2A6C327F2A7C3A3
:1021B80028F2600E0201296F420E2A6FA20E2B6FC1
:1021C8000D0E2C6FB9EC3CF025C27FF226C280F2CE
:1021D80027C281F228C282F225EF16F0160E0301FB
:1021E800AE1909E1C30EAF19AC11AD11D8A4FFEFB8
:1021F80010F001EF11F064EF11F09CC342F29DC39F
:1022080043F29EC344F29FC345F2B4C33EF2B5C342
:102218003FF2B6C340F2B7C341F23CEC5CF03EC2B9
:1022280046F23FC247F240C248F241C249F264C393
:102238004AF265C34BF266C34CF267C34DF235EC04
:1022480051F00201D8A02BEF11F02DEF11F064EF3F
:1022580011F0600E296F420E2A6FA20E2B6F0D0E21
:102268002C6F88C325F289C326F28AC327F28BC351
:1022780028F2B9EC3CF025C2A4F326C2A5F327C284
:10228800A6F328C2A7F3A4C325F2A5C326F2A6C3C2
:1022980027F2A7C328F2600E0201296F420E2A6FA7
:1022A800A20E2B6F0D0E2C6FB9EC3CF025C27FF2FD
:1022B80026C280F227C281F228C282F225EF16F0E8
:1022C800FF0E0301AC152C6FFF0EAD152D6FFF0E21
:1022D800AE152E6F7F0EAF152F6F170E0201876F89
:1022E8002CC388F22DC389F22EC38AF22FC38BF236
:1022F800876781EF11F089EF11F08B358B338A33C3
:1023080089338833872F7CEF11F0810E02018825ED
:102318000301A06FFF0E020189210301A16FFF0EC7
:1023280002018A210301A26FFF0E02018B21030122
:10233800A36F000E7C6F000E7D6F000E7E6F000E87
:102348007F6F2FBFB4EF11F02C05000E2D59000E32
:102358002E593F0E2F59D8A0B4EF11F0B6EF11F057
:10236800BAEF12F0A0C387F2010E02018727000E10
:10237800886F000E896F800E8A6F000E8B6F8767DB
:10238800C8EF11F0D0EF11F08B358B338A338933D6
:102398008833872FC3EF11F00301AC510201882560
:1023A80003017C6FAD510201892103017D6FAE519C
:1023B80002018A2103017E6FAF5102018B210301C3
:1023C8007F6F810E0201876FFF0E886FFF0E896F86
:1023D800FF0E8A6F170E8B6F7CC38CF27DC38DF254
:1023E8007EC38EF27FC38FF28B67FDEF11F005EF8E
:1023F80012F08F358F338E338D338C338B2FF8EF6C
:1024080011F002018C5187250301A06F000E020113
:1024180088210301A16F000E020189210301A26F27
:10242800000E02018A210301A36FA0C387F2FF0EE9
:102438000201886FFF0E896F7F0E8A6F000E8B6F07
:10244800876729EF12F031EF12F08B358B338A331F
:1024580089338833872F24EF12F00201881D8C6F8F
:10246800891D8D6F8A1D8E6F8B1D8F6F03017C51A7
:1024780002018C150301B86F7D5102018D1503010E
:10248800B96F7E5102018E150301BA6F7F510201A7
:102498008F150301BB6FB8C3B0F3B9C3B1F3BAC3A7
:1024A800B2F3BBC3B3F3A05117080201876FFF0E45
:1024B80003017C150201886FFF0E03017D150201DF
:1024C800896F7F0E03017E1502018A6F000E0301DA
:1024D8007F1502018B6F000E88118C6F000E891119
:1024E8008D6F800E8A118E6F000E8B118F6F87672C
:1024F80080EF12F088EF12F08F358F338E338D33E3
:102508008C33872F7BEF12F08CC27CF38DC27DF366
:102518008EC27EF38FC27FF30301AFBF98EF12F034
:1025280096EF12F0A0EF12F07F1F7E1F7D1F7C6DCB
:10253800000E7D237E237F239CC33EF29DC33FF282
:102548009EC340F29FC341F2B0C342F2B1C343F20B
:10255800B2C344F2B3C345F23CEC5CF03EC29CF318
:102568003FC29DF340C29EF341C29FF364C315F27C
:1025780065C316F266C317F267C318F29CC319F253
:102588009DC31AF29EC31BF29FC31CF238EC33F0B2
:1025980015C2B0F316C2B1F317C2B2F318C2B3F33F
:1025A800B0C3B8F3B1C3B9F3B2C3BAF3B3C3BBF39F
:1025B800B8C390F3B9C391F3BAC392F3BBC393F30F
:1025C800000E03019015B86F800E9115B96FFF0EBC
:1025D8009215BA6FFF0E9315BB6FB8C3B0F3B9C3AA
:1025E800B1F3BAC3B2F3BBC3B3F3B0C325F2B1C3FB
:1025F80026F2B2C327F2B3C328F2000E0201296FF4
:10260800720E2A6F310E2B6F3F0E2C6FB9EC3CF017
:1026180025C274F326C275F327C276F328C277F36E
:102628009CC342F29DC343F29EC344F29FC345F24A
:10263800B0C33EF2B1C33FF2B2C340F2B3C341F2FA
:102648003CEC5CF03EC294F33FC295F340C296F373
:1026580041C297F3180E0201296F720E2A6F310ECC
:102668002B6F3F0E2C6F94C342F295C343F296C36F
:1026780044F297C345F264C33EF265C33FF266C3B2
:1026880040F267C341F23CEC5CF03EC225F23FC227
:1026980026F240C227F241C228F2B9EC3CF025C22A
:1026A80014F326C215F327C216F328C217F314C36E
:1026B80015F215C316F216C317F217C318F28C0ECB
:1026C8000201296FBE0E2A6FBF0E2B6F350E2C6FBD
:1026D800B0C325F2B1C326F2B2C327F2B3C328F2BE
:1026E800B9EC3CF025C219F226C21AF227C21BF235
:1026F80028C21CF238EC33F015C278F316C279F30D
:1027080017C27AF318C27BF374C315F275C316F2B5
:1027180076C317F277C318F278C319F279C31AF29D
:102728007AC31BF27BC31CF238EC33F015C2B4F346
:1027380016C2B5F317C2B6F318C2B7F374C342F2A0
:1027480075C343F276C344F277C345F2B4C33EF28D
:10275800B5C33FF2B6C340F2B7C341F23CEC5CF0FC
:102768003EC294F33FC295F340C296F341C297F339
:1027780078C33EF279C33FF27AC340F27BC341F299
:1027880094C342F295C343F296C344F297C345F209
:102798003CEC5CF03EC244F33FC245F340C246F312
:1027A80041C247F3B4C325F2B5C326F2B6C327F234
:1027B800B7C328F2B4C329F2B5C32AF2B6C32BF2C1
:1027C800B7C32CF2B9EC3CF025C2B0F326C2B1F382
:1027D80027C2B2F328C2B3F30E0E0201196FEA0E34
:1027E8001A6FDD0E1B6FB50E1C6F4C0E296FBB0EDA
:1027F8002A6F310E2B6F330E2C6FB0C325F2B1C385
:1028080026F2B2C327F2B3C328F2B9EC3CF025C2D2
:1028180015F226C216F227C217F228C218F238ECAF
:1028280033F015C2A4F316C2A5F317C2A6F318C253
:10283800A7F3550E0201196FB30E1A6F8A0E1B6F9C
:10284800380E1C6FB0C329F2B1C32AF2B2C32BF2FF
:10285800B3C32CF2A4C325F2A5C326F2A6C327F25C
:10286800A7C328F2B9EC3CF025C215F226C216F22D
:1028780027C217F228C218F238EC33F015C254F305
:1028880016C255F317C256F318C257F3610E020168
:10289800196F0B0E1A6F360E1B6FBB0E1C6FB0C371
:1028A80029F2B1C32AF2B2C32BF2B3C32CF254C338
:1028B80025F255C326F256C327F257C328F2B9ECBE
:1028C8003CF025C215F226C216F227C217F228C21A
:1028D80018F238EC33F015C248F316C249F317C2A0
:1028E8004AF318C24BF3AB0E0201196FAA0E1A6F06
:1028F8002A0E1B6F3E0E1C6FB0C329F2B1C32AF219
:10290800B2C32BF2B3C32CF248C325F249C326F253
:102918004AC327F24BC328F2B9EC3CF025C215F2A2
:1029280026C216F227C217F228C218F238EC33F082
:1029380015C238F316C239F317C23AF318C23BF37B
:10294800B4C33EF2B5C33FF2B6C340F2B7C341F2D7
:10295800B0C329F2B1C32AF2B2C32BF2B3C32CF22B
:1029680038C325F239C326F23AC327F23BC328F20B
:10297800B9EC3CF025C242F226C243F227C244F227
:1029880028C245F23CEC5CF03EC280F33FC281F3C2
:1029980040C282F341C283F3000E0201196F000E98
:1029A8001A6F000E1B6FC00E1C6F80C315F281C317
:1029B80016F282C317F283C318F238EC33F015C24B
:1029C8004AF216C24BF217C24CF218C24DF280C33B
:1029D80029F281C32AF282C32BF283C32CF2B4C337
:1029E80025F2B5C326F2B6C327F2B7C328F2B9EC6D
:1029F8003CF025C246F226C247F227C248F228C256
:102A080049F2E4EC40F046C23CF347C23DF348C209
:102A18003EF349C23FF344C319F245C31AF246C311
:102A28001BF247C31CF244C329F245C32AF246C32A
:102A38002BF247C32CF2B4C325F2B5C326F2B6C3B2
:102A480027F2B7C328F2B9EC3CF025C215F226C22A
:102A580016F227C217F228C218F238EC33F015C262
:102A680018F316C219F317C21AF318C21BF33CC3A2
:102A78003EF23DC33FF23EC340F23FC341F218C3AA
:102A880042F219C343F21AC344F21BC345F23CECA9
:102A98005CF03EC24CF33FC24DF340C24EF341C21C
:102AA8004FF3B4C342F2B5C343F2B6C344F2B7C35B
:102AB80045F24CC33EF24DC33FF24EC340F24FC302
:102AC80041F23CEC5CF03EC294F33FC295F340C245
:102AD80096F341C297F3000E02013E6F000E3F6F5E
:102AE800800E406F3F0E416F94C342F295C343F28C
:102AF80096C344F297C345F23CEC5CF03EC2B4F393
:102B08003FC2B5F340C2B6F341C2B7F3B4C3B8F39A
:102B1800B5C3B9F3B6C3BAF3B7C3BBF3B8C3ACF321
:102B2800B9C3ADF3BAC3AEF3BBC3AFF37CC387F28B
:102B38007DC388F27EC389F27FC38AF2170ED890CC
:102B480002018737883789378A37E82EA3EF15F0CF
:102B580087510301AC27020188510301AD2302010B
:102B680089510301AE2302018A510301AF23170ED5
:102B78000201876FACC388F2ADC389F2AEC38AF293
:102B8800AFC38BF28767CBEF15F0D3EF15F08B351A
:102B98008B338A3389338833872FC6EF15F00201C8
:102BA8008BBFE3EF15F08B518A11891106E1880577
:102BB800D8B0E1EF15F0E3EF15F0FBEF15F0B4C373
:102BC8003EF2B5C33FF2B6C340F2B7C341F27CC38D
:102BD80042F27DC343F232EC47F03EC2B4F33FC247
:102BE800B5F340C2B6F341C2B7F30BEF16F0ACC36E
:102BF800B8F3ADC3B9F3AEC3BAF3AFC3BBF3B8C34D
:102C0800B4F3B9C3B5F3BAC3B6F3BBC3B7F388C358
:102C180025F289C326F28AC327F28BC328F2B4C3EC
:102C280029F2B5C32AF2B6C32BF2B7C32CF2B9EC1A
:102C38003CF025C27FF226C280F227C281F228C268
:102C480082F2120084C0B8F185C0B9F186C0BAF129
:102C580087C0BBF1B8C160F1B9C161F1BAC162F115
:102C6800BBC163F188C0B8F189C0B9F18AC0BAF1B3
:102C78008BC0BBF1B8C184F1B9C185F1BAC186F185
:102C8800BBC187F1FF0E01016015A86FFF0E61152A
:102C9800A96FFF0E6215AA6F7F0E6315AB6FFF0E4B
:102CA8008415986FFF0E8515996FFF0E86159A6F1C
:102CB8007F0E87159B6F985199119A119B11D8A473
:102CC80068EF16F06AEF16F075EF16F0000E0001C7
:102CD800846F000E856F800E866F3F0E876F47EFFB
:102CE8002BF0800E621909E13F0E63196011611122
:102CF800D8A481EF16F083EF16F08EEF16F0000ED1
:102D08000001846F000E856F800E866F3F0E876FFF
:102D180047EF2BF0ABBF9FEF16F0A805000EA9599F
:102D2800800EAA597F0EAB59D8B09DEF16F09FEFD1
:102D380016F0B0EF16F09BBFAEEF16F09805000E38
:102D48009959800E9A597F0E9B59D8A0AEEF16F06C
:102D5800B0EF16F0CCEF16F084C016F085C017F06F
:102D680086C018F087C019F088C01AF089C01BF017
:102D78008AC01CF08BC01DF059EC3AF016C084F0E4
:102D880017C085F018C086F019C087F047EF2BF000
:102D9800000E506F000E516F000E526F000E536FF1
:102DA80063BFDBEF16F0D9EF16F0A7EF17F09BBF64
:102DB800E7EF16F0800E9A5D4B0E9B59D8A0E7EF0F
:102DC80016F0E9EF16F0F3EF16F0020E506F000E52
:102DD800516F000E526F000E536FA7EF17F09BBF95
:102DE800FFEF16F0800E9A5D3F0E9B59D8A0FFEFBB
:102DF80016F001EF17F0A7EF17F0170E00018C6F10
:102E080098C18DF099C18EF09AC18FF09BC190F056
:102E18008C6711EF17F019EF17F0903590338F3357
:102E28008E338D338C2F0CEF17F0810E00018D251A
:102E38000101A06FFF0E00018E210101A16FFF0E9D
:102E480000018F210101A26FFF0E000190210101F5
:102E5800A36FA051170800018C6F98C18DF099C11C
:102E68008EF09AC18FF09BC190F08C673EEF17F0FF
:102E780046EF17F0903590338F338E338D338C2F88
:102E880039EF17F08DC0ACF18EC0ADF18FC0AEF147
:102E980090C0AFF10101A051170800018C6FACC1BF
:102EA8008DF0ADC18EF0AEC18FF0AFC190F08C2B1C
:102EB80063EF17F0D8908D378E378F3790378C2F78
:102EC8005EEF17F00101985100018D1913E101011E
:102ED800995100018E190EE101019A5100018F19D3
:102EE80009E101019B5100019019D8A47EEF17F068
:102EF80080EF17F0A7EF17F0010E0101AC150001E4
:102F08008C6F000E0101AD1500018D6F000E0101DF
:102F1800AE1500018E6F000E0101AF1500018F6F15
:102F28008C5102080101506F000E00018D550101FE
:102F3800516F000E00018E550101526F000E000105
:102F48008F550101536F800E01019A1909E17F0E17
:102F58009B1998119911D8A4B4EF17F0B6EF17F090
:102F680022EF18F0800EAA1909E13F0EAB19A8113B
:102F7800A911D8A4C2EF17F0C4EF17F0CFEF17F0DC
:102F8800000E0001846F000E856F800E866F3F0E65
:102F9800876F47EF2BF0ABBFDEEF17F0A805000EE9
:102FA800A959800EAA593F0EAB59D8A0DEEF17F0E9
:102FB800E0EF17F0FCEF17F087BFE7EF17F0E5EF4A
:102FC80017F0F2EF17F0000E0001846F000E856F06
:102FD800000E866F000E876F47EF2BF088C084F0D5
:102FE80089C085F08AC086F08BC087F047EF2BF048
:102FF80087BF03EF18F001EF18F017EF18F088C03B
:1030080001F089C002F08AC003F08BC004F0B6EC6E
:103018005EF001C084F002C085F003C086F004C0F1
:1030280087F047EF2BF0000E0001846F000E856FCC
:10303800000E866F000E876F47EF2BF0800E9A19EF
:1030480009E13F0E9B1998119911D8A42EEF18F099
:1030580030EF18F05DEF18F087BF37EF18F035EF55
:1030680018F053EF18F0000E476E000E486E800EF1
:10307800496E3F0E4A6E84C04BF085C04CF086C046
:103088004DF087C04EF0B2EC42F047C084F048C023
:1030980085F049C086F04AC087F047EF2BF084C01E
:1030A80084F085C085F086C086F087C087F047EF3A
:1030B8002BF0400E8719841185118611D8A467EF6B
:1030C80018F069EF18F085EF18F084C026F085C075
:1030D80027F086C028F087C029F084C02AF085C070
:1030E8002BF086C02CF087C02DF0CFEC3EF026C028
:1030F80084F027C085F028C086F029C087F047EF04
:103108002BF03F0E8719841185118611D8A48FEFF3
:1031180018F091EF18F0ACEF18F063BF96EF18F0C5
:1031280098EF18F0ACEF18F084C053F085C054F055
:1031380086C055F087C056F0F9EC37F053C084F0DC
:1031480054C085F055C086F056C087F047EF2BF085
:1031580084C001F085C002F086C003F087C004F087
:10316800EDEC5EF001C070F102C071F103C072F1C4
:1031780004C073F1800E0101AA190BE17F0EAB198F
:10318800A811A911D8B4CBEF18F0CDEF18F0E6EFDD
:1031980018F0A851A911AA11AB11D8B4D6EF18F09C
:1031A800D8EF18F0E6EF18F0800EAA1909E13F0EE3
:1031B800AB19A811A911D8A4E4EF18F0E6EF18F09C
:1031C800B5EF19F070C1B4F171C1B5F172C1B6F1C2
:1031D80073C1B7F187BFF5EF18F0F3EF18F00FEFF1
:1031E80019F0000E476E000E486E800E496E3F0EB5
:1031F8004A6EB4C14BF0B5C14CF0B6C14DF0B7C181
:103208004EF0B2EC42F047C0B4F148C0B5F149C045
:10321800B6F14AC0B7F1010163BF17EF19F015EF16
:1032280019F0ABEF19F0000EA82500018C6F000E05
:103238000101A92100018D6F800E0101AA21000161
:103248008E6FC00E0101AB2100018F6F010150513B
:1032580000018C11906F0101515100018D11916F86
:103268000101525100018E11926F01015351000169
:103278008F11936F9051911192119311D8A447EF28
:1032880019F049EF19F08DEF19F0000EEC6F210ECF
:10329800EB6FB4C143F0B5C144F0B6C145F0B7C156
:1032A80046F0B4C13FF0B5C140F0B6C141F0B7C176
:1032B80042F0CCEC5CF03FC047F040C048F041C061
:1032C80049F042C04AF0B4C143F0B5C144F0B6C1B8
:1032D80045F0B7C146F0B4C13FF0B5C140F0B6C142
:1032E80041F0B7C142F0CCEC5CF03FC04BF040C0BD
:1032F8004CF041C04DF042C04EF0B2EC42F047C035
:10330800B4F148C0B5F149C0B6F14AC0B7F1ABEF66
:1033180019F001015005511152115311D8A497EF1A
:1033280019F099EF19F0ABEF19F0B4C101F0B5C17C
:1033380002F0B6C103F0B7C104F0B6EC5EF001C00C
:10334800B4F102C0B5F103C0B6F104C0B7F1B4C11D
:1033580084F0B5C185F0B6C186F0B7C187F047EFF4
:103368002BF0000E886F000E896F800E8A6F3F0E5B
:103378008B6F63BFC4EF19F0C2EF19F027EF1AF093
:103388005051511152115311D8A4CDEF19F0CFEF6C
:1033980019F014EF1AF0000E0001EC6F210EEB6F1C
:1033A80084C043F085C044F086C045F087C046F02D
:1033B80084C03FF085C040F086C041F087C042F02D
:1033C800CCEC5CF03FC047F040C048F041C049F049
:1033D80042C04AF084C043F085C044F086C045F03E
:1033E80087C046F084C03FF085C040F086C041F0F9
:1033F80087C042F0CCEC5CF03FC04BF040C04CF0D2
:1034080041C04DF042C04EF0B2EC42F047C084F0EB
:1034180048C085F049C086F04AC087F047EF2BF0D6
:103428005005511152115311D8A41DEF1AF01FEF76
:103438001AF027EF1AF0000E886F000E896F800EC1
:103448008A6FBF0E8B6F9BBF36EF1AF09805000E80
:103458009959000E9A594D0E9B59D8A036EF1AF07B
:1034680038EF1AF0BDEF1CF0ABBF4AEF1AF0F80EB8
:10347800A85DFF0EA9597F0EAA593F0EAB59D8B0C7
:1034880048EF1AF04AEF1AF0BDEF1AF087BF4FEF76
:103498001AF051EF1AF087EF1AF0600E2A6E420EFA
:1034A8002B6EA20E2C6E0D0E2D6E88C126F089C1D2
:1034B80027F08AC128F08BC129F0CFEC3EF026C056
:1034C800A4F127C0A5F128C0A6F129C0A7F1A4C17D
:1034D80026F0A5C127F0A6C128F0A7C129F0600EE3
:1034E8002A6E420E2B6EA20E2C6E0D0E2D6ECFEC98
:1034F8003EF026C084F027C085F028C086F029C099
:1035080087F047EF2BF0CA0E2A6EF20E2B6E490E8B
:103518002C6E710E2D6E88C126F089C127F08AC1E4
:1035280028F08BC129F0CFEC3EF026C0A4F127C0CB
:10353800A5F128C0A6F129C0A7F1A4C126F0A5C10C
:1035480027F0A6C128F0A7C129F0CA0E2A6EF20EEC
:103558002B6E490E2C6E710E2D6ECFEC3EF026C0F0
:1035680084F027C085F028C086F029C087F047EF8F
:103578002BF0ABBFCDEF1AF0080EA85D000EA959CD
:10358800800EAA593F0EAB59D8A0CDEF1AF0CFEF55
:103598001AF04AEF1BF087BFDEEF1AF08751861149
:1035A800851106E18405D8B0DCEF1AF0DEEF1AF0D9
:1035B80014EF1BF0600E2A6E420E2B6EA20E2C6EBC
:1035C8000D0E2D6E88C126F089C127F08AC128F01A
:1035D8008BC129F0CFEC3EF026C0A4F127C0A5F19D
:1035E80028C0A6F129C0A7F1A4C126F0A5C127F0DB
:1035F800A6C128F0A7C129F0600E2A6E420E2B6ED4
:10360800A20E2C6E0D0E2D6ECFEC3EF026C084F06F
:1036180027C085F028C086F029C087F047EF2BF037
:10362800CA0E2A6EF20E2B6E490E2C6E710E2D6E7E
:1036380088C126F089C127F08AC128F08BC129F0FA
:10364800CFEC3EF026C0A4F127C0A5F128C0A6F112
:1036580029C0A7F1A4C126F0A5C127F0A6C128F06A
:10366800A7C129F0CA0E2A6EF20E2B6E490E2C6ED7
:10367800710E2D6ECFEC3EF026C084F027C085F089
:1036880028C086F029C087F047EF2BF070C116F0EC
:1036980071C117F072C118F073C119F0000E1A6EDB
:1036A800000E1B6E800E1C6EBF0E1D6E59EC3AF09C
:1036B80016C0B0F117C0B1F118C0B2F119C0B3F11A
:1036C800000E2A6E000E2B6E800E2C6E3E0E2D6E96
:1036D800B0C126F0B1C127F0B2C128F0B3C129F0BA
:1036E800CFEC3EF026C043F027C044F028C045F098
:1036F80029C046F0AB0E3F6EAA0E406EAA0E416E70
:103708003E0E426ECCEC5CF03FC0A4F140C0A5F187
:1037180041C0A6F142C0A7F1B0C12AF0B1C12BF057
:10372800B2C12CF0B3C12DF0B0C126F0B1C127F061
:10373800B2C128F0B3C129F0CFEC3EF026C054F155
:1037480027C055F128C056F129C057F1B0C12AF059
:10375800B1C12BF0B2C12CF0B3C12DF0A4C126F039
:10376800A5C127F0A6C128F0A7C129F0CFEC3EF0EB
:1037780026C043F027C044F028C045F029C046F0D1
:10378800000E3F6E000E406E000E416E3F0E426E00
:10379800CCEC5CF03FC048F140C049F141C04AF16F
:1037A80042C04BF154C126F055C127F056C128F04C
:1037B80057C129F048C12AF049C12BF04AC12CF061
:1037C8004BC12DF0CFEC3EF026C044F127C045F1A7
:1037D80028C046F129C047F1B0C126F0B1C127F091
:1037E800B2C128F0B3C129F0000E2A6EAA0E2B6EC2
:1037F800B80E2C6E3F0E2D6ECFEC3EF026C074F145
:1038080027C075F128C076F129C077F1700E2A6EAD
:10381800A50E2B6EEC0E2C6E360E2D6EB0C126F05A
:10382800B1C127F0B2C128F0B3C129F0CFEC3EF006
:1038380026C03FF027C040F028C041F029C042F020
:103848003B0E2A6EAA0E2B6EB80E2C6E3F0E2D6EF6
:1038580044C126F045C127F046C128F047C129F0E8
:10386800CFEC3EF026C043F027C044F028C045F016
:1038780029C046F0CCEC5CF03FC078F140C079F14B
:1038880041C07AF142C07BF174C116F075C117F0DE
:1038980076C118F077C119F078C11AF079C11BF018
:1038A8007AC11CF07BC11DF059EC3AF016C080F1CA
:1038B80017C081F118C082F119C083F180C1B8F135
:1038C80081C1B9F182C1BAF183C1BBF1B8C190F12C
:1038D800B9C191F1BAC192F1BBC193F1000E0101D6
:1038E8009015B86FF00E9115B96FFF0E9215BA6F5B
:1038F800FF0E9315BB6FB8C180F1B9C181F1BAC190
:1039080082F1BBC183F174C143F075C144F076C143
:1039180045F077C146F080C13FF081C140F082C1D7
:1039280041F083C142F0CCEC5CF03FC094F140C060
:1039380095F141C096F142C097F178C13FF079C145
:1039480040F07AC141F07BC142F094C143F095C187
:1039580044F096C145F097C146F0CCEC5CF03FC00E
:103968001CF140C01DF141C01EF142C01FF13DEFE6
:1039780024F0000E7C6F000E7D6F000E7E6F000E2F
:103988007F6FABBFD3EF1CF0AB5107E1800EAA5D90
:10399800D8B0D1EF1CF0D3EF1CF006EF1DF070C1CA
:1039A80026F071C127F072C128F073C129F0000E0A
:1039B8002A6E000E2B6E800E2C6E4B0E2D6ECFECE9
:1039C8003EF026C070F127C071F128C072F129C0FD
:1039D80073F1E80E01017C27FF0E7D23FF0E7E2385
:1039E800FF0E7F2370C1B8F171C1B9F172C1BAF18C
:1039F80073C1BBF1B8C1A8F1B9C1A9F1BAC1AAF1A3
:103A0800BBC1ABF1170E00018C6FA8C18DF0A9C125
:103A18008EF0AAC18FF0ABC190F08C6716EF1DF045
:103A28001EEF1DF0903590338F338E338D338C2FEE
:103A380011EF1DF0810E00018D25916FFF0E8E2173
:103A4800926FFF0E8F21936FFF0E9021946F91510B
:103A580001017C270001925101017D23000193514E
:103A680001017E230001945101017F23FF0EA81557
:103A7800AC6FFF0EA915AD6F7F0EAA15AE6F000EC5
:103A8800AB15AF6F000EAC11A86F000EAD11A96F8A
:103A9800800EAE11AA6F3F0EAF11AB6FAFBF64EFD0
:103AA8001DF0AF510BE1720EAC5DC40EAD591C0E8A
:103AB800AE59D8B062EF1DF064EF1DF06EEF1DF047
:103AC800000EA06F000EA16F000EA26F000EA36F74
:103AD800A0EF1DF0AFBF80EF1DF0AF510BE1D70E87
:103AE800AC5DB30EAD595D0EAE59D8B07EEF1DF08A
:103AF80080EF1DF08AEF1DF0010EA06F000EA16F80
:103B0800000EA26F000EA36FA0EF1DF0000EA06FB5
:103B1800000EA16F000EA26F000EA36F010E7C278E
:103B2800000E7D237E237F23000EA827000EA923E5
:103B3800800EAA23FF0EAB23A8C1B8F1A9C1B9F121
:103B4800AAC1BAF1ABC1BBF1B8C170F1B9C171F189
:103B5800BAC172F1BBC173F170C13FF071C140F0DD
:103B680072C141F073C142F0A0C18CF0A1C18DF0C7
:103B78000001D8908C378D37D8908C378D37150E3B
:103B88008C25F66EFF0E8D21F76EF86A000EF8226E
:103B98000900F5CF43F00900F5CF44F00900F5CF4F
:103BA80045F00A00F5CF46F0CCEC5CF03FC074F16C
:103BB80040C075F141C076F142C077F1000E476E02
:103BC800000E486E800E496E3F0E4A6E70C11AF0A4
:103BD80071C11BF072C11CF073C11DF0A0C18CF043
:103BE800A1C18DF00001D8908C378D37D8908C37D3
:103BF8008D37150E8C25F66EFF0E8D21F76EF86A3F
:103C0800000EF8220900F5CF16F00900F5CF17F0DD
:103C18000900F5CF18F00A00F5CF19F059EC3AF081
:103C280016C04BF017C04CF018C04DF019C04EF03C
:103C3800B2EC42F047C078F148C079F149C07AF156
:103C48004AC07BF174C126F075C127F076C128F00F
:103C580077C129F078C12AF079C12BF07AC12CF00C
:103C68007BC12DF0CFEC3EF026C05CF127C05DF1A2
:103C780028C05EF129C05FF15CC16CF15DC16DF1D6
:103C88005EC16EF15FC16FF16CC1B8F16DC1B9F180
:103C98006EC1BAF16FC1BBF1B8C190F1B9C191F170
:103CA800BAC192F1BBC193F1000E01019015B86F32
:103CB800F00E9115B96FFF0E9215BA6FFF0E93159E
:103CC800BB6FB8C16CF1B9C16DF1BAC16EF1BBC1BE
:103CD8006FF1A8C18CF0A9C18DF0AAC18EF0ABC15B
:103CE8008FF000018F358F338E338D338C33000E78
:103CF8008C15906FF00E8D15916FFF0E8E15926FCB
:103D0800FF0E8F15936F000E90110101906F000E3A
:103D1800000191110101916F000E00019211010142
:103D2800926F200E000193110101936FA0C18CF0D6
:103D3800A1C18DF0A2C18EF0A3C18FF0150ED8904D
:103D480000018C378D378E378F37E82EA3EF1EF0A2
:103D58000101905100018C25906F010191510001E2
:103D68008D21916F0101925100018E21926F010105
:103D7800935100018F21936F000E90250101B86FB8
:103D8800000E000191210101B96F400E000192213E
:103D98000101BA6F000E000193210101BB6FB8C188
:103DA80068F1B9C169F1BAC16AF1BBC16BF1A0C1CF
:103DB8008CF0A1C18DF00001D8908C378D37D89048
:103DC8008C378D37150E8C25F66EFF0E8D21F76E0C
:103DD800F86A000EF8220900F5CF43F00900F5CF84
:103DE80044F00900F5CF45F00A00F5CF46F068C168
:103DF8003FF069C140F06AC141F06BC142F0CCECC0
:103E08005CF03FC094F140C095F141C096F142C0CA
:103E180097F170C13FF071C140F072C141F073C1B8
:103E280042F094C143F095C144F096C145F097C162
:103E380046F0CCEC5CF03FC034F140C035F141C0F5
:103E480036F142C037F168C12AF069C12BF06AC166
:103E58002CF06BC12DF06CC126F06DC127F06EC13E
:103E680028F06FC129F0CFEC3EF026C043F027C000
:103E780044F028C045F029C046F074C13FF075C130
:103E880040F076C141F077C142F0CCEC5CF03FC025
:103E980094F140C095F141C096F142C097F134C108
:103EA8002AF035C12BF036C12CF037C12DF06CC18A
:103EB80026F06DC127F06EC128F06FC129F0CFEC54
:103EC8003EF026C043F027C044F028C045F029C082
:103ED80046F094C13FF095C140F096C141F097C1BA
:103EE80042F0CCEC5CF03FC054F140C055F141C009
:103EF80056F142C057F154C126F055C127F056C1BA
:103F080028F057C129F078C12AF079C12BF07AC17D
:103F18002CF07BC12DF0CFEC3EF026C030F127C04D
:103F280031F128C032F129C033F15CC126F05DC1FE
:103F380027F05EC128F05FC129F05CC12AF05DC19D
:103F48002BF05EC12CF05FC12DF0CFEC3EF026C007
:103F58008CF127C08DF128C08EF129C08FF1550E44
:103F68001A6E320E1B6E6C0E1C6E3E0E1D6E420ECD
:103F78002A6EF10E2B6E530E2C6E3E0E2D6E8CC1DA
:103F880026F08DC127F08EC128F08FC129F0CFEC23
:103F98003EF026C016F027C017F028C018F029C038
:103FA80019F059EC3AF016C0A4F117C0A5F118C0E1
:103FB800A6F119C0A7F1050E1A6EA30E1B6E8B0E83
:103FC8001C6E3E0E1D6E8CC12AF08DC12BF08EC169
:103FD8002CF08FC12DF0A4C126F0A5C127F0A6C1F1
:103FE80028F0A7C129F0CFEC3EF026C016F027C074
:103FF80017F028C018F029C019F059EC3AF016C08B
:1040080054F117C055F118C056F119C057F1AB0E4D
:104018001A6EAA0E1B6EAA0E1C6E3E0E1D6E8CC169
:104028002AF08DC12BF08EC12CF08FC12DF054C118
:1040380026F055C127F056C128F057C129F0CFEC1A
:104048003EF026C016F027C017F028C018F029C087
:1040580019F059EC3AF016C048F117C049F118C0E8
:104068004AF119C04BF1B70E1A6E6D0E1B6EDB0EBE
:104078001C6E3E0E1D6E8CC12AF08DC12BF08EC1B8
:104088002CF08FC12DF048C126F049C127F04AC154
:1040980028F04BC129F0CFEC3EF026C016F027C01F
:1040A80017F028C018F029C019F059EC3AF016C0DA
:1040B80038F117C039F118C03AF119C03BF19A0E1E
:1040C8001A6E990E1B6E190E1C6E3F0E1D6E8CC15A
:1040D8002AF08DC12BF08EC12CF08FC12DF038C184
:1040E80026F039C127F03AC128F03BC129F0CFECBE
:1040F8003EF026C016F027C017F028C018F029C0D7
:1041080019F059EC3AF016C000F117C001F118C0C7
:1041180002F119C003F18CC12AF08DC12BF08EC1B8
:104128002CF08FC12DF08CC126F08DC127F08EC1E7
:1041380028F08FC129F0CFEC3EF026C004F127C04B
:1041480005F128C006F129C007F100C126F001C118
:1041580027F002C128F003C129F004C12AF005C1E3
:104168002BF006C12CF007C12DF0CFEC3EF026C095
:104178004CF127C04DF128C04EF129C04FF130C194
:104188002AF031C12BF032C12CF033C12DF05CC1C3
:104198001AF05DC11BF05EC11CF05FC11DF06CC15F
:1041A80016F06DC117F06EC118F06FC119F059EC17
:1041B8003AF016C026F017C027F018C028F019C02A
:1041C80029F0CFEC3EF026C058F127C059F128C09D
:1041D8005AF129C05BF14CC116F04DC117F04EC120
:1041E80018F04FC119F058C11AF059C11BF05AC143
:1041F8001CF05BC11DF059EC3AF016C04CF117C029
:104208004DF118C04EF119C04FF16CC126F06DC1C7
:1042180027F06EC128F06FC129F06CC12AF06DC17A
:104228002BF06EC12CF06FC12DF0CFEC3EF026C004
:104238008CF127C08DF128C08EF129C08FF1000EB6
:104248001A6E000E1B6E400E1C6E400E1D6E8CC149
:1042580016F08DC117F08EC118F08FC119F059EC06
:104268003AF016C058F117C059F118C05AF119C0E0
:104278005BF158C116F059C117F05AC118F05BC16B
:1042880019F04CC11AF04DC11BF04EC11CF04FC1C2
:104298001DF059EC3AF016C068F117C069F118C062
:1042A8006AF119C06BF168C1B8F169C1B9F16AC1A5
:1042B800BAF16BC1BBF1B8C190F1B9C191F1BAC102
:1042C80092F1BBC193F1000E01019015B86FF00E89
:1042D8009115B96FFF0E9215BA6FFF0E9315BB6F4C
:1042E800B8C168F1B9C169F1BAC16AF1BBC16BF172
:1042F800000E1A6E000E1B6E400E1C6EC00E1D6E58
:1043080068C116F069C117F06AC118F06BC119F0DD
:1043180059EC3AF016C03CF117C03DF118C03EF117
:1043280019C03FF18CC143F08DC144F08EC145F0F6
:104338008FC146F03CC13FF03DC140F03EC141F065
:104348003FC142F0CCEC5CF03FC040F140C041F1CD
:1043580041C042F142C043F14CC13FF04DC140F071
:104368004EC141F04FC142F040C143F041C144F059
:1043780042C145F043C146F0CCEC5CF03FC034F19B
:1043880040C035F141C036F142C037F16CC126F06A
:104398006DC127F06EC128F06FC129F068C12AF0FD
:1043A80069C12BF06AC12CF06BC12DF0CFEC3EF047
:1043B80026C074F127C075F128C076F129C077F1BD
:1043C80068C12AF069C12BF06AC12CF06BC12DF0CD
:1043D80030C126F031C127F032C128F033C129F0AD
:1043E800CFEC3EF026C016F027C017F028C018F012
:1043F80029C019F05CC12AF05DC12BF05EC12CF018
:104408005FC12DF034C126F035C127F036C128F040
:1044180037C129F0CFEC3EF026C01AF027C01BF0B8
:1044280028C01CF029C01DF059EC3AF016C078F1EC
:1044380017C079F118C07AF119C07BF174C116F070
:1044480075C117F076C118F077C119F078C11AF064
:1044580079C11BF07AC11CF07BC11DF059EC3AF010
:1044680016C09CF117C09DF118C09EF119C09FF1AC
:104478009CC1B8F19DC1B9F19EC1BAF19FC1BBF110
:10448800B8C190F1B9C191F1BAC192F1BBC193F130
:10449800000E01019015B86FF00E9115B96FFF0E5F
:1044A8009215BA6FFF0E9315BB6FB8C19CF1B9C1D5
:1044B8009DF1BAC19EF1BBC19FF174C143F075C1B2
:1044C80044F076C145F077C146F09CC13FF09DC1EC
:1044D80040F09EC141F09FC142F0CCEC5CF03FC07F
:1044E80094F140C095F141C096F142C097F178C16E
:1044F8003FF079C140F07AC141F07BC142F094C1EC
:1045080043F095C144F096C145F097C146F0CCEC14
:104518005CF03FC064F140C065F141C066F142C043
:1045280067F19CC126F09DC127F09EC128F09FC16C
:1045380029F0000E2A6E400E2B6E760E2C6E3F0E62
:104548002D6ECFEC3EF026C020F127C021F128C007
:1045580022F129C023F14F0E2A6E380E2B6E760EEB
:104568002C6E3F0E2D6E64C126F065C127F066C122
:1045780028F067C129F0CFEC3EF026C01AF027C01A
:104588001BF028C01CF029C01DF0C60E2A6E230E91
:104598002B6EF60E2C6EB80E2D6E9CC126F09DC1AA
:1045A80027F09EC128F09FC129F0CFEC3EF026C02D
:1045B80016F027C017F028C018F029C019F059ECD8
:1045C8003AF016C058F117C059F118C05AF119C07D
:1045D8005BF158C116F059C117F05AC118F05BC108
:1045E80019F0A0C18CF0A1C18DF00001D8908C37D2
:1045F8008D37D8908C378D37AD0E8C25F66EFE0E24
:104608008D21F76EF86A000EF8220900F5CF1AF02E
:104618000900F5CF1BF00900F5CF1CF00A00F5CF13
:104628001DF059EC3AF016C024F117C025F118C056
:1046380026F119C027F17CC108F07DC109F07EC1BF
:104648000AF07FC10BF0010E35EC4CF008C0B0F158
:1046580009C0B1F10AC0B2F10BC0B3F124C11AF01C
:1046680025C11BF026C11CF027C11DF020C116F082
:1046780021C117F022C118F023C119F059EC3AF002
:1046880016C058F117C059F118C05AF119C05BF19A
:10469800A0C18CF0A1C18DF00001D8908C378D3766
:1046A800D8908C378D37B50E8C25F66EFE0E8D2181
:1046B800F76EF86A000EF8220900F5CF1AF0090023
:1046C800F5CF1BF00900F5CF1CF00A00F5CF1DF05F
:1046D80058C116F059C117F05AC118F05BC119F04A
:1046E80059EC3AF016C008F117C009F118C00AF1E0
:1046F80019C00BF108C116F009C117F00AC118F06A
:104708000BC119F0B0C11AF0B1C11BF0B2C11CF055
:10471800B3C11DF059EC3AF016C080F117C081F111
:1047280018C082F119C083F180C1B8F181C1B9F113
:1047380082C1BAF183C1BBF1B8C190F1B9C191F19D
:10474800BAC192F1BBC193F1000E01019015B86F87
:10475800F00E9115B96FFF0E9215BA6FFF0E9315F3
:10476800BB6FB8C180F1B9C181F1BAC182F1BBC1D7
:1047780083F1B0C143F0B1C144F0B2C145F0B3C157
:1047880046F080C13FF081C140F082C141F083C151
:1047980042F0CCEC5CF03FC094F140C095F141C0D0
:1047A80096F142C097F1A0C18CF0A1C18DF0000133
:1047B800D8908C378D37D8908C378D37B50E8C259F
:1047C800F66EFE0E8D21F76EF86A000EF8220900CB
:1047D800F5CF43F00900F5CF44F00900F5CF45F0D7
:1047E8000A00F5CF46F094C13FF095C140F096C15C
:1047F80041F097C142F0CCEC5CF03FC040F140C0C2
:1048080041F141C042F142C043F120C143F021C10E
:1048180044F022C145F023C146F040C13FF041C1F8
:1048280040F042C141F043C142F0CCEC5CF03FC0E3
:104838000CF140C00DF141C00EF142C00FF124C18E
:104848003FF025C140F026C141F027C142F00CC11C
:1048580043F00DC144F00EC145F00FC146F0CCEC59
:104868005CF03FC01CF140C01DF141C01EF142C0C8
:104878001FF188C0B8F189C0B9F18AC0BAF18BC0FC
:10488800BBF1B8C190F1B9C191F1BAC192F1BBC104
:1048980093F1000E01019015B86FF00E9115B96FE4
:1048A800FF0E9215BA6FFF0E9315BB6FB8C128F1B2
:1048B800B9C129F1BAC12AF1BBC12BF180C12AF0D3
:1048C80081C12BF082C12CF083C12DF028C143F0A7
:1048D80029C144F02AC145F02BC146F088C03FF0F9
:1048E80089C040F08AC041F08BC042F0CCEC5CF04B
:1048F8003FC026F040C027F041C028F042C029F050
:10490800CFEC3EF026C010F127C011F128C012F1FB
:1049180029C013F110C116F011C117F012C118F017
:1049280013C119F01CC12AF01DC12BF01EC12CF0B7
:104938001FC12DF088C026F089C027F08AC028F052
:104948008BC029F0CFEC3EF026C01AF027C01BF030
:1049580028C01CF029C01DF059EC3AF016C064F1CB
:1049680017C065F118C066F119C067F128C126F0B3
:1049780029C127F02AC128F02BC129F080C12AF0CB
:1049880081C12BF082C12CF083C12DF0CFEC3EF019
:1049980026C09CF127C09DF128C09EF129C09FF137
:1049A80064C116F065C117F066C118F067C119F047
:1049B8009CC11AF09DC11BF09EC11CF09FC11DF047
:1049C80059EC3AF016C0B4F117C0B5F118C0B6F1F9
:1049D80019C0B7F1B4C1B8F1B5C1B9F1B6C1BAF1EE
:1049E800B7C1BBF1B8C1ACF1B9C1ADF1BAC1AEF153
:1049F800BBC1AFF10101AFBF0EEF25F0AC05000E52
:104A0800AD59000EAE59430EAF59D8A00EEF25F0A0
:104A180010EF25F046EF25F0CA0E2A6EF20E2B6E27
:104A2800490E2C6E710E2D6E88C126F089C127F0B3
:104A38008AC128F08BC129F0CFEC3EF026C0A4F142
:104A480027C0A5F128C0A6F129C0A7F1A4C126F066
:104A5800A5C127F0A6C128F0A7C129F0CA0E2A6E61
:104A6800F20E2B6E490E2C6E710E2D6ECFEC3EF0B1
:104A780026C084F027C085F028C086F029C087F0BA
:104A880047EF2BF0430EAF19AC11AD11AE11D8A4FE
:104A980050EF25F052EF25F0C5EF25F09CC143F00B
:104AA8009DC144F09EC145F09FC146F0B4C13FF09E
:104AB800B5C140F0B6C141F0B7C142F0CCEC5CF0F2
:104AC8003FC047F040C048F041C049F042C04AF0FA
:104AD8003C0E1A6EAA0E1B6E380E1C6E330E1D6E1F
:104AE80064C116F065C117F066C118F067C119F006
:104AF80059EC3AF016C04BF017C04CF018C04DF006
:104B080019C04EF03BEC52F0D8B08DEF25F08FEF86
:104B180025F08FEF26F0CA0E2A6EF20E2B6E490E84
:104B28002C6E710E2D6E88C126F089C127F08AC1BE
:104B380028F08BC129F0CFEC3EF026C0A4F127C0A5
:104B4800A5F128C0A6F129C0A7F1A4C126F0A5C1E6
:104B580027F0A6C128F0A7C129F0CA0E2A6EF20EC6
:104B68002B6E490E2C6E710E2D6ECFEC3EF026C0CA
:104B780084F027C085F028C086F029C087F047EF69
:104B88002BF0FF0EAC1500018C6FFF0E0101AD1567
:104B980000018D6FFF0E0101AE1500018E6F7F0EB3
:104BA8000101AF1500018F6F8FBFE7EF25F08C056E
:104BB800000E8D59160E8E59430E8F59D8A0E7EF67
:104BC80025F0E9EF25F01FEF26F0600E2A6E420E61
:104BD8002B6EA20E2C6E0D0E2D6E88C126F089C18B
:104BE80027F08AC128F08BC129F0CFEC3EF026C00F
:104BF800A4F127C0A5F128C0A6F129C0A7F1A4C136
:104C080026F0A5C127F0A6C128F0A7C129F0600E9B
:104C18002A6E420E2B6EA20E2C6E0D0E2D6ECFEC50
:104C28003EF026C084F027C085F028C086F029C051
:104C380087F047EF2BF0160E0101AE1909E1C30EFC
:104C4800AF19AC11AD11D8A42CEF26F02EEF26F039
:104C58008FEF26F09CC143F09DC144F09EC145F002
:104C68009FC146F0B4C13FF0B5C140F0B6C141F0B4
:104C7800B7C142F0CCEC5CF03FC047F040C048F010
:104C880041C049F042C04AF064C14BF065C14CF0E4
:104C980066C14DF067C14EF03BEC52F0D8A057EF1B
:104CA80026F059EF26F08FEF26F0600E2A6E420E9E
:104CB8002B6EA20E2C6E0D0E2D6E88C126F089C1AA
:104CC80027F08AC128F08BC129F0CFEC3EF026C02E
:104CD800A4F127C0A5F128C0A6F129C0A7F1A4C155
:104CE80026F0A5C127F0A6C128F0A7C129F0600EBB
:104CF8002A6E420E2B6EA20E2C6E0D0E2D6ECFEC70
:104D08003EF026C084F027C085F028C086F029C070
:104D180087F047EF2BF0FF0E0101AC152C6FFF0E4B
:104D2800AD152D6FFF0EAE152E6F7F0EAF152F6FC1
:104D3800170E00018C6F2CC18DF02DC18EF02EC185
:104D48008FF02FC190F08C67ACEF26F0B4EF26F00F
:104D5800903590338F338E338D338C2FA7EF26F019
:104D6800810E00018D250101A06FFF0E00018E212B
:104D78000101A16FFF0E00018F210101A26FFF0E3B
:104D8800000190210101A36F000E7C6F000E7D6F62
:104D9800000E7E6F000E7F6F2FBFDFEF26F02C0511
:104DA800000E2D59000E2E593F0E2F59D8A0DFEFB7
:104DB80026F0E1EF26F0E5EF27F0A0C18CF0010E18
:104DC80000018C27000E8D6F000E8E6F800E8F6F86
:104DD800000E906F8C67F3EF26F0FBEF26F090350E
:104DE80090338F338E338D338C2FEEEF26F0010105
:104DF800AC5100018D2501017C6FAD5100018E2160
:104E080001017D6FAE5100018F2101017E6FAF510D
:104E18000001902101017F6F810E00018C6FFF0E50
:104E28008D6FFF0E8E6FFF0E8F6F170E906F7CC108
:104E380091F07DC192F07EC193F07FC194F09067AC
:104E480028EF27F030EF27F09435943393339233DB
:104E58009133902F23EF27F0000191518C25010108
:104E6800A06F000E00018D210101A16F000E00014D
:104E78008E210101A26F000E00018F210101A36F95
:104E8800A0C18CF0FF0E00018D6FFF0E8E6F7F0E9C
:104E98008F6F000E906F8C6754EF27F05CEF27F050
:104EA800903590338F338E338D338C2F4FEF27F01F
:104EB80000018D1D916F8E1D926F8F1D936F901D38
:104EC800946F01017C51000191150101B86F7D516A
:104ED800000192150101B96F7E510001931501017E
:104EE800BA6F7F51000194150101BB6FB8C1B0F1D1
:104EF800B9C1B1F1BAC1B2F1BBC1B3F1A051170840
:104F080000018C6FFF0E01017C1500018D6FFF0EF3
:104F180001017D1500018E6F7F0E01017E150001D4
:104F28008F6F000E01017F150001906F000E8D112B
:104F3800916F000E8E11926F800E8F11936F000E7D
:104F48009011946F8C67ABEF27F0B3EF27F094358F
:104F580094339333923391338C2FA6EF27F091C07B
:104F68007CF192C07DF193C07EF194C07FF1010184
:104F7800AFBFC3EF27F0C1EF27F0CBEF27F07F1FBC
:104F88007E1F7D1F7C6D000E7D237E237F239CC1A9
:104F98003FF09DC140F09EC141F09FC142F0B0C1B9
:104FA80043F0B1C144F0B2C145F0B3C146F0CCEC16
:104FB8005CF03FC09CF140C09DF141C09EF142C0F1
:104FC8009FF164C116F065C117F066C118F067C19A
:104FD80019F09CC11AF09DC11BF09EC11CF09FC125
:104FE8001DF059EC3AF016C0B0F117C0B1F118C075
:104FF800B2F119C0B3F1B0C1B8F1B1C1B9F1B2C1E0
:10500800BAF1B3C1BBF1B8C190F1B9C191F1BAC15C
:1050180092F1BBC193F1000E01019015B86F800E9B
:105028009115B96FFF0E9215BA6FFF0E9315BB6FEE
:10503800B8C1B0F1B9C1B1F1BAC1B2F1BBC1B3F1F4
:10504800B0C126F0B1C127F0B2C128F0B3C129F030
:10505800000E2A6E720E2B6E310E2C6E3F0E2D6EC8
:10506800CFEC3EF026C074F127C075F128C076F168
:1050780029C077F19CC143F09DC144F09EC145F021
:105088009FC146F0B0C13FF0B1C140F0B2C141F09C
:10509800B3C142F0CCEC5CF03FC094F140C095F154
:1050A80041C096F142C097F1180E2A6E720E2B6E0F
:1050B800310E2C6E3F0E2D6E94C143F095C144F015
:1050C80096C145F097C146F064C13FF065C140F014
:1050D80066C141F067C142F0CCEC5CF03FC026F0FD
:1050E80040C027F041C028F042C029F0CFEC3EF084
:1050F80026C014F127C015F128C016F129C017F1F0
:1051080014C116F015C117F016C118F017C119F01F
:105118008C0E2A6EBE0E2B6EBF0E2C6E350E2D6EAB
:10512800B0C126F0B1C127F0B2C128F0B3C129F04F
:10513800CFEC3EF026C01AF027C01BF028C01CF0A8
:1051480029C01DF059EC3AF016C078F117C079F172
:1051580018C07AF119C07BF174C116F075C117F047
:1051680076C118F077C119F078C11AF079C11BF02F
:105178007AC11CF07BC11DF059EC3AF016C0B4F1AD
:1051880017C0B5F118C0B6F119C0B7F174C143F032
:1051980075C144F076C145F077C146F0B4C13FF01F
:1051A800B5C140F0B6C141F0B7C142F0CCEC5CF0FB
:1051B8003FC094F140C095F141C096F142C097F1CB
:1051C80078C13FF079C140F07AC141F07BC142F02B
:1051D80094C143F095C144F096C145F097C146F09B
:1051E800CCEC5CF03FC044F140C045F141C046F111
:1051F80042C047F1B4C126F0B5C127F0B6C128F0C6
:10520800B7C129F0B4C12AF0B5C12BF0B6C12CF052
:10521800B7C12DF0CFEC3EF026C0B0F127C0B1F1F8
:1052280028C0B2F129C0B3F10E0E1A6EEA0E1B6E39
:10523800DD0E1C6EB50E1D6E4C0E2A6EBB0E2B6E4F
:10524800310E2C6E330E2D6EB0C126F0B1C127F091
:10525800B2C128F0B3C129F0CFEC3EF026C016F059
:1052680027C017F028C018F029C019F059EC3AF0F7
:1052780016C0A4F117C0A5F118C0A6F119C0A7F16E
:10528800550E1A6EB30E1B6E8A0E1C6E380E1D6EEE
:10529800B0C12AF0B1C12BF0B2C12CF0B3C12DF0CE
:1052A800A4C126F0A5C127F0A6C128F0A7C129F0FE
:1052B800CFEC3EF026C016F027C017F028C018F033
:1052C80029C019F059EC3AF016C054F117C055F13D
:1052D80018C056F119C057F1610E1A6E0B0E1B6EED
:1052E800360E1C6EBB0E1D6EB0C12AF0B1C12BF07C
:1052F800B2C12CF0B3C12DF054C126F055C127F02E
:1053080056C128F057C129F0CFEC3EF026C016F060
:1053180027C017F028C018F029C019F059EC3AF046
:1053280016C048F117C049F118C04AF119C04BF12D
:10533800AB0E1A6EAA0E1B6E2A0E1C6E3E0E1D6E4A
:10534800B0C12AF0B1C12BF0B2C12CF0B3C12DF01D
:1053580048C126F049C127F04AC128F04BC129F0BD
:10536800CFEC3EF026C016F027C017F028C018F082
:1053780029C019F059EC3AF016C038F117C039F1C4
:1053880018C03AF119C03BF1B4C13FF0B5C140F0C3
:10539800B6C141F0B7C142F0B0C12AF0B1C12BF09B
:1053A800B2C12CF0B3C12DF038C126F039C127F0B5
:1053B8003AC128F03BC129F0CFEC3EF026C043F0BB
:1053C80027C044F028C045F029C046F0CCEC5CF07A
:1053D8003FC080F140C081F141C082F142C083F1F9
:1053E800000E1A6E000E1B6E000E1C6EC00E1D6E97
:1053F80080C116F081C117F082C118F083C119F07D
:1054080059EC3AF016C04BF017C04CF018C04DF0EC
:1054180019C04EF080C12AF081C12BF082C12CF056
:1054280083C12DF0B4C126F0B5C127F0B6C128F06C
:10543800B7C129F0CFEC3EF026C047F027C048F0AE
:1054480028C049F029C04AF0B2EC42F047C03CF10C
:1054580048C03DF149C03EF14AC03FF144C11AF08D
:1054680045C11BF046C11CF047C11DF044C12AF0DC
:1054780045C12BF046C12CF047C12DF0B4C126F030
:10548800B5C127F0B6C128F0B7C129F0CFEC3EF07E
:1054980026C016F027C017F028C018F029C019F048
:1054A80059EC3AF016C018F117C019F118C01AF1E2
:1054B80019C01BF13CC13FF03DC140F03EC141F075
:1054C8003FC142F018C143F019C144F01AC145F078
:1054D8001BC146F0CCEC5CF03FC04CF140C04DF134
:1054E80041C04EF142C04FF1B4C143F0B5C144F0E0
:1054F800B6C145F0B7C146F04CC13FF04DC140F0D0
:105508004EC141F04FC142F0CCEC5CF03FC094F189
:1055180040C095F141C096F142C097F1000E3F6E30
:10552800000E406E800E416E3F0E426E94C143F0F5
:1055380095C144F096C145F097C146F0CCEC5CF0BB
:105548003FC0B4F140C0B5F141C0B6F142C0B7F1B7
:10555800B4C1B8F1B5C1B9F1B6C1BAF1B7C1BBF1BF
:10556800B8C1ACF1B9C1ADF1BAC1AEF1BBC1AFF1CF
:105578007CC18CF07DC18DF07EC18EF07FC18FF033
:10558800170ED89000018C378D378E378F37E82E5D
:10559800C5EF2AF08C510101AC2700018D510101A2
:1055A800AD2300018E510101AE2300018F5101018D
:1055B800AF23170E00018C6FACC18DF0ADC18EF01A
:1055C800AEC18FF0AFC190F08C67EDEF2AF0F5EF28
:1055D8002AF0903590338F338E338D338C2FE8EF4C
:1055E8002AF0000190BF05EF2BF090518F118E111A
:1055F80006E18D05D8B003EF2BF005EF2BF01DEF7A
:105608002BF0B4C13FF0B5C140F0B6C141F0B7C10D
:1056180042F07CC143F07DC144F051EC48F03FC0FA
:10562800B4F140C0B5F141C0B6F142C0B7F12DEFB9
:105638002BF0ACC1B8F1ADC1B9F1AEC1BAF1AFC18F
:10564800BBF1B8C1B4F1B9C1B5F1BAC1B6F1BBC1CA
:10565800B7F188C126F089C127F08AC128F08BC12B
:1056680029F0B4C12AF0B5C12BF0B6C12CF0B7C1EE
:105678002DF0CFEC3EF026C084F027C085F028C07E
:1056880086F029C087F01200000E02019D6F75C2D6
:10569800A0F276C2A1F277C2A2F278C2A3F2A3BFA7
:1056A8005AEF2BF058EF2BF06EEF2BF0010E9D6F99
:1056B800A0C200F2A1C201F2A2C202F2A3C203F286
:1056C80099EC5EF000C2A0F201C2A1F202C2A2F2FD
:1056D80003C2A3F2000E02019F6F000E9E6FE9C283
:1056E8008DF2EAC28EF29D51D8B47DEF2BF07FEF98
:1056F8002BF093EF2BF09D51D8A485EF2BF087EF7B
:105708002BF08DEF2BF0000E836F2B0E826F91EF35
:105718002BF0000E836F2D0E826F82C29DF2A0C205
:1057280000F2A1C201F2A2C202F2A3C203F2BDECCE
:1057380052F0020100050111D8A4A5EF2BF0A7EF44
:105748002BF0D9EF2BF09D51D8B4ADEF2BF0AFEF84
:105758002BF0B8EF2BF09DC200F48D07D8A08E0770
:10576800000E9F6F010E9E6F000E9E25006F040EA7
:105778009F21016FF60E026FFF0E036FEFEC5CF0D6
:105788000201FD0E8D27FF0E8E2373C212F274C222
:1057980013F2000E146F040E156F8DC216F28EC22E
:1057A80017F2E4EC54F05BEF30F0A0C200F2A1C2B3
:1057B80001F2A2C202F2A3C203F2BDEC52F002014E
:1057C80000510111D8A4EBEF2BF0EDEF2BF01FEFF8
:1057D8002CF09D51D8B4F3EF2BF0F5EF2BF0FEEF42
:1057E8002BF09DC200F48D07D8A08E07000E9F6F86
:1057F800010E9E6F000E9E25006F040E9F21016F03
:10580800FA0E026FFF0E036FEFEC5CF00201FD0E63
:105818008D27FF0E8E2373C212F274C213F2000E8C
:10582800146F040E156F8DC216F28EC217F2E4ECD7
:1058380054F05BEF30F0000EA46F000EA56F800EE1
:10584800A66F3F0EA76F000E8C6F000E8B6FA0C265
:1058580000F2A1C201F2A2C202F2A3C203F2000E38
:10586800046F000E056F000E066F000E076F3CEC0C
:1058780055F00201D8B043EF2CF045EF2CF027EF9C
:105888002DF051EF2CF08FC2A4F290C2A5F291C274
:10589800A6F292C2A7F28B4B8C2BA4C225F2A5C20A
:1058A80026F2A6C227F2A7C228F2000E296F000E20
:1058B8002A6F200E2B6F410E2C6FB9EC3CF025C2DD
:1058C8008FF226C290F227C291F228C292F2020108
:1058D8008F51A05D006F9051A159016F9151A2594C
:1058E800026F9251A359036F2EEC5AF0020103BFC5
:1058F80089EF2CF003510211011109E1020E005D3C
:10590800D8A089EF2CF08BEF2CF047EF2CF08FC24A
:1059180046F290C247F291C248F292C249F2A0C23E
:105928004AF2A1C24BF2A2C24CF2A3C24DF235EC2C
:1059380051F00201D8A0A3EF2CF0A5EF2CF047EF0F
:105948002CF0A451A05D006FA551A159016FA6517B
:10595800A259026FA751A359036F2EEC5AF0020106
:1059680003BFC4EF2CF003510211011107E1020E2D
:10597800005DD8B0C2EF2CF0C4EF2CF00DEF2DF085
:10598800A4C2A0F2A5C2A1F2A6C2A2F2A7C2A3F223
:1059980027EF2DF0A4C246F2A5C247F2A6C248F2EC
:1059A800A7C249F2000E4A6F000E4B6F200E4C6FD3
:1059B800410E4D6FE4EC40F046C2A4F247C2A5F296
:1059C80048C2A6F249C2A7F202018B07D8A08C07E9
:1059D800A451A05D006FA551A159016FA651A2590C
:1059E800026FA751A359036F2EEC5AF0020103BFAF
:1059F8000BEF2DF003510211011107E1020E005DBA
:105A0800D8B009EF2DF00BEF2DF00DEF2DF0C4EF0E
:105A18002CF0A0C246F2A1C247F2A2C248F2A3C229
:105A280049F2A4C24AF2A5C24BF2A6C24CF2A7C2DE
:105A38004DF235EC51F00201D8A025EF2DF027EFFB
:105A48002DF0CEEF2CF079C285F285C286F2ECBF3C
:105A580030EF2DF032EF2DF038EF2DF0EBC27EF263
:105A6800ECC27FF23CEF2DF0000E7F6F060E7E6FCA
:105A78007EC289F27FC28AF2894B8A2B660E86190A
:105A8800D8A449EF2DF04BEF2DF06BEF2DF08CBF24
:105A980052EF2DF050EF2DF05EEF2DF0000EA46FB9
:105AA800000EA56F800EA66F3F0EA76F000E8C6FBD
:105AB800000E8B6F670E8519D8B465EF2DF067EF70
:105AC8002DF06BEF2DF08B5189278C518A23000E16
:105AD800946F000E936FA0C295F2A1C296F2A2C273
