:04000000C1EF00F05C
:100008004682FACF10F0FBCF11F0D9CF12F0DACF39
:1000180013F0F3CF14F0F4CF15F0F6CF16F0F7CFB6
:1000280017F0F8CF18F0F5CF19F00E01C2A91FEF9D
:1000380000F021EF00F02CEF00F0CAA926EF00F045
:1000480028EF00F02CEF00F076EC3CF0ABEF00F07E
:10005800F2AC31EF00F033EF00F0ABEF00F0C5A9E0
:1000680038EF00F03AEF00F050EF00F0CDA93FEF85
:1000780000F041EF00F050EF00F002D84EEF00F032
:100088000500FA6E02018151FD6E8251FE6EFF6A13
:10009800FA501200ABEF00F0C5AB55EF00F057EF88
:1000A80000F06DEF00F0CDAB5CEF00F05EEF00F01C
:1000B8006DEF00F002D86BEF00F00500FA6E020158
:1000C8007F51FD6E8051FE6EFF6AFA501200ABEF51
:1000D80000F0C6A372EF00F074EF00F07FEF00F0BD
:1000E800CEA379EF00F07BEF00F07FEF00F068EC33
:1000F8003AF0ABEF00F0C5A184EF00F086EF00F016
:100108009BEF00F0CDA18BEF00F08DEF00F09BEF9F
:1001180000F002D899EF00F00500FA6E3C50FD6E31
:100128003D50FE6EFF6AFA501200ABEF00F0C5A317
:10013800A0EF00F0A2EF00F0ABEF00F0CDA3A7EF27
:1001480000F0A9EF00F0ABEF00F08DEF00F019C060
:10015800F5FF18C0F8FF17C0F7FF16C0F6FF15C067
:10016800F4FF14C0F3FF13C0DAFF12C0D9FF11C0A7
:10017800FBFF10C0FAFF4692110034EF3AF0D0C0EE
:10018800B8F1D1C0B9F1D2C0BAF1D3C0BBF1B8C18E
:1001980060F1B9C161F1BAC162F1BBC163F1D4C008
:1001A800B8F1D5C0B9F1D6C0BAF1D7C0BBF1B8C162
:1001B8007CF1B9C17DF1BAC17EF1BBC17FF1FF0EFF
:1001C80001016015A86FFF0E6115A96FFF0E62157A
:1001D800AA6F7F0E6315AB6FFF0E7C15906FFF0E35
:1001E8007D15916FFF0E7E15926F7F0E7F15936FB1
:1001F8009051911192119311D8A405EF01F007EFD6
:1002080001F012EF01F0000E0001D06F000ED16F67
:10021800800ED26F3F0ED36F10EF16F0800E62196A
:1002280009E13F0E631960116111D8A41EEF01F0B6
:1002380020EF01F02BEF01F0000E0001D06F000E4F
:10024800D16F800ED26F3F0ED36F10EF16F0ABBF99
:100258003CEF01F0A805000EA959800EAA597F0E9F
:10026800AB59D8B03AEF01F03CEF01F04DEF01F097
:1002780093BF4BEF01F09005000E9159800E9259F3
:100288007F0E9359D8A04BEF01F04DEF01F069EFC5
:1002980001F0D0C066F0D1C067F0D2C068F0D3C01A
:1002A80069F0D4C06AF0D5C06BF0D6C06CF0D7C086
:1002B8006DF012EC1EF066C0D0F067C0D1F068C0D7
:1002C800D2F069C0D3F010EF16F0000E506F000E98
:1002D800516F000E526F000E536F63BF78EF01F03D
:1002E80076EF01F044EF02F093BF84EF01F0800E47
:1002F800925D4B0E9359D8A084EF01F086EF01F080
:1003080090EF01F0020E506F000E516F000E526F09
:10031800000E536F44EF02F093BF9CEF01F0800E84
:10032800925D3F0E9359D8A09CEF01F09EEF01F02B
:1003380044EF02F0170E0001D86F90C1D9F091C1B7
:10034800DAF092C1DBF093C1DCF0D867AEEF01F0D0
:10035800B6EF01F0DC35DC33DB33DA33D933D82FB1
:10036800A9EF01F0810E0001D9250101A06FFF0E50
:100378000001DA210101A16FFF0E0001DB2101015B
:10038800A26FFF0E0001DC210101A36FA051170825
:100398000001D86F90C1D9F091C1DAF092C1DBF0B9
:1003A80093C1DCF0D867DBEF01F0E3EF01F0DC3557
:1003B800DC33DB33DA33D933D82FD6EF01F0D9C0A9
:1003C800ACF1DAC0ADF1DBC0AEF1DCC0AFF10101D8
:1003D800A05117080001D86FACC1D9F0ADC1DAF04F
:1003E800AEC1DBF0AFC1DCF0D82B00EF02F0D89043
:1003F800D937DA37DB37DC37D82FFBEF01F00101CB
:1004080090510001D91913E1010191510001DA1944
:100418000EE1010192510001DB1909E1010193513B
:100428000001DC19D8A41BEF02F01DEF02F044EF25
:1004380002F0010E0101AC150001D86F000E010198
:10044800AD150001D96F000E0101AE150001DA6F7C
:10045800000E0101AF150001DB6FD8510208010140
:10046800506F000E0001D9550101516F000E0001B7
:10047800DA550101526F000E0001DB550101536F7F
:10048800800E0101921909E17F0E931990119111C3
:10049800D8A451EF02F053EF02F0BFEF02F0800E44
:1004A800AA1909E13F0EAB19A811A911D8A45FEF49
:1004B80002F061EF02F06CEF02F0000E0001D06F65
:1004C800000ED16F800ED26F3F0ED36F10EF16F073
:1004D800ABBF7BEF02F0A805000EA959800EAA5900
:1004E8003F0EAB59D8A07BEF02F07DEF02F099EFF9
:1004F80002F07FBF84EF02F082EF02F08FEF02F08C
:10050800000E0001D06F000ED16F000ED26F000EEA
:10051800D36F10EF16F0D4C0D0F0D5C0D1F0D6C04C
:10052800D2F0D7C0D3F010EF16F07FBFA0EF02F0E3
:100538009EEF02F0B4EF02F0D4C01AF0D5C01BF061
:10054800D6C01CF0D7C01DF018EC3AF01AC0D0F095
:100558001BC0D1F01CC0D2F01DC0D3F010EF16F0B4
:10056800000E0001D06F000ED16F000ED26F000E8A
:10057800D36F10EF16F0800E921909E13F0E931910
:1005880090119111D8A4CBEF02F0CDEF02F0FBEF60
:1005980002F07FBFD4EF02F0D2EF02F0F1EF02F0E9
:1005A800000E0001976F000E986F800E996F3F0E36
:1005B8009A6FD0C09BF0D1C09CF0D2C09DF0D3C040
:1005C8009EF0E7EC24F097C0D0F098C0D1F099C025
:1005D800D2F09AC0D3F010EF16F0D0C0D0F0D1C04E
:1005E800D1F0D2C0D2F0D3C0D3F010EF16F0400E45
:1005F8007F197C117D117E11D8A405EF03F007EF58
:1006080003F023EF03F0D0C076F0D1C077F0D2C06A
:1006180078F0D3C079F0D0C07AF0D1C07BF0D2C0E6
:100628007CF0D3C07DF0D1EC22F076C0D0F077C05A
:10063800D1F078C0D2F079C0D3F010EF16F03F0EA9
:100648007F197C117D117E11D8A42DEF03F02FEFB7
:1006580003F04AEF03F063BF34EF03F036EF03F023
:100668004AEF03F0D0C0A3F0D1C0A4F0D2C0A5F0E7
:10067800D3C0A6F073EC20F0A3C0D0F0A4C0D1F092
:10068800A5C0D2F0A6C0D3F010EF16F0D0C01AF073
:10069800D1C01BF0D2C01CF0D3C01DF04EEC3AF014
:1006A8001AC070F11BC071F11CC072F11DC073F14A
:1006B800800E0101AA190BE17F0EAB19A811A9112F
:1006C800D8B469EF03F06BEF03F084EF03F0A8519F
:1006D800A911AA11AB11D8B474EF03F076EF03F0A7
:1006E80084EF03F0800EAA1909E13F0EAB19A81197
:1006F800A911D8A482EF03F084EF03F054EF04F0BB
:1007080070C1B4F171C1B5F172C1B6F173C1B7F17D
:100718007FBF93EF03F091EF03F0AEEF03F0000E0D
:100728000001976F000E986F800E996F3F0E9A6FB9
:10073800B4C19BF0B5C19CF0B6C19DF0B7C19EF0A5
:10074800E7EC24F097C0B4F198C0B5F199C0B6F1C0
:100758009AC0B7F1010163BFB6EF03F0B4EF03F03D
:100768004AEF04F0000EA8250001D86F000E010121
:10077800A9210001D96F800E0101AA210001DA6FB9
:10078800C00E0101AB210001DB6F010150510001D6
:10079800D811DC6F010151510001D911DD6F010140
:1007A80052510001DA11DE6F010153510001DB11D2
:1007B800DF6FDC51DD11DE11DF11D8A4E6EF03F0A5
:1007C800E8EF03F02CEF04F0000E396E210E386EBE
:1007D800B4C193F0B5C194F0B6C195F0B7C196F025
:1007E800B4C18FF0B5C190F0B6C191F0B7C192F025
:1007F800A9EC38F08FC097F090C098F091C099F0AC
:1008080092C09AF0B4C193F0B5C194F0B6C195F016
:10081800B7C196F0B4C18FF0B5C190F0B6C191F0F0
:10082800B7C192F0A9EC38F08FC09BF090C09CF053
:1008380091C09DF092C09EF0E7EC24F097C0B4F10F
:1008480098C0B5F199C0B6F19AC0B7F14AEF04F073
:1008580001015005511152115311D8A436EF04F07B
:1008680038EF04F04AEF04F0B4C11AF0B5C11BF038
:10087800B6C11CF0B7C11DF018EC3AF01AC0B4F1BB
:100888001BC0B5F11CC0B6F11DC0B7F1B4C1D0F0A2
:10089800B5C1D1F0B6C1D2F0B7C1D3F010EF16F0A0
:1008A800000E886F000E896F800E8A6F3F0E8B6F67
:1008B80063BF63EF04F061EF04F0C5EF04F050513B
:1008C800511152115311D8A46CEF04F06EEF04F0DB
:1008D800B2EF04F0000E396E210E386ED0C093F0DE
:1008E800D1C094F0D2C095F0D3C096F0D0C08FF0AC
:1008F800D1C090F0D2C091F0D3C092F0A9EC38F0FA
:100908008FC097F090C098F091C099F092C09AF07B
:10091800D0C093F0D1C094F0D2C095F0D3C096F077
:10092800D0C08FF0D1C090F0D2C091F0D3C092F077
:10093800A9EC38F08FC09BF090C09CF091C09DF05E
:1009480092C09EF0E7EC24F097C0D0F098C0D1F0A8
:1009580099C0D2F09AC0D3F010EF16F0500551119B
:1009680052115311D8A4BBEF04F0BDEF04F0C5EF4A
:1009780004F0000E886F000E896F800E8A6FBF0E1C
:100988008B6F93BFD4EF04F09005000E9159000EC1
:1009980092594D0E9359D8A0D4EF04F0D6EF04F035
:1009A8006AEF07F0ABBFE8EF04F0F80EA85DFF0EA2
:1009B800A9597F0EAA593F0EAB59D8B0E6EF04F0FB
:1009C800E8EF04F05FEF05F07FBFEDEF04F0EFEF25
:1009D80004F027EF05F0600E00017A6F420E7B6F7E
:1009E800A20E7C6F0D0E7D6F88C176F089C177F0FD
:1009F8008AC178F08BC179F0D1EC22F076C0A4F1ED
:100A080077C0A5F178C0A6F179C0A7F1A4C176F0A6
:100A1800A5C177F0A6C178F0A7C179F0600E0001F2
:100A28007A6F420E7B6FA20E7C6F0D0E7D6FD1EC3C
:100A380022F076C0D0F077C0D1F078C0D2F079C07B
:100A4800D3F010EF16F0CA0E00017A6FF20E7B6F2A
:100A5800490E7C6F710E7D6F88C176F089C177F081
:100A68008AC178F08BC179F0D1EC22F076C0A4F17C
:100A780077C0A5F178C0A6F179C0A7F1A4C176F036
:100A8800A5C177F0A6C178F0A7C179F0CA0E000118
:100A98007A6FF20E7B6F490E7C6F710E7D6FD1EC11
:100AA80022F076C0D0F077C0D1F078C0D2F079C00B
:100AB800D3F010EF16F0ABBF6FEF05F0080EA85D8E
:100AC800000EA959800EAA593F0EAB59D8A06FEF56
:100AD80005F071EF05F0F0EF05F07FBF80EF05F04E
:100AE8007F517E117D1106E17C05D8B07EEF05F0BF
:100AF80080EF05F0B8EF05F0600E00017A6F420E46
:100B08007B6FA20E7C6F0D0E7D6F88C176F089C158
:100B180077F08AC178F08BC179F0D1EC22F076C0F9
:100B2800A4F177C0A5F178C0A6F179C0A7F1A4C156
:100B380076F0A5C177F0A6C178F0A7C179F0600E6C
:100B480000017A6F420E7B6FA20E7C6F0D0E7D6FD7
:100B5800D1EC22F076C0D0F077C0D1F078C0D2F0D6
:100B680079C0D3F010EF16F0CA0E00017A6FF20EBA
:100B78007B6F490E7C6F710E7D6F88C176F089C1DD
:100B880077F08AC178F08BC179F0D1EC22F076C089
:100B9800A4F177C0A5F178C0A6F179C0A7F1A4C1E6
:100BA80076F0A5C177F0A6C178F0A7C179F0CA0E92
:100BB80000017A6FF20E7B6F490E7C6F710E7D6FAC
:100BC800D1EC22F076C0D0F077C0D1F078C0D2F066
:100BD80079C0D3F010EF16F070C166F071C167F0FC
:100BE80072C168F073C169F0000E00016A6F000EEF
:100BF8006B6F800E6C6FBF0E6D6F12EC1EF066C0CF
:100C0800B0F167C0B1F168C0B2F169C0B3F1000ECC
:100C180000017A6F000E7B6F800E7C6F3E0E7D6F39
:100C2800B0C176F0B1C177F0B2C178F0B3C179F054
:100C3800D1EC22F076C093F077C094F078C095F0AC
:100C480079C096F0AB0E00018F6FAA0E906FAA0EB6
:100C5800916F3E0E926FA9EC38F08FC0A4F190C04E
:100C6800A5F191C0A6F192C0A7F1B0C17AF0B1C1C7
:100C78007BF0B2C17CF0B3C17DF0B0C176F0B1C1F8
:100C880077F0B2C178F0B3C179F0D1EC22F076C038
:100C980054F177C055F178C056F179C057F1B0C119
:100CA8007AF0B1C17BF0B2C17CF0B3C17DF0A4C1D0
:100CB80076F0A5C177F0A6C178F0A7C179F0D1EC9C
:100CC80022F076C093F077C094F078C095F079C0A0
:100CD80096F0000E00018F6F000E906F000E916F5E
:100CE8003F0E926FA9EC38F08FC048F190C049F1DF
:100CF80091C04AF192C04BF154C176F055C177F0DA
:100D080056C178F057C179F048C17AF049C17BF0F3
:100D18004AC17CF04BC17DF0D1EC22F076C044F1A1
:100D280077C045F178C046F179C047F1B0C176F097
:100D3800B1C177F0B2C178F0B3C179F0000E00010B
:100D48007A6FAA0E7B6FB80E7C6F3F0E7D6FD1EC69
:100D580022F076C074F177C075F178C076F179C069
:100D680077F1700E00017A6FA50E7B6FEC0E7C6F29
:100D7800360E7D6FB0C176F0B1C177F0B2C178F0B0
:100D8800B3C179F0D1EC22F076C08FF077C090F043
:100D980078C091F079C092F03B0E00017A6FAA0EEC
:100DA8007B6FB80E7C6F3F0E7D6F44C176F045C1F6
:100DB80077F046C178F047C179F0D1EC22F076C0DF
:100DC80093F077C094F078C095F079C096F0A9ECCC
:100DD80038F08FC078F190C079F191C07AF192C063
:100DE8007BF174C166F075C167F076C168F077C1B0
:100DF80069F078C16AF079C16BF07AC16CF07BC197
:100E08006DF012EC1EF066C084F167C085F168C011
:100E180086F169C087F184C1B8F185C1B9F186C18D
:100E2800BAF187C1BBF1B8C194F1B9C195F1BAC1A2
:100E380096F1BBC197F1000E01019415B86FF00E41
:100E48009515B96FFF0E9615BA6FFF0E9715BB6F04
:100E5800B8C184F1B9C185F1BAC186F1BBC187F1C6
:100E680074C193F075C194F076C195F077C196F08E
:100E780084C18FF085C190F086C191F087C192F04E
:100E8800A9EC38F08FC098F190C099F191C09AF10F
:100E980092C09BF178C18FF079C190F07AC191F03E
:100EA8007BC192F098C193F099C194F09AC195F0E2
:100EB8009BC196F0A9EC38F08FC01CF190C01DF1D1
:100EC80091C01EF192C01FF1F5EF0EF0000E806F79
:100ED800000E816F000E826F000E836FABBF80EF34
:100EE80007F0AB5107E1800EAA5DD8B07EEF07F09E
:100EF80080EF07F0B4EF07F070C176F071C177F0BA
:100F080072C178F073C179F0000E00017A6F000E9B
:100F18007B6F800E7C6F4B0E7D6FD1EC22F076C01C
:100F280070F177C071F178C072F179C073F1E80E91
:100F380001018027FF0E8123FF0E8223FF0E8323EA
:100F480070C1B8F171C1B9F172C1BAF173C1BBF125
:100F5800B8C1A8F1B9C1A9F1BAC1AAF1BBC1ABF135
:100F6800170E0001D86FA8C1D9F0A9C1DAF0AAC13B
:100F7800DBF0ABC1DCF0D867C4EF07F0CCEF07F0CB
:100F8800DC35DC33DB33DA33D933D82FBFEF07F066
:100F9800810E0001D925DD6FFF0EDA21DE6FFF0E0D
:100FA800DB21DF6FFF0EDC21E06FDD5101018027BF
:100FB8000001DE51010181230001DF51010182237B
:100FC8000001E05101018323FF0EA815AC6FFF0E4D
:100FD800A915AD6F7F0EAA15AE6F000EAB15AF6FDA
:100FE800000EAC11A86F000EAD11A96F800EAE11E6
:100FF800AA6F3F0EAF11AB6FAFBF12EF08F0AF5142
:101008000BE1720EAC5DC40EAD591C0EAE59D8B0D2
:1010180010EF08F012EF08F01CEF08F0000EA06FB8
:10102800000EA16F000EA26F000EA36F4EEF08F026
:10103800AFBF2EEF08F0AF510BE1D70EAC5DB30E8A
:10104800AD595D0EAE59D8B02CEF08F02EEF08F070
:1010580038EF08F0010EA06F000EA16F000EA26F0E
:10106800000EA36F4EEF08F0000EA06F000EA16FE8
:10107800000EA26F000EA36F010E8027000E8123C1
:1010880082238323000EA827000EA923800EAA23FB
:10109800FF0EAB23A8C1B8F1A9C1B9F1AAC1BAF131
:1010A800ABC1BBF1B8C170F1B9C171F1BAC172F18C
:1010B800BBC173F170C18FF071C190F072C191F032
:1010C80073C192F0A0C1D8F0A1C1D9F00001D890A5
:1010D800D837D937D890D837D937190ED825F66EDA
:1010E800FF0ED921F76EF86A000EF8220900F5CF35
:1010F80093F00900F5CF94F00900F5CF95F00A00B8
:10110800F5CF96F0A9EC38F08FC074F190C075F166
:1011180091C076F192C077F1000E0001976F000E32
:10112800986F800E996F3F0E9A6F70C16AF071C107
:101138006BF072C16CF073C16DF0A0C1D8F0A1C1A1
:10114800D9F0D890D837D937D890D837D937190E99
:10115800D825F66EFF0ED921F76EF86A000EF82230
:101168000900F5CF66F00900F5CF67F00900F5CF63
:1011780068F00A00F5CF69F012EC1EF066C09BF02B
:1011880067C09CF068C09DF069C09EF0E7EC24F051
:1011980097C078F198C079F199C07AF19AC07BF13B
:1011A80074C176F075C177F076C178F077C179F0BF
:1011B80078C17AF079C17BF07AC17CF07BC17DF08F
:1011C800D1EC22F076C05CF177C05DF178C05EF1B9
:1011D80079C05FF15CC16CF15DC16DF15EC16EF10A
:1011E8005FC16FF16CC1B8F16DC1B9F16EC1BAF1EF
:1011F8006FC1BBF1B8C194F1B9C195F1BAC196F10B
:10120800BBC197F1000E01019415B86FF00E95154A
:10121800B96FFF0E9615BA6FFF0E9715BB6FB8C161
:101228006CF1B9C16DF1BAC16EF1BBC16FF1A8C162
:10123800D8F0A9C1D9F0AAC1DAF0ABC1DBF000013E
:10124800DB35DB33DA33D933D833000ED815DC6F0E
:10125800F00ED915DD6FFF0EDA15DE6FFF0EDB1508
:10126800DF6F000EDC110101946F000E0001DD112B
:101278000101956F000E0001DE110101966F200E2D
:101288000001DF110101976FA0C1D8F0A1C1D9F009
:10129800A2C1DAF0A3C1DBF0150ED8900001D8374F
:1012A800D937DA37DB37E82E51EF09F001019451CD
:1012B8000001D825DC6F010195510001D921DD6FAE
:1012C800010196510001DA21DE6F010197510001F9
:1012D800DB21DF6F000EDC250101B86F000E000175
:1012E800DD210101B96F400E0001DE210101BA6F55
:1012F800000E0001DF210101BB6FB8C168F1B9C15F
:1013080069F1BAC16AF1BBC16BF1A0C1D8F0A1C142
:10131800D9F00001D890D837D937D890D837D937ED
:10132800190ED825F66EFF0ED921F76EF86A000E51
:10133800F8220900F5CF93F00900F5CF94F00900E1
:10134800F5CF95F00A00F5CF96F068C18FF069C126
:1013580090F06AC191F06BC192F0A9EC38F08FC09F
:1013680098F190C099F191C09AF192C09BF170C127
:101378008FF071C190F072C191F073C192F098C171
:1013880093F099C194F09AC195F09BC196F0A9EC9D
:1013980038F08FC034F190C035F191C036F192C069
:1013A80037F168C17AF069C17BF06AC17CF06BC122
:1013B8007DF06CC176F06DC177F06EC178F06FC1C9
:1013C80079F0D1EC22F076C093F077C094F078C031
:1013D80095F079C096F074C18FF075C190F076C120
:1013E80091F077C192F0A9EC38F08FC098F190C0D5
:1013F80099F191C09AF192C09BF134C17AF035C14C
:101408007BF036C17CF037C17DF06CC176F06DC1E0
:1014180077F06EC178F06FC179F0D1EC22F076C028
:1014280093F077C094F078C095F079C096F098C1A1
:101438008FF099C190F09AC191F09BC192F0A9ECFC
:1014480038F08FC054F190C055F191C056F192C058
:1014580057F154C176F055C177F056C178F057C1AD
:1014680079F078C17AF079C17BF07AC17CF07BC1E0
:101478007DF0D1EC22F076C030F177C031F178C040
:1014880032F179C033F15CC176F05DC177F05EC1AD
:1014980078F05FC179F05CC17AF05DC17BF05EC124
:1014A8007CF05FC17DF0D1EC22F076C08CF177C082
:1014B8008DF178C08EF179C08FF1550E00016A6FF9
:1014C800320E6B6F6C0E6C6F3E0E6D6F420E7A6F44
:1014D800F10E7B6F530E7C6F3E0E7D6F8CC176F0E4
:1014E8008DC177F08EC178F08FC179F0D1EC22F000
:1014F80076C066F077C067F078C068F079C069F0A8
:1015080012EC1EF066C0A4F167C0A5F168C0A6F190
:1015180069C0A7F1050E00016A6FA30E6B6F8B0EF1
:101528006C6F3E0E6D6F8CC17AF08DC17BF08EC1F1
:101538007CF08FC17DF0A4C176F0A5C177F0A6C17B
:1015480078F0A7C179F0D1EC22F076C066F077C0C8
:1015580067F078C068F079C069F012EC1EF066C0D8
:1015680054F167C055F168C056F169C057F1AB0E28
:1015780000016A6FAA0E6B6FAA0E6C6F3E0E6D6F3C
:101588008CC17AF08DC17BF08EC17CF08FC17DF06B
:1015980054C176F055C177F056C178F057C179F04B
:1015A800D1EC22F076C066F077C067F078C068F0BA
:1015B80079C069F012EC1EF066C048F167C049F1C5
:1015C80068C04AF169C04BF1B70E00016A6F6D0E31
:1015D8006B6FDB0E6C6F3E0E6D6F8CC17AF08DC138
:1015E8007BF08EC17CF08FC17DF048C176F049C197
:1015F80077F04AC178F04BC179F0D1EC22F076C08F
:1016080066F077C067F078C068F079C069F012ECCE
:101618001EF066C038F167C039F168C03AF169C098
:101628003BF19A0E00016A6F990E6B6F190E6C6F81
:101638003F0E6D6F8CC17AF08DC17BF08EC17CF04E
:101648008FC17DF038C176F039C177F03AC178F0B2
:101658003BC179F0D1EC22F076C066F077C067F034
:1016680078C068F079C069F012EC1EF066C000F12D
:1016780067C001F168C002F169C003F18CC17AF05A
:101688008DC17BF08EC17CF08FC17DF08CC176F06E
:101698008DC177F08EC178F08FC179F0D1EC22F04E
:1016A80076C004F177C005F178C006F179C007F17A
:1016B80000C176F001C177F002C178F003C179F07A
:1016C80004C17AF005C17BF006C17CF007C17DF04A
:1016D800D1EC22F076C04CF177C04DF178C04EF1D4
:1016E80079C04FF130C17AF031C17BF032C17CF062
:1016F80033C17DF05CC16AF05DC16BF05EC16CF016
:101708005FC16DF06CC166F06DC167F06EC168F0C5
:101718006FC169F012EC1EF066C076F067C077F012
:1017280068C078F069C079F0D1EC22F076C058F141
:1017380077C059F178C05AF179C05BF14CC166F0B5
:101748004DC167F04EC168F04FC169F058C16AF0E9
:1017580059C16BF05AC16CF05BC16DF012EC1EF010
:1017680066C04CF167C04DF168C04EF169C04FF1D9
:101778006CC176F06DC177F06EC178F06FC179F009
:101788006CC17AF06DC17BF06EC17CF06FC17DF0E9
:10179800D1EC22F076C08CF177C08DF178C08EF153
:1017A80079C08FF1000E00016A6F000E6B6F400E5A
:1017B8006C6F400E6D6F8CC166F08DC167F08EC185
:1017C80068F08FC169F012EC1EF066C058F167C06E
:1017D80059F168C05AF169C05BF158C166F059C146
:1017E80067F05AC168F05BC169F04CC16AF04DC13D
:1017F8006BF04EC16CF04FC16DF012EC1EF066C07C
:1018080068F167C069F168C06AF169C06BF168C1C5
:10181800B8F169C1B9F16AC1BAF16BC1BBF1B8C11C
:1018280094F1B9C195F1BAC196F1BBC197F1000E17
:1018380001019415B86FF00E9515B96FFF0E961546
:10184800BA6FFF0E9715BB6FB8C168F1B9C169F1DE
:10185800BAC16AF1BBC16BF1000E00016A6F000EDC
:101868006B6F400E6C6FC00E6D6F68C166F069C11A
:1018780067F06AC168F06BC169F012EC1EF066C0CF
:101888003CF167C03DF168C03EF169C03FF18CC1D1
:1018980093F08DC194F08EC195F08FC196F03CC144
:1018A8008FF03DC190F03EC191F03FC192F0A9EC9C
:1018B80038F08FC040F190C041F191C042F192C020
:1018C80043F14CC18FF04DC190F04EC191F04FC122
:1018D80092F040C193F041C194F042C195F043C1E8
:1018E80096F0A9EC38F08FC034F190C035F191C072
:1018F80036F192C037F16CC176F06DC177F06EC1E8
:1019080078F06FC179F068C17AF069C17BF06AC17B
:101918007CF06BC17DF0D1EC22F076C074F177C019
:1019280075F178C076F179C077F168C17AF069C14C
:101938007BF06AC17CF06BC17DF030C176F031C1BB
:1019480077F032C178F033C179F0D1EC22F076C06B
:1019580066F077C067F078C068F079C069F05CC15C
:101968007AF05DC17BF05EC17CF05FC17DF034C16F
:1019780076F035C177F036C178F037C179F0D1EC1F
:1019880022F076C06AF077C06BF078C06CF079C04E
:101998006DF012EC1EF066C078F167C079F168C08E
:1019A8007AF169C07BF174C166F075C167F076C1E0
:1019B80068F077C169F078C16AF079C16BF07AC1D3
:1019C8006CF07BC16DF012EC1EF066C09CF167C034
:1019D8009DF168C09EF169C09FF19CC1B8F19DC19D
:1019E800B9F19EC1BAF19FC1BBF1B8C194F1B9C1B7
:1019F80095F1BAC196F1BBC197F1000E010194159A
:101A0800B86FF00E9515B96FFF0E9615BA6FFF0EE9
:101A18009715BB6FB8C19CF1B9C19DF1BAC19EF1D0
:101A2800BBC19FF174C193F075C194F076C195F074
:101A380077C196F09CC18FF09DC190F09EC191F046
:101A48009FC192F0A9EC38F08FC098F190C099F13D
:101A580091C09AF192C09BF178C18FF079C190F052
:101A68007AC191F07BC192F098C193F099C194F03A
:101A78009AC195F09BC196F0A9EC38F08FC064F13B
:101A880090C065F191C066F192C067F19CC176F093
:101A98009DC177F09EC178F09FC179F0000E0001DA
:101AA8007A6F400E7B6F760E7C6F3F0E7D6FD1ECA8
:101AB80022F076C020F177C021F178C022F179C0F8
:101AC80023F14F0E00017A6F380E7B6F760E7C6F14
:101AD8003F0E7D6F64C176F065C177F066C178F01E
:101AE80067C179F0D1EC22F076C06AF077C06BF06C
:101AF80078C06CF079C06DF0C60E00017A6F230EC5
:101B08007B6FF60E7C6FB80E7D6F9CC176F09DC121
:101B180077F09EC178F09FC179F0D1EC22F076C0C1
:101B280066F077C067F078C068F079C069F012ECA9
:101B38001EF066C058F167C059F168C05AF169C013
:101B48005BF158C166F059C167F05AC168F05BC1D2
:101B580069F0A0C1D8F0A1C1D9F00001D890D83758
:101B6800D937D890D837D937B10ED825F66EFE0EAA
:101B7800D921F76EF86A000EF8220900F5CF6AF04D
:101B88000900F5CF6BF00900F5CF6CF00A00F5CF2E
:101B98006DF012EC1EF066C024F167C025F168C034
:101BA80026F169C027F180C121F081C122F082C1EC
:101BB80023F083C124F0010E78EC2CF021C0B0F1A1
:101BC80022C0B1F123C0B2F124C0B3F124C16AF03C
:101BD80025C16BF026C16CF027C16DF020C166F0FD
:101BE80021C167F022C168F023C169F012EC1EF030
:101BF80066C058F167C059F168C05AF169C05BF115
:101C0800A0C1D8F0A1C1D9F00001D890D837D937F0
:101C1800D890D837D937B90ED825F66EFE0ED92107
:101C2800F76EF86A000EF8220900F5CF6AF009008D
:101C3800F5CF6BF00900F5CF6CF00A00F5CF6DF029
:101C480058C166F059C167F05AC168F05BC169F0C4
:101C580012EC1EF066C008F167C009F168C00AF10D
:101C680069C00BF108C166F009C167F00AC168F0E4
:101C78000BC169F0B0C16AF0B1C16BF0B2C16CF0D0
:101C8800B3C16DF012EC1EF066C084F167C085F137
:101C980068C086F169C087F184C1B8F185C1B9F11E
:101CA80086C1BAF187C1BBF1B8C194F1B9C195F148
:101CB800BAC196F1BBC197F1000E01019415B86F36
:101CC800F00E9515B96FFF0E9615BA6FFF0E9715A2
:101CD800BB6FB8C184F1B9C185F1BAC186F1BBC186
:101CE80087F1B0C193F0B1C194F0B2C195F0B3C11E
:101CF80096F084C18FF085C190F086C191F087C1BC
:101D080092F0A9EC38F08FC098F190C099F191C089
:101D18009AF192C09BF1A0C1D8F0A1C1D9F00001FD
:101D2800D890D837D937D890D837D937B90ED825D9
:101D3800F66EFE0ED921F76EF86A000EF822090039
:101D4800F5CF93F00900F5CF94F00900F5CF95F0A1
:101D58000A00F5CF96F098C18FF099C190F09AC11A
:101D680091F09BC192F0A9EC38F08FC040F190C07F
:101D780041F191C042F192C043F120C193F021C1D9
:101D880094F022C195F023C196F040C18FF041C173
:101D980090F042C191F043C192F0A9EC38F08FC0A5
:101DA8000CF190C00DF191C00EF192C00FF124C159
:101DB8008FF025C190F026C191F027C192F00CC197
:101DC80093F00DC194F00EC195F00FC196F0A9ECF7
:101DD80038F08FC01CF190C01DF191C01EF192C067
:101DE8001FF1D4C0B8F1D5C0B9F1D6C0BAF1D7C087
:101DF800BBF1B8C194F1B9C195F1BAC196F1BBC1B3
:101E080097F1000E01019415B86FF00E9515B96F92
:101E1800FF0E9615BA6FFF0E9715BB6FB8C128F164
:101E2800B9C129F1BAC12AF1BBC12BF184C17AF039
:101E380085C17BF086C17CF087C17DF028C193F015
:101E480029C194F02AC195F02BC196F0D4C08FF027
:101E5800D5C090F0D6C091F0D7C092F0A9EC38F078
:101E68008FC076F090C077F091C078F092C079F08A
:101E7800D1EC22F076C010F177C011F178C012F1E0
:101E880079C013F110C166F011C167F012C168F092
:101E980013C169F01CC17AF01DC17BF01EC17CF032
:101EA8001FC17DF0D4C076F0D5C077F0D6C078F0E9
:101EB800D7C079F0D1EC22F076C06AF077C06BF029
:101EC80078C06CF079C06DF012EC1EF066C064F159
:101ED80067C065F168C066F169C067F128C176F02E
:101EE80029C177F02AC178F02BC179F084C17AF042
:101EF80085C17BF086C17CF087C17DF0D1EC22F0F2
:101F080076C09CF177C09DF178C09EF179C09FF1B1
:101F180064C166F065C167F066C168F067C169F0C1
:101F28009CC16AF09DC16BF09EC16CF09FC16DF0C1
:101F380012EC1EF066C0B4F167C0B5F168C0B6F126
:101F480069C0B7F1B4C1B8F1B5C1B9F1B6C1BAF158
:101F5800B7C1BBF1B8C1ACF1B9C1ADF1BAC1AEF10D
:101F6800BBC1AFF10101AFBFC6EF0FF0AC05000E6A
:101F7800AD59000EAE59430EAF59D8A0C6EF0FF0B9
:101F8800C8EF0FF000EF10F0CA0E00017A6FF20EE2
:101F98007B6F490E7C6F710E7D6F88C176F089C1A9
:101FA80077F08AC178F08BC179F0D1EC22F076C055
:101FB800A4F177C0A5F178C0A6F179C0A7F1A4C1B2
:101FC80076F0A5C177F0A6C178F0A7C179F0CA0E5E
:101FD80000017A6FF20E7B6F490E7C6F710E7D6F78
:101FE800D1EC22F076C0D0F077C0D1F078C0D2F032
:101FF80079C0D3F010EF16F0430EAF19AC11AD1144
:10200800AE11D8A40AEF10F00CEF10F082EF10F028
:102018009CC193F09DC194F09EC195F09FC196F02C
:10202800B4C18FF0B5C190F0B6C191F0B7C192F0CC
:10203800A9EC38F08FC097F090C098F091C099F053
:1020480092C09AF03C0E00016A6FAA0E6B6F380EB0
:102058006C6F330E6D6F64C166F065C167F066C161
:1020680068F067C169F012EC1EF066C09BF067C0AB
:102078009CF068C09DF069C09EF0B8EC30F000019B
:10208800D8B049EF10F04BEF10F04FEF11F0CA0E37
:102098007A6FF20E7B6F490E7C6F710E7D6F88C16F
:1020A80076F089C177F08AC178F08BC179F0D1ECEC
:1020B80022F076C0A4F177C0A5F178C0A6F179C066
:1020C800A7F1A4C176F0A5C177F0A6C178F0A7C1A1
:1020D80079F0CA0E00017A6FF20E7B6F490E7C6FA1
:1020E800710E7D6FD1EC22F076C0D0F077C0D1F0C0
:1020F80078C0D2F079C0D3F010EF16F0FF0EAC150F
:102108000001D86FFF0E0101AD150001D96FFF0E58
:102118000101AE150001DA6F7F0E0101AF15000154
:10212800DB6FDBBFA4EF10F0D805000ED959160EEF
:10213800DA59430EDB59D8A0A4EF10F0A6EF10F03F
:10214800DDEF10F0600E7A6F420E7B6FA20E7C6F8F
:102158000D0E7D6F88C176F089C177F08AC178F05D
:102168008BC179F0D1EC22F076C0A4F177C0A5F14B
:1021780078C0A6F179C0A7F1A4C176F0A5C177F01F
:10218800A6C178F0A7C179F0600E00017A6F420EFF
:102198007B6FA20E7C6F0D0E7D6FD1EC22F076C0A6
:1021A800D0F077C0D1F078C0D2F079C0D3F010EF7A
:1021B80016F0160E0101AE1909E1C30EAF19AC11E4
:1021C800AD11D8A4EAEF10F0ECEF10F04FEF11F0DA
:1021D8009CC193F09DC194F09EC195F09FC196F06B
:1021E800B4C18FF0B5C190F0B6C191F0B7C192F00B
:1021F800A9EC38F08FC097F090C098F091C099F092
:1022080092C09AF064C19BF065C19CF066C19DF0D4
:1022180067C19EF0B8EC30F00001D8A016EF11F0BD
:1022280018EF11F04FEF11F0600E7A6F420E7B6FCE
:10223800A20E7C6F0D0E7D6F88C176F089C177F094
:102248008AC178F08BC179F0D1EC22F076C0A4F184
:1022580077C0A5F178C0A6F179C0A7F1A4C176F03E
:10226800A5C177F0A6C178F0A7C179F0600E00018A
:102278007A6F420E7B6FA20E7C6F0D0E7D6FD1ECD4
:1022880022F076C0D0F077C0D1F078C0D2F079C013
:10229800D3F010EF16F0FF0E0101AC152C6FFF0EF6
:1022A800AD152D6FFF0EAE152E6F7F0EAF152F6F6C
:1022B800170E0001D86F2CC1D9F02DC1DAF02EC14C
:1022C800DBF02FC1DCF0D8676CEF11F074EF11F080
:1022D800DC35DC33DB33DA33D933D82F67EF11F051
:1022E800810E0001D9250101A06FFF0E0001DA213E
:1022F8000101A16FFF0E0001DB210101A26FFF0E9A
:102308000001DC210101A36F000E806F000E816FB8
:10231800000E826F000E836F2FBF9FEF11F02C0508
:10232800000E2D59000E2E593F0E2F59D8A09FEFA1
:1023380011F0A1EF11F0A5EF12F0A0C1D8F0010E35
:102348000001D827000ED96F000EDA6F800EDB6F00
:10235800000EDC6FD867B3EF11F0BBEF11F0DC357E
:10236800DC33DB33DA33D933D82FAEEF11F0010188
:10237800AC510001D9250101806FAD510001DA216E
:102388000101816FAE510001DB210101826FAF5164
:102398000001DC210101836F810E0001D86FFF0E5F
:1023A800D96FFF0EDA6FFF0EDB6F170EDC6F80C17F
:1023B800DDF081C1DEF082C1DFF083C1E0F0DC67CF
:1023C800E8EF11F0F0EF11F0E035E033DF33DE3302
:1023D800DD33DC2FE3EF11F00001DD51D8250101D9
:1023E800A06F000E0001D9210101A16F000E0001AC
:1023F800DA210101A26F000E0001DB210101A36FA8
:10240800A0C1D8F0FF0E0001D96FFF0EDA6F7F0E62
:10241800DB6F000EDC6FD86714EF12F01CEF12F0C0
:10242800DC35DC33DB33DA33D933D82F0FEF12F056
:102438000001D91DDD6FDA1DDE6FDB1DDF6FDC1DCE
:10244800E06F010180510001DD150101B86F815174
:102458000001DE150101B96F82510001DF1501018C
:10246800BA6F83510001E0150101BB6FB8C1B0F12B
:10247800B9C1B1F1BAC1B2F1BBC1B3F1A0511708EA
:102488000001D86FFF0E010180150001D96FFF0E02
:10249800010181150001DA6F7F0E0101821500012B
:1024A800DB6F000E010183150001DC6F000ED911EE
:1024B800DD6F000EDA11DE6F800EDB11DF6F000EAC
:1024C800DC11E06FD8676BEF12F073EF12F0E035B4
:1024D800E033DF33DE33DD33D82F66EF12F0DDC0B3
:1024E80080F1DEC081F1DFC082F1E0C083F101013B
:1024F800AFBF83EF12F081EF12F08BEF12F0831F62
:10250800821F811F806D000E8123822383239CC13B
:102518008FF09DC190F09EC191F09FC192F0B0C123
:1025280093F0B1C194F0B2C195F0B3C196F0A9ECA3
:1025380038F08FC09CF190C09DF191C09EF192C07F
:102548009FF164C166F065C167F066C168F067C154
:1025580069F09CC16AF09DC16BF09EC16CF09FC18F
:102568006DF012EC1EF066C0B0F167C0B1F168C042
:10257800B2F169C0B3F1B0C1B8F1B1C1B9F1B2C13A
:10258800BAF1B3C1BBF1B8C194F1B9C195F1BAC1FF
:1025980096F1BBC197F1000E01019415B86F800E3A
:1025A8009515B96FFF0E9615BA6FFF0E9715BB6F8D
:1025B800B8C1B0F1B9C1B1F1BAC1B2F1BBC1B3F19F
:1025C800B0C176F0B1C177F0B2C178F0B3C179F09B
:1025D800000E00017A6F720E7B6F310E7C6F3F0E1A
:1025E8007D6FD1EC22F076C074F177C075F178C0B8
:1025F80076F179C077F19CC193F09DC194F09EC1AA
:1026080095F09FC196F0B0C18FF0B1C190F0B2C102
:1026180091F0B3C192F0A9EC38F08FC098F190C056
:1026280099F191C09AF192C09BF1180E00017A6F4E
:10263800720E7B6F310E7C6F3F0E7D6F98C193F0E9
:1026480099C194F09AC195F09BC196F064C18FF03E
:1026580065C190F066C191F067C192F0A9EC38F0BD
:102668008FC076F090C077F091C078F092C079F082
:10267800D1EC22F076C014F177C015F178C016F1CC
:1026880079C017F114C166F015C167F016C168F07A
:1026980017C169F08C0E00017A6FBE0E7B6FBF0EFA
:1026A8007C6F350E7D6FB0C176F0B1C177F0B2C1E5
:1026B80078F0B3C179F0D1EC22F076C06AF077C037
:1026C8006BF078C06CF079C06DF012EC1EF066C04B
:1026D80078F167C079F168C07AF169C07BF174C19B
:1026E80066F075C167F076C168F077C169F078C1A6
:1026F8006AF079C16BF07AC16CF07BC16DF012ECB5
:102708001EF066C0B4F167C0B5F168C0B6F169C023
:10271800B7F174C193F075C194F076C195F077C1A3
:1027280096F0B4C18FF0B5C190F0B6C191F0B7C1C1
:1027380092F0A9EC38F08FC098F190C099F191C04F
:102748009AF192C09BF178C18FF079C190F07AC16B
:1027580091F07BC192F098C193F099C194F09AC11D
:1027680095F09BC196F0A9EC38F08FC044F190C069
:1027780045F191C046F192C047F1B4C176F0B5C1B8
:1027880077F0B6C178F0B7C179F0B4C17AF0B5C1C5
:102798007BF0B6C17CF0B7C17DF0D1EC22F076C0F9
:1027A800B0F177C0B1F178C0B2F179C0B3F10E0ED3
:1027B80000016A6FEA0E6B6FDD0E6C6FB50E6D6F00
:1027C8004C0E7A6FBB0E7B6F310E7C6F330E7D6FB4
:1027D800B0C176F0B1C177F0B2C178F0B3C179F089
:1027E800D1EC22F076C066F077C067F078C068F068
:1027F80079C069F012EC1EF066C0A4F167C0A5F1BB
:1028080068C0A6F169C0A7F1550E00016A6FB30E42
:102818006B6F8A0E6C6F380E6D6FB0C17AF0B1C1F4
:102828007BF0B2C17CF0B3C17DF0A4C176F0A5C144
:1028380077F0A6C178F0A7C179F0D1EC22F076C084
:1028480066F077C067F078C068F079C069F012EC7C
:102858001EF066C054F167C055F168C056F169C0F2
:1028680057F1610E00016A6F0B0E6B6F360E6C6FBD
:10287800BB0E6D6FB0C17AF0B1C17BF0B2C17CF014
:10288800B3C17DF054C176F055C177F056C178F0E8
:1028980057C179F0D1EC22F076C066F077C067F0C6
:1028A80078C068F079C069F012EC1EF066C048F193
:1028B80067C049F168C04AF169C04BF1AB0E00012D
:1028C8006A6FAA0E6B6F2A0E6C6F3E0E6D6FB0C1E9
:1028D8007AF0B1C17BF0B2C17CF0B3C17DF048C1E0
:1028E80076F049C177F04AC178F04BC179F0D1EC64
:1028F80022F076C066F077C067F078C068F079C0DB
:1029080069F012EC1EF066C038F167C039F168C092
:102918003AF169C03BF1B4C18FF0B5C190F0B6C1CE
:1029280091F0B7C192F0B0C17AF0B1C17BF0B2C1F9
:102938007CF0B3C17DF038C176F039C177F03AC187
:1029480078F03BC179F0D1EC22F076C093F077C0F3
:1029580094F078C095F079C096F0A9EC38F08FC063
:1029680084F190C085F191C086F192C087F1000E84
:1029780000016A6F000E6B6F000E6C6FC00E6D6FFA
:1029880084C166F085C167F086C168F087C169F0C7
:1029980012EC1EF066C09BF067C09CF068C09DF00A
:1029A80069C09EF084C17AF085C17BF086C17CF055
:1029B80087C17DF0B4C176F0B5C177F0B6C178F0C3
:1029C800B7C179F0D1EC22F076C097F077C098F0D3
:1029D80078C099F079C09AF0E7EC24F097C03CF100
:1029E80098C03DF199C03EF19AC03FF144C16AF0E8
:1029F80045C16BF046C16CF047C16DF044C17AF037
:102A080045C17BF046C17CF047C17DF0B4C176F08A
:102A1800B5C177F0B6C178F0B7C179F0D1EC22F042
:102A280076C066F077C067F078C068F079C069F062
:102A380012EC1EF066C018F167C019F168C01AF1EF
:102A480069C01BF13CC18FF03DC190F03EC191F0CF
:102A58003FC192F018C193F019C194F01AC195F0D2
:102A68001BC196F0A9EC38F08FC04CF190C04DF125
:102A780091C04EF192C04FF1B4C193F0B5C194F03A
:102A8800B6C195F0B7C196F04CC18FF04DC190F02A
:102A98004EC191F04FC192F0A9EC38F08FC098F177
:102AA80090C099F191C09AF192C09BF1000E00017B
:102AB8008F6F000E906F800E916F3F0E926F98C1CE
:102AC80093F099C194F09AC195F09BC196F0A9EC46
:102AD80038F08FC0B4F190C0B5F191C0B6F192C092
:102AE800B7F1B4C1B8F1B5C1B9F1B6C1BAF1B7C15E
:102AF800BBF1B8C1ACF1B9C1ADF1BAC1AEF1BBC15E
:102B0800AFF180C1D8F081C1D9F082C1DAF083C1B8
:102B1800DBF0170ED8900001D837D937DA37DB3712
:102B2800E82E8EEF15F0D8510101AC270001D951DC
:102B38000101AD230001DA510101AE230001DB518F
:102B48000101AF23170E0001D86FACC1D9F0ADC198
:102B5800DAF0AEC1DBF0AFC1DCF0D867B6EF15F044
:102B6800BEEF15F0DC35DC33DB33DA33D933D82F5D
:102B7800B1EF15F00001DCBFCEEF15F0DC51DB1131
:102B8800DA1106E1D905D8B0CCEF15F0CEEF15F083
:102B9800E6EF15F0B4C18FF0B5C190F0B6C191F071
:102BA800B7C192F080C193F081C194F06AEC29F02A
:102BB8008FC0B4F190C0B5F191C0B6F192C0B7F131
:102BC800F6EF15F0ACC1B8F1ADC1B9F1AEC1BAF1CB
:102BD800AFC1BBF1B8C1B4F1B9C1B5F1BAC1B6F171
:102BE800BBC1B7F188C176F089C177F08AC178F0A6
:102BF8008BC179F0B4C17AF0B5C17BF0B6C17CF075
:102C0800B7C17DF0D1EC22F076C0D0F077C0D1F01A
:102C180078C0D2F079C0D3F01200000E0001EE6F38
:102C2800C6C0EFF0C7C0F0F0C8C0F1F0C9C0F2F0FC
:102C3800F2BF23EF16F021EF16F037EF16F0010E72
:102C4800EE6FEFC01AF0F0C01BF0F1C01CF0F2C03C
:102C58001DF018EC3AF01AC0EFF01BC0F0F01CC0E1
:102C6800F1F01DC0F2F0000E0001F46F000EF36FDA
:102C780034C0DEF035C0DFF0EE51D8B446EF16F0C0
:102C880048EF16F05CEF16F0EE51D8A44EEF16F0B0
:102C980050EF16F056EF16F0000ED46F2B0ED36FD0
:102CA8005AEF16F0000ED46F2D0ED36FD3C0EEF08E
:102CB800EFC01AF0F0C01BF0F1C01CF0F2C01DF01C
:102CC8003BEC31F01A041B10D8A46DEF16F06FEF2F
:102CD80016F0A2EF16F00001EE51D8B476EF16F018
:102CE80078EF16F081EF16F0EEC018F2DE07D8A0E4
:102CF800DF07000EF46F010EF36F180EF3251A6E3E
:102D0800020EF4211B6EF60E1C6EFF0E1D6E33ECC8
:102D180039F00001FD0EDE27FF0EDF23C4C060F08E
:102D2800C5C061F0180E626F020E636FDEC064F0FA
:102D3800DFC065F05BEC33F025EF1BF0EFC01AF055
:102D4800F0C01BF0F1C01CF0F2C01DF03BEC31F0FC
:102D58001A501B10D8A4B3EF16F0B5EF16F0E8EF31
:102D680016F00001EE51D8B4BCEF16F0BEEF16F025
:102D7800C7EF16F0EEC018F2DE07D8A0DF07000E86
:102D8800F46F010EF36F180EF3251A6E020EF4217C
:102D98001B6EFA0E1C6EFF0E1D6E33EC39F000012F
:102DA800FD0EDE27FF0EDF23C4C060F0C5C061F052
:102DB800180E626F020E636FDEC064F0DFC065F04C
:102DC8005BEC33F025EF1BF0000E0001F56F000EF1
:102DD800F66F800EF76F3F0EF86F000EDD6F000E76
:102DE800DC6FEFC01AF0F0C01BF0F1C01CF0F2C0AD
:102DF8001DF0000E1E6E000E1F6E000E206E000EDF
:102E0800216EB2EC33F0D8B00CEF17F00EEF17F0DC
:102E1800EFEF17F01BEF17F0E0C0F5F0E1C0F6F0A8
:102E2800E2C0F7F0E3C0F8F00001DC4BDD2BF5C0A1
:102E380076F0F6C077F0F7C078F0F8C079F0000EB9
:102E480000017A6F000E7B6F200E7C6F410E7D6F44
:102E5800D1EC22F076C0E0F077C0E1F078C0E2F083
:102E680079C0E3F00001E051EF5D1A6EE151F059CD
:102E78001B6EE251F1591C6EE351F2591D6E4DEC77
:102E880037F01DBE53EF17F01D501C101B1009E141
:102E9800020E1A5CD8A053EF17F055EF17F010EF99
:102EA80017F0E0C097F0E1C098F0E2C099F0E3C0F5
:102EB8009AF0EFC09BF0F0C09CF0F1C09DF0F2C01A
:102EC8009EF0B8EC30F00001D8A06DEF17F06FEF6E
:102ED80017F010EF17F0F551EF5D1A6EF651F05933
:102EE8001B6EF751F1591C6EF851F2591D6E4DECDD
:102EF80037F01DBE8DEF17F01D501C101B1007E199
:102F0800020E1A5CD8B08BEF17F08DEF17F0D5EFE3
:102F180017F0F5C0EFF0F6C0F0F0F7C0F1F0F8C028
:102F2800F2F0EFEF17F0F5C097F0F6C098F0F7C0A1
:102F380099F0F8C09AF0000E9B6F000E9C6F200E5F
:102F48009D6F410E9E6FE7EC24F097C0F5F098C096
:102F5800F6F099C0F7F09AC0F8F00001DC07D8A0A5
:102F6800DD07F551EF5D1A6EF651F0591B6EF751FA
:102F7800F1591C6EF851F2591D6E4DEC37F01DBE1B
:102F8800D3EF17F01D501C101B1007E1020E1A5C3E
:102F9800D8B0D1EF17F0D3EF17F0D5EF17F08DEFCA
:102FA80017F0EFC097F0F0C098F0F1C099F0F2C0B8
:102FB8009AF0F5C09BF0F6C09CF0F7C09DF0F8C001
:102FC8009EF0B8EC30F00001D8A0EDEF17F0EFEF6D
:102FD80017F097EF17F0CAC0D6F0D6C0D7F037BEB3
:102FE800F8EF17F0FAEF17F000EF18F036C0CFF04F
:102FF80037C0D0F005EF18F0000E0001D06F060EB4
:10300800CF6FCFC0DAF0D0C0DBF00001DA4BDB2B9A
:10301800660ED719D8A413EF18F015EF18F035EF8E
:1030280018F0DDBF1CEF18F01AEF18F028EF18F0B1
:10303800000EF56F000EF66F800EF76F3F0EF86FFB
:10304800000EDD6F000EDC6F670ED619D8B42FEFB7
:1030580018F031EF18F035EF18F0DC51DA27DD51B0
:10306800DB23000EE56F000EE46FEFC0E6F0F0C062
:10307800E7F0F1C0E8F0F2C0E9F0F5C0E0F0F6C022
:10308800E1F0F7C0E2F0F8C0E3F0C7EF18F0E6C0EF
:1030980097F0E7C098F0E8C099F0E9C09AF0F5C059
:1030A8009BF0F6C09CF0F7C09DF0F8C09EF0E7ECEE
:1030B80024F097C0B0F098C0B1F099C0B2F09AC0AF
:1030C800B3F089EC2AF0B0C0EAF0B1C0EBF0B2C0BE
:1030D800ECF0B3C0EDF0EAC01AF0EBC01BF0ECC0A6
:1030E8001CF0EDC01DF035EC30F01AC0D8F01BC054
:1030F800D9F0E6C08FF0E7C090F0E8C091F0E9C0E1
:1031080092F0EAC07AF0EBC07BF0ECC07CF0EDC046
:103118007DF0F5C076F0F6C077F0F7C078F0F8C02B
:1031280079F0D1EC22F076C093F077C094F078C0B3
:1031380095F079C096F0A9EC38F08FC0E6F090C011
:10314800E7F091C0E8F092C0E9F0F5C097F0F6C05A
:1031580098F0F7C099F0F8C09AF0000E00019B6F44
:10316800000E9C6F200E9D6F410E9E6FE7EC24F0C1
:1031780097C0F5F098C0F6F099C0F7F09AC0F8F04B
:103188000001E44BE52BDA51E45DE551800ACB6F91
:10319800DB51800ACB59D8A0D4EF18F0D6EF18F03D
:1031A8004BEF18F0F5C076F0F6C077F0F7C078F07E
:1031B800F8C079F0000E7A6F000E7B6FA00E7C6F5E
:1031C800400E7D6FD1EC22F076C0EAF077C0EBF0CC
:1031D80078C0ECF079C0EDF0E6C097F0E7C098F061
:1031E800E8C099F0E9C09AF0EAC09BF0EBC09CF007
:1031F800ECC09DF0EDC09EF0B8EC30F00001D8B006
:1032080008EF19F00AEF19F014EF19F0000EEA6F41
:10321800000EEB6F000EEC6F000EED6F3DEF19F036
:10322800E6C01AF0E7C01BF0E8C01CF0E9C01DF0CA
:10323800EAC01EF0EBC01FF0ECC020F0EDC021F09A
:10324800B2EC33F0D8A02BEF19F02DEF19F03DEFC9
:1032580019F00001D8B133EF19F035EF19F03DEF4F
:1032680019F0000EEA6F000EEB6F000EEC6F000E07
:10327800ED6FEFC066F0F0C067F0F1C068F0F2C023
:1032880069F0EAC06AF0EBC06BF0ECC06CF0EDC01E
:103298006DF012EC1EF066C0E6F067C0E7F068C09B
:1032A800E8F069C0E9F0E6C097F0E7C098F0E8C038
:1032B80099F0E9C09AF0000E00017A6F000E7B6F5A
:1032C800200E7C6F410E7D6FE0C076F0E1C077F094
:1032D800E2C078F0E3C079F0D1EC22F076C09BF040
:1032E80077C09CF078C09DF079C09EF0B8EC30F0C3
:1032F8000001D8A082EF19F084EF19F0ACEF19F0B3
:10330800DC4BDD2BE0C076F0E1C077F0E2C078F06E
:10331800E3C079F0000E7A6F000E7B6F200E7C6F91
:10332800410E7D6FD1EC22F076C0E0F077C0E1F07D
:1033380078C0E2F079C0E3F0660E0001D719D8A48E
:10334800A8EF19F0AAEF19F0ACEF19F0DA4BDB2B64
:10335800E0C0F5F0E1C0F6F0E2C0F7F0E3C0F8F045
:10336800DCC0CDF0DDC0CEF0000ED56F000ED26F00
:10337800000ED16F000EE56F000EE46FAAEF1AF091
:10338800E6C097F0E7C098F0E8C099F0E9C09AF075
:10339800F5C09BF0F6C09CF0F7C09DF0F8C09EF019
:1033A800E7EC24F097C0B0F098C0B1F099C0B2F043
:1033B8009AC0B3F089EC2AF0B0C0EAF0B1C0EBF0E3
:1033C800B2C0ECF0B3C0EDF0EAC01AF0EBC01BF0ED
:1033D800ECC01CF0EDC01DF035EC30F01BBE00EF6A
:1033E8001AF01B5007E10A0E1A5CD8B0FEEF19F06C
:1033F80000EF1AF010EF1AF0EAC01AF0EBC01BF059
:10340800ECC01CF0EDC01DF035EC30F01AC0D8F05F
:103418001BC0D9F015EF1AF0000E0001D96F090E84
:10342800D86F0001D551D8A41CEF1AF01EEF1AF07E
:1034380046EF1AF0CEBF25EF1AF023EF1AF046EF49
:103448001AF0180EF325D96E020EF421DA6E2E0E3C
:10345800DF6EF34BF42BDE07D8A0DF07010ED56F24
:1034680046EF1AF0180EF325D96E020EF421DA6E23
:10347800300EDF6EF34BF42BDE07D8A0DF07D10741
:10348800D8A0D207D151D211D8A44DEF1AF04FEFDE
:103498001AF036EF1AF0180EF325D96E020EF42141
:1034A800DA6ED851300FDF6EF34BF42BDE07D8A05D
:1034B800DF07E6C08FF0E7C090F0E8C091F0E9C000
:1034C80092F0EAC07AF0EBC07BF0ECC07CF0EDC083
:1034D8007DF0F5C076F0F6C077F0F7C078F0F8C068
:1034E80079F0D1EC22F076C093F077C094F078C0F0
:1034F80095F079C096F0A9EC38F08FC0E6F090C04E
:10350800E7F091C0E8F092C0E9F0F5C097F0F6C096
:1035180098F0F7C099F0F8C09AF0000E00019B6F80
:10352800000E9C6F200E9D6F410E9E6FE7EC24F0FD
:1035380097C0F5F098C0F6F099C0F7F09AC0F8F087
:103548000001CD07D8A0CE07E44BE52BDA51E45DA6
:10355800E551800ACB6FDB51800ACB59D8B0B7EF61
:103568001AF0B9EF1AF0C7EF1AF0F4BFC5EF1AF066
:10357800F45109E14B0EF35DD8A0C5EF1AF0C7EF7F
:103588001AF0C4EF19F0000EE56F4F0EE46F180E35
:10359800E425D96E020EE521DA6E000EDF6E180EF4
:1035A800CB6F020ECC6FF351CB5FF451CC5BE4517F
:1035B800CB251A6EE551CC211B6E180E1C6E020E1F
:1035C8001D6EF3C01EF0F4C01FF05CEC38F0000173
:1035D800F351E45DF36FF451E559F46FEE51D8A45B
:1035E800F8EF1AF0FBEF1AF0010EFCEF1AF0000EDC
:1035F800E46FE56BEE51D8B404EF1BF006EF1BF057
:1036080011EF1BF0F307D8A0F407180EF325D96EB5
:10361800020EF421DA6EEEC0DFFFE451DE5FE55101
:10362800DF5BC4C060F0C5C061F0180EF325626F9F
:10363800020EF421636FDEC064F0DFC065F05BEC5E
:1036480033F0120002C1D9FF03C1DAFFDECFF6FF63
:10365800DDCFF7FFF86A0800F550250AD8A437EF40
:103668001BF039EF1BF0FCEF1DF002C1D9FF03C1BD
:10367800DAFFDE2A000EDD22000E356E000E346EF3
:1036880034C03EF03668376802C1D9FF03C1DAFF9B
:10369800DECFF6FFDDCFF7FFF86A0800F5502A0AFB
:1036A800D8A459EF1BF05BEF1BF084EF1BF002C1AD
:1036B800D9FF03C1DAFFDE2A000EDD2204C1D9FFDB
:1036C80005C1DAFFDFCFF9F0020EDE26DFCFFAF010
:1036D800000EDD22F9C0D9FFFAC0DAFFDECF34F0E0
:1036E800DDCF35F035BE7DEF1BF07BEF1BF0B9EF7A
:1036F8001BF03E80346C351ED8B0352AB9EF1BF06C
:1037080002C1D9FF03C1DAFFDECF20F0DDCF21F0FF
:103718008BEC2FF020C034F021C035F09BEF1BF06C
:1037280002C1D9FF03C1DAFFDE2A000EDD2202C181
:10373800D9FF03C1DAFFDECFF6FFDDCFF7FFF86A66
:103748000800F5CFF9F0D00E0001F925FA6FFB6BF0
:10375800FF0EFB23FB5109E10A0EFA5DD8A0B7EF73
:103768001BF0B9EF1BF094EF1BF002C1D9FF03C1A6
:10377800DAFFDECFF6FFDDCFF7FFF86A0800F55075
:103788002E0AD8A4CAEF1BF0CCEF1BF03CEF1CF0BC
:10379800000E376E000E366E02C1D9FF03C1DAFF84
:1037A800DE2A000EDD2202C1D9FF03C1DAFFDECF17
:1037B800F6FFDDCFF7FFF86A0800F5502A0AD8A40B
:1037C800E8EF1BF0EAEF1BF007EF1CF002C1D9FF8E
:1037D80003C1DAFFDE2A000EDD2204C1D9FF05C1CC
:1037E800DAFFDFCFF9F0020EDE26DFCFFAF0000EA7
:1037F800DD22F9C0D9FFFAC0DAFFDECF36F0DDCF1F
:1038080037F03CEF1CF002C1D9FF03C1DAFFDECF6D
:1038180020F0DDCF21F08BEC2FF020C036F021C056
:1038280037F01EEF1CF002C1D9FF03C1DAFFDE2A10
:10383800000EDD2202C1D9FF03C1DAFFDECFF6FF99
:10384800DDCFF7FFF86A0800F5CFF9F0D00E0001D8
:10385800F925FA6FFB6BFF0EFB23FB5109E10A0EFA
:10386800FA5DD8A03AEF1CF03CEF1CF017EF1CF003
:1038780002C1D9FF03C1DAFFDECF0FF1DDCF10F1AE
:103888000FC1F6FF10C1F7FFF86A0800F550640A87
:10389800D8B451EF1CF053EF1CF062EF1CF00FC1CD
:1038A800F6FF10C1F7FFF86A0800F550690AD8A4B6
:1038B80060EF1CF062EF1CF0A9EF1CF004C1D9FF07
:1038C80005C1DAFFDFCFF9F0020EDE26DFCFFAF00E
:1038D800000EDD22F9C0D9FFFAC0DAFFDECF07F10A
:1038E800DDCF08F10101000E08BFFF0E096F0A6F56
:1038F8000B6F0C6F0D6F0E6F010E0F250001F96F26
:10390800000E010110210001FA6F02C1D9FF03C1A5
:10391800DAFFF9C0DEFFFAC0DDFF00C16BF001C1BC
:103928006CF007C16DF008C16EF009C16FF00AC1F3
:1039380070F00BC171F00CC172F00DC173F00EC1C3
:1039480074F029EC28F011EF1EF00FC1F6FF10C13A
:10395800F7FFF86A0800F550750AD8A4B6EF1CF00E
:10396800B8EF1CF019EF1DF004C1D9FF05C1DAFF4B
:10397800DFCFF9F0020EDE26DFCFFAF0000EDD22EF
:10398800F9C0D9FFFAC0DAFFDECFFBF0DDCFFCF0DB
:10399800FBC007F1FCC008F10101096B0A6B0B6B56
:1039A8000C6B0D6B0E6B010E0F250001F96F000EED
:1039B800010110210001FA6F02C1D9FF03C1DAFF2A
:1039C800F9C0DEFFFAC0DDFF02EF1DF000C16BF0A9
:1039D80001C16CF007C16DF008C16EF009C16FF04C
:1039E8000AC170F00BC171F00CC172F00DC173F017
:1039F8000EC174F094EC2BF011EF1EF00FC1F6FF1E
:103A080010C1F7FFF86A0800F550F96FFA6BFA5120
:103A1800000AD8B412EF1DF019EF1DF0F951750A1C
:103A2800D8B4EAEF1CF019EF1DF002C1D9FF03C1A9
:103A3800DAFFDECF0FF1DDCF10F10FC1F6FF10C1B5
:103A4800F7FFF86A0800F5CF06F13AEF1DF001011B
:103A58000F4B102B55EF1DF06C0E0101066F55EF43
:103A68001DF0000E0101066F55EF1DF00101065112
:103A78000001F96FFA6BFA51000AD8B446EF1DF04D
:103A880035EF1DF0F9514C0AD8B42BEF1DF02A0A76
:103A9800D8B430EF1DF00A0AD8B42BEF1DF035EF7B
:103AA8001DF00FC1F6FF10C1F7FFF86A0800F550C6
:103AB800660AD8A462EF1DF064EF1DF0F3EF1DF065
:103AC8009AEF1DF004C1D9FF05C1DAFFDFCFF9F085
:103AD800040EDE26DFCFFAF0000EDD22F9C0D9FF92
:103AE800FAC0DAFFDECF07F1DECF08F1DECF09F149
:103AF800DECF0AF1B0EF1DF004C1D9FF05C1DAFF2E
:103B0800DFCFF9F0040EDE26DFCFFAF0000EDD225B
:103B1800F9C0D9FFFAC0DAFFDECF07F1DECF08F12E
:103B2800DECF09F1DECF0AF1B0EF1DF0065100013A
:103B3800F96FFA6BFA51000AD8B4A5EF1DF0B0EF8F
:103B48001DF0F9514C0AD8B480EF1DF0200AD8B402
:103B580066EF1DF0B0EF1DF0010E01010F25000109
:103B6800F96F000E010110210001FA6F02C1D9FF9F
:103B780003C1DAFFF9C0DEFFFAC0DDFFDCEF1DF09C
:103B880000C1C4F001C1C5F007C1C6F008C1C7F043
:103B980009C1C8F00AC1C9F00FC1F6FF10C1F7FF8B
:103BA800F86A0800F5CFCAF011EC16F011EF1EF014
:103BB8000FC1F6FF10C1F7FFF86A0800F550F96F5A
:103BC800FA6BFA51000AD8B4ECEF1DF0F3EF1DF0D0
:103BD800F951660AD8B4C4EF1DF0F3EF1DF002C125
:103BE800D9FF03C1DAFFDE2A000EDD2211EF1EF035
:103BF80002C1D9FF03C1DAFFDECFF6FFDDCFF7FF41
:103C0800F86A0800F5501C6E1D6A00C11EF001C15B
:103C18001FF0A9EC34F0F3EF1DF012000001695118
:103C2800800B726F69516925746F68AF1EEF1EF0C3
:103C380020EF1EF021EF1EF074817451D8B427EFE5
:103C48001EF029EF1EF03EEF1EF07429D8A42FEFC6
:103C58001EF031EF1EF039EF1EF0000E666F000EF9
:103C6800676F000E686F000E696F688F000E696FCE
:103C780046EF1EF0000E666F000E676F000E686F4D
:103C8800000E696F6D51800B736F72517319D8B440
:103C980050EF1EF052EF1EF053EF1EF0728D6D5173
:103CA8006D25736F6CAF5BEF1EF05DEF1EF05EEF7E
:103CB8001EF073817351D8B464EF1EF066EF1EF0E6
:103CC8007BEF1EF07329D8A46CEF1EF06EEF1EF088
:103CD80076EF1EF0000E6A6F000E6B6F000E6C6FB1
:103CE800000E6D6F6C8F000E6D6F83EF1EF0000E6F
:103CF8006A6F000E6B6F000E6C6F000E6D6F745163
:103D0800735DD8B08AEF1EF08CEF1EF0B3EF1EF093
:103D180072AD91EF1EF093EF1EF095EF1EF0800E3E
:103D2800721B74C075F073C074F075C073F066C010
:103D380075F06AC066F075C06AF067C075F06BC050
:103D480067F075C06BF068C075F06CC068F075C03E
:103D58006CF069C075F06DC069F075C06DF0000E4B
:103D6800756F745173C06EF06F6B6E5F000E6F5B92
:103D78006FBFC8EF1EF06F5109E11A0E6E5DD8A033
:103D8800C8EF1EF0CAEF1EF001EF1FF06651671171
:103D980068116911D8A4D3EF1EF0D6EF1EF0010EFA
:103DA800D7EF1EF0000E756F000E666F000E676F7E
:103DB800000E686F000E696F73C074F00AEF1FF091
:103DC80075A1E9EF1EF0EBEF1EF0F1EF1EF0D890B1
:103DD80075310109756FF3EF1EF0D890753366A140
:103DE800F8EF1EF0FAEF1EF0FBEF1EF0758F693545
:103DF8006933683367336633742B7351745DD8A0A5
:103E080008EF1FF00AEF1FF0E4EF1EF072BD0FEF8E
:103E18001FF011EF1FF051EF1FF07451D8A417EFE6
:103E28001FF019EF1FF023EF1FF0000E666F000E52
:103E3800676F000E686F000E696F72EF20F06A51AD
:103E480066276B5167236C5168236D51692369A1FB
:103E580030EF1FF032EF1FF0DEEF1FF075A137EFE4
:103E68001FF039EF1FF03FEF1FF0D89075310109AF
:103E7800756F41EF1FF0D890753366A146EF1FF0BC
:103E880048EF1FF049EF1FF0758F693569336833C4
:103E980067336633742BDEEF1FF06A51665D6B5132
:103EA80067596C5168596951800A6E6F6D51800A63
:103EB8006E59D8B062EF1FF064EF1FF08FEF1FF05C
:103EC80066516A5D6E6F67516B596F6F68516C59B7
:103ED800706F69516D59716FFF0E6E25666FFF0E19
:103EE8006F21676FFF0E7021686FFF0E7121696F78
:103EF800800E721B756D7551D8A485EF1FF087EF82
:103F08001FF097EF1FF0010E6627000E6723682346
:103F1800692397EF1FF06A51665F6B51675B6C51BD
:103F2800685B6D51695B6651671168116911D8A4A6
:103F3800A0EF1FF0A2EF1FF0D7EF1FF07551D8A424
:103F4800A8EF1FF0AAEF1FF0D7EF1FF0000E666F63
:103F5800000E676F000E686F000E696F72EF20F039
:103F6800D890663767376837693775AFBEEF1FF087
:103F7800C0EF1FF0C1EF1FF0668175A1C6EF1FF0FB
:103F8800C8EF1FF0CCEF1FF0D8807537CEEF1FF0C9
:103F9800D89075377451D8B4D4EF1FF0D6EF1FF00E
:103FA800D7EF1FF0740768AFDCEF1FF0DEEF1FF0EC
:103FB800B4EF1FF0000E736F75AFE5EF1FF0E7EF7A
:103FC8001FF0FFEF1FF075C06EF07F0E6E17D8B4AC
:103FD800F0EF1FF0F2EF1FF0F6EF1FF0010E736F16
:103FE800FFEF1FF066A1FBEF1FF0FDEF1FF0FFEFE3
:103FF8001FF0F2EF1FF07351D8B405EF20F007EF70
:1040080020F032EF20F0010E6627000E67236823A8
:10401800692369A112EF20F014EF20F032EF20F0AD
:1040280066C06EF067C06FF068C070F069C071F06C
:104038007135713370336F336E336EC066F06FC095
:1040480067F070C068F071C069F07429D8B42FEFB8
:1040580020F031EF20F032EF20F0742B7429D8B41F
:1040680038EF20F03AEF20F042EF20F07451D8A456
:1040780040EF20F042EF20F054EF20F0000E666F82
:10408800000E676F000E686F000E696F7451D8A438
:1040980050EF20F052EF20F054EF20F0000E726F36
:1040A80074A159EF20F05BEF20F05EEF20F0688FED
:1040B8005FEF20F0689FD8907431696F72AF67EF37
:1040C80020F069EF20F06AEF20F0698F66C066F093
:1040D80067C067F068C068F069C069F01200A3C0E3
:1040E800B4F0A4C0B5F0A5C0B6F0A6C0B7F0B4C08F
:1040F800CCF0B5C0CDF0B6C0CEF0B7C0CFF0000E52
:104108000001CC15A76F000ECD15A86F800ECE1537
:10411800A96F7F0ECF15AA6F800EA91909E17F0E2E
:10412800AA19A711A811D8A49CEF20F09EEF20F09F
:10413800CCEF20F0A3C07AF0A4C07BF0A5C07CF03F
:10414800A6C07DF0A3C076F0A4C077F0A5C078F033
:10415800A6C079F0D1EC22F076C066F077C067F09F
:1041680078C068F079C069F0A3C06AF0A4C06BF0A9
:10417800A5C06CF0A6C06DF012EC1EF066C0A3F0EE
:1041880067C0A4F068C0A5F069C0A6F0D0EF22F01F
:10419800CFBFDBEF20F0CF51CE11CD1106E1CC051A
:1041A800D8B0D9EF20F0DBEF20F017EF21F0FF0EA9
:1041B800CC15A76FFF0ECD15A86FFF0ECE15A96FF2
:1041C8007F0ECF15AA6FA751A811A911AA11D8A4BB
:1041D800F0EF20F0F2EF20F0FCEF20F0A3C0A3F006
:1041E800A4C0A4F0A5C0A5F0A6C0A6F0D0EF22F008
:1041F800CFBF03EF21F001EF21F017EF21F0000E00
:10420800396E210E386E760E1A6EFF0E1B6ED4ECC8
:104218003BF01AC0A3F01BC0A4F01CC0A5F01DC041
:10422800A6F0D0EF22F0170EA76FCCC0A8F0CDC033
:10423800A9F0CEC0AAF0CFC0ABF0A76726EF21F057
:104248002EEF21F0AB35AB33AA33A933A833A72F10
:1042580021EF21F0A8C0C4F0A9C0C5F0AAC0C6F0DB
:10426800ABC0C7F00001C451C511C611C711D8A40D
:1042780040EF21F042EF21F072EF21F0000EB06F15
:10428800000EB16F000EB26F000EB36F57EF21F042
:10429800D890CC37CD37CE37CF37010EB027000EA8
:1042A800B123B223B323CEAF5CEF21F05EEF21F050
:1042B8004CEF21F0FF0EB025A76FFF0EB121A86FBC
:1042C800FF0EB221A96FFF0EB321AA6FA751C45FD9
:1042D800A851C55BA951C65BAA51C75B810EC4270B
:1042E800FF0EC523FF0EC623FF0EC723FF0ECC15F6
:1042F800A76FFF0ECD15A86F7F0ECE15A96F000E04
:10430800CF15AA6F000EA711CC6F000EA811CD6FA4
:10431800800EA911CE6F000EAA11CF6FC4A197EF1E
:1043280021F099EF21F0A1EF21F0CC51CC27CD510C
:10433800CD23CE51CE23CF51CF23C735C733C63374
:10434800C533C433CC51CC27CD51CD23CE51CE2348
:10435800CF51CF23000EAC6F000EAD6F000EAE6FC5
:10436800000EAF6FACC0B8F0ADC0B9F0AEC0BAF0D7
:10437800AFC0BBF0000EC86F000EC96F000ECA6F49
:10438800010ECB6F10EF22F0AC51C825BC6FAD51B8
:10439800C921BD6FAE51CA21BE6FAF51CB21BF6FCE
:1043A800BC51CC5DBD51CD59BE51CE59CF51800ABB
:1043B800A76FBF51800AA759D8A0E5EF21F0E7EF12
:1043C80021F003EF22F0BC51C825AC6FBD51C921C3
:1043D800AD6FBE51CA21AE6FBF51CB21AF6FBC517B
:1043E800CC5FBD51CD5BBE51CE5BBF51CF5BC851D9
:1043F800B827C951B923CA51BA23CB51BB23CC51D1
:10440800CC27CD51CD23CE51CE23CF51CF23D89019
:10441800CB33CA33C933C833C851C911CA11CB11F8
:10442800D8A419EF22F01BEF22F0C8EF21F0CC51ED
:10443800CD11CE11CF11D8B424EF22F026EF22F0FF
:1044480086EF22F0000EC06F000EC16F800EC26FA3
:104458003F0EC36FC0C097F0C1C098F0C2C099F0BA
:10446800C3C09AF0000E9B6F000E9C6F800E9D6F6C
:104478003F0E9E6FB8EC30F00001D8A046EF22F056
:1044880048EF22F086EF22F0000EC06F000EC16FD9
:10449800800EC26F3F0EC36F000E976F000E986FAD
:1044A800800E996F3F0E9A6FC0C09BF0C1C09CF000
:1044B800C2C09DF0C3C09EF0B8EC30F00001D8B087
:1044C80068EF22F06AEF22F072EF22F0020EB827AE
:1044D800000EB923BA23BB2386EF22F0010EB815CC
:1044E800A76F000EB915A86F000EBA15A96F000EB8
:1044F800BB15AA6FA751B827A851B923A951BA2348
:10450800AA51BB23B8C0A7F0B9C0A8F0BAC0A9F097
:10451800BBC0AAF0AA35AA33A933A833A733000E23
:10452800A725CC6F000EA821CD6F000EA921CE6F54
:104538003F0EAA21CF6FC4C0A7F0C5C0A8F0C6C05F
:10454800A9F0C7C0AAF0170ED890A737A837A9377F
:10455800AA37E82EA8EF22F0A751CC27A851CD23DF
:10456800A951CE23AA51CF23CCC0B4F0CDC0B5F009
:10457800CEC0B6F0CFC0B7F0B4C0C0F0B5C0C1F07F
:10458800B6C0C2F0B7C0C3F0C0C0A3F0C1C0A4F0A9
:10459800C2C0A5F0C3C0A6F0120000017951800B7B
:1045A800826F79517925886F78AFDDEF22F0DFEFE0
:1045B80022F0E0EF22F088818851D8B4E6EF22F0AB
:1045C800E8EF22F0FBEF22F08829D8A4EEEF22F0E2
:1045D800F0EF22F0F8EF22F0000E766F000E776F02
:1045E800000E786F000E796F788F03EF23F0000EBE
:1045F800766F000E776F000E786F000E796F7D5121
:10460800800B821B7D517D25836F7CAF0EEF23F0DD
:1046180010EF23F011EF23F083818351D8B417EF03
:1046280023F019EF23F02CEF23F08329D8A41FEFF0
:1046380023F021EF23F029EF23F0000E7A6F000E0C
:104648007B6F000E7C6F000E7D6F7C8F34EF23F044
:10465800000E7A6F000E7B6F000E7C6F000E7D6F70
:104668008351D8B43AEF23F03CEF23F044EF23F022
:104678008851D8A442EF23F044EF23F04EEF23F003
:10468800000E766F000E776F000E786F000E796F50
:10469800E6EF24F07C517603F3CF8DF0F4CF8EF063
:1046A8008D51846F856B866B876B8E51896F8A6B92
:1046B8008B6B8C6B7B517703F3CF8DF0F4CF8EF03F
:1046C8008D518427000E8523862387238E518927C1
:1046D800000E8A238B238C237A517803F3CF8DF035
:1046E800F4CF8EF08D518427000E852386238723EF
:1046F8008E518927000E8A238B238C2386C087F04E
:1047080085C086F084C085F0846B7A517703F3CF37
:104718008DF0F4CF8EF08D5184278E518523000EB5
:104728008623000E87237B517603F3CF8DF0F4CFD9
:104738008EF08D5184278E518523000E8623000E1E
:10474800872386C087F085C086F084C085F0846B97
:104758007A517603F3CF8DF0F4CF8EF08D51842704
:104768008E518523000E8623000E87237C51770304
:10477800F3CF8DF0F4CF8EF08D5189278E518A2397
:10478800000E8B23000E8C237B517803F3CF8DF022
:10479800F4CF8EF08D5189278E518A23000E8B23FA
:1047A800000E8C237C517803F3CF8DF0F4CF8EF07C
:1047B8008D517E6F8E517F6F806B816B80C081F0D1
:1047C8007FC080F07EC07FF07E6B7E5189277F514D
:1047D8008A2380518B2381518C2384C07EF085C02D
:1047E8007FF086C080F087C081F0190E01EF24F0B9
:1047F800D890813380337F337E33E82EFCEF23F06B
:104808007E5189277F518A2380518B2381518C23A4
:1048180086C087F085C086F084C085F0846B83519C
:1048280088C07EF07F6B7E27000E7F23820E7E2558
:104838008D6FFF0E7F218E6F37EF24F0D890893768
:104848008A378B378C3787AF2CEF24F02EEF24F084
:104858002FEF24F08981D8908437853786378737BA
:104868008D07D8A08E078BAF3CEF24F03EEF24F0E5
:1048780022EF24F0000E836F87AF45EF24F047EF57
:1048880024F06BEF24F0FF0E84157E6FFF0E851564
:104898007F6FFF0E8615806F7F0E8715816F7E51A3
:1048A8007F1180118111D8B45CEF24F05EEF24F001
:1048B80062EF24F0010E836F6BEF24F089A167EF9C
:1048C80024F069EF24F06BEF24F05EEF24F08351BD
:1048D800D8B471EF24F073EF24F097EF24F0010EB1
:1048E8008927000E8A238B238C238CA17EEF24F04A
:1048F80080EF24F097EF24F089C07EF08AC07FF023
:104908008BC080F08CC081F08135813380337F3358
:104918007E337EC089F07FC08AF080C08BF081C072
:104928008CF08D4B8E2B8EBFA2EF24F08E5108E1B8
:104938008D29D8A0A2EF24F0A4EF24F0AEEF24F044
:10494800000E896F000E8A6F800E8B6F7F0E8C6F42
:10495800DCEF24F08EBFBBEF24F08E5106E18D050D
:10496800D8B0B9EF24F0BBEF24F0C7EF24F0000E65
:10497800896F000E8A6F000E8B6F000E8C6F000E11
:10498800826FDCEF24F08DC088F0FF0E8917FF0ED0
:104998008A177F0E8B17000E8C1788A1D6EF24F08C
:1049A800D8EF24F0D9EF24F08B8FD89088318C6F12
:1049B80082518C1389C076F08AC077F08BC078F06A
:1049C8008CC079F0120000019A51800BA76F9A51A0
:1049D8009A25AE6F99AFF3EF24F0F5EF24F0F6EFD8
:1049E80024F0AE81AE51D8B4FCEF24F0FEEF24F0F1
:1049F80013EF25F0AE29D8A404EF25F006EF25F033
:104A08000EEF25F0000E976F000E986F000E996F4D
:104A1800000E9A6F998F000E9A6F1BEF25F0000E0B
:104A2800976F000E986F000E996F000E9A6F9E5147
:104A3800800BA71B9E519E25AF6F9DAF26EF25F0DB
:104A480028EF25F029EF25F0AF81AF51D8B42FEF2B
:104A580025F031EF25F046EF25F0AF29D8A437EF40
:104A680025F039EF25F041EF25F0000E9B6F000E81
:104A78009C6F000E9D6F000E9E6F9D8F000E9E6FA7
:104A88004EEF25F0000E9B6F000E9C6F000E9D6F81
:104A9800000E9E6F9B519C119D119E11D8A457EF3B
:104AA80025F059EF25F071EF25F0000E976F000EF5
:104AB800986F000E996F000E9A6F800E99137F0EF3
:104AC8009A13A7519A1397C097F098C098F099C075
:104AD80099F09AC09AF0B4EF26F0AE51D8A477EFC7
:104AE80025F079EF25F083EF25F0000E976F000E83
:104AF800986F000E996F000E9A6FB4EF26F0AF51C1
:104B0800AEC09FF0A06B9F5F000EA05B7F0E9F253D
:104B1800A86F000EA021A96F97C0A3F098C0A4F0B9
:104B280099C0A5F09AC0A6F0000E976F000E986F76
:104B3800000E996F000E9A6F000EAA6F000EAB6FF1
:104B4800000EAC6F000EAD6F000EAF6FE4EF25F0F6
:104B5800AF51D8B4B2EF25F0B4EF25F0CBEF25F084
:104B6800D890A337A437A537A637D8909737983762
:104B780099379A37ADAFC3EF25F0C5EF25F0C6EFEB
:104B880025F09781D890AA37AB37AC37AD379B5112
:104B9800A35D9C51A4599D51A5599E51A659D8A0D1
:104BA800D8EF25F0DAEF25F0E3EF25F0AD8D9B5136
:104BB800A35F9C51A45B9D51A55B9E51A65BAF2B47
:104BC800190EAF65EAEF25F0ECEF25F0ACEF25F014
:104BD800A351A411A511A611D8B4F5EF25F0F7EF4C
:104BE80025F00FEF26F0AA810FEF26F0D89097371F
:104BF800983799379A37ADAF04EF26F006EF26F0CD
:104C080007EF26F09781D890AA37AB37AC37AD3786
:104C1800A807D8A0A90799AF14EF26F016EF26F039
:104C2800FAEF25F0000EAF6FADAF1DEF26F01FEFC6
:104C380026F043EF26F0FF0EAA159F6FFF0EAB1567
:104C4800A06FFF0EAC15A16F7F0EAD15A26F9F511F
:104C5800A011A111A211D8B434EF26F036EF26F036
:104C68003AEF26F0010EAF6F43EF26F097A13FEF22
:104C780026F041EF26F043EF26F036EF26F0AF514D
:104C8800D8B449EF26F04BEF26F06FEF26F0010E6F
:104C98009727000E982399239A239AA156EF26F076
:104CA80058EF26F06FEF26F097C09FF098C0A0F05D
:104CB80099C0A1F09AC0A2F0A235A233A133A033C3
:104CC8009F339FC097F0A0C098F0A1C099F0A2C0F0
:104CD8009AF0A84BA92BA9BF7AEF26F0A95108E1B1
:104CE800A829D8A07AEF26F07CEF26F087EF26F0E7
:104CF800000EA96FA869000E976F000E986F000E3E
:104D0800996F000E9A6FA9BF94EF26F0A95106E19A
:104D1800A805D8B092EF26F094EF26F0A2EF26F07F
:104D2800000EA96F000EA86F000E976F000E986F07
:104D3800000E996F000E9A6F000EA76FA8C0AEF014
:104D4800AEA1A9EF26F0ABEF26F0AEEF26F0998FD3
:104D5800AFEF26F0999FD890AE319A6F65EF25F0A6
:104D6800120005EC3CF0F28EF28CBE0E1A6E760E36
:104D78001B6EDFEC3CF0080E1A6E710E1B6EEEEC2B
:104D88003CF0000E0201696F000E686F000E766F2E
:104D9800000E756F000E746F050E736F000E6A6F4C
:104DA800000E6B6FE90E0101196FFF0E1A6F89EC87
:104DB8003BF0BDEC3CF002016E6F4AEC3BF026C0C4
:104DC8006CF227C06DF235EC35F0B0C0E1F0B1C03F
:104DD800E2F0B2C0E3F0B3C0E4F0000E0001E56F0A
:104DE800000EE66F400EE76F400EE86F19EC2EF0EC
:104DF800E1C06FF2E2C070F2E3C071F2E4C072F297
:104E08008DB209EF27F00BEF27F013EF27F0000E14
:104E1800276E010E266E09EC38F002016A6F8DB418
:104E280018EF27F01AEF27F022EF27F0000E276E71
:104E3800020E266E09EC38F002016B6F000E0001BD
:104E4800976F000E986F000E996F400E9A6F6FC2A1
:104E58009BF070C29CF071C29DF072C29EF0B8ECDB
:104E680030F00001D8B03BEF27F03DEF27F055EFC9
:104E780027F002017351755D7651800A0101BC6FFC
:104E880002017451800A0101BC59D8B04EEF27F0D5
:104E980050EF27F055EF27F00201754B762B8AEF7C
:104EA80027F0000E0001976F000E986F000E996FA3
:104EB800400E9A6F6FC29BF070C29CF071C29DF059
:104EC80072C29EF0B8EC30F00001D8B06EEF27F057
:104ED80070EF27F085EF27F002017351755D765169
:104EE800800A0101BC6F02017451800A0101BC599A
:104EF800D8A081EF27F083EF27F085EF27F0B0ECFB
:104F08003AF0000E0201766F000E756F60EC3CF00F
:104F18000009D8B492EF27F094EF27F006EF28F0B5
:104F2800AE0E0101196FFF0E1A6F0201684B692B53
:104F380068C21BF169C21CF135EC35F0B0C01DF137
:104F4800B1C01EF1B2C01FF1B3C020F189EC3BF033
:104F5800DA0E0101196FFF0E1A6F6EC21BF11C6B7E
:104F680089EC3BF0770E0101196FFF0E1A6F6CC2C6
:104F78001BF16DC21CF189EC3BF0940E0101196F15
:104F8800FF0E1A6F6FC21BF170C21CF171C21DF1C6
:104F980072C21EF189EC3BF0580E0101196FFF0E29
:104FA8001A6F6AC21BF11C6B6BC21DF11E6B89EC78
:104FB8003BF02D0E0101196FFF0E1A6F75C21BF120
:104FC80076C21CF173C21DF174C21EF1EFC11FF14C
:104FD800206B89EC3BF0C60E0101196FFF0E1A6FAA
:104FE800EEC11BF11C6B89EC3BF00B0E0101BD6F90
:104FF800260EBC6F5D0EE82EFED7BC2FFCD7BD2F4A
:10500800FAD700D002016C05080E6D59D8A00FEF31
:1050180028F011EF28F014EF28F0838815EF28F016
:105028008398180E6E651BEF28F01DEF28F020EF0F
:1050380028F0838621EF28F08396000E6A6F000E11
:105048006B6FDDEF26F0C1EF00F06DC083F06EC02E
:1050580084F06FC085F070C086F071C087F072C0B0
:1050680088F073C089F074C08AF000018ABF3FEFEE
:1050780028F042EF28F0010E43EF28F0000E8B6F66
:105088008B51D8B44AEF28F04CEF28F05CEF28F0A9
:105098008A1F891F881F871F861F851F841F836D8E
:1050A800000E8423852386238723882389238A2344
:1050B80037BE69EF28F0375006E13604D8B067EFFD
:1050C80028F069EF28F06FEF28F0000E806F010ECE
:1050D8007F6F73EF28F036C07FF037C080F034C0A0
:1050E80081F035C082F08B51D8B47DEF28F07FEF86
:1050F80028F096EF28F08107D8A082078B51D8A412
:1051080088EF28F08AEF28F090EF28F0000E7E6FE5
:105118002B0E7D6F94EF28F0000E7E6F2D0E7D6FA5
:105128007DC08BF0000E8D6F4F0E8C6F000E02014C
:10513800676F1CEF29F08C07D8A08D07180E8C25F7
:10514800D96E020E8D21DA6E83C01AF084C01BF06E
:1051580085C01CF086C01DF087C01EF088C01FF0F7
:1051680089C020F08AC021F00A0E226E000E236E3C
:10517800000E246E000E256E000E266E000E276EA1
:10518800000E286E000E296ED9EC2EF01AC075F0AC
:105198001BC076F01CC077F01DC078F01EC079F0F7
:1051A8001FC07AF020C07BF021C07CF075C060F091
:1051B80076C061F054EC39F000016051300FDF6EB9
:1051C8007F07D8A080078107D8A0820783C01AF07C
:1051D80084C01BF085C01CF086C01DF087C01EF07F
:1051E80088C01FF089C020F08AC021F00A0E226E04
:1051F800000E236E000E246E000E256E000E266E25
:10520800000E276E000E286E000E296E54EC2DF04D
:105218001AC083F01BC084F01CC085F01DC086F046
:105228001EC087F01FC088F020C089F021C08AF016
:1052380000018DBF28EF29F08D5108E18C05D8A019
:1052480028EF29F02AEF29F046EF29F0835184113D
:10525800851186118711881189118A11D8A437EF11
:1052680029F039EF29F09FEF28F080BF46EF29F0A9
:10527800805106E17F05D8B044EF29F046EF29F0C8
:105288009FEF28F08B51D8B44CEF29F04EEF29F05E
:1052980059EF29F08C07D8A08D07180E8C25D96EE8
:1052A800020E8D21DA6E8BC0DFFF6BC060F06CC020
:1052B80061F0180E8C25626F020E8D21636F81C01C
:1052C80064F082C065F05BEC33F012008FC09DF093
:1052D80090C09EF091C09FF092C0A0F0000194BFD2
:1052E8007FEF29F0945109E1800E935DD8A07FEFFC
:1052F80029F081EF29F0E1EF29F09DC076F09EC0FA
:1053080077F09FC078F0A0C079F0000E7A6F000E99
:105318007B6F000E7C6F7F0E7D6FD1EC22F076C024
:105328009DF077C09EF078C09FF079C0A0F0000192
:10533800810E9327FF0E942394BFACEF29F094516C
:1053480009E1800E935DD8A0ACEF29F0AEEF29F00B
:105358004DEF2AF09DC076F09EC077F09FC078F0A0
:10536800A0C079F0000E7A6F000E7B6F000E7C6F84
:105378007F0E7D6FD1EC22F076C09DF077C09EF055
:1053880078C09FF079C0A0F00001810E9327FF0E2E
:10539800942394BFD9EF29F0945109E1800E935DCD
:1053A800D8A0D9EF29F0DBEF29F04DEF2AF0000E55
:1053B800946F7F0E936F4DEF2AF094AFEDEF29F0C5
:1053C800820E935DFF0E9459D8B0EDEF29F0EFEF00
:1053D80029F04DEF2AF09DC076F09EC077F09FC06F
:1053E80078F0A0C079F0000E7A6F000E7B6F800E07
:1053F8007C6F0C0E7D6FD1EC22F076C09DF077C0EB
:105408009EF078C09FF079C0A0F0660E0001932747
:10541800000E942394AF1AEF2AF0820E935DFF0ECC
:105428009459D8B01AEF2AF01CEF2AF04DEF2AF061
:105438009DC076F09EC077F09FC078F0A0C079F04C
:10544800000E7A6F000E7B6F800E7C6F0C0E7D6FE6
:10545800D1EC22F076C09DF077C09EF078C09FF026
:1054680079C0A0F0660E00019327000E942394AF34
:1054780047EF2AF0820E935DFF0E9459D8B047EF9C
:105488002AF049EF2AF04DEF2AF0FF0E946F820EB2
:10549800936F7F0E9325956F000E9421966F976BEF
:1054A800986B170ED8909537963797379837E82E18
:1054B80056EF2AF095C099F096C09AF097C09BF0E5
:1054C80098C09CF099C076F09AC077F09BC078F0AD
:1054D8009CC079F09DC07AF09EC07BF09FC07CF0A4
:1054E800A0C07DF0D1EC22F076C08FF077C090F0AC
:1054F80078C091F079C092F08FC08FF090C090F092
:1055080091C091F092C092F01200E2C1C0F0E3C1E4
:10551800C1F0E4C1C2F0E5C1C3F0B0C0C0F0B1C091
:10552800C1F0B2C0C2F0B3C0C3F0810E0001B46FC5
:10553800FF0EB56FC0C0B6F0C1C0B7F0C2C0B8F0BA
:10554800C3C0B9F0180EAEEF2AF0D890B933B8330B
:10555800B733B633E82EA9EF2AF0B651B425BE6F9B
:10556800000EB521BF6FBFBFC3EF2AF0BF5109E1DD
:10557800170EBE5DD8A0C3EF2AF0C5EF2AF0CFEF13
:105588002AF0B0C0B0F0B1C0B1F0B2C0B2F0B3C050
:10559800B3F093EF2BF0BFBFD4EF2AF0D6EF2AF089
:1055A80047EF2BF0BEC0B4F0FF0EB56FFF0EB66F1D
:1055B8007F0EB76F000EB86FB467E5EF2AF0EDEF16
:1055C8002AF0B835B833B733B633B533B42FE0EF74
:1055D8002AF0B5C0BAF0B6C0BBF0B7C0BCF0B8C0CE
:1055E800BDF00001BA51C015B46FBB51C115B56FFC
:1055F800BC51C215B66FBD51C315B76FB451B511C3
:10560800B611B711D8A40BEF2BF00DEF2BF00FEF5D
:105618002BF0C5EF2AF0C0C0B4F0C1C0B5F0C2C0CD
:10562800B6F0C3C0B7F0200E1FEF2BF0D890B733F9
:10563800B633B533B433E82E1AEF2BF0B451B511A5
:10564800B611B711D8B42BEF2BF02DEF2BF035EFA7
:105658002BF0BA51C027BB51C123BC51C223BD5145
:10566800C323BA1DB46FBB1DB56FBC1DB66FBD1D7E
:10567800B76FB451C017B551C117B651C217B7515A
:10568800C3178BEF2BF0C0C0B4F0C1C0B5F0C2C0D7
:10569800B6F0C3C0B7F0200E57EF2BF0D890B73351
:1056A800B633B533B433E82E52EF2BF0B451B511FD
:1056B800B611B711D8A463EF2BF065EF2BF06FEF9D
:1056C8002BF0000EC06F000EC16F000EC26F000EEF
:1056D800C36F8BEF2BF0D890C035B46FC135B56F61
:1056E800C235B66FC335B76FB451B511B611B7111E
:1056F800D8B481EF2BF083EF2BF08BEF2BF0000E5B
:10570800C06F000EC16F800EC26FBF0EC36FC0C0E6
:10571800B0F0C1C0B1F0C2C0B2F0C3C0B3F0120063
:1057280037BEA1EF2BF0375006E13604D8B09FEF13
:105738002BF0A1EF2BF0A8EF2BF0000E0001806FEB
:10574800010E7F6FACEF2BF036C07FF037C080F0D2
:1057580034C07DF035C07EF06DC081F06EC082F03F
:105768006FC083F070C084F071C085F072C086F09D
:1057780073C087F074C088F0000E00018A6F4F0E66
:10578800896F000E0201676F41EF2CF08907D8A0DE
:105798008A07180E8925D96E020E8A21DA6E81C011
:1057A8001AF082C01BF083C01CF084C01DF085C0B5
:1057B8001EF086C01FF087C020F088C021F00A0EB6
:1057C800226E000E236E000E246E000E256E000E53
:1057D800266E000E276E000E286E000E296E33EC22
:1057E80032F01AC075F01BC076F01CC077F01DC0EF
:1057F80078F01EC079F01FC07AF020C07BF021C07D
:105808007CF000017551300FDF6E7F07D8A080074C
:105818007D07D8A07E0781C01AF082C01BF083C024
:105828001CF084C01DF085C01EF086C01FF087C024
:1058380020F088C021F00A0E226E000E236E000EA2
:10584800246E000E256E000E266E000E276E000ECA
:10585800286E000E296EBAEC31F01AC081F01BC018
:1058680082F01CC083F01DC084F01EC085F01FC0EC
:1058780086F020C087F021C088F0000189518A1184
:10588800D8B449EF2CF04BEF2CF067EF2CF0815196
:105898008211831184118511861187118811D8A46A
:1058A80058EF2CF05AEF2CF0CAEF2BF080BF67EFBF
:1058B8002CF0805106E17F05D8B065EF2CF067EF3A
:1058C8002CF0CAEF2BF06BC060F06CC061F0180EC2
:1058D8008925626F020E8A21636F7DC064F07EC0E5
:1058E80065F05BEC33F012000001606F000160515D
:1058F800D8B481EF2CF083EF2CF0A5EF2CF024BE68
:105908008AEF2CF088EF2CF0A5EF2CF021C025F0C1
:1059180022C026F023C027F024C028F0251E261E0A
:10592800271E281E252A000E26222722282225C0C7
:1059380062F026C063F027C064F028C065F0ADEFC0
:105948002CF021C062F022C063F023C064F024C0B0
:1059580065F02150221023102410D8A4B6EF2CF0A3
:10596800B8EF2CF0C2EF2CF0000E216E000E226E64
:10597800000E236E000E246E53EF2DF0960E616F0D
:10598800CCEF2CF0612BD8906533643363336233EA
:10599800000E6215256E000E6315266E000E641546
:1059A800276EFE0E6515286E255026102710281024
:1059B800D8A4E1EF2CF0E3EF2CF0C6EF2CF0F1EFD8
:1059C8002CF0612B010E6227000E632364236523EC
:1059D800D8906533643363336233000E6215256EE5
:1059E800000E6315266E000E6415276EFF0E6515F2
:1059F800286E2550261027102810D8A406EF2DF061
:105A080008EF2DF0E5EF2CF010EF2DF06107D8909E
:105A1800623763376437653764BF15EF2DF017EFCA
:105A28002DF01FEF2DF0020E61611DEF2DF01FEF1D
:105A38002DF00AEF2DF061B124EF2DF026EF2DF0B7
:105A480027EF2DF0649FD890613361C025F0266A56
:105A5800276A286A25C028F0276A266A256A2550F9
:105A6800621326506313275064132850651360513E
:105A7800D8B441EF2DF043EF2DF04BEF2DF024BEBD
:105A88004AEF2DF048EF2DF04BEF2DF0658F62C0F7
:105A980021F063C022F064C023F065C024F0120036
:105AA800000E0001616F29BE5EEF2DF05CEF2DF056
:105AB80070EF2DF0291E281E271E261E251E241EC7
:105AC800231E226C000E232224222522262227228E
:105AD80028222922010E616F21BE77EF2DF075EF84
