:0400000075EF00F0A8
:100008004682FACF10F0FBCF11F0D9CF12F0DACF39
:1000180013F0F3CF14F0F4CF15F0F6CF16F0F7CFB6
:1000280017F0F8CF18F0F5CF19F0F2AC1EEF00F08A
:1000380020EF00F05FEF00F00E01C6A326EF00F0FE
:1000480028EF00F033EF00F0CEA32DEF00F02FEFF4
:1000580000F033EF00F01EEC1BF05FEF00F0C5A1DD
:1000680038EF00F03AEF00F04FEF00F0CDA13FEF8E
:1000780000F041EF00F04FEF00F002D84DEF00F034
:100088000500FA6E3B50FD6E3C50FE6EFF6AFA505A
:1000980012005FEF00F0C5A354EF00F056EF00F038
:1000A8005FEF00F0CDA35BEF00F05DEF00F05FEFD6
:1000B80000F041EF00F019C0F5FF18C0F8FF17C0B5
:1000C800F7FF16C0F6FF15C0F4FF14C0F3FF13C006
:1000D800DAFF12C0D9FF11C0FBFF10C0FAFF469229
:0600E800110084EF1CF082
:100F000000CC3A983A883ACE2B402DC03A9A2F5EC0
:100F10003B563B4E3B463B3E3B363B2E3BB43AA416
:100F200033094D6F746F722031204661756C7420E7
:100F3000436F64653D2575200A0D00094D6F746F80
:100F4000722032204661756C7420436F64653D25C4
:100F5000750A0D0052656164696E67256928743DE4
:100F6000252E3675293A200A0D000957696E64202E
:100F700053706565643D25352E3564200A0D0009E2
:100F800054656D703D257543200A0D000948616C5C
:090F90006C3D2575200A0D0000DE
:100F9A001D50800B0001606F1D501D24666F1CAE32
:100FAA00D9EF07F0DBEF07F0DCEF07F06681665157
:100FBA00D8B4E2EF07F0E4EF07F0F7EF07F066299D
:100FCA00D8A4EAEF07F0ECEF07F0F4EF07F0000E11
:100FDA001A6E000E1B6E000E1C6E000E1D6E1C8E0D
:100FEA00FFEF07F0000E1A6E000E1B6E000E1C6E4D
:100FFA00000E1D6E2150800B601B21502124616F51
:10100A0020AE0AEF08F00CEF08F00DEF08F061814E
:10101A006151D8B413EF08F015EF08F028EF08F083
:10102A006129D8A41BEF08F01DEF08F025EF08F09E
:10103A00000E1E6E000E1F6E000E206E000E216E38
:10104A00208E30EF08F0000E1E6E000E1F6E000E8E
:10105A00206E000E216E6151D8B436EF08F038EFD9
:10106A0008F040EF08F06651D8A43EEF08F040EFD0
:10107A0008F04AEF08F0000E1A6E000E1B6E000E02
:10108A001C6E000E1D6EE2EF09F020501A02F3CF1B
:10109A006BF0F4CF6CF06B51626F636B646B656BD2
:1010AA006C51676F686B696B6A6B1F501B02F3CFD9
:1010BA006BF0F4CF6CF06B516227000E632364234C
:1010CA0065236C516727000E682369236A231E5023
:1010DA001C02F3CF6BF0F4CF6CF06B516227000E59
:1010EA006323642365236C516727000E68236923F1
:1010FA006A2364C065F063C064F062C063F0626B27
:10110A001E501B02F3CF6BF0F4CF6CF06B516227C9
:10111A006C516323000E6423000E65231F501A02CC
:10112A00F3CF6BF0F4CF6CF06B5162276C516323F1
:10113A00000E6423000E652364C065F063C064F08A
:10114A0062C063F0626B1E501A02F3CF6BF0F4CFE9
:10115A006CF06B5162276C516323000E6423000EFE
:10116A00652320501B02F3CF6BF0F4CF6CF06B5168
:10117A0067276C516823000E6923000E6A231F50EB
:10118A001C02F3CF6BF0F4CF6CF06B5167276C51F4
:10119A006823000E6923000E6A2320501C02F3CF35
:1011AA006BF0F4CF6CF06B51226E6C51236E246A93
:1011BA00256A24C025F023C024F022C023F0226A25
:1011CA0022506727235068232450692325506A2315
:1011DA0062C022F063C023F064C024F065C025F029
:1011EA00190EFDEF08F0D89025322432233222322C
:1011FA00E82EF8EF08F0225067272350682324507E
:10120A00692325506A2364C065F063C064F062C034
:10121A0063F0626B615166C022F0236A2226000ED7
:10122A002322820E22246B6FFF0E23206C6F33EF72
:10123A0009F0D8906737683769376A3765AF28EF9A
:10124A0009F02AEF09F02BEF09F06781D89062378D
:10125A006337643765376B07D8A06C0769AF38EF17
:10126A0009F03AEF09F01EEF09F0000E616F65AF61
:10127A0041EF09F043EF09F067EF09F0FF0E62153D
:10128A00226EFF0E6315236EFF0E6415246E7F0E09
:10129A006515256E2250231024102510D8B458EF56
:1012AA0009F05AEF09F05EEF09F0010E616F67EF7E
:1012BA0009F067A163EF09F065EF09F067EF09F03C
:1012CA005AEF09F06151D8B46DEF09F06FEF09F0E8
:1012DA0093EF09F0010E6727000E682369236A233A
:1012EA006AA17AEF09F07CEF09F093EF09F067C081
:1012FA0022F068C023F069C024F06AC025F02534C2
:10130A00253224322332223222C067F023C068F009
:10131A0024C069F025C06AF06B4B6C2B6CBF9EEF42
:10132A0009F06C5108E16B29D8A09EEF09F0A0EFF3
:10133A0009F0AAEF09F0000E676F000E686F800EC1
:10134A00696F7F0E6A6FD8EF09F06CBFB7EF09F0CB
:10135A006C5106E16B05D8B0B5EF09F0B7EF09F0AB
:10136A00C3EF09F0000E676F000E686F000E696F19
:10137A00000E6A6F000E606FD8EF09F06BC066F05E
:10138A00FF0E6717FF0E68177F0E6917000E6A17A0
:10139A0066A1D2EF09F0D4EF09F0D5EF09F0698F11
:1013AA00D89066316A6F60516A1367C01AF068C0D4
:1013BA001BF069C01CF06AC01DF012008FC0D9FF73
:1013CA0090C0DAFFDECFF6FFDDCFF7FFF86A08003C
:1013DA00F550250AD8A4F4EF09F0F6EF09F0D9EF91
:1013EA000BF08FC0D9FF90C0DAFFDE2A000EDD2293
:1013FA00000E366E000E356E35C03DF0376838681F
:10140A008FC0D9FF90C0DAFFDECFF6FFDDCFF7FF3E
:10141A00F86A0800F5502A0AD8A416EF0AF018EF5D
:10142A000AF041EF0AF08FC0D9FF90C0DAFFDE2A36
:10143A00000EDD2291C0D9FF92C0DAFFDFCF93F010
:10144A00020EDE26DFCF94F0000EDD2293C0D9FF14
:10145A0094C0DAFFDECF35F0DDCF36F036BE3AEF94
:10146A000AF038EF0AF076EF0AF03D80356C361E46
:10147A00D8B0362A76EF0AF08FC0D9FF90C0DAFFCB
:10148A00DECF20F0DDCF21F04FEC13F020C035F095
:10149A0021C036F058EF0AF08FC0D9FF90C0DAFFAA
:1014AA00DE2A000EDD228FC0D9FF90C0DAFFDECF20
:1014BA00F6FFDDCFF7FFF86A0800F5CF93F0D00EFC
:1014CA0000019325946F956BFF0E9523955109E1C1
:1014DA000A0E945DD8A074EF0AF076EF0AF051EF85
:1014EA000AF08FC0D9FF90C0DAFFDECFF6FFDDCF5A
:1014FA00F7FFF86A0800F5502E0AD8A487EF0AF019
:10150A0089EF0AF0F9EF0AF0000E386E000E376E16
:10151A008FC0D9FF90C0DAFFDE2A000EDD228FC00D
:10152A00D9FF90C0DAFFDECFF6FFDDCFF7FFF86A0A
:10153A000800F5502A0AD8A4A5EF0AF0A7EF0AF086
:10154A00C4EF0AF08FC0D9FF90C0DAFFDE2A000E7E
:10155A00DD2291C0D9FF92C0DAFFDFCF93F0020EED
:10156A00DE26DFCF94F0000EDD2293C0D9FF94C0AF
:10157A00DAFFDECF37F0DDCF38F0F9EF0AF08FC0AF
:10158A00D9FF90C0DAFFDECF20F0DDCF21F04FEC9B
:10159A0013F020C037F021C038F0DBEF0AF08FC01B
:1015AA00D9FF90C0DAFFDE2A000EDD228FC0D9FFF4
:1015BA0090C0DAFFDECFF6FFDDCFF7FFF86A08004A
:1015CA00F5CF93F0D00E00019325946F956BFF0E23
:1015DA009523955109E10A0E945DD8A0F7EF0AF018
:1015EA00F9EF0AF0D4EF0AF08FC0D9FF90C0DAFF02
:1015FA00DECF9FF0DDCFA0F09FC0F6FFA0C0F7FFBF
:10160A00F86A0800F550640AD8B40EEF0BF010EF30
:10161A000BF01FEF0BF09FC0F6FFA0C0F7FFF86AB0
:10162A000800F550690AD8A41DEF0BF01FEF0BF064
:10163A0063EF0BF091C0D9FF92C0DAFFDFCF93F0CE
:10164A00020EDE26DFCF94F0000EDD2293C0D9FF12
:10165A0094C0DAFFDECF97F0DDCF98F00001000EDC
:10166A0098BFFF0E996F9A6F9B6F9C6F9D6F9E6FCD
:10167A00010E9F25936F000EA021946F8FC0D9FF92
:10168A0090C0DAFF93C0DEFF94C0DDFF8DC06AF020
:10169A008EC06BF097C06CF098C06DF099C06EF078
:1016AA009AC06FF09BC070F09CC071F09DC072F040
:1016BA009EC073F0BDEC0DF0EEEF0BF09FC0F6FF8D
:1016CA00A0C0F7FFF86A0800F550750AD8A470EFB1
:1016DA000BF072EF0BF0D0EF0BF091C0D9FF92C074
:1016EA00DAFFDFCF93F0020EDE26DFCF94F0000E92
:1016FA00DD2293C0D9FF94C0DAFFDECF95F0DDCFAB
:10170A0096F095C097F096C098F00001996B9A6B85
:10171A009B6B9C6B9D6B9E6B010E9F25936F000EBE
:10172A00A021946F8FC0D9FF90C0DAFF93C0DEFF6B
:10173A0094C0DDFFB9EF0BF08DC06AF08EC06BF07C
:10174A0097C06CF098C06DF099C06EF09AC06FF0B7
:10175A009BC070F09CC071F09DC072F09EC073F087
:10176A0019EC10F0EEEF0BF09FC0F6FFA0C0F7FFE8
:10177A00F86A0800F550936F946B9451000AD8B434
:10178A00C9EF0BF0D0EF0BF09351750AD8B4A1EF63
:10179A000BF0D0EF0BF08FC0D9FF90C0DAFFDE2A32
:1017AA00000EDD22EEEF0BF08FC0D9FF90C0DAFFFA
:1017BA00DECFF6FFDDCFF7FFF86A0800F5501C6EA2
:1017CA001D6A8DC01EF08EC01FF042EC17F0D0EFDC
:1017DA000BF0120000017051800B796F7051702567
:1017EA00806F6FAFFBEF0BF0FDEF0BF0FEEF0BF02E
:1017FA0080818051D8B404EF0CF006EF0CF01BEF97
:10180A000CF08029D8A40CEF0CF00EEF0CF016EFB8
:10181A000CF0000E6D6F000E6E6F000E6F6F000EF3
:10182A00706F6F8F000E706F23EF0CF0000E6D6FEC
:10183A00000E6E6F000E6F6F000E706F7451800B8A
:10184A00791B74517425816F73AF2EEF0CF030EF52
:10185A000CF031EF0CF081818151D8B437EF0CF0E4
:10186A0039EF0CF04EEF0CF08129D8A43FEF0CF0C1
:10187A0041EF0CF049EF0CF0000E716F000E726F21
:10188A00000E736F000E746F738F000E746F56EF35
:10189A000CF0000E716F000E726F000E736F000E67
:1018AA00746F7151721173117411D8A45FEF0CF037
:1018BA0061EF0CF079EF0CF0000E6D6F000E6E6F99
:1018CA00000E6F6F000E706F800E6F137F0E701315
:1018DA00795170136DC06DF06EC06EF06FC06FF00D
:1018EA0070C070F0BCEF0DF08051D8A47FEF0CF0FF
:1018FA0081EF0CF08BEF0CF0000E6D6F000E6E6F27
:10190A00000E6F6F000E706FBCEF0DF0815180C03A
:10191A0026F0276A265E000E275A7F0E26247A6F43
:10192A00000E27207B6F6DC075F06EC076F06FC019
:10193A0077F070C078F0000E6D6F000E6E6F000EBB
:10194A006F6F000E706F000E7C6F000E7D6F000EC1
:10195A007E6F000E7F6F000E816FECEF0CF08151ED
:10196A00D8B4BAEF0CF0BCEF0CF0D3EF0CF0D8906F
:10197A007537763777377837D8906D376E376F3750
:10198A0070377FAFCBEF0CF0CDEF0CF0CEEF0CF051
:10199A006D81D8907C377D377E377F377151755D81
:1019AA00725176597351775974517859D8A0E0EF2A
:1019BA000CF0E2EF0CF0EBEF0CF07F8D7151755FDC
:1019CA007251765B7351775B7451785B812B190E78
:1019DA008165F2EF0CF0F4EF0CF0B4EF0CF07551F6
:1019EA00761177117811D8B4FDEF0CF0FFEF0CF0F7
:1019FA0017EF0DF07C8117EF0DF0D8906D376E3729
:101A0A006F3770377FAF0CEF0DF00EEF0DF00FEF61
:101A1A000DF06D81D8907C377D377E377F377A0716
:101A2A00D8A07B076FAF1CEF0DF01EEF0DF002EF91
:101A3A000DF0000E816F7FAF25EF0DF027EF0DF04F
:101A4A004BEF0DF0FF0E7C15266EFF0E7D15276EEF
:101A5A00FF0E7E15286E7F0E7F15296E26502710E1
:101A6A0028102910D8B43CEF0DF03EEF0DF042EFEC
:101A7A000DF0010E816F4BEF0DF06DA147EF0DF0E8
:101A8A0049EF0DF04BEF0DF03EEF0DF08151D8B458
:101A9A0051EF0DF053EF0DF077EF0DF0010E6D27BA
:101AAA00000E6E236F23702370A15EEF0DF060EFBE
:101ABA000DF077EF0DF06DC026F06EC027F06FC005
:101ACA0028F070C029F029342932283227322632E8
:101ADA0026C06DF027C06EF028C06FF029C070F0E4
:101AEA007A4B7B2B7BBF82EF0DF07B5108E17A2981
:101AFA00D8A082EF0DF084EF0DF08FEF0DF0000EFD
:101B0A007B6F7A69000E6D6F000E6E6F000E6F6F3D
:101B1A00000E706F7BBF9CEF0DF07B5106E17A05DA
:101B2A00D8B09AEF0DF09CEF0DF0AAEF0DF0000E71
:101B3A007B6F000E7A6F000E6D6F000E6E6F000ED7
:101B4A006F6F000E706F000E796F7AC080F080A1FF
:101B5A00B1EF0DF0B3EF0DF0B6EF0DF06F8FB7EFF9
:101B6A000DF06F9FD8908031706F6DEF0CF01200FE
:101B7A006CC082F06DC083F06EC084F06FC085F0D7
:101B8A0070C086F071C087F072C088F073C089F0A7
:101B9A00000189BFD3EF0DF0D6EF0DF0010ED7EF9C
:101BAA000DF0000E8A6F8A51D8B4DEEF0DF0E0EF27
:101BBA000DF0F0EF0DF0891F881F871F861F851F04
:101BCA00841F831F826D000E83238423852386232B
:101BDA0087238823892338BEFDEF0DF0385006E1AC
:101BEA003704D8B0FBEF0DF0FDEF0DF003EF0EF068
:101BFA00000E7F6F010E7E6F07EF0EF037C07EF08A
:101C0A0038C07FF035C080F036C081F08A51D8B430
:101C1A0011EF0EF013EF0EF02AEF0EF08007D8A0A6
:101C2A0081078A51D8A41CEF0EF01EEF0EF024EFA4
:101C3A000EF0000E7D6F2B0E7C6F28EF0EF0000E5B
:101C4A007D6F2D0E7C6F7CC08AF0000E8C6F1F0E8C
:101C5A008B6F000EF76FAFEF0EF08B07D8A08C07D3
:101C6A00D80E8B25D96E000E8C21DA6E82C01AF03E
:101C7A0083C01BF084C01CF085C01DF086C01EF016
:101C8A0087C01FF088C020F089C021F00A0E226E9A
:101C9A00000E236E000E246E000E256E000E266EB8
:101CAA00000E276E000E286E000E296E9DEC12F0B3
:101CBA001AC074F01BC075F01CC076F01DC077F016
:101CCA001EC078F01FC079F020C07AF021C07BF0E6
:101CDA0074C060F075C061F09EEC1AF000016051AA
:101CEA00300FDF6E7E07D8A07F078007D8A0810754
:101CFA0082C01AF083C01BF084C01CF085C01DF09E
:101D0A0086C01EF087C01FF088C020F089C021F06D
:101D1A000A0E226E000E236E000E246E000E256E31
:101D2A00000E266E000E276E000E286E000E296E1B
:101D3A00D8EC11F01AC082F01BC083F01CC084F0EA
:101D4A001DC085F01EC086F01FC087F020C088F035
:101D5A0021C089F000018CBFBBEF0EF08C5108E165
:101D6A008B05D8A0BBEF0EF0BDEF0EF0D9EF0EF049
:101D7A008251831184118511861187118811891165
:101D8A00D8A4CAEF0EF0CCEF0EF032EF0EF07FBF00
:101D9A00D9EF0EF07F5106E17E05D8B0D7EF0EF0ED
:101DAA00D9EF0EF032EF0EF08A51D8B4DFEF0EF011
:101DBA00E1EF0EF0ECEF0EF08B07D8A08C07D80EEF
:101DCA008B25D96E000E8C21DA6E8AC0DFFF6AC0BD
:101DDA0060F06BC061F0D80E8B25626F000E8C210B
:101DEA00636F80C064F081C065F049EC16F01200A0
:101DFA00B5EC1CF03BEC1DF0F28EF28C6C0E1A6EF8
:101E0A00360E1B6E76EC1DF09A0E1A6E380E1B6E8D
:101E1A007BEC1DF0000E0101036F000E026F000E35
:101E2A000C6F000E0B6F54EC1DF00101046FFCECFB
:101E3A001BF026C000F127C001F1F9EC13F082C0B3
:101E4A0007F183C008F184C009F185C00AF18DB297
:101E5A0031EF0FF033EF0FF03BEF0FF0000E276E6C
:101E6A00010E266E2FEC1AF00101056F8DB440EFBA
:101E7A000FF042EF0FF04AEF0FF0000E276E020E3E
:101E8A00266E2FEC1AF00101066F000E1A6E000E74
:101E9A001B6E200E1C6E410E1D6E07C11EF008C17E
:101EAA001FF009C120F00AC121F084EC14F0D8B067
:101EBA0061EF0FF063EF0FF076EF0FF001010CBF47
:101ECA0072EF0FF00C5107E1050E0B5DD8B070EF01
:101EDA000FF072EF0FF076EF0FF00B4B0C2BA5EF14
:101EEA000FF0000E1A6E000E1B6E200E1C6E410EB5
:101EFA001D6E07C11EF008C11FF009C120F00AC1FA
:101F0A0021F084EC14F0D8B08DEF0FF08FEF0FF0C2
:101F1A00A0EF0FF001010CBF9CEF0FF00C5109E18B
:101F2A00050E0B5DD8A09CEF0FF09EEF0FF0A0EF0F
:101F3A000FF04DEC1CF0000E01010C6F000E0B6F40
:101F4A0011EC1CF00009D8B4ADEF0FF0AFEF0FF0B1
:101F5A0018EF0FF0540E0001A96F0F0EAA6F0101BE
:101F6A00024B032B02C1ABF003C1ACF0D6C0ADF0FB
:101F7A00D7C0AEF026EC1CF07F0E0001A96F0F0E41
:101F8A00AA6F04C1ABF0AC6B26EC1CF08C0E0001FE
:101F9A00A96F0F0EAA6F00C1ABF001C1ACF026EC1D
:101FAA001CF06A0E0001A96F0F0EAA6F07C1ABF0F1
:101FBA0008C1ACF009C1ADF00AC1AEF026EC1CF0C4
:101FCA00210E0001A96F0F0EAA6F05C1ABF0AC6B11
:101FDA0026EC1CF03B0E0001A96F0F0EAA6F06C17A
:101FEA00ABF0AC6B26EC1CF084BAFEEF0FF001EFFD
:101FFA0010F0010E02EF10F0000EFF0A0001B16F9F
:10200A00B13BB1478450B119DF0BB119846E340E5C
:10201A000001B16FF10EE82EFED7B12FFCD700D028
:10202A0018EF0FF075EF00F038BE26EF10F03850B9
:10203A0006E13704D8B024EF10F026EF10F02DEFA8
:10204A0010F0000E00017F6F010E7E6F31EF10F06D
:10205A0037C07EF038C07FF035C07CF036C07DF0E6
:10206A006CC080F06DC081F06EC082F06FC083F0EA
:10207A0070C084F071C085F072C086F073C087F0BA
:10208A00000E0001896F1F0E886F000EF76FC5EFF3
:10209A0010F08807D8A08907D80E8825D96E000EB7
:1020AA008921DA6E80C01AF081C01BF082C01CF050
:1020BA0083C01DF084C01EF085C01FF086C020F0CA
:1020CA0087C021F00A0E226E000E236E000E246EC7
:1020DA00000E256E000E266E000E276E000E286E6C
:1020EA00000E296E7FEC15F01AC074F01BC075F053
:1020FA001CC076F01DC077F01EC078F01FC079F0C2
:10210A0020C07AF021C07BF000017451300FDF6EDD
:10211A007E07D8A07F077C07D8A07D0780C01AF069
:10212A0081C01BF082C01CF083C01DF084C01EF069
:10213A0085C01FF086C020F087C021F00A0E226EEB
:10214A00000E236E000E246E000E256E000E266E03
:10215A00000E276E000E286E000E296E06EC15F092
:10216A001AC080F01BC081F01CC082F01DC083F031
:10217A001EC084F01FC085F020C086F021C087F001
:10218A00000188518911D8B4CDEF10F0CFEF10F0CB
:10219A00EBEF10F0805181118211831184118511A6
:1021AA0086118711D8A4DCEF10F0DEEF10F04EEFA5
:1021BA0010F07FBFEBEF10F07F5106E17E05D8B03B
:1021CA00E9EF10F0EBEF10F04EEF10F06AC060F09C
:1021DA006BC061F0D80E8825626F000E8921636F8B
:1021EA007CC064F07DC065F049EC16F01200000175
:1021FA00606F00016051D8B405EF11F007EF11F0DC
:10220A0029EF11F024BE0EEF11F00CEF11F029EFB7
:10221A0011F021C025F022C026F023C027F024C0E7
:10222A0028F0251E261E271E281E252A000E2622D5
:10223A002722282225C062F026C063F027C064F056
:10224A0028C065F031EF11F021C062F022C063F0BE
:10225A0023C064F024C065F02150221023102410FA
:10226A00D8A43AEF11F03CEF11F046EF11F0000E4E
:10227A00216E000E226E000E236E000E246ED7EF22
:10228A0011F0960E616F50EF11F0612BD890653303
:10229A00643363336233000E6215256E000E6315D4
:1022AA00266E000E6415276EFE0E6515286E2550E3
:1022BA00261027102810D8A465EF11F067EF11F047
:1022CA004AEF11F075EF11F0612B010E6227000E33
:1022DA00632364236523D89065336433633362339D
:1022EA00000E6215256E000E6315266E000E64152B
:1022FA00276EFF0E6515286E255026102710281008
:10230A00D8A48AEF11F08CEF11F069EF11F094EF75
:10231A0011F06107D890623763376437653764BF55
:10232A0099EF11F09BEF11F0A3EF11F0020E61612A
:10233A00A1EF11F0A3EF11F08EEF11F061B1A8EF48
:10234A0011F0AAEF11F0ABEF11F0649FD89061334E
:10235A0061C025F0266A276A286A25C028F0276AFC
:10236A00266A256A25506213265063132750641380
:10237A00285065136051D8B4C5EF11F0C7EF11F0BA
:10238A00CFEF11F024BECEEF11F0CCEF11F0CFEF6A
:10239A0011F0658F62C021F063C022F064C023F09F
:1023AA0065C024F01200000E0001616F29BEE2EF41
:1023BA0011F0E0EF11F0F4EF11F0291E281E271E8C
:1023CA00261E251E241E231E226C000E23222422D2
:1023DA0025222622272228222922010E616F21BEC8
:1023EA00FBEF11F0F9EF11F00DEF12F0211E201E94
:1023FA001F1E1E1E1D1E1C1E1B1E1A6C000E1B22DB
:10240A001C221D221E221F2220222122010E611BB4
:10241A0020EE62F0070EDE6AE806FDE22250231083
:10242A00241025102610271028102910D8B420EFC0
:10243A0012F022EF12F074EF12F0010E606F30EF1B
:10244A0012F0D890223623362436253626362736F9
:10245A0028362936602B29AE35EF12F037EF12F005
:10246A0026EF12F0D89062376337643765376637DC
:10247A0067376837693722501A5C23501B58245033
:10248A001C5825501D5826501E5827501F58285092
:10249A00205829502158D8A055EF12F057EF12F0C2
:1024AA0068EF12F022501A5E23501B5A24501C5A0D
:1024BA0025501D5A26501E5A27501F5A2850205A56
:1024CA002950215A6281D89029322832273226325D
:1024DA002532243223322232602F37EF12F0615133
:1024EA00D8B47AEF12F07CEF12F08CEF12F0691F79
:1024FA00681F671F661F651F641F631F626D000EDA
:10250A00632364236523662367236823692362C0E0
:10251A001AF063C01BF064C01CF065C01DF066C0F1
:10252A001EF067C01FF068C020F069C021F01200D9
:10253A00000E2B6E21BEA6EF12F0A4EF12F0B8EF38
:10254A0012F0211E201E1F1E1E1E1D1E1C1E1B1EDB
:10255A001A6C000E1B221C221D221E221F22202260
:10256A002122010E2B6E29BEBFEF12F0BDEF12F031
:10257A00CFEF12F0291E281E271E261E251E241EF6
:10258A00231E226C000E2322242225222622272201
:10259A002822292222502310241025102610271021
:1025AA0028102910D8B4DCEF12F0DEEF12F026EF73
:1025BA0013F0010E2A6EECEF12F0D8902236233671
:1025CA002436253626362736283629362A2A29AEAB
:1025DA00F1EF12F0F3EF12F0E2EF12F022501A5C70
:1025EA0023501B5824501C5825501D5826501E583D
:1025FA0027501F582850205829502158D8A008EF92
:10260A0013F00AEF13F01AEF13F022501A5E235058
:10261A001B5A24501C5A25501D5A26501E5A275000
:10262A001F5A2850205A2950215AD8902932283224
:10263A002732263225322432233222322A2EF3EF4F
:10264A0012F02B50D8B42CEF13F02EEF13F03EEF0C
:10265A0013F0211E201E1F1E1E1E1D1E1C1E1B1EC9
:10266A001A6C000E1B221C221D221E221F2220224F
:10267A0021221AC01AF01BC01BF01CC01CF01DC07E
:10268A001DF01EC01EF01FC01FF020C020F021C088
:10269A0021F01200000E286E000E276E000E266E24
:1026AA00000E256E5BEF13F0204A212A20C0F6FFA8
:1026BA0021C0F7FFF86A0800F550200AD8B468EF7D
:1026CA0013F06AEF13F059EF13F020C0F6FF21C0A0
:1026DA00F7FFF86A0800F5CF22F0F70E2224236EDE
:1026EA00246AFF0E2422245009E1050E235CD8A097
:1026FA0081EF13F083EF13F059EF13F08DEF13F01E
:10270A00000E266E010E256E204A212AC4EF13F010
:10271A0020C0F6FF21C0F7FFF86A0800F550226EC4
:10272A00236A2350000AD8B49DEF13F0C4EF13F0C4
:10273A0022502B0AD8B489EF13F0060AD8B485EFD1
:10274A0013F0C4EF13F027C01AF028C01BF0000ED4
:10275A001D6E0A0E1C6E3AEC1CF020C0F6FF21C05A
:10276A00F7FFF86A0800F5501A5E000E1B5A300E81
:10277A001A24276E000E1B20286E89EF13F020C042
:10278A00F6FF21C0F7FFF86A0800F5CF22F0D00E55
:10279A002224236E246AFF0E2422245009E10A0E01
:1027AA00235CD8A0DBEF13F0DDEF13F0A8EF13F0F2
:1027BA0025502610D8A4E4EF13F0E6EF13F0F4EF57
:1027CA0013F027C022F028C023F0221E231E224A1B
:1027DA00232A22C020F023C021F0F8EF13F027C0EB
:1027EA0020F028C021F01200E7EC1BF02D502F5CDE
:1027FA001C6E2E5030581D6E3150335C1A6E32509A
:10280A0034581B6E85EC18F01AC021F01BC022F058
:10281A00236A246A000EFCEC10F021C086F022C064
:10282A0087F023C088F024C089F0000E1E6E000EC7
:10283A001F6E000E206E400E216E86C01AF087C0F1
:10284A001BF088C01CF089C01DF0CDEC07F01AC03F
:10285A008EF01BC08FF01CC090F01DC091F0DB0EF3
:10286A001E6E0F0E1F6E490E206E400E216E8EC018
:10287A001AF08FC01BF090C01CF091C01DF0CDEC77
:10288A0007F01AC092F01BC093F01CC094F01DC050
:10289A0095F08F0E1E6EC20E1F6E750E206E3C0EC8
:1028AA00216E92C01AF093C01BF094C01CF095C020
:1028BA001DF0CDEC07F01AC06DF01BC06EF01CC005
:1028CA006FF01DC070F0000E0001716F000E726F84
:1028DA00800E736F450E746FEFEC0BF06DC08AF0CB
:1028EA006EC08BF06FC08CF070C08DF08AC082F021
:1028FA008BC083F08CC084F08DC085F01200000E6E
:10290A001A14226E000E1B14236E800E1C14246EE1
:10291A007F0E1D14256E2250231024102510D8A4D2
:10292A0099EF14F09BEF14F0A3EF14F0000E1A6E57
:10293A00000E1B6E000E1C6E000E1D6E000E1E1485
:10294A00226E000E1F14236E800E2014246E7F0E3A
:10295A002114256E2250231024102510D8A4B8EF74
:10296A0014F0BAEF14F0C2EF14F0000E1E6E000E4F
:10297A001F6E000E206E000E216E1DAEC7EF14F002
:10298A00C9EF14F0D2EF14F01A6C1B1ED8B01B2A30
:10299A001C1ED8B01C2A800E1D5621AED7EF14F08B
:1029AA00D9EF14F0E2EF14F01E6C1F1ED8B01F2AE4
:1029BA00201ED8B0202A800E2156000E1A1A000EA8
:1029CA001B1A000E1C1A800E1D1A000E1E1A000E6B
:1029DA001F1A000E201A800E211A1E501A5C1F5050
:1029EA001B5820501C5821501D58D8B0FFEF14F026
:1029FA0001EF15F004EF15F0D89005EF15F0D88027
:102A0A00120020EE60F0070EDE6AE806FDE22250B0
:102A1A002310241025102610271028102910D8B4A6
:102A2A0019EF15F01BEF15F06EEF15F0010E00010E
:102A3A00686F2AEF15F0D8902236233624362536C9
:102A4A002636273628362936682B29AE2FEF15F079
:102A5A0031EF15F020EF15F0D89060376137623703
:102A6A006337643765376637673722501A5C2350F5
:102A7A001B5824501C5825501D5826501E582750A4
:102A8A001F582850205829502158D8A04FEF15F028
:102A9A0051EF15F062EF15F022501A5E23501B5ABF
:102AAA0024501C5A25501D5A26501E5A27501F5A68
:102ABA002850205A2950215A6081D8902932283228
:102ACA00273226322532243223322232682F31EF3E
:102ADA0015F060C01AF061C01BF062C01CF063C040
:102AEA001DF064C01EF065C01FF066C020F067C00C
:102AFA0021F012002250231024102510261027102E
:102B0A0028102910D8B48CEF15F08EEF15F0D6EFF7
:102B1A0015F0010E2A6E9CEF15F0D8902236233656
:102B2A002436253626362736283629362A2A29AE45
:102B3A00A1EF15F0A3EF15F092EF15F022501A5CF1
:102B4A0023501B5824501C5825501D5826501E58D7
:102B5A0027501F582850205829502158D8A0B8EF7C
:102B6A0015F0BAEF15F0CAEF15F022501A5E23508D
:102B7A001B5A24501C5A25501D5A26501E5A27509B
:102B8A001F5A2850205A2950215AD89029322832BF
:102B9A002732263225322432233222322A2EA3EF3A
:102BAA0015F01AC01AF01BC01BF01CC01CF01DC087
:102BBA001DF01EC01EF01FC01FF020C020F021C053
:102BCA0021F0120031EC1DF00009D8B4EFEF15F036
:102BDA00F1EF15F02CEF16F0FFEF15F0AFEC1DF04A
:102BEA0048EF16F0ABEC1DF048EF16F0A3EC1DF021
:102BFA0048EF16F0C4C00AF0C5C00BF002D810EFB7
:102C0A0016F00500FA6E0001B851FD6EB951FE6E5C
:102C1A00FF6AFA5012000C6E0D6A0D50000AD8B401
:102C2A0019EF16F0FBEF15F00C50010AD8B4FBEFC0
:102C3A0015F0030AD8B4F3EF15F0010AD8B4F7EF88
:102C4A0015F0070AD8B4FBEF15F0FBEF15F00001F9
:102C5A00D591CFC0D9FFD0C0DAFFCF4BD02BDF50F0
:102C6A00B3EC1DF00001D107D8A0D207D151D2117F
:102C7A00D8A442EF16F044EF16F047EF16F0060E0E
:102C8A0048EF16F0030E12003DA04EEF16F050EF7B
:102C9A0016F05AEF16F062C025F063C026F060C045
:102CAA0027F061C028F07CEC1AF0000165BF60EFE4
:102CBA0016F062EF16F068EF16F064C068F065C0AF
:102CCA0069F06CEF16F0000E696F000E686F000E67
:102CDA00676F000E666F7FEF16F0000E1D6E200EF6
:102CEA001C6E60C01EF061C01FF042EC17F00001BC
:102CFA00664B672B6851665D6751800A2C6E695175
:102D0A00800A2C58D8A08CEF16F08EEF16F072EFCE
:102D1A0016F03DB093EF16F095EF16F09FEF16F010
:102D2A0062C025F063C026F060C027F061C028F0B9
:102D3A007CEC1AF01200DDEC1DF0CFC0D9FFD0C038
:102D4A00DAFFDF6E0001CF4BD02BD107D8A0D20714
:102D5A00D151D211D8B4B4EF16F0B6EF16F0BBEFDA
:102D6A0016F0CFEC1DF0050EF2EF16F0D587C6EF80
:102D7A0016F097EC1DF0F2EF16F09BEC1DF0F2EF57
:102D8A0016F0BEC00AF0BFC00BF002D8D6EF16F09C
:102D9A000500FA6EB251FD6EB351FE6EFF6AFA502B
:102DAA0012000C6E0D6A0D50000AD8B4DFEF16F04F
:102DBA00C2EF16F00C50010AD8B4C2EF16F0030A9B
:102DCA00D8B4BEEF16F0010AD8B4BEEF16F0070A5F
:102DDA00D8B4C2EF16F0C2EF16F012001C6E010E44
:102DEA001D6E0001D5B5FCEF16F0FEEF16F040EFB0
:102DFA0017F01CC0CEF0D593D585D5910E0ED36FA2
:102E0A00010ECD6FF40ECC6FD587C60EB26F3B0E96
:102E1A00B36F000EBE6F000EBF6FC60EB46F3B0ECF
:102E2A00B56F000EC06F000EC16FC60EB66F3B0EB7
:102E3A00B76F000EC26F000EC36FC60EB86F3B0E9F
:102E4A00B96F000EC46F000EC56FC20EBA6F3B0E8B
:102E5A00BB6F000EC66F000EC76F8C0E1A6E3B0E4C
:102E6A001B6E71EC1DF0C3EC1DF095EC1CF0BDEC73
:102E7A001DF0000E1D6E1D5012001E501F10D8B4FA
:102E8A0049EF17F04BEF17F054EF17F01E501F10D1
:102E9A00D8A452EF17F054EF17F059EF17F01C505F
:102EAA006CEC1DF08CEF17F020EE09F01E50D926BD
:102EBA001F50DA22DE50DE10D8B466EF17F068EF42
:102ECA0017F083EF17F020EE09F01E50D9261F5095
:102EDA00DA2210EE03F01E50E1261F50E222DE50E5
:102EEA00E65CE650800A246EDE50800A2458D8B088
:102EFA0081EF17F083EF17F08CEF17F020EE03F055
:102F0A001E50D9261F50DA22DE2A000EDD221200B8
:102F1A00000E836E000E846E000E856EE70E886EBC
:102F2A00C00E896EBF0E8A6E270E0F01216FC00E6A
:102F3A00196FF80E116F000E2D6F000E186F000E2C
:102F4A00106F000E206F000E0F6F000E176F000E2D
:102F5A001F6F0E6916691E690D6915691D69080ECC
:102F6A002A6F0A910B810C91000E1A6E000E1B6ECD
:102F7A007BEC1DF0130E0E01B76F170EB56F0F0E17
:102F8A00FA6F100EFB6F090EFD6F140EB86F120068
:102F9A000001D587DEEF17F0A7EC1DF00AEF18F055
:102FAA00CCEC1DF0030E0AEF18F0A3EC1DF00AEFAB
:102FBA0018F0BEC00AF0BFC00BF002D8EEEF17F04F
:102FCA000500FA6EB251FD6EB351FE6EFF6AFA50F9
:102FDA0012000C6E0D6A0D50000AD8B4F7EF17F004
:102FEA00DAEF17F00C50010AD8B4DAEF17F0030A37
:102FFA00D8B4D1EF17F0010AD8B4D1EF17F0070A05
:10300A00D8B4D5EF17F0DAEF17F012001E6E1A5087
:10301A001B10D8B413EF18F015EF18F02FEF18F0B3
:10302A001E50020DB20EF324D96E000EF420DA6E91
:10303A001AC0DEFF1BC0DDFF1E50020DBE0EF324B8
:10304A00D96E000EF420DA6E1CC0DEFF1DC0DDFF53
:10305A0047EF18F01E50020DB20EF324D96E000E7F
:10306A00F420DA6EC60EDE6E3B0EDD6E1E50020DC9
:10307A00BE0EF324D96E000EF420DA6E000EDE6E58
:10308A00000EDD6E1200056E01500210D8B450EF2A
:10309A0018F052EF18F06CEF18F00550020DB20E4E
:1030AA00F324D96E000EF420DA6E01C0DEFF02C0EE
:1030BA00DDFF0550020DBE0EF324D96E000EF4207A
:1030CA00DA6E03C0DEFF04C0DDFF84EF18F005509E
:1030DA00020DB20EF324D96E000EF420DA6EC60E7B
:1030EA00DE6E3B0EDD6E0550020DBE0EF324D96E68
:1030FA00000EF420DA6E000EDE6E000EDD6E120097
:10310A00000E206E000E1F6E1C501D10D8B490EFDA
:10311A0018F092EF18F0BAEF18F0010E1E6E9AEF3F
:10312A0018F0D8901C361D361E2A1DAE9FEF18F0D7
:10313A00A1EF18F096EF18F0D8901F3620361C50E1
:10314A001A5C1D501B58D8A0ADEF18F0AFEF18F05D
:10315A00B4EF18F01C501A5E1D501B5A1F80D890ED
:10316A001D321C321E2EA1EF18F01FC01AF020C00B
:10317A001BF01200246E000E256E2450F3EC16F09C
:10318A000009D8B4CBEF18F0CDEF18F0C2EF18F061
:10319A00760E1F6E370E206E250E216E000E226EE1
:1031AA00ECEC1CF0230E1A6E000E1B6E000E1D6E48
:1031BA00010E1C6E60EC1CF0000E1F6E000E206EDD
:1031CA00000E216E000E226EF8EC1CF093EC1DF03E
:1031DA0063EC1BF0E806D8B4F5EF18F0F7EF18F037
:1031EA00EDEF18F025501200C9EC1DF00001D5A131
:1031FA0001EF19F003EF19F010EF19F031EC1DF09F
:10320A000009D8B40BEF19F00DEF19F010EF19F00F
:10321A000F0E0001D36F0001D351020D010EF324EA
:10322A00F66E0F0EF420F76EF86A000EF822090007
:10323A00F5CF0EF00900F5CF0FF002D82EEF19F0F6
:10324A000500FA6E0E50FD6E0F50FE6EFF6AFA50C0
:10325A0012000001D36F1200256E2550F3EC16F010
:10326A000009D8B43BEF19F03DEF19F032EF19F02D
:10327A001E0E1F6E370E206E240E216E000E226E59
:10328A00ECEC1CF0230E1A6E000E1B6E000E1D6E67
:10329A00010E1C6E60EC1CF0000E1F6E000E206EFC
:1032AA00000E216E000E226EF8EC1CF093EC1DF05D
:1032BA0063EC1BF0E806D8B465EF19F067EF19F074
:1032CA005DEF19F012003F0E266E020E276EC00E39
:1032DA00C4EC1CF0290E2B6E960E2A6E7F0EE82E79
:1032EA00FED72A2EFCD72B2EFAD700F03F0E266ED9
:1032FA00020E276ED00EC4EC1CF03F0E266E000E96
:10330A00276ED00EC4EC1CF03F0E266E010E276EFF
:10331A00C00EC4EC1CF0290E2B6E960E2A6E7F0E80
:10332A00E82EFED72A2EFCD72B2EFAD700F0120051
:10333A003F0E266E010E276EC00EC4EC1CF0290E3D
:10334A002B6E960E2A6E7F0EE82EFED72A2EFCD7FB
:10335A002B2EFAD700F03F0E266E020E276ED00EE5
:10336A00C4EC1CF03F0E266E000E276ED00EC4EC85
:10337A001CF03F0E266E020E276EC00EC4EC1CF027
:10338A00290E2B6E960E2A6E7F0EE82EFED72A2E57
:10339A00FCD72B2EFAD700F012000001D591020EAD
:1033AA00D46FE0EF19F0A7EC1DF004EF1AF0A3ECCC
:1033BA001DF004EF1AF0C2C00AF0C3C00BF002D825
:1033CA00F0EF19F00500FA6EB651FD6EB751FE6EB8
:1033DA00FF6AFA5012000C6E0D6A0D50000AD8B43A
:1033EA00F9EF19F0DCEF19F00C50020AD8B4D8EF53
:1033FA0019F0010AD8B4D8EF19F0DCEF19F012006D
:10340A00A3C0A7F0A4C0A8F01AEF1AF0A1C08DF0CB
:10341A00A2C08EF0A70E00018F6F000E906FA5C09C
:10342A0091F0A6C092F0E3EC09F0A7C0F6FFA8C09D
:10343A00F7FFF86A0800F5500009D8A427EF1AF038
:10344A0029EF1AF00BEF1AF0000E0001A26F000E1E
:10345A00A16F120042EF1AF0010E236ED10EBFECDB
:10346A0018F058EF1AF0010E236ED10EBFEC18F0C7
:10347A0058EF1AF0000E58EF1AF026C028F027C0AD
:10348A0029F02950000AD8B44DEF1AF03FEF1AF08C
:10349A002850010AD8B431EF1AF0030AD8B438EF29
:1034AA001AF03FEF1AF01200010E1E6E200E1A18C3
:1034BA001B10D8B463EF1AF065EF1AF078EF1AF020
:1034CA00F70E1A241C6EFF0E1B201D6E1D5009E1FB
:1034DA00050E1C5CD8A074EF1AF076EF1AF078EF9C
:1034EA001AF0000E1E6E1EC01AF01B6A1200000EA1
:1034FA002B6E000E2A6E8DEF1AF029C01CF01D6A81
:10350A0027C01EF028C01FF042EC17F02A4A2B2AC7
:10351A002A502524D96E2B502620DA6EDF50296EC8
:10352A002950D8A49BEF1AF09DEF1AF082EF1AF0F7
:10353A001200000161BFACEF1AF0615106E16005AB
:10354A00D8B0AAEF1AF0ACEF1AF0BAEF1AF060C0CE
:10355A0062F061C063F0621F631F624B632B62C03B
:10356A0060F063C061F0BEEF1AF060C060F061C045
:10357A0061F012001A6E010E1B6E0001D5B3C8EF7E
:10358A001AF0CAEF1AF0DDEF1AF0D583000E1B6E9F
:10359A001A50D8B4D3EF1AF0D5EF1AF0D9EF1AF0BF
:1035AA00010ED36FDBEF1AF0020ED36FD7EC1DF0CA
:1035BA001B50120020EE02F00A50D9260B50DA22D4
:1035CA00DECF01F0DDCF02F00AC0D9FF0BC0DAFF6F
:1035DA00DECF03F0DDCF04F072EC1CF0000E066EB5
:1035EA00000E076E000E086E000E096E10EC1DF03C
:1035FA00020E1200080E9F6E900E9D6E240E9E6E95
:10360A00A00E9B6E010E9C6E000E1A6E000E1B6EB3
:10361A0085EC1DF0000E1A6E000E1B6E80EC1DF07C
:10362A00000E1A6E000E1B6E8AEC1DF0000E3F6E25
:10363A0012000E01CE9340504110D8B427EF1BF070
:10364A0029EF1BF035EF1BF002D835EF1BF0050010
:10365A00FA6E4050FD6E4150FE6EFF6AFA5012003B
:10366A001200394A3A2AE80E395C030E3A58D8A0B1
:10367A0041EF1BF043EF1BF04CEF1BF0180E3924FF
:10368A00396EFC0E3A203A6E0001D64BD72B120047
:10369A00D00E1A241C6EFF0E1B201D6E1D500AE14F
:1036AA000A0E1C5CD8A05CEF1BF05FEF1BF0010E4A
:1036BA0060EF1BF0000E1A6E1B6A1200010E1A6EE2
:1036CA000001D5B36BEF1BF06DEF1BF077EF1BF02A
:1036DA00D595CE69C3EC1DF0C0EC1DF0D9EC1DF0F8
:1036EA00D4C01AF01A501200030EBF6E000EBE6E3E
:1036FA00000EC06E000EBC6E000EBB6E0E01CE93A5
:10370A00C683D20E1A6E3B0E1B6E76EC1DF0A30E0C
:10371A00BD6E12000AC001F00BC002F0000E046E6A
:10372A00010E036E72EC1CF0000E066E000E076EA0
:10373A00000E086E000E096E10EC1DF0040E120049
:10374A000AC001F00BC002F0000E046E020E036EF6
:10375A0072EC1CF0000E066E000E076E000E086E6C
:10376A00000E096E10EC1DF0020E12000AC001F0E4
:10377A000BC002F0000E046E010E036E72EC1CF018
:10378A00000E066E000E076E000E086E000E096E21
:10379A0010EC1DF0020E12000AC001F00BC002F07C
:1037AA00000E046E020E036E72EC1CF0000E066E22
:1037BA00000E076E000E086E000E096E10EC1DF06A
:1037CA00040E120033C031F034C032F02FC02DF095
:1037DA0030C02EF0FCEC1BF026C033F027C034F0CA
:1037EA00B7EC1DF02C6E2C502F6E306A12000E0EA4
:1037FA00236E360EBFEC18F0286E28502A6E296AFE
:10380A000F0E236E360EBFEC18F02B6E2B502910BC
:10381A00266E2A50276E1200000E1A6E0E01CDA9CE
:10382A0019EF1CF01BEF1CF024EF1CF09EAA20EFEE
:10383A001CF022EF1CF024EF1CF0010E1A6E1A5035
:10384A001200AB0E0001AF6F000EB06F000EA16F39
:10385A00000EA26FA9C0A3F0AAC0A4F0AF0EA56F74
:10386A00000EA66F05EC1AF012001A501C02F3CFD4
:10387A001EF0F4CF1FF01A501D02F3501F261B50E2
:10388A001C02F3501F261EC01AF01FC01BF01200A4
:10389A003E50D8B453EF1CF055EF1CF05BEF1CF010
:1038AA009DEC19F0010E3E6E5FEF1CF068EC19F00A
:1038BA00000E3E6E12000001D5A766EF1CF068EFFD
:1038CA001CF071EF1CF01AC0CFF01BC0D0F01CC066
:1038DA00D1F01DC0D2F0D59712000001D5A778EF1C
:1038EA001CF07AEF1CF083EF1CF001C0CFF002C08D
:1038FA00D0F003C0D1F004C0D2F0D597120000EE88
:10390A00B2F0460EEE6AE806FDE100EE2DF0130E67
:10391A00EE6AE806FDE1469046920001FDEF0EF0E0
:10392A0096BA9AEF1CF09CEF1CF0A5EF1CF0000E63
:10393A00956E080E966E000E976E270E936E968AF7
:10394A0012003F0E266E000E276ED00EC4EC1CF03D
:10395A003F0E266E000E276EC00EC4EC1CF012003D
:10396A00DBEC1DF0D2EC1CF027EC1DF08DEC17F00F
:10397A0004EC1DF079EC1BF0FFEC1AF01200286E33
:10398A002644E846FC0B2710296E000E236E29C038
:10399A0024F0285031EC19F01200000E0E01E16FEC
:1039AA00000EE26F000EE36F000EE46F000EE56F8B
:1039BA00000EE66F12001A6E0E01CDA9E7EF1CF099
:1039CA00E9EF1CF0E1EF1CF01AC09AFF12001FC0C9
:1039DA001AF020C01BF021C01CF022C01DF0000EFE
:1039EA000BEC18F012001FC01AF020C01BF021C007
:1039FA001CF022C01DF0020E0BEC18F01200600E33
:103A0A000E01D86F000EDA6F000EDC6F050EDE6F46
:103A1A00000EDD6F120006C001F007C002F008C0F8
:103A2A0003F009C004F0000E48EC18F01200FCEC98
:103A3A001BF026C033F027C034F0000E306E000EA3
:103A4A002F6E1200000E956E080E966E000E976E7F
:103A5A00270E936E969A120097BC36EF1DF039EF37
:103A6A001DF0010E3AEF1DF0000E1200BAEC1DF027
:103A7A000F0117891CEC1DF0A6EC1CF012000001C6
:103A8A00D581CE51CE25B3EC1DF0030E12000001F4
:103A9A00D581D880CE35B3EC1DF0050E1200000E8C
:103AAA00236E480EBFEC18F012000001D593000EE9
:103ABA00D46F0E0E12000001D591DFEC1DF0040E3A
:103ACA0012000001D593000ED46F0E0E12001B6E69
:103ADA001B50E0EC1CF012001AC03BF01BC03CF07B
:103AEA0012001AC040F01BC041F012001AC044F084
:103AFA001BC045F012001AC0FAF01BC0FBF01200FE
:103B0A001AC042F01BC043F012001AC0F8F01BC0E2
:103B1A00F9F01200BBCF1AF01A501200000EBFECD7
:103B2A001AF01200D2EC1DF0090E1200D2EC1DF0B0
:103B3A000A0E1200CFEC1DF0050E1200E5EC1DF086
:103B4A00000E1200E7EC1DF0010E1200E7EC1DF06A
:103B5A00020E1200E7EC1DF0010E1200016E01C008
:103B6A0092FF12008FEC1DF01200D5EC1DF012002E
:103B7A000E01C58112000E01C59112000E01CD91F0
:103B8A001200F9EC18F012000E01CD9112000E018C
:103B9A00CD811200979A97881200978A9788120007
:103BAA00BD8E120097801200969A1200F29A1200A5
:103BBA009250120097861200050E1200010E120092
:0A3BCA009784120097821200120087
:020000040020DA
:10000000FFFFFFFFFFFFFFFFFFFFFFFFFFFFFFFF00
:020000040030CA
:0C000000ECFFFFFF9FFFFFFFFFFFFFFF73
:00000001FF
