:04000000C0EF00F05D
:100008005E82FACF32F0FBCF33F0D9CF34F0DACFBB
:1000180035F0F3CF36F0F4CF37F0F6CF38F0F7CF2E
:1000280039F0F8CF3AF0F5CF3BF0F2AC1EEF00F024
:1000380020EF00F0AAEF00F00E01C6A326EF00F0B3
:1000480028EF00F033EF00F0CEA32DEF00F02FEFF4
:1000580000F033EF00F082EC43F0AAEF00F0C6A7FF
:1000680038EF00F03AEF00F045EF00F0CEA73FEF91
:1000780000F041EF00F045EF00F06AEC43F0AAEF22
:1000880000F0C5A34AEF00F04CEF00F061EF00F07C
:10009800CDA351EF00F053EF00F061EF00F002D86C
:1000A8005FEF00F00500FA6E4850FD6E4950FE6E95
:1000B800FF6AFA501200AAEF00F0C5A166EF00F03F
:1000C80068EF00F071EF00F0CDA16DEF00F06FEF79
:1000D80000F071EF00F053EF00F0C5A976EF00F0E3
:1000E80078EF00F08DEF00F0CDA97DEF00F07FEF05
:1000F80000F08DEF00F002D88BEF00F00500FA6EEB
:100108005950FD6E5A50FE6EFF6AFA501200AAEF5F
:1001180000F0C5AB92EF00F094EF00F0AAEF00F00A
:10012800CDAB99EF00F09BEF00F0AAEF00F002D8FA
:10013800A8EF00F00500FA6E0101FE51FD6EFF51B7
:10014800FE6EFF6AFA501200AAEF00F03BC0F5FFFE
:100158003AC0F8FF39C0F7FF38C0F6FF37C0F4FFE0
:1001680036C0F3FF35C0DAFF34C0D9FF33C0FBFF18
:0C01780032C0FAFF5E92110008EF43F065
:100F000000B28A7C8A6C8A5A77DA7AA68A9E7E50E8
:100F10008B488B408B388B308B288B208B9A8ADACE
:100F20008000000000DCCFD1350000000000C015BB
:100F30003F6042A20D70A5EC363BAAB83F4F387611
:100F40003F3CAA38338CBEBF350072313F18723136
:100F50003F4CBB31330EEADDB555B38A38610B36F1
:100F6000BBABAA2A3E42F1533E55326C3E05A38BE1
:100F70003EABAAAA3EB76DDB3E9A99193F6042A2EA
:100F80000DCAF249710000804B0000803F0000C094
:100F90003F00AAB83FC623F6B80040763F252E335F
:100FA0006600696E66006E616E000A0D00256300C2
:010FB0000040
:100FB200D8C0B8F1D9C0B9F1DAC0BAF1DBC0BBF11F
:100FC200B8C160F1B9C161F1BAC162F1BBC163F1EB
:100FD200DCC0B8F1DDC0B9F1DEC0BAF1DFC0BBF1EF
:100FE200B8C184F1B9C185F1BAC186F1BBC187F13B
:100FF200FF0E01016015A86FFF0E6115A96FFF0EAC
:101002006215AA6F7F0E6315AB6FFF0E8415986F82
:10101200FF0E8515996FFF0E86159A6F7F0E871545
:101022009B6F985199119A119B11D8A41BEF08F04C
:101032001DEF08F028EF08F0000E0001D86F000E37
:10104200D96F800EDA6F3F0EDB6F27EF1DF0800E37
:10105200621909E13F0E631960116111D8A434EFDE
:1010620008F036EF08F041EF08F0000E0001D86FEB
:10107200000ED96F800EDA6F3F0EDB6F27EF1DF087
:10108200ABBF52EF08F0A805000EA959800EAA596D
:101092007F0EAB59D8B050EF08F052EF08F063EF73
:1010A20008F09BBF61EF08F09805000E9959800E79
:1010B2009A597F0E9B59D8A061EF08F063EF08F0B0
:1010C2007FEF08F0D8C06EF0D9C06FF0DAC070F0D0
:1010D200DBC071F0DCC072F0DDC073F0DEC074F012
:1010E200DFC075F07BEC22F06EC0D8F06FC0D9F093
:1010F20070C0DAF071C0DBF027EF1DF0000E506F08
:10110200000E516F000E526F000E536F63BF8EEFD1
:1011120008F08CEF08F05AEF09F09BBF9AEF08F045
:10112200800E9A5D4B0E9B59D8A09AEF08F09CEF67
:1011320008F0A6EF08F0020E506F000E516F000E7D
:10114200526F000E536F5AEF09F09BBFB2EF08F0D7
:10115200800E9A5D3F0E9B59D8A0B2EF08F0B4EF13
:1011620008F05AEF09F0170E0001E06F98C1E1F0A4
:1011720099C1E2F09AC1E3F09BC1E4F0E067C4EFE9
:1011820008F0CCEF08F0E435E433E333E233E13343
:10119200E02FBFEF08F0810E0001E1250101A06FF1
:1011A200FF0E0001E2210101A16FFF0E0001E32108
:1011B2000101A26FFF0E0001E4210101A36FA05102
:1011C20017080001E06F98C1E1F099C1E2F09AC1FD
:1011D200E3F09BC1E4F0E067F1EF08F0F9EF08F00B
:1011E200E435E433E333E233E133E02FECEF08F0AC
:1011F200E1C0ACF1E2C0ADF1E3C0AEF1E4C0AFF1E9
:101202000101A05117080001E06FACC1E1F0ADC1CE
:10121200E2F0AEC1E3F0AFC1E4F0E02B16EF09F06B
:10122200D890E137E237E337E437E02F11EF09F0E6
:10123200010198510001E11913E1010199510001E5
:10124200E2190EE101019A510001E31909E10101DC
:101252009B510001E419D8A431EF09F033EF09F0F2
:101262005AEF09F0010E0101AC150001E06F000E0A
:101272000101AD150001E16F000E0101AE15000183
:10128200E26F000E0101AF150001E36FE0510208A9
:101292000101506F000E0001E1550101516F000E76
:1012A2000001E2550101526F000E0001E3550101F8
:1012B200536F800E01019A1909E17F0E9B19981153
:1012C2009911D8A467EF09F069EF09F0D5EF09F099
:1012D200800EAA1909E13F0EAB19A811A911D8A4D1
:1012E20075EF09F077EF09F082EF09F0000E0001C7
:1012F200D86F000ED96F800EDA6F3F0EDB6F27EFCB
:101302001DF0ABBF91EF09F0A805000EA959800EA0
:10131200AA593F0EAB59D8A091EF09F093EF09F00B
:10132200AFEF09F087BF9AEF09F098EF09F0A5EF48
:1013320009F0000E0001D86F000ED96F000EDA6FAF
:10134200000EDB6F27EF1DF0DCC0D8F0DDC0D9F056
:10135200DEC0DAF0DFC0DBF027EF1DF087BFB6EFAB
:1013620009F0B4EF09F0CAEF09F0DCC060F0DDC0AB
:1013720061F0DEC062F0DFC063F0D0EC42F060C02A
:10138200D8F061C0D9F062C0DAF063C0DBF027EFB9
:101392001DF0000E0001D86F000ED96F000EDA6F3B
:1013A200000EDB6F27EF1DF0800E9A1909E13F0E48
:1013B2009B1998119911D8A4E1EF09F0E3EF09F014
:1013C20011EF0AF087BFEAEF09F0E8EF09F007EF43
:1013D2000AF0000E00019F6F000EA06F800EA16F39
:1013E2003F0EA26FD8C0A3F0D9C0A4F0DAC0A5F016
:1013F200DBC0A6F095EC2FF09FC0D8F0A0C0D9F0CA
:10140200A1C0DAF0A2C0DBF027EF1DF0D8C0D8F0FF
:10141200D9C0D9F0DAC0DAF0DBC0DBF027EF1DF07B
:10142200400E8719841185118611D8A41BEF0AF08A
:101432001DEF0AF039EF0AF0D8C07EF0D9C07FF074
:10144200DAC080F0DBC081F0D8C082F0D9C083F06E
:10145200DAC084F0DBC085F09CEC29F07EC0D8F0C5
:101462007FC0D9F080C0DAF081C0DBF027EF1DF039
:101472003F0E8719841185118611D8A443EF0AF013
:1014820045EF0AF060EF0AF063BF4AEF0AF04CEF53
:101492000AF060EF0AF0D8C0ABF0D9C0ACF0DAC005
:1014A200ADF0DBC0AEF0DCEC24F0ABC0D8F0ACC0E9
:1014B200D9F0ADC0DAF0AEC0DBF027EF1DF0D8C036
:1014C20060F0D9C061F0DAC062F0DBC063F0EDEC2D
:1014D20042F060C070F161C071F162C072F163C02C
:1014E20073F1800E0101AA190BE17F0EAB19A8114D
:1014F200A911D8B47FEF0AF081EF0AF09AEF0AF04F
:10150200A851A911AA11AB11D8B48AEF0AF08CEF35
:101512000AF09AEF0AF0800EAA1909E13F0EAB1900
:10152200A811A911D8A498EF0AF09AEF0AF06BEF6C
:101532000BF070C1B4F171C1B5F172C1B6F173C1F2
:10154200B7F187BFA9EF0AF0A7EF0AF0C4EF0AF0DC
:10155200000E00019F6F000EA06F800EA16F3F0E64
:10156200A26FB4C1A3F0B5C1A4F0B6C1A5F0B7C1D2
:10157200A6F095EC2FF09FC0B4F1A0C0B5F1A1C0C8
:10158200B6F1A2C0B7F1010163BFCCEF0AF0CAEF16
:101592000AF061EF0BF0000EA8250001E06F000ECB
:1015A2000101A9210001E16F800E0101AA210001C0
:1015B200E26FC00E0101AB210001E36F0101505146
:1015C2000001E011E46F010151510001E111E56FE9
:1015D200010152510001E211E66F01015351000174
:1015E200E311E76FE451E511E611E711D8A4FCEF2E
:1015F2000AF0FEEF0AF043EF0BF0000E0101ED6F6F
:10160200210EEC6FB4C19BF0B5C19CF0B6C19DF048
:10161200B7C19EF0B4C197F0B5C198F0B6C199F0C8
:10162200B7C19AF0C3EC41F097C09FF098C0A0F008
:1016320099C0A1F09AC0A2F0B4C19BF0B5C19CF0D0
:10164200B6C19DF0B7C19EF0B4C197F0B5C198F094
:10165200B6C199F0B7C19AF0C3EC41F097C0A3F0BC
:1016620098C0A4F099C0A5F09AC0A6F095EC2FF00E
:101672009FC0B4F1A0C0B5F1A1C0B6F1A2C0B7F14C
:1016820061EF0BF001015005511152115311D8A411
:101692004DEF0BF04FEF0BF061EF0BF0B4C160F0C8
:1016A200B5C161F0B6C162F0B7C163F0D0EC42F0EF
:1016B20060C0B4F161C0B5F162C0B6F163C0B7F108
:1016C200B4C1D8F0B5C1D9F0B6C1DAF0B7C1DBF018
:1016D20027EF1DF0000E886F000E896F800E8A6F53
:1016E2003F0E8B6F63BF7AEF0BF078EF0BF0DCEFFE
:1016F2000BF05051511152115311D8A483EF0BF03A
:1017020085EF0BF0C9EF0BF0000EED6F210EEC6FC1
:10171200D8C09BF0D9C09CF0DAC09DF0DBC09EF02F
:10172200D8C097F0D9C098F0DAC099F0DBC09AF02F
:10173200C3EC41F097C09FF098C0A0F099C0A1F00F
:101742009AC0A2F0D8C09BF0D9C09CF0DAC09DF03C
:10175200DBC09EF0D8C097F0D9C098F0DAC099F0FB
:10176200DBC09AF0C3EC41F097C0A3F098C0A4F09C
:1017720099C0A5F09AC0A6F095EC2FF09FC0D8F0C2
:10178200A0C0D9F0A1C0DAF0A2C0DBF027EF1DF0B3
:101792005005511152115311D8A4D2EF0BF0D4EFCE
:1017A2000BF0DCEF0BF0000E886F000E896F800EDD
:1017B2008A6FBF0E8B6F9BBFEBEF0BF09805000E8D
:1017C2009959000E9A594D0E9B59D8A0EBEF0BF088
:1017D200EDEF0BF081EF0EF0ABBFFFEF0BF0F80E69
:1017E200A85DFF0EA9597F0EAA593F0EAB59D8B07A
:1017F200FDEF0BF0FFEF0BF076EF0CF087BF04EF7D
:101802000CF006EF0CF03EEF0CF0600E0001826F60
:10181200420E836FA20E846F0D0E856F88C17EF01B
:1018220089C17FF08AC180F08BC181F09CEC29F0E4
:101832007EC0A4F17FC0A5F180C0A6F181C0A7F14E
:10184200A4C17EF0A5C17FF0A6C180F0A7C181F03E
:10185200600E0001826F420E836FA20E846F0D0E26
:10186200856F9CEC29F07EC0D8F07FC0D9F080C093
:10187200DAF081C0DBF027EF1DF0CA0E0001826FA3
:10188200F20E836F490E846F710E856F88C17EF0F0
:1018920089C17FF08AC180F08BC181F09CEC29F074
:1018A2007EC0A4F17FC0A5F180C0A6F181C0A7F1DE
:1018B200A4C17EF0A5C17FF0A6C180F0A7C181F0CE
:1018C200CA0E0001826FF20E836F490E846F710E91
:1018D200856F9CEC29F07EC0D8F07FC0D9F080C023
:1018E200DAF081C0DBF027EF1DF0ABBF86EF0CF022
:1018F200080EA85D000EA959800EAA593F0EAB59D9
:10190200D8A086EF0CF088EF0CF007EF0DF087BF40
:1019120097EF0CF087518611851106E18405D8B046
:1019220095EF0CF097EF0CF0CFEF0CF0600E00018A
:10193200826F420E836FA20E846F0D0E856F88C177
:101942007EF089C17FF08AC180F08BC181F09CEC6E
:1019520029F07EC0A4F17FC0A5F180C0A6F181C0AC
:10196200A7F1A4C17EF0A5C17FF0A6C180F0A7C1F6
:1019720081F0600E0001826F420E836FA20E846FAF
:101982000D0E856F9CEC29F07EC0D8F07FC0D9F097
:1019920080C0DAF081C0DBF027EF1DF0CA0E000133
:1019A200826FF20E836F490E846F710E856F88C14C
:1019B2007EF089C17FF08AC180F08BC181F09CECFE
:1019C20029F07EC0A4F17FC0A5F180C0A6F181C03C
:1019D200A7F1A4C17EF0A5C17FF0A6C180F0A7C186
:1019E20081F0CA0E0001826FF20E836F490E846F7E
:1019F200710E856F9CEC29F07EC0D8F07FC0D9F0C3
:101A020080C0DAF081C0DBF027EF1DF070C16EF00C
:101A120071C16FF072C170F073C171F0000E0001FC
:101A2200726F000E736F800E746FBF0E756F7BEC5A
:101A320022F06EC0B0F16FC0B1F170C0B2F171C0EE
:101A4200B3F1000E0001826F000E836F800E846F6F
:101A52003E0E856FB0C17EF0B1C17FF0B2C180F0A1
:101A6200B3C181F09CEC29F07EC09BF07FC09CF05A
:101A720080C09DF081C09EF0AB0E0001976FAA0E50
:101A8200986FAA0E996F3E0E9A6FC3EC41F097C001
:101A9200A4F198C0A5F199C0A6F19AC0A7F1B0C16E
:101AA20082F0B1C183F0B2C184F0B3C185F0B0C19C
:101AB2007EF0B1C17FF0B2C180F0B3C181F09CEC85
:101AC20029F07EC054F17FC055F180C056F181C02B
:101AD20057F1B0C182F0B1C183F0B2C184F0B3C199
:101AE20085F0A4C17EF0A5C17FF0A6C180F0A7C198
:101AF20081F09CEC29F07EC09BF07FC09CF080C0FE
:101B02009DF081C09EF0000E0001976F000E986F4D
:101B1200000E996F3F0E9A6FC3EC41F097C048F1E7
:101B220098C049F199C04AF19AC04BF154C17EF074
:101B320055C17FF056C180F057C181F048C182F093
:101B420049C183F04AC184F04BC185F09CEC29F075
:101B52007EC044F17FC045F180C046F181C047F1AB
:101B6200B0C17EF0B1C17FF0B2C180F0B3C181F0EB
:101B7200000E0001826FAA0E836FB80E846F3F0EB3
:101B8200856F9CEC29F07EC074F17FC075F180C036
:101B920076F181C077F1700E0001826FA50E836F1E
:101BA200EC0E846F360E856FB0C17EF0B1C17FF04E
:101BB200B2C180F0B3C181F09CEC29F07EC097F0F5
:101BC2007FC098F080C099F081C09AF03B0E00016E
:101BD200826FAA0E836FB80E846F3F0E856F44C169
:101BE2007EF045C17FF046C180F047C181F09CEC98
:101BF20029F07EC09BF07FC09CF080C09DF081C028
:101C02009EF0C3EC41F097C078F198C079F199C089
:101C12007AF19AC07BF174C16EF075C16FF076C132
:101C220070F077C171F078C172F079C173F07AC146
:101C320074F07BC175F07BEC22F06EC080F16FC056
:101C420081F170C082F171C083F180C1B8F181C1AC
:101C5200B9F182C1BAF183C1BBF1B8C190F1B9C186
:101C620091F1BAC192F1BBC193F1000E010190153D
:101C7200B86FF00E9115B96FFF0E9215BA6FFF0E85
:101C82009315BB6FB8C180F1B9C181F1BAC182F1BC
:101C9200BBC183F174C19BF075C19CF076C19DF00C
:101CA20077C19EF080C197F081C198F082C199F00E
:101CB20083C19AF0C3EC41F097C094F198C095F1BA
:101CC20099C096F19AC097F178C197F079C198F0CE
:101CD2007AC199F07BC19AF094C19BF095C19CF0B6
:101CE20096C19DF097C19EF0C3EC41F097C01CF1E4
:101CF20098C01DF199C01EF19AC01FF10CEF16F0A9
:101D0200000E7C6F000E7D6F000E7E6F000E7F6FE7
:101D1200ABBF97EF0EF0AB5107E1800EAA5DD8B0D2
:101D220095EF0EF097EF0EF0CBEF0EF070C17EF054
:101D320071C17FF072C180F073C181F0000E0001A9
:101D4200826F000E836F800E846F4B0E856F9CEC4A
:101D520029F07EC070F17FC071F180C072F181C044
:101D620073F1E80E01017C27FF0E7D23FF0E7E2317
:101D7200FF0E7F2370C1B8F171C1B9F172C1BAF11E
:101D820073C1BBF1B8C1A8F1B9C1A9F1BAC1AAF135
:101D9200BBC1ABF1170E0001E06FA8C1E1F0A9C110
:101DA200E2F0AAC1E3F0ABC1E4F0E067DBEF0EF0D2
:101DB200E3EF0EF0E435E433E333E233E133E02FD3
:101DC200D6EF0EF0810E0001E125E56FFF0EE22154
:101DD200E66FFF0EE321E76FFF0EE421E86FE551A6
:101DE20001017C270001E65101017D230001E75139
:101DF20001017E230001E85101017F23FF0EA81596
:101E0200AC6FFF0EA915AD6F7F0EAA15AE6F000E57
:101E1200AB15AF6F000EAC11A86F000EAD11A96F1C
:101E2200800EAE11AA6F3F0EAF11AB6FAFBF29EF9D
:101E32000FF0AF510BE1720EAC5DC40EAD591C0E2A
:101E4200AE59D8B027EF0FF029EF0FF033EF0FF0B4
:101E5200000EA06F000EA16F000EA26F000EA36F06
:101E620065EF0FF0AFBF45EF0FF0AF510BE1D70EAB
:101E7200AC5DB30EAD595D0EAE59D8B043EF0FF065
:101E820045EF0FF04FEF0FF0010EA06F000EA16FA4
:101E9200000EA26F000EA36F65EF0FF0000EA06F91
:101EA200000EA16F000EA26F000EA36F010E7C2721
:101EB200000E7D237E237F23000EA827000EA92378
:101EC200800EAA23FF0EAB23A8C1B8F1A9C1B9F1B4
:101ED200AAC1BAF1ABC1BBF1B8C170F1B9C171F11C
:101EE200BAC172F1BBC173F170C197F071C198F0C0
:101EF20072C199F073C19AF0A0C1E0F0A1C1E1F002
:101F02000001D890E037E137D890E037E137890E09
:101F1200E025F66E0F0EE121F76EF86A000EF82248
:101F22000900F5CF9BF00900F5CF9CF00900F5CF31
:101F32009DF00A00F5CF9EF0C3EC41F097C074F11A
:101F420098C075F199C076F19AC077F1000E000140
:101F52009F6F000EA06F800EA16F3F0EA26F70C127
:101F620072F071C173F072C174F073C175F0A0C1E7
:101F7200E0F0A1C1E1F0D890E037E137D890E03746
:101F8200E137890EE025F66E0F0EE121F76EF86A51
:101F9200000EF8220900F5CF6EF00900F5CF6FF0C0
:101FA2000900F5CF70F00A00F5CF71F07BEC22F05A
:101FB2006EC0A3F06FC0A4F070C0A5F071C0A6F00F
:101FC20095EC2FF09FC078F1A0C079F1A1C07AF111
:101FD200A2C07BF174C17EF075C17FF076C180F042
:101FE20077C181F078C182F079C183F07AC184F03F
:101FF2007BC185F09CEC29F07EC05CF17FC05DF175
:1020020080C05EF181C05FF15CC16CF15DC16DF1B8
:102012005EC16EF15FC16FF16CC1B8F16DC1B9F112
:102022006EC1BAF16FC1BBF1B8C190F1B9C191F102
:10203200BAC192F1BBC193F1000E01019015B86FC4
:10204200F00E9115B96FFF0E9215BA6FFF0E931530
:10205200BB6FB8C16CF1B9C16DF1BAC16EF1BBC150
:102062006FF1A8C1E0F0A9C1E1F0AAC1E2F0ABC1F1
:10207200E3F00001E335E333E233E133E033000E12
:10208200E015E46FF00EE115E56FFF0EE215E66F65
:10209200FF0EE315E76F000EE4110101906F000ED1
:1020A2000001E5110101916F000E0001E61101012D
:1020B200926F200E0001E7110101936FA0C1E0F0C1
:1020C200A1C1E1F0A2C1E2F0A3C1E3F0150ED890E4
:1020D2000001E037E137E237E337E82E68EF10F02E
:1020E200010190510001E025E46F010191510001CD
:1020F200E121E56F010192510001E221E66F010148
:1021020093510001E321E76F000EE4250101B86F4E
:10211200000E0001E5210101B96F400E0001E62128
:102122000101BA6F000E0001E7210101BB6FB8C1C6
:1021320068F1B9C169F1BAC16AF1BBC16BF1A0C161
:10214200E0F0A1C1E1F00001D890E037E137D8908A
:10215200E037E137890EE025F66E0F0EE121F76ECA
:10216200F86A000EF8220900F5CF9BF00900F5CFBE
:102172009CF00900F5CF9DF00A00F5CF9EF068C1F2
:1021820097F069C198F06AC199F06BC19AF0C3ECFB
:1021920041F097C094F198C095F199C096F19AC018
:1021A20097F170C197F071C198F072C199F073C143
:1021B2009AF094C19BF095C19CF096C19DF097C195
:1021C2009EF0C3EC41F097C034F198C035F199C04C
:1021D20036F19AC037F168C182F069C183F06AC1F1
:1021E20084F06BC185F06CC17EF06DC17FF06EC171
:1021F20080F06FC181F09CEC29F07EC09BF07FC023
:102202009CF080C09DF081C09EF074C197F075C1B2
:1022120098F076C199F077C19AF0C3EC41F097C07B
:1022220094F198C095F199C096F19AC097F134C192
:1022320082F035C183F036C184F037C185F06CC1BC
:102242007EF06DC17FF06EC180F06FC181F09CECB9
:1022520029F07EC09BF07FC09CF080C09DF081C0C1
:102262009EF094C197F095C198F096C199F097C1EC
:102272009AF0C3EC41F097C054F198C055F199C05F
:1022820056F19AC057F154C17EF055C17FF056C144
:1022920080F057C181F078C182F079C183F07AC1B0
:1022A20084F07BC185F09CEC29F07EC030F17FC0C8
:1022B20031F180C032F181C033F15CC17EF05DC189
:1022C2007FF05EC180F05FC181F05CC182F05DC1D0
:1022D20083F05EC184F05FC185F09CEC29F07EC082
:1022E2008CF17FC08DF180C08EF181C08FF1550ECF
:1022F2000001726F320E736F6C0E746F3E0E756F4B
:10230200420E826FF10E836F530E846F3E0E856F05
:102312008CC17EF08DC17FF08EC180F08FC181F0C3
:102322009CEC29F07EC06EF07FC06FF080C070F030
:1023320081C071F07BEC22F06EC0A4F16FC0A5F1F8
:1023420070C0A6F171C0A7F1050E0001726FA30E55
:10235200736F8B0E746F3E0E756F8CC182F08DC1E0
:1023620083F08EC184F08FC185F0A4C17EF0A5C137
:102372007FF0A6C180F0A7C181F09CEC29F07EC05D
:102382006EF07FC06FF080C070F081C071F07BECA6
:1023920022F06EC054F16FC055F170C056F171C099
:1023A20057F1AB0E0001726FAA0E736FAA0E746F13
:1023B2003E0E756F8CC182F08DC183F08EC184F0A8
:1023C2008FC185F054C17EF055C17FF056C180F0B7
:1023D20057C181F09CEC29F07EC06EF07FC06FF097
:1023E20080C070F081C071F07BEC22F06EC048F1C9
:1023F2006FC049F170C04AF171C04BF1B70E0001D4
:10240200726F6D0E736FDB0E746F3E0E756F8CC143
:1024120082F08DC183F08EC184F08FC185F048C1F6
:102422007EF049C17FF04AC180F04BC181F09CEC43
:1024320029F07EC06EF07FC06FF080C070F081C066
:1024420071F07BEC22F06EC038F16FC039F170C0D0
:102452003AF171C03BF19A0E0001726F990E736FDF
:10246200190E746F3F0E756F8CC182F08DC183F0AF
:102472008EC184F08FC185F038C17EF039C17FF002
:102482003AC180F03BC181F09CEC29F07EC06EF035
:102492007FC06FF080C070F081C071F07BEC22F0E1
:1024A2006EC000F16FC001F170C002F171C003F1A2
:1024B2008CC182F08DC183F08EC184F08FC185F012
:1024C2008CC17EF08DC17FF08EC180F08FC181F012
:1024D2009CEC29F07EC004F17FC005F180C006F1BA
:1024E20081C007F100C17EF001C17FF002C180F01E
:1024F20003C181F004C182F005C183F006C184F0FA
:1025020007C185F09CEC29F07EC04CF17FC04DF1F3
:1025120080C04EF181C04FF130C182F031C183F0F1
:1025220032C184F033C185F05CC172F05DC173F0D9
:102532005EC174F05FC175F06CC16EF06DC16FF079
:102542006EC170F06FC171F07BEC22F06EC07EF054
:102552006FC07FF070C080F071C081F09CEC29F0F8
:102562007EC058F17FC059F180C05AF181C05BF141
:102572004CC16EF04DC16FF04EC170F04FC171F0A1
:1025820058C172F059C173F05AC174F05BC175F051
:102592007BEC22F06EC04CF16FC04DF170C04EF179
:1025A20071C04FF16CC17EF06DC17FF06EC180F0E1
:1025B2006FC181F06CC182F06DC183F06EC184F095
:1025C2006FC185F09CEC29F07EC08CF17FC08DF14B
:1025D20080C08EF181C08FF1000E0001726F000E7B
:1025E200736F400E746F400E756F8CC16EF08DC1AB
:1025F2006FF08EC170F08FC171F07BEC22F06EC073
:1026020058F16FC059F170C05AF171C05BF158C1F5
:102612006EF059C16FF05AC170F05BC171F04CC1DC
:1026220072F04DC173F04EC174F04FC175F07BEC86
:1026320022F06EC068F16FC069F170C06AF171C0BA
:102642006BF168C1B8F169C1B9F16AC1BAF16BC184
:10265200BBF1B8C190F1B9C191F1BAC192F1BBC15C
:1026620093F1000E01019015B86FF00E9115B96F3C
:10267200FF0E9215BA6FFF0E9315BB6FB8C168F1CA
:10268200B9C169F1BAC16AF1BBC16BF1000E0001B7
:10269200726F000E736F400E746FC00E756F68C15B
:1026A2006EF069C16FF06AC170F06BC171F07BECC2
:1026B20022F06EC03CF16FC03DF170C03EF171C0BE
:1026C2003FF18CC19BF08DC19CF08EC19DF08FC1FA
:1026D2009EF03CC197F03DC198F03EC199F03FC1D8
:1026E2009AF0C3EC41F097C040F198C041F199C013
:1026F20042F19AC043F14CC197F04DC198F04EC1DE
:1027020099F04FC19AF040C19BF041C19CF042C187
:102712009DF043C19EF0C3EC41F097C034F198C0E4
:1027220035F199C036F19AC037F16CC17EF06DC1B6
:102732007FF06EC180F06FC181F068C182F069C123
:1027420083F06AC184F06BC185F09CEC29F07EC0F5
:1027520074F17FC075F180C076F181C077F168C1F4
:1027620082F069C183F06AC184F06BC185F030C127
:102772007EF031C17FF032C180F033C181F09CEC38
:1027820029F07EC06EF07FC06FF080C070F081C013
:1027920071F05CC182F05DC183F05EC184F05FC103
:1027A20085F034C17EF035C17FF036C180F037C18B
:1027B20081F09CEC29F07EC072F07FC073F080C083
:1027C20074F081C075F07BEC22F06EC078F16FC0BE
:1027D20079F170C07AF171C07BF174C16EF075C18C
:1027E2006FF076C170F077C171F078C172F079C183
:1027F20073F07AC174F07BC175F07BEC22F06EC08D
:102802009CF16FC09DF170C09EF171C09FF19CC19F
:10281200B8F19DC1B9F19EC1BAF19FC1BBF1B8C176
:1028220090F1B9C191F1BAC192F1BBC193F1000E1D
:1028320001019015B86FF00E9115B96FFF0E921548
:10284200BA6FFF0E9315BB6FB8C19CF1B9C19DF170
:10285200BAC19EF1BBC19FF174C19BF075C19CF0DE
:1028620076C19DF077C19EF09CC197F09DC198F012
:102872009EC199F09FC19AF0C3EC41F097C094F1C8
:1028820098C095F199C096F19AC097F178C197F0E6
:1028920079C198F07AC199F07BC19AF094C19BF00A
:1028A20095C19CF096C19DF097C19EF0C3EC41F09A
:1028B20097C064F198C065F199C066F19AC067F15A
:1028C2009CC17EF09DC17FF09EC180F09FC181F0CE
:1028D200000E0001826F400E836F760E846F3F0EF2
:1028E200856F9CEC29F07EC020F17FC021F180C071
:1028F20022F181C023F14F0E0001826F380E836FE7
:10290200760E846F3F0E856F64C17EF065C17FF0E5
:1029120066C180F067C181F09CEC29F07EC072F044
:102922007FC073F080C074F081C075F0C60E0001E4
:10293200826F230E836FF60E846FB80E856F9CC173
:102942007EF09DC17FF09EC180F09FC181F09CEC22
:1029520029F07EC06EF07FC06FF080C070F081C041
:1029620071F07BEC22F06EC058F16FC059F170C06B
:102972005AF171C05BF158C16EF059C16FF05AC182
:1029820070F05BC171F0A0C1E0F0A1C1E1F0000103
:10299200D890E037E137D890E037E137210EE025D3
:1029A200F66E0F0EE121F76EF86A000EF8220900AA
:1029B200F5CF72F00900F5CF73F00900F5CF74F08E
:1029C2000A00F5CF75F07BEC22F06EC024F16FC0E7
:1029D20025F170C026F171C027F17CC160F07DC184
:1029E20061F07EC162F07FC163F0010EE4EC34F06D
:1029F20060C0B0F161C0B1F162C0B2F163C0B3F1C5
:102A020024C172F025C173F026C174F027C175F09C
:102A120020C16EF021C16FF022C170F023C171F0AC
:102A22007BEC22F06EC058F16FC059F170C05AF1C0
:102A320071C05BF1A0C1E0F0A1C1E1F00001D8904A
:102A4200E037E137D890E037E137290EE025F66E1E
:102A52000F0EE121F76EF86A000EF8220900F5CF99
:102A620072F00900F5CF73F00900F5CF74F00A0097
:102A7200F5CF75F058C16EF059C16FF05AC170F0C0
:102A82005BC171F07BEC22F06EC008F16FC009F1FE
:102A920070C00AF171C00BF108C16EF009C16FF08C
:102AA2000AC170F00BC171F0B0C172F0B1C173F024
:102AB200B2C174F0B3C175F07BEC22F06EC080F14C
:102AC2006FC081F170C082F171C083F180C1B8F131
:102AD20081C1B9F182C1BAF183C1BBF1B8C190F130
:102AE200B9C191F1BAC192F1BBC193F1000E0101DA
:102AF2009015B86FF00E9115B96FFF0E9215BA6F5F
:102B0200FF0E9315BB6FB8C180F1B9C181F1BAC193
:102B120082F1BBC183F1B0C19BF0B1C19CF0B2C1E3
:102B22009DF0B3C19EF080C197F081C198F082C13F
:102B320099F083C19AF0C3EC41F097C094F198C028
:102B420095F199C096F19AC097F1A0C1E0F0A1C1A8
:102B5200E1F00001D890E037E137D890E037E13773
:102B6200290EE025F66E0F0EE121F76EF86A000ECF
:102B7200F8220900F5CF9BF00900F5CF9CF009007F
:102B8200F5CF9DF00A00F5CF9EF094C197F095C164
:102B920098F096C199F097C19AF0C3EC41F097C0B2
:102BA20040F198C041F199C042F19AC043F120C16D
:102BB2009BF021C19CF022C19DF023C19EF040C137
:102BC20097F041C198F042C199F043C19AF0C3EC29
:102BD20041F097C00CF198C00DF199C00EF19AC066
:102BE2000FF124C197F025C198F026C199F027C1B1
:102BF2009AF00CC19BF00DC19CF00EC19DF00FC16B
:102C02009EF0C3EC41F097C01CF198C01DF199C031
:102C12001EF19AC01FF1DCC0B8F1DDC0B9F1DEC00F
:102C2200BAF1DFC0BBF1B8C190F1B9C191F1BAC13B
:102C320092F1BBC193F1000E01019015B86FF00E35
:102C42009115B96FFF0E9215BA6FFF0E9315BB6FF8
:102C5200B8C128F1B9C129F1BAC12AF1BBC12BF11E
:102C620080C182F081C183F082C184F083C185F08A
:102C720028C19BF029C19CF02AC19DF02BC19EF076
:102C8200DCC097F0DDC098F0DEC099F0DFC09AF0AA
:102C9200C3EC41F097C07EF098C07FF099C080F0FD
:102CA2009AC081F09CEC29F07EC010F17FC011F136
:102CB20080C012F181C013F110C16EF011C16FF02A
:102CC20012C170F013C171F01CC182F01DC183F0FA
:102CD2001EC184F01FC185F0DCC07EF0DDC07FF034
:102CE200DEC080F0DFC081F09CEC29F07EC072F083
:102CF2007FC073F080C074F081C075F07BEC22F06D
:102D02006EC064F16FC065F170C066F171C067F1A9
:102D120028C17EF029C17FF02AC180F02BC181F049
:102D220080C182F081C183F082C184F083C185F0C9
:102D32009CEC29F07EC09CF17FC09DF180C09EF189
:102D420081C09FF164C16EF065C16FF066C170F021
:102D520067C171F09CC172F09DC173F09EC174F0A5
:102D62009FC175F07BEC22F06EC0B4F16FC0B5F17B
:102D720070C0B6F171C0B7F1B4C1B8F1B5C1B9F163
:102D8200B6C1BAF1B7C1BBF1B8C1ACF1B9C1ADF1CD
:102D9200BAC1AEF1BBC1AFF10101AFBFDDEF16F0B9
:102DA200AC05000EAD59000EAE59430EAF59D8A076
:102DB200DDEF16F0DFEF16F017EF17F0CA0E000185
:102DC200826FF20E836F490E846F710E856F88C118
:102DD2007EF089C17FF08AC180F08BC181F09CECCA
:102DE20029F07EC0A4F17FC0A5F180C0A6F181C008
:102DF200A7F1A4C17EF0A5C17FF0A6C180F0A7C152
:102E020081F0CA0E0001826FF20E836F490E846F49
:102E1200710E856F9CEC29F07EC0D8F07FC0D9F08E
:102E220080C0DAF081C0DBF027EF1DF0430EAF194E
:102E3200AC11AD11AE11D8A421EF17F023EF17F0AA
:102E420099EF17F09CC19BF09DC19CF09EC19DF033
:102E52009FC19EF0B4C197F0B5C198F0B6C199F088
:102E6200B7C19AF0C3EC41F097C09FF098C0A0F0B0
:102E720099C0A1F09AC0A2F03C0E0001726FAA0E96
:102E8200736F380E746F330E756F64C16EF065C167
:102E92006FF066C170F067C171F07BEC22F06EC01A
:102EA200A3F06FC0A4F070C0A5F071C0A6F05EECF4
:102EB20039F00001D8B060EF17F062EF17F066EF5B
:102EC20018F0CA0E826FF20E836F490E846F710E74
:102ED200856F88C17EF089C17FF08AC180F08BC185
:102EE20081F09CEC29F07EC0A4F17FC0A5F180C0E6
:102EF200A6F181C0A7F1A4C17EF0A5C17FF0A6C151
:102F020080F0A7C181F0CA0E0001826FF20E836FBA
:102F1200490E846F710E856F9CEC29F07EC0D8F04B
:102F22007FC0D9F080C0DAF081C0DBF027EF1DF05E
:102F3200FF0EAC150001E06FFF0E0101AD1500019F
:102F4200E16FFF0E0101AE150001E26F7F0E01017C
:102F5200AF150001E36FE3BFBBEF17F0E005000E12
:102F6200E159160EE259430EE359D8A0BBEF17F010
:102F7200BDEF17F0F4EF17F0600E826F420E836F11
:102F8200A20E846F0D0E856F88C17EF089C17FF01D
:102F92008AC180F08BC181F09CEC29F07EC0A4F143
:102FA2007FC0A5F180C0A6F181C0A7F1A4C17EF0C7
:102FB200A5C17FF0A6C180F0A7C181F0600E00011B
:102FC200826F420E836FA20E846F0D0E856F9CEC92
:102FD20029F07EC0D8F07FC0D9F080C0DAF081C07D
:102FE200DBF027EF1DF0160E0101AE1909E1C30E49
:102FF200AF19AC11AD11D8A401EF18F003EF18F01E
:1030020066EF18F09CC19BF09DC19CF09EC19DF0A3
:103012009FC19EF0B4C197F0B5C198F0B6C199F0C6
:10302200B7C19AF0C3EC41F097C09FF098C0A0F0EE
:1030320099C0A1F09AC0A2F064C1A3F065C1A4F046
:1030420066C1A5F067C1A6F05EEC39F00001D8A018
:103052002DEF18F02FEF18F066EF18F0600E826F68
:10306200420E836FA20E846F0D0E856F88C17EF0B3
:1030720089C17FF08AC180F08BC181F09CEC29F07C
:103082007EC0A4F17FC0A5F180C0A6F181C0A7F1E6
:10309200A4C17EF0A5C17FF0A6C180F0A7C181F0D6
:1030A200600E0001826F420E836FA20E846F0D0EBE
:1030B200856F9CEC29F07EC0D8F07FC0D9F080C02B
:1030C200DAF081C0DBF027EF1DF0FF0E0101AC1535
:1030D2002C6FFF0EAD152D6FFF0EAE152E6F7F0EEE
:1030E200AF152F6F170E0001E06F2CC1E1F02DC15B
:1030F200E2F02EC1E3F02FC1E4F0E06783EF18F0B5
:103102008BEF18F0E435E433E333E233E133E02FBD
:103112007EEF18F0810E0001E1250101A06FFF0E84
:103122000001E2210101A16FFF0E0001E321010173
:10313200A26FFF0E0001E4210101A36F000E7C6F5C
:10314200000E7D6F000E7E6F000E7F6F2FBFB6EFF9
:1031520018F02C05000E2D59000E2E593F0E2F5936
:10316200D8A0B6EF18F0B8EF18F0BCEF19F0A0C174
:10317200E0F0010E0001E027000EE16F000EE26FA9
:10318200800EE36F000EE46FE067CAEF18F0D2EF33
:1031920018F0E435E433E333E233E133E02FC5EFF3
:1031A20018F00101AC510001E12501017C6FAD5124
:1031B2000001E22101017D6FAE510001E321010115
:1031C2007E6FAF510001E42101017F6F810E00018A
:1031D200E06FFF0EE16FFF0EE26FFF0EE36F170E5F
:1031E200E46F7CC1E5F07DC1E6F07EC1E7F07FC10E
:1031F200E8F0E467FFEF18F007EF19F0E835E8337D
:10320200E733E633E533E42FFAEF18F00001E55136
:10321200E0250101A06F000E0001E1210101A16F73
:10322200000E0001E2210101A26F000E0001E32164
:103232000101A36FA0C1E0F0FF0E0001E16FFF0EDC
:10324200E26F7F0EE36F000EE46FE0672BEF19F081
:1032520033EF19F0E435E433E333E233E133E02FC3
:1032620026EF19F00001E11DE56FE21DE66FE31D97
:10327200E76FE41DE86F01017C510001E5150101D2
:10328200B86F7D510001E6150101B96F7E51000151
:10329200E7150101BA6F7F510001E8150101BB6F0B
:1032A200B8C1B0F1B9C1B1F1BAC1B2F1BBC1B3F1A8
:1032B200A05117080001E06FFF0E01017C1500010B
:1032C200E16FFF0E01017D150001E26F7F0E01012A
:1032D2007E150001E36F000E01017F150001E46F0E
:1032E200000EE111E56F000EE211E66F800EE311B0
:1032F200E76F000EE411E86FE06782EF19F08AEFE2
:1033020019F0E835E833E733E633E533E02F7DEFB4
:1033120019F0E5C07CF1E6C07DF1E7C07EF1E8C0BE
:103322007FF10101AFBF9AEF19F098EF19F0A2EF08
:1033320019F07F1F7E1F7D1F7C6D000E7D237E2373
:103342007F239CC197F09DC198F09EC199F09FC1C7
:103352009AF0B0C19BF0B1C19CF0B2C19DF0B3C173
:103362009EF0C3EC41F097C09CF198C09DF199C0CA
:103372009EF19AC09FF164C16EF065C16FF066C1A3
:1033820070F067C171F09CC172F09DC173F09EC173
:1033920074F09FC175F07BEC22F06EC0B0F16FC08B
:1033A200B1F170C0B2F171C0B3F1B0C1B8F1B1C145
:1033B200B9F1B2C1BAF1B3C1BBF1B8C190F1B9C1AF
:1033C20091F1BAC192F1BBC193F1000E01019015C6
:1033D200B86F800E9115B96FFF0E9215BA6FFF0E7E
:1033E2009315BB6FB8C1B0F1B9C1B1F1BAC1B2F1B5
:1033F200BBC1B3F1B0C17EF0B1C17FF0B2C180F008
:10340200B3C181F0000E0001826F720E836F310E24
:10341200846F3F0E856F9CEC29F07EC074F17FC0F3
:1034220075F180C076F181C077F19CC19BF09DC19E
:103432009CF09EC19DF09FC19EF0B0C197F0B1C1BA
:1034420098F0B2C199F0B3C19AF0C3EC41F097C0C1
:1034520094F198C095F199C096F19AC097F1180E1F
:103462000001826F720E836F310E846F3F0E856F83
:1034720094C19BF095C19CF096C19DF097C19EF0BE
:1034820064C197F065C198F066C199F067C19AF07E
:10349200C3EC41F097C07EF098C07FF099C080F0F5
:1034A2009AC081F09CEC29F07EC014F17FC015F126
:1034B20080C016F181C017F114C16EF015C16FF012
:1034C20016C170F017C171F08C0E0001826FBE0E32
:1034D200836FBF0E846F350E856FB0C17EF0B1C1B0
:1034E2007FF0B2C180F0B3C181F09CEC29F07EC0C4
:1034F20072F07FC073F080C074F081C075F07BEC15
:1035020022F06EC078F16FC079F170C07AF171C0AB
:103512007BF174C16EF075C16FF076C170F077C146
:1035220071F078C172F079C173F07AC174F07BC125
:1035320075F07BEC22F06EC0B4F16FC0B5F170C0D3
:10354200B6F171C0B7F174C19BF075C19CF076C140
:103552009DF077C19EF0B4C197F0B5C198F0B6C1A5
:1035620099F0B7C19AF0C3EC41F097C094F198C0BA
:1035720095F199C096F19AC097F178C197F079C107
:1035820098F07AC199F07BC19AF094C19BF095C1F1
:103592009CF096C19DF097C19EF0C3EC41F097C09C
:1035A20044F198C045F199C046F19AC047F1B4C1BF
:1035B2007EF0B5C17FF0B6C180F0B7C181F0B4C171
:1035C20082F0B5C183F0B6C184F0B7C185F09CEC3E
:1035D20029F07EC0B0F17FC0B1F180C0B2F181C0EC
:1035E200B3F10E0E0001726FEA0E736FDD0E746F8F
:1035F200B50E756F4C0E826FBB0E836F310E846FEA
:10360200330E856FB0C17EF0B1C17FF0B2C180F0E0
:10361200B3C181F09CEC29F07EC06EF07FC06FF0E8
:1036220080C070F081C071F07BEC22F06EC0A4F11A
:103632006FC0A5F170C0A6F171C0A7F1550E0001CF
:10364200726FB30E736F8A0E746F380E756FB0C1DE
:1036520082F0B1C183F0B2C184F0B3C185F0A4C1DC
:103662007EF0A5C17FF0A6C180F0A7C181F09CECDD
:1036720029F07EC06EF07FC06FF080C070F081C014
:1036820071F07BEC22F06EC054F16FC055F170C046
:1036920056F171C057F1610E0001726F0B0E736F1C
:1036A200360E746FBB0E756FB0C182F0B1C183F07C
:1036B200B2C184F0B3C185F054C17EF055C17FF030
:1036C20056C180F057C181F09CEC29F07EC06EF0AB
:1036D2007FC06FF080C070F081C071F07BEC22F08F
:1036E2006EC048F16FC049F170C04AF171C04BF130
:1036F200AB0E0001726FAA0E736F2A0E746F3E0E2C
:10370200756FB0C182F0B1C183F0B2C184F0B3C1B0
:1037120085F048C17EF049C17FF04AC180F04BC1BB
:1037220081F09CEC29F07EC06EF07FC06FF080C00B
:1037320070F081C071F07BEC22F06EC038F16FC086
:1037420039F170C03AF171C03BF1B4C197F0B5C123
:1037520098F0B6C199F0B7C19AF0B0C182F0B1C188
:1037620083F0B2C184F0B3C185F038C17EF039C1B3
:103772007FF03AC180F03BC181F09CEC29F07EC021
:103782009BF07FC09CF080C09DF081C09EF0C3EC96
:1037920041F097C080F198C081F199C082F19AC03E
:1037A20083F1000E0001726F000E736F000E746FD2
:1037B200C00E756F80C16EF081C16FF082C170F072
:1037C20083C171F07BEC22F06EC0A3F06FC0A4F055
:1037D20070C0A5F071C0A6F080C182F081C183F0F3
:1037E20082C184F083C185F0B4C17EF0B5C17FF09F
:1037F200B6C180F0B7C181F09CEC29F07EC09FF089
:103802007FC0A0F080C0A1F081C0A2F095EC2FF0A3
:103812009FC03CF1A0C03DF1A1C03EF1A2C03FF16A
:1038220044C172F045C173F046C174F047C175F0EE
:1038320044C182F045C183F046C184F047C185F09E
:10384200B4C17EF0B5C17FF0B6C180F0B7C181F0DE
:103852009CEC29F07EC06EF07FC06FF080C070F0EB
:1038620081C071F07BEC22F06EC018F16FC019F1CB
:1038720070C01AF171C01BF13CC197F03DC198F0C4
:103882003EC199F03FC19AF018C19BF019C19CF05A
:103892001AC19DF01BC19EF0C3EC41F097C04CF1E0
:1038A20098C04DF199C04EF19AC04FF1B4C19BF04E
:1038B200B5C19CF0B6C19DF0B7C19EF04CC197F066
:1038C2004DC198F04EC199F04FC19AF0C3EC41F04E
:1038D20097C094F198C095F199C096F19AC097F16A
:1038E200000E0001976F000E986F800E996F3F0EC9
:1038F2009A6F94C19BF095C19CF096C19DF097C1BF
:103902009EF0C3EC41F097C0B4F198C0B5F199C0F4
:10391200B6F19AC0B7F1B4C1B8F1B5C1B9F1B6C147
:10392200BAF1B7C1BBF1B8C1ACF1B9C1ADF1BAC11D
:10393200AEF1BBC1AFF17CC1E0F07DC1E1F07EC16F
:10394200E2F07FC1E3F0170ED8900001E037E137D3
:10395200E237E337E82EA5EF1CF0E0510101AC2776
:103962000001E1510101AD230001E2510101AE2349
:103972000001E3510101AF23170E0001E06FACC15A
:10398200E1F0ADC1E2F0AEC1E3F0AFC1E4F0E06757
:10399200CDEF1CF0D5EF1CF0E435E433E333E23332
:1039A200E133E02FC8EF1CF00001E4BFE5EF1CF0AB
:1039B200E451E311E21106E1E105D8B0E3EF1CF0B6
:1039C200E5EF1CF0FDEF1CF0B4C197F0B5C198F023
:1039D200B6C199F0B7C19AF07CC19BF07DC19CF051
:1039E200BAEC32F097C0B4F198C0B5F199C0B6F113
:1039F2009AC0B7F10DEF1DF0ACC1B8F1ADC1B9F18C
:103A0200AEC1BAF1AFC1BBF1B8C1B4F1B9C1B5F140
:103A1200BAC1B6F1BBC1B7F188C17EF089C17FF0EE
:103A22008AC180F08BC181F0B4C182F0B5C183F04C
:103A3200B6C184F0B7C185F09CEC29F07EC0D8F005
:103A42007FC0D9F080C0DAF081C0DBF01200000E36
:103A52000101216FCEC024F1CFC025F1D0C026F1E3
:103A6200D1C027F127BF3AEF1DF038EF1DF04EEF1E
:103A72001DF0010E216F24C160F025C161F026C145
:103A820062F027C163F0D0EC42F060C024F161C063
:103A920025F162C026F163C027F1000E0101236FF8
:103AA200000E226FE8C111F1E9C112F12151D8B41F
:103AB2005DEF1DF05FEF1DF073EF1DF02151D8A4F3
:103AC20065EF1DF067EF1DF06DEF1DF0000E076F43
:103AD2002B0E066F71EF1DF0000E076F2D0E066F95
:103AE20006C121F124C160F025C161F026C162F056
:103AF20027C163F063EC3AF0000160056111D8A4BC
:103B020085EF1DF087EF1DF0BEEF1DF00101215181
:103B1200D8B48EEF1DF090EF1DF099EF1DF021C18A
:103B220058F21107D8A01207000E236F010E226F60
:103B3200580E22250001606F020E010123210001AF
:103B4200616FA20E626F0F0E636F2EEC42F00101E5
:103B5200FD0E1127FF0E1223CCC072F0CDC073F000
:103B6200580E0001746F020E756F11C176F012C10A
:103B720077F0D1EC3EF07AEF22F024C160F025C15B
:103B820061F026C162F027C163F063EC3AF00001F4
:103B920060516111D8A4D0EF1DF0D2EF1DF009EFF2
:103BA2001EF001012151D8B4D9EF1DF0DBEF1DF059
:103BB200E4EF1DF021C158F21107D8A01207000E40
:103BC200236F010E226F580E22250001606F020E34
:103BD200010123210001616FA60E626F0F0E636F58
:103BE2002EEC42F00101FD0E1127FF0E1223CCC074
:103BF20072F0CDC073F0580E0001746F020E756F33
:103C020011C176F012C177F0D1EC3EF07AEF22F0DA
:103C1200000E0101286F000E296F800E2A6F3F0EE1
:103C22002B6F000E106F000E0F6F24C160F025C1C4
:103C320061F026C162F027C163F0000E0001646FDB
:103C4200000E656F000E666F000E676F70EC3CF041
:103C52000001D8B02FEF1EF031EF1EF02BEF1FF056
:103C62003EEF1EF013C128F114C129F115C12AF14A
:103C720016C12BF101010F4B102B28C17EF029C177
:103C82007FF02AC180F02BC181F0000E0001826F0B
:103C9200000E836F200E846F410E856F9CEC29F01D
:103CA2007EC013F17FC014F180C015F181C016F1FE
:103CB20001011351245D0001606F01011451255966
:103CC2000001616F0101155126590001626F010166
:103CD200165127590001636F39EC40F0000163BFB0
:103CE2007EEF1EF063516211611109E1020E605D07
:103CF200D8A07EEF1EF080EF1EF033EF1EF013C14E
:103D02009FF014C1A0F015C1A1F016C1A2F024C108
:103D1200A3F025C1A4F026C1A5F027C1A6F05EEC50
:103D220039F00001D8A098EF1EF09AEF1EF033EFA1
:103D32001EF001012851245D0001606F010129512B
:103D420025590001616F01012A5126590001626F54
:103D520001012B5127590001636F39EC40F000013A
:103D620063BFC1EF1EF063516211611107E1020EE0
:103D7200605DD8B0BFEF1EF0C1EF1EF011EF1FF073
:103D820028C124F129C125F12AC126F12BC127F12D
:103D92002BEF1FF028C19FF029C1A0F02AC1A1F08A
:103DA2002BC1A2F0000EA36F000EA46F200EA56F10
:103DB200410EA66F95EC2FF09FC028F1A0C029F10B
:103DC200A1C02AF1A2C02BF101010F07D8A0100750
:103DD2002851245D0001606F01012951255900011C
:103DE200616F01012A5126590001626F01012B51B5
:103DF20027590001636F39EC40F0000163BF0FEFF8
:103E02001FF063516211611107E1020E605DD8B0CB
:103E12000DEF1FF00FEF1FF011EF1FF0C1EF1EF0BB
:103E220024C19FF025C1A0F026C1A1F027C1A2F0B4
:103E320028C1A3F029C1A4F02AC1A5F02BC1A6F084
:103E42005EEC39F00001D8A029EF1FF02BEF1FF034
:103E5200CBEF1EF0D2C009F109C10AF10101EBBF9B
:103E620035EF1FF037EF1FF03DEF1FF0EAC102F10F
:103E7200EBC103F141EF1FF0000E036F060E026F5C
:103E820002C10DF103C10EF10D4B0E2B660E0A1984
:103E9200D8A44EEF1FF050EF1FF070EF1FF010BFCD
:103EA20057EF1FF055EF1FF063EF1FF0000E286F62
:103EB200000E296F800E2A6F3F0E2B6F000E106FBF
:103EC200000E0F6F670E0919D8B46AEF1FF06CEF7E
:103ED2001FF070EF1FF00F510D2710510E23000E2F
:103EE200186F000E176F24C119F125C11AF126C1EE
:103EF2001BF127C11CF128C113F129C114F12AC1F8
:103F020015F12BC116F102EF20F019C19FF01AC171
:103F1200A0F01BC1A1F01CC1A2F028C1A3F029C1CD
:103F2200A4F02AC1A5F02BC1A6F095EC2FF09FC0FA
:103F3200B8F0A0C0B9F0A1C0BAF0A2C0BBF0D9ECF1
:103F420033F0B8C01DF1B9C01EF1BAC01FF1BBC039
:103F520020F11DC160F01EC161F01FC162F020C1DD
:103F620063F0DAEC38F060C00BF161C00CF119C1FA
:103F720097F01AC198F01BC199F01CC19AF01DC1AB
:103F820082F01EC183F01FC184F020C185F028C1D8
:103F92007EF029C17FF02AC180F02BC181F09CEC18
:103FA20029F07EC09BF07FC09CF080C09DF081C054
:103FB2009EF0C3EC41F097C019F198C01AF199C074
:103FC2001BF19AC01CF128C19FF029C1A0F02AC19F
:103FD200A1F02BC1A2F0000E0001A36F000EA46F8E
:103FE200200EA56F410EA66F95EC2FF09FC028F111
:103FF200A0C029F1A1C02AF1A2C02BF10101174BE7
:10400200182B0D51175D1851800A0001D36F010161
:104012000E51800A0001D359D8A012EF20F014EFFC
:1040220020F086EF1FF028C17EF029C17FF02AC15F
:1040320080F02BC181F0000E826F000E836FA00E04
:10404200846F400E856F9CEC29F07EC01DF17FC00D
:104052001EF180C01FF181C020F119C19FF01AC169
:10406200A0F01BC1A1F01CC1A2F01DC1A3F01EC192
:10407200A4F01FC1A5F020C1A6F05EEC39F000014A
:10408200D8B046EF20F048EF20F053EF20F0000EBA
:1040920001011D6F000E1E6F000E1F6F000E206FBC
:1040A2007DEF20F019C160F01AC161F01BC162F00E
:1040B2001CC163F01DC164F01EC165F01FC166F032
:1040C20020C167F070EC3CF00001D8A06BEF20F04B
:1040D2006DEF20F07DEF20F001010BB173EF20F0C6
:1040E20075EF20F07DEF20F0000E1D6F000E1E6FA9
:1040F200000E1F6F000E206F24C16EF025C16FF0FD
:1041020026C170F027C171F01DC172F01EC173F09B
:104112001FC174F020C175F07BEC22F06EC019F162
:104122006FC01AF170C01BF171C01CF119C19FF070
:104132001AC1A0F01BC1A1F01CC1A2F0000E000127
:10414200826F000E836F200E846F410E856F13C144
:104152007EF014C17FF015C180F016C181F09CEC95
:1041620029F07EC0A3F07FC0A4F080C0A5F081C07A
:10417200A6F05EEC39F00001D8A0C2EF20F0C4EF47
:1041820020F0EEEF20F001010F4B102B13C17EF057
:1041920014C17FF015C180F016C181F0000E00013C
:1041A200826F000E836F200E846F410E856F9CEC30
:1041B20029F07EC013F17FC014F180C015F181C0D7
:1041C20016F1660E01010A19D8A4EAEF20F0ECEF0D
:1041D20020F0EEEF20F00D4B0E2B13C128F114C18D
:1041E20029F115C12AF116C12BF10FC100F110C13D
:1041F20001F1000E0101086F000E056F000E046F41
:10420200000E186F000E176FEEEF21F019C19FF02C
:104212001AC1A0F01BC1A1F01CC1A2F028C1A3F0D9
:1042220029C1A4F02AC1A5F02BC1A6F095EC2FF06C
:104232009FC0B8F0A0C0B9F0A1C0BAF0A2C0BBF054
:10424200D9EC33F0B8C01DF1B9C01EF1BAC01FF1EC
:10425200BBC020F11DC160F01EC161F01FC162F040
:1042620020C163F0DAEC38F0000161BF44EF21F0C5
:10427200615107E10A0E605DD8B042EF21F044EFD0
:1042820021F054EF21F01DC160F01EC161F01FC189
:1042920062F020C163F0DAEC38F060C00BF161C06B
:1042A2000CF159EF21F0000E01010C6F090E0B6F9A
:1042B20001010851D8A460EF21F062EF21F08AEFEA
:1042C20021F001BF69EF21F067EF21F08AEF21F0C1
:1042D200580E2225D96E020E2321DA6E2E0EDF6EC3
:1042E200224B232B1107D8A01207010E086F8AEF69
:1042F20021F0580E2225D96E020E2321DA6E300EDD
:10430200DF6E224B232B1107D8A012070407D8A077
:10431200050704510511D8A491EF21F093EF21F084
:104322007AEF21F0580E2225D96E020E2321DA6E81
:104332000B51300FDF6E224B232B1107D8A012072F
:1043420019C197F01AC198F01BC199F01CC19AF0DB
:104352001DC182F01EC183F01FC184F020C185F00F
:1043620028C17EF029C17FF02AC180F02BC181F0E3
:104372009CEC29F07EC09BF07FC09CF080C09DF039
:1043820081C09EF0C3EC41F097C019F198C01AF1B8
:1043920099C01BF19AC01CF128C19FF029C1A0F05D
:1043A2002AC1A1F02BC1A2F0000E0001A36F000EE2
:1043B200A46F200EA56F410EA66F95EC2FF09FC043
:1043C20028F1A0C029F1A1C02AF1A2C02BF101015C
:1043D2000007D8A00107174B182B0D51175D185174
:1043E200800A0001D36F01010E51800A0001D359E6
:1043F200D8B0FEEF21F000EF22F00FEF22F0010122
:1044020023BF0DEF22F0235109E14B0E225DD8A00C
:104412000DEF22F00FEF22F007EF21F0000E010165
:10442200186F4F0E176F580E1725D96E020E1821EE
:10443200DA6E000EDF6E580E0001D36F020ED46FDB
:10444200010122510001D35F010123510001D45B1C
:10445200010117510001D325606F010118510001BC
:10446200D421616F580E626F020E636F22C164F035
:1044720023C165F027EC41F001012251175D226F43
:1044820023511859236F2151D8A44AEF22F04DEF3E
:1044920022F0010E4EEF22F0000E176F186B215121
:1044A200D8B456EF22F058EF22F063EF22F0220741
:1044B200D8A02307580E2225D96E020E2321DA6EC8
:1044C20021C1DFFF1751115F1851125BCCC072F08E
:1044D200CDC073F0580E22250001746F020E010147
:1044E20023210001756F11C176F012C177F0D1EC72
:1044F2003EF0120000017151800B7A6F71517125EB
:104502007C6F70AF87EF22F089EF22F08AEF22F002
:104512007C817C51D8B490EF22F092EF22F0A7EF89
:1045220022F07C29D8A498EF22F09AEF22F0A2EF91
:1045320022F0000E6E6F000E6F6F000E706F000E95
:10454200716F708F000E716FAFEF22F0000E6E6F01
:10455200000E6F6F000E706F000E716F7551800B41
:104562007B6F7A517B19D8B4B9EF22F0BBEF22F0FE
:10457200BCEF22F07A8D755175257B6F74AFC4EF55
:1045820022F0C6EF22F0C7EF22F07B817B51D8B434
:10459200CDEF22F0CFEF22F0E4EF22F07B29D8A476
:1045A200D5EF22F0D7EF22F0DFEF22F0000E726F8C
:1045B200000E736F000E746F000E756F748F000E15
:1045C200756FECEF22F0000E726F000E736F000E2B
:1045D200746F000E756F7C517B5DD8B0F3EF22F0E3
:1045E200F5EF22F01CEF23F07AADFAEF22F0FCEFA8
:1045F20022F0FEEF22F0800E7A1B7CC07DF07BC0A1
:104602007CF07DC07BF06EC07DF072C06EF07DC02C
:1046120072F06FC07DF073C06FF07DC073F070C038
:104622007DF074C070F07DC074F071C07DF075C013
:1046320071F07DC075F0000E7D6F7C517BC076F00D
:10464200776B765F000E775B77BF31EF23F07751A0
:1046520009E11A0E765DD8A031EF23F033EF23F093
:104662006AEF23F06E516F1170117111D8A43CEFF3
:1046720023F03FEF23F0010E40EF23F0000E7D6F99
:10468200000E6E6F000E6F6F000E706F000E716F76
:104692007BC07CF073EF23F07DA152EF23F054EF47
:1046A20023F05AEF23F0D8907D3101097D6F5CEF42
:1046B20023F0D8907D336EA161EF23F063EF23F0F6
:1046C20064EF23F07D8F7135713370336F336E3346
:1046D2007C2B7B517C5DD8A071EF23F073EF23F02C
:1046E2004DEF23F07ABD78EF23F07AEF23F0BAEFA3
:1046F20023F07C51D8A480EF23F082EF23F08CEFDB
:1047020023F0000E6E6F000E6F6F000E706F000EC2
:10471200716FDBEF24F072516E2773516F23745166
:1047220070237551712371A199EF23F09BEF23F050
:1047320047EF24F07DA1A0EF23F0A2EF23F0A8EF32
:1047420023F0D8907D3101097D6FAAEF23F0D89034
:104752007D336EA1AFEF23F0B1EF23F0B2EF23F080
:104762007D8F7135713370336F336E337C2B47EF2E
:1047720024F072516E5D73516F59745170597151B9
:10478200800A766F7551800A7659D8B0CBEF23F044
:10479200CDEF23F0F8EF23F06E51725D766F6F511B
:1047A2007359776F70517459786F71517559796F68
:1047B200FF0E76256E6FFF0E77216F6FFF0E782149
:1047C200706FFF0E7921716F800E7A1B7D6D7D51A6
:1047D200D8A4EEEF23F0F0EF23F000EF24F0010E67
:1047E2006E27000E6F237023712300EF24F07251A5
:1047F2006E5F73516F5B7451705B7551715B6E517B
:104802006F1170117111D8A409EF24F00BEF24F08D
:1048120040EF24F07D51D8A411EF24F013EF24F0DF
:1048220040EF24F0000E6E6F000E6F6F000E706F7F
:10483200000E716FDBEF24F0D8906E376F37703750
:1048420071377DAF27EF24F029EF24F02AEF24F00F
:104852006E817DA12FEF24F031EF24F035EF24F0AB
:10486200D8807D3737EF24F0D8907D377C51D8B48B
:104872003DEF24F03FEF24F040EF24F07C0770AFCF
:1048820045EF24F047EF24F01DEF24F0000E7B6F7C
:104892007DAF4EEF24F050EF24F068EF24F07DC09E
:1048A20076F07F0E7617D8B459EF24F05BEF24F040
:1048B2005FEF24F0010E7B6F68EF24F06EA164EFCE
:1048C20024F066EF24F068EF24F05BEF24F07B51D4
:1048D200D8B46EEF24F070EF24F09BEF24F0010EB9
:1048E2006E27000E6F237023712371A17BEF24F0DA
:1048F2007DEF24F09BEF24F06EC076F06FC077F06E
:1049020070C078F071C079F07935793378337733C4
:10491200763376C06EF077C06FF078C070F079C0F1
:1049220071F07C29D8B498EF24F09AEF24F09BEF31
:1049320024F07C2B7C29D8B4A1EF24F0A3EF24F03F
:10494200ABEF24F07C51D8A4A9EF24F0ABEF24F014
:10495200BDEF24F0000E6E6F000E6F6F000E706FD1
:10496200000E716F7C51D8A4B9EF24F0BBEF24F094
:10497200BDEF24F0000E7A6F7CA1C2EF24F0C4EFE9
:1049820024F0C7EF24F0708FC8EF24F0709FD89006
:104992007C31716F7AAFD0EF24F0D2EF24F0D3EFF5
:1049A20024F0718F6EC06EF06FC06FF070C070F047
:1049B20071C071F01200ABC0BCF0ACC0BDF0ADC0B4
:1049C200BEF0AEC0BFF0BCC0D4F0BDC0D5F0BEC01A
:1049D200D6F0BFC0D7F0000E0001D415AF6F000EA5
:1049E200D515B06F800ED615B16F7F0ED715B26F89
:1049F200800EB11909E17F0EB219AF11B011D8A41E
:104A020005EF25F007EF25F035EF25F0ABC082F07A
:104A1200ACC083F0ADC084F0AEC085F0ABC07EF018
:104A2200ACC07FF0ADC080F0AEC081F09CEC29F04C
:104A32007EC06EF07FC06FF080C070F081C071F0F8
:104A4200ABC072F0ACC073F0ADC074F0AEC075F024
:104A52007BEC22F06EC0ABF06FC0ACF070C0ADF07A
:104A620071C0AEF03BEF27F0D7BF44EF25F0D7512E
:104A7200D611D51106E1D405D8B042EF25F044EFA6
:104A820025F082EF25F0FF0ED415AF6FFF0ED5157E
:104A9200B06FFF0ED615B16F7F0ED715B26FAF5143
:104AA200B011B111B211D8A459EF25F05BEF25F086
:104AB20065EF25F0ABC0ABF0ACC0ACF0ADC0ADF073
:104AC200AEC0AEF03BEF27F0D7BF6CEF25F06AEF38
:104AD20025F082EF25F0000E0101ED6F210EEC6F43
:104AE200AC0E0001606F0F0E616F75EC44F060C098
:104AF200ABF061C0ACF062C0ADF063C0AEF03BEFB2
:104B020027F0170EAF6FD4C0B0F0D5C0B1F0D6C049
:104B1200B2F0D7C0B3F0AF6791EF25F099EF25F06F
:104B2200B335B333B233B133B033AF2F8CEF25F09B
:104B3200B0C0CCF0B1C0CDF0B2C0CEF0B3C0CFF0B7
:104B42000001CC51CD11CE11CF11D8A4ABEF25F07D
:104B5200ADEF25F0DDEF25F0000EB86F000EB96F56
:104B6200000EBA6F000EBB6FC2EF25F0D890D4379B
:104B7200D537D637D737010EB827000EB923BA2357
:104B8200BB23D6AFC7EF25F0C9EF25F0B7EF25F06D
:104B9200FF0EB825AF6FFF0EB921B06FFF0EBA211D
:104BA200B16FFF0EBB21B26FAF51CC5FB051CD5B85
:104BB200B151CE5BB251CF5B810ECC27FF0ECD231C
:104BC200FF0ECE23FF0ECF23FF0ED415AF6FFF0EC5
:104BD200D515B06F7F0ED615B16F000ED715B26F17
:104BE200000EAF11D46F000EB011D56F800EB1114F
:104BF200D66F000EB211D76FCCA102EF26F004EFF0
:104C020026F00CEF26F0D451D427D551D523D65116
:104C1200D623D751D723CF35CF33CE33CD33CC3371
:104C2200D451D427D551D523D651D623D751D72302
:104C3200000EB46F000EB56F000EB66F000EB76FA8
:104C4200B4C0C0F0B5C0C1F0B6C0C2F0B7C0C3F0C6
:104C5200000ED06F000ED16F000ED26F010ED36F17
:104C62007BEF26F0B451D025C46FB551D121C56F69
:104C7200B651D221C66FB751D321C76FC451D45D8B
:104C8200C551D559C651D659D751800AAF6FC751B0
:104C9200800AAF59D8A050EF26F052EF26F06EEFFF
:104CA20026F0C451D025B46FC551D121B56FC6517C
:104CB200D221B66FC751D321B76FC451D45FC5514A
:104CC200D55BC651D65BC751D75BD051C027D151F6
:104CD200C123D251C223D351C323D451D427D55196
:104CE200D523D651D623D751D723D890D333D23315
:104CF200D133D033D051D111D211D311D8A484EFF2
:104D020026F086EF26F033EF26F0D451D511D611D6
:104D1200D711D8B48FEF26F091EF26F0F1EF26F0FD
:104D2200000EC86F000EC96F800ECA6F3F0ECB6FA8
:104D3200C8C09FF0C9C0A0F0CAC0A1F0CBC0A2F009
:104D4200000EA36F000EA46F800EA56F3F0EA66F1C
:104D52005EEC39F00001D8A0B1EF26F0B3EF26F0F7
:104D6200F1EF26F0000EC86F000EC96F800ECA6FF9
:104D72003F0ECB6F000E9F6F000EA06F800EA16FD3
:104D82003F0EA26FC8C0A3F0C9C0A4F0CAC0A5F06C
:104D9200CBC0A6F05EEC39F00001D8B0D3EF26F01C
:104DA200D5EF26F0DDEF26F0020EC027000EC1235C
:104DB200C223C323F1EF26F0010EC015AF6F000E20
:104DC200C115B06F000EC215B16F000EC315B26FE0
:104DD200AF51C027B051C123B151C223B251C32335
:104DE200C0C0AFF0C1C0B0F0C2C0B1F0C3C0B2F039
:104DF200B235B233B133B033AF33000EAF25D46F17
:104E0200000EB021D56F000EB121D66F3F0EB22138
:104E1200D76FCCC0AFF0CDC0B0F0CEC0B1F0CFC034
:104E2200B2F0170ED890AF37B037B137B237E82E9D
:104E320013EF27F0AF51D427B051D523B151D62368
:104E4200B251D723D4C0BCF0D5C0BDF0D6C0BEF09D
:104E5200D7C0BFF0BCC0C8F0BDC0C9F0BEC0CAF068
:104E6200BFC0CBF0C8C0ABF0C9C0ACF0CAC0ADF097
:104E7200CBC0AEF012001D50800B266E1D501D24BB
:104E8200286E1CAE47EF27F049EF27F04AEF27F0D4
:104E920028802850D8B450EF27F052EF27F067EF60
:104EA20027F02828D8A458EF27F05AEF27F062EF0E
:104EB20027F0000E1A6E000E1B6E000E1C6E000E06
:104EC2001D6E1C8E000E1D6E6FEF27F0000E1A6E07
:104ED200000E1B6E000E1C6E000E1D6E2150800B0C
:104EE200276E26502718D8B479EF27F07BEF27F0EA
:104EF2007CEF27F0268C21502124276E20AE84EFF0
:104F020027F086EF27F087EF27F027802750D8B4C5
:104F12008DEF27F08FEF27F0A4EF27F02728D8A4F2
:104F220095EF27F097EF27F09FEF27F0000E1E6E08
:104F3200000E1F6E000E206E000E216E208E000EDF
:104F4200216EACEF27F0000E1E6E000E1F6E000EDB
:104F5200206E000E216E2850275CD8B0B3EF27F0E8
:104F6200B5EF27F0DCEF27F026ACBAEF27F0BCEF65
:104F720027F0BEEF27F0800E261A28C029F027C09E
:104F820028F029C027F01AC029F01EC01AF029C043
:104F92001EF01BC029F01FC01BF029C01FF01CC04F
:104FA20029F020C01CF029C020F01DC029F021C02A
:104FB2001DF029C021F0000E296E285027C022F0D2
:104FC200236A225E000E235A23BEF1EF27F02350FC
:104FD20009E11A0E225CD8A0F1EF27F0F3EF27F0D7
:104FE2002AEF28F01A501B101C101D10D8A4FCEF39
:104FF20027F0FFEF27F0010E00EF28F0000E296ED8
:10500200000E1A6E000E1B6E000E1C6E000E1D6E40
:1050120027C028F033EF28F029A012EF28F014EF70
:1050220028F01AEF28F0D89029300109296E1CEFD8
:1050320028F0D89029321AA021EF28F023EF28F087
:1050420024EF28F0298E1D341D321C321B321A32F5
:10505200282A2750285CD8A031EF28F033EF28F017
:105062000DEF28F026BC38EF28F03AEF28F07AEF5F
:1050720028F02850D8A440EF28F042EF28F04CEF57
:1050820028F0000E1A6E000E1B6E000E1C6E000E33
:105092001D6E9BEF29F01E501A261F501B22205016
:1050A2001C2221501D221DA059EF28F05BEF28F091
:1050B20007EF29F029A060EF28F062EF28F068EFEF
:1050C20028F0D89029300109296E6AEF28F0D8908B
:1050D20029321AA06FEF28F071EF28F072EF28F052
:1050E200298E1D341D321C321B321A32282A07EF38
:1050F20029F01E501A5C1F501B5820501C581D507E
:10510200800A226E2150800A2258D8B08BEF28F0F4
:105112008DEF28F0B8EF28F01A501E5C226E1B505B
:105122001F58236E1C502058246E1D502158256E86
:10513200FF0E22241A6EFF0E23201B6EFF0E242068
:105142001C6EFF0E25201D6E800E261A296C29501A
:10515200D8A4AEEF28F0B0EF28F0C0EF28F0010E8F
:105162001A26000E1B221C221D22C0EF28F01E5000
:105172001A5E1F501B5A20501C5A21501D5A1A5099
:105182001B101C101D10D8A4C9EF28F0CBEF28F07B
:1051920000EF29F02950D8A4D1EF28F0D3EF28F05E
:1051A20000EF29F0000E1A6E000E1B6E000E1C6E30
:1051B200000E1D6E9BEF29F0D8901A361B361C3656
:1051C2001D3629AEE7EF28F0E9EF28F0EAEF28F0E4
:1051D2001A8029A0EFEF28F0F1EF28F0F5EF28F080
:1051E200D8802936F7EF28F0D89029362850D8B43D
:1051F200FDEF28F0FFEF28F000EF29F028061CAEA3
:1052020005EF29F007EF29F0DDEF28F0000E276EF9
:1052120029AE0EEF29F010EF29F028EF29F029C06E
:1052220022F07F0E2216D8B419EF29F01BEF29F0D5
:105232001FEF29F0010E276E28EF29F01AA024EFA4
:1052420029F026EF29F028EF29F01BEF29F027504B
:10525200D8B42EEF29F030EF29F05BEF29F0010EE0
:105262001A26000E1B221C221D221DA03BEF29F034
:105272003DEF29F05BEF29F01AC022F01BC023F0AA
:105282001CC024F01DC025F02534253224322332DF
:10529200223222C01AF023C01BF024C01CF025C009
:1052A2001DF02828D8B458EF29F05AEF29F05BEF07
:1052B20029F0282A2828D8B461EF29F063EF29F0D1
:1052C2006BEF29F02850D8A469EF29F06BEF29F091
:1052D2007DEF29F0000E1A6E000E1B6E000E1C6E82
:1052E200000E1D6E2850D8A479EF29F07BEF29F02B
:1052F2007DEF29F0000E266E28A082EF29F084EFC0
:1053020029F087EF29F01C8E88EF29F01C9ED89097
:1053120028301D6E26AE90EF29F092EF29F093EF20
:1053220029F01D8E1AC01AF01BC01BF01CC01CF005
:105332001DC01DF0120000018151800B8A6F815146
:105342008125906F80AFA8EF29F0AAEF29F0ABEF8B
:1053520029F090819051D8B4B1EF29F0B3EF29F040
:10536200C6EF29F09029D8A4B9EF29F0BBEF29F0B4
:10537200C3EF29F0000E7E6F000E7F6F000E806F6C
:10538200000E816F808FCEEF29F0000E7E6F000E2F
:105392007F6F000E806F000E816F8551800B8A1B1C
:1053A200855185258F6F84AFD9EF29F0DBEF29F086
:1053B200DCEF29F08F818F51D8B4E2EF29F0E4EFCE
:1053C20029F0F7EF29F08F29D8A4EAEF29F0ECEFC2
:1053D20029F0F4EF29F0000E826F000E836F000EA9
:1053E200846F000E856F848FFFEF29F0000E826FAD
:1053F200000E836F000E846F000E856F8F51D8B43C
:1054020005EF2AF007EF2AF00FEF2AF09051D8A407
:105412000DEF2AF00FEF2AF019EF2AF0000E7E6F3F
:10542200000E7F6F000E806F000E816FB1EF2BF0C8
:1054320084517E03F3CF95F0F4CF96F095518B6FA4
:105442008C6B8D6B8E6B9651916F926B936B946B91
:1054520083517F03F3CF95F0F4CF96F095518B27CC
:10546200000E8C238D238E2396519127000E9223BA
:105472009323942382518003F3CF95F0F4CF96F0D7
:1054820095518B27000E8C238D238E2396519127C5
:10549200000E9223932394238DC08EF08CC08DF046
:1054A2008BC08CF08B6B82517F03F3CF95F0F4CFDE
:1054B20096F095518B2796518C23000E8D23000E6A
:1054C2008E2383517E03F3CF95F0F4CF96F095515E
:1054D2008B2796518C23000E8D23000E8E238DC0B8
:1054E2008EF08CC08DF08BC08CF08B6B82517E0362
:1054F200F3CF95F0F4CF96F095518B2796518C23EC
:10550200000E8D23000E8E2384517F03F3CF95F07E
:10551200F4CF96F09551912796519223000E932342
:10552200000E942383518003F3CF95F0F4CF96F0CD
:105532009551912796519223000E9323000E9423A6
:1055420084518003F3CF95F0F4CF96F09551866F96
:105552009651876F886B896B88C089F087C088F005
:1055620086C087F0866B8651912787519223885196
:105572009323895194238BC086F08CC087F08DC011
:1055820088F08EC089F0190ECCEF2AF0D8908933BA
:10559200883387338633E82EC7EF2AF08651912766
:1055A2008751922388519323895194238DC08EF081
:1055B2008CC08DF08BC08CF08B6B8F5190C086F0BD
:1055C200876B8627000E8723820E8625956FFF0E36
:1055D2008721966F02EF2BF0D8909137923793374D
:1055E20094378EAFF7EF2AF0F9EF2AF0FAEF2AF0AC
:1055F2009181D8908B378C378D378E379507D8A00D
:10560200960793AF07EF2BF009EF2BF0EDEF2AF09F
:10561200000E8F6F8EAF10EF2BF012EF2BF036EFE4
:105622002BF0FF0E8B15866FFF0E8C15876FFF0E0A
:105632008D15886F7F0E8E15896F8651871188119F
:105642008911D8B427EF2BF029EF2BF02DEF2BF097
:10565200010E8F6F36EF2BF091A132EF2BF034EF6A
:105662002BF036EF2BF029EF2BF08F51D8B43CEF13
:105672002BF03EEF2BF062EF2BF0010E9127000E84
:1056820092239323942394A149EF2BF04BEF2BF019
:1056920062EF2BF091C086F092C087F093C088F041
:1056A20094C089F08935893388338733863386C03D
:1056B20091F087C092F088C093F089C094F0954B26
:1056C200962B96BF6DEF2BF0965108E19529D8A045
:1056D2006DEF2BF06FEF2BF079EF2BF0000E916F47
:1056E200000E926F800E936F7F0E946FA7EF2BF0D8
:1056F20096BF86EF2BF0965106E19505D8B084EF60
:105702002BF086EF2BF092EF2BF0000E916F000E34
:10571200926F000E936F000E946F000E8A6FA7EFC8
:105722002BF095C090F0FF0E9117FF0E92177F0E8F
:105732009317000E941790A1A1EF2BF0A3EF2BF07B
:10574200A4EF2BF0938FD8909031946F8A519413D9
:1057520091C07EF092C07FF093C080F094C081F03F
:1057620012000450800B0D6E04500424136E03AE1D
:10577200BDEF2BF0BFEF2BF0C0EF2BF013801350D7
:10578200D8B4C6EF2BF0C8EF2BF0DBEF2BF01328C9
:10579200D8A4CEEF2BF0D0EF2BF0D8EF2BF0000EE9
:1057A200016E000E026E000E036E000E046E038E7A
:1057B200E3EF2BF0000E016E000E026E000E036E80
:1057C200000E046E0850800B0D1A08500824126E49
:1057D20007AEEEEF2BF0F0EF2BF0F1EF2BF0128093
:1057E2001250D8B4F7EF2BF0F9EF2BF00CEF2CF0AE
:1057F2001228D8A4FFEF2BF001EF2CF009EF2CF0C8
:10580200000E056E000E066E000E076E000E086E8C
:10581200078E14EF2CF0000E056E000E066E000EC1
:10582200076E000E086E1250D8B41AEF2CF01CEF5F
:105832002CF024EF2CF01350D8A422EF2CF024EFFC
:105842002CF02EEF2CF0000E016E000E026E000EF8
:10585200036E000E046EC6EF2DF007500102F3CF67
:1058620018F0F4CF19F018500E6E0F6A106A116A10
:105872001950146E156A166A176A06500202F3CF9F
:1058820018F0F4CF19F018500E26000E0F22102235
:10589200112219501426000E152216221722055025
:1058A2000302F3CF18F0F4CF19F018500E26000EB1
:1058B2000F221022112219501426000E1522162230
:1058C200172210C011F00FC010F00EC00FF00E6AB8
:1058D20005500202F3CF18F0F4CF19F018500E263B
:1058E20019500F22000E1022000E11220650010242
:1058F200F3CF18F0F4CF19F018500E2619500F22DA
:10590200000E1022000E112210C011F00FC010F074
:105912000EC00FF00E6A05500102F3CF18F0F4CF5B
:1059220019F018500E2619500F22000E1022000EE8
:10593200112207500202F3CF18F0F4CF19F01850D9
:10594200142619501522000E1622000E1722065098
:105952000302F3CF18F0F4CF19F01850142619509F
:105962001522000E1622000E172207500302F3CF53
:1059720018F0F4CF19F01850096E19500A6E0B6A1C
:105982000C6A0BC00CF00AC00BF009C00AF0096ADD
:10599200095014260A5015220B5016220C501722B9
:1059A2000EC009F00FC00AF010C00BF011C00CF0CD
:1059B200190EE1EF2CF0D8900C320B320A32093278
:1059C200E82EDCEF2CF0095014260A5015220B5059
:1059D20016220C50172210C011F00FC010F00EC08A
:1059E2000FF00E6A125013C009F00A6A0926000E5F
:1059F2000A22820E0924186EFF0E0A20196E17EF72
:105A02002DF0D890143615361636173611AE0CEF27
:105A12002DF00EEF2DF00FEF2DF01480D8900E36F2
:105A22000F36103611361806D8A0190616AE1CEF1E
:105A32002DF01EEF2DF002EF2DF0000E126E11AEC2
:105A420025EF2DF027EF2DF04BEF2DF0FF0E0E146A
:105A5200096EFF0E0F140A6EFF0E10140B6E7F0EEE
:105A620011140C6E09500A100B100C10D8B43CEF34
:105A72002DF03EEF2DF042EF2DF0010E126E4BEFA6
:105A82002DF014A047EF2DF049EF2DF04BEF2DF044
:105A92003EEF2DF01250D8B451EF2DF053EF2DF010
:105AA20077EF2DF0010E1426000E15221622172272
:105AB20017A05EEF2DF060EF2DF077EF2DF014C000
:105AC20009F015C00AF016C00BF017C00CF00C3428
:105AD2000C320B320A32093209C014F00AC015F036
:105AE2000BC016F00CC017F0184A192A19BE82EF23
:105AF2002DF0195008E11828D8A082EF2DF084EF7C
:105B02002DF08EEF2DF0000E146E000E156E800E2D
:105B1200166E7F0E176EBCEF2DF019BE9BEF2DF0A7
:105B2200195006E11804D8B099EF2DF09BEF2DF033
:105B3200A7EF2DF0000E146E000E156E000E166EFD
:105B4200000E176E000E0D6EBCEF2DF018C013F094
:105B5200FF0E1416FF0E15167F0E1616000E1716E0
:105B620013A0B6EF2DF0B8EF2DF0B9EF2DF0168E91
:105B7200D8901330176E0D50171214C001F015C0D3
:105B820002F016C003F017C004F01200D7C0D9FF0C
:105B9200D8C0DAFFDECFF6FFDDCFF7FFF86A0800E4
:105BA200F550250AD8A4D8EF2DF0DAEF2DF07EEFCC
:105BB2002FF0D7C0D9FFD8C0DAFFDE2A000EDD22CF
:105BC200000E0101E96F000EE86FE8C1F0F1EA6929
:105BD200EB69D7C0D9FFD8C0DAFFDECFF6FFDDCF41
:105BE200F7FFF86A0800F5502E0AD8A4FBEF2DF053
:105BF200FDEF2DF06DEF2EF0000EEB6F000EEA6F51
:105C0200D7C0D9FFD8C0DAFFDE2A000EDD22D7C006
:105C1200D9FFD8C0DAFFDECFF6FFDDCFF7FFF86A93
:105C22000800F5502A0AD8A419EF2EF01BEF2EF027
:105C320038EF2EF0D7C0D9FFD8C0DAFFDE2A000E27
:105C4200DD22D9C0D9FFDAC0DAFFDFCFDBF0020EE6
:105C5200DE26DFCFDCF0000EDD22DBC0D9FFDCC0A8
:105C6200DAFFDECFEAF1DDCFEBF16DEF2EF0D7C038
:105C7200D9FFD8C0DAFFDECF66F0DDCF67F0C0EC27
:105C820035F066C0EAF167C0EBF14FEF2EF0D7C0F6
:105C9200D9FFD8C0DAFFDE2A000EDD22D7C0D9FF35
:105CA200D8C0DAFFDECFF6FFDDCFF7FFF86A0800D3
:105CB200F5CFDBF0D00E0001DB25DC6FDD6BFF0ED4
:105CC200DD23DD5109E10A0EDC5DD8A06BEF2EF079
:105CD2006DEF2EF048EF2EF0D7C0D9FFD8C0DAFF13
:105CE200DECFF6FFDDCFF7FFF86A0800F550630A52
:105CF200D8A47EEF2EF080EF2EF0A4EF2EF0D7C0C6
:105D0200D9FFD8C0DAFFDE2A000EDD22D9C0D9FFC2
:105D1200DAC0DAFFDFCFDBF0020EDE26DFCFDCF007
:105D2200000EDD22DBC0D9FFDCC0DAFFDF5000014C
:105D3200E66FD5C06BF0D6C06CF0E6C06DF01AEC21
:105D42003DF094EF2FF0D7C0D9FFD8C0DAFFDECFF5
:105D5200E7F0DDCFE8F0E7C0F6FFE8C0F7FFF86A4A
:105D62000800F5CFE6F0C2EF2EF0E74BE82BDCEFB0
:105D72002EF06C0EE66FDCEF2EF0000EE66FDCEF1D
:105D82002EF00001E651DB6FDC6BDC51000AD8B467
:105D9200CDEF2EF0BEEF2EF0DB514C0AD8B4B6EFA9
:105DA2002EF02A0AD8B4BAEF2EF00A0AD8B4B6EF07
:105DB2002EF0BEEF2EF0E7C0F6FFE8C0F7FFF86A5C
:105DC2000800F550660AD8A4E9EF2EF0EBEF2EF0AA
:105DD20075EF2FF021EF2FF0D9C0D9FFDAC0DAFF2B
:105DE200DFCFDBF0040EDE26DFCFDCF0000EDD229B
:105DF200DBC0D9FFDCC0DAFFDECFDEF0DECFDFF0C2
:105E0200DECFE0F0DECFE1F036EF2FF0D9C0D9FFE0
:105E1200DAC0DAFFDFCFDBF0040EDE26DFCFDCF004
:105E2200000EDD22DBC0D9FFDCC0DAFFDECFDEF000
:105E3200DECFDFF0DECFE0F0DECFE1F036EF2FF0A5
:105E4200E651DB6FDC6BDC51000AD8B42BEF2FF08C
:105E520036EF2FF0DB514C0AD8B407EF2FF0200AAF
:105E6200D8B4EDEF2EF036EF2FF0010EE725DB6F01
:105E7200000EE821DC6FD7C0D9FFD8C0DAFFDBC043
:105E8200DEFFDCC0DDFF5EEF2FF0D5C0CCF0D6C068
:105E9200CDF0DEC0CEF0DFC0CFF0E0C0D0F0E1C088
:105EA200D1F0E7C0F6FFE8C0F7FFF86A0800F5CFC7
:105EB200D2F028EC1DF094EF2FF0E7C0F6FFE8C017
:105EC200F7FFF86A0800F550DB6FDC6BDC51000A63
:105ED200D8B46EEF2FF075EF2FF0DB51660AD8B40D
:105EE20046EF2FF075EF2FF0D7C0D9FFD8C0DAFFF9
:105EF200DE2A000EDD2294EF2FF0D7C0D9FFD8C0E2
:105F0200DAFFDECFF6FFDDCFF7FFF86A0800F550C3
:105F12000001626F636BD5C064F0D6C065F0C0EC5F
:105F22003DF075EF2FF012000001A251800BAF6F10
:105F3200A251A225B66FA1AFA1EF2FF0A3EF2FF0D0
:105F4200A4EF2FF0B681B651D8B4AAEF2FF0ACEF80
:105F52002FF0C1EF2FF0B629D8A4B2EF2FF0B4EF93
:105F62002FF0BCEF2FF0000E9F6F000EA06F000EFF
:105F7200A16F000EA26FA18F000EA26FC9EF2FF0CA
:105F8200000E9F6F000EA06F000EA16F000EA26F99
:105F9200A651800BAF1BA651A625B76FA5AFD4EFB4
:105FA2002FF0D6EF2FF0D7EF2FF0B781B751D8B43B
:105FB200DDEF2FF0DFEF2FF0F4EF2FF0B729D8A4A9
:105FC200E5EF2FF0E7EF2FF0EFEF2FF0000EA36FCA
:105FD200000EA46F000EA56F000EA66FA58F000E17
:105FE200A66FFCEF2FF0000EA36F000EA46F000E41
:105FF200A56F000EA66FA351A411A511A611D8A4D6
:1060020005EF30F007EF30F01FEF30F0000E9F6F1A
:10601200000EA06F000EA16F000EA26F800EA113E2
:106022007F0EA213AF51A2139FC09FF0A0C0A0F099
:10603200A1C0A1F0A2C0A2F062EF31F0B651D8A483
:1060420025EF30F027EF30F031EF30F0000E9F6F88
:10605200000EA06F000EA16F000EA26F62EF31F072
:10606200B751B6C0A7F0A86BA75F000EA85B7F0E62
:10607200A725B06F000EA821B16F9FC0ABF0A0C0E2
:10608200ACF0A1C0ADF0A2C0AEF0000E9F6F000E4A
:10609200A06F000EA16F000EA26F000EB26F000E75
:1060A200B36F000EB46F000EB56F000EB76F92EFB4
:1060B20030F0B751D8B460EF30F062EF30F079EFE2
:1060C20030F0D890AB37AC37AD37AE37D8909F377A
:1060D200A037A137A237B5AF71EF30F073EF30F0D0
:1060E20074EF30F09F81D890B237B337B437B537F9
:1060F200A351AB5DA451AC59A551AD59A651AE59AE
:10610200D8A086EF30F088EF30F091EF30F0B58D07
:10611200A351AB5FA451AC5BA551AD5BA651AE5B85
:10612200B72B190EB76598EF30F09AEF30F05AEFAF
:1061320030F0AB51AC11AD11AE11D8B4A3EF30F0C9
:10614200A5EF30F0BDEF30F0B281BDEF30F0D89066
:106152009F37A037A137A237B5AFB2EF30F0B4EF17
:1061620030F0B5EF30F09F81D890B237B337B43703
:10617200B537B007D8A0B107A1AFC2EF30F0C4EF76
:1061820030F0A8EF30F0000EB76FB5AFCBEF30F0C4
:10619200CDEF30F0F1EF30F0FF0EB215A76FFF0E2A
:1061A200B315A86FFF0EB415A96F7F0EB515AA6FB0
:1061B200A751A811A911AA11D8B4E2EF30F0E4EF67
:1061C20030F0E8EF30F0010EB76FF1EF30F09FA141
:1061D200EDEF30F0EFEF30F0F1EF30F0E4EF30F0D0
:1061E200B751D8B4F7EF30F0F9EF30F01DEF31F0DE
:1061F200010E9F27000EA023A123A223A2A104EF38
:1062020031F006EF31F01DEF31F09FC0A7F0A0C0D2
:10621200A8F0A1C0A9F0A2C0AAF0AA35AA33A93356
:10622200A833A733A7C09FF0A8C0A0F0A9C0A1F0CF
:10623200AAC0A2F0B04BB12BB1BF28EF31F0B151DF
:1062420008E1B029D8A028EF31F02AEF31F035EF7C
:1062520031F0000EB16FB069000E9F6F000EA06F9B
:10626200000EA16F000EA26FB1BF42EF31F0B1512B
:1062720006E1B005D8B040EF31F042EF31F050EF17
:1062820031F0000EB16F000EB06F000E9F6F000E66
:10629200A06F000EA16F000EA26F000EAF6FB0C014
:1062A200B6F0B6A157EF31F059EF31F05CEF31F0B3
:1062B200A18F5DEF31F0A19FD890B631A26F13EF9D
:1062C20030F01200E90E0001726F000E736F50EC95
:1062D20042F0E6C160F0E7C161F00001626B636BFE
:1062E200000EE4EC34F060C097F061C098F062C038
:1062F20099F063C09AF0E4C160F0E5C161F0000179
:10630200626B636B000EE4EC34F060C09BF061C022
:106312009CF062C09DF063C09EF0C3EC41F097C058
:10632200D0F198C0D1F199C0D2F19AC0D3F1E2C1B3
:1063320060F0E3C161F00001626B636B000EE4EC9C
:1063420034F060C097F061C098F062C099F063C009
:106352009AF0E0C160F0E1C161F00001626B636B31
:10636200000EE4EC34F060C09BF061C09CF062C0AF
:106372009DF063C09EF0C3EC41F097C0D4F198C089
:10638200D5F199C0D6F19AC0D7F1000E00019F6FE6
:10639200000EA06F000EA16F000EA26FD4C1A3F079
:1063A200D5C1A4F0D6C1A5F0D7C1A6F05EEC39F0F4
:1063B2000001D8B0DFEF31F0E1EF31F0FBEF31F067
:1063C200000E9F6F000EA06F000EA16F000EA26F55
:1063D200D0C1A3F0D1C1A4F0D2C1A5F0D3C1A6F01F
:1063E2005EEC39F00001D8A0F9EF31F0FBEF31F0AB
:1063F20006EF32F0000E0101CC6F000ECD6F000EE1
:10640200CE6F000ECF6F20EF32F0D0C19FF0D1C11E
:10641200A0F0D2C1A1F0D3C1A2F0D4C1A3F0D5C1E2
:10642200A4F0D6C1A5F0D7C1A6F095EC2FF09FC07D
:10643200CCF1A0C0CDF1A1C0CEF1A2C0CFF1000E2F
:106442000001826F000E836F000E846F400E856F15
:10645200CCC17EF0CDC17FF0CEC180F0CFC181F042
:106462009CEC29F07EC0C0F17FC0C1F180C0C2F1B6
:1064720081C0C3F1DB0E0001826F0F0E836F490EE4
:10648200846F400E856FC0C17EF0C1C17FF0C2C172
:1064920080F0C3C181F09CEC29F07EC0C4F17FC0C2
:1064A200C5F180C0C6F181C0C7F1EDC0DCF0EEC01D
:1064B200DDF0EFC0DEF0F0C0DFF0000E0001D86FBB
:1064C200000ED96F200EDA6F410EDB6FD9EC07F0A8
:1064D200D8C0C8F1D9C0C9F1DAC0CAF1DBC0CBF16A
:1064E2008F0E0001826FC20E836F750E846F3D0E98
:1064F200856FC4C17EF0C5C17FF0C6C180F0C7C13F
:1065020081F09CEC29F07EC09FF07FC0A0F080C09B
:10651200A1F081C0A2F0000E0001826F000E836F15
:10652200800E846F450E856FC8C17EF0C9C17FF0B1
:10653200CAC180F0CBC181F09CEC29F07EC0A3F0EF
:106542007FC0A4F080C0A5F081C0A6F095EC2FF02A
:106552009FC0BCF1A0C0BDF1A1C0BEF1A2C0BFF1FD
:10656200BCC1E9F0BDC1EAF0BEC1EBF0BFC1ECF0C5
:10657200120097C0A5F098C0A6F099C0A7F09AC0E3
:10658200A8F000019CBFCFEF32F09C5109E1800ED0
:106592009B5DD8A0CFEF32F0D1EF32F031EF33F084
:1065A200A5C07EF0A6C07FF0A7C080F0A8C081F091
:1065B200000E826F000E836F000E846F7F0E856F58
:1065C2009CEC29F07EC0A5F07FC0A6F080C0A7F0A9
:1065D20081C0A8F00001810E9B27FF0E9C239CBF67
:1065E200FCEF32F09C5109E1800E9B5DD8A0FCEFDC
:1065F20032F0FEEF32F09DEF33F0A5C07EF0A6C080
:106602007FF0A7C080F0A8C081F0000E826F000E5C
:10661200836F000E846F7F0E856F9CEC29F07EC025
:10662200A5F07FC0A6F080C0A7F081C0A8F000014D
:10663200810E9B27FF0E9C239CBF29EF33F09C51B8
:1066420009E1800E9B5DD8A029EF33F02BEF33F0E8
:106652009DEF33F0000E9C6F7F0E9B6F9DEF33F02A
:106662009CAF3DEF33F0820E9B5DFF0E9C59D8B07C
:106672003DEF33F03FEF33F09DEF33F0A5C07EF0F6
:10668200A6C07FF0A7C080F0A8C081F0000E826F84
:10669200000E836F800E846F0C0E856F9CEC29F0C8
:1066A2007EC0A5F07FC0A6F080C0A7F081C0A8F090
:1066B200660E00019B27000E9C239CAF6AEF33F00D
:1066C200820E9B5DFF0E9C59D8B06AEF33F06CEFDF
:1066D20033F09DEF33F0A5C07EF0A6C07FF0A7C0D7
:1066E20080F0A8C081F0000E826F000E836F800ED2
:1066F200846F0C0E856F9CEC29F07EC0A5F07FC0E4
:10670200A6F080C0A7F081C0A8F0660E00019B270A
:10671200000E9C239CAF97EF33F0820E9B5DFF0E21
:106722009C59D8B097EF33F099EF33F09DEF33F0E7
:10673200FF0E9C6F820E9B6F7F0E9B259D6F000E3E
:106742009C219E6F9F6BA06B170ED8909D379E3732
:106752009F37A037E82EA6EF33F09DC0A1F09EC070
:10676200A2F09FC0A3F0A0C0A4F0A1C07EF0A2C07E
:106772007FF0A3C080F0A4C081F0A5C082F0A6C0C3
:1067820083F0A7C084F0A8C085F09CEC29F07EC0FD
:1067920097F07FC098F080C099F081C09AF097C0BE
:1067A20097F098C098F099C099F09AC09AF01200A8
:1067B2003CC0C8F03DC0C9F03EC0CAF03FC0CBF0FB
:1067C200B8C0C8F0B9C0C9F0BAC0CAF0BBC0CBF0FB
:1067D200810E0001BC6FFF0EBD6FC8C0BEF0C9C004
:1067E200BFF0CAC0C0F0CBC0C1F0180EFEEF33F04C
:1067F200D890C133C033BF33BE33E82EF9EF33F044
:10680200BE51BC25C66F000EBD21C76FC7BF13EFB7
:1068120034F0C75109E1170EC65DD8A013EF34F06A
:1068220015EF34F01FEF34F0B8C0B8F0B9C0B9F0CA
:10683200BAC0BAF0BBC0BBF0E3EF34F0C7BF24EF7D
:1068420034F026EF34F097EF34F0C6C0BCF0FF0E00
